{
  "abi": [
    {
      "inputs": [
        {
          "internalType": "address",
          "name": "_token",
          "type": "address"
        },
        {
          "internalType": "string",
          "name": "name",
          "type": "string"
        },
        {
          "internalType": "string",
          "name": "symbol",
          "type": "string"
        }
      ],
      "stateMutability": "nonpayable",
      "type": "constructor"
    },
    {
      "inputs": [
        {
          "internalType": "address",
          "name": "target",
          "type": "address"
        }
      ],
      "name": "AddressEmptyCode",
      "type": "error"
    },
    {
      "inputs": [
        {
          "internalType": "address",
          "name": "account",
          "type": "address"
        }
      ],
      "name": "AddressInsufficientBalance",
      "type": "error"
    },
    {
      "inputs": [
        {
          "internalType": "address",
          "name": "spender",
          "type": "address"
        },
        {
          "internalType": "uint256",
          "name": "allowance",
          "type": "uint256"
        },
        {
          "internalType": "uint256",
          "name": "needed",
          "type": "uint256"
        }
      ],
      "name": "ERC20InsufficientAllowance",
      "type": "error"
    },
    {
      "inputs": [
        {
          "internalType": "address",
          "name": "sender",
          "type": "address"
        },
        {
          "internalType": "uint256",
          "name": "balance",
          "type": "uint256"
        },
        {
          "internalType": "uint256",
          "name": "needed",
          "type": "uint256"
        }
      ],
      "name": "ERC20InsufficientBalance",
      "type": "error"
    },
    {
      "inputs": [
        {
          "internalType": "address",
          "name": "approver",
          "type": "address"
        }
      ],
      "name": "ERC20InvalidApprover",
      "type": "error"
    },
    {
      "inputs": [
        {
          "internalType": "address",
          "name": "receiver",
          "type": "address"
        }
      ],
      "name": "ERC20InvalidReceiver",
      "type": "error"
    },
    {
      "inputs": [
        {
          "internalType": "address",
          "name": "sender",
          "type": "address"
        }
      ],
      "name": "ERC20InvalidSender",
      "type": "error"
    },
    {
      "inputs": [
        {
          "internalType": "address",
          "name": "spender",
          "type": "address"
        }
      ],
      "name": "ERC20InvalidSpender",
      "type": "error"
    },
    {
      "inputs": [
        {
          "internalType": "address",
          "name": "receiver",
          "type": "address"
        },
        {
          "internalType": "uint256",
          "name": "assets",
          "type": "uint256"
        },
        {
          "internalType": "uint256",
          "name": "max",
          "type": "uint256"
        }
      ],
      "name": "ERC4626ExceededMaxDeposit",
      "type": "error"
    },
    {
      "inputs": [
        {
          "internalType": "address",
          "name": "receiver",
          "type": "address"
        },
        {
          "internalType": "uint256",
          "name": "shares",
          "type": "uint256"
        },
        {
          "internalType": "uint256",
          "name": "max",
          "type": "uint256"
        }
      ],
      "name": "ERC4626ExceededMaxMint",
      "type": "error"
    },
    {
      "inputs": [
        {
          "internalType": "address",
          "name": "owner",
          "type": "address"
        },
        {
          "internalType": "uint256",
          "name": "shares",
          "type": "uint256"
        },
        {
          "internalType": "uint256",
          "name": "max",
          "type": "uint256"
        }
      ],
      "name": "ERC4626ExceededMaxRedeem",
      "type": "error"
    },
    {
      "inputs": [
        {
          "internalType": "address",
          "name": "owner",
          "type": "address"
        },
        {
          "internalType": "uint256",
          "name": "assets",
          "type": "uint256"
        },
        {
          "internalType": "uint256",
          "name": "max",
          "type": "uint256"
        }
      ],
      "name": "ERC4626ExceededMaxWithdraw",
      "type": "error"
    },
    {
      "inputs": [],
      "name": "FailedInnerCall",
      "type": "error"
    },
    {
      "inputs": [],
      "name": "MathOverflowedMulDiv",
      "type": "error"
    },
    {
      "inputs": [
        {
          "internalType": "address",
          "name": "token",
          "type": "address"
        }
      ],
      "name": "SafeERC20FailedOperation",
      "type": "error"
    },
    {
      "anonymous": false,
      "inputs": [
        {
          "indexed": true,
          "internalType": "address",
          "name": "owner",
          "type": "address"
        },
        {
          "indexed": true,
          "internalType": "address",
          "name": "spender",
          "type": "address"
        },
        {
          "indexed": false,
          "internalType": "uint256",
          "name": "value",
          "type": "uint256"
        }
      ],
      "name": "Approval",
      "type": "event"
    },
    {
      "anonymous": false,
      "inputs": [
        {
          "indexed": true,
          "internalType": "address",
          "name": "sender",
          "type": "address"
        },
        {
          "indexed": true,
          "internalType": "address",
          "name": "owner",
          "type": "address"
        },
        {
          "indexed": false,
          "internalType": "uint256",
          "name": "assets",
          "type": "uint256"
        },
        {
          "indexed": false,
          "internalType": "uint256",
          "name": "shares",
          "type": "uint256"
        }
      ],
      "name": "Deposit",
      "type": "event"
    },
    {
      "anonymous": false,
      "inputs": [
        {
          "indexed": true,
          "internalType": "address",
          "name": "from",
          "type": "address"
        },
        {
          "indexed": true,
          "internalType": "address",
          "name": "to",
          "type": "address"
        },
        {
          "indexed": false,
          "internalType": "uint256",
          "name": "value",
          "type": "uint256"
        }
      ],
      "name": "Transfer",
      "type": "event"
    },
    {
      "anonymous": false,
      "inputs": [
        {
          "indexed": true,
          "internalType": "address",
          "name": "sender",
          "type": "address"
        },
        {
          "indexed": true,
          "internalType": "address",
          "name": "receiver",
          "type": "address"
        },
        {
          "indexed": true,
          "internalType": "address",
          "name": "owner",
          "type": "address"
        },
        {
          "indexed": false,
          "internalType": "uint256",
          "name": "assets",
          "type": "uint256"
        },
        {
          "indexed": false,
          "internalType": "uint256",
          "name": "shares",
          "type": "uint256"
        }
      ],
      "name": "Withdraw",
      "type": "event"
    },
    {
      "inputs": [
        {
          "internalType": "address",
          "name": "owner",
          "type": "address"
        },
        {
          "internalType": "address",
          "name": "spender",
          "type": "address"
        }
      ],
      "name": "allowance",
      "outputs": [
        {
          "internalType": "uint256",
          "name": "",
          "type": "uint256"
        }
      ],
      "stateMutability": "view",
      "type": "function"
    },
    {
      "inputs": [
        {
          "internalType": "address",
          "name": "spender",
          "type": "address"
        },
        {
          "internalType": "uint256",
          "name": "value",
          "type": "uint256"
        }
      ],
      "name": "approve",
      "outputs": [
        {
          "internalType": "bool",
          "name": "",
          "type": "bool"
        }
      ],
      "stateMutability": "nonpayable",
      "type": "function"
    },
    {
      "inputs": [],
      "name": "asset",
      "outputs": [
        {
          "internalType": "address",
          "name": "",
          "type": "address"
        }
      ],
      "stateMutability": "view",
      "type": "function"
    },
    {
      "inputs": [
        {
          "internalType": "address",
          "name": "",
          "type": "address"
        }
      ],
      "name": "assetsTot",
      "outputs": [
        {
          "internalType": "uint256",
          "name": "",
          "type": "uint256"
        }
      ],
      "stateMutability": "view",
      "type": "function"
    },
    {
      "inputs": [
        {
          "internalType": "address",
          "name": "account",
          "type": "address"
        }
      ],
      "name": "balanceOf",
      "outputs": [
        {
          "internalType": "uint256",
          "name": "",
          "type": "uint256"
        }
      ],
      "stateMutability": "view",
      "type": "function"
    },
    {
      "inputs": [
        {
          "internalType": "uint256",
          "name": "shares",
          "type": "uint256"
        }
      ],
      "name": "convertToAssets",
      "outputs": [
        {
          "internalType": "uint256",
          "name": "",
          "type": "uint256"
        }
      ],
      "stateMutability": "view",
      "type": "function"
    },
    {
      "inputs": [
        {
          "internalType": "uint256",
          "name": "assets",
          "type": "uint256"
        }
      ],
      "name": "convertToShares",
      "outputs": [
        {
          "internalType": "uint256",
          "name": "",
          "type": "uint256"
        }
      ],
      "stateMutability": "view",
      "type": "function"
    },
    {
      "inputs": [],
      "name": "decimals",
      "outputs": [
        {
          "internalType": "uint8",
          "name": "",
          "type": "uint8"
        }
      ],
      "stateMutability": "view",
      "type": "function"
    },
    {
      "inputs": [
        {
          "internalType": "uint256",
          "name": "assets",
          "type": "uint256"
        },
        {
          "internalType": "address",
          "name": "receiver",
          "type": "address"
        }
      ],
      "name": "deposit",
      "outputs": [
        {
          "internalType": "uint256",
          "name": "",
          "type": "uint256"
        }
      ],
      "stateMutability": "nonpayable",
      "type": "function"
    },
    {
      "inputs": [
        {
          "internalType": "address",
          "name": "",
          "type": "address"
        }
      ],
      "name": "liquidityPositions",
      "outputs": [
        {
          "internalType": "uint256",
          "name": "",
          "type": "uint256"
        }
      ],
      "stateMutability": "view",
      "type": "function"
    },
    {
      "inputs": [
        {
          "internalType": "address",
          "name": "",
          "type": "address"
        }
      ],
      "name": "maxDeposit",
      "outputs": [
        {
          "internalType": "uint256",
          "name": "",
          "type": "uint256"
        }
      ],
      "stateMutability": "view",
      "type": "function"
    },
    {
      "inputs": [
        {
          "internalType": "address",
          "name": "",
          "type": "address"
        }
      ],
      "name": "maxMint",
      "outputs": [
        {
          "internalType": "uint256",
          "name": "",
          "type": "uint256"
        }
      ],
      "stateMutability": "view",
      "type": "function"
    },
    {
      "inputs": [
        {
          "internalType": "address",
          "name": "owner",
          "type": "address"
        }
      ],
      "name": "maxRedeem",
      "outputs": [
        {
          "internalType": "uint256",
          "name": "",
          "type": "uint256"
        }
      ],
      "stateMutability": "view",
      "type": "function"
    },
    {
      "inputs": [
        {
          "internalType": "address",
          "name": "owner",
          "type": "address"
        }
      ],
      "name": "maxWithdraw",
      "outputs": [
        {
          "internalType": "uint256",
          "name": "",
          "type": "uint256"
        }
      ],
      "stateMutability": "view",
      "type": "function"
    },
    {
      "inputs": [
        {
          "internalType": "uint256",
          "name": "shares",
          "type": "uint256"
        },
        {
          "internalType": "address",
          "name": "receiver",
          "type": "address"
        }
      ],
      "name": "mint",
      "outputs": [
        {
          "internalType": "uint256",
          "name": "",
          "type": "uint256"
        }
      ],
      "stateMutability": "nonpayable",
      "type": "function"
    },
    {
      "inputs": [
        {
          "internalType": "uint256",
          "name": "amount0ToAdd",
          "type": "uint256"
        },
        {
          "internalType": "uint256",
          "name": "amount1ToAdd",
          "type": "uint256"
        }
      ],
      "name": "mintNewPosition",
      "outputs": [
        {
          "internalType": "uint256",
          "name": "tokenId",
          "type": "uint256"
        },
        {
          "internalType": "uint128",
          "name": "liquidity",
          "type": "uint128"
        },
        {
          "internalType": "uint256",
          "name": "amount0",
          "type": "uint256"
        },
        {
          "internalType": "uint256",
          "name": "amount1",
          "type": "uint256"
        },
        {
          "internalType": "uint256",
          "name": "refundUsdc",
          "type": "uint256"
        },
        {
          "internalType": "uint256",
          "name": "refundGho",
          "type": "uint256"
        }
      ],
      "stateMutability": "nonpayable",
      "type": "function"
    },
    {
      "inputs": [],
      "name": "name",
      "outputs": [
        {
          "internalType": "string",
          "name": "",
          "type": "string"
        }
      ],
      "stateMutability": "view",
      "type": "function"
    },
    {
      "inputs": [],
      "name": "nonfungiblePositionManager",
      "outputs": [
        {
          "internalType": "contract INonfungiblePositionManager",
          "name": "",
          "type": "address"
        }
      ],
      "stateMutability": "view",
      "type": "function"
    },
    {
      "inputs": [
        {
          "internalType": "address",
          "name": "operator",
          "type": "address"
        },
        {
          "internalType": "address",
          "name": "from",
          "type": "address"
        },
        {
          "internalType": "uint256",
          "name": "tokenId",
          "type": "uint256"
        },
        {
          "internalType": "bytes",
          "name": "",
          "type": "bytes"
        }
      ],
      "name": "onERC721Received",
      "outputs": [
        {
          "internalType": "bytes4",
          "name": "",
          "type": "bytes4"
        }
      ],
      "stateMutability": "nonpayable",
      "type": "function"
    },
    {
      "inputs": [],
      "name": "positionId",
      "outputs": [
        {
          "internalType": "uint256",
          "name": "",
          "type": "uint256"
        }
      ],
      "stateMutability": "view",
      "type": "function"
    },
    {
      "inputs": [
        {
          "internalType": "uint256",
          "name": "assets",
          "type": "uint256"
        }
      ],
      "name": "previewDeposit",
      "outputs": [
        {
          "internalType": "uint256",
          "name": "",
          "type": "uint256"
        }
      ],
      "stateMutability": "view",
      "type": "function"
    },
    {
      "inputs": [
        {
          "internalType": "uint256",
          "name": "shares",
          "type": "uint256"
        }
      ],
      "name": "previewMint",
      "outputs": [
        {
          "internalType": "uint256",
          "name": "",
          "type": "uint256"
        }
      ],
      "stateMutability": "view",
      "type": "function"
    },
    {
      "inputs": [
        {
          "internalType": "uint256",
          "name": "shares",
          "type": "uint256"
        }
      ],
      "name": "previewRedeem",
      "outputs": [
        {
          "internalType": "uint256",
          "name": "",
          "type": "uint256"
        }
      ],
      "stateMutability": "view",
      "type": "function"
    },
    {
      "inputs": [
        {
          "internalType": "uint256",
          "name": "assets",
          "type": "uint256"
        }
      ],
      "name": "previewWithdraw",
      "outputs": [
        {
          "internalType": "uint256",
          "name": "",
          "type": "uint256"
        }
      ],
      "stateMutability": "view",
      "type": "function"
    },
    {
      "inputs": [
        {
          "internalType": "uint256",
          "name": "shares",
          "type": "uint256"
        },
        {
          "internalType": "address",
          "name": "receiver",
          "type": "address"
        },
        {
          "internalType": "address",
          "name": "owner",
          "type": "address"
        }
      ],
      "name": "redeem",
      "outputs": [
        {
          "internalType": "uint256",
          "name": "",
          "type": "uint256"
        }
      ],
      "stateMutability": "nonpayable",
      "type": "function"
    },
    {
      "inputs": [],
      "name": "symbol",
      "outputs": [
        {
          "internalType": "string",
          "name": "",
          "type": "string"
        }
      ],
      "stateMutability": "view",
      "type": "function"
    },
    {
      "inputs": [],
      "name": "totAssets",
      "outputs": [
        {
          "internalType": "uint256",
          "name": "",
          "type": "uint256"
        }
      ],
      "stateMutability": "view",
      "type": "function"
    },
    {
      "inputs": [],
      "name": "totalAssets",
      "outputs": [
        {
          "internalType": "uint256",
          "name": "",
          "type": "uint256"
        }
      ],
      "stateMutability": "view",
      "type": "function"
    },
    {
      "inputs": [
        {
          "internalType": "address",
          "name": "user",
          "type": "address"
        }
      ],
      "name": "totalAssetsOfUser",
      "outputs": [
        {
          "internalType": "uint256",
          "name": "",
          "type": "uint256"
        }
      ],
      "stateMutability": "view",
      "type": "function"
    },
    {
      "inputs": [],
      "name": "totalLiquidity",
      "outputs": [
        {
          "internalType": "uint256",
          "name": "",
          "type": "uint256"
        }
      ],
      "stateMutability": "view",
      "type": "function"
    },
    {
      "inputs": [],
      "name": "totalSupply",
      "outputs": [
        {
          "internalType": "uint256",
          "name": "",
          "type": "uint256"
        }
      ],
      "stateMutability": "view",
      "type": "function"
    },
    {
      "inputs": [
        {
          "internalType": "address",
          "name": "to",
          "type": "address"
        },
        {
          "internalType": "uint256",
          "name": "value",
          "type": "uint256"
        }
      ],
      "name": "transfer",
      "outputs": [
        {
          "internalType": "bool",
          "name": "",
          "type": "bool"
        }
      ],
      "stateMutability": "nonpayable",
      "type": "function"
    },
    {
      "inputs": [
        {
          "internalType": "address",
          "name": "from",
          "type": "address"
        },
        {
          "internalType": "address",
          "name": "to",
          "type": "address"
        },
        {
          "internalType": "uint256",
          "name": "value",
          "type": "uint256"
        }
      ],
      "name": "transferFrom",
      "outputs": [
        {
          "internalType": "bool",
          "name": "",
          "type": "bool"
        }
      ],
      "stateMutability": "nonpayable",
      "type": "function"
    },
    {
      "inputs": [
        {
          "internalType": "uint256",
          "name": "shares",
          "type": "uint256"
        },
        {
          "internalType": "address",
          "name": "receiver",
          "type": "address"
        },
        {
          "internalType": "address",
          "name": "owner",
          "type": "address"
        }
      ],
      "name": "withdraw",
      "outputs": [
        {
          "internalType": "uint256",
          "name": "",
          "type": "uint256"
        }
      ],
      "stateMutability": "nonpayable",
      "type": "function"
    }
  ],
  "bytecode": {
    "object": "0x60c0604052600a80546001600160a01b031916731238536071e1c677a632429e3655c799b22cda521790553480156200003757600080fd5b5060405162003227380380620032278339810160408190526200005a9162000275565b82828260036200006b83826200038e565b5060046200007a82826200038e565b5050506000806200009183620000c360201b60201c565b9150915081620000a3576012620000a5565b805b60ff1660a05250506001600160a01b03166080525062000492915050565b60408051600481526024810182526020810180516001600160e01b031663313ce56760e01b17905290516000918291829182916001600160a01b038716916200010c916200045a565b600060405180830381855afa9150503d806000811462000149576040519150601f19603f3d011682016040523d82523d6000602084013e6200014e565b606091505b50915091508180156200016357506020815110155b156200019b5760008180602001905181019062000181919062000478565b905060ff811162000199576001969095509350505050565b505b5060009485945092505050565b634e487b7160e01b600052604160045260246000fd5b60005b83811015620001db578181015183820152602001620001c1565b50506000910152565b600082601f830112620001f657600080fd5b81516001600160401b0380821115620002135762000213620001a8565b604051601f8301601f19908116603f011681019082821181831017156200023e576200023e620001a8565b816040528381528660208588010111156200025857600080fd5b6200026b846020830160208901620001be565b9695505050505050565b6000806000606084860312156200028b57600080fd5b83516001600160a01b0381168114620002a357600080fd5b60208501519093506001600160401b0380821115620002c157600080fd5b620002cf87838801620001e4565b93506040860151915080821115620002e657600080fd5b50620002f586828701620001e4565b9150509250925092565b600181811c908216806200031457607f821691505b6020821081036200033557634e487b7160e01b600052602260045260246000fd5b50919050565b601f8211156200038957600081815260208120601f850160051c81016020861015620003645750805b601f850160051c820191505b81811015620003855782815560010162000370565b5050505b505050565b81516001600160401b03811115620003aa57620003aa620001a8565b620003c281620003bb8454620002ff565b846200033b565b602080601f831160018114620003fa5760008415620003e15750858301515b600019600386901b1c1916600185901b17855562000385565b600085815260208120601f198616915b828110156200042b578886015182559484019460019091019084016200040a565b50858210156200044a5787850151600019600388901b60f8161c191681555b5050505050600190811b01905550565b600082516200046e818460208701620001be565b9190910192915050565b6000602082840312156200048b57600080fd5b5051919050565b60805160a051612d6f620004b8600039600061062c0152600061031c0152612d6f6000f3fe608060405234801561001057600080fd5b50600436106102065760003560e01c806370a082311161011a578063b460af94116100ad578063ce96cb771161007c578063ce96cb771461048d578063d905777e146104a0578063dd62ed3e146104b3578063ef8b30f71461047a578063f058ebee146104ec57600080fd5b8063b460af9414610454578063ba08765214610467578063c63d75b614610354578063c6e6f5921461047a57600080fd5b80639c55f7a0116100e95780639c55f7a014610412578063a9059cbb1461041b578063b3d7f6b91461042e578063b44a27221461044157600080fd5b806370a08231146103c557806371640de3146103ee57806394bf804d146103f757806395d89b411461040a57600080fd5b806318160ddd1161019d578063402d267d1161016c578063402d267d1461035457806345be27b6146103695780634cdad5061461025b5780636e553f65146103925780636fd0ea92146103a557600080fd5b806318160ddd146102e557806323b872dd146102ed578063313ce5671461030057806338d52e0f1461031a57600080fd5b8063095ea7b3116101d9578063095ea7b31461026e5780630a28a47714610291578063150b7a02146102a457806315770f92146102dc57600080fd5b806301b54c1c1461020b57806301e1d1141461023e57806306fdde031461024657806307a2d13a1461025b575b600080fd5b61022b610219366004612520565b60066020526000908152604090205481565b6040519081526020015b60405180910390f35b60095461022b565b61024e610534565b604051610235919061255f565b61022b610269366004612592565b6105c6565b61028161027c3660046125ab565b6105d9565b6040519015158152602001610235565b61022b61029f366004612592565b6105f1565b6102c36102b23660046125d5565b630a85bd0160e11b95945050505050565b6040516001600160e01b03199091168152602001610235565b61022b60085481565b60025461022b565b6102816102fb366004612670565b6105fe565b610308610624565b60405160ff9091168152602001610235565b7f00000000000000000000000000000000000000000000000000000000000000005b6040516001600160a01b039091168152602001610235565b61022b610362366004612520565b5060001990565b61022b610377366004612520565b6001600160a01b031660009081526006602052604090205490565b61022b6103a03660046126ac565b610655565b61022b6103b3366004612520565b60056020526000908152604090205481565b61022b6103d3366004612520565b6001600160a01b031660009081526020819052604090205490565b61022b60075481565b61022b6104053660046126ac565b610c85565b61024e610cab565b61022b60095481565b6102816104293660046125ab565b610cba565b61022b61043c366004612592565b610cc8565b600a5461033c906001600160a01b031681565b61022b6104623660046126d8565b610cd5565b61022b6104753660046126d8565b61112e565b61022b610488366004612592565b611199565b61022b61049b366004612520565b6111a6565b61022b6104ae366004612520565b6111ca565b61022b6104c1366004612714565b6001600160a01b03918216600090815260016020908152604080832093909416825291909152205490565b6104ff6104fa36600461273e565b6111e8565b604080519687526001600160801b039095166020870152938501929092526060840152608083015260a082015260c001610235565b60606003805461054390612760565b80601f016020809104026020016040519081016040528092919081815260200182805461056f90612760565b80156105bc5780601f10610591576101008083540402835291602001916105bc565b820191906000526020600020905b81548152906001019060200180831161059f57829003601f168201915b5050505050905090565b60006105d38260006116f2565b92915050565b6000336105e781858561172d565b5060019392505050565b60006105d382600161173f565b60003361060c85828561176a565b6106178585856117e8565b60019150505b9392505050565b6000610650817f00000000000000000000000000000000000000000000000000000000000000006127b0565b905090565b6000600019610668565b60405180910390fd5b610682600080516020612d1a833981519152333087611847565b604080516002808252606082018352600092602083019080368337019050509050600080516020612d1a833981519152816000815181106106c5576106c56127df565b60200260200101906001600160a01b031690816001600160a01b0316815250507394a9d9ac8a22534e3faca9f4e7f2e2cf85d5e4c88160018151811061070d5761070d6127df565b6001600160a01b0390921660209283029190910190910152600061073260028761280b565b905081600081518110610747576107476127df565b60200260200101516001600160a01b031663095ea7b37349b86914d97db46ff0f771f7bea4f0b28501605b886040518363ffffffff1660e01b815260040161079092919061281f565b6020604051808303816000875af11580156107af573d6000803e3d6000fd5b505050506040513d601f19601f820116820180604052508101906107d39190612838565b506040516338ed173960e01b81526060907349b86914d97db46ff0f771f7bea4f0b28501605b906338ed17399061081790859060009088903090429060040161285a565b6000604051808303816000875af1158015610836573d6000803e3d6000fd5b505050506040513d6000823e601f3d908101601f1916820160405261085e91908101906128cb565b336000908152600560205260408120549192509081908190819081908103610a3f5787600081518110610893576108936127df565b60200260200101516001600160a01b031663095ea7b3600a60009054906101000a90046001600160a01b03168e6040518363ffffffff1660e01b81526004016108dd92919061281f565b6020604051808303816000875af11580156108fc573d6000803e3d6000fd5b505050506040513d601f19601f820116820180604052508101906109209190612838565b5087600181518110610934576109346127df565b60200260200101516001600160a01b031663095ea7b3600a60009054906101000a90046001600160a01b031688600181518110610973576109736127df565b602002602001015160026109879190612989565b6040518363ffffffff1660e01b81526004016109a492919061281f565b6020604051808303816000875af11580156109c3573d6000803e3d6000fd5b505050506040513d601f19601f820116820180604052508101906109e79190612838565b50610a0c866001815181106109fe576109fe6127df565b6020026020010151886111e8565b6007869055336000908152600560205260409020959095556001600160801b039093169850909650945092509050610be1565b87600081518110610a5257610a526127df565b60200260200101516001600160a01b031663095ea7b3731238536071e1c677a632429e3655c799b22cda528e6040518363ffffffff1660e01b8152600401610a9b92919061281f565b6020604051808303816000875af1158015610aba573d6000803e3d6000fd5b505050506040513d601f19601f82011682018060405250810190610ade9190612838565b5087600181518110610af257610af26127df565b60200260200101516001600160a01b031663095ea7b3731238536071e1c677a632429e3655c799b22cda5288600181518110610b3057610b306127df565b60200260200101516002610b449190612989565b6040518363ffffffff1660e01b8152600401610b6192919061281f565b6020604051808303816000875af1158015610b80573d6000803e3d6000fd5b505050506040513d601f19601f82011682018060405250810190610ba49190612838565b50610bcc60075487600181518110610bbe57610bbe6127df565b6020026020010151896118a1565b6001600160801b039094169850945091925050505b84610bee338d8f84611d78565b8560086000828254610c0091906129a0565b90915550829050610c11848f6129b3565b610c1b91906129b3565b6001600160a01b038d1660009081526006602052604081208054909190610c439084906129a0565b90915550829050610c54848f6129b3565b610c5e91906129b3565b60096000828254610c6f91906129a0565b90915550909d9c50505050505050505050505050565b60006000196000610c9585610cc8565b9050610ca333858388611d78565b949350505050565b60606004805461054390612760565b6000336105e78185856117e8565b60006105d38260016116f2565b336000908152600560205260408120548103610d2d5760405162461bcd60e51b81526020600482015260176024820152761c1bdcda5d1a5bdb88191bd95cc81b9bdd08195e1a5cdd604a1b604482015260640161065f565b336000908152600560205260408120548190610d499087611dde565b33600090815260056020526040812054929450909250908190610d6b90611eb0565b604080516002808252606082018352939550919350600092906020830190803683370190505090507394a9d9ac8a22534e3faca9f4e7f2e2cf85d5e4c881600081518110610dbb57610dbb6127df565b60200260200101906001600160a01b031690816001600160a01b031681525050600080516020612d1a83398151915281600181518110610dfd57610dfd6127df565b60200260200101906001600160a01b031690816001600160a01b03168152505080600081518110610e3057610e306127df565b60200260200101516001600160a01b031663095ea7b37349b86914d97db46ff0f771f7bea4f0b28501605b8588610e6791906129a0565b6040518363ffffffff1660e01b8152600401610e8492919061281f565b6020604051808303816000875af1158015610ea3573d6000803e3d6000fd5b505050506040513d601f19601f82011682018060405250810190610ec79190612838565b506040516370a0823160e01b81523060048201526060907349b86914d97db46ff0f771f7bea4f0b28501605b906338ed1739907394a9d9ac8a22534e3faca9f4e7f2e2cf85d5e4c8906370a0823190602401602060405180830381865afa158015610f36573d6000803e3d6000fd5b505050506040513d601f19601f82011682018060405250810190610f5a91906129c6565b60008530426040518663ffffffff1660e01b8152600401610f7f95949392919061285a565b6000604051808303816000875af1158015610f9e573d6000803e3d6000fd5b505050506040513d6000823e601f3d908101601f19168201604052610fc691908101906128cb565b6040516370a0823160e01b8152306004820152909150600090600080516020612d1a833981519152906370a0823190602401602060405180830381865afa158015611015573d6000803e3d6000fd5b505050506040513d601f19601f8201168201806040525081019061103991906129c6565b60405163a9059cbb60e01b8152909150600080516020612d1a8339815191529063a9059cbb9061106f908d90859060040161281f565b6020604051808303816000875af115801561108e573d6000803e3d6000fd5b505050506040513d601f19601f820116820180604052508101906110b29190612838565b506110c0338b8b8e8f611f73565b6001600160a01b038916600090815260066020526040812080548392906110e89084906129b3565b92505081905550806009600082825461110191906129b3565b925050819055508a6008600082825461111a91906129b3565b909155509a9b9a5050505050505050505050565b60008061113a836111ca565b90508085111561117657604051632e52afbb60e21b81526001600160a01b0384166004820152602481018690526044810182905260640161065f565b6000611181866105c6565b9050611190338686848a611f73565b95945050505050565b60006105d382600061173f565b6001600160a01b0381166000908152602081905260408120546105d39060006116f2565b6001600160a01b0381166000908152602081905260408120546105d3565b60008060008060008060006040518061016001604052807394a9d9ac8a22534e3faca9f4e7f2e2cf85d5e4c86001600160a01b03168152602001600080516020612d1a8339815191526001600160a01b03168152602001610bb862ffffff168152602001603c80620d89e71961125e91906129df565b6112689190612a19565b60020b8152602001603c80611280620d89e719612a40565b61128a91906129df565b6112949190612a19565b60020b8152602081018b905260408082018b905260006060830181905260808301523060a08301524260c090920191909152600a549051634418b22b60e11b81529192506001600160a01b0316906388316456906112f6908490600401612a62565b6080604051808303816000875af1158015611315573d6000803e3d6000fd5b505050506040513d601f19601f820116820180604052508101906113399190612b3d565b92995090975095509350888510156115d7576000611357868b6129b3565b60408051600280825260608201835292935060009290916020830190803683370190505090507394a9d9ac8a22534e3faca9f4e7f2e2cf85d5e4c8816000815181106113a5576113a56127df565b60200260200101906001600160a01b031690816001600160a01b031681525050600080516020612d1a833981519152816001815181106113e7576113e76127df565b6001600160a01b039092166020928302919091019091015260405163095ea7b360e01b81526060907394a9d9ac8a22534e3faca9f4e7f2e2cf85d5e4c89063095ea7b39061144f907349b86914d97db46ff0f771f7bea4f0b28501605b90879060040161281f565b6020604051808303816000875af115801561146e573d6000803e3d6000fd5b505050506040513d601f19601f820116820180604052508101906114929190612838565b506040516338ed173960e01b81527349b86914d97db46ff0f771f7bea4f0b28501605b906338ed1739906114d390869060009087903090429060040161285a565b6000604051808303816000875af11580156114f2573d6000803e3d6000fd5b505050506040513d6000823e601f3d908101601f1916820160405261151a91908101906128cb565b9050600080516020612d1a8339815191526001600160a01b031663a9059cbb338360018151811061154d5761154d6127df565b60200260200101516040518363ffffffff1660e01b815260040161157292919061281f565b6020604051808303816000875af1158015611591573d6000803e3d6000fd5b505050506040513d601f19601f820116820180604052508101906115b59190612838565b50806001815181106115c9576115c96127df565b602002602001015195505050505b878410156116e757600a5460405163095ea7b360e01b8152600080516020612d1a8339815191529163095ea7b39161161e916001600160a01b03169060009060040161281f565b6020604051808303816000875af115801561163d573d6000803e3d6000fd5b505050506040513d601f19601f820116820180604052508101906116619190612838565b5061166c84896129b3565b60405163a9059cbb60e01b8152909250600080516020612d1a8339815191529063a9059cbb906116a2903390869060040161281f565b6020604051808303816000875af11580156116c1573d6000803e3d6000fd5b505050506040513d601f19601f820116820180604052508101906116e59190612838565b505b509295509295509295565b600061061d61170060095490565b61170b9060016129a0565b6117176000600a612c5d565b60025461172491906129a0565b85919085612008565b61173a8383836001612057565b505050565b600061061d61174f82600a612c5d565b60025461175c91906129a0565b6009546117249060016129a0565b6001600160a01b0383811660009081526001602090815260408083209386168352929052205460001981146117e257818110156117d357604051637dc7a0d960e11b81526001600160a01b0384166004820152602481018290526044810183905260640161065f565b6117e284848484036000612057565b50505050565b6001600160a01b03831661181257604051634b637e8f60e11b81526000600482015260240161065f565b6001600160a01b03821661183c5760405163ec442f0560e01b81526000600482015260240161065f565b61173a83838361211e565b604080516001600160a01b0385811660248301528416604482015260648082018490528251808303909101815260849091019091526020810180516001600160e01b03166323b872dd60e01b1790526117e2908590612248565b33600090815260056020526040812054819081908190819081036119015760405162461bcd60e51b81526020600482015260176024820152761c1bdcda5d1a5bdb88191bd95cc81b9bdd08195e1a5cdd604a1b604482015260640161065f565b6040805160c08101825289815260208101898152818301898152600060608401818152608085019182524260a08601908152600a54965163219f5d1760e01b81528651600482015294516024860152925160448501525160648401525160848301525160a482015290916001600160a01b03169063219f5d179060c4016060604051808303816000875af115801561199d573d6000803e3d6000fd5b505050506040513d601f19601f820116820180604052508101906119c19190612c6c565b9197509550935087851015611c5c5760006119dc868a6129b3565b60408051600280825260608201835292935060009290916020830190803683370190505090507394a9d9ac8a22534e3faca9f4e7f2e2cf85d5e4c881600081518110611a2a57611a2a6127df565b60200260200101906001600160a01b031690816001600160a01b031681525050600080516020612d1a83398151915281600181518110611a6c57611a6c6127df565b6001600160a01b039092166020928302919091019091015260405163095ea7b360e01b81526060907394a9d9ac8a22534e3faca9f4e7f2e2cf85d5e4c89063095ea7b390611ad4907349b86914d97db46ff0f771f7bea4f0b28501605b90879060040161281f565b6020604051808303816000875af1158015611af3573d6000803e3d6000fd5b505050506040513d601f19601f82011682018060405250810190611b179190612838565b506040516338ed173960e01b81527349b86914d97db46ff0f771f7bea4f0b28501605b906338ed173990611b5890869060009087903090429060040161285a565b6000604051808303816000875af1158015611b77573d6000803e3d6000fd5b505050506040513d6000823e601f3d908101601f19168201604052611b9f91908101906128cb565b9050600080516020612d1a8339815191526001600160a01b031663a9059cbb3383600181518110611bd257611bd26127df565b60200260200101516040518363ffffffff1660e01b8152600401611bf792919061281f565b6020604051808303816000875af1158015611c16573d6000803e3d6000fd5b505050506040513d601f19601f82011682018060405250810190611c3a9190612838565b5080600181518110611c4e57611c4e6127df565b602002602001015195505050505b86841015611d6c57600a5460405163095ea7b360e01b8152600080516020612d1a8339815191529163095ea7b391611ca3916001600160a01b03169060009060040161281f565b6020604051808303816000875af1158015611cc2573d6000803e3d6000fd5b505050506040513d601f19601f82011682018060405250810190611ce69190612838565b50611cf184886129b3565b60405163a9059cbb60e01b8152909250600080516020612d1a8339815191529063a9059cbb90611d27903390869060040161281f565b6020604051808303816000875af1158015611d46573d6000803e3d6000fd5b505050506040513d601f19601f82011682018060405250810190611d6a9190612838565b505b50939792965093509350565b611d8283826122ab565b826001600160a01b0316846001600160a01b03167fdcbc1c05240f31ff3ad067ef1ee35ce4997762752e3a095284754544f4c709d78484604051611dd0929190918252602082015260400190565b60405180910390a350505050565b6040805160a0810182528381526001600160801b03838116602083019081526000838501818152606085018281524260808701908152600a549751630624e65f60e11b81528751600482015294519095166024850152905160448401525160648301529151608482015290928392916001600160a01b0390911690630c49ccbe9060a40160408051808303816000875af1158015611e80573d6000803e3d6000fd5b505050506040513d601f19601f82011682018060405250810190611ea49190612ca1565b90969095509350505050565b6040805160808101825282815230602082019081526001600160801b0382840181815260608401828152600a54955163fc6f786560e01b81528551600482015293516001600160a01b03908116602486015291518316604485015251909116606483015260009384939291169063fc6f78659060840160408051808303816000875af1158015611f44573d6000803e3d6000fd5b505050506040513d601f19601f82011682018060405250810190611f689190612ca1565b909590945092505050565b826001600160a01b0316856001600160a01b031614611f9757611f9783868361176a565b611fa183826122e5565b826001600160a01b0316846001600160a01b0316866001600160a01b03167ffbde797d201c681b91056529119e0b02407c7bb96a4a2c75c01fc9667232c8db8585604051611ff9929190918252602082015260400190565b60405180910390a45050505050565b60008061201686868661231b565b9050612021836123df565b801561203d575060008480612038576120386127f5565b868809115b156111905761204d6001826129a0565b9695505050505050565b6001600160a01b0384166120815760405163e602df0560e01b81526000600482015260240161065f565b6001600160a01b0383166120ab57604051634a1406b160e11b81526000600482015260240161065f565b6001600160a01b03808516600090815260016020908152604080832093871683529290522082905580156117e257826001600160a01b0316846001600160a01b03167f8c5be1e5ebec7d5bd14f71427d1e84f3dd0314c0f7b2291e5b200ac8c7c3b92584604051611dd091815260200190565b6001600160a01b03831661214957806002600082825461213e91906129a0565b909155506121bb9050565b6001600160a01b0383166000908152602081905260409020548181101561219c5760405163391434e360e21b81526001600160a01b0385166004820152602481018290526044810183905260640161065f565b6001600160a01b03841660009081526020819052604090209082900390555b6001600160a01b0382166121d7576002805482900390556121f6565b6001600160a01b03821660009081526020819052604090208054820190555b816001600160a01b0316836001600160a01b03167fddf252ad1be2c89b69c2b068fc378daa952ba7f163c4a11628f55a4df523b3ef8360405161223b91815260200190565b60405180910390a3505050565b600061225d6001600160a01b0384168361240c565b905080516000141580156122825750808060200190518101906122809190612838565b155b1561173a57604051635274afe760e01b81526001600160a01b038416600482015260240161065f565b6001600160a01b0382166122d55760405163ec442f0560e01b81526000600482015260240161065f565b6122e16000838361211e565b5050565b6001600160a01b03821661230f57604051634b637e8f60e11b81526000600482015260240161065f565b6122e18260008361211e565b600083830281600019858709828110838203039150508060000361235257838281612348576123486127f5565b049250505061061d565b8084116123725760405163227bc15360e01b815260040160405180910390fd5b6000848688096000868103871696879004966002600389028118808a02820302808a02820302808a02820302808a02820302808a02820302808a02909103029181900381900460010186841190950394909402919094039290920491909117919091029150509392505050565b600060028260038111156123f5576123f5612cc5565b6123ff9190612cdb565b60ff166001149050919050565b606061061d8383600084600080856001600160a01b031684866040516124329190612cfd565b60006040518083038185875af1925050503d806000811461246f576040519150601f19603f3d011682016040523d82523d6000602084013e612474565b606091505b509150915061204d8683836060826124945761248f826124db565b61061d565b81511580156124ab57506001600160a01b0384163b155b156124d457604051639996b31560e01b81526001600160a01b038516600482015260240161065f565b508061061d565b8051156124eb5780518082602001fd5b604051630a12f52160e11b815260040160405180910390fd5b80356001600160a01b038116811461251b57600080fd5b919050565b60006020828403121561253257600080fd5b61061d82612504565b60005b8381101561255657818101518382015260200161253e565b50506000910152565b602081526000825180602084015261257e81604085016020870161253b565b601f01601f19169190910160400192915050565b6000602082840312156125a457600080fd5b5035919050565b600080604083850312156125be57600080fd5b6125c783612504565b946020939093013593505050565b6000806000806000608086880312156125ed57600080fd5b6125f686612504565b945061260460208701612504565b935060408601359250606086013567ffffffffffffffff8082111561262857600080fd5b818801915088601f83011261263c57600080fd5b81358181111561264b57600080fd5b89602082850101111561265d57600080fd5b9699959850939650602001949392505050565b60008060006060848603121561268557600080fd5b61268e84612504565b925061269c60208501612504565b9150604084013590509250925092565b600080604083850312156126bf57600080fd5b823591506126cf60208401612504565b90509250929050565b6000806000606084860312156126ed57600080fd5b833592506126fd60208501612504565b915061270b60408501612504565b90509250925092565b6000806040838503121561272757600080fd5b61273083612504565b91506126cf60208401612504565b6000806040838503121561275157600080fd5b50508035926020909101359150565b600181811c9082168061277457607f821691505b60208210810361279457634e487b7160e01b600052602260045260246000fd5b50919050565b634e487b7160e01b600052601160045260246000fd5b60ff81811683821601908111156105d3576105d361279a565b634e487b7160e01b600052604160045260246000fd5b634e487b7160e01b600052603260045260246000fd5b634e487b7160e01b600052601260045260246000fd5b60008261281a5761281a6127f5565b500490565b6001600160a01b03929092168252602082015260400190565b60006020828403121561284a57600080fd5b8151801515811461061d57600080fd5b600060a082018783526020878185015260a0604085015281875180845260c086019150828901935060005b818110156128aa5784516001600160a01b031683529383019391830191600101612885565b50506001600160a01b03969096166060850152505050608001529392505050565b600060208083850312156128de57600080fd5b825167ffffffffffffffff808211156128f657600080fd5b818501915085601f83011261290a57600080fd5b81518181111561291c5761291c6127c9565b8060051b604051601f19603f83011681018181108582111715612941576129416127c9565b60405291825284820192508381018501918883111561295f57600080fd5b938501935b8285101561297d57845184529385019392850192612964565b98975050505050505050565b80820281158282048414176105d3576105d361279a565b808201808211156105d3576105d361279a565b818103818111156105d3576105d361279a565b6000602082840312156129d857600080fd5b5051919050565b60008160020b8360020b806129f6576129f66127f5565b627fffff19821460001982141615612a1057612a1061279a565b90059392505050565b60008260020b8260020b028060020b9150808214612a3957612a3961279a565b5092915050565b60008160020b627fffff198103612a5957612a5961279a565b60000392915050565b81516001600160a01b0316815261016081016020830151612a8e60208401826001600160a01b03169052565b506040830151612aa5604084018262ffffff169052565b506060830151612aba606084018260020b9052565b506080830151612acf608084018260020b9052565b5060a083015160a083015260c083015160c083015260e083015160e083015261010080840151818401525061012080840151612b15828501826001600160a01b03169052565b505061014092830151919092015290565b80516001600160801b038116811461251b57600080fd5b60008060008060808587031215612b5357600080fd5b84519350612b6360208601612b26565b6040860151606090960151949790965092505050565b600181815b80851115612bb4578160001904821115612b9a57612b9a61279a565b80851615612ba757918102915b93841c9390800290612b7e565b509250929050565b600082612bcb575060016105d3565b81612bd8575060006105d3565b8160018114612bee5760028114612bf857612c14565b60019150506105d3565b60ff841115612c0957612c0961279a565b50506001821b6105d3565b5060208310610133831016604e8410600b8410161715612c37575081810a6105d3565b612c418383612b79565b8060001904821115612c5557612c5561279a565b029392505050565b600061061d60ff841683612bbc565b600080600060608486031215612c8157600080fd5b612c8a84612b26565b925060208401519150604084015190509250925092565b60008060408385031215612cb457600080fd5b505080516020909101519092909150565b634e487b7160e01b600052602160045260246000fd5b600060ff831680612cee57612cee6127f5565b8060ff84160691505092915050565b60008251612d0f81846020870161253b565b919091019291505056fe000000000000000000000000c4bf5cbdabe595361438f8c6a187bdc330539c60a2646970667358221220dee4f8def4ad368761cfae1ec28eaa121dc8b45914868a4fcdb8cfb85dd618e464736f6c63430008140033",
    "linkReferences": {}
  },
  "methodIdentifiers": {
    "allowance(address,address)": "dd62ed3e",
    "approve(address,uint256)": "095ea7b3",
    "asset()": "38d52e0f",
    "assetsTot(address)": "01b54c1c",
    "balanceOf(address)": "70a08231",
    "convertToAssets(uint256)": "07a2d13a",
    "convertToShares(uint256)": "c6e6f592",
    "decimals()": "313ce567",
    "deposit(uint256,address)": "6e553f65",
    "liquidityPositions(address)": "6fd0ea92",
    "maxDeposit(address)": "402d267d",
    "maxMint(address)": "c63d75b6",
    "maxRedeem(address)": "d905777e",
    "maxWithdraw(address)": "ce96cb77",
    "mint(uint256,address)": "94bf804d",
    "mintNewPosition(uint256,uint256)": "f058ebee",
    "name()": "06fdde03",
    "nonfungiblePositionManager()": "b44a2722",
    "onERC721Received(address,address,uint256,bytes)": "150b7a02",
    "positionId()": "71640de3",
    "previewDeposit(uint256)": "ef8b30f7",
    "previewMint(uint256)": "b3d7f6b9",
    "previewRedeem(uint256)": "4cdad506",
    "previewWithdraw(uint256)": "0a28a477",
    "redeem(uint256,address,address)": "ba087652",
    "symbol()": "95d89b41",
    "totAssets()": "9c55f7a0",
    "totalAssets()": "01e1d114",
    "totalAssetsOfUser(address)": "45be27b6",
    "totalLiquidity()": "15770f92",
    "totalSupply()": "18160ddd",
    "transfer(address,uint256)": "a9059cbb",
    "transferFrom(address,address,uint256)": "23b872dd",
    "withdraw(uint256,address,address)": "b460af94"
  },
  "id": 85
}