{
  "abi": [
    {
      "inputs": [],
      "name": "ACCOUNT_PERMISSIONS_STORAGE_POSITION",
      "outputs": [
        {
          "internalType": "bytes32",
          "name": "",
          "type": "bytes32"
        }
      ],
      "stateMutability": "view",
      "type": "function"
    }
  ],
  "bytecode": {
    "object": "0x60a6610038600b82828239805160001a607314602b57634e487b7160e01b600052600060045260246000fd5b30600052607381538281f3fe730000000000000000000000000000000000000000301460806040526004361060335760003560e01c806376a00512146038575b600080fd5b605e7f3181e78fc1b109bc611fd2406150bf06e33faa75f71cba12c3e1fd670f2def0081565b60405190815260200160405180910390f3fea26469706673582212209f5a65cb3cef33c4e7009e3d1a85fd57c3f9d80960b09a12be670babf795192b64736f6c63430008140033",
    "linkReferences": {}
  },
  "methodIdentifiers": {
    "ACCOUNT_PERMISSIONS_STORAGE_POSITION()": "76a00512"
  },
  "id": 31
}