{
  "abi": [
    {
      "inputs": [
        {
          "internalType": "address",
          "name": "router",
          "type": "address"
        },
        {
          "internalType": "address",
          "name": "link",
          "type": "address"
        }
      ],
      "stateMutability": "nonpayable",
      "type": "constructor"
    },
    {
      "inputs": [
        {
          "internalType": "address",
          "name": "router",
          "type": "address"
        }
      ],
      "name": "InvalidRouter",
      "type": "error"
    },
    {
      "anonymous": false,
      "inputs": [
        {
          "indexed": false,
          "internalType": "bytes32",
          "name": "latestMessageId",
          "type": "bytes32"
        },
        {
          "indexed": false,
          "internalType": "uint64",
          "name": "latestSourceChainSelector",
          "type": "uint64"
        },
        {
          "indexed": false,
          "internalType": "address",
          "name": "latestSender",
          "type": "address"
        },
        {
          "indexed": false,
          "internalType": "string",
          "name": "latestMessage",
          "type": "string"
        }
      ],
      "name": "MessageReceived",
      "type": "event"
    },
    {
      "anonymous": false,
      "inputs": [
        {
          "indexed": false,
          "internalType": "bytes32",
          "name": "messageId",
          "type": "bytes32"
        }
      ],
      "name": "MessageSent",
      "type": "event"
    },
    {
      "inputs": [
        {
          "components": [
            {
              "internalType": "bytes32",
              "name": "messageId",
              "type": "bytes32"
            },
            {
              "internalType": "uint64",
              "name": "sourceChainSelector",
              "type": "uint64"
            },
            {
              "internalType": "bytes",
              "name": "sender",
              "type": "bytes"
            },
            {
              "internalType": "bytes",
              "name": "data",
              "type": "bytes"
            },
            {
              "components": [
                {
                  "internalType": "address",
                  "name": "token",
                  "type": "address"
                },
                {
                  "internalType": "uint256",
                  "name": "amount",
                  "type": "uint256"
                }
              ],
              "internalType": "struct Client.EVMTokenAmount[]",
              "name": "destTokenAmounts",
              "type": "tuple[]"
            }
          ],
          "internalType": "struct Client.Any2EVMMessage",
          "name": "message",
          "type": "tuple"
        }
      ],
      "name": "ccipReceive",
      "outputs": [],
      "stateMutability": "nonpayable",
      "type": "function"
    },
    {
      "inputs": [],
      "name": "getLatestMessageDetails",
      "outputs": [
        {
          "internalType": "bytes32",
          "name": "",
          "type": "bytes32"
        },
        {
          "internalType": "uint64",
          "name": "",
          "type": "uint64"
        },
        {
          "internalType": "address",
          "name": "",
          "type": "address"
        },
        {
          "internalType": "string",
          "name": "",
          "type": "string"
        }
      ],
      "stateMutability": "view",
      "type": "function"
    },
    {
      "inputs": [],
      "name": "getLockedGho",
      "outputs": [
        {
          "internalType": "uint256",
          "name": "",
          "type": "uint256"
        }
      ],
      "stateMutability": "view",
      "type": "function"
    },
    {
      "inputs": [],
      "name": "getRouter",
      "outputs": [
        {
          "internalType": "address",
          "name": "",
          "type": "address"
        }
      ],
      "stateMutability": "view",
      "type": "function"
    },
    {
      "inputs": [
        {
          "internalType": "address",
          "name": "to",
          "type": "address"
        },
        {
          "internalType": "uint256",
          "name": "amount",
          "type": "uint256"
        }
      ],
      "name": "lockTokenAndSend",
      "outputs": [
        {
          "internalType": "bytes32",
          "name": "messageId",
          "type": "bytes32"
        }
      ],
      "stateMutability": "nonpayable",
      "type": "function"
    },
    {
      "inputs": [
        {
          "internalType": "address",
          "name": "portal",
          "type": "address"
        }
      ],
      "name": "setPortal",
      "outputs": [],
      "stateMutability": "nonpayable",
      "type": "function"
    },
    {
      "inputs": [
        {
          "internalType": "bytes4",
          "name": "interfaceId",
          "type": "bytes4"
        }
      ],
      "name": "supportsInterface",
      "outputs": [
        {
          "internalType": "bool",
          "name": "",
          "type": "bool"
        }
      ],
      "stateMutability": "pure",
      "type": "function"
    },
    {
      "stateMutability": "payable",
      "type": "receive"
    }
  ],
  "bytecode": {
    "object": "0x60e0604052600380546001600160a01b03191673c4bf5cbdabe595361438f8c6a187bdc330539c601790556004805467adecc60412ce25a560a01b600160a01b600160e01b031990911617905534801561005857600080fd5b506040516113f83803806113f8833981016040819052610077916100e6565b818181806001600160a01b0381166100a9576040516335fdcccd60e21b81526000600482015260240160405180910390fd5b6001600160a01b0390811660805292831660a052501660c052506101199050565b80516001600160a01b03811681146100e157600080fd5b919050565b600080604083850312156100f957600080fd5b610102836100ca565b9150610110602084016100ca565b90509250929050565b60805160a05160c05161128d61016b60003960008181610559015261068e0152600081816105a00152818161065f0152818161071301526107ab01526000818161016401526103c2015261128d6000f3fe6080604052600436106100745760003560e01c80634ff561921161004e5780634ff561921461010857806385572ffb1461012a578063b0f479a11461014a578063f26d10261461018e57600080fd5b806301ffc9a7146100805780633394e6f4146100b55780633c9ddb48146100da57600080fd5b3661007b57005b600080fd5b34801561008c57600080fd5b506100a061009b366004610a82565b6101a3565b60405190151581526020015b60405180910390f35b3480156100c157600080fd5b506100ca6101da565b6040516100ac9493929190610b03565b3480156100e657600080fd5b506100fa6100f5366004610b5b565b6102ac565b6040519081526020016100ac565b34801561011457600080fd5b50610128610123366004610b87565b61037f565b005b34801561013657600080fd5b50610128610145366004610ba4565b6103b7565b34801561015657600080fd5b506040516001600160a01b037f00000000000000000000000000000000000000000000000000000000000000001681526020016100ac565b34801561019a57600080fd5b506100fa61041a565b60006001600160e01b031982166385572ffb60e01b14806101d457506001600160e01b031982166301ffc9a760e01b145b92915050565b60008060006060600054600160009054906101000a90046001600160401b0316600160089054906101000a90046001600160a01b0316600280805461021e90610bde565b80601f016020809104026020016040519081016040528092919081815260200182805461024a90610bde565b80156102975780601f1061026c57610100808354040283529160200191610297565b820191906000526020600020905b81548152906001019060200180831161027a57829003601f168201915b50505050509050935093509350935090919293565b604080516001600160a01b03848116602083015281830184905282518083038401815260609092019092526004546000926102fb91600160a01b81046001600160401b0316911683600161048c565b6003546040516323b872dd60e01b8152336004820152306024820152604481018690529193506001600160a01b0316906323b872dd906064016020604051808303816000875af1158015610353573d6000803e3d6000fd5b505050506040513d601f19601f820116820180604052508101906103779190610c18565b505092915050565b6004546001600160a01b03161561039557600080fd5b600480546001600160a01b0319166001600160a01b0392909216919091179055565b336001600160a01b037f00000000000000000000000000000000000000000000000000000000000000001614610406576040516335fdcccd60e21b815233600482015260240160405180910390fd5b61041761041282610e0f565b610867565b50565b6003546040516370a0823160e01b81523060048201526000916001600160a01b0316906370a0823190602401602060405180830381865afa158015610463573d6000803e3d6000fd5b505050506040513d601f19601f820116820180604052508101906104879190610ebb565b905090565b6040805160a081019091526001600160a01b03841660c082015260009081908060e081016040516020818303038152906040528152602001856040516020016104d59190610ed4565b60408051601f198184030181529190528152602001600060405190808252806020026020018201604052801561053157816020015b604080518082019091526000808252602082015281526020019060019003908161050a5790505b508152602001600185600181111561054b5761054b610ee7565b14610557576000610579565b7f00000000000000000000000000000000000000000000000000000000000000005b6001600160a01b0316815260200160405180602001604052806000815250815250905060007f00000000000000000000000000000000000000000000000000000000000000006001600160a01b03166320487ded88846040518363ffffffff1660e01b81526004016105ec929190610efd565b602060405180830381865afa158015610609573d6000803e3d6000fd5b505050506040513d601f19601f8201168201806040525081019061062d9190610ebb565b9050600184600181111561064357610643610ee7565b036107945760405163095ea7b360e01b81526001600160a01b037f000000000000000000000000000000000000000000000000000000000000000081166004830152602482018390527f0000000000000000000000000000000000000000000000000000000000000000169063095ea7b3906044016020604051808303816000875af11580156106d7573d6000803e3d6000fd5b505050506040513d601f19601f820116820180604052508101906106fb9190610c18565b506040516396f4e9f960e01b81526001600160a01b037f000000000000000000000000000000000000000000000000000000000000000016906396f4e9f99061074a908a908690600401610efd565b6020604051808303816000875af1158015610769573d6000803e3d6000fd5b505050506040513d601f19601f8201168201806040525081019061078d9190610ebb565b925061082a565b6040516396f4e9f960e01b81526001600160a01b037f000000000000000000000000000000000000000000000000000000000000000016906396f4e9f99083906107e4908b908790600401610efd565b60206040518083038185885af1158015610802573d6000803e3d6000fd5b50505050506040513d601f19601f820116820180604052508101906108279190610ebb565b92505b6040518381527f54791b38f3859327992a1ca0590ad3c0f08feba98d1a4f56ab0dca74d203392a9060200160405180910390a15050949350505050565b80516000556020808201516001805467ffffffffffffffff19166001600160401b03909216919091179055604082015180516108a99290820181019101610fd6565b600160086101000a8154816001600160a01b0302191690836001600160a01b0316021790555080606001518060200190518101906108e79190610ff3565b6002906108f490826110b8565b5060006002805461090490610bde565b80601f016020809104026020016040519081016040528092919081815260200182805461093090610bde565b801561097d5780601f106109525761010080835404028352916020019161097d565b820191906000526020600020905b81548152906001019060200180831161096057829003601f168201915b505050505090506000808280602001905181019061099b9190611177565b60035460405163a9059cbb60e01b81526001600160a01b03808516600483015260248201849052939550919350919091169063a9059cbb906044016020604051808303816000875af11580156109f5573d6000803e3d6000fd5b505050506040513d601f19601f82011682018060405250810190610a199190610c18565b506000546001546040517fb1e312a29937cc11967b0e4a346fef1ae132424ebaba9dc6d90249dba053e87c92610a749290916001600160401b038216916801000000000000000090046001600160a01b0316906002906111a5565b60405180910390a150505050565b600060208284031215610a9457600080fd5b81356001600160e01b031981168114610aac57600080fd5b9392505050565b60005b83811015610ace578181015183820152602001610ab6565b50506000910152565b60008151808452610aef816020860160208601610ab3565b601f01601f19169290920160200192915050565b8481526001600160401b03841660208201526001600160a01b0383166040820152608060608201819052600090610b3c90830184610ad7565b9695505050505050565b6001600160a01b038116811461041757600080fd5b60008060408385031215610b6e57600080fd5b8235610b7981610b46565b946020939093013593505050565b600060208284031215610b9957600080fd5b8135610aac81610b46565b600060208284031215610bb657600080fd5b81356001600160401b03811115610bcc57600080fd5b820160a08185031215610aac57600080fd5b600181811c90821680610bf257607f821691505b602082108103610c1257634e487b7160e01b600052602260045260246000fd5b50919050565b600060208284031215610c2a57600080fd5b81518015158114610aac57600080fd5b634e487b7160e01b600052604160045260246000fd5b604080519081016001600160401b0381118282101715610c7257610c72610c3a565b60405290565b60405160a081016001600160401b0381118282101715610c7257610c72610c3a565b604051601f8201601f191681016001600160401b0381118282101715610cc257610cc2610c3a565b604052919050565b80356001600160401b0381168114610ce157600080fd5b919050565b60006001600160401b03821115610cff57610cff610c3a565b50601f01601f191660200190565b600082601f830112610d1e57600080fd5b8135610d31610d2c82610ce6565b610c9a565b818152846020838601011115610d4657600080fd5b816020850160208301376000918101602001919091529392505050565b600082601f830112610d7457600080fd5b813560206001600160401b03821115610d8f57610d8f610c3a565b610d9d818360051b01610c9a565b82815260069290921b84018101918181019086841115610dbc57600080fd5b8286015b84811015610e045760408189031215610dd95760008081fd5b610de1610c50565b8135610dec81610b46565b81528185013585820152835291830191604001610dc0565b509695505050505050565b600060a08236031215610e2157600080fd5b610e29610c78565b82358152610e3960208401610cca565b602082015260408301356001600160401b0380821115610e5857600080fd5b610e6436838701610d0d565b60408401526060850135915080821115610e7d57600080fd5b610e8936838701610d0d565b60608401526080850135915080821115610ea257600080fd5b50610eaf36828601610d63565b60808301525092915050565b600060208284031215610ecd57600080fd5b5051919050565b602081526000610aac6020830184610ad7565b634e487b7160e01b600052602160045260246000fd5b600060406001600160401b038516835260208181850152845160a083860152610f2960e0860182610ad7565b905081860151603f1980878403016060880152610f468383610ad7565b88860151888203830160808a01528051808352908601945060009350908501905b80841015610f9957845180516001600160a01b0316835286015186830152938501936001939093019290860190610f67565b5060608901516001600160a01b031660a08901526080890151888203830160c08a01529550610fc88187610ad7565b9a9950505050505050505050565b600060208284031215610fe857600080fd5b8151610aac81610b46565b60006020828403121561100557600080fd5b81516001600160401b0381111561101b57600080fd5b8201601f8101841361102c57600080fd5b805161103a610d2c82610ce6565b81815285602083850101111561104f57600080fd5b611060826020830160208601610ab3565b95945050505050565b601f8211156110b357600081815260208120601f850160051c810160208610156110905750805b601f850160051c820191505b818110156110af5782815560010161109c565b5050505b505050565b81516001600160401b038111156110d1576110d1610c3a565b6110e5816110df8454610bde565b84611069565b602080601f83116001811461111a57600084156111025750858301515b600019600386901b1c1916600185901b1785556110af565b600085815260208120601f198616915b828110156111495788860151825594840194600190910190840161112a565b50858210156111675787850151600019600388901b60f8161c191681555b5050505050600190811b01905550565b6000806040838503121561118a57600080fd5b825161119581610b46565b6020939093015192949293505050565b848152600060206001600160401b0386168184015260018060a01b038516604084015260806060840152600084546111dc81610bde565b80608087015260a06001808416600081146111fe576001811461121857611246565b60ff1985168984015283151560051b890183019550611246565b896000528660002060005b8581101561123e5781548b8201860152908301908801611223565b8a0184019650505b50939b9a505050505050505050505056fea2646970667358221220e55b73331323405dda50e684a7845cf6f311110c3825415566b30009bcdee20d64736f6c63430008140033",
    "linkReferences": {}
  },
  "methodIdentifiers": {
    "ccipReceive((bytes32,uint64,bytes,bytes,(address,uint256)[]))": "85572ffb",
    "getLatestMessageDetails()": "3394e6f4",
    "getLockedGho()": "f26d1026",
    "getRouter()": "b0f479a1",
    "lockTokenAndSend(address,uint256)": "3c9ddb48",
    "setPortal(address)": "4ff56192",
    "supportsInterface(bytes4)": "01ffc9a7"
  },
  "id": 11
}