{
  "abi": [
    {
      "anonymous": false,
      "inputs": [
        {
          "indexed": true,
          "internalType": "bytes32",
          "name": "role",
          "type": "bytes32"
        },
        {
          "indexed": true,
          "internalType": "bytes32",
          "name": "previousAdminRole",
          "type": "bytes32"
        },
        {
          "indexed": true,
          "internalType": "bytes32",
          "name": "newAdminRole",
          "type": "bytes32"
        }
      ],
      "name": "RoleAdminChanged",
      "type": "event"
    },
    {
      "anonymous": false,
      "inputs": [
        {
          "indexed": true,
          "internalType": "bytes32",
          "name": "role",
          "type": "bytes32"
        },
        {
          "indexed": true,
          "internalType": "address",
          "name": "account",
          "type": "address"
        },
        {
          "indexed": true,
          "internalType": "address",
          "name": "sender",
          "type": "address"
        }
      ],
      "name": "RoleGranted",
      "type": "event"
    },
    {
      "anonymous": false,
      "inputs": [
        {
          "indexed": true,
          "internalType": "bytes32",
          "name": "role",
          "type": "bytes32"
        },
        {
          "indexed": true,
          "internalType": "address",
          "name": "account",
          "type": "address"
        },
        {
          "indexed": true,
          "internalType": "address",
          "name": "sender",
          "type": "address"
        }
      ],
      "name": "RoleRevoked",
      "type": "event"
    },
    {
      "inputs": [],
      "name": "DEFAULT_ADMIN_ROLE",
      "outputs": [
        {
          "internalType": "bytes32",
          "name": "",
          "type": "bytes32"
        }
      ],
      "stateMutability": "view",
      "type": "function"
    },
    {
      "inputs": [
        {
          "internalType": "bytes32",
          "name": "role",
          "type": "bytes32"
        }
      ],
      "name": "getRoleAdmin",
      "outputs": [
        {
          "internalType": "bytes32",
          "name": "",
          "type": "bytes32"
        }
      ],
      "stateMutability": "view",
      "type": "function"
    },
    {
      "inputs": [
        {
          "internalType": "bytes32",
          "name": "role",
          "type": "bytes32"
        },
        {
          "internalType": "address",
          "name": "account",
          "type": "address"
        }
      ],
      "name": "grantRole",
      "outputs": [],
      "stateMutability": "nonpayable",
      "type": "function"
    },
    {
      "inputs": [
        {
          "internalType": "bytes32",
          "name": "role",
          "type": "bytes32"
        },
        {
          "internalType": "address",
          "name": "account",
          "type": "address"
        }
      ],
      "name": "hasRole",
      "outputs": [
        {
          "internalType": "bool",
          "name": "",
          "type": "bool"
        }
      ],
      "stateMutability": "view",
      "type": "function"
    },
    {
      "inputs": [
        {
          "internalType": "bytes32",
          "name": "role",
          "type": "bytes32"
        },
        {
          "internalType": "address",
          "name": "account",
          "type": "address"
        }
      ],
      "name": "hasRoleWithSwitch",
      "outputs": [
        {
          "internalType": "bool",
          "name": "",
          "type": "bool"
        }
      ],
      "stateMutability": "view",
      "type": "function"
    },
    {
      "inputs": [
        {
          "internalType": "bytes32",
          "name": "role",
          "type": "bytes32"
        },
        {
          "internalType": "address",
          "name": "account",
          "type": "address"
        }
      ],
      "name": "renounceRole",
      "outputs": [],
      "stateMutability": "nonpayable",
      "type": "function"
    },
    {
      "inputs": [
        {
          "internalType": "bytes32",
          "name": "role",
          "type": "bytes32"
        },
        {
          "internalType": "address",
          "name": "account",
          "type": "address"
        }
      ],
      "name": "revokeRole",
      "outputs": [],
      "stateMutability": "nonpayable",
      "type": "function"
    }
  ],
  "bytecode": {
    "object": "0x608060405234801561001057600080fd5b50610822806100206000396000f3fe608060405234801561001057600080fd5b506004361061007d5760003560e01c806391d148541161005b57806391d14854146100fc578063a217fddf1461011f578063a32fa5b314610127578063d547741f1461013a57600080fd5b8063248a9ca3146100825780632f2ff15d146100d457806336568abe146100e9575b600080fd5b6100c1610090366004610630565b60009081527f0a7b0f5c59907924802379ebe98cdc23e2ee7820f63d30126e10b3752010e501602052604090205490565b6040519081526020015b60405180910390f35b6100e76100e2366004610649565b61015f565b005b6100e76100f7366004610649565b61021d565b61010f61010a366004610649565b61027f565b60405190151581526020016100cb565b6100c1600081565b61010f610135366004610649565b6102b9565b6100e7610148366004610649565b6102756000805160206107cd833981519152610172565b61018b6000805160206107cd8339815191525b600084815260019190910160205260409020543361032a565b6000805160206107cd8339815191526000838152602091825260408082206001600160a01b0385168352909252205460ff161561020f5760405162461bcd60e51b815260206004820152601d60248201527f43616e206f6e6c79206772616e7420746f206e6f6e20686f6c6465727300000060448201526064015b60405180910390fd5b61021982826103b6565b5050565b336001600160a01b038216146102755760405162461bcd60e51b815260206004820152601a60248201527f43616e206f6e6c792072656e6f756e636520666f722073656c660000000000006044820152606401610206565b610219828261041e565b60008281526000805160206107cd833981519152602090815260408083206001600160a01b038516845290915290205460ff165b92915050565b60006000805160206107cd833981519152600084815260209182526040808220828052909252205460ff16610321576000805160206107cd8339815191526000848152602091825260408082206001600160a01b0386168352909252205460ff1690506102b3565b50600192915050565b6000805160206107cd8339815191526000838152602091825260408082206001600160a01b0385168352909252205460ff1661021957610374816001600160a01b0316601461048d565b61037f83602061048d565b6040516020016103909291906106a9565b60408051601f198184030181529082905262461bcd60e51b825261020691600401610716565b60008281526000805160206107cd833981519152602090815260408083206001600160a01b0385168085529252808320805460ff1916600117905551339285917f2f8788117e7eff1d82e926ec794901d17c78024a50270940304540a733656f0d9190a45050565b610428828261032a565b60008281526000805160206107cd833981519152602090815260408083206001600160a01b0385168085529252808320805460ff1916905551339285917ff6391f5c32d9c69d2a47ea670b442974b53935d1edc7fd64eb21e047a839171b9190a45050565b6060600061049c83600261075f565b6104a7906002610776565b67ffffffffffffffff8111156104bf576104bf610789565b6040519080825280601f01601f1916602001820160405280156104e9576020820181803683370190505b509050600360fc1b816000815181106105045761050461079f565b60200101906001600160f81b031916908160001a905350600f60fb1b816001815181106105335761053361079f565b60200101906001600160f81b031916908160001a905350600061055784600261075f565b610562906001610776565b90505b60018111156105da576f181899199a1a9b1b9c1cb0b131b232b360811b85600f16601081106105965761059661079f565b1a60f81b8282815181106105ac576105ac61079f565b60200101906001600160f81b031916908160001a90535060049490941c936105d3816107b5565b9050610565565b5083156106295760405162461bcd60e51b815260206004820181905260248201527f537472696e67733a20686578206c656e67746820696e73756666696369656e746044820152606401610206565b9392505050565b60006020828403121561064257600080fd5b5035919050565b6000806040838503121561065c57600080fd5b8235915060208301356001600160a01b038116811461067a57600080fd5b809150509250929050565b60005b838110156106a0578181015183820152602001610688565b50506000910152565b7402832b936b4b9b9b4b7b7399d1030b1b1b7bab73a1605d1b8152600083516106d9816015850160208801610685565b7001034b99036b4b9b9b4b733903937b6329607d1b601591840191820152835161070a816026840160208801610685565b01602601949350505050565b6020815260008251806020840152610735816040850160208701610685565b601f01601f19169190910160400192915050565b634e487b7160e01b600052601160045260246000fd5b80820281158282048414176102b3576102b3610749565b808201808211156102b3576102b3610749565b634e487b7160e01b600052604160045260246000fd5b634e487b7160e01b600052603260045260246000fd5b6000816107c4576107c4610749565b50600019019056fe0a7b0f5c59907924802379ebe98cdc23e2ee7820f63d30126e10b3752010e500a2646970667358221220cb2ec9670ab990ee29e740c05cfc76af62d25264130a5748a38b8a68f87aad5564736f6c63430008130033",
    "linkReferences": {}
  },
  "methodIdentifiers": {
    "DEFAULT_ADMIN_ROLE()": "a217fddf",
    "getRoleAdmin(bytes32)": "248a9ca3",
    "grantRole(bytes32,address)": "2f2ff15d",
    "hasRole(bytes32,address)": "91d14854",
    "hasRoleWithSwitch(bytes32,address)": "a32fa5b3",
    "renounceRole(bytes32,address)": "36568abe",
    "revokeRole(bytes32,address)": "d547741f"
  },
  "id": 34
}