{
  "abi": [
    {
      "inputs": [],
      "name": "PERMISSIONS_STORAGE_POSITION",
      "outputs": [
        {
          "internalType": "bytes32",
          "name": "",
          "type": "bytes32"
        }
      ],
      "stateMutability": "view",
      "type": "function"
    }
  ],
  "bytecode": {
    "object": "0x60a6610038600b82828239805160001a607314602b57634e487b7160e01b600052600060045260246000fd5b30600052607381538281f3fe730000000000000000000000000000000000000000301460806040526004361060335760003560e01c80630998ed3b146038575b600080fd5b605e7f0a7b0f5c59907924802379ebe98cdc23e2ee7820f63d30126e10b3752010e50081565b60405190815260200160405180910390f3fea264697066735822122011a1f9d223f774fabdb43efa2c767a51be4aaa002e17801d6dfd7da89e9708eb64736f6c63430008130033",
    "linkReferences": {}
  },
  "methodIdentifiers": {
    "PERMISSIONS_STORAGE_POSITION()": "0998ed3b"
  },
  "id": 34
}