{
  "abi": [
    {
      "inputs": [],
      "name": "ACCOUNT_CORE_STORAGE_POSITION",
      "outputs": [
        {
          "internalType": "bytes32",
          "name": "",
          "type": "bytes32"
        }
      ],
      "stateMutability": "view",
      "type": "function"
    }
  ],
  "bytecode": {
    "object": "0x60a6610038600b82828239805160001a607314602b57634e487b7160e01b600052600060045260246000fd5b30600052607381538281f3fe730000000000000000000000000000000000000000301460806040526004361060335760003560e01c80633246e210146038575b600080fd5b605e7f036f52c1827dab135f7fd44ca0bddde297e2f659c710e0ec53e975f22b54830081565b60405190815260200160405180910390f3fea26469706673582212205f69b7c0d4ba8d19e7fd3cd01c1d159b938401a77c0f83bcff4d9069c4233aab64736f6c63430008140033",
    "linkReferences": {}
  },
  "methodIdentifiers": {
    "ACCOUNT_CORE_STORAGE_POSITION()": "3246e210"
  },
  "id": 57
}