{
	"data": {
		"bytecode": {
			"linkReferences": {},
			"object": "61018060405234801562000011575f80fd5b50604051620041be380380620041be83398101604081905262000034916200024e565b60408051808201825260078152661058d8dbdd5b9d60ca1b60208083019182528351808501855260018152603160f81b908201529151902060e08190527fc89efdaa54c0f20c7adf612882df0950f5a951637e0307cdcb4c672f298b8bc66101008190524660a081815285517f8b73c3c69bb8fe3d512ecc4cf759cc79239f7b179b0ffacaa9a75d522b39400f818701819052818801959095526060810193909352608080840192909252308382018190528651808503909201825260c093840190965280519401939093209092529190526101205281816200011662000133565b6001600160a01b03908116610140521661016052506200028b9050565b7f322cf19c484104d3b1a9c2982ebae869ede3fa5f6c4703ca41b9a48c76ee03005460ff808216916101009004168015620001c45760405162461bcd60e51b815260206004820152602760248201527f496e697469616c697a61626c653a20636f6e747261637420697320696e697469604482015266616c697a696e6760c81b606482015260840160405180910390fd5b60ff828116101562000232577f322cf19c484104d3b1a9c2982ebae869ede3fa5f6c4703ca41b9a48c76ee0300805460ff191660ff90811790915560408051918252517f7f26b83ff96e1f2b6a682f133852f6798a09c465da95921460cefb38474024989181900360200190a15b5050565b6001600160a01b03811681146200024b575f80fd5b50565b5f806040838503121562000260575f80fd5b82516200026d8162000236565b6020840151909250620002808162000236565b809150509250929050565b60805160a05160c05160e05161010051610120516101405161016051613ead620003115f395f61160501525f81816104a8015281816120da01528181612260015281816122960152818161235a015281816123cd01526123fd01525f611cd001525f611d1f01525f611cfa01525f611c5301525f611c7d01525f611ca70152613ead5ff3fe6080604052600436106101b2575f3560e01c8063a9082d84116100e7578063d087d28811610087578063e8a3d48511610062578063e8a3d48514610511578063e9523c9714610532578063f15d424e14610553578063f23a6e611461057f575f80fd5b8063d087d288146104ca578063d1f57894146104de578063d42f2f35146104fd575f80fd5b8063b61d27f6116100c2578063b61d27f61461042e578063b76464d51461044d578063bc197c811461046c578063c45a015514610497575f80fd5b8063a9082d8414610398578063ac9650d8146103d6578063b0d691fe14610402575f80fd5b806347e1da2a116101525780635892e2361161012d5780635892e2361461031a5780637dff5a79146103395780638b52d72314610358578063938e3d7b14610379575f80fd5b806347e1da2a146102d25780634a58db19146102f35780634d44560d146102fb575f80fd5b80631626ba7e1161018d5780631626ba7e146102565780631dd756c51461027557806324d7806c146102945780633a871cdd146102b3575f80fd5b806301ffc9a7146101bd5780630a1028c4146101f1578063150b7a021461021e575f80fd5b366101b957005b5f80fd5b3480156101c8575f80fd5b506101dc6101d7366004612db5565b6105aa565b60405190151581526020015b60405180910390f35b3480156101fc575f80fd5b5061021061020b366004612e92565b6105ef565b6040519081526020016101e8565b348015610229575f80fd5b5061023d610238366004612ee7565b610692565b6040516001600160e01b031990911681526020016101e8565b348015610261575f80fd5b5061023d610270366004612f4e565b6106a3565b348015610280575f80fd5b506101dc61028f366004612fa8565b6107de565b34801561029f575f80fd5b506101dc6102ae366004612fea565b610a8e565b3480156102be575f80fd5b506102106102cd366004613005565b610abb565b3480156102dd575f80fd5b506102f16102ec36600461308e565b610ae0565b005b6102f1610c45565b348015610306575f80fd5b506102f1610315366004613120565b610ca8565b348015610325575f80fd5b506102f1610334366004613187565b610d1c565b348015610344575f80fd5b506101dc610353366004612fea565b6110cf565b348015610363575f80fd5b5061036c611184565b6040516101e89190613296565b348015610384575f80fd5b506102f16103933660046132f8565b6113c2565b3480156103a3575f80fd5b506103b76103b2366004613187565b611413565b6040805192151583526001600160a01b039091166020830152016101e8565b3480156103e1575f80fd5b506103f56103f036600461333c565b611468565b6040516101e891906133c7565b34801561040d575f80fd5b506104166115cb565b6040516001600160a01b0390911681526020016101e8565b348015610439575f80fd5b506102f161044836600461341c565b61162a565b348015610458575f80fd5b506102f1610467366004612fea565b6116b9565b348015610477575f80fd5b5061023d610486366004613501565b63bc197c8160e01b95945050505050565b3480156104a2575f80fd5b506104167f000000000000000000000000000000000000000000000000000000000000000081565b3480156104d5575f80fd5b50610210611702565b3480156104e9575f80fd5b506102f16104f83660046135a7565b61177e565b348015610508575f80fd5b5061036c611913565b34801561051c575f80fd5b50610525611a7e565b6040516101e891906135ea565b34801561053d575f80fd5b50610546611b2d565b6040516101e891906135fc565b34801561055e575f80fd5b5061057261056d366004612fea565b611b3f565b6040516101e89190613648565b34801561058a575f80fd5b5061023d61059936600461365a565b63f23a6e6160e01b95945050505050565b5f6001600160e01b03198216630271189760e51b14806105da57506001600160e01b03198216630a85bd0160e11b145b806105e957506105e982611c13565b92915050565b5f807f82cac545155fcbf147f2a9013809613677ac7d65498556e6d19ce43bcbf6c2848380519060200120604051602001610634929190918252602082015260400190565b604051602081830303815290604052805190602001209050610654611c47565b60405161190160f01b602082015260228101919091526042810182905260620160405160208183030381529060405280519060200120915050919050565b630a85bd0160e11b5b949350505050565b5f806106cf846040516020016106bb91815260200190565b6040516020818303038152906040526105ef565b90505f6106dc8285611d6d565b90506106e781610a8e565b156106fe5750630b135d3f60e11b91506105e99050565b335f610708611d8f565b6001600160a01b0384165f90815260069190910160205260409020905061072f8183611db3565b8061075e575061073e81611dd4565b600114801561075e57505f6107538282611ddd565b6001600160a01b0316145b6107bb5760405162461bcd60e51b8152602060048201526024808201527f4163636f756e743a2063616c6c6572206e6f7420617070726f7665642074617260448201526333b2ba1760e11b60648201526084015b60405180910390fd5b6107c4836110cf565b156107d457630b135d3f60e11b94505b5050505092915050565b5f6107e7611d8f565b6001600160a01b0384165f908152600491909101602052604090205460ff1615610813575060016105e9565b5f61081c611d8f565b6001600160a01b0385165f908152600591909101602090815260408083208151606081018352815481526001909101546001600160801b0380821694830194909452600160801b9004909216908201529150610876611d8f565b6006015f866001600160a01b03166001600160a01b031681526020019081526020015f2090504282602001516001600160801b031611806108c4575081604001516001600160801b03164210155b806108d557506108d381611dd4565b155b156108e4575f925050506105e9565b5f6108fa6108f560608701876136bd565b611de8565b90505f61090683611dd4565b600114801561092657505f61091b8482611ddd565b6001600160a01b0316145b90506324f16c0560e11b6001600160e01b031983160161099a575f8061095761095260608a018a6136bd565b611e20565b915091508261097c5761096a8583611db3565b61097c575f96505050505050506105e9565b8551811115610993575f96505050505050506105e9565b5050610a81565b635c0f12eb60e11b6001600160e01b0319831601610a75575f806109c96109c460608a018a6136bd565b611e84565b509150915082610a27575f5b8251811015610a2557610a0a8382815181106109f3576109f36136ff565b602002602001015187611db390919063ffffffff16565b610a1d575f9750505050505050506105e9565b6001016109d5565b505b5f5b8251811015610a6d57818181518110610a4457610a446136ff565b6020026020010151875f01511015610a65575f9750505050505050506105e9565b600101610a29565b505050610a81565b5f9450505050506105e9565b5060019695505050505050565b5f610a97611d8f565b6001600160a01b039092165f90815260049290920160205250604090205460ff1690565b5f610ac4611ed1565b610ace8484611f3b565b9050610ad98261207c565b9392505050565b610ae86115cb565b6001600160a01b0316336001600160a01b03161480610b0b5750610b0b33610a8e565b610b275760405162461bcd60e51b81526004016107b290613713565b610b2f6120c5565b8481148015610b3d57508483145b610b895760405162461bcd60e51b815260206004820152601d60248201527f4163636f756e743a2077726f6e67206172726179206c656e677468732e00000060448201526064016107b2565b5f5b85811015610c3c57610c33878783818110610ba857610ba86136ff565b9050602002016020810190610bbd9190612fea565b868684818110610bcf57610bcf6136ff565b90506020020135858585818110610be857610be86136ff565b9050602002810190610bfa91906136bd565b8080601f0160208091040260200160405190810160405280939291908181526020018383808284375f920191909152506121a192505050565b50600101610b8b565b50505050505050565b610c4d6115cb565b60405163b760faf960e01b81523060048201526001600160a01b03919091169063b760faf99034906024015f604051808303818588803b158015610c8f575f80fd5b505af1158015610ca1573d5f803e3d5ffd5b5050505050565b610cb061220e565b610cb86115cb565b60405163040b850f60e31b81526001600160a01b03848116600483015260248201849052919091169063205c2878906044015b5f604051808303815f87803b158015610d02575f80fd5b505af1158015610d14573d5f803e3d5ffd5b505050505050565b5f610d2a6020850185612fea565b905042610d3d60e0860160c0870161376a565b6001600160801b031611158015610d6c5750610d60610100850160e0860161376a565b6001600160801b031642105b610da25760405162461bcd60e51b8152602060048201526007602482015266085c195c9a5bd960ca1b60448201526064016107b2565b5f80610daf868686611413565b9150915081610de95760405162461bcd60e51b81526004016107b2906020808252600490820152632173696760e01b604082015260600190565b6001610df3611d8f565b6101008801355f90815260079190910160209081526040808320805460ff1916941515949094179093559091610e2e91908901908901613793565b60ff161115610e5a575f610e486040880160208901613793565b60ff166001149050610c3c848261224c565b610e6383610a8e565b15610e985760405162461bcd60e51b815260206004820152600560248201526430b236b4b760d91b60448201526064016107b2565b610ead83610ea4611d8f565b6002019061238f565b50604051806060016040528087606001358152602001876080016020810190610ed6919061376a565b6001600160801b03168152602001610ef460c0890160a08a0161376a565b6001600160801b03169052610f07611d8f565b6001600160a01b0385165f9081526005919091016020908152604080832084518155918401519301516001600160801b03908116600160801b02931692909217600190920191909155610f7b610f5b611d8f565b6001600160a01b0386165f908152600691909101602052604090206123a3565b80519091505f5b81811015610fe357610fd0838281518110610f9f57610f9f6136ff565b6020026020010151610faf611d8f565b6001600160a01b0389165f90815260069190910160205260409020906123af565b50610fdc6001826137c0565b9050610f82565b50610ff160408901896137d3565b905090505f5b818110156110705761105d61100f60408b018b6137d3565b8381811061101f5761101f6136ff565b90506020020160208101906110349190612fea565b61103c611d8f565b6001600160a01b0389165f908152600691909101602052604090209061238f565b506110696001826137c0565b9050610ff7565b5061107a886123c3565b846001600160a01b0316836001600160a01b03167ff21d10c26e35863a8df291aca54181ee8c4a3bc8e00246c3f7a5a14b69d826a78a6040516110bd91906138a3565b60405180910390a35050505050505050565b5f806110d9611d8f565b6001600160a01b0384165f90815260059190910160209081526040918290208251606081018452815481526001909101546001600160801b03808216938301849052600160801b90910416928101929092529091504210801590611149575080604001516001600160801b031642105b8015610ad957505f61117c61115c611d8f565b6001600160a01b0386165f90815260069190910160205260409020611dd4565b119392505050565b60605f61119a611192611d8f565b6002016123a3565b80519091505f805b82811015611229576111cc8482815181106111bf576111bf6136ff565b60200260200101516110cf565b156111e357816111db8161399b565b925050611217565b5f8482815181106111f6576111f66136ff565b60200260200101906001600160a01b031690816001600160a01b0316815250505b6112226001826137c0565b90506111a2565b50806001600160401b0381111561124257611242612ddc565b60405190808252806020026020018201604052801561127b57816020015b611268612d6f565b8152602001906001900390816112605790505b5093505f805b838110156113ba575f6001600160a01b03168582815181106112a5576112a56136ff565b60200260200101516001600160a01b0316146113a8575f8582815181106112ce576112ce6136ff565b602002602001015190505f6112e1611d8f565b6001600160a01b0383165f81815260059290920160209081526040928390208351606081018552815481526001909101546001600160801b0380821683850152600160801b9091041681850152835160a08101909452918352909250810161134a610f5b611d8f565b8152602001825f0151815260200182602001516001600160801b0316815260200182604001516001600160801b03168152508885806113889061399b565b96508151811061139a5761139a6136ff565b602002602001018190525050505b6113b36001826137c0565b9050611281565b505050505090565b6113ca612470565b6114075760405162461bcd60e51b815260206004820152600e60248201526d139bdd08185d5d1a1bdc9a5e995960921b60448201526064016107b2565b61141081612487565b50565b5f80611428611421866125a3565b85856126e7565b9050611432611d8f565b6101008601355f908152600791909101602052604090205460ff1615801561145e575061145e81610a8e565b9150935093915050565b6060816001600160401b0381111561148257611482612ddc565b6040519080825280602002602001820160405280156114b557816020015b60608152602001906001900390816114a05790505b509050335f805b848110156115c257811561153b57611519308787848181106114e0576114e06136ff565b90506020028101906114f291906136bd565b86604051602001611505939291906139b3565b604051602081830303815290604052612737565b84828151811061152b5761152b6136ff565b60200260200101819052506115ba565b61159c30878784818110611551576115516136ff565b905060200281019061156391906136bd565b8080601f0160208091040260200160405190810160405280939291908181526020018383808284375f9201919091525061273792505050565b8482815181106115ae576115ae6136ff565b60200260200101819052505b6001016114bc565b50505092915050565b7f036f52c1827dab135f7fd44ca0bddde297e2f659c710e0ec53e975f22b548300545f906001600160a01b0316801561160357919050565b7f000000000000000000000000000000000000000000000000000000000000000091505090565b6116326115cb565b6001600160a01b0316336001600160a01b03161480611655575061165533610a8e565b6116715760405162461bcd60e51b81526004016107b290613713565b6116796120c5565b610ca1848484848080601f0160208091040260200160405190810160405280939291908181526020018383808284375f920191909152506121a192505050565b6116c161220e565b7f036f52c1827dab135f7fd44ca0bddde297e2f659c710e0ec53e975f22b54830080546001600160a01b0319166001600160a01b0392909216919091179055565b5f61170b6115cb565b604051631aab3f0d60e11b81523060048201525f60248201526001600160a01b0391909116906335567e1a90604401602060405180830381865afa158015611755573d5f803e3d5ffd5b505050506040513d601f19601f8201168201806040525081019061177991906139d9565b905090565b5f80516020613e318339815191525460ff8082169161010090041680158080156117ab575060018360ff16105b806117c35750303b1580156117c357508260ff166001145b6118265760405162461bcd60e51b815260206004820152602e60248201527f496e697469616c697a61626c653a20636f6e747261637420697320616c72656160448201526d191e481a5b9a5d1a585b1a5e995960921b60648201526084016107b2565b5f80516020613e31833981519152805460ff191660011790558015611861575f80516020613e31833981519152805461ff0019166101001790555b6118a08686868080601f0160208091040260200160405190810160405280939291908181526020018383808284375f9201919091525061275c92505050565b5f80516020613e11833981519152556118ba86600161224c565b8015610d14575f80516020613e31833981519152805461ff0019169055604080516001815290517f7f26b83ff96e1f2b6a682f133852f6798a09c465da95921460cefb38474024989181900360200190a1505050505050565b60605f611921611192611d8f565b8051909150806001600160401b0381111561193e5761193e612ddc565b60405190808252806020026020018201604052801561197757816020015b611964612d6f565b81526020019060019003908161195c5790505b5092505f5b81811015611a78575f838281518110611997576119976136ff565b602002602001015190505f6119aa611d8f565b6001600160a01b0383165f81815260059290920160209081526040928390208351606081018552815481526001909101546001600160801b0380821683850152600160801b9091041681850152835160a081019094529183529092508101611a13610f5b611d8f565b8152602001825f0151815260200182602001516001600160801b0316815260200182604001516001600160801b0316815250868481518110611a5757611a576136ff565b60200260200101819052505050600181611a7191906137c0565b905061197c565b50505090565b60607f4bc804ba64359c0e35e5ed5d90ee596ecaa49a3a930ddcb1470ea0dd625da9008054611aac906139f0565b80601f0160208091040260200160405190810160405280929190818152602001828054611ad8906139f0565b8015611b235780601f10611afa57610100808354040283529160200191611b23565b820191905f5260205f20905b815481529060010190602001808311611b0657829003601f168201915b5050505050905090565b6060611779611b3a611d8f565b6123a3565b611b47612d6f565b5f611b50611d8f565b6001600160a01b0384165f81815260059290920160209081526040928390208351606081018552815481526001909101546001600160801b0380821683850152600160801b9091041681850152835160a081019094529183529092508101611bd9611bb9611d8f565b6001600160a01b0387165f908152600691909101602052604090206123a3565b8152602001825f0151815260200182602001516001600160801b0316815260200182604001516001600160801b0316815250915050919050565b5f6001600160e01b03198216630271189760e51b14806105e957506301ffc9a760e01b6001600160e01b03198316146105e9565b5f306001600160a01b037f000000000000000000000000000000000000000000000000000000000000000016148015611c9f57507f000000000000000000000000000000000000000000000000000000000000000046145b15611cc957507f000000000000000000000000000000000000000000000000000000000000000090565b50604080517f00000000000000000000000000000000000000000000000000000000000000006020808301919091527f0000000000000000000000000000000000000000000000000000000000000000828401527f000000000000000000000000000000000000000000000000000000000000000060608301524660808301523060a0808401919091528351808403909101815260c0909201909252805191012090565b5f805f611d7a858561278e565b91509150611d87816127d0565b509392505050565b7f3181e78fc1b109bc611fd2406150bf06e33faa75f71cba12c3e1fd670f2def0090565b6001600160a01b0381165f9081526001830160205260408120541515610ad9565b5f6105e9825490565b5f610ad98383612919565b5f6004821015611e0a5760405162461bcd60e51b81526004016107b290613a22565b611e1760045f8486613a41565b610ad991613a68565b5f806044831015611e435760405162461bcd60e51b81526004016107b290613a22565b611e51602460048587613a41565b810190611e5e9190612fea565b9150611e6e604460248587613a41565b810190611e7b9190613a98565b90509250929050565b606080806064841015611ea95760405162461bcd60e51b81526004016107b290613a22565b611eb68460048188613a41565b810190611ec39190613b29565b919790965090945092505050565b611ed96115cb565b6001600160a01b0316336001600160a01b031614611f395760405162461bcd60e51b815260206004820152601c60248201527f6163636f756e743a206e6f742066726f6d20456e747279506f696e740000000060448201526064016107b2565b565b7f19457468657265756d205369676e6564204d6573736167653a0a3332000000005f908152601c829052603c81205f611fb7611f7b6101408701876136bd565b8080601f0160208091040260200160405190810160405280939291908181526020018383808284375f920191909152508693925050611d6d9050565b9050611fc381866107de565b611fd2576001925050506105e9565b5f611fdb611d8f565b6001600160a01b03929092165f908152600590920160209081526040808420815160608082018452825482526001909201546001600160801b0380821683870152600160801b8204908116928501929092528351928301845295825265ffffffffffff8087169483019490945292831691015260d09290921b6001600160d01b03191660a09290921b65ffffffffffff60a01b169190911795945050505050565b8015611410576040515f9033905f1990849084818181858888f193505050503d805f8114610ca1576040519150601f19603f3d011682016040523d82523d5f602084013e610ca1565b60405163c3c5a54760e01b81523060048201527f0000000000000000000000000000000000000000000000000000000000000000906001600160a01b0382169063c3c5a54790602401602060405180830381865afa158015612129573d5f803e3d5ffd5b505050506040513d601f19601f8201168201806040525081019061214d9190613c06565b611410575f80516020613e11833981519152546040516320e80fe360e21b815260048101919091526001600160a01b038216906383a03f8c906024015b5f604051808303815f87803b158015610c8f575f80fd5b60605f846001600160a01b031684846040516121bd9190613c25565b5f6040518083038185875af1925050503d805f81146121f7576040519150601f19603f3d011682016040523d82523d5f602084013e6121fc565b606091505b509250905080611d8757815160208301fd5b61221733610a8e565b611f395760405162461bcd60e51b815260206004820152600660248201526510b0b236b4b760d11b60448201526064016107b2565b612256828261293f565b6001600160a01b037f0000000000000000000000000000000000000000000000000000000000000000163b1561238b578015612324576001600160a01b037f000000000000000000000000000000000000000000000000000000000000000016630b61e12b837f036f52c1827dab135f7fd44ca0bddde297e2f659c710e0ec53e975f22b548300600101546040516001600160e01b031960e085901b1681526001600160a01b03909216600483015260248201526044015f604051808303815f87803b158015610d02575f80fd5b5f80516020613e11833981519152546040516301270f4760e71b81526001600160a01b03848116600483015260248201929092527f000000000000000000000000000000000000000000000000000000000000000090911690639387a38090604401610ceb565b5050565b5f610ad9836001600160a01b0384166129ed565b60605f610ad983612a39565b5f610ad9836001600160a01b038416612a92565b6001600160a01b037f0000000000000000000000000000000000000000000000000000000000000000163b15611410576001600160a01b037f000000000000000000000000000000000000000000000000000000000000000016630b61e12b61242f6020840184612fea565b5f80516020613e118339815191525460405160e084901b6001600160e01b03191681526001600160a01b03929092166004830152602482015260440161218a565b5f61247a33610a8e565b8061177957505030331490565b5f7f4bc804ba64359c0e35e5ed5d90ee596ecaa49a3a930ddcb1470ea0dd625da90080546124b4906139f0565b80601f01602080910402602001604051908101604052809291908181526020018280546124e0906139f0565b801561252b5780601f106125025761010080835404028352916020019161252b565b820191905f5260205f20905b81548152906001019060200180831161250e57829003601f168201915b505050505090508161255a7f4bc804ba64359c0e35e5ed5d90ee596ecaa49a3a930ddcb1470ea0dd625da90090565b906125659082613c89565b507fc9c7c3fe08b88b4df9d4d47ef47d2c43d55c025a0ba88ca442580ed9e7348a168183604051612597929190613d44565b60405180910390a15050565b60607f3fd4a1a1a267c84185e3b7eecd57c68783c0581d538b9d6e5f23e4670497c1e96125d36020840184612fea565b6125e36040850160208601613793565b6125f060408601866137d3565b604051602001612601929190613d71565b60408051601f198184030181529190528051602090910120606086013561262e60a088016080890161376a565b61263e60c0890160a08a0161376a565b61264e60e08a0160c08b0161376a565b61265f6101008b0160e08c0161376a565b60408051602081019a909a526001600160a01b039098169789019790975260ff9095166060880152608087019390935260a08601919091526001600160801b0390811660c086015290811660e0850152908116610100848101919091529116610120830152830135610140820152610160016040516020818303038152906040529050919050565b5f61069b83838080601f0160208091040260200160405190810160405280939291908181526020018383808284375f92019190915250508751602089012061273192509050612b75565b90611d6d565b6060610ad98383604051806060016040528060278152602001613e5160279139612ba1565b5f8282604051602001612770929190613db2565b60405160208183030381529060405280519060200120905092915050565b5f8082516041036127c2576020830151604084015160608501515f1a6127b687828585612c15565b945094505050506127c9565b505f905060025b9250929050565b5f8160048111156127e3576127e3613dd5565b036127eb5750565b60018160048111156127ff576127ff613dd5565b0361284c5760405162461bcd60e51b815260206004820152601860248201527f45434453413a20696e76616c6964207369676e6174757265000000000000000060448201526064016107b2565b600281600481111561286057612860613dd5565b036128ad5760405162461bcd60e51b815260206004820152601f60248201527f45434453413a20696e76616c6964207369676e6174757265206c656e6774680060448201526064016107b2565b60038160048111156128c1576128c1613dd5565b036114105760405162461bcd60e51b815260206004820152602260248201527f45434453413a20696e76616c6964207369676e6174757265202773272076616c604482015261756560f01b60648201526084016107b2565b5f825f01828154811061292e5761292e6136ff565b905f5260205f200154905092915050565b80612948611d8f565b6001600160a01b0384165f90815260049190910160205260409020805460ff191691151591909117905580156129905761298a82612984611d8f565b9061238f565b506129a4565b6129a28261299c611d8f565b906123af565b505b816001600160a01b03167f235bc17e7930760029e9f4d860a2a8089976de5b381cf8380fc11c1d88a11133826040516129e1911515815260200190565b60405180910390a25050565b5f818152600183016020526040812054612a3257508154600181810184555f8481526020808220909301849055845484825282860190935260409020919091556105e9565b505f6105e9565b6060815f01805480602002602001604051908101604052809291908181526020018280548015612a8657602002820191905f5260205f20905b815481526020019060010190808311612a72575b50505050509050919050565b5f8181526001830160205260408120548015612b6c575f612ab4600183613de9565b85549091505f90612ac790600190613de9565b9050818114612b26575f865f018281548110612ae557612ae56136ff565b905f5260205f200154905080875f018481548110612b0557612b056136ff565b5f918252602080832090910192909255918252600188019052604090208390555b8554869080612b3757612b37613dfc565b600190038181905f5260205f20015f90559055856001015f8681526020019081526020015f205f9055600193505050506105e9565b5f9150506105e9565b5f6105e9612b81611c47565b8360405161190160f01b8152600281019290925260228201526042902090565b60605f80856001600160a01b031685604051612bbd9190613c25565b5f60405180830381855af49150503d805f8114612bf5576040519150601f19603f3d011682016040523d82523d5f602084013e612bfa565b606091505b5091509150612c0b86838387612cd2565b9695505050505050565b5f807f7fffffffffffffffffffffffffffffff5d576e7357a4501ddfe92f46681b20a0831115612c4a57505f90506003612cc9565b604080515f8082526020820180845289905260ff881692820192909252606081018690526080810185905260019060a0016020604051602081039080840390855afa158015612c9b573d5f803e3d5ffd5b5050604051601f1901519150506001600160a01b038116612cc3575f60019250925050612cc9565b91505f90505b94509492505050565b60608315612d405782515f03612d39576001600160a01b0385163b612d395760405162461bcd60e51b815260206004820152601d60248201527f416464726573733a2063616c6c20746f206e6f6e2d636f6e747261637400000060448201526064016107b2565b508161069b565b61069b8383815115612d555781518083602001fd5b8060405162461bcd60e51b81526004016107b291906135ea565b6040518060a001604052805f6001600160a01b03168152602001606081526020015f81526020015f6001600160801b031681526020015f6001600160801b031681525090565b5f60208284031215612dc5575f80fd5b81356001600160e01b031981168114610ad9575f80fd5b634e487b7160e01b5f52604160045260245ffd5b604051601f8201601f191681016001600160401b0381118282101715612e1857612e18612ddc565b604052919050565b5f6001600160401b03831115612e3857612e38612ddc565b612e4b601f8401601f1916602001612df0565b9050828152838383011115612e5e575f80fd5b828260208301375f602084830101529392505050565b5f82601f830112612e83575f80fd5b610ad983833560208501612e20565b5f60208284031215612ea2575f80fd5b81356001600160401b03811115612eb7575f80fd5b61069b84828501612e74565b6001600160a01b0381168114611410575f80fd5b8035612ee281612ec3565b919050565b5f805f8060808587031215612efa575f80fd5b8435612f0581612ec3565b93506020850135612f1581612ec3565b92506040850135915060608501356001600160401b03811115612f36575f80fd5b612f4287828801612e74565b91505092959194509250565b5f8060408385031215612f5f575f80fd5b8235915060208301356001600160401b03811115612f7b575f80fd5b612f8785828601612e74565b9150509250929050565b5f6101608284031215612fa2575f80fd5b50919050565b5f8060408385031215612fb9575f80fd5b8235612fc481612ec3565b915060208301356001600160401b03811115612fde575f80fd5b612f8785828601612f91565b5f60208284031215612ffa575f80fd5b8135610ad981612ec3565b5f805f60608486031215613017575f80fd5b83356001600160401b0381111561302c575f80fd5b61303886828701612f91565b9660208601359650604090950135949350505050565b5f8083601f84011261305e575f80fd5b5081356001600160401b03811115613074575f80fd5b6020830191508360208260051b85010111156127c9575f80fd5b5f805f805f80606087890312156130a3575f80fd5b86356001600160401b03808211156130b9575f80fd5b6130c58a838b0161304e565b909850965060208901359150808211156130dd575f80fd5b6130e98a838b0161304e565b90965094506040890135915080821115613101575f80fd5b5061310e89828a0161304e565b979a9699509497509295939492505050565b5f8060408385031215613131575f80fd5b823561313c81612ec3565b946020939093013593505050565b5f8083601f84011261315a575f80fd5b5081356001600160401b03811115613170575f80fd5b6020830191508360208285010111156127c9575f80fd5b5f805f60408486031215613199575f80fd5b83356001600160401b03808211156131af575f80fd5b9085019061012082880312156131c3575f80fd5b909350602085013590808211156131d8575f80fd5b506131e58682870161314a565b9497909650939450505050565b80516001600160a01b03908116835260208083015160a082860181905281519086018190525f939183019290849060c08801905b8083101561324857855185168252948301946001929092019190830190613226565b50604087015160408901526060870151945061326f60608901866001600160801b03169052565b6080870151945061328b60808901866001600160801b03169052565b979650505050505050565b5f60208083016020845280855180835260408601915060408160051b8701019250602087015f5b828110156132eb57603f198886030184526132d98583516131f2565b945092850192908501906001016132bd565b5092979650505050505050565b5f60208284031215613308575f80fd5b81356001600160401b0381111561331d575f80fd5b8201601f8101841361332d575f80fd5b61069b84823560208401612e20565b5f806020838503121561334d575f80fd5b82356001600160401b03811115613362575f80fd5b61336e8582860161304e565b90969095509350505050565b5f5b8381101561339457818101518382015260200161337c565b50505f910152565b5f81518084526133b381602086016020860161337a565b601f01601f19169290920160200192915050565b5f60208083016020845280855180835260408601915060408160051b8701019250602087015f5b828110156132eb57603f1988860301845261340a85835161339c565b945092850192908501906001016133ee565b5f805f806060858703121561342f575f80fd5b843561343a81612ec3565b93506020850135925060408501356001600160401b0381111561345b575f80fd5b6134678782880161314a565b95989497509550505050565b5f6001600160401b0382111561348b5761348b612ddc565b5060051b60200190565b5f82601f8301126134a4575f80fd5b813560206134b96134b483613473565b612df0565b8083825260208201915060208460051b8701019350868411156134da575f80fd5b602086015b848110156134f657803583529183019183016134df565b509695505050505050565b5f805f805f60a08688031215613515575f80fd5b853561352081612ec3565b9450602086013561353081612ec3565b935060408601356001600160401b038082111561354b575f80fd5b61355789838a01613495565b9450606088013591508082111561356c575f80fd5b61357889838a01613495565b9350608088013591508082111561358d575f80fd5b5061359a88828901612e74565b9150509295509295909350565b5f805f604084860312156135b9575f80fd5b83356135c481612ec3565b925060208401356001600160401b038111156135de575f80fd5b6131e58682870161314a565b602081525f610ad9602083018461339c565b602080825282518282018190525f9190848201906040850190845b8181101561363c5783516001600160a01b031683529284019291840191600101613617565b50909695505050505050565b602081525f610ad960208301846131f2565b5f805f805f60a0868803121561366e575f80fd5b853561367981612ec3565b9450602086013561368981612ec3565b9350604086013592506060860135915060808601356001600160401b038111156136b1575f80fd5b61359a88828901612e74565b5f808335601e198436030181126136d2575f80fd5b8301803591506001600160401b038211156136eb575f80fd5b6020019150368190038213156127c9575f80fd5b634e487b7160e01b5f52603260045260245ffd5b60208082526021908201527f4163636f756e743a206e6f742061646d696e206f7220456e747279506f696e746040820152601760f91b606082015260800190565b80356001600160801b0381168114612ee2575f80fd5b5f6020828403121561377a575f80fd5b610ad982613754565b803560ff81168114612ee2575f80fd5b5f602082840312156137a3575f80fd5b610ad982613783565b634e487b7160e01b5f52601160045260245ffd5b808201808211156105e9576105e96137ac565b5f808335601e198436030181126137e8575f80fd5b8301803591506001600160401b03821115613801575f80fd5b6020019150600581901b36038213156127c9575f80fd5b5f808335601e1984360301811261382d575f80fd5b83016020810192503590506001600160401b0381111561384b575f80fd5b8060051b36038213156127c9575f80fd5b8183525f60208085019450825f5b8581101561389857813561387d81612ec3565b6001600160a01b03168752958201959082019060010161386a565b509495945050505050565b602081526138c4602082016138b784612ed7565b6001600160a01b03169052565b5f6138d160208401613783565b60ff81166040840152506138e86040840184613818565b6101208060608601526139006101408601838561385c565b92506060860135608086015261391860808701613754565b6001600160801b03811660a0870152915061393560a08701613754565b6001600160801b03811660c0870152915061395260c08701613754565b6001600160801b03811660e0870152915061396f60e08701613754565b9150610100613988818701846001600160801b03169052565b9590950135939094019290925250919050565b5f600182016139ac576139ac6137ac565b5060010190565b8284823760609190911b6bffffffffffffffffffffffff19169101908152601401919050565b5f602082840312156139e9575f80fd5b5051919050565b600181811c90821680613a0457607f821691505b602082108103612fa257634e487b7160e01b5f52602260045260245ffd5b602080825260059082015264214461746160d81b604082015260600190565b5f8085851115613a4f575f80fd5b83861115613a5b575f80fd5b5050820193919092039150565b6001600160e01b03198135818116916004851015613a905780818660040360031b1b83161692505b505092915050565b5f60208284031215613aa8575f80fd5b5035919050565b5f82601f830112613abe575f80fd5b81356020613ace6134b483613473565b82815260059290921b84018101918181019086841115613aec575f80fd5b8286015b848110156134f65780356001600160401b03811115613b0d575f80fd5b613b1b8986838b0101612e74565b845250918301918301613af0565b5f805f60608486031215613b3b575f80fd5b83356001600160401b0380821115613b51575f80fd5b818601915086601f830112613b64575f80fd5b81356020613b746134b483613473565b82815260059290921b8401810191818101908a841115613b92575f80fd5b948201945b83861015613bb9578535613baa81612ec3565b82529482019490820190613b97565b97505087013592505080821115613bce575f80fd5b613bda87838801613495565b93506040860135915080821115613bef575f80fd5b50613bfc86828701613aaf565b9150509250925092565b5f60208284031215613c16575f80fd5b81518015158114610ad9575f80fd5b5f8251613c3681846020870161337a565b9190910192915050565b601f821115613c8457805f5260205f20601f840160051c81016020851015613c655750805b601f840160051c820191505b81811015610ca1575f8155600101613c71565b505050565b81516001600160401b03811115613ca257613ca2612ddc565b613cb681613cb084546139f0565b84613c40565b602080601f831160018114613ce9575f8415613cd25750858301515b5f19600386901b1c1916600185901b178555610d14565b5f85815260208120601f198616915b82811015613d1757888601518255948401946001909101908401613cf8565b5085821015613d3457878501515f19600388901b60f8161c191681555b5050505050600190811b01905550565b604081525f613d56604083018561339c565b8281036020840152613d68818561339c565b95945050505050565b5f8184825b85811015613da7578135613d8981612ec3565b6001600160a01b031683526020928301929190910190600101613d76565b509095945050505050565b6001600160a01b03831681526040602082018190525f9061069b9083018461339c565b634e487b7160e01b5f52602160045260245ffd5b818103818111156105e9576105e96137ac565b634e487b7160e01b5f52603160045260245ffdfe036f52c1827dab135f7fd44ca0bddde297e2f659c710e0ec53e975f22b548301322cf19c484104d3b1a9c2982ebae869ede3fa5f6c4703ca41b9a48c76ee0300416464726573733a206c6f772d6c6576656c2064656c65676174652063616c6c206661696c6564a2646970667358221220f581bd9edf26eb2859b4cb944e5bca00c53016a7f9ee7ba770365b1d3dd5cc0664736f6c63430008160033",
			"opcodes": "PUSH2 0x180 PUSH1 0x40 MSTORE CALLVALUE DUP1 ISZERO PUSH3 0x11 JUMPI PUSH0 DUP1 REVERT JUMPDEST POP PUSH1 0x40 MLOAD PUSH3 0x41BE CODESIZE SUB DUP1 PUSH3 0x41BE DUP4 CODECOPY DUP2 ADD PUSH1 0x40 DUP2 SWAP1 MSTORE PUSH3 0x34 SWAP2 PUSH3 0x24E JUMP JUMPDEST PUSH1 0x40 DUP1 MLOAD DUP1 DUP3 ADD DUP3 MSTORE PUSH1 0x7 DUP2 MSTORE PUSH7 0x1058D8DBDD5B9D PUSH1 0xCA SHL PUSH1 0x20 DUP1 DUP4 ADD SWAP2 DUP3 MSTORE DUP4 MLOAD DUP1 DUP6 ADD DUP6 MSTORE PUSH1 0x1 DUP2 MSTORE PUSH1 0x31 PUSH1 0xF8 SHL SWAP1 DUP3 ADD MSTORE SWAP2 MLOAD SWAP1 KECCAK256 PUSH1 0xE0 DUP2 SWAP1 MSTORE PUSH32 0xC89EFDAA54C0F20C7ADF612882DF0950F5A951637E0307CDCB4C672F298B8BC6 PUSH2 0x100 DUP2 SWAP1 MSTORE CHAINID PUSH1 0xA0 DUP2 DUP2 MSTORE DUP6 MLOAD PUSH32 0x8B73C3C69BB8FE3D512ECC4CF759CC79239F7B179B0FFACAA9A75D522B39400F DUP2 DUP8 ADD DUP2 SWAP1 MSTORE DUP2 DUP9 ADD SWAP6 SWAP1 SWAP6 MSTORE PUSH1 0x60 DUP2 ADD SWAP4 SWAP1 SWAP4 MSTORE PUSH1 0x80 DUP1 DUP5 ADD SWAP3 SWAP1 SWAP3 MSTORE ADDRESS DUP4 DUP3 ADD DUP2 SWAP1 MSTORE DUP7 MLOAD DUP1 DUP6 SUB SWAP1 SWAP3 ADD DUP3 MSTORE PUSH1 0xC0 SWAP4 DUP5 ADD SWAP1 SWAP7 MSTORE DUP1 MLOAD SWAP5 ADD SWAP4 SWAP1 SWAP4 KECCAK256 SWAP1 SWAP3 MSTORE SWAP2 SWAP1 MSTORE PUSH2 0x120 MSTORE DUP2 DUP2 PUSH3 0x116 PUSH3 0x133 JUMP JUMPDEST PUSH1 0x1 PUSH1 0x1 PUSH1 0xA0 SHL SUB SWAP1 DUP2 AND PUSH2 0x140 MSTORE AND PUSH2 0x160 MSTORE POP PUSH3 0x28B SWAP1 POP JUMP JUMPDEST PUSH32 0x322CF19C484104D3B1A9C2982EBAE869EDE3FA5F6C4703CA41B9A48C76EE0300 SLOAD PUSH1 0xFF DUP1 DUP3 AND SWAP2 PUSH2 0x100 SWAP1 DIV AND DUP1 ISZERO PUSH3 0x1C4 JUMPI PUSH1 0x40 MLOAD PUSH3 0x461BCD PUSH1 0xE5 SHL DUP2 MSTORE PUSH1 0x20 PUSH1 0x4 DUP3 ADD MSTORE PUSH1 0x27 PUSH1 0x24 DUP3 ADD MSTORE PUSH32 0x496E697469616C697A61626C653A20636F6E747261637420697320696E697469 PUSH1 0x44 DUP3 ADD MSTORE PUSH7 0x616C697A696E67 PUSH1 0xC8 SHL PUSH1 0x64 DUP3 ADD MSTORE PUSH1 0x84 ADD PUSH1 0x40 MLOAD DUP1 SWAP2 SUB SWAP1 REVERT JUMPDEST PUSH1 0xFF DUP3 DUP2 AND LT ISZERO PUSH3 0x232 JUMPI PUSH32 0x322CF19C484104D3B1A9C2982EBAE869EDE3FA5F6C4703CA41B9A48C76EE0300 DUP1 SLOAD PUSH1 0xFF NOT AND PUSH1 0xFF SWAP1 DUP2 OR SWAP1 SWAP2 SSTORE PUSH1 0x40 DUP1 MLOAD SWAP2 DUP3 MSTORE MLOAD PUSH32 0x7F26B83FF96E1F2B6A682F133852F6798A09C465DA95921460CEFB3847402498 SWAP2 DUP2 SWAP1 SUB PUSH1 0x20 ADD SWAP1 LOG1 JUMPDEST POP POP JUMP JUMPDEST PUSH1 0x1 PUSH1 0x1 PUSH1 0xA0 SHL SUB DUP2 AND DUP2 EQ PUSH3 0x24B JUMPI PUSH0 DUP1 REVERT JUMPDEST POP JUMP JUMPDEST PUSH0 DUP1 PUSH1 0x40 DUP4 DUP6 SUB SLT ISZERO PUSH3 0x260 JUMPI PUSH0 DUP1 REVERT JUMPDEST DUP3 MLOAD PUSH3 0x26D DUP2 PUSH3 0x236 JUMP JUMPDEST PUSH1 0x20 DUP5 ADD MLOAD SWAP1 SWAP3 POP PUSH3 0x280 DUP2 PUSH3 0x236 JUMP JUMPDEST DUP1 SWAP2 POP POP SWAP3 POP SWAP3 SWAP1 POP JUMP JUMPDEST PUSH1 0x80 MLOAD PUSH1 0xA0 MLOAD PUSH1 0xC0 MLOAD PUSH1 0xE0 MLOAD PUSH2 0x100 MLOAD PUSH2 0x120 MLOAD PUSH2 0x140 MLOAD PUSH2 0x160 MLOAD PUSH2 0x3EAD PUSH3 0x311 PUSH0 CODECOPY PUSH0 PUSH2 0x1605 ADD MSTORE PUSH0 DUP2 DUP2 PUSH2 0x4A8 ADD MSTORE DUP2 DUP2 PUSH2 0x20DA ADD MSTORE DUP2 DUP2 PUSH2 0x2260 ADD MSTORE DUP2 DUP2 PUSH2 0x2296 ADD MSTORE DUP2 DUP2 PUSH2 0x235A ADD MSTORE DUP2 DUP2 PUSH2 0x23CD ADD MSTORE PUSH2 0x23FD ADD MSTORE PUSH0 PUSH2 0x1CD0 ADD MSTORE PUSH0 PUSH2 0x1D1F ADD MSTORE PUSH0 PUSH2 0x1CFA ADD MSTORE PUSH0 PUSH2 0x1C53 ADD MSTORE PUSH0 PUSH2 0x1C7D ADD MSTORE PUSH0 PUSH2 0x1CA7 ADD MSTORE PUSH2 0x3EAD PUSH0 RETURN INVALID PUSH1 0x80 PUSH1 0x40 MSTORE PUSH1 0x4 CALLDATASIZE LT PUSH2 0x1B2 JUMPI PUSH0 CALLDATALOAD PUSH1 0xE0 SHR DUP1 PUSH4 0xA9082D84 GT PUSH2 0xE7 JUMPI DUP1 PUSH4 0xD087D288 GT PUSH2 0x87 JUMPI DUP1 PUSH4 0xE8A3D485 GT PUSH2 0x62 JUMPI DUP1 PUSH4 0xE8A3D485 EQ PUSH2 0x511 JUMPI DUP1 PUSH4 0xE9523C97 EQ PUSH2 0x532 JUMPI DUP1 PUSH4 0xF15D424E EQ PUSH2 0x553 JUMPI DUP1 PUSH4 0xF23A6E61 EQ PUSH2 0x57F JUMPI PUSH0 DUP1 REVERT JUMPDEST DUP1 PUSH4 0xD087D288 EQ PUSH2 0x4CA JUMPI DUP1 PUSH4 0xD1F57894 EQ PUSH2 0x4DE JUMPI DUP1 PUSH4 0xD42F2F35 EQ PUSH2 0x4FD JUMPI PUSH0 DUP1 REVERT JUMPDEST DUP1 PUSH4 0xB61D27F6 GT PUSH2 0xC2 JUMPI DUP1 PUSH4 0xB61D27F6 EQ PUSH2 0x42E JUMPI DUP1 PUSH4 0xB76464D5 EQ PUSH2 0x44D JUMPI DUP1 PUSH4 0xBC197C81 EQ PUSH2 0x46C JUMPI DUP1 PUSH4 0xC45A0155 EQ PUSH2 0x497 JUMPI PUSH0 DUP1 REVERT JUMPDEST DUP1 PUSH4 0xA9082D84 EQ PUSH2 0x398 JUMPI DUP1 PUSH4 0xAC9650D8 EQ PUSH2 0x3D6 JUMPI DUP1 PUSH4 0xB0D691FE EQ PUSH2 0x402 JUMPI PUSH0 DUP1 REVERT JUMPDEST DUP1 PUSH4 0x47E1DA2A GT PUSH2 0x152 JUMPI DUP1 PUSH4 0x5892E236 GT PUSH2 0x12D JUMPI DUP1 PUSH4 0x5892E236 EQ PUSH2 0x31A JUMPI DUP1 PUSH4 0x7DFF5A79 EQ PUSH2 0x339 JUMPI DUP1 PUSH4 0x8B52D723 EQ PUSH2 0x358 JUMPI DUP1 PUSH4 0x938E3D7B EQ PUSH2 0x379 JUMPI PUSH0 DUP1 REVERT JUMPDEST DUP1 PUSH4 0x47E1DA2A EQ PUSH2 0x2D2 JUMPI DUP1 PUSH4 0x4A58DB19 EQ PUSH2 0x2F3 JUMPI DUP1 PUSH4 0x4D44560D EQ PUSH2 0x2FB JUMPI PUSH0 DUP1 REVERT JUMPDEST DUP1 PUSH4 0x1626BA7E GT PUSH2 0x18D JUMPI DUP1 PUSH4 0x1626BA7E EQ PUSH2 0x256 JUMPI DUP1 PUSH4 0x1DD756C5 EQ PUSH2 0x275 JUMPI DUP1 PUSH4 0x24D7806C EQ PUSH2 0x294 JUMPI DUP1 PUSH4 0x3A871CDD EQ PUSH2 0x2B3 JUMPI PUSH0 DUP1 REVERT JUMPDEST DUP1 PUSH4 0x1FFC9A7 EQ PUSH2 0x1BD JUMPI DUP1 PUSH4 0xA1028C4 EQ PUSH2 0x1F1 JUMPI DUP1 PUSH4 0x150B7A02 EQ PUSH2 0x21E JUMPI PUSH0 DUP1 REVERT JUMPDEST CALLDATASIZE PUSH2 0x1B9 JUMPI STOP JUMPDEST PUSH0 DUP1 REVERT JUMPDEST CALLVALUE DUP1 ISZERO PUSH2 0x1C8 JUMPI PUSH0 DUP1 REVERT JUMPDEST POP PUSH2 0x1DC PUSH2 0x1D7 CALLDATASIZE PUSH1 0x4 PUSH2 0x2DB5 JUMP JUMPDEST PUSH2 0x5AA JUMP JUMPDEST PUSH1 0x40 MLOAD SWAP1 ISZERO ISZERO DUP2 MSTORE PUSH1 0x20 ADD JUMPDEST PUSH1 0x40 MLOAD DUP1 SWAP2 SUB SWAP1 RETURN JUMPDEST CALLVALUE DUP1 ISZERO PUSH2 0x1FC JUMPI PUSH0 DUP1 REVERT JUMPDEST POP PUSH2 0x210 PUSH2 0x20B CALLDATASIZE PUSH1 0x4 PUSH2 0x2E92 JUMP JUMPDEST PUSH2 0x5EF JUMP JUMPDEST PUSH1 0x40 MLOAD SWAP1 DUP2 MSTORE PUSH1 0x20 ADD PUSH2 0x1E8 JUMP JUMPDEST CALLVALUE DUP1 ISZERO PUSH2 0x229 JUMPI PUSH0 DUP1 REVERT JUMPDEST POP PUSH2 0x23D PUSH2 0x238 CALLDATASIZE PUSH1 0x4 PUSH2 0x2EE7 JUMP JUMPDEST PUSH2 0x692 JUMP JUMPDEST PUSH1 0x40 MLOAD PUSH1 0x1 PUSH1 0x1 PUSH1 0xE0 SHL SUB NOT SWAP1 SWAP2 AND DUP2 MSTORE PUSH1 0x20 ADD PUSH2 0x1E8 JUMP JUMPDEST CALLVALUE DUP1 ISZERO PUSH2 0x261 JUMPI PUSH0 DUP1 REVERT JUMPDEST POP PUSH2 0x23D PUSH2 0x270 CALLDATASIZE PUSH1 0x4 PUSH2 0x2F4E JUMP JUMPDEST PUSH2 0x6A3 JUMP JUMPDEST CALLVALUE DUP1 ISZERO PUSH2 0x280 JUMPI PUSH0 DUP1 REVERT JUMPDEST POP PUSH2 0x1DC PUSH2 0x28F CALLDATASIZE PUSH1 0x4 PUSH2 0x2FA8 JUMP JUMPDEST PUSH2 0x7DE JUMP JUMPDEST CALLVALUE DUP1 ISZERO PUSH2 0x29F JUMPI PUSH0 DUP1 REVERT JUMPDEST POP PUSH2 0x1DC PUSH2 0x2AE CALLDATASIZE PUSH1 0x4 PUSH2 0x2FEA JUMP JUMPDEST PUSH2 0xA8E JUMP JUMPDEST CALLVALUE DUP1 ISZERO PUSH2 0x2BE JUMPI PUSH0 DUP1 REVERT JUMPDEST POP PUSH2 0x210 PUSH2 0x2CD CALLDATASIZE PUSH1 0x4 PUSH2 0x3005 JUMP JUMPDEST PUSH2 0xABB JUMP JUMPDEST CALLVALUE DUP1 ISZERO PUSH2 0x2DD JUMPI PUSH0 DUP1 REVERT JUMPDEST POP PUSH2 0x2F1 PUSH2 0x2EC CALLDATASIZE PUSH1 0x4 PUSH2 0x308E JUMP JUMPDEST PUSH2 0xAE0 JUMP JUMPDEST STOP JUMPDEST PUSH2 0x2F1 PUSH2 0xC45 JUMP JUMPDEST CALLVALUE DUP1 ISZERO PUSH2 0x306 JUMPI PUSH0 DUP1 REVERT JUMPDEST POP PUSH2 0x2F1 PUSH2 0x315 CALLDATASIZE PUSH1 0x4 PUSH2 0x3120 JUMP JUMPDEST PUSH2 0xCA8 JUMP JUMPDEST CALLVALUE DUP1 ISZERO PUSH2 0x325 JUMPI PUSH0 DUP1 REVERT JUMPDEST POP PUSH2 0x2F1 PUSH2 0x334 CALLDATASIZE PUSH1 0x4 PUSH2 0x3187 JUMP JUMPDEST PUSH2 0xD1C JUMP JUMPDEST CALLVALUE DUP1 ISZERO PUSH2 0x344 JUMPI PUSH0 DUP1 REVERT JUMPDEST POP PUSH2 0x1DC PUSH2 0x353 CALLDATASIZE PUSH1 0x4 PUSH2 0x2FEA JUMP JUMPDEST PUSH2 0x10CF JUMP JUMPDEST CALLVALUE DUP1 ISZERO PUSH2 0x363 JUMPI PUSH0 DUP1 REVERT JUMPDEST POP PUSH2 0x36C PUSH2 0x1184 JUMP JUMPDEST PUSH1 0x40 MLOAD PUSH2 0x1E8 SWAP2 SWAP1 PUSH2 0x3296 JUMP JUMPDEST CALLVALUE DUP1 ISZERO PUSH2 0x384 JUMPI PUSH0 DUP1 REVERT JUMPDEST POP PUSH2 0x2F1 PUSH2 0x393 CALLDATASIZE PUSH1 0x4 PUSH2 0x32F8 JUMP JUMPDEST PUSH2 0x13C2 JUMP JUMPDEST CALLVALUE DUP1 ISZERO PUSH2 0x3A3 JUMPI PUSH0 DUP1 REVERT JUMPDEST POP PUSH2 0x3B7 PUSH2 0x3B2 CALLDATASIZE PUSH1 0x4 PUSH2 0x3187 JUMP JUMPDEST PUSH2 0x1413 JUMP JUMPDEST PUSH1 0x40 DUP1 MLOAD SWAP3 ISZERO ISZERO DUP4 MSTORE PUSH1 0x1 PUSH1 0x1 PUSH1 0xA0 SHL SUB SWAP1 SWAP2 AND PUSH1 0x20 DUP4 ADD MSTORE ADD PUSH2 0x1E8 JUMP JUMPDEST CALLVALUE DUP1 ISZERO PUSH2 0x3E1 JUMPI PUSH0 DUP1 REVERT JUMPDEST POP PUSH2 0x3F5 PUSH2 0x3F0 CALLDATASIZE PUSH1 0x4 PUSH2 0x333C JUMP JUMPDEST PUSH2 0x1468 JUMP JUMPDEST PUSH1 0x40 MLOAD PUSH2 0x1E8 SWAP2 SWAP1 PUSH2 0x33C7 JUMP JUMPDEST CALLVALUE DUP1 ISZERO PUSH2 0x40D JUMPI PUSH0 DUP1 REVERT JUMPDEST POP PUSH2 0x416 PUSH2 0x15CB JUMP JUMPDEST PUSH1 0x40 MLOAD PUSH1 0x1 PUSH1 0x1 PUSH1 0xA0 SHL SUB SWAP1 SWAP2 AND DUP2 MSTORE PUSH1 0x20 ADD PUSH2 0x1E8 JUMP JUMPDEST CALLVALUE DUP1 ISZERO PUSH2 0x439 JUMPI PUSH0 DUP1 REVERT JUMPDEST POP PUSH2 0x2F1 PUSH2 0x448 CALLDATASIZE PUSH1 0x4 PUSH2 0x341C JUMP JUMPDEST PUSH2 0x162A JUMP JUMPDEST CALLVALUE DUP1 ISZERO PUSH2 0x458 JUMPI PUSH0 DUP1 REVERT JUMPDEST POP PUSH2 0x2F1 PUSH2 0x467 CALLDATASIZE PUSH1 0x4 PUSH2 0x2FEA JUMP JUMPDEST PUSH2 0x16B9 JUMP JUMPDEST CALLVALUE DUP1 ISZERO PUSH2 0x477 JUMPI PUSH0 DUP1 REVERT JUMPDEST POP PUSH2 0x23D PUSH2 0x486 CALLDATASIZE PUSH1 0x4 PUSH2 0x3501 JUMP JUMPDEST PUSH4 0xBC197C81 PUSH1 0xE0 SHL SWAP6 SWAP5 POP POP POP POP POP JUMP JUMPDEST CALLVALUE DUP1 ISZERO PUSH2 0x4A2 JUMPI PUSH0 DUP1 REVERT JUMPDEST POP PUSH2 0x416 PUSH32 0x0 DUP2 JUMP JUMPDEST CALLVALUE DUP1 ISZERO PUSH2 0x4D5 JUMPI PUSH0 DUP1 REVERT JUMPDEST POP PUSH2 0x210 PUSH2 0x1702 JUMP JUMPDEST CALLVALUE DUP1 ISZERO PUSH2 0x4E9 JUMPI PUSH0 DUP1 REVERT JUMPDEST POP PUSH2 0x2F1 PUSH2 0x4F8 CALLDATASIZE PUSH1 0x4 PUSH2 0x35A7 JUMP JUMPDEST PUSH2 0x177E JUMP JUMPDEST CALLVALUE DUP1 ISZERO PUSH2 0x508 JUMPI PUSH0 DUP1 REVERT JUMPDEST POP PUSH2 0x36C PUSH2 0x1913 JUMP JUMPDEST CALLVALUE DUP1 ISZERO PUSH2 0x51C JUMPI PUSH0 DUP1 REVERT JUMPDEST POP PUSH2 0x525 PUSH2 0x1A7E JUMP JUMPDEST PUSH1 0x40 MLOAD PUSH2 0x1E8 SWAP2 SWAP1 PUSH2 0x35EA JUMP JUMPDEST CALLVALUE DUP1 ISZERO PUSH2 0x53D JUMPI PUSH0 DUP1 REVERT JUMPDEST POP PUSH2 0x546 PUSH2 0x1B2D JUMP JUMPDEST PUSH1 0x40 MLOAD PUSH2 0x1E8 SWAP2 SWAP1 PUSH2 0x35FC JUMP JUMPDEST CALLVALUE DUP1 ISZERO PUSH2 0x55E JUMPI PUSH0 DUP1 REVERT JUMPDEST POP PUSH2 0x572 PUSH2 0x56D CALLDATASIZE PUSH1 0x4 PUSH2 0x2FEA JUMP JUMPDEST PUSH2 0x1B3F JUMP JUMPDEST PUSH1 0x40 MLOAD PUSH2 0x1E8 SWAP2 SWAP1 PUSH2 0x3648 JUMP JUMPDEST CALLVALUE DUP1 ISZERO PUSH2 0x58A JUMPI PUSH0 DUP1 REVERT JUMPDEST POP PUSH2 0x23D PUSH2 0x599 CALLDATASIZE PUSH1 0x4 PUSH2 0x365A JUMP JUMPDEST PUSH4 0xF23A6E61 PUSH1 0xE0 SHL SWAP6 SWAP5 POP POP POP POP POP JUMP JUMPDEST PUSH0 PUSH1 0x1 PUSH1 0x1 PUSH1 0xE0 SHL SUB NOT DUP3 AND PUSH4 0x2711897 PUSH1 0xE5 SHL EQ DUP1 PUSH2 0x5DA JUMPI POP PUSH1 0x1 PUSH1 0x1 PUSH1 0xE0 SHL SUB NOT DUP3 AND PUSH4 0xA85BD01 PUSH1 0xE1 SHL EQ JUMPDEST DUP1 PUSH2 0x5E9 JUMPI POP PUSH2 0x5E9 DUP3 PUSH2 0x1C13 JUMP JUMPDEST SWAP3 SWAP2 POP POP JUMP JUMPDEST PUSH0 DUP1 PUSH32 0x82CAC545155FCBF147F2A9013809613677AC7D65498556E6D19CE43BCBF6C284 DUP4 DUP1 MLOAD SWAP1 PUSH1 0x20 ADD KECCAK256 PUSH1 0x40 MLOAD PUSH1 0x20 ADD PUSH2 0x634 SWAP3 SWAP2 SWAP1 SWAP2 DUP3 MSTORE PUSH1 0x20 DUP3 ADD MSTORE PUSH1 0x40 ADD SWAP1 JUMP JUMPDEST PUSH1 0x40 MLOAD PUSH1 0x20 DUP2 DUP4 SUB SUB DUP2 MSTORE SWAP1 PUSH1 0x40 MSTORE DUP1 MLOAD SWAP1 PUSH1 0x20 ADD KECCAK256 SWAP1 POP PUSH2 0x654 PUSH2 0x1C47 JUMP JUMPDEST PUSH1 0x40 MLOAD PUSH2 0x1901 PUSH1 0xF0 SHL PUSH1 0x20 DUP3 ADD MSTORE PUSH1 0x22 DUP2 ADD SWAP2 SWAP1 SWAP2 MSTORE PUSH1 0x42 DUP2 ADD DUP3 SWAP1 MSTORE PUSH1 0x62 ADD PUSH1 0x40 MLOAD PUSH1 0x20 DUP2 DUP4 SUB SUB DUP2 MSTORE SWAP1 PUSH1 0x40 MSTORE DUP1 MLOAD SWAP1 PUSH1 0x20 ADD KECCAK256 SWAP2 POP POP SWAP2 SWAP1 POP JUMP JUMPDEST PUSH4 0xA85BD01 PUSH1 0xE1 SHL JUMPDEST SWAP5 SWAP4 POP POP POP POP JUMP JUMPDEST PUSH0 DUP1 PUSH2 0x6CF DUP5 PUSH1 0x40 MLOAD PUSH1 0x20 ADD PUSH2 0x6BB SWAP2 DUP2 MSTORE PUSH1 0x20 ADD SWAP1 JUMP JUMPDEST PUSH1 0x40 MLOAD PUSH1 0x20 DUP2 DUP4 SUB SUB DUP2 MSTORE SWAP1 PUSH1 0x40 MSTORE PUSH2 0x5EF JUMP JUMPDEST SWAP1 POP PUSH0 PUSH2 0x6DC DUP3 DUP6 PUSH2 0x1D6D JUMP JUMPDEST SWAP1 POP PUSH2 0x6E7 DUP2 PUSH2 0xA8E JUMP JUMPDEST ISZERO PUSH2 0x6FE JUMPI POP PUSH4 0xB135D3F PUSH1 0xE1 SHL SWAP2 POP PUSH2 0x5E9 SWAP1 POP JUMP JUMPDEST CALLER PUSH0 PUSH2 0x708 PUSH2 0x1D8F JUMP JUMPDEST PUSH1 0x1 PUSH1 0x1 PUSH1 0xA0 SHL SUB DUP5 AND PUSH0 SWAP1 DUP2 MSTORE PUSH1 0x6 SWAP2 SWAP1 SWAP2 ADD PUSH1 0x20 MSTORE PUSH1 0x40 SWAP1 KECCAK256 SWAP1 POP PUSH2 0x72F DUP2 DUP4 PUSH2 0x1DB3 JUMP JUMPDEST DUP1 PUSH2 0x75E JUMPI POP PUSH2 0x73E DUP2 PUSH2 0x1DD4 JUMP JUMPDEST PUSH1 0x1 EQ DUP1 ISZERO PUSH2 0x75E JUMPI POP PUSH0 PUSH2 0x753 DUP3 DUP3 PUSH2 0x1DDD JUMP JUMPDEST PUSH1 0x1 PUSH1 0x1 PUSH1 0xA0 SHL SUB AND EQ JUMPDEST PUSH2 0x7BB JUMPI PUSH1 0x40 MLOAD PUSH3 0x461BCD PUSH1 0xE5 SHL DUP2 MSTORE PUSH1 0x20 PUSH1 0x4 DUP3 ADD MSTORE PUSH1 0x24 DUP1 DUP3 ADD MSTORE PUSH32 0x4163636F756E743A2063616C6C6572206E6F7420617070726F76656420746172 PUSH1 0x44 DUP3 ADD MSTORE PUSH4 0x33B2BA17 PUSH1 0xE1 SHL PUSH1 0x64 DUP3 ADD MSTORE PUSH1 0x84 ADD JUMPDEST PUSH1 0x40 MLOAD DUP1 SWAP2 SUB SWAP1 REVERT JUMPDEST PUSH2 0x7C4 DUP4 PUSH2 0x10CF JUMP JUMPDEST ISZERO PUSH2 0x7D4 JUMPI PUSH4 0xB135D3F PUSH1 0xE1 SHL SWAP5 POP JUMPDEST POP POP POP POP SWAP3 SWAP2 POP POP JUMP JUMPDEST PUSH0 PUSH2 0x7E7 PUSH2 0x1D8F JUMP JUMPDEST PUSH1 0x1 PUSH1 0x1 PUSH1 0xA0 SHL SUB DUP5 AND PUSH0 SWAP1 DUP2 MSTORE PUSH1 0x4 SWAP2 SWAP1 SWAP2 ADD PUSH1 0x20 MSTORE PUSH1 0x40 SWAP1 KECCAK256 SLOAD PUSH1 0xFF AND ISZERO PUSH2 0x813 JUMPI POP PUSH1 0x1 PUSH2 0x5E9 JUMP JUMPDEST PUSH0 PUSH2 0x81C PUSH2 0x1D8F JUMP JUMPDEST PUSH1 0x1 PUSH1 0x1 PUSH1 0xA0 SHL SUB DUP6 AND PUSH0 SWAP1 DUP2 MSTORE PUSH1 0x5 SWAP2 SWAP1 SWAP2 ADD PUSH1 0x20 SWAP1 DUP2 MSTORE PUSH1 0x40 DUP1 DUP4 KECCAK256 DUP2 MLOAD PUSH1 0x60 DUP2 ADD DUP4 MSTORE DUP2 SLOAD DUP2 MSTORE PUSH1 0x1 SWAP1 SWAP2 ADD SLOAD PUSH1 0x1 PUSH1 0x1 PUSH1 0x80 SHL SUB DUP1 DUP3 AND SWAP5 DUP4 ADD SWAP5 SWAP1 SWAP5 MSTORE PUSH1 0x1 PUSH1 0x80 SHL SWAP1 DIV SWAP1 SWAP3 AND SWAP1 DUP3 ADD MSTORE SWAP2 POP PUSH2 0x876 PUSH2 0x1D8F JUMP JUMPDEST PUSH1 0x6 ADD PUSH0 DUP7 PUSH1 0x1 PUSH1 0x1 PUSH1 0xA0 SHL SUB AND PUSH1 0x1 PUSH1 0x1 PUSH1 0xA0 SHL SUB AND DUP2 MSTORE PUSH1 0x20 ADD SWAP1 DUP2 MSTORE PUSH1 0x20 ADD PUSH0 KECCAK256 SWAP1 POP TIMESTAMP DUP3 PUSH1 0x20 ADD MLOAD PUSH1 0x1 PUSH1 0x1 PUSH1 0x80 SHL SUB AND GT DUP1 PUSH2 0x8C4 JUMPI POP DUP2 PUSH1 0x40 ADD MLOAD PUSH1 0x1 PUSH1 0x1 PUSH1 0x80 SHL SUB AND TIMESTAMP LT ISZERO JUMPDEST DUP1 PUSH2 0x8D5 JUMPI POP PUSH2 0x8D3 DUP2 PUSH2 0x1DD4 JUMP JUMPDEST ISZERO JUMPDEST ISZERO PUSH2 0x8E4 JUMPI PUSH0 SWAP3 POP POP POP PUSH2 0x5E9 JUMP JUMPDEST PUSH0 PUSH2 0x8FA PUSH2 0x8F5 PUSH1 0x60 DUP8 ADD DUP8 PUSH2 0x36BD JUMP JUMPDEST PUSH2 0x1DE8 JUMP JUMPDEST SWAP1 POP PUSH0 PUSH2 0x906 DUP4 PUSH2 0x1DD4 JUMP JUMPDEST PUSH1 0x1 EQ DUP1 ISZERO PUSH2 0x926 JUMPI POP PUSH0 PUSH2 0x91B DUP5 DUP3 PUSH2 0x1DDD JUMP JUMPDEST PUSH1 0x1 PUSH1 0x1 PUSH1 0xA0 SHL SUB AND EQ JUMPDEST SWAP1 POP PUSH4 0x24F16C05 PUSH1 0xE1 SHL PUSH1 0x1 PUSH1 0x1 PUSH1 0xE0 SHL SUB NOT DUP4 AND ADD PUSH2 0x99A JUMPI PUSH0 DUP1 PUSH2 0x957 PUSH2 0x952 PUSH1 0x60 DUP11 ADD DUP11 PUSH2 0x36BD JUMP JUMPDEST PUSH2 0x1E20 JUMP JUMPDEST SWAP2 POP SWAP2 POP DUP3 PUSH2 0x97C JUMPI PUSH2 0x96A DUP6 DUP4 PUSH2 0x1DB3 JUMP JUMPDEST PUSH2 0x97C JUMPI PUSH0 SWAP7 POP POP POP POP POP POP POP PUSH2 0x5E9 JUMP JUMPDEST DUP6 MLOAD DUP2 GT ISZERO PUSH2 0x993 JUMPI PUSH0 SWAP7 POP POP POP POP POP POP POP PUSH2 0x5E9 JUMP JUMPDEST POP POP PUSH2 0xA81 JUMP JUMPDEST PUSH4 0x5C0F12EB PUSH1 0xE1 SHL PUSH1 0x1 PUSH1 0x1 PUSH1 0xE0 SHL SUB NOT DUP4 AND ADD PUSH2 0xA75 JUMPI PUSH0 DUP1 PUSH2 0x9C9 PUSH2 0x9C4 PUSH1 0x60 DUP11 ADD DUP11 PUSH2 0x36BD JUMP JUMPDEST PUSH2 0x1E84 JUMP JUMPDEST POP SWAP2 POP SWAP2 POP DUP3 PUSH2 0xA27 JUMPI PUSH0 JUMPDEST DUP3 MLOAD DUP2 LT ISZERO PUSH2 0xA25 JUMPI PUSH2 0xA0A DUP4 DUP3 DUP2 MLOAD DUP2 LT PUSH2 0x9F3 JUMPI PUSH2 0x9F3 PUSH2 0x36FF JUMP JUMPDEST PUSH1 0x20 MUL PUSH1 0x20 ADD ADD MLOAD DUP8 PUSH2 0x1DB3 SWAP1 SWAP2 SWAP1 PUSH4 0xFFFFFFFF AND JUMP JUMPDEST PUSH2 0xA1D JUMPI PUSH0 SWAP8 POP POP POP POP POP POP POP POP PUSH2 0x5E9 JUMP JUMPDEST PUSH1 0x1 ADD PUSH2 0x9D5 JUMP JUMPDEST POP JUMPDEST PUSH0 JUMPDEST DUP3 MLOAD DUP2 LT ISZERO PUSH2 0xA6D JUMPI DUP2 DUP2 DUP2 MLOAD DUP2 LT PUSH2 0xA44 JUMPI PUSH2 0xA44 PUSH2 0x36FF JUMP JUMPDEST PUSH1 0x20 MUL PUSH1 0x20 ADD ADD MLOAD DUP8 PUSH0 ADD MLOAD LT ISZERO PUSH2 0xA65 JUMPI PUSH0 SWAP8 POP POP POP POP POP POP POP POP PUSH2 0x5E9 JUMP JUMPDEST PUSH1 0x1 ADD PUSH2 0xA29 JUMP JUMPDEST POP POP POP PUSH2 0xA81 JUMP JUMPDEST PUSH0 SWAP5 POP POP POP POP POP PUSH2 0x5E9 JUMP JUMPDEST POP PUSH1 0x1 SWAP7 SWAP6 POP POP POP POP POP POP JUMP JUMPDEST PUSH0 PUSH2 0xA97 PUSH2 0x1D8F JUMP JUMPDEST PUSH1 0x1 PUSH1 0x1 PUSH1 0xA0 SHL SUB SWAP1 SWAP3 AND PUSH0 SWAP1 DUP2 MSTORE PUSH1 0x4 SWAP3 SWAP1 SWAP3 ADD PUSH1 0x20 MSTORE POP PUSH1 0x40 SWAP1 KECCAK256 SLOAD PUSH1 0xFF AND SWAP1 JUMP JUMPDEST PUSH0 PUSH2 0xAC4 PUSH2 0x1ED1 JUMP JUMPDEST PUSH2 0xACE DUP5 DUP5 PUSH2 0x1F3B JUMP JUMPDEST SWAP1 POP PUSH2 0xAD9 DUP3 PUSH2 0x207C JUMP JUMPDEST SWAP4 SWAP3 POP POP POP JUMP JUMPDEST PUSH2 0xAE8 PUSH2 0x15CB JUMP JUMPDEST PUSH1 0x1 PUSH1 0x1 PUSH1 0xA0 SHL SUB AND CALLER PUSH1 0x1 PUSH1 0x1 PUSH1 0xA0 SHL SUB AND EQ DUP1 PUSH2 0xB0B JUMPI POP PUSH2 0xB0B CALLER PUSH2 0xA8E JUMP JUMPDEST PUSH2 0xB27 JUMPI PUSH1 0x40 MLOAD PUSH3 0x461BCD PUSH1 0xE5 SHL DUP2 MSTORE PUSH1 0x4 ADD PUSH2 0x7B2 SWAP1 PUSH2 0x3713 JUMP JUMPDEST PUSH2 0xB2F PUSH2 0x20C5 JUMP JUMPDEST DUP5 DUP2 EQ DUP1 ISZERO PUSH2 0xB3D JUMPI POP DUP5 DUP4 EQ JUMPDEST PUSH2 0xB89 JUMPI PUSH1 0x40 MLOAD PUSH3 0x461BCD PUSH1 0xE5 SHL DUP2 MSTORE PUSH1 0x20 PUSH1 0x4 DUP3 ADD MSTORE PUSH1 0x1D PUSH1 0x24 DUP3 ADD MSTORE PUSH32 0x4163636F756E743A2077726F6E67206172726179206C656E677468732E000000 PUSH1 0x44 DUP3 ADD MSTORE PUSH1 0x64 ADD PUSH2 0x7B2 JUMP JUMPDEST PUSH0 JUMPDEST DUP6 DUP2 LT ISZERO PUSH2 0xC3C JUMPI PUSH2 0xC33 DUP8 DUP8 DUP4 DUP2 DUP2 LT PUSH2 0xBA8 JUMPI PUSH2 0xBA8 PUSH2 0x36FF JUMP JUMPDEST SWAP1 POP PUSH1 0x20 MUL ADD PUSH1 0x20 DUP2 ADD SWAP1 PUSH2 0xBBD SWAP2 SWAP1 PUSH2 0x2FEA JUMP JUMPDEST DUP7 DUP7 DUP5 DUP2 DUP2 LT PUSH2 0xBCF JUMPI PUSH2 0xBCF PUSH2 0x36FF JUMP JUMPDEST SWAP1 POP PUSH1 0x20 MUL ADD CALLDATALOAD DUP6 DUP6 DUP6 DUP2 DUP2 LT PUSH2 0xBE8 JUMPI PUSH2 0xBE8 PUSH2 0x36FF JUMP JUMPDEST SWAP1 POP PUSH1 0x20 MUL DUP2 ADD SWAP1 PUSH2 0xBFA SWAP2 SWAP1 PUSH2 0x36BD JUMP JUMPDEST DUP1 DUP1 PUSH1 0x1F ADD PUSH1 0x20 DUP1 SWAP2 DIV MUL PUSH1 0x20 ADD PUSH1 0x40 MLOAD SWAP1 DUP2 ADD PUSH1 0x40 MSTORE DUP1 SWAP4 SWAP3 SWAP2 SWAP1 DUP2 DUP2 MSTORE PUSH1 0x20 ADD DUP4 DUP4 DUP1 DUP3 DUP5 CALLDATACOPY PUSH0 SWAP3 ADD SWAP2 SWAP1 SWAP2 MSTORE POP PUSH2 0x21A1 SWAP3 POP POP POP JUMP JUMPDEST POP PUSH1 0x1 ADD PUSH2 0xB8B JUMP JUMPDEST POP POP POP POP POP POP POP JUMP JUMPDEST PUSH2 0xC4D PUSH2 0x15CB JUMP JUMPDEST PUSH1 0x40 MLOAD PUSH4 0xB760FAF9 PUSH1 0xE0 SHL DUP2 MSTORE ADDRESS PUSH1 0x4 DUP3 ADD MSTORE PUSH1 0x1 PUSH1 0x1 PUSH1 0xA0 SHL SUB SWAP2 SWAP1 SWAP2 AND SWAP1 PUSH4 0xB760FAF9 SWAP1 CALLVALUE SWAP1 PUSH1 0x24 ADD PUSH0 PUSH1 0x40 MLOAD DUP1 DUP4 SUB DUP2 DUP6 DUP9 DUP1 EXTCODESIZE ISZERO DUP1 ISZERO PUSH2 0xC8F JUMPI PUSH0 DUP1 REVERT JUMPDEST POP GAS CALL ISZERO DUP1 ISZERO PUSH2 0xCA1 JUMPI RETURNDATASIZE PUSH0 DUP1 RETURNDATACOPY RETURNDATASIZE PUSH0 REVERT JUMPDEST POP POP POP POP POP JUMP JUMPDEST PUSH2 0xCB0 PUSH2 0x220E JUMP JUMPDEST PUSH2 0xCB8 PUSH2 0x15CB JUMP JUMPDEST PUSH1 0x40 MLOAD PUSH4 0x40B850F PUSH1 0xE3 SHL DUP2 MSTORE PUSH1 0x1 PUSH1 0x1 PUSH1 0xA0 SHL SUB DUP5 DUP2 AND PUSH1 0x4 DUP4 ADD MSTORE PUSH1 0x24 DUP3 ADD DUP5 SWAP1 MSTORE SWAP2 SWAP1 SWAP2 AND SWAP1 PUSH4 0x205C2878 SWAP1 PUSH1 0x44 ADD JUMPDEST PUSH0 PUSH1 0x40 MLOAD DUP1 DUP4 SUB DUP2 PUSH0 DUP8 DUP1 EXTCODESIZE ISZERO DUP1 ISZERO PUSH2 0xD02 JUMPI PUSH0 DUP1 REVERT JUMPDEST POP GAS CALL ISZERO DUP1 ISZERO PUSH2 0xD14 JUMPI RETURNDATASIZE PUSH0 DUP1 RETURNDATACOPY RETURNDATASIZE PUSH0 REVERT JUMPDEST POP POP POP POP POP POP JUMP JUMPDEST PUSH0 PUSH2 0xD2A PUSH1 0x20 DUP6 ADD DUP6 PUSH2 0x2FEA JUMP JUMPDEST SWAP1 POP TIMESTAMP PUSH2 0xD3D PUSH1 0xE0 DUP7 ADD PUSH1 0xC0 DUP8 ADD PUSH2 0x376A JUMP JUMPDEST PUSH1 0x1 PUSH1 0x1 PUSH1 0x80 SHL SUB AND GT ISZERO DUP1 ISZERO PUSH2 0xD6C JUMPI POP PUSH2 0xD60 PUSH2 0x100 DUP6 ADD PUSH1 0xE0 DUP7 ADD PUSH2 0x376A JUMP JUMPDEST PUSH1 0x1 PUSH1 0x1 PUSH1 0x80 SHL SUB AND TIMESTAMP LT JUMPDEST PUSH2 0xDA2 JUMPI PUSH1 0x40 MLOAD PUSH3 0x461BCD PUSH1 0xE5 SHL DUP2 MSTORE PUSH1 0x20 PUSH1 0x4 DUP3 ADD MSTORE PUSH1 0x7 PUSH1 0x24 DUP3 ADD MSTORE PUSH7 0x85C195C9A5BD9 PUSH1 0xCA SHL PUSH1 0x44 DUP3 ADD MSTORE PUSH1 0x64 ADD PUSH2 0x7B2 JUMP JUMPDEST PUSH0 DUP1 PUSH2 0xDAF DUP7 DUP7 DUP7 PUSH2 0x1413 JUMP JUMPDEST SWAP2 POP SWAP2 POP DUP2 PUSH2 0xDE9 JUMPI PUSH1 0x40 MLOAD PUSH3 0x461BCD PUSH1 0xE5 SHL DUP2 MSTORE PUSH1 0x4 ADD PUSH2 0x7B2 SWAP1 PUSH1 0x20 DUP1 DUP3 MSTORE PUSH1 0x4 SWAP1 DUP3 ADD MSTORE PUSH4 0x21736967 PUSH1 0xE0 SHL PUSH1 0x40 DUP3 ADD MSTORE PUSH1 0x60 ADD SWAP1 JUMP JUMPDEST PUSH1 0x1 PUSH2 0xDF3 PUSH2 0x1D8F JUMP JUMPDEST PUSH2 0x100 DUP9 ADD CALLDATALOAD PUSH0 SWAP1 DUP2 MSTORE PUSH1 0x7 SWAP2 SWAP1 SWAP2 ADD PUSH1 0x20 SWAP1 DUP2 MSTORE PUSH1 0x40 DUP1 DUP4 KECCAK256 DUP1 SLOAD PUSH1 0xFF NOT AND SWAP5 ISZERO ISZERO SWAP5 SWAP1 SWAP5 OR SWAP1 SWAP4 SSTORE SWAP1 SWAP2 PUSH2 0xE2E SWAP2 SWAP1 DUP10 ADD SWAP1 DUP10 ADD PUSH2 0x3793 JUMP JUMPDEST PUSH1 0xFF AND GT ISZERO PUSH2 0xE5A JUMPI PUSH0 PUSH2 0xE48 PUSH1 0x40 DUP9 ADD PUSH1 0x20 DUP10 ADD PUSH2 0x3793 JUMP JUMPDEST PUSH1 0xFF AND PUSH1 0x1 EQ SWAP1 POP PUSH2 0xC3C DUP5 DUP3 PUSH2 0x224C JUMP JUMPDEST PUSH2 0xE63 DUP4 PUSH2 0xA8E JUMP JUMPDEST ISZERO PUSH2 0xE98 JUMPI PUSH1 0x40 MLOAD PUSH3 0x461BCD PUSH1 0xE5 SHL DUP2 MSTORE PUSH1 0x20 PUSH1 0x4 DUP3 ADD MSTORE PUSH1 0x5 PUSH1 0x24 DUP3 ADD MSTORE PUSH5 0x30B236B4B7 PUSH1 0xD9 SHL PUSH1 0x44 DUP3 ADD MSTORE PUSH1 0x64 ADD PUSH2 0x7B2 JUMP JUMPDEST PUSH2 0xEAD DUP4 PUSH2 0xEA4 PUSH2 0x1D8F JUMP JUMPDEST PUSH1 0x2 ADD SWAP1 PUSH2 0x238F JUMP JUMPDEST POP PUSH1 0x40 MLOAD DUP1 PUSH1 0x60 ADD PUSH1 0x40 MSTORE DUP1 DUP8 PUSH1 0x60 ADD CALLDATALOAD DUP2 MSTORE PUSH1 0x20 ADD DUP8 PUSH1 0x80 ADD PUSH1 0x20 DUP2 ADD SWAP1 PUSH2 0xED6 SWAP2 SWAP1 PUSH2 0x376A JUMP JUMPDEST PUSH1 0x1 PUSH1 0x1 PUSH1 0x80 SHL SUB AND DUP2 MSTORE PUSH1 0x20 ADD PUSH2 0xEF4 PUSH1 0xC0 DUP10 ADD PUSH1 0xA0 DUP11 ADD PUSH2 0x376A JUMP JUMPDEST PUSH1 0x1 PUSH1 0x1 PUSH1 0x80 SHL SUB AND SWAP1 MSTORE PUSH2 0xF07 PUSH2 0x1D8F JUMP JUMPDEST PUSH1 0x1 PUSH1 0x1 PUSH1 0xA0 SHL SUB DUP6 AND PUSH0 SWAP1 DUP2 MSTORE PUSH1 0x5 SWAP2 SWAP1 SWAP2 ADD PUSH1 0x20 SWAP1 DUP2 MSTORE PUSH1 0x40 DUP1 DUP4 KECCAK256 DUP5 MLOAD DUP2 SSTORE SWAP2 DUP5 ADD MLOAD SWAP4 ADD MLOAD PUSH1 0x1 PUSH1 0x1 PUSH1 0x80 SHL SUB SWAP1 DUP2 AND PUSH1 0x1 PUSH1 0x80 SHL MUL SWAP4 AND SWAP3 SWAP1 SWAP3 OR PUSH1 0x1 SWAP1 SWAP3 ADD SWAP2 SWAP1 SWAP2 SSTORE PUSH2 0xF7B PUSH2 0xF5B PUSH2 0x1D8F JUMP JUMPDEST PUSH1 0x1 PUSH1 0x1 PUSH1 0xA0 SHL SUB DUP7 AND PUSH0 SWAP1 DUP2 MSTORE PUSH1 0x6 SWAP2 SWAP1 SWAP2 ADD PUSH1 0x20 MSTORE PUSH1 0x40 SWAP1 KECCAK256 PUSH2 0x23A3 JUMP JUMPDEST DUP1 MLOAD SWAP1 SWAP2 POP PUSH0 JUMPDEST DUP2 DUP2 LT ISZERO PUSH2 0xFE3 JUMPI PUSH2 0xFD0 DUP4 DUP3 DUP2 MLOAD DUP2 LT PUSH2 0xF9F JUMPI PUSH2 0xF9F PUSH2 0x36FF JUMP JUMPDEST PUSH1 0x20 MUL PUSH1 0x20 ADD ADD MLOAD PUSH2 0xFAF PUSH2 0x1D8F JUMP JUMPDEST PUSH1 0x1 PUSH1 0x1 PUSH1 0xA0 SHL SUB DUP10 AND PUSH0 SWAP1 DUP2 MSTORE PUSH1 0x6 SWAP2 SWAP1 SWAP2 ADD PUSH1 0x20 MSTORE PUSH1 0x40 SWAP1 KECCAK256 SWAP1 PUSH2 0x23AF JUMP JUMPDEST POP PUSH2 0xFDC PUSH1 0x1 DUP3 PUSH2 0x37C0 JUMP JUMPDEST SWAP1 POP PUSH2 0xF82 JUMP JUMPDEST POP PUSH2 0xFF1 PUSH1 0x40 DUP10 ADD DUP10 PUSH2 0x37D3 JUMP JUMPDEST SWAP1 POP SWAP1 POP PUSH0 JUMPDEST DUP2 DUP2 LT ISZERO PUSH2 0x1070 JUMPI PUSH2 0x105D PUSH2 0x100F PUSH1 0x40 DUP12 ADD DUP12 PUSH2 0x37D3 JUMP JUMPDEST DUP4 DUP2 DUP2 LT PUSH2 0x101F JUMPI PUSH2 0x101F PUSH2 0x36FF JUMP JUMPDEST SWAP1 POP PUSH1 0x20 MUL ADD PUSH1 0x20 DUP2 ADD SWAP1 PUSH2 0x1034 SWAP2 SWAP1 PUSH2 0x2FEA JUMP JUMPDEST PUSH2 0x103C PUSH2 0x1D8F JUMP JUMPDEST PUSH1 0x1 PUSH1 0x1 PUSH1 0xA0 SHL SUB DUP10 AND PUSH0 SWAP1 DUP2 MSTORE PUSH1 0x6 SWAP2 SWAP1 SWAP2 ADD PUSH1 0x20 MSTORE PUSH1 0x40 SWAP1 KECCAK256 SWAP1 PUSH2 0x238F JUMP JUMPDEST POP PUSH2 0x1069 PUSH1 0x1 DUP3 PUSH2 0x37C0 JUMP JUMPDEST SWAP1 POP PUSH2 0xFF7 JUMP JUMPDEST POP PUSH2 0x107A DUP9 PUSH2 0x23C3 JUMP JUMPDEST DUP5 PUSH1 0x1 PUSH1 0x1 PUSH1 0xA0 SHL SUB AND DUP4 PUSH1 0x1 PUSH1 0x1 PUSH1 0xA0 SHL SUB AND PUSH32 0xF21D10C26E35863A8DF291ACA54181EE8C4A3BC8E00246C3F7A5A14B69D826A7 DUP11 PUSH1 0x40 MLOAD PUSH2 0x10BD SWAP2 SWAP1 PUSH2 0x38A3 JUMP JUMPDEST PUSH1 0x40 MLOAD DUP1 SWAP2 SUB SWAP1 LOG3 POP POP POP POP POP POP POP POP JUMP JUMPDEST PUSH0 DUP1 PUSH2 0x10D9 PUSH2 0x1D8F JUMP JUMPDEST PUSH1 0x1 PUSH1 0x1 PUSH1 0xA0 SHL SUB DUP5 AND PUSH0 SWAP1 DUP2 MSTORE PUSH1 0x5 SWAP2 SWAP1 SWAP2 ADD PUSH1 0x20 SWAP1 DUP2 MSTORE PUSH1 0x40 SWAP2 DUP3 SWAP1 KECCAK256 DUP3 MLOAD PUSH1 0x60 DUP2 ADD DUP5 MSTORE DUP2 SLOAD DUP2 MSTORE PUSH1 0x1 SWAP1 SWAP2 ADD SLOAD PUSH1 0x1 PUSH1 0x1 PUSH1 0x80 SHL SUB DUP1 DUP3 AND SWAP4 DUP4 ADD DUP5 SWAP1 MSTORE PUSH1 0x1 PUSH1 0x80 SHL SWAP1 SWAP2 DIV AND SWAP3 DUP2 ADD SWAP3 SWAP1 SWAP3 MSTORE SWAP1 SWAP2 POP TIMESTAMP LT DUP1 ISZERO SWAP1 PUSH2 0x1149 JUMPI POP DUP1 PUSH1 0x40 ADD MLOAD PUSH1 0x1 PUSH1 0x1 PUSH1 0x80 SHL SUB AND TIMESTAMP LT JUMPDEST DUP1 ISZERO PUSH2 0xAD9 JUMPI POP PUSH0 PUSH2 0x117C PUSH2 0x115C PUSH2 0x1D8F JUMP JUMPDEST PUSH1 0x1 PUSH1 0x1 PUSH1 0xA0 SHL SUB DUP7 AND PUSH0 SWAP1 DUP2 MSTORE PUSH1 0x6 SWAP2 SWAP1 SWAP2 ADD PUSH1 0x20 MSTORE PUSH1 0x40 SWAP1 KECCAK256 PUSH2 0x1DD4 JUMP JUMPDEST GT SWAP4 SWAP3 POP POP POP JUMP JUMPDEST PUSH1 0x60 PUSH0 PUSH2 0x119A PUSH2 0x1192 PUSH2 0x1D8F JUMP JUMPDEST PUSH1 0x2 ADD PUSH2 0x23A3 JUMP JUMPDEST DUP1 MLOAD SWAP1 SWAP2 POP PUSH0 DUP1 JUMPDEST DUP3 DUP2 LT ISZERO PUSH2 0x1229 JUMPI PUSH2 0x11CC DUP5 DUP3 DUP2 MLOAD DUP2 LT PUSH2 0x11BF JUMPI PUSH2 0x11BF PUSH2 0x36FF JUMP JUMPDEST PUSH1 0x20 MUL PUSH1 0x20 ADD ADD MLOAD PUSH2 0x10CF JUMP JUMPDEST ISZERO PUSH2 0x11E3 JUMPI DUP2 PUSH2 0x11DB DUP2 PUSH2 0x399B JUMP JUMPDEST SWAP3 POP POP PUSH2 0x1217 JUMP JUMPDEST PUSH0 DUP5 DUP3 DUP2 MLOAD DUP2 LT PUSH2 0x11F6 JUMPI PUSH2 0x11F6 PUSH2 0x36FF JUMP JUMPDEST PUSH1 0x20 MUL PUSH1 0x20 ADD ADD SWAP1 PUSH1 0x1 PUSH1 0x1 PUSH1 0xA0 SHL SUB AND SWAP1 DUP2 PUSH1 0x1 PUSH1 0x1 PUSH1 0xA0 SHL SUB AND DUP2 MSTORE POP POP JUMPDEST PUSH2 0x1222 PUSH1 0x1 DUP3 PUSH2 0x37C0 JUMP JUMPDEST SWAP1 POP PUSH2 0x11A2 JUMP JUMPDEST POP DUP1 PUSH1 0x1 PUSH1 0x1 PUSH1 0x40 SHL SUB DUP2 GT ISZERO PUSH2 0x1242 JUMPI PUSH2 0x1242 PUSH2 0x2DDC JUMP JUMPDEST PUSH1 0x40 MLOAD SWAP1 DUP1 DUP3 MSTORE DUP1 PUSH1 0x20 MUL PUSH1 0x20 ADD DUP3 ADD PUSH1 0x40 MSTORE DUP1 ISZERO PUSH2 0x127B JUMPI DUP2 PUSH1 0x20 ADD JUMPDEST PUSH2 0x1268 PUSH2 0x2D6F JUMP JUMPDEST DUP2 MSTORE PUSH1 0x20 ADD SWAP1 PUSH1 0x1 SWAP1 SUB SWAP1 DUP2 PUSH2 0x1260 JUMPI SWAP1 POP JUMPDEST POP SWAP4 POP PUSH0 DUP1 JUMPDEST DUP4 DUP2 LT ISZERO PUSH2 0x13BA JUMPI PUSH0 PUSH1 0x1 PUSH1 0x1 PUSH1 0xA0 SHL SUB AND DUP6 DUP3 DUP2 MLOAD DUP2 LT PUSH2 0x12A5 JUMPI PUSH2 0x12A5 PUSH2 0x36FF JUMP JUMPDEST PUSH1 0x20 MUL PUSH1 0x20 ADD ADD MLOAD PUSH1 0x1 PUSH1 0x1 PUSH1 0xA0 SHL SUB AND EQ PUSH2 0x13A8 JUMPI PUSH0 DUP6 DUP3 DUP2 MLOAD DUP2 LT PUSH2 0x12CE JUMPI PUSH2 0x12CE PUSH2 0x36FF JUMP JUMPDEST PUSH1 0x20 MUL PUSH1 0x20 ADD ADD MLOAD SWAP1 POP PUSH0 PUSH2 0x12E1 PUSH2 0x1D8F JUMP JUMPDEST PUSH1 0x1 PUSH1 0x1 PUSH1 0xA0 SHL SUB DUP4 AND PUSH0 DUP2 DUP2 MSTORE PUSH1 0x5 SWAP3 SWAP1 SWAP3 ADD PUSH1 0x20 SWAP1 DUP2 MSTORE PUSH1 0x40 SWAP3 DUP4 SWAP1 KECCAK256 DUP4 MLOAD PUSH1 0x60 DUP2 ADD DUP6 MSTORE DUP2 SLOAD DUP2 MSTORE PUSH1 0x1 SWAP1 SWAP2 ADD SLOAD PUSH1 0x1 PUSH1 0x1 PUSH1 0x80 SHL SUB DUP1 DUP3 AND DUP4 DUP6 ADD MSTORE PUSH1 0x1 PUSH1 0x80 SHL SWAP1 SWAP2 DIV AND DUP2 DUP6 ADD MSTORE DUP4 MLOAD PUSH1 0xA0 DUP2 ADD SWAP1 SWAP5 MSTORE SWAP2 DUP4 MSTORE SWAP1 SWAP3 POP DUP2 ADD PUSH2 0x134A PUSH2 0xF5B PUSH2 0x1D8F JUMP JUMPDEST DUP2 MSTORE PUSH1 0x20 ADD DUP3 PUSH0 ADD MLOAD DUP2 MSTORE PUSH1 0x20 ADD DUP3 PUSH1 0x20 ADD MLOAD PUSH1 0x1 PUSH1 0x1 PUSH1 0x80 SHL SUB AND DUP2 MSTORE PUSH1 0x20 ADD DUP3 PUSH1 0x40 ADD MLOAD PUSH1 0x1 PUSH1 0x1 PUSH1 0x80 SHL SUB AND DUP2 MSTORE POP DUP9 DUP6 DUP1 PUSH2 0x1388 SWAP1 PUSH2 0x399B JUMP JUMPDEST SWAP7 POP DUP2 MLOAD DUP2 LT PUSH2 0x139A JUMPI PUSH2 0x139A PUSH2 0x36FF JUMP JUMPDEST PUSH1 0x20 MUL PUSH1 0x20 ADD ADD DUP2 SWAP1 MSTORE POP POP POP JUMPDEST PUSH2 0x13B3 PUSH1 0x1 DUP3 PUSH2 0x37C0 JUMP JUMPDEST SWAP1 POP PUSH2 0x1281 JUMP JUMPDEST POP POP POP POP POP SWAP1 JUMP JUMPDEST PUSH2 0x13CA PUSH2 0x2470 JUMP JUMPDEST PUSH2 0x1407 JUMPI PUSH1 0x40 MLOAD PUSH3 0x461BCD PUSH1 0xE5 SHL DUP2 MSTORE PUSH1 0x20 PUSH1 0x4 DUP3 ADD MSTORE PUSH1 0xE PUSH1 0x24 DUP3 ADD MSTORE PUSH14 0x139BDD08185D5D1A1BDC9A5E9959 PUSH1 0x92 SHL PUSH1 0x44 DUP3 ADD MSTORE PUSH1 0x64 ADD PUSH2 0x7B2 JUMP JUMPDEST PUSH2 0x1410 DUP2 PUSH2 0x2487 JUMP JUMPDEST POP JUMP JUMPDEST PUSH0 DUP1 PUSH2 0x1428 PUSH2 0x1421 DUP7 PUSH2 0x25A3 JUMP JUMPDEST DUP6 DUP6 PUSH2 0x26E7 JUMP JUMPDEST SWAP1 POP PUSH2 0x1432 PUSH2 0x1D8F JUMP JUMPDEST PUSH2 0x100 DUP7 ADD CALLDATALOAD PUSH0 SWAP1 DUP2 MSTORE PUSH1 0x7 SWAP2 SWAP1 SWAP2 ADD PUSH1 0x20 MSTORE PUSH1 0x40 SWAP1 KECCAK256 SLOAD PUSH1 0xFF AND ISZERO DUP1 ISZERO PUSH2 0x145E JUMPI POP PUSH2 0x145E DUP2 PUSH2 0xA8E JUMP JUMPDEST SWAP2 POP SWAP4 POP SWAP4 SWAP2 POP POP JUMP JUMPDEST PUSH1 0x60 DUP2 PUSH1 0x1 PUSH1 0x1 PUSH1 0x40 SHL SUB DUP2 GT ISZERO PUSH2 0x1482 JUMPI PUSH2 0x1482 PUSH2 0x2DDC JUMP JUMPDEST PUSH1 0x40 MLOAD SWAP1 DUP1 DUP3 MSTORE DUP1 PUSH1 0x20 MUL PUSH1 0x20 ADD DUP3 ADD PUSH1 0x40 MSTORE DUP1 ISZERO PUSH2 0x14B5 JUMPI DUP2 PUSH1 0x20 ADD JUMPDEST PUSH1 0x60 DUP2 MSTORE PUSH1 0x20 ADD SWAP1 PUSH1 0x1 SWAP1 SUB SWAP1 DUP2 PUSH2 0x14A0 JUMPI SWAP1 POP JUMPDEST POP SWAP1 POP CALLER PUSH0 DUP1 JUMPDEST DUP5 DUP2 LT ISZERO PUSH2 0x15C2 JUMPI DUP2 ISZERO PUSH2 0x153B JUMPI PUSH2 0x1519 ADDRESS DUP8 DUP8 DUP5 DUP2 DUP2 LT PUSH2 0x14E0 JUMPI PUSH2 0x14E0 PUSH2 0x36FF JUMP JUMPDEST SWAP1 POP PUSH1 0x20 MUL DUP2 ADD SWAP1 PUSH2 0x14F2 SWAP2 SWAP1 PUSH2 0x36BD JUMP JUMPDEST DUP7 PUSH1 0x40 MLOAD PUSH1 0x20 ADD PUSH2 0x1505 SWAP4 SWAP3 SWAP2 SWAP1 PUSH2 0x39B3 JUMP JUMPDEST PUSH1 0x40 MLOAD PUSH1 0x20 DUP2 DUP4 SUB SUB DUP2 MSTORE SWAP1 PUSH1 0x40 MSTORE PUSH2 0x2737 JUMP JUMPDEST DUP5 DUP3 DUP2 MLOAD DUP2 LT PUSH2 0x152B JUMPI PUSH2 0x152B PUSH2 0x36FF JUMP JUMPDEST PUSH1 0x20 MUL PUSH1 0x20 ADD ADD DUP2 SWAP1 MSTORE POP PUSH2 0x15BA JUMP JUMPDEST PUSH2 0x159C ADDRESS DUP8 DUP8 DUP5 DUP2 DUP2 LT PUSH2 0x1551 JUMPI PUSH2 0x1551 PUSH2 0x36FF JUMP JUMPDEST SWAP1 POP PUSH1 0x20 MUL DUP2 ADD SWAP1 PUSH2 0x1563 SWAP2 SWAP1 PUSH2 0x36BD JUMP JUMPDEST DUP1 DUP1 PUSH1 0x1F ADD PUSH1 0x20 DUP1 SWAP2 DIV MUL PUSH1 0x20 ADD PUSH1 0x40 MLOAD SWAP1 DUP2 ADD PUSH1 0x40 MSTORE DUP1 SWAP4 SWAP3 SWAP2 SWAP1 DUP2 DUP2 MSTORE PUSH1 0x20 ADD DUP4 DUP4 DUP1 DUP3 DUP5 CALLDATACOPY PUSH0 SWAP3 ADD SWAP2 SWAP1 SWAP2 MSTORE POP PUSH2 0x2737 SWAP3 POP POP POP JUMP JUMPDEST DUP5 DUP3 DUP2 MLOAD DUP2 LT PUSH2 0x15AE JUMPI PUSH2 0x15AE PUSH2 0x36FF JUMP JUMPDEST PUSH1 0x20 MUL PUSH1 0x20 ADD ADD DUP2 SWAP1 MSTORE POP JUMPDEST PUSH1 0x1 ADD PUSH2 0x14BC JUMP JUMPDEST POP POP POP SWAP3 SWAP2 POP POP JUMP JUMPDEST PUSH32 0x36F52C1827DAB135F7FD44CA0BDDDE297E2F659C710E0EC53E975F22B548300 SLOAD PUSH0 SWAP1 PUSH1 0x1 PUSH1 0x1 PUSH1 0xA0 SHL SUB AND DUP1 ISZERO PUSH2 0x1603 JUMPI SWAP2 SWAP1 POP JUMP JUMPDEST PUSH32 0x0 SWAP2 POP POP SWAP1 JUMP JUMPDEST PUSH2 0x1632 PUSH2 0x15CB JUMP JUMPDEST PUSH1 0x1 PUSH1 0x1 PUSH1 0xA0 SHL SUB AND CALLER PUSH1 0x1 PUSH1 0x1 PUSH1 0xA0 SHL SUB AND EQ DUP1 PUSH2 0x1655 JUMPI POP PUSH2 0x1655 CALLER PUSH2 0xA8E JUMP JUMPDEST PUSH2 0x1671 JUMPI PUSH1 0x40 MLOAD PUSH3 0x461BCD PUSH1 0xE5 SHL DUP2 MSTORE PUSH1 0x4 ADD PUSH2 0x7B2 SWAP1 PUSH2 0x3713 JUMP JUMPDEST PUSH2 0x1679 PUSH2 0x20C5 JUMP JUMPDEST PUSH2 0xCA1 DUP5 DUP5 DUP5 DUP5 DUP1 DUP1 PUSH1 0x1F ADD PUSH1 0x20 DUP1 SWAP2 DIV MUL PUSH1 0x20 ADD PUSH1 0x40 MLOAD SWAP1 DUP2 ADD PUSH1 0x40 MSTORE DUP1 SWAP4 SWAP3 SWAP2 SWAP1 DUP2 DUP2 MSTORE PUSH1 0x20 ADD DUP4 DUP4 DUP1 DUP3 DUP5 CALLDATACOPY PUSH0 SWAP3 ADD SWAP2 SWAP1 SWAP2 MSTORE POP PUSH2 0x21A1 SWAP3 POP POP POP JUMP JUMPDEST PUSH2 0x16C1 PUSH2 0x220E JUMP JUMPDEST PUSH32 0x36F52C1827DAB135F7FD44CA0BDDDE297E2F659C710E0EC53E975F22B548300 DUP1 SLOAD PUSH1 0x1 PUSH1 0x1 PUSH1 0xA0 SHL SUB NOT AND PUSH1 0x1 PUSH1 0x1 PUSH1 0xA0 SHL SUB SWAP3 SWAP1 SWAP3 AND SWAP2 SWAP1 SWAP2 OR SWAP1 SSTORE JUMP JUMPDEST PUSH0 PUSH2 0x170B PUSH2 0x15CB JUMP JUMPDEST PUSH1 0x40 MLOAD PUSH4 0x1AAB3F0D PUSH1 0xE1 SHL DUP2 MSTORE ADDRESS PUSH1 0x4 DUP3 ADD MSTORE PUSH0 PUSH1 0x24 DUP3 ADD MSTORE PUSH1 0x1 PUSH1 0x1 PUSH1 0xA0 SHL SUB SWAP2 SWAP1 SWAP2 AND SWAP1 PUSH4 0x35567E1A SWAP1 PUSH1 0x44 ADD PUSH1 0x20 PUSH1 0x40 MLOAD DUP1 DUP4 SUB DUP2 DUP7 GAS STATICCALL ISZERO DUP1 ISZERO PUSH2 0x1755 JUMPI RETURNDATASIZE PUSH0 DUP1 RETURNDATACOPY RETURNDATASIZE PUSH0 REVERT JUMPDEST POP POP POP POP PUSH1 0x40 MLOAD RETURNDATASIZE PUSH1 0x1F NOT PUSH1 0x1F DUP3 ADD AND DUP3 ADD DUP1 PUSH1 0x40 MSTORE POP DUP2 ADD SWAP1 PUSH2 0x1779 SWAP2 SWAP1 PUSH2 0x39D9 JUMP JUMPDEST SWAP1 POP SWAP1 JUMP JUMPDEST PUSH0 DUP1 MLOAD PUSH1 0x20 PUSH2 0x3E31 DUP4 CODECOPY DUP2 MLOAD SWAP2 MSTORE SLOAD PUSH1 0xFF DUP1 DUP3 AND SWAP2 PUSH2 0x100 SWAP1 DIV AND DUP1 ISZERO DUP1 DUP1 ISZERO PUSH2 0x17AB JUMPI POP PUSH1 0x1 DUP4 PUSH1 0xFF AND LT JUMPDEST DUP1 PUSH2 0x17C3 JUMPI POP ADDRESS EXTCODESIZE ISZERO DUP1 ISZERO PUSH2 0x17C3 JUMPI POP DUP3 PUSH1 0xFF AND PUSH1 0x1 EQ JUMPDEST PUSH2 0x1826 JUMPI PUSH1 0x40 MLOAD PUSH3 0x461BCD PUSH1 0xE5 SHL DUP2 MSTORE PUSH1 0x20 PUSH1 0x4 DUP3 ADD MSTORE PUSH1 0x2E PUSH1 0x24 DUP3 ADD MSTORE PUSH32 0x496E697469616C697A61626C653A20636F6E747261637420697320616C726561 PUSH1 0x44 DUP3 ADD MSTORE PUSH14 0x191E481A5B9A5D1A585B1A5E9959 PUSH1 0x92 SHL PUSH1 0x64 DUP3 ADD MSTORE PUSH1 0x84 ADD PUSH2 0x7B2 JUMP JUMPDEST PUSH0 DUP1 MLOAD PUSH1 0x20 PUSH2 0x3E31 DUP4 CODECOPY DUP2 MLOAD SWAP2 MSTORE DUP1 SLOAD PUSH1 0xFF NOT AND PUSH1 0x1 OR SWAP1 SSTORE DUP1 ISZERO PUSH2 0x1861 JUMPI PUSH0 DUP1 MLOAD PUSH1 0x20 PUSH2 0x3E31 DUP4 CODECOPY DUP2 MLOAD SWAP2 MSTORE DUP1 SLOAD PUSH2 0xFF00 NOT AND PUSH2 0x100 OR SWAP1 SSTORE JUMPDEST PUSH2 0x18A0 DUP7 DUP7 DUP7 DUP1 DUP1 PUSH1 0x1F ADD PUSH1 0x20 DUP1 SWAP2 DIV MUL PUSH1 0x20 ADD PUSH1 0x40 MLOAD SWAP1 DUP2 ADD PUSH1 0x40 MSTORE DUP1 SWAP4 SWAP3 SWAP2 SWAP1 DUP2 DUP2 MSTORE PUSH1 0x20 ADD DUP4 DUP4 DUP1 DUP3 DUP5 CALLDATACOPY PUSH0 SWAP3 ADD SWAP2 SWAP1 SWAP2 MSTORE POP PUSH2 0x275C SWAP3 POP POP POP JUMP JUMPDEST PUSH0 DUP1 MLOAD PUSH1 0x20 PUSH2 0x3E11 DUP4 CODECOPY DUP2 MLOAD SWAP2 MSTORE SSTORE PUSH2 0x18BA DUP7 PUSH1 0x1 PUSH2 0x224C JUMP JUMPDEST DUP1 ISZERO PUSH2 0xD14 JUMPI PUSH0 DUP1 MLOAD PUSH1 0x20 PUSH2 0x3E31 DUP4 CODECOPY DUP2 MLOAD SWAP2 MSTORE DUP1 SLOAD PUSH2 0xFF00 NOT AND SWAP1 SSTORE PUSH1 0x40 DUP1 MLOAD PUSH1 0x1 DUP2 MSTORE SWAP1 MLOAD PUSH32 0x7F26B83FF96E1F2B6A682F133852F6798A09C465DA95921460CEFB3847402498 SWAP2 DUP2 SWAP1 SUB PUSH1 0x20 ADD SWAP1 LOG1 POP POP POP POP POP POP JUMP JUMPDEST PUSH1 0x60 PUSH0 PUSH2 0x1921 PUSH2 0x1192 PUSH2 0x1D8F JUMP JUMPDEST DUP1 MLOAD SWAP1 SWAP2 POP DUP1 PUSH1 0x1 PUSH1 0x1 PUSH1 0x40 SHL SUB DUP2 GT ISZERO PUSH2 0x193E JUMPI PUSH2 0x193E PUSH2 0x2DDC JUMP JUMPDEST PUSH1 0x40 MLOAD SWAP1 DUP1 DUP3 MSTORE DUP1 PUSH1 0x20 MUL PUSH1 0x20 ADD DUP3 ADD PUSH1 0x40 MSTORE DUP1 ISZERO PUSH2 0x1977 JUMPI DUP2 PUSH1 0x20 ADD JUMPDEST PUSH2 0x1964 PUSH2 0x2D6F JUMP JUMPDEST DUP2 MSTORE PUSH1 0x20 ADD SWAP1 PUSH1 0x1 SWAP1 SUB SWAP1 DUP2 PUSH2 0x195C JUMPI SWAP1 POP JUMPDEST POP SWAP3 POP PUSH0 JUMPDEST DUP2 DUP2 LT ISZERO PUSH2 0x1A78 JUMPI PUSH0 DUP4 DUP3 DUP2 MLOAD DUP2 LT PUSH2 0x1997 JUMPI PUSH2 0x1997 PUSH2 0x36FF JUMP JUMPDEST PUSH1 0x20 MUL PUSH1 0x20 ADD ADD MLOAD SWAP1 POP PUSH0 PUSH2 0x19AA PUSH2 0x1D8F JUMP JUMPDEST PUSH1 0x1 PUSH1 0x1 PUSH1 0xA0 SHL SUB DUP4 AND PUSH0 DUP2 DUP2 MSTORE PUSH1 0x5 SWAP3 SWAP1 SWAP3 ADD PUSH1 0x20 SWAP1 DUP2 MSTORE PUSH1 0x40 SWAP3 DUP4 SWAP1 KECCAK256 DUP4 MLOAD PUSH1 0x60 DUP2 ADD DUP6 MSTORE DUP2 SLOAD DUP2 MSTORE PUSH1 0x1 SWAP1 SWAP2 ADD SLOAD PUSH1 0x1 PUSH1 0x1 PUSH1 0x80 SHL SUB DUP1 DUP3 AND DUP4 DUP6 ADD MSTORE PUSH1 0x1 PUSH1 0x80 SHL SWAP1 SWAP2 DIV AND DUP2 DUP6 ADD MSTORE DUP4 MLOAD PUSH1 0xA0 DUP2 ADD SWAP1 SWAP5 MSTORE SWAP2 DUP4 MSTORE SWAP1 SWAP3 POP DUP2 ADD PUSH2 0x1A13 PUSH2 0xF5B PUSH2 0x1D8F JUMP JUMPDEST DUP2 MSTORE PUSH1 0x20 ADD DUP3 PUSH0 ADD MLOAD DUP2 MSTORE PUSH1 0x20 ADD DUP3 PUSH1 0x20 ADD MLOAD PUSH1 0x1 PUSH1 0x1 PUSH1 0x80 SHL SUB AND DUP2 MSTORE PUSH1 0x20 ADD DUP3 PUSH1 0x40 ADD MLOAD PUSH1 0x1 PUSH1 0x1 PUSH1 0x80 SHL SUB AND DUP2 MSTORE POP DUP7 DUP5 DUP2 MLOAD DUP2 LT PUSH2 0x1A57 JUMPI PUSH2 0x1A57 PUSH2 0x36FF JUMP JUMPDEST PUSH1 0x20 MUL PUSH1 0x20 ADD ADD DUP2 SWAP1 MSTORE POP POP POP PUSH1 0x1 DUP2 PUSH2 0x1A71 SWAP2 SWAP1 PUSH2 0x37C0 JUMP JUMPDEST SWAP1 POP PUSH2 0x197C JUMP JUMPDEST POP POP POP SWAP1 JUMP JUMPDEST PUSH1 0x60 PUSH32 0x4BC804BA64359C0E35E5ED5D90EE596ECAA49A3A930DDCB1470EA0DD625DA900 DUP1 SLOAD PUSH2 0x1AAC SWAP1 PUSH2 0x39F0 JUMP JUMPDEST DUP1 PUSH1 0x1F ADD PUSH1 0x20 DUP1 SWAP2 DIV MUL PUSH1 0x20 ADD PUSH1 0x40 MLOAD SWAP1 DUP2 ADD PUSH1 0x40 MSTORE DUP1 SWAP3 SWAP2 SWAP1 DUP2 DUP2 MSTORE PUSH1 0x20 ADD DUP3 DUP1 SLOAD PUSH2 0x1AD8 SWAP1 PUSH2 0x39F0 JUMP JUMPDEST DUP1 ISZERO PUSH2 0x1B23 JUMPI DUP1 PUSH1 0x1F LT PUSH2 0x1AFA JUMPI PUSH2 0x100 DUP1 DUP4 SLOAD DIV MUL DUP4 MSTORE SWAP2 PUSH1 0x20 ADD SWAP2 PUSH2 0x1B23 JUMP JUMPDEST DUP3 ADD SWAP2 SWAP1 PUSH0 MSTORE PUSH1 0x20 PUSH0 KECCAK256 SWAP1 JUMPDEST DUP2 SLOAD DUP2 MSTORE SWAP1 PUSH1 0x1 ADD SWAP1 PUSH1 0x20 ADD DUP1 DUP4 GT PUSH2 0x1B06 JUMPI DUP3 SWAP1 SUB PUSH1 0x1F AND DUP3 ADD SWAP2 JUMPDEST POP POP POP POP POP SWAP1 POP SWAP1 JUMP JUMPDEST PUSH1 0x60 PUSH2 0x1779 PUSH2 0x1B3A PUSH2 0x1D8F JUMP JUMPDEST PUSH2 0x23A3 JUMP JUMPDEST PUSH2 0x1B47 PUSH2 0x2D6F JUMP JUMPDEST PUSH0 PUSH2 0x1B50 PUSH2 0x1D8F JUMP JUMPDEST PUSH1 0x1 PUSH1 0x1 PUSH1 0xA0 SHL SUB DUP5 AND PUSH0 DUP2 DUP2 MSTORE PUSH1 0x5 SWAP3 SWAP1 SWAP3 ADD PUSH1 0x20 SWAP1 DUP2 MSTORE PUSH1 0x40 SWAP3 DUP4 SWAP1 KECCAK256 DUP4 MLOAD PUSH1 0x60 DUP2 ADD DUP6 MSTORE DUP2 SLOAD DUP2 MSTORE PUSH1 0x1 SWAP1 SWAP2 ADD SLOAD PUSH1 0x1 PUSH1 0x1 PUSH1 0x80 SHL SUB DUP1 DUP3 AND DUP4 DUP6 ADD MSTORE PUSH1 0x1 PUSH1 0x80 SHL SWAP1 SWAP2 DIV AND DUP2 DUP6 ADD MSTORE DUP4 MLOAD PUSH1 0xA0 DUP2 ADD SWAP1 SWAP5 MSTORE SWAP2 DUP4 MSTORE SWAP1 SWAP3 POP DUP2 ADD PUSH2 0x1BD9 PUSH2 0x1BB9 PUSH2 0x1D8F JUMP JUMPDEST PUSH1 0x1 PUSH1 0x1 PUSH1 0xA0 SHL SUB DUP8 AND PUSH0 SWAP1 DUP2 MSTORE PUSH1 0x6 SWAP2 SWAP1 SWAP2 ADD PUSH1 0x20 MSTORE PUSH1 0x40 SWAP1 KECCAK256 PUSH2 0x23A3 JUMP JUMPDEST DUP2 MSTORE PUSH1 0x20 ADD DUP3 PUSH0 ADD MLOAD DUP2 MSTORE PUSH1 0x20 ADD DUP3 PUSH1 0x20 ADD MLOAD PUSH1 0x1 PUSH1 0x1 PUSH1 0x80 SHL SUB AND DUP2 MSTORE PUSH1 0x20 ADD DUP3 PUSH1 0x40 ADD MLOAD PUSH1 0x1 PUSH1 0x1 PUSH1 0x80 SHL SUB AND DUP2 MSTORE POP SWAP2 POP POP SWAP2 SWAP1 POP JUMP JUMPDEST PUSH0 PUSH1 0x1 PUSH1 0x1 PUSH1 0xE0 SHL SUB NOT DUP3 AND PUSH4 0x2711897 PUSH1 0xE5 SHL EQ DUP1 PUSH2 0x5E9 JUMPI POP PUSH4 0x1FFC9A7 PUSH1 0xE0 SHL PUSH1 0x1 PUSH1 0x1 PUSH1 0xE0 SHL SUB NOT DUP4 AND EQ PUSH2 0x5E9 JUMP JUMPDEST PUSH0 ADDRESS PUSH1 0x1 PUSH1 0x1 PUSH1 0xA0 SHL SUB PUSH32 0x0 AND EQ DUP1 ISZERO PUSH2 0x1C9F JUMPI POP PUSH32 0x0 CHAINID EQ JUMPDEST ISZERO PUSH2 0x1CC9 JUMPI POP PUSH32 0x0 SWAP1 JUMP JUMPDEST POP PUSH1 0x40 DUP1 MLOAD PUSH32 0x0 PUSH1 0x20 DUP1 DUP4 ADD SWAP2 SWAP1 SWAP2 MSTORE PUSH32 0x0 DUP3 DUP5 ADD MSTORE PUSH32 0x0 PUSH1 0x60 DUP4 ADD MSTORE CHAINID PUSH1 0x80 DUP4 ADD MSTORE ADDRESS PUSH1 0xA0 DUP1 DUP5 ADD SWAP2 SWAP1 SWAP2 MSTORE DUP4 MLOAD DUP1 DUP5 SUB SWAP1 SWAP2 ADD DUP2 MSTORE PUSH1 0xC0 SWAP1 SWAP3 ADD SWAP1 SWAP3 MSTORE DUP1 MLOAD SWAP2 ADD KECCAK256 SWAP1 JUMP JUMPDEST PUSH0 DUP1 PUSH0 PUSH2 0x1D7A DUP6 DUP6 PUSH2 0x278E JUMP JUMPDEST SWAP2 POP SWAP2 POP PUSH2 0x1D87 DUP2 PUSH2 0x27D0 JUMP JUMPDEST POP SWAP4 SWAP3 POP POP POP JUMP JUMPDEST PUSH32 0x3181E78FC1B109BC611FD2406150BF06E33FAA75F71CBA12C3E1FD670F2DEF00 SWAP1 JUMP JUMPDEST PUSH1 0x1 PUSH1 0x1 PUSH1 0xA0 SHL SUB DUP2 AND PUSH0 SWAP1 DUP2 MSTORE PUSH1 0x1 DUP4 ADD PUSH1 0x20 MSTORE PUSH1 0x40 DUP2 KECCAK256 SLOAD ISZERO ISZERO PUSH2 0xAD9 JUMP JUMPDEST PUSH0 PUSH2 0x5E9 DUP3 SLOAD SWAP1 JUMP JUMPDEST PUSH0 PUSH2 0xAD9 DUP4 DUP4 PUSH2 0x2919 JUMP JUMPDEST PUSH0 PUSH1 0x4 DUP3 LT ISZERO PUSH2 0x1E0A JUMPI PUSH1 0x40 MLOAD PUSH3 0x461BCD PUSH1 0xE5 SHL DUP2 MSTORE PUSH1 0x4 ADD PUSH2 0x7B2 SWAP1 PUSH2 0x3A22 JUMP JUMPDEST PUSH2 0x1E17 PUSH1 0x4 PUSH0 DUP5 DUP7 PUSH2 0x3A41 JUMP JUMPDEST PUSH2 0xAD9 SWAP2 PUSH2 0x3A68 JUMP JUMPDEST PUSH0 DUP1 PUSH1 0x44 DUP4 LT ISZERO PUSH2 0x1E43 JUMPI PUSH1 0x40 MLOAD PUSH3 0x461BCD PUSH1 0xE5 SHL DUP2 MSTORE PUSH1 0x4 ADD PUSH2 0x7B2 SWAP1 PUSH2 0x3A22 JUMP JUMPDEST PUSH2 0x1E51 PUSH1 0x24 PUSH1 0x4 DUP6 DUP8 PUSH2 0x3A41 JUMP JUMPDEST DUP2 ADD SWAP1 PUSH2 0x1E5E SWAP2 SWAP1 PUSH2 0x2FEA JUMP JUMPDEST SWAP2 POP PUSH2 0x1E6E PUSH1 0x44 PUSH1 0x24 DUP6 DUP8 PUSH2 0x3A41 JUMP JUMPDEST DUP2 ADD SWAP1 PUSH2 0x1E7B SWAP2 SWAP1 PUSH2 0x3A98 JUMP JUMPDEST SWAP1 POP SWAP3 POP SWAP3 SWAP1 POP JUMP JUMPDEST PUSH1 0x60 DUP1 DUP1 PUSH1 0x64 DUP5 LT ISZERO PUSH2 0x1EA9 JUMPI PUSH1 0x40 MLOAD PUSH3 0x461BCD PUSH1 0xE5 SHL DUP2 MSTORE PUSH1 0x4 ADD PUSH2 0x7B2 SWAP1 PUSH2 0x3A22 JUMP JUMPDEST PUSH2 0x1EB6 DUP5 PUSH1 0x4 DUP2 DUP9 PUSH2 0x3A41 JUMP JUMPDEST DUP2 ADD SWAP1 PUSH2 0x1EC3 SWAP2 SWAP1 PUSH2 0x3B29 JUMP JUMPDEST SWAP2 SWAP8 SWAP1 SWAP7 POP SWAP1 SWAP5 POP SWAP3 POP POP POP JUMP JUMPDEST PUSH2 0x1ED9 PUSH2 0x15CB JUMP JUMPDEST PUSH1 0x1 PUSH1 0x1 PUSH1 0xA0 SHL SUB AND CALLER PUSH1 0x1 PUSH1 0x1 PUSH1 0xA0 SHL SUB AND EQ PUSH2 0x1F39 JUMPI PUSH1 0x40 MLOAD PUSH3 0x461BCD PUSH1 0xE5 SHL DUP2 MSTORE PUSH1 0x20 PUSH1 0x4 DUP3 ADD MSTORE PUSH1 0x1C PUSH1 0x24 DUP3 ADD MSTORE PUSH32 0x6163636F756E743A206E6F742066726F6D20456E747279506F696E7400000000 PUSH1 0x44 DUP3 ADD MSTORE PUSH1 0x64 ADD PUSH2 0x7B2 JUMP JUMPDEST JUMP JUMPDEST PUSH32 0x19457468657265756D205369676E6564204D6573736167653A0A333200000000 PUSH0 SWAP1 DUP2 MSTORE PUSH1 0x1C DUP3 SWAP1 MSTORE PUSH1 0x3C DUP2 KECCAK256 PUSH0 PUSH2 0x1FB7 PUSH2 0x1F7B PUSH2 0x140 DUP8 ADD DUP8 PUSH2 0x36BD JUMP JUMPDEST DUP1 DUP1 PUSH1 0x1F ADD PUSH1 0x20 DUP1 SWAP2 DIV MUL PUSH1 0x20 ADD PUSH1 0x40 MLOAD SWAP1 DUP2 ADD PUSH1 0x40 MSTORE DUP1 SWAP4 SWAP3 SWAP2 SWAP1 DUP2 DUP2 MSTORE PUSH1 0x20 ADD DUP4 DUP4 DUP1 DUP3 DUP5 CALLDATACOPY PUSH0 SWAP3 ADD SWAP2 SWAP1 SWAP2 MSTORE POP DUP7 SWAP4 SWAP3 POP POP PUSH2 0x1D6D SWAP1 POP JUMP JUMPDEST SWAP1 POP PUSH2 0x1FC3 DUP2 DUP7 PUSH2 0x7DE JUMP JUMPDEST PUSH2 0x1FD2 JUMPI PUSH1 0x1 SWAP3 POP POP POP PUSH2 0x5E9 JUMP JUMPDEST PUSH0 PUSH2 0x1FDB PUSH2 0x1D8F JUMP JUMPDEST PUSH1 0x1 PUSH1 0x1 PUSH1 0xA0 SHL SUB SWAP3 SWAP1 SWAP3 AND PUSH0 SWAP1 DUP2 MSTORE PUSH1 0x5 SWAP1 SWAP3 ADD PUSH1 0x20 SWAP1 DUP2 MSTORE PUSH1 0x40 DUP1 DUP5 KECCAK256 DUP2 MLOAD PUSH1 0x60 DUP1 DUP3 ADD DUP5 MSTORE DUP3 SLOAD DUP3 MSTORE PUSH1 0x1 SWAP1 SWAP3 ADD SLOAD PUSH1 0x1 PUSH1 0x1 PUSH1 0x80 SHL SUB DUP1 DUP3 AND DUP4 DUP8 ADD MSTORE PUSH1 0x1 PUSH1 0x80 SHL DUP3 DIV SWAP1 DUP2 AND SWAP3 DUP6 ADD SWAP3 SWAP1 SWAP3 MSTORE DUP4 MLOAD SWAP3 DUP4 ADD DUP5 MSTORE SWAP6 DUP3 MSTORE PUSH6 0xFFFFFFFFFFFF DUP1 DUP8 AND SWAP5 DUP4 ADD SWAP5 SWAP1 SWAP5 MSTORE SWAP3 DUP4 AND SWAP2 ADD MSTORE PUSH1 0xD0 SWAP3 SWAP1 SWAP3 SHL PUSH1 0x1 PUSH1 0x1 PUSH1 0xD0 SHL SUB NOT AND PUSH1 0xA0 SWAP3 SWAP1 SWAP3 SHL PUSH6 0xFFFFFFFFFFFF PUSH1 0xA0 SHL AND SWAP2 SWAP1 SWAP2 OR SWAP6 SWAP5 POP POP POP POP POP JUMP JUMPDEST DUP1 ISZERO PUSH2 0x1410 JUMPI PUSH1 0x40 MLOAD PUSH0 SWAP1 CALLER SWAP1 PUSH0 NOT SWAP1 DUP5 SWAP1 DUP5 DUP2 DUP2 DUP2 DUP6 DUP9 DUP9 CALL SWAP4 POP POP POP POP RETURNDATASIZE DUP1 PUSH0 DUP2 EQ PUSH2 0xCA1 JUMPI PUSH1 0x40 MLOAD SWAP2 POP PUSH1 0x1F NOT PUSH1 0x3F RETURNDATASIZE ADD AND DUP3 ADD PUSH1 0x40 MSTORE RETURNDATASIZE DUP3 MSTORE RETURNDATASIZE PUSH0 PUSH1 0x20 DUP5 ADD RETURNDATACOPY PUSH2 0xCA1 JUMP JUMPDEST PUSH1 0x40 MLOAD PUSH4 0xC3C5A547 PUSH1 0xE0 SHL DUP2 MSTORE ADDRESS PUSH1 0x4 DUP3 ADD MSTORE PUSH32 0x0 SWAP1 PUSH1 0x1 PUSH1 0x1 PUSH1 0xA0 SHL SUB DUP3 AND SWAP1 PUSH4 0xC3C5A547 SWAP1 PUSH1 0x24 ADD PUSH1 0x20 PUSH1 0x40 MLOAD DUP1 DUP4 SUB DUP2 DUP7 GAS STATICCALL ISZERO DUP1 ISZERO PUSH2 0x2129 JUMPI RETURNDATASIZE PUSH0 DUP1 RETURNDATACOPY RETURNDATASIZE PUSH0 REVERT JUMPDEST POP POP POP POP PUSH1 0x40 MLOAD RETURNDATASIZE PUSH1 0x1F NOT PUSH1 0x1F DUP3 ADD AND DUP3 ADD DUP1 PUSH1 0x40 MSTORE POP DUP2 ADD SWAP1 PUSH2 0x214D SWAP2 SWAP1 PUSH2 0x3C06 JUMP JUMPDEST PUSH2 0x1410 JUMPI PUSH0 DUP1 MLOAD PUSH1 0x20 PUSH2 0x3E11 DUP4 CODECOPY DUP2 MLOAD SWAP2 MSTORE SLOAD PUSH1 0x40 MLOAD PUSH4 0x20E80FE3 PUSH1 0xE2 SHL DUP2 MSTORE PUSH1 0x4 DUP2 ADD SWAP2 SWAP1 SWAP2 MSTORE PUSH1 0x1 PUSH1 0x1 PUSH1 0xA0 SHL SUB DUP3 AND SWAP1 PUSH4 0x83A03F8C SWAP1 PUSH1 0x24 ADD JUMPDEST PUSH0 PUSH1 0x40 MLOAD DUP1 DUP4 SUB DUP2 PUSH0 DUP8 DUP1 EXTCODESIZE ISZERO DUP1 ISZERO PUSH2 0xC8F JUMPI PUSH0 DUP1 REVERT JUMPDEST PUSH1 0x60 PUSH0 DUP5 PUSH1 0x1 PUSH1 0x1 PUSH1 0xA0 SHL SUB AND DUP5 DUP5 PUSH1 0x40 MLOAD PUSH2 0x21BD SWAP2 SWAP1 PUSH2 0x3C25 JUMP JUMPDEST PUSH0 PUSH1 0x40 MLOAD DUP1 DUP4 SUB DUP2 DUP6 DUP8 GAS CALL SWAP3 POP POP POP RETURNDATASIZE DUP1 PUSH0 DUP2 EQ PUSH2 0x21F7 JUMPI PUSH1 0x40 MLOAD SWAP2 POP PUSH1 0x1F NOT PUSH1 0x3F RETURNDATASIZE ADD AND DUP3 ADD PUSH1 0x40 MSTORE RETURNDATASIZE DUP3 MSTORE RETURNDATASIZE PUSH0 PUSH1 0x20 DUP5 ADD RETURNDATACOPY PUSH2 0x21FC JUMP JUMPDEST PUSH1 0x60 SWAP2 POP JUMPDEST POP SWAP3 POP SWAP1 POP DUP1 PUSH2 0x1D87 JUMPI DUP2 MLOAD PUSH1 0x20 DUP4 ADD REVERT JUMPDEST PUSH2 0x2217 CALLER PUSH2 0xA8E JUMP JUMPDEST PUSH2 0x1F39 JUMPI PUSH1 0x40 MLOAD PUSH3 0x461BCD PUSH1 0xE5 SHL DUP2 MSTORE PUSH1 0x20 PUSH1 0x4 DUP3 ADD MSTORE PUSH1 0x6 PUSH1 0x24 DUP3 ADD MSTORE PUSH6 0x10B0B236B4B7 PUSH1 0xD1 SHL PUSH1 0x44 DUP3 ADD MSTORE PUSH1 0x64 ADD PUSH2 0x7B2 JUMP JUMPDEST PUSH2 0x2256 DUP3 DUP3 PUSH2 0x293F JUMP JUMPDEST PUSH1 0x1 PUSH1 0x1 PUSH1 0xA0 SHL SUB PUSH32 0x0 AND EXTCODESIZE ISZERO PUSH2 0x238B JUMPI DUP1 ISZERO PUSH2 0x2324 JUMPI PUSH1 0x1 PUSH1 0x1 PUSH1 0xA0 SHL SUB PUSH32 0x0 AND PUSH4 0xB61E12B DUP4 PUSH32 0x36F52C1827DAB135F7FD44CA0BDDDE297E2F659C710E0EC53E975F22B548300 PUSH1 0x1 ADD SLOAD PUSH1 0x40 MLOAD PUSH1 0x1 PUSH1 0x1 PUSH1 0xE0 SHL SUB NOT PUSH1 0xE0 DUP6 SWAP1 SHL AND DUP2 MSTORE PUSH1 0x1 PUSH1 0x1 PUSH1 0xA0 SHL SUB SWAP1 SWAP3 AND PUSH1 0x4 DUP4 ADD MSTORE PUSH1 0x24 DUP3 ADD MSTORE PUSH1 0x44 ADD PUSH0 PUSH1 0x40 MLOAD DUP1 DUP4 SUB DUP2 PUSH0 DUP8 DUP1 EXTCODESIZE ISZERO DUP1 ISZERO PUSH2 0xD02 JUMPI PUSH0 DUP1 REVERT JUMPDEST PUSH0 DUP1 MLOAD PUSH1 0x20 PUSH2 0x3E11 DUP4 CODECOPY DUP2 MLOAD SWAP2 MSTORE SLOAD PUSH1 0x40 MLOAD PUSH4 0x1270F47 PUSH1 0xE7 SHL DUP2 MSTORE PUSH1 0x1 PUSH1 0x1 PUSH1 0xA0 SHL SUB DUP5 DUP2 AND PUSH1 0x4 DUP4 ADD MSTORE PUSH1 0x24 DUP3 ADD SWAP3 SWAP1 SWAP3 MSTORE PUSH32 0x0 SWAP1 SWAP2 AND SWAP1 PUSH4 0x9387A380 SWAP1 PUSH1 0x44 ADD PUSH2 0xCEB JUMP JUMPDEST POP POP JUMP JUMPDEST PUSH0 PUSH2 0xAD9 DUP4 PUSH1 0x1 PUSH1 0x1 PUSH1 0xA0 SHL SUB DUP5 AND PUSH2 0x29ED JUMP JUMPDEST PUSH1 0x60 PUSH0 PUSH2 0xAD9 DUP4 PUSH2 0x2A39 JUMP JUMPDEST PUSH0 PUSH2 0xAD9 DUP4 PUSH1 0x1 PUSH1 0x1 PUSH1 0xA0 SHL SUB DUP5 AND PUSH2 0x2A92 JUMP JUMPDEST PUSH1 0x1 PUSH1 0x1 PUSH1 0xA0 SHL SUB PUSH32 0x0 AND EXTCODESIZE ISZERO PUSH2 0x1410 JUMPI PUSH1 0x1 PUSH1 0x1 PUSH1 0xA0 SHL SUB PUSH32 0x0 AND PUSH4 0xB61E12B PUSH2 0x242F PUSH1 0x20 DUP5 ADD DUP5 PUSH2 0x2FEA JUMP JUMPDEST PUSH0 DUP1 MLOAD PUSH1 0x20 PUSH2 0x3E11 DUP4 CODECOPY DUP2 MLOAD SWAP2 MSTORE SLOAD PUSH1 0x40 MLOAD PUSH1 0xE0 DUP5 SWAP1 SHL PUSH1 0x1 PUSH1 0x1 PUSH1 0xE0 SHL SUB NOT AND DUP2 MSTORE PUSH1 0x1 PUSH1 0x1 PUSH1 0xA0 SHL SUB SWAP3 SWAP1 SWAP3 AND PUSH1 0x4 DUP4 ADD MSTORE PUSH1 0x24 DUP3 ADD MSTORE PUSH1 0x44 ADD PUSH2 0x218A JUMP JUMPDEST PUSH0 PUSH2 0x247A CALLER PUSH2 0xA8E JUMP JUMPDEST DUP1 PUSH2 0x1779 JUMPI POP POP ADDRESS CALLER EQ SWAP1 JUMP JUMPDEST PUSH0 PUSH32 0x4BC804BA64359C0E35E5ED5D90EE596ECAA49A3A930DDCB1470EA0DD625DA900 DUP1 SLOAD PUSH2 0x24B4 SWAP1 PUSH2 0x39F0 JUMP JUMPDEST DUP1 PUSH1 0x1F ADD PUSH1 0x20 DUP1 SWAP2 DIV MUL PUSH1 0x20 ADD PUSH1 0x40 MLOAD SWAP1 DUP2 ADD PUSH1 0x40 MSTORE DUP1 SWAP3 SWAP2 SWAP1 DUP2 DUP2 MSTORE PUSH1 0x20 ADD DUP3 DUP1 SLOAD PUSH2 0x24E0 SWAP1 PUSH2 0x39F0 JUMP JUMPDEST DUP1 ISZERO PUSH2 0x252B JUMPI DUP1 PUSH1 0x1F LT PUSH2 0x2502 JUMPI PUSH2 0x100 DUP1 DUP4 SLOAD DIV MUL DUP4 MSTORE SWAP2 PUSH1 0x20 ADD SWAP2 PUSH2 0x252B JUMP JUMPDEST DUP3 ADD SWAP2 SWAP1 PUSH0 MSTORE PUSH1 0x20 PUSH0 KECCAK256 SWAP1 JUMPDEST DUP2 SLOAD DUP2 MSTORE SWAP1 PUSH1 0x1 ADD SWAP1 PUSH1 0x20 ADD DUP1 DUP4 GT PUSH2 0x250E JUMPI DUP3 SWAP1 SUB PUSH1 0x1F AND DUP3 ADD SWAP2 JUMPDEST POP POP POP POP POP SWAP1 POP DUP2 PUSH2 0x255A PUSH32 0x4BC804BA64359C0E35E5ED5D90EE596ECAA49A3A930DDCB1470EA0DD625DA900 SWAP1 JUMP JUMPDEST SWAP1 PUSH2 0x2565 SWAP1 DUP3 PUSH2 0x3C89 JUMP JUMPDEST POP PUSH32 0xC9C7C3FE08B88B4DF9D4D47EF47D2C43D55C025A0BA88CA442580ED9E7348A16 DUP2 DUP4 PUSH1 0x40 MLOAD PUSH2 0x2597 SWAP3 SWAP2 SWAP1 PUSH2 0x3D44 JUMP JUMPDEST PUSH1 0x40 MLOAD DUP1 SWAP2 SUB SWAP1 LOG1 POP POP JUMP JUMPDEST PUSH1 0x60 PUSH32 0x3FD4A1A1A267C84185E3B7EECD57C68783C0581D538B9D6E5F23E4670497C1E9 PUSH2 0x25D3 PUSH1 0x20 DUP5 ADD DUP5 PUSH2 0x2FEA JUMP JUMPDEST PUSH2 0x25E3 PUSH1 0x40 DUP6 ADD PUSH1 0x20 DUP7 ADD PUSH2 0x3793 JUMP JUMPDEST PUSH2 0x25F0 PUSH1 0x40 DUP7 ADD DUP7 PUSH2 0x37D3 JUMP JUMPDEST PUSH1 0x40 MLOAD PUSH1 0x20 ADD PUSH2 0x2601 SWAP3 SWAP2 SWAP1 PUSH2 0x3D71 JUMP JUMPDEST PUSH1 0x40 DUP1 MLOAD PUSH1 0x1F NOT DUP2 DUP5 SUB ADD DUP2 MSTORE SWAP2 SWAP1 MSTORE DUP1 MLOAD PUSH1 0x20 SWAP1 SWAP2 ADD KECCAK256 PUSH1 0x60 DUP7 ADD CALLDATALOAD PUSH2 0x262E PUSH1 0xA0 DUP9 ADD PUSH1 0x80 DUP10 ADD PUSH2 0x376A JUMP JUMPDEST PUSH2 0x263E PUSH1 0xC0 DUP10 ADD PUSH1 0xA0 DUP11 ADD PUSH2 0x376A JUMP JUMPDEST PUSH2 0x264E PUSH1 0xE0 DUP11 ADD PUSH1 0xC0 DUP12 ADD PUSH2 0x376A JUMP JUMPDEST PUSH2 0x265F PUSH2 0x100 DUP12 ADD PUSH1 0xE0 DUP13 ADD PUSH2 0x376A JUMP JUMPDEST PUSH1 0x40 DUP1 MLOAD PUSH1 0x20 DUP2 ADD SWAP11 SWAP1 SWAP11 MSTORE PUSH1 0x1 PUSH1 0x1 PUSH1 0xA0 SHL SUB SWAP1 SWAP9 AND SWAP8 DUP10 ADD SWAP8 SWAP1 SWAP8 MSTORE PUSH1 0xFF SWAP1 SWAP6 AND PUSH1 0x60 DUP9 ADD MSTORE PUSH1 0x80 DUP8 ADD SWAP4 SWAP1 SWAP4 MSTORE PUSH1 0xA0 DUP7 ADD SWAP2 SWAP1 SWAP2 MSTORE PUSH1 0x1 PUSH1 0x1 PUSH1 0x80 SHL SUB SWAP1 DUP2 AND PUSH1 0xC0 DUP7 ADD MSTORE SWAP1 DUP2 AND PUSH1 0xE0 DUP6 ADD MSTORE SWAP1 DUP2 AND PUSH2 0x100 DUP5 DUP2 ADD SWAP2 SWAP1 SWAP2 MSTORE SWAP2 AND PUSH2 0x120 DUP4 ADD MSTORE DUP4 ADD CALLDATALOAD PUSH2 0x140 DUP3 ADD MSTORE PUSH2 0x160 ADD PUSH1 0x40 MLOAD PUSH1 0x20 DUP2 DUP4 SUB SUB DUP2 MSTORE SWAP1 PUSH1 0x40 MSTORE SWAP1 POP SWAP2 SWAP1 POP JUMP JUMPDEST PUSH0 PUSH2 0x69B DUP4 DUP4 DUP1 DUP1 PUSH1 0x1F ADD PUSH1 0x20 DUP1 SWAP2 DIV MUL PUSH1 0x20 ADD PUSH1 0x40 MLOAD SWAP1 DUP2 ADD PUSH1 0x40 MSTORE DUP1 SWAP4 SWAP3 SWAP2 SWAP1 DUP2 DUP2 MSTORE PUSH1 0x20 ADD DUP4 DUP4 DUP1 DUP3 DUP5 CALLDATACOPY PUSH0 SWAP3 ADD SWAP2 SWAP1 SWAP2 MSTORE POP POP DUP8 MLOAD PUSH1 0x20 DUP10 ADD KECCAK256 PUSH2 0x2731 SWAP3 POP SWAP1 POP PUSH2 0x2B75 JUMP JUMPDEST SWAP1 PUSH2 0x1D6D JUMP JUMPDEST PUSH1 0x60 PUSH2 0xAD9 DUP4 DUP4 PUSH1 0x40 MLOAD DUP1 PUSH1 0x60 ADD PUSH1 0x40 MSTORE DUP1 PUSH1 0x27 DUP2 MSTORE PUSH1 0x20 ADD PUSH2 0x3E51 PUSH1 0x27 SWAP2 CODECOPY PUSH2 0x2BA1 JUMP JUMPDEST PUSH0 DUP3 DUP3 PUSH1 0x40 MLOAD PUSH1 0x20 ADD PUSH2 0x2770 SWAP3 SWAP2 SWAP1 PUSH2 0x3DB2 JUMP JUMPDEST PUSH1 0x40 MLOAD PUSH1 0x20 DUP2 DUP4 SUB SUB DUP2 MSTORE SWAP1 PUSH1 0x40 MSTORE DUP1 MLOAD SWAP1 PUSH1 0x20 ADD KECCAK256 SWAP1 POP SWAP3 SWAP2 POP POP JUMP JUMPDEST PUSH0 DUP1 DUP3 MLOAD PUSH1 0x41 SUB PUSH2 0x27C2 JUMPI PUSH1 0x20 DUP4 ADD MLOAD PUSH1 0x40 DUP5 ADD MLOAD PUSH1 0x60 DUP6 ADD MLOAD PUSH0 BYTE PUSH2 0x27B6 DUP8 DUP3 DUP6 DUP6 PUSH2 0x2C15 JUMP JUMPDEST SWAP5 POP SWAP5 POP POP POP POP PUSH2 0x27C9 JUMP JUMPDEST POP PUSH0 SWAP1 POP PUSH1 0x2 JUMPDEST SWAP3 POP SWAP3 SWAP1 POP JUMP JUMPDEST PUSH0 DUP2 PUSH1 0x4 DUP2 GT ISZERO PUSH2 0x27E3 JUMPI PUSH2 0x27E3 PUSH2 0x3DD5 JUMP JUMPDEST SUB PUSH2 0x27EB JUMPI POP JUMP JUMPDEST PUSH1 0x1 DUP2 PUSH1 0x4 DUP2 GT ISZERO PUSH2 0x27FF JUMPI PUSH2 0x27FF PUSH2 0x3DD5 JUMP JUMPDEST SUB PUSH2 0x284C JUMPI PUSH1 0x40 MLOAD PUSH3 0x461BCD PUSH1 0xE5 SHL DUP2 MSTORE PUSH1 0x20 PUSH1 0x4 DUP3 ADD MSTORE PUSH1 0x18 PUSH1 0x24 DUP3 ADD MSTORE PUSH32 0x45434453413A20696E76616C6964207369676E61747572650000000000000000 PUSH1 0x44 DUP3 ADD MSTORE PUSH1 0x64 ADD PUSH2 0x7B2 JUMP JUMPDEST PUSH1 0x2 DUP2 PUSH1 0x4 DUP2 GT ISZERO PUSH2 0x2860 JUMPI PUSH2 0x2860 PUSH2 0x3DD5 JUMP JUMPDEST SUB PUSH2 0x28AD JUMPI PUSH1 0x40 MLOAD PUSH3 0x461BCD PUSH1 0xE5 SHL DUP2 MSTORE PUSH1 0x20 PUSH1 0x4 DUP3 ADD MSTORE PUSH1 0x1F PUSH1 0x24 DUP3 ADD MSTORE PUSH32 0x45434453413A20696E76616C6964207369676E6174757265206C656E67746800 PUSH1 0x44 DUP3 ADD MSTORE PUSH1 0x64 ADD PUSH2 0x7B2 JUMP JUMPDEST PUSH1 0x3 DUP2 PUSH1 0x4 DUP2 GT ISZERO PUSH2 0x28C1 JUMPI PUSH2 0x28C1 PUSH2 0x3DD5 JUMP JUMPDEST SUB PUSH2 0x1410 JUMPI PUSH1 0x40 MLOAD PUSH3 0x461BCD PUSH1 0xE5 SHL DUP2 MSTORE PUSH1 0x20 PUSH1 0x4 DUP3 ADD MSTORE PUSH1 0x22 PUSH1 0x24 DUP3 ADD MSTORE PUSH32 0x45434453413A20696E76616C6964207369676E6174757265202773272076616C PUSH1 0x44 DUP3 ADD MSTORE PUSH2 0x7565 PUSH1 0xF0 SHL PUSH1 0x64 DUP3 ADD MSTORE PUSH1 0x84 ADD PUSH2 0x7B2 JUMP JUMPDEST PUSH0 DUP3 PUSH0 ADD DUP3 DUP2 SLOAD DUP2 LT PUSH2 0x292E JUMPI PUSH2 0x292E PUSH2 0x36FF JUMP JUMPDEST SWAP1 PUSH0 MSTORE PUSH1 0x20 PUSH0 KECCAK256 ADD SLOAD SWAP1 POP SWAP3 SWAP2 POP POP JUMP JUMPDEST DUP1 PUSH2 0x2948 PUSH2 0x1D8F JUMP JUMPDEST PUSH1 0x1 PUSH1 0x1 PUSH1 0xA0 SHL SUB DUP5 AND PUSH0 SWAP1 DUP2 MSTORE PUSH1 0x4 SWAP2 SWAP1 SWAP2 ADD PUSH1 0x20 MSTORE PUSH1 0x40 SWAP1 KECCAK256 DUP1 SLOAD PUSH1 0xFF NOT AND SWAP2 ISZERO ISZERO SWAP2 SWAP1 SWAP2 OR SWAP1 SSTORE DUP1 ISZERO PUSH2 0x2990 JUMPI PUSH2 0x298A DUP3 PUSH2 0x2984 PUSH2 0x1D8F JUMP JUMPDEST SWAP1 PUSH2 0x238F JUMP JUMPDEST POP PUSH2 0x29A4 JUMP JUMPDEST PUSH2 0x29A2 DUP3 PUSH2 0x299C PUSH2 0x1D8F JUMP JUMPDEST SWAP1 PUSH2 0x23AF JUMP JUMPDEST POP JUMPDEST DUP2 PUSH1 0x1 PUSH1 0x1 PUSH1 0xA0 SHL SUB AND PUSH32 0x235BC17E7930760029E9F4D860A2A8089976DE5B381CF8380FC11C1D88A11133 DUP3 PUSH1 0x40 MLOAD PUSH2 0x29E1 SWAP2 ISZERO ISZERO DUP2 MSTORE PUSH1 0x20 ADD SWAP1 JUMP JUMPDEST PUSH1 0x40 MLOAD DUP1 SWAP2 SUB SWAP1 LOG2 POP POP JUMP JUMPDEST PUSH0 DUP2 DUP2 MSTORE PUSH1 0x1 DUP4 ADD PUSH1 0x20 MSTORE PUSH1 0x40 DUP2 KECCAK256 SLOAD PUSH2 0x2A32 JUMPI POP DUP2 SLOAD PUSH1 0x1 DUP2 DUP2 ADD DUP5 SSTORE PUSH0 DUP5 DUP2 MSTORE PUSH1 0x20 DUP1 DUP3 KECCAK256 SWAP1 SWAP4 ADD DUP5 SWAP1 SSTORE DUP5 SLOAD DUP5 DUP3 MSTORE DUP3 DUP7 ADD SWAP1 SWAP4 MSTORE PUSH1 0x40 SWAP1 KECCAK256 SWAP2 SWAP1 SWAP2 SSTORE PUSH2 0x5E9 JUMP JUMPDEST POP PUSH0 PUSH2 0x5E9 JUMP JUMPDEST PUSH1 0x60 DUP2 PUSH0 ADD DUP1 SLOAD DUP1 PUSH1 0x20 MUL PUSH1 0x20 ADD PUSH1 0x40 MLOAD SWAP1 DUP2 ADD PUSH1 0x40 MSTORE DUP1 SWAP3 SWAP2 SWAP1 DUP2 DUP2 MSTORE PUSH1 0x20 ADD DUP3 DUP1 SLOAD DUP1 ISZERO PUSH2 0x2A86 JUMPI PUSH1 0x20 MUL DUP3 ADD SWAP2 SWAP1 PUSH0 MSTORE PUSH1 0x20 PUSH0 KECCAK256 SWAP1 JUMPDEST DUP2 SLOAD DUP2 MSTORE PUSH1 0x20 ADD SWAP1 PUSH1 0x1 ADD SWAP1 DUP1 DUP4 GT PUSH2 0x2A72 JUMPI JUMPDEST POP POP POP POP POP SWAP1 POP SWAP2 SWAP1 POP JUMP JUMPDEST PUSH0 DUP2 DUP2 MSTORE PUSH1 0x1 DUP4 ADD PUSH1 0x20 MSTORE PUSH1 0x40 DUP2 KECCAK256 SLOAD DUP1 ISZERO PUSH2 0x2B6C JUMPI PUSH0 PUSH2 0x2AB4 PUSH1 0x1 DUP4 PUSH2 0x3DE9 JUMP JUMPDEST DUP6 SLOAD SWAP1 SWAP2 POP PUSH0 SWAP1 PUSH2 0x2AC7 SWAP1 PUSH1 0x1 SWAP1 PUSH2 0x3DE9 JUMP JUMPDEST SWAP1 POP DUP2 DUP2 EQ PUSH2 0x2B26 JUMPI PUSH0 DUP7 PUSH0 ADD DUP3 DUP2 SLOAD DUP2 LT PUSH2 0x2AE5 JUMPI PUSH2 0x2AE5 PUSH2 0x36FF JUMP JUMPDEST SWAP1 PUSH0 MSTORE PUSH1 0x20 PUSH0 KECCAK256 ADD SLOAD SWAP1 POP DUP1 DUP8 PUSH0 ADD DUP5 DUP2 SLOAD DUP2 LT PUSH2 0x2B05 JUMPI PUSH2 0x2B05 PUSH2 0x36FF JUMP JUMPDEST PUSH0 SWAP2 DUP3 MSTORE PUSH1 0x20 DUP1 DUP4 KECCAK256 SWAP1 SWAP2 ADD SWAP3 SWAP1 SWAP3 SSTORE SWAP2 DUP3 MSTORE PUSH1 0x1 DUP9 ADD SWAP1 MSTORE PUSH1 0x40 SWAP1 KECCAK256 DUP4 SWAP1 SSTORE JUMPDEST DUP6 SLOAD DUP7 SWAP1 DUP1 PUSH2 0x2B37 JUMPI PUSH2 0x2B37 PUSH2 0x3DFC JUMP JUMPDEST PUSH1 0x1 SWAP1 SUB DUP2 DUP2 SWAP1 PUSH0 MSTORE PUSH1 0x20 PUSH0 KECCAK256 ADD PUSH0 SWAP1 SSTORE SWAP1 SSTORE DUP6 PUSH1 0x1 ADD PUSH0 DUP7 DUP2 MSTORE PUSH1 0x20 ADD SWAP1 DUP2 MSTORE PUSH1 0x20 ADD PUSH0 KECCAK256 PUSH0 SWAP1 SSTORE PUSH1 0x1 SWAP4 POP POP POP POP PUSH2 0x5E9 JUMP JUMPDEST PUSH0 SWAP2 POP POP PUSH2 0x5E9 JUMP JUMPDEST PUSH0 PUSH2 0x5E9 PUSH2 0x2B81 PUSH2 0x1C47 JUMP JUMPDEST DUP4 PUSH1 0x40 MLOAD PUSH2 0x1901 PUSH1 0xF0 SHL DUP2 MSTORE PUSH1 0x2 DUP2 ADD SWAP3 SWAP1 SWAP3 MSTORE PUSH1 0x22 DUP3 ADD MSTORE PUSH1 0x42 SWAP1 KECCAK256 SWAP1 JUMP JUMPDEST PUSH1 0x60 PUSH0 DUP1 DUP6 PUSH1 0x1 PUSH1 0x1 PUSH1 0xA0 SHL SUB AND DUP6 PUSH1 0x40 MLOAD PUSH2 0x2BBD SWAP2 SWAP1 PUSH2 0x3C25 JUMP JUMPDEST PUSH0 PUSH1 0x40 MLOAD DUP1 DUP4 SUB DUP2 DUP6 GAS DELEGATECALL SWAP2 POP POP RETURNDATASIZE DUP1 PUSH0 DUP2 EQ PUSH2 0x2BF5 JUMPI PUSH1 0x40 MLOAD SWAP2 POP PUSH1 0x1F NOT PUSH1 0x3F RETURNDATASIZE ADD AND DUP3 ADD PUSH1 0x40 MSTORE RETURNDATASIZE DUP3 MSTORE RETURNDATASIZE PUSH0 PUSH1 0x20 DUP5 ADD RETURNDATACOPY PUSH2 0x2BFA JUMP JUMPDEST PUSH1 0x60 SWAP2 POP JUMPDEST POP SWAP2 POP SWAP2 POP PUSH2 0x2C0B DUP7 DUP4 DUP4 DUP8 PUSH2 0x2CD2 JUMP JUMPDEST SWAP7 SWAP6 POP POP POP POP POP POP JUMP JUMPDEST PUSH0 DUP1 PUSH32 0x7FFFFFFFFFFFFFFFFFFFFFFFFFFFFFFF5D576E7357A4501DDFE92F46681B20A0 DUP4 GT ISZERO PUSH2 0x2C4A JUMPI POP PUSH0 SWAP1 POP PUSH1 0x3 PUSH2 0x2CC9 JUMP JUMPDEST PUSH1 0x40 DUP1 MLOAD PUSH0 DUP1 DUP3 MSTORE PUSH1 0x20 DUP3 ADD DUP1 DUP5 MSTORE DUP10 SWAP1 MSTORE PUSH1 0xFF DUP9 AND SWAP3 DUP3 ADD SWAP3 SWAP1 SWAP3 MSTORE PUSH1 0x60 DUP2 ADD DUP7 SWAP1 MSTORE PUSH1 0x80 DUP2 ADD DUP6 SWAP1 MSTORE PUSH1 0x1 SWAP1 PUSH1 0xA0 ADD PUSH1 0x20 PUSH1 0x40 MLOAD PUSH1 0x20 DUP2 SUB SWAP1 DUP1 DUP5 SUB SWAP1 DUP6 GAS STATICCALL ISZERO DUP1 ISZERO PUSH2 0x2C9B JUMPI RETURNDATASIZE PUSH0 DUP1 RETURNDATACOPY RETURNDATASIZE PUSH0 REVERT JUMPDEST POP POP PUSH1 0x40 MLOAD PUSH1 0x1F NOT ADD MLOAD SWAP2 POP POP PUSH1 0x1 PUSH1 0x1 PUSH1 0xA0 SHL SUB DUP2 AND PUSH2 0x2CC3 JUMPI PUSH0 PUSH1 0x1 SWAP3 POP SWAP3 POP POP PUSH2 0x2CC9 JUMP JUMPDEST SWAP2 POP PUSH0 SWAP1 POP JUMPDEST SWAP5 POP SWAP5 SWAP3 POP POP POP JUMP JUMPDEST PUSH1 0x60 DUP4 ISZERO PUSH2 0x2D40 JUMPI DUP3 MLOAD PUSH0 SUB PUSH2 0x2D39 JUMPI PUSH1 0x1 PUSH1 0x1 PUSH1 0xA0 SHL SUB DUP6 AND EXTCODESIZE PUSH2 0x2D39 JUMPI PUSH1 0x40 MLOAD PUSH3 0x461BCD PUSH1 0xE5 SHL DUP2 MSTORE PUSH1 0x20 PUSH1 0x4 DUP3 ADD MSTORE PUSH1 0x1D PUSH1 0x24 DUP3 ADD MSTORE PUSH32 0x416464726573733A2063616C6C20746F206E6F6E2D636F6E7472616374000000 PUSH1 0x44 DUP3 ADD MSTORE PUSH1 0x64 ADD PUSH2 0x7B2 JUMP JUMPDEST POP DUP2 PUSH2 0x69B JUMP JUMPDEST PUSH2 0x69B DUP4 DUP4 DUP2 MLOAD ISZERO PUSH2 0x2D55 JUMPI DUP2 MLOAD DUP1 DUP4 PUSH1 0x20 ADD REVERT JUMPDEST DUP1 PUSH1 0x40 MLOAD PUSH3 0x461BCD PUSH1 0xE5 SHL DUP2 MSTORE PUSH1 0x4 ADD PUSH2 0x7B2 SWAP2 SWAP1 PUSH2 0x35EA JUMP JUMPDEST PUSH1 0x40 MLOAD DUP1 PUSH1 0xA0 ADD PUSH1 0x40 MSTORE DUP1 PUSH0 PUSH1 0x1 PUSH1 0x1 PUSH1 0xA0 SHL SUB AND DUP2 MSTORE PUSH1 0x20 ADD PUSH1 0x60 DUP2 MSTORE PUSH1 0x20 ADD PUSH0 DUP2 MSTORE PUSH1 0x20 ADD PUSH0 PUSH1 0x1 PUSH1 0x1 PUSH1 0x80 SHL SUB AND DUP2 MSTORE PUSH1 0x20 ADD PUSH0 PUSH1 0x1 PUSH1 0x1 PUSH1 0x80 SHL SUB AND DUP2 MSTORE POP SWAP1 JUMP JUMPDEST PUSH0 PUSH1 0x20 DUP3 DUP5 SUB SLT ISZERO PUSH2 0x2DC5 JUMPI PUSH0 DUP1 REVERT JUMPDEST DUP2 CALLDATALOAD PUSH1 0x1 PUSH1 0x1 PUSH1 0xE0 SHL SUB NOT DUP2 AND DUP2 EQ PUSH2 0xAD9 JUMPI PUSH0 DUP1 REVERT JUMPDEST PUSH4 0x4E487B71 PUSH1 0xE0 SHL PUSH0 MSTORE PUSH1 0x41 PUSH1 0x4 MSTORE PUSH1 0x24 PUSH0 REVERT JUMPDEST PUSH1 0x40 MLOAD PUSH1 0x1F DUP3 ADD PUSH1 0x1F NOT AND DUP2 ADD PUSH1 0x1 PUSH1 0x1 PUSH1 0x40 SHL SUB DUP2 GT DUP3 DUP3 LT OR ISZERO PUSH2 0x2E18 JUMPI PUSH2 0x2E18 PUSH2 0x2DDC JUMP JUMPDEST PUSH1 0x40 MSTORE SWAP2 SWAP1 POP JUMP JUMPDEST PUSH0 PUSH1 0x1 PUSH1 0x1 PUSH1 0x40 SHL SUB DUP4 GT ISZERO PUSH2 0x2E38 JUMPI PUSH2 0x2E38 PUSH2 0x2DDC JUMP JUMPDEST PUSH2 0x2E4B PUSH1 0x1F DUP5 ADD PUSH1 0x1F NOT AND PUSH1 0x20 ADD PUSH2 0x2DF0 JUMP JUMPDEST SWAP1 POP DUP3 DUP2 MSTORE DUP4 DUP4 DUP4 ADD GT ISZERO PUSH2 0x2E5E JUMPI PUSH0 DUP1 REVERT JUMPDEST DUP3 DUP3 PUSH1 0x20 DUP4 ADD CALLDATACOPY PUSH0 PUSH1 0x20 DUP5 DUP4 ADD ADD MSTORE SWAP4 SWAP3 POP POP POP JUMP JUMPDEST PUSH0 DUP3 PUSH1 0x1F DUP4 ADD SLT PUSH2 0x2E83 JUMPI PUSH0 DUP1 REVERT JUMPDEST PUSH2 0xAD9 DUP4 DUP4 CALLDATALOAD PUSH1 0x20 DUP6 ADD PUSH2 0x2E20 JUMP JUMPDEST PUSH0 PUSH1 0x20 DUP3 DUP5 SUB SLT ISZERO PUSH2 0x2EA2 JUMPI PUSH0 DUP1 REVERT JUMPDEST DUP2 CALLDATALOAD PUSH1 0x1 PUSH1 0x1 PUSH1 0x40 SHL SUB DUP2 GT ISZERO PUSH2 0x2EB7 JUMPI PUSH0 DUP1 REVERT JUMPDEST PUSH2 0x69B DUP5 DUP3 DUP6 ADD PUSH2 0x2E74 JUMP JUMPDEST PUSH1 0x1 PUSH1 0x1 PUSH1 0xA0 SHL SUB DUP2 AND DUP2 EQ PUSH2 0x1410 JUMPI PUSH0 DUP1 REVERT JUMPDEST DUP1 CALLDATALOAD PUSH2 0x2EE2 DUP2 PUSH2 0x2EC3 JUMP JUMPDEST SWAP2 SWAP1 POP JUMP JUMPDEST PUSH0 DUP1 PUSH0 DUP1 PUSH1 0x80 DUP6 DUP8 SUB SLT ISZERO PUSH2 0x2EFA JUMPI PUSH0 DUP1 REVERT JUMPDEST DUP5 CALLDATALOAD PUSH2 0x2F05 DUP2 PUSH2 0x2EC3 JUMP JUMPDEST SWAP4 POP PUSH1 0x20 DUP6 ADD CALLDATALOAD PUSH2 0x2F15 DUP2 PUSH2 0x2EC3 JUMP JUMPDEST SWAP3 POP PUSH1 0x40 DUP6 ADD CALLDATALOAD SWAP2 POP PUSH1 0x60 DUP6 ADD CALLDATALOAD PUSH1 0x1 PUSH1 0x1 PUSH1 0x40 SHL SUB DUP2 GT ISZERO PUSH2 0x2F36 JUMPI PUSH0 DUP1 REVERT JUMPDEST PUSH2 0x2F42 DUP8 DUP3 DUP9 ADD PUSH2 0x2E74 JUMP JUMPDEST SWAP2 POP POP SWAP3 SWAP6 SWAP2 SWAP5 POP SWAP3 POP JUMP JUMPDEST PUSH0 DUP1 PUSH1 0x40 DUP4 DUP6 SUB SLT ISZERO PUSH2 0x2F5F JUMPI PUSH0 DUP1 REVERT JUMPDEST DUP3 CALLDATALOAD SWAP2 POP PUSH1 0x20 DUP4 ADD CALLDATALOAD PUSH1 0x1 PUSH1 0x1 PUSH1 0x40 SHL SUB DUP2 GT ISZERO PUSH2 0x2F7B JUMPI PUSH0 DUP1 REVERT JUMPDEST PUSH2 0x2F87 DUP6 DUP3 DUP7 ADD PUSH2 0x2E74 JUMP JUMPDEST SWAP2 POP POP SWAP3 POP SWAP3 SWAP1 POP JUMP JUMPDEST PUSH0 PUSH2 0x160 DUP3 DUP5 SUB SLT ISZERO PUSH2 0x2FA2 JUMPI PUSH0 DUP1 REVERT JUMPDEST POP SWAP2 SWAP1 POP JUMP JUMPDEST PUSH0 DUP1 PUSH1 0x40 DUP4 DUP6 SUB SLT ISZERO PUSH2 0x2FB9 JUMPI PUSH0 DUP1 REVERT JUMPDEST DUP3 CALLDATALOAD PUSH2 0x2FC4 DUP2 PUSH2 0x2EC3 JUMP JUMPDEST SWAP2 POP PUSH1 0x20 DUP4 ADD CALLDATALOAD PUSH1 0x1 PUSH1 0x1 PUSH1 0x40 SHL SUB DUP2 GT ISZERO PUSH2 0x2FDE JUMPI PUSH0 DUP1 REVERT JUMPDEST PUSH2 0x2F87 DUP6 DUP3 DUP7 ADD PUSH2 0x2F91 JUMP JUMPDEST PUSH0 PUSH1 0x20 DUP3 DUP5 SUB SLT ISZERO PUSH2 0x2FFA JUMPI PUSH0 DUP1 REVERT JUMPDEST DUP2 CALLDATALOAD PUSH2 0xAD9 DUP2 PUSH2 0x2EC3 JUMP JUMPDEST PUSH0 DUP1 PUSH0 PUSH1 0x60 DUP5 DUP7 SUB SLT ISZERO PUSH2 0x3017 JUMPI PUSH0 DUP1 REVERT JUMPDEST DUP4 CALLDATALOAD PUSH1 0x1 PUSH1 0x1 PUSH1 0x40 SHL SUB DUP2 GT ISZERO PUSH2 0x302C JUMPI PUSH0 DUP1 REVERT JUMPDEST PUSH2 0x3038 DUP7 DUP3 DUP8 ADD PUSH2 0x2F91 JUMP JUMPDEST SWAP7 PUSH1 0x20 DUP7 ADD CALLDATALOAD SWAP7 POP PUSH1 0x40 SWAP1 SWAP6 ADD CALLDATALOAD SWAP5 SWAP4 POP POP POP POP JUMP JUMPDEST PUSH0 DUP1 DUP4 PUSH1 0x1F DUP5 ADD SLT PUSH2 0x305E JUMPI PUSH0 DUP1 REVERT JUMPDEST POP DUP2 CALLDATALOAD PUSH1 0x1 PUSH1 0x1 PUSH1 0x40 SHL SUB DUP2 GT ISZERO PUSH2 0x3074 JUMPI PUSH0 DUP1 REVERT JUMPDEST PUSH1 0x20 DUP4 ADD SWAP2 POP DUP4 PUSH1 0x20 DUP3 PUSH1 0x5 SHL DUP6 ADD ADD GT ISZERO PUSH2 0x27C9 JUMPI PUSH0 DUP1 REVERT JUMPDEST PUSH0 DUP1 PUSH0 DUP1 PUSH0 DUP1 PUSH1 0x60 DUP8 DUP10 SUB SLT ISZERO PUSH2 0x30A3 JUMPI PUSH0 DUP1 REVERT JUMPDEST DUP7 CALLDATALOAD PUSH1 0x1 PUSH1 0x1 PUSH1 0x40 SHL SUB DUP1 DUP3 GT ISZERO PUSH2 0x30B9 JUMPI PUSH0 DUP1 REVERT JUMPDEST PUSH2 0x30C5 DUP11 DUP4 DUP12 ADD PUSH2 0x304E JUMP JUMPDEST SWAP1 SWAP9 POP SWAP7 POP PUSH1 0x20 DUP10 ADD CALLDATALOAD SWAP2 POP DUP1 DUP3 GT ISZERO PUSH2 0x30DD JUMPI PUSH0 DUP1 REVERT JUMPDEST PUSH2 0x30E9 DUP11 DUP4 DUP12 ADD PUSH2 0x304E JUMP JUMPDEST SWAP1 SWAP7 POP SWAP5 POP PUSH1 0x40 DUP10 ADD CALLDATALOAD SWAP2 POP DUP1 DUP3 GT ISZERO PUSH2 0x3101 JUMPI PUSH0 DUP1 REVERT JUMPDEST POP PUSH2 0x310E DUP10 DUP3 DUP11 ADD PUSH2 0x304E JUMP JUMPDEST SWAP8 SWAP11 SWAP7 SWAP10 POP SWAP5 SWAP8 POP SWAP3 SWAP6 SWAP4 SWAP5 SWAP3 POP POP POP JUMP JUMPDEST PUSH0 DUP1 PUSH1 0x40 DUP4 DUP6 SUB SLT ISZERO PUSH2 0x3131 JUMPI PUSH0 DUP1 REVERT JUMPDEST DUP3 CALLDATALOAD PUSH2 0x313C DUP2 PUSH2 0x2EC3 JUMP JUMPDEST SWAP5 PUSH1 0x20 SWAP4 SWAP1 SWAP4 ADD CALLDATALOAD SWAP4 POP POP POP JUMP JUMPDEST PUSH0 DUP1 DUP4 PUSH1 0x1F DUP5 ADD SLT PUSH2 0x315A JUMPI PUSH0 DUP1 REVERT JUMPDEST POP DUP2 CALLDATALOAD PUSH1 0x1 PUSH1 0x1 PUSH1 0x40 SHL SUB DUP2 GT ISZERO PUSH2 0x3170 JUMPI PUSH0 DUP1 REVERT JUMPDEST PUSH1 0x20 DUP4 ADD SWAP2 POP DUP4 PUSH1 0x20 DUP3 DUP6 ADD ADD GT ISZERO PUSH2 0x27C9 JUMPI PUSH0 DUP1 REVERT JUMPDEST PUSH0 DUP1 PUSH0 PUSH1 0x40 DUP5 DUP7 SUB SLT ISZERO PUSH2 0x3199 JUMPI PUSH0 DUP1 REVERT JUMPDEST DUP4 CALLDATALOAD PUSH1 0x1 PUSH1 0x1 PUSH1 0x40 SHL SUB DUP1 DUP3 GT ISZERO PUSH2 0x31AF JUMPI PUSH0 DUP1 REVERT JUMPDEST SWAP1 DUP6 ADD SWAP1 PUSH2 0x120 DUP3 DUP9 SUB SLT ISZERO PUSH2 0x31C3 JUMPI PUSH0 DUP1 REVERT JUMPDEST SWAP1 SWAP4 POP PUSH1 0x20 DUP6 ADD CALLDATALOAD SWAP1 DUP1 DUP3 GT ISZERO PUSH2 0x31D8 JUMPI PUSH0 DUP1 REVERT JUMPDEST POP PUSH2 0x31E5 DUP7 DUP3 DUP8 ADD PUSH2 0x314A JUMP JUMPDEST SWAP5 SWAP8 SWAP1 SWAP7 POP SWAP4 SWAP5 POP POP POP POP JUMP JUMPDEST DUP1 MLOAD PUSH1 0x1 PUSH1 0x1 PUSH1 0xA0 SHL SUB SWAP1 DUP2 AND DUP4 MSTORE PUSH1 0x20 DUP1 DUP4 ADD MLOAD PUSH1 0xA0 DUP3 DUP7 ADD DUP2 SWAP1 MSTORE DUP2 MLOAD SWAP1 DUP7 ADD DUP2 SWAP1 MSTORE PUSH0 SWAP4 SWAP2 DUP4 ADD SWAP3 SWAP1 DUP5 SWAP1 PUSH1 0xC0 DUP9 ADD SWAP1 JUMPDEST DUP1 DUP4 LT ISZERO PUSH2 0x3248 JUMPI DUP6 MLOAD DUP6 AND DUP3 MSTORE SWAP5 DUP4 ADD SWAP5 PUSH1 0x1 SWAP3 SWAP1 SWAP3 ADD SWAP2 SWAP1 DUP4 ADD SWAP1 PUSH2 0x3226 JUMP JUMPDEST POP PUSH1 0x40 DUP8 ADD MLOAD PUSH1 0x40 DUP10 ADD MSTORE PUSH1 0x60 DUP8 ADD MLOAD SWAP5 POP PUSH2 0x326F PUSH1 0x60 DUP10 ADD DUP7 PUSH1 0x1 PUSH1 0x1 PUSH1 0x80 SHL SUB AND SWAP1 MSTORE JUMP JUMPDEST PUSH1 0x80 DUP8 ADD MLOAD SWAP5 POP PUSH2 0x328B PUSH1 0x80 DUP10 ADD DUP7 PUSH1 0x1 PUSH1 0x1 PUSH1 0x80 SHL SUB AND SWAP1 MSTORE JUMP JUMPDEST SWAP8 SWAP7 POP POP POP POP POP POP POP JUMP JUMPDEST PUSH0 PUSH1 0x20 DUP1 DUP4 ADD PUSH1 0x20 DUP5 MSTORE DUP1 DUP6 MLOAD DUP1 DUP4 MSTORE PUSH1 0x40 DUP7 ADD SWAP2 POP PUSH1 0x40 DUP2 PUSH1 0x5 SHL DUP8 ADD ADD SWAP3 POP PUSH1 0x20 DUP8 ADD PUSH0 JUMPDEST DUP3 DUP2 LT ISZERO PUSH2 0x32EB JUMPI PUSH1 0x3F NOT DUP9 DUP7 SUB ADD DUP5 MSTORE PUSH2 0x32D9 DUP6 DUP4 MLOAD PUSH2 0x31F2 JUMP JUMPDEST SWAP5 POP SWAP3 DUP6 ADD SWAP3 SWAP1 DUP6 ADD SWAP1 PUSH1 0x1 ADD PUSH2 0x32BD JUMP JUMPDEST POP SWAP3 SWAP8 SWAP7 POP POP POP POP POP POP POP JUMP JUMPDEST PUSH0 PUSH1 0x20 DUP3 DUP5 SUB SLT ISZERO PUSH2 0x3308 JUMPI PUSH0 DUP1 REVERT JUMPDEST DUP2 CALLDATALOAD PUSH1 0x1 PUSH1 0x1 PUSH1 0x40 SHL SUB DUP2 GT ISZERO PUSH2 0x331D JUMPI PUSH0 DUP1 REVERT JUMPDEST DUP3 ADD PUSH1 0x1F DUP2 ADD DUP5 SGT PUSH2 0x332D JUMPI PUSH0 DUP1 REVERT JUMPDEST PUSH2 0x69B DUP5 DUP3 CALLDATALOAD PUSH1 0x20 DUP5 ADD PUSH2 0x2E20 JUMP JUMPDEST PUSH0 DUP1 PUSH1 0x20 DUP4 DUP6 SUB SLT ISZERO PUSH2 0x334D JUMPI PUSH0 DUP1 REVERT JUMPDEST DUP3 CALLDATALOAD PUSH1 0x1 PUSH1 0x1 PUSH1 0x40 SHL SUB DUP2 GT ISZERO PUSH2 0x3362 JUMPI PUSH0 DUP1 REVERT JUMPDEST PUSH2 0x336E DUP6 DUP3 DUP7 ADD PUSH2 0x304E JUMP JUMPDEST SWAP1 SWAP7 SWAP1 SWAP6 POP SWAP4 POP POP POP POP JUMP JUMPDEST PUSH0 JUMPDEST DUP4 DUP2 LT ISZERO PUSH2 0x3394 JUMPI DUP2 DUP2 ADD MLOAD DUP4 DUP3 ADD MSTORE PUSH1 0x20 ADD PUSH2 0x337C JUMP JUMPDEST POP POP PUSH0 SWAP2 ADD MSTORE JUMP JUMPDEST PUSH0 DUP2 MLOAD DUP1 DUP5 MSTORE PUSH2 0x33B3 DUP2 PUSH1 0x20 DUP7 ADD PUSH1 0x20 DUP7 ADD PUSH2 0x337A JUMP JUMPDEST PUSH1 0x1F ADD PUSH1 0x1F NOT AND SWAP3 SWAP1 SWAP3 ADD PUSH1 0x20 ADD SWAP3 SWAP2 POP POP JUMP JUMPDEST PUSH0 PUSH1 0x20 DUP1 DUP4 ADD PUSH1 0x20 DUP5 MSTORE DUP1 DUP6 MLOAD DUP1 DUP4 MSTORE PUSH1 0x40 DUP7 ADD SWAP2 POP PUSH1 0x40 DUP2 PUSH1 0x5 SHL DUP8 ADD ADD SWAP3 POP PUSH1 0x20 DUP8 ADD PUSH0 JUMPDEST DUP3 DUP2 LT ISZERO PUSH2 0x32EB JUMPI PUSH1 0x3F NOT DUP9 DUP7 SUB ADD DUP5 MSTORE PUSH2 0x340A DUP6 DUP4 MLOAD PUSH2 0x339C JUMP JUMPDEST SWAP5 POP SWAP3 DUP6 ADD SWAP3 SWAP1 DUP6 ADD SWAP1 PUSH1 0x1 ADD PUSH2 0x33EE JUMP JUMPDEST PUSH0 DUP1 PUSH0 DUP1 PUSH1 0x60 DUP6 DUP8 SUB SLT ISZERO PUSH2 0x342F JUMPI PUSH0 DUP1 REVERT JUMPDEST DUP5 CALLDATALOAD PUSH2 0x343A DUP2 PUSH2 0x2EC3 JUMP JUMPDEST SWAP4 POP PUSH1 0x20 DUP6 ADD CALLDATALOAD SWAP3 POP PUSH1 0x40 DUP6 ADD CALLDATALOAD PUSH1 0x1 PUSH1 0x1 PUSH1 0x40 SHL SUB DUP2 GT ISZERO PUSH2 0x345B JUMPI PUSH0 DUP1 REVERT JUMPDEST PUSH2 0x3467 DUP8 DUP3 DUP9 ADD PUSH2 0x314A JUMP JUMPDEST SWAP6 SWAP9 SWAP5 SWAP8 POP SWAP6 POP POP POP POP JUMP JUMPDEST PUSH0 PUSH1 0x1 PUSH1 0x1 PUSH1 0x40 SHL SUB DUP3 GT ISZERO PUSH2 0x348B JUMPI PUSH2 0x348B PUSH2 0x2DDC JUMP JUMPDEST POP PUSH1 0x5 SHL PUSH1 0x20 ADD SWAP1 JUMP JUMPDEST PUSH0 DUP3 PUSH1 0x1F DUP4 ADD SLT PUSH2 0x34A4 JUMPI PUSH0 DUP1 REVERT JUMPDEST DUP2 CALLDATALOAD PUSH1 0x20 PUSH2 0x34B9 PUSH2 0x34B4 DUP4 PUSH2 0x3473 JUMP JUMPDEST PUSH2 0x2DF0 JUMP JUMPDEST DUP1 DUP4 DUP3 MSTORE PUSH1 0x20 DUP3 ADD SWAP2 POP PUSH1 0x20 DUP5 PUSH1 0x5 SHL DUP8 ADD ADD SWAP4 POP DUP7 DUP5 GT ISZERO PUSH2 0x34DA JUMPI PUSH0 DUP1 REVERT JUMPDEST PUSH1 0x20 DUP7 ADD JUMPDEST DUP5 DUP2 LT ISZERO PUSH2 0x34F6 JUMPI DUP1 CALLDATALOAD DUP4 MSTORE SWAP2 DUP4 ADD SWAP2 DUP4 ADD PUSH2 0x34DF JUMP JUMPDEST POP SWAP7 SWAP6 POP POP POP POP POP POP JUMP JUMPDEST PUSH0 DUP1 PUSH0 DUP1 PUSH0 PUSH1 0xA0 DUP7 DUP9 SUB SLT ISZERO PUSH2 0x3515 JUMPI PUSH0 DUP1 REVERT JUMPDEST DUP6 CALLDATALOAD PUSH2 0x3520 DUP2 PUSH2 0x2EC3 JUMP JUMPDEST SWAP5 POP PUSH1 0x20 DUP7 ADD CALLDATALOAD PUSH2 0x3530 DUP2 PUSH2 0x2EC3 JUMP JUMPDEST SWAP4 POP PUSH1 0x40 DUP7 ADD CALLDATALOAD PUSH1 0x1 PUSH1 0x1 PUSH1 0x40 SHL SUB DUP1 DUP3 GT ISZERO PUSH2 0x354B JUMPI PUSH0 DUP1 REVERT JUMPDEST PUSH2 0x3557 DUP10 DUP4 DUP11 ADD PUSH2 0x3495 JUMP JUMPDEST SWAP5 POP PUSH1 0x60 DUP9 ADD CALLDATALOAD SWAP2 POP DUP1 DUP3 GT ISZERO PUSH2 0x356C JUMPI PUSH0 DUP1 REVERT JUMPDEST PUSH2 0x3578 DUP10 DUP4 DUP11 ADD PUSH2 0x3495 JUMP JUMPDEST SWAP4 POP PUSH1 0x80 DUP9 ADD CALLDATALOAD SWAP2 POP DUP1 DUP3 GT ISZERO PUSH2 0x358D JUMPI PUSH0 DUP1 REVERT JUMPDEST POP PUSH2 0x359A DUP9 DUP3 DUP10 ADD PUSH2 0x2E74 JUMP JUMPDEST SWAP2 POP POP SWAP3 SWAP6 POP SWAP3 SWAP6 SWAP1 SWAP4 POP JUMP JUMPDEST PUSH0 DUP1 PUSH0 PUSH1 0x40 DUP5 DUP7 SUB SLT ISZERO PUSH2 0x35B9 JUMPI PUSH0 DUP1 REVERT JUMPDEST DUP4 CALLDATALOAD PUSH2 0x35C4 DUP2 PUSH2 0x2EC3 JUMP JUMPDEST SWAP3 POP PUSH1 0x20 DUP5 ADD CALLDATALOAD PUSH1 0x1 PUSH1 0x1 PUSH1 0x40 SHL SUB DUP2 GT ISZERO PUSH2 0x35DE JUMPI PUSH0 DUP1 REVERT JUMPDEST PUSH2 0x31E5 DUP7 DUP3 DUP8 ADD PUSH2 0x314A JUMP JUMPDEST PUSH1 0x20 DUP2 MSTORE PUSH0 PUSH2 0xAD9 PUSH1 0x20 DUP4 ADD DUP5 PUSH2 0x339C JUMP JUMPDEST PUSH1 0x20 DUP1 DUP3 MSTORE DUP3 MLOAD DUP3 DUP3 ADD DUP2 SWAP1 MSTORE PUSH0 SWAP2 SWAP1 DUP5 DUP3 ADD SWAP1 PUSH1 0x40 DUP6 ADD SWAP1 DUP5 JUMPDEST DUP2 DUP2 LT ISZERO PUSH2 0x363C JUMPI DUP4 MLOAD PUSH1 0x1 PUSH1 0x1 PUSH1 0xA0 SHL SUB AND DUP4 MSTORE SWAP3 DUP5 ADD SWAP3 SWAP2 DUP5 ADD SWAP2 PUSH1 0x1 ADD PUSH2 0x3617 JUMP JUMPDEST POP SWAP1 SWAP7 SWAP6 POP POP POP POP POP POP JUMP JUMPDEST PUSH1 0x20 DUP2 MSTORE PUSH0 PUSH2 0xAD9 PUSH1 0x20 DUP4 ADD DUP5 PUSH2 0x31F2 JUMP JUMPDEST PUSH0 DUP1 PUSH0 DUP1 PUSH0 PUSH1 0xA0 DUP7 DUP9 SUB SLT ISZERO PUSH2 0x366E JUMPI PUSH0 DUP1 REVERT JUMPDEST DUP6 CALLDATALOAD PUSH2 0x3679 DUP2 PUSH2 0x2EC3 JUMP JUMPDEST SWAP5 POP PUSH1 0x20 DUP7 ADD CALLDATALOAD PUSH2 0x3689 DUP2 PUSH2 0x2EC3 JUMP JUMPDEST SWAP4 POP PUSH1 0x40 DUP7 ADD CALLDATALOAD SWAP3 POP PUSH1 0x60 DUP7 ADD CALLDATALOAD SWAP2 POP PUSH1 0x80 DUP7 ADD CALLDATALOAD PUSH1 0x1 PUSH1 0x1 PUSH1 0x40 SHL SUB DUP2 GT ISZERO PUSH2 0x36B1 JUMPI PUSH0 DUP1 REVERT JUMPDEST PUSH2 0x359A DUP9 DUP3 DUP10 ADD PUSH2 0x2E74 JUMP JUMPDEST PUSH0 DUP1 DUP4 CALLDATALOAD PUSH1 0x1E NOT DUP5 CALLDATASIZE SUB ADD DUP2 SLT PUSH2 0x36D2 JUMPI PUSH0 DUP1 REVERT JUMPDEST DUP4 ADD DUP1 CALLDATALOAD SWAP2 POP PUSH1 0x1 PUSH1 0x1 PUSH1 0x40 SHL SUB DUP3 GT ISZERO PUSH2 0x36EB JUMPI PUSH0 DUP1 REVERT JUMPDEST PUSH1 0x20 ADD SWAP2 POP CALLDATASIZE DUP2 SWAP1 SUB DUP3 SGT ISZERO PUSH2 0x27C9 JUMPI PUSH0 DUP1 REVERT JUMPDEST PUSH4 0x4E487B71 PUSH1 0xE0 SHL PUSH0 MSTORE PUSH1 0x32 PUSH1 0x4 MSTORE PUSH1 0x24 PUSH0 REVERT JUMPDEST PUSH1 0x20 DUP1 DUP3 MSTORE PUSH1 0x21 SWAP1 DUP3 ADD MSTORE PUSH32 0x4163636F756E743A206E6F742061646D696E206F7220456E747279506F696E74 PUSH1 0x40 DUP3 ADD MSTORE PUSH1 0x17 PUSH1 0xF9 SHL PUSH1 0x60 DUP3 ADD MSTORE PUSH1 0x80 ADD SWAP1 JUMP JUMPDEST DUP1 CALLDATALOAD PUSH1 0x1 PUSH1 0x1 PUSH1 0x80 SHL SUB DUP2 AND DUP2 EQ PUSH2 0x2EE2 JUMPI PUSH0 DUP1 REVERT JUMPDEST PUSH0 PUSH1 0x20 DUP3 DUP5 SUB SLT ISZERO PUSH2 0x377A JUMPI PUSH0 DUP1 REVERT JUMPDEST PUSH2 0xAD9 DUP3 PUSH2 0x3754 JUMP JUMPDEST DUP1 CALLDATALOAD PUSH1 0xFF DUP2 AND DUP2 EQ PUSH2 0x2EE2 JUMPI PUSH0 DUP1 REVERT JUMPDEST PUSH0 PUSH1 0x20 DUP3 DUP5 SUB SLT ISZERO PUSH2 0x37A3 JUMPI PUSH0 DUP1 REVERT JUMPDEST PUSH2 0xAD9 DUP3 PUSH2 0x3783 JUMP JUMPDEST PUSH4 0x4E487B71 PUSH1 0xE0 SHL PUSH0 MSTORE PUSH1 0x11 PUSH1 0x4 MSTORE PUSH1 0x24 PUSH0 REVERT JUMPDEST DUP1 DUP3 ADD DUP1 DUP3 GT ISZERO PUSH2 0x5E9 JUMPI PUSH2 0x5E9 PUSH2 0x37AC JUMP JUMPDEST PUSH0 DUP1 DUP4 CALLDATALOAD PUSH1 0x1E NOT DUP5 CALLDATASIZE SUB ADD DUP2 SLT PUSH2 0x37E8 JUMPI PUSH0 DUP1 REVERT JUMPDEST DUP4 ADD DUP1 CALLDATALOAD SWAP2 POP PUSH1 0x1 PUSH1 0x1 PUSH1 0x40 SHL SUB DUP3 GT ISZERO PUSH2 0x3801 JUMPI PUSH0 DUP1 REVERT JUMPDEST PUSH1 0x20 ADD SWAP2 POP PUSH1 0x5 DUP2 SWAP1 SHL CALLDATASIZE SUB DUP3 SGT ISZERO PUSH2 0x27C9 JUMPI PUSH0 DUP1 REVERT JUMPDEST PUSH0 DUP1 DUP4 CALLDATALOAD PUSH1 0x1E NOT DUP5 CALLDATASIZE SUB ADD DUP2 SLT PUSH2 0x382D JUMPI PUSH0 DUP1 REVERT JUMPDEST DUP4 ADD PUSH1 0x20 DUP2 ADD SWAP3 POP CALLDATALOAD SWAP1 POP PUSH1 0x1 PUSH1 0x1 PUSH1 0x40 SHL SUB DUP2 GT ISZERO PUSH2 0x384B JUMPI PUSH0 DUP1 REVERT JUMPDEST DUP1 PUSH1 0x5 SHL CALLDATASIZE SUB DUP3 SGT ISZERO PUSH2 0x27C9 JUMPI PUSH0 DUP1 REVERT JUMPDEST DUP2 DUP4 MSTORE PUSH0 PUSH1 0x20 DUP1 DUP6 ADD SWAP5 POP DUP3 PUSH0 JUMPDEST DUP6 DUP2 LT ISZERO PUSH2 0x3898 JUMPI DUP2 CALLDATALOAD PUSH2 0x387D DUP2 PUSH2 0x2EC3 JUMP JUMPDEST PUSH1 0x1 PUSH1 0x1 PUSH1 0xA0 SHL SUB AND DUP8 MSTORE SWAP6 DUP3 ADD SWAP6 SWAP1 DUP3 ADD SWAP1 PUSH1 0x1 ADD PUSH2 0x386A JUMP JUMPDEST POP SWAP5 SWAP6 SWAP5 POP POP POP POP POP JUMP JUMPDEST PUSH1 0x20 DUP2 MSTORE PUSH2 0x38C4 PUSH1 0x20 DUP3 ADD PUSH2 0x38B7 DUP5 PUSH2 0x2ED7 JUMP JUMPDEST PUSH1 0x1 PUSH1 0x1 PUSH1 0xA0 SHL SUB AND SWAP1 MSTORE JUMP JUMPDEST PUSH0 PUSH2 0x38D1 PUSH1 0x20 DUP5 ADD PUSH2 0x3783 JUMP JUMPDEST PUSH1 0xFF DUP2 AND PUSH1 0x40 DUP5 ADD MSTORE POP PUSH2 0x38E8 PUSH1 0x40 DUP5 ADD DUP5 PUSH2 0x3818 JUMP JUMPDEST PUSH2 0x120 DUP1 PUSH1 0x60 DUP7 ADD MSTORE PUSH2 0x3900 PUSH2 0x140 DUP7 ADD DUP4 DUP6 PUSH2 0x385C JUMP JUMPDEST SWAP3 POP PUSH1 0x60 DUP7 ADD CALLDATALOAD PUSH1 0x80 DUP7 ADD MSTORE PUSH2 0x3918 PUSH1 0x80 DUP8 ADD PUSH2 0x3754 JUMP JUMPDEST PUSH1 0x1 PUSH1 0x1 PUSH1 0x80 SHL SUB DUP2 AND PUSH1 0xA0 DUP8 ADD MSTORE SWAP2 POP PUSH2 0x3935 PUSH1 0xA0 DUP8 ADD PUSH2 0x3754 JUMP JUMPDEST PUSH1 0x1 PUSH1 0x1 PUSH1 0x80 SHL SUB DUP2 AND PUSH1 0xC0 DUP8 ADD MSTORE SWAP2 POP PUSH2 0x3952 PUSH1 0xC0 DUP8 ADD PUSH2 0x3754 JUMP JUMPDEST PUSH1 0x1 PUSH1 0x1 PUSH1 0x80 SHL SUB DUP2 AND PUSH1 0xE0 DUP8 ADD MSTORE SWAP2 POP PUSH2 0x396F PUSH1 0xE0 DUP8 ADD PUSH2 0x3754 JUMP JUMPDEST SWAP2 POP PUSH2 0x100 PUSH2 0x3988 DUP2 DUP8 ADD DUP5 PUSH1 0x1 PUSH1 0x1 PUSH1 0x80 SHL SUB AND SWAP1 MSTORE JUMP JUMPDEST SWAP6 SWAP1 SWAP6 ADD CALLDATALOAD SWAP4 SWAP1 SWAP5 ADD SWAP3 SWAP1 SWAP3 MSTORE POP SWAP2 SWAP1 POP JUMP JUMPDEST PUSH0 PUSH1 0x1 DUP3 ADD PUSH2 0x39AC JUMPI PUSH2 0x39AC PUSH2 0x37AC JUMP JUMPDEST POP PUSH1 0x1 ADD SWAP1 JUMP JUMPDEST DUP3 DUP5 DUP3 CALLDATACOPY PUSH1 0x60 SWAP2 SWAP1 SWAP2 SHL PUSH12 0xFFFFFFFFFFFFFFFFFFFFFFFF NOT AND SWAP2 ADD SWAP1 DUP2 MSTORE PUSH1 0x14 ADD SWAP2 SWAP1 POP JUMP JUMPDEST PUSH0 PUSH1 0x20 DUP3 DUP5 SUB SLT ISZERO PUSH2 0x39E9 JUMPI PUSH0 DUP1 REVERT JUMPDEST POP MLOAD SWAP2 SWAP1 POP JUMP JUMPDEST PUSH1 0x1 DUP2 DUP2 SHR SWAP1 DUP3 AND DUP1 PUSH2 0x3A04 JUMPI PUSH1 0x7F DUP3 AND SWAP2 POP JUMPDEST PUSH1 0x20 DUP3 LT DUP2 SUB PUSH2 0x2FA2 JUMPI PUSH4 0x4E487B71 PUSH1 0xE0 SHL PUSH0 MSTORE PUSH1 0x22 PUSH1 0x4 MSTORE PUSH1 0x24 PUSH0 REVERT JUMPDEST PUSH1 0x20 DUP1 DUP3 MSTORE PUSH1 0x5 SWAP1 DUP3 ADD MSTORE PUSH5 0x2144617461 PUSH1 0xD8 SHL PUSH1 0x40 DUP3 ADD MSTORE PUSH1 0x60 ADD SWAP1 JUMP JUMPDEST PUSH0 DUP1 DUP6 DUP6 GT ISZERO PUSH2 0x3A4F JUMPI PUSH0 DUP1 REVERT JUMPDEST DUP4 DUP7 GT ISZERO PUSH2 0x3A5B JUMPI PUSH0 DUP1 REVERT JUMPDEST POP POP DUP3 ADD SWAP4 SWAP2 SWAP1 SWAP3 SUB SWAP2 POP JUMP JUMPDEST PUSH1 0x1 PUSH1 0x1 PUSH1 0xE0 SHL SUB NOT DUP2 CALLDATALOAD DUP2 DUP2 AND SWAP2 PUSH1 0x4 DUP6 LT ISZERO PUSH2 0x3A90 JUMPI DUP1 DUP2 DUP7 PUSH1 0x4 SUB PUSH1 0x3 SHL SHL DUP4 AND AND SWAP3 POP JUMPDEST POP POP SWAP3 SWAP2 POP POP JUMP JUMPDEST PUSH0 PUSH1 0x20 DUP3 DUP5 SUB SLT ISZERO PUSH2 0x3AA8 JUMPI PUSH0 DUP1 REVERT JUMPDEST POP CALLDATALOAD SWAP2 SWAP1 POP JUMP JUMPDEST PUSH0 DUP3 PUSH1 0x1F DUP4 ADD SLT PUSH2 0x3ABE JUMPI PUSH0 DUP1 REVERT JUMPDEST DUP2 CALLDATALOAD PUSH1 0x20 PUSH2 0x3ACE PUSH2 0x34B4 DUP4 PUSH2 0x3473 JUMP JUMPDEST DUP3 DUP2 MSTORE PUSH1 0x5 SWAP3 SWAP1 SWAP3 SHL DUP5 ADD DUP2 ADD SWAP2 DUP2 DUP2 ADD SWAP1 DUP7 DUP5 GT ISZERO PUSH2 0x3AEC JUMPI PUSH0 DUP1 REVERT JUMPDEST DUP3 DUP7 ADD JUMPDEST DUP5 DUP2 LT ISZERO PUSH2 0x34F6 JUMPI DUP1 CALLDATALOAD PUSH1 0x1 PUSH1 0x1 PUSH1 0x40 SHL SUB DUP2 GT ISZERO PUSH2 0x3B0D JUMPI PUSH0 DUP1 REVERT JUMPDEST PUSH2 0x3B1B DUP10 DUP7 DUP4 DUP12 ADD ADD PUSH2 0x2E74 JUMP JUMPDEST DUP5 MSTORE POP SWAP2 DUP4 ADD SWAP2 DUP4 ADD PUSH2 0x3AF0 JUMP JUMPDEST PUSH0 DUP1 PUSH0 PUSH1 0x60 DUP5 DUP7 SUB SLT ISZERO PUSH2 0x3B3B JUMPI PUSH0 DUP1 REVERT JUMPDEST DUP4 CALLDATALOAD PUSH1 0x1 PUSH1 0x1 PUSH1 0x40 SHL SUB DUP1 DUP3 GT ISZERO PUSH2 0x3B51 JUMPI PUSH0 DUP1 REVERT JUMPDEST DUP2 DUP7 ADD SWAP2 POP DUP7 PUSH1 0x1F DUP4 ADD SLT PUSH2 0x3B64 JUMPI PUSH0 DUP1 REVERT JUMPDEST DUP2 CALLDATALOAD PUSH1 0x20 PUSH2 0x3B74 PUSH2 0x34B4 DUP4 PUSH2 0x3473 JUMP JUMPDEST DUP3 DUP2 MSTORE PUSH1 0x5 SWAP3 SWAP1 SWAP3 SHL DUP5 ADD DUP2 ADD SWAP2 DUP2 DUP2 ADD SWAP1 DUP11 DUP5 GT ISZERO PUSH2 0x3B92 JUMPI PUSH0 DUP1 REVERT JUMPDEST SWAP5 DUP3 ADD SWAP5 JUMPDEST DUP4 DUP7 LT ISZERO PUSH2 0x3BB9 JUMPI DUP6 CALLDATALOAD PUSH2 0x3BAA DUP2 PUSH2 0x2EC3 JUMP JUMPDEST DUP3 MSTORE SWAP5 DUP3 ADD SWAP5 SWAP1 DUP3 ADD SWAP1 PUSH2 0x3B97 JUMP JUMPDEST SWAP8 POP POP DUP8 ADD CALLDATALOAD SWAP3 POP POP DUP1 DUP3 GT ISZERO PUSH2 0x3BCE JUMPI PUSH0 DUP1 REVERT JUMPDEST PUSH2 0x3BDA DUP8 DUP4 DUP9 ADD PUSH2 0x3495 JUMP JUMPDEST SWAP4 POP PUSH1 0x40 DUP7 ADD CALLDATALOAD SWAP2 POP DUP1 DUP3 GT ISZERO PUSH2 0x3BEF JUMPI PUSH0 DUP1 REVERT JUMPDEST POP PUSH2 0x3BFC DUP7 DUP3 DUP8 ADD PUSH2 0x3AAF JUMP JUMPDEST SWAP2 POP POP SWAP3 POP SWAP3 POP SWAP3 JUMP JUMPDEST PUSH0 PUSH1 0x20 DUP3 DUP5 SUB SLT ISZERO PUSH2 0x3C16 JUMPI PUSH0 DUP1 REVERT JUMPDEST DUP2 MLOAD DUP1 ISZERO ISZERO DUP2 EQ PUSH2 0xAD9 JUMPI PUSH0 DUP1 REVERT JUMPDEST PUSH0 DUP3 MLOAD PUSH2 0x3C36 DUP2 DUP5 PUSH1 0x20 DUP8 ADD PUSH2 0x337A JUMP JUMPDEST SWAP2 SWAP1 SWAP2 ADD SWAP3 SWAP2 POP POP JUMP JUMPDEST PUSH1 0x1F DUP3 GT ISZERO PUSH2 0x3C84 JUMPI DUP1 PUSH0 MSTORE PUSH1 0x20 PUSH0 KECCAK256 PUSH1 0x1F DUP5 ADD PUSH1 0x5 SHR DUP2 ADD PUSH1 0x20 DUP6 LT ISZERO PUSH2 0x3C65 JUMPI POP DUP1 JUMPDEST PUSH1 0x1F DUP5 ADD PUSH1 0x5 SHR DUP3 ADD SWAP2 POP JUMPDEST DUP2 DUP2 LT ISZERO PUSH2 0xCA1 JUMPI PUSH0 DUP2 SSTORE PUSH1 0x1 ADD PUSH2 0x3C71 JUMP JUMPDEST POP POP POP JUMP JUMPDEST DUP2 MLOAD PUSH1 0x1 PUSH1 0x1 PUSH1 0x40 SHL SUB DUP2 GT ISZERO PUSH2 0x3CA2 JUMPI PUSH2 0x3CA2 PUSH2 0x2DDC JUMP JUMPDEST PUSH2 0x3CB6 DUP2 PUSH2 0x3CB0 DUP5 SLOAD PUSH2 0x39F0 JUMP JUMPDEST DUP5 PUSH2 0x3C40 JUMP JUMPDEST PUSH1 0x20 DUP1 PUSH1 0x1F DUP4 GT PUSH1 0x1 DUP2 EQ PUSH2 0x3CE9 JUMPI PUSH0 DUP5 ISZERO PUSH2 0x3CD2 JUMPI POP DUP6 DUP4 ADD MLOAD JUMPDEST PUSH0 NOT PUSH1 0x3 DUP7 SWAP1 SHL SHR NOT AND PUSH1 0x1 DUP6 SWAP1 SHL OR DUP6 SSTORE PUSH2 0xD14 JUMP JUMPDEST PUSH0 DUP6 DUP2 MSTORE PUSH1 0x20 DUP2 KECCAK256 PUSH1 0x1F NOT DUP7 AND SWAP2 JUMPDEST DUP3 DUP2 LT ISZERO PUSH2 0x3D17 JUMPI DUP9 DUP7 ADD MLOAD DUP3 SSTORE SWAP5 DUP5 ADD SWAP5 PUSH1 0x1 SWAP1 SWAP2 ADD SWAP1 DUP5 ADD PUSH2 0x3CF8 JUMP JUMPDEST POP DUP6 DUP3 LT ISZERO PUSH2 0x3D34 JUMPI DUP8 DUP6 ADD MLOAD PUSH0 NOT PUSH1 0x3 DUP9 SWAP1 SHL PUSH1 0xF8 AND SHR NOT AND DUP2 SSTORE JUMPDEST POP POP POP POP POP PUSH1 0x1 SWAP1 DUP2 SHL ADD SWAP1 SSTORE POP JUMP JUMPDEST PUSH1 0x40 DUP2 MSTORE PUSH0 PUSH2 0x3D56 PUSH1 0x40 DUP4 ADD DUP6 PUSH2 0x339C JUMP JUMPDEST DUP3 DUP2 SUB PUSH1 0x20 DUP5 ADD MSTORE PUSH2 0x3D68 DUP2 DUP6 PUSH2 0x339C JUMP JUMPDEST SWAP6 SWAP5 POP POP POP POP POP JUMP JUMPDEST PUSH0 DUP2 DUP5 DUP3 JUMPDEST DUP6 DUP2 LT ISZERO PUSH2 0x3DA7 JUMPI DUP2 CALLDATALOAD PUSH2 0x3D89 DUP2 PUSH2 0x2EC3 JUMP JUMPDEST PUSH1 0x1 PUSH1 0x1 PUSH1 0xA0 SHL SUB AND DUP4 MSTORE PUSH1 0x20 SWAP3 DUP4 ADD SWAP3 SWAP2 SWAP1 SWAP2 ADD SWAP1 PUSH1 0x1 ADD PUSH2 0x3D76 JUMP JUMPDEST POP SWAP1 SWAP6 SWAP5 POP POP POP POP POP JUMP JUMPDEST PUSH1 0x1 PUSH1 0x1 PUSH1 0xA0 SHL SUB DUP4 AND DUP2 MSTORE PUSH1 0x40 PUSH1 0x20 DUP3 ADD DUP2 SWAP1 MSTORE PUSH0 SWAP1 PUSH2 0x69B SWAP1 DUP4 ADD DUP5 PUSH2 0x339C JUMP JUMPDEST PUSH4 0x4E487B71 PUSH1 0xE0 SHL PUSH0 MSTORE PUSH1 0x21 PUSH1 0x4 MSTORE PUSH1 0x24 PUSH0 REVERT JUMPDEST DUP2 DUP2 SUB DUP2 DUP2 GT ISZERO PUSH2 0x5E9 JUMPI PUSH2 0x5E9 PUSH2 0x37AC JUMP JUMPDEST PUSH4 0x4E487B71 PUSH1 0xE0 SHL PUSH0 MSTORE PUSH1 0x31 PUSH1 0x4 MSTORE PUSH1 0x24 PUSH0 REVERT INVALID SUB PUSH16 0x52C1827DAB135F7FD44CA0BDDDE297E2 0xF6 MSIZE 0xC7 LT 0xE0 0xEC MSTORE8 0xE9 PUSH22 0xF22B548301322CF19C484104D3B1A9C2982EBAE869ED 0xE3 STATICCALL PUSH0 PUSH13 0x4703CA41B9A48C76EE03004164 PUSH5 0x726573733A KECCAK256 PUSH13 0x6F772D6C6576656C2064656C65 PUSH8 0x6174652063616C6C KECCAK256 PUSH7 0x61696C6564A264 PUSH10 0x70667358221220F581BD SWAP15 0xDF 0x26 0xEB 0x28 MSIZE 0xB4 0xCB SWAP5 0x4E JUMPDEST 0xCA STOP 0xC5 ADDRESS AND 0xA7 0xF9 0xEE PUSH28 0xA770365B1D3DD5CC0664736F6C634300081600330000000000000000 "
		},
		"gasEstimates": {
			"creation": {
				"codeDepositCost": "3209000",
				"executionCost": "infinite",
				"totalCost": "infinite"
			},
			"external": {
				"addDeposit()": "infinite",
				"contractURI()": "infinite",
				"entryPoint()": "infinite",
				"execute(address,uint256,bytes)": "infinite",
				"executeBatch(address[],uint256[],bytes[])": "infinite",
				"factory()": "infinite",
				"getAllActiveSigners()": "infinite",
				"getAllAdmins()": "infinite",
				"getAllSigners()": "infinite",
				"getMessageHash(bytes)": "infinite",
				"getNonce()": "infinite",
				"getPermissionsForSigner(address)": "infinite",
				"initialize(address,bytes)": "infinite",
				"isActiveSigner(address)": "infinite",
				"isAdmin(address)": "2683",
				"isValidSignature(bytes32,bytes)": "infinite",
				"isValidSigner(address,(address,uint256,bytes,bytes,uint256,uint256,uint256,uint256,uint256,bytes,bytes))": "infinite",
				"multicall(bytes[])": "infinite",
				"onERC1155BatchReceived(address,address,uint256[],uint256[],bytes)": "infinite",
				"onERC1155Received(address,address,uint256,uint256,bytes)": "infinite",
				"onERC721Received(address,address,uint256,bytes)": "infinite",
				"setContractURI(string)": "infinite",
				"setEntrypointOverride(address)": "26941",
				"setPermissionsForSigner((address,uint8,address[],uint256,uint128,uint128,uint128,uint128,bytes32),bytes)": "infinite",
				"supportsInterface(bytes4)": "infinite",
				"validateUserOp((address,uint256,bytes,bytes,uint256,uint256,uint256,uint256,uint256,bytes,bytes),bytes32,uint256)": "infinite",
				"verifySignerPermissionRequest((address,uint8,address[],uint256,uint128,uint128,uint128,uint128,bytes32),bytes)": "infinite",
				"withdrawDepositTo(address,uint256)": "infinite"
			},
			"internal": {
				"_call(address,uint256,bytes memory)": "infinite",
				"_canSetContractURI()": "2320",
				"_registerOnFactory()": "infinite"
			}
		},
		"methodIdentifiers": {
			"addDeposit()": "4a58db19",
			"contractURI()": "e8a3d485",
			"entryPoint()": "b0d691fe",
			"execute(address,uint256,bytes)": "b61d27f6",
			"executeBatch(address[],uint256[],bytes[])": "47e1da2a",
			"factory()": "c45a0155",
			"getAllActiveSigners()": "8b52d723",
			"getAllAdmins()": "e9523c97",
			"getAllSigners()": "d42f2f35",
			"getMessageHash(bytes)": "0a1028c4",
			"getNonce()": "d087d288",
			"getPermissionsForSigner(address)": "f15d424e",
			"initialize(address,bytes)": "d1f57894",
			"isActiveSigner(address)": "7dff5a79",
			"isAdmin(address)": "24d7806c",
			"isValidSignature(bytes32,bytes)": "1626ba7e",
			"isValidSigner(address,(address,uint256,bytes,bytes,uint256,uint256,uint256,uint256,uint256,bytes,bytes))": "1dd756c5",
			"multicall(bytes[])": "ac9650d8",
			"onERC1155BatchReceived(address,address,uint256[],uint256[],bytes)": "bc197c81",
			"onERC1155Received(address,address,uint256,uint256,bytes)": "f23a6e61",
			"onERC721Received(address,address,uint256,bytes)": "150b7a02",
			"setContractURI(string)": "938e3d7b",
			"setEntrypointOverride(address)": "b76464d5",
			"setPermissionsForSigner((address,uint8,address[],uint256,uint128,uint128,uint128,uint128,bytes32),bytes)": "5892e236",
			"supportsInterface(bytes4)": "01ffc9a7",
			"validateUserOp((address,uint256,bytes,bytes,uint256,uint256,uint256,uint256,uint256,bytes,bytes),bytes32,uint256)": "3a871cdd",
			"verifySignerPermissionRequest((address,uint8,address[],uint256,uint128,uint128,uint128,uint128,bytes32),bytes)": "a9082d84",
			"withdrawDepositTo(address,uint256)": "4d44560d"
		}
	},
	"abi": [
		{
			"inputs": [
				{
					"internalType": "contract IEntryPoint",
					"name": "_entrypoint",
					"type": "address"
				},
				{
					"internalType": "address",
					"name": "_factory",
					"type": "address"
				}
			],
			"stateMutability": "nonpayable",
			"type": "constructor"
		},
		{
			"anonymous": false,
			"inputs": [
				{
					"indexed": true,
					"internalType": "address",
					"name": "signer",
					"type": "address"
				},
				{
					"indexed": false,
					"internalType": "bool",
					"name": "isAdmin",
					"type": "bool"
				}
			],
			"name": "AdminUpdated",
			"type": "event"
		},
		{
			"anonymous": false,
			"inputs": [
				{
					"indexed": false,
					"internalType": "string",
					"name": "prevURI",
					"type": "string"
				},
				{
					"indexed": false,
					"internalType": "string",
					"name": "newURI",
					"type": "string"
				}
			],
			"name": "ContractURIUpdated",
			"type": "event"
		},
		{
			"anonymous": false,
			"inputs": [
				{
					"indexed": false,
					"internalType": "uint8",
					"name": "version",
					"type": "uint8"
				}
			],
			"name": "Initialized",
			"type": "event"
		},
		{
			"anonymous": false,
			"inputs": [
				{
					"indexed": true,
					"internalType": "address",
					"name": "authorizingSigner",
					"type": "address"
				},
				{
					"indexed": true,
					"internalType": "address",
					"name": "targetSigner",
					"type": "address"
				},
				{
					"components": [
						{
							"internalType": "address",
							"name": "signer",
							"type": "address"
						},
						{
							"internalType": "uint8",
							"name": "isAdmin",
							"type": "uint8"
						},
						{
							"internalType": "address[]",
							"name": "approvedTargets",
							"type": "address[]"
						},
						{
							"internalType": "uint256",
							"name": "nativeTokenLimitPerTransaction",
							"type": "uint256"
						},
						{
							"internalType": "uint128",
							"name": "permissionStartTimestamp",
							"type": "uint128"
						},
						{
							"internalType": "uint128",
							"name": "permissionEndTimestamp",
							"type": "uint128"
						},
						{
							"internalType": "uint128",
							"name": "reqValidityStartTimestamp",
							"type": "uint128"
						},
						{
							"internalType": "uint128",
							"name": "reqValidityEndTimestamp",
							"type": "uint128"
						},
						{
							"internalType": "bytes32",
							"name": "uid",
							"type": "bytes32"
						}
					],
					"indexed": false,
					"internalType": "struct IAccountPermissions.SignerPermissionRequest",
					"name": "permissions",
					"type": "tuple"
				}
			],
			"name": "SignerPermissionsUpdated",
			"type": "event"
		},
		{
			"inputs": [],
			"name": "addDeposit",
			"outputs": [],
			"stateMutability": "payable",
			"type": "function"
		},
		{
			"inputs": [],
			"name": "contractURI",
			"outputs": [
				{
					"internalType": "string",
					"name": "",
					"type": "string"
				}
			],
			"stateMutability": "view",
			"type": "function"
		},
		{
			"inputs": [],
			"name": "entryPoint",
			"outputs": [
				{
					"internalType": "contract IEntryPoint",
					"name": "",
					"type": "address"
				}
			],
			"stateMutability": "view",
			"type": "function"
		},
		{
			"inputs": [
				{
					"internalType": "address",
					"name": "_target",
					"type": "address"
				},
				{
					"internalType": "uint256",
					"name": "_value",
					"type": "uint256"
				},
				{
					"internalType": "bytes",
					"name": "_calldata",
					"type": "bytes"
				}
			],
			"name": "execute",
			"outputs": [],
			"stateMutability": "nonpayable",
			"type": "function"
		},
		{
			"inputs": [
				{
					"internalType": "address[]",
					"name": "_target",
					"type": "address[]"
				},
				{
					"internalType": "uint256[]",
					"name": "_value",
					"type": "uint256[]"
				},
				{
					"internalType": "bytes[]",
					"name": "_calldata",
					"type": "bytes[]"
				}
			],
			"name": "executeBatch",
			"outputs": [],
			"stateMutability": "nonpayable",
			"type": "function"
		},
		{
			"inputs": [],
			"name": "factory",
			"outputs": [
				{
					"internalType": "address",
					"name": "",
					"type": "address"
				}
			],
			"stateMutability": "view",
			"type": "function"
		},
		{
			"inputs": [],
			"name": "getAllActiveSigners",
			"outputs": [
				{
					"components": [
						{
							"internalType": "address",
							"name": "signer",
							"type": "address"
						},
						{
							"internalType": "address[]",
							"name": "approvedTargets",
							"type": "address[]"
						},
						{
							"internalType": "uint256",
							"name": "nativeTokenLimitPerTransaction",
							"type": "uint256"
						},
						{
							"internalType": "uint128",
							"name": "startTimestamp",
							"type": "uint128"
						},
						{
							"internalType": "uint128",
							"name": "endTimestamp",
							"type": "uint128"
						}
					],
					"internalType": "struct IAccountPermissions.SignerPermissions[]",
					"name": "signers",
					"type": "tuple[]"
				}
			],
			"stateMutability": "view",
			"type": "function"
		},
		{
			"inputs": [],
			"name": "getAllAdmins",
			"outputs": [
				{
					"internalType": "address[]",
					"name": "",
					"type": "address[]"
				}
			],
			"stateMutability": "view",
			"type": "function"
		},
		{
			"inputs": [],
			"name": "getAllSigners",
			"outputs": [
				{
					"components": [
						{
							"internalType": "address",
							"name": "signer",
							"type": "address"
						},
						{
							"internalType": "address[]",
							"name": "approvedTargets",
							"type": "address[]"
						},
						{
							"internalType": "uint256",
							"name": "nativeTokenLimitPerTransaction",
							"type": "uint256"
						},
						{
							"internalType": "uint128",
							"name": "startTimestamp",
							"type": "uint128"
						},
						{
							"internalType": "uint128",
							"name": "endTimestamp",
							"type": "uint128"
						}
					],
					"internalType": "struct IAccountPermissions.SignerPermissions[]",
					"name": "signers",
					"type": "tuple[]"
				}
			],
			"stateMutability": "view",
			"type": "function"
		},
		{
			"inputs": [
				{
					"internalType": "bytes",
					"name": "message",
					"type": "bytes"
				}
			],
			"name": "getMessageHash",
			"outputs": [
				{
					"internalType": "bytes32",
					"name": "",
					"type": "bytes32"
				}
			],
			"stateMutability": "view",
			"type": "function"
		},
		{
			"inputs": [],
			"name": "getNonce",
			"outputs": [
				{
					"internalType": "uint256",
					"name": "",
					"type": "uint256"
				}
			],
			"stateMutability": "view",
			"type": "function"
		},
		{
			"inputs": [
				{
					"internalType": "address",
					"name": "signer",
					"type": "address"
				}
			],
			"name": "getPermissionsForSigner",
			"outputs": [
				{
					"components": [
						{
							"internalType": "address",
							"name": "signer",
							"type": "address"
						},
						{
							"internalType": "address[]",
							"name": "approvedTargets",
							"type": "address[]"
						},
						{
							"internalType": "uint256",
							"name": "nativeTokenLimitPerTransaction",
							"type": "uint256"
						},
						{
							"internalType": "uint128",
							"name": "startTimestamp",
							"type": "uint128"
						},
						{
							"internalType": "uint128",
							"name": "endTimestamp",
							"type": "uint128"
						}
					],
					"internalType": "struct IAccountPermissions.SignerPermissions",
					"name": "",
					"type": "tuple"
				}
			],
			"stateMutability": "view",
			"type": "function"
		},
		{
			"inputs": [
				{
					"internalType": "address",
					"name": "_defaultAdmin",
					"type": "address"
				},
				{
					"internalType": "bytes",
					"name": "_data",
					"type": "bytes"
				}
			],
			"name": "initialize",
			"outputs": [],
			"stateMutability": "nonpayable",
			"type": "function"
		},
		{
			"inputs": [
				{
					"internalType": "address",
					"name": "signer",
					"type": "address"
				}
			],
			"name": "isActiveSigner",
			"outputs": [
				{
					"internalType": "bool",
					"name": "",
					"type": "bool"
				}
			],
			"stateMutability": "view",
			"type": "function"
		},
		{
			"inputs": [
				{
					"internalType": "address",
					"name": "_account",
					"type": "address"
				}
			],
			"name": "isAdmin",
			"outputs": [
				{
					"internalType": "bool",
					"name": "",
					"type": "bool"
				}
			],
			"stateMutability": "view",
			"type": "function"
		},
		{
			"inputs": [
				{
					"internalType": "bytes32",
					"name": "_message",
					"type": "bytes32"
				},
				{
					"internalType": "bytes",
					"name": "_signature",
					"type": "bytes"
				}
			],
			"name": "isValidSignature",
			"outputs": [
				{
					"internalType": "bytes4",
					"name": "magicValue",
					"type": "bytes4"
				}
			],
			"stateMutability": "view",
			"type": "function"
		},
		{
			"inputs": [
				{
					"internalType": "address",
					"name": "_signer",
					"type": "address"
				},
				{
					"components": [
						{
							"internalType": "address",
							"name": "sender",
							"type": "address"
						},
						{
							"internalType": "uint256",
							"name": "nonce",
							"type": "uint256"
						},
						{
							"internalType": "bytes",
							"name": "initCode",
							"type": "bytes"
						},
						{
							"internalType": "bytes",
							"name": "callData",
							"type": "bytes"
						},
						{
							"internalType": "uint256",
							"name": "callGasLimit",
							"type": "uint256"
						},
						{
							"internalType": "uint256",
							"name": "verificationGasLimit",
							"type": "uint256"
						},
						{
							"internalType": "uint256",
							"name": "preVerificationGas",
							"type": "uint256"
						},
						{
							"internalType": "uint256",
							"name": "maxFeePerGas",
							"type": "uint256"
						},
						{
							"internalType": "uint256",
							"name": "maxPriorityFeePerGas",
							"type": "uint256"
						},
						{
							"internalType": "bytes",
							"name": "paymasterAndData",
							"type": "bytes"
						},
						{
							"internalType": "bytes",
							"name": "signature",
							"type": "bytes"
						}
					],
					"internalType": "struct UserOperation",
					"name": "_userOp",
					"type": "tuple"
				}
			],
			"name": "isValidSigner",
			"outputs": [
				{
					"internalType": "bool",
					"name": "",
					"type": "bool"
				}
			],
			"stateMutability": "view",
			"type": "function"
		},
		{
			"inputs": [
				{
					"internalType": "bytes[]",
					"name": "data",
					"type": "bytes[]"
				}
			],
			"name": "multicall",
			"outputs": [
				{
					"internalType": "bytes[]",
					"name": "results",
					"type": "bytes[]"
				}
			],
			"stateMutability": "nonpayable",
			"type": "function"
		},
		{
			"inputs": [
				{
					"internalType": "address",
					"name": "",
					"type": "address"
				},
				{
					"internalType": "address",
					"name": "",
					"type": "address"
				},
				{
					"internalType": "uint256[]",
					"name": "",
					"type": "uint256[]"
				},
				{
					"internalType": "uint256[]",
					"name": "",
					"type": "uint256[]"
				},
				{
					"internalType": "bytes",
					"name": "",
					"type": "bytes"
				}
			],
			"name": "onERC1155BatchReceived",
			"outputs": [
				{
					"internalType": "bytes4",
					"name": "",
					"type": "bytes4"
				}
			],
			"stateMutability": "nonpayable",
			"type": "function"
		},
		{
			"inputs": [
				{
					"internalType": "address",
					"name": "",
					"type": "address"
				},
				{
					"internalType": "address",
					"name": "",
					"type": "address"
				},
				{
					"internalType": "uint256",
					"name": "",
					"type": "uint256"
				},
				{
					"internalType": "uint256",
					"name": "",
					"type": "uint256"
				},
				{
					"internalType": "bytes",
					"name": "",
					"type": "bytes"
				}
			],
			"name": "onERC1155Received",
			"outputs": [
				{
					"internalType": "bytes4",
					"name": "",
					"type": "bytes4"
				}
			],
			"stateMutability": "nonpayable",
			"type": "function"
		},
		{
			"inputs": [
				{
					"internalType": "address",
					"name": "",
					"type": "address"
				},
				{
					"internalType": "address",
					"name": "",
					"type": "address"
				},
				{
					"internalType": "uint256",
					"name": "",
					"type": "uint256"
				},
				{
					"internalType": "bytes",
					"name": "",
					"type": "bytes"
				}
			],
			"name": "onERC721Received",
			"outputs": [
				{
					"internalType": "bytes4",
					"name": "",
					"type": "bytes4"
				}
			],
			"stateMutability": "nonpayable",
			"type": "function"
		},
		{
			"inputs": [
				{
					"internalType": "string",
					"name": "_uri",
					"type": "string"
				}
			],
			"name": "setContractURI",
			"outputs": [],
			"stateMutability": "nonpayable",
			"type": "function"
		},
		{
			"inputs": [
				{
					"internalType": "contract IEntryPoint",
					"name": "_entrypointOverride",
					"type": "address"
				}
			],
			"name": "setEntrypointOverride",
			"outputs": [],
			"stateMutability": "nonpayable",
			"type": "function"
		},
		{
			"inputs": [
				{
					"components": [
						{
							"internalType": "address",
							"name": "signer",
							"type": "address"
						},
						{
							"internalType": "uint8",
							"name": "isAdmin",
							"type": "uint8"
						},
						{
							"internalType": "address[]",
							"name": "approvedTargets",
							"type": "address[]"
						},
						{
							"internalType": "uint256",
							"name": "nativeTokenLimitPerTransaction",
							"type": "uint256"
						},
						{
							"internalType": "uint128",
							"name": "permissionStartTimestamp",
							"type": "uint128"
						},
						{
							"internalType": "uint128",
							"name": "permissionEndTimestamp",
							"type": "uint128"
						},
						{
							"internalType": "uint128",
							"name": "reqValidityStartTimestamp",
							"type": "uint128"
						},
						{
							"internalType": "uint128",
							"name": "reqValidityEndTimestamp",
							"type": "uint128"
						},
						{
							"internalType": "bytes32",
							"name": "uid",
							"type": "bytes32"
						}
					],
					"internalType": "struct IAccountPermissions.SignerPermissionRequest",
					"name": "_req",
					"type": "tuple"
				},
				{
					"internalType": "bytes",
					"name": "_signature",
					"type": "bytes"
				}
			],
			"name": "setPermissionsForSigner",
			"outputs": [],
			"stateMutability": "nonpayable",
			"type": "function"
		},
		{
			"inputs": [
				{
					"internalType": "bytes4",
					"name": "interfaceId",
					"type": "bytes4"
				}
			],
			"name": "supportsInterface",
			"outputs": [
				{
					"internalType": "bool",
					"name": "",
					"type": "bool"
				}
			],
			"stateMutability": "view",
			"type": "function"
		},
		{
			"inputs": [
				{
					"components": [
						{
							"internalType": "address",
							"name": "sender",
							"type": "address"
						},
						{
							"internalType": "uint256",
							"name": "nonce",
							"type": "uint256"
						},
						{
							"internalType": "bytes",
							"name": "initCode",
							"type": "bytes"
						},
						{
							"internalType": "bytes",
							"name": "callData",
							"type": "bytes"
						},
						{
							"internalType": "uint256",
							"name": "callGasLimit",
							"type": "uint256"
						},
						{
							"internalType": "uint256",
							"name": "verificationGasLimit",
							"type": "uint256"
						},
						{
							"internalType": "uint256",
							"name": "preVerificationGas",
							"type": "uint256"
						},
						{
							"internalType": "uint256",
							"name": "maxFeePerGas",
							"type": "uint256"
						},
						{
							"internalType": "uint256",
							"name": "maxPriorityFeePerGas",
							"type": "uint256"
						},
						{
							"internalType": "bytes",
							"name": "paymasterAndData",
							"type": "bytes"
						},
						{
							"internalType": "bytes",
							"name": "signature",
							"type": "bytes"
						}
					],
					"internalType": "struct UserOperation",
					"name": "userOp",
					"type": "tuple"
				},
				{
					"internalType": "bytes32",
					"name": "userOpHash",
					"type": "bytes32"
				},
				{
					"internalType": "uint256",
					"name": "missingAccountFunds",
					"type": "uint256"
				}
			],
			"name": "validateUserOp",
			"outputs": [
				{
					"internalType": "uint256",
					"name": "validationData",
					"type": "uint256"
				}
			],
			"stateMutability": "nonpayable",
			"type": "function"
		},
		{
			"inputs": [
				{
					"components": [
						{
							"internalType": "address",
							"name": "signer",
							"type": "address"
						},
						{
							"internalType": "uint8",
							"name": "isAdmin",
							"type": "uint8"
						},
						{
							"internalType": "address[]",
							"name": "approvedTargets",
							"type": "address[]"
						},
						{
							"internalType": "uint256",
							"name": "nativeTokenLimitPerTransaction",
							"type": "uint256"
						},
						{
							"internalType": "uint128",
							"name": "permissionStartTimestamp",
							"type": "uint128"
						},
						{
							"internalType": "uint128",
							"name": "permissionEndTimestamp",
							"type": "uint128"
						},
						{
							"internalType": "uint128",
							"name": "reqValidityStartTimestamp",
							"type": "uint128"
						},
						{
							"internalType": "uint128",
							"name": "reqValidityEndTimestamp",
							"type": "uint128"
						},
						{
							"internalType": "bytes32",
							"name": "uid",
							"type": "bytes32"
						}
					],
					"internalType": "struct IAccountPermissions.SignerPermissionRequest",
					"name": "req",
					"type": "tuple"
				},
				{
					"internalType": "bytes",
					"name": "signature",
					"type": "bytes"
				}
			],
			"name": "verifySignerPermissionRequest",
			"outputs": [
				{
					"internalType": "bool",
					"name": "success",
					"type": "bool"
				},
				{
					"internalType": "address",
					"name": "signer",
					"type": "address"
				}
			],
			"stateMutability": "view",
			"type": "function"
		},
		{
			"inputs": [
				{
					"internalType": "address payable",
					"name": "withdrawAddress",
					"type": "address"
				},
				{
					"internalType": "uint256",
					"name": "amount",
					"type": "uint256"
				}
			],
			"name": "withdrawDepositTo",
			"outputs": [],
			"stateMutability": "nonpayable",
			"type": "function"
		},
		{
			"stateMutability": "payable",
			"type": "receive"
		}
	]
}