{
  "abi": [
    {
      "inputs": [
        {
          "internalType": "address",
          "name": "router",
          "type": "address"
        },
        {
          "internalType": "address",
          "name": "link",
          "type": "address"
        }
      ],
      "stateMutability": "nonpayable",
      "type": "constructor"
    },
    {
      "inputs": [
        {
          "internalType": "address",
          "name": "router",
          "type": "address"
        }
      ],
      "name": "InvalidRouter",
      "type": "error"
    },
    {
      "anonymous": false,
      "inputs": [
        {
          "indexed": false,
          "internalType": "bytes32",
          "name": "latestMessageId",
          "type": "bytes32"
        },
        {
          "indexed": false,
          "internalType": "uint64",
          "name": "latestSourceChainSelector",
          "type": "uint64"
        },
        {
          "indexed": false,
          "internalType": "address",
          "name": "latestSender",
          "type": "address"
        },
        {
          "indexed": false,
          "internalType": "string",
          "name": "latestMessage",
          "type": "string"
        }
      ],
      "name": "MessageReceived",
      "type": "event"
    },
    {
      "anonymous": false,
      "inputs": [
        {
          "indexed": false,
          "internalType": "bytes32",
          "name": "messageId",
          "type": "bytes32"
        }
      ],
      "name": "MessageSent",
      "type": "event"
    },
    {
      "inputs": [
        {
          "components": [
            {
              "internalType": "bytes32",
              "name": "messageId",
              "type": "bytes32"
            },
            {
              "internalType": "uint64",
              "name": "sourceChainSelector",
              "type": "uint64"
            },
            {
              "internalType": "bytes",
              "name": "sender",
              "type": "bytes"
            },
            {
              "internalType": "bytes",
              "name": "data",
              "type": "bytes"
            },
            {
              "components": [
                {
                  "internalType": "address",
                  "name": "token",
                  "type": "address"
                },
                {
                  "internalType": "uint256",
                  "name": "amount",
                  "type": "uint256"
                }
              ],
              "internalType": "struct Client.EVMTokenAmount[]",
              "name": "destTokenAmounts",
              "type": "tuple[]"
            }
          ],
          "internalType": "struct Client.Any2EVMMessage",
          "name": "message",
          "type": "tuple"
        }
      ],
      "name": "ccipReceive",
      "outputs": [],
      "stateMutability": "nonpayable",
      "type": "function"
    },
    {
      "inputs": [],
      "name": "getLatestMessageDetails",
      "outputs": [
        {
          "internalType": "bytes32",
          "name": "",
          "type": "bytes32"
        },
        {
          "internalType": "uint64",
          "name": "",
          "type": "uint64"
        },
        {
          "internalType": "address",
          "name": "",
          "type": "address"
        },
        {
          "internalType": "string",
          "name": "",
          "type": "string"
        }
      ],
      "stateMutability": "view",
      "type": "function"
    },
    {
      "inputs": [],
      "name": "getLockedGho",
      "outputs": [
        {
          "internalType": "uint256",
          "name": "",
          "type": "uint256"
        }
      ],
      "stateMutability": "view",
      "type": "function"
    },
    {
      "inputs": [],
      "name": "getRouter",
      "outputs": [
        {
          "internalType": "address",
          "name": "",
          "type": "address"
        }
      ],
      "stateMutability": "view",
      "type": "function"
    },
    {
      "inputs": [
        {
          "internalType": "address",
          "name": "to",
          "type": "address"
        },
        {
          "internalType": "uint256",
          "name": "amount",
          "type": "uint256"
        }
      ],
      "name": "sendCrossChain",
      "outputs": [
        {
          "internalType": "bytes32",
          "name": "messageId",
          "type": "bytes32"
        }
      ],
      "stateMutability": "nonpayable",
      "type": "function"
    },
    {
      "inputs": [
        {
          "internalType": "address",
          "name": "portal",
          "type": "address"
        }
      ],
      "name": "setPortal",
      "outputs": [],
      "stateMutability": "nonpayable",
      "type": "function"
    },
    {
      "inputs": [
        {
          "internalType": "bytes4",
          "name": "interfaceId",
          "type": "bytes4"
        }
      ],
      "name": "supportsInterface",
      "outputs": [
        {
          "internalType": "bool",
          "name": "",
          "type": "bool"
        }
      ],
      "stateMutability": "pure",
      "type": "function"
    },
    {
      "stateMutability": "payable",
      "type": "receive"
    }
  ],
  "bytecode": {
    "object": "0x60e0604052600380546001600160a01b03191673c4bf5cbdabe595361438f8c6a187bdc330539c601790556004805467adecc60412ce25a560a01b600160a01b600160e01b031990911617905534801561005857600080fd5b5060405161146c38038061146c833981016040819052610077916100e6565b818181806001600160a01b0381166100a9576040516335fdcccd60e21b81526000600482015260240160405180910390fd5b6001600160a01b0390811660805292831660a052501660c052506101199050565b80516001600160a01b03811681146100e157600080fd5b919050565b600080604083850312156100f957600080fd5b610102836100ca565b9150610110602084016100ca565b90509250929050565b60805160a05160c05161130161016b6000396000818161055a015261068f0152600081816105a1015281816106600152818161071401526107ac01526000818161016401526103c201526113016000f3fe6080604052600436106100745760003560e01c80636f58aa801161004e5780636f58aa80146100fc57806385572ffb1461012a578063b0f479a11461014a578063f26d10261461018e57600080fd5b806301ffc9a7146100805780633394e6f4146100b55780634ff56192146100da57600080fd5b3661007b57005b600080fd5b34801561008c57600080fd5b506100a061009b366004610af6565b6101a3565b60405190151581526020015b60405180910390f35b3480156100c157600080fd5b506100ca6101da565b6040516100ac9493929190610b77565b3480156100e657600080fd5b506100fa6100f5366004610bcf565b6102ac565b005b34801561010857600080fd5b5061011c610117366004610bec565b6102e4565b6040519081526020016100ac565b34801561013657600080fd5b506100fa610145366004610c18565b6103b7565b34801561015657600080fd5b506040516001600160a01b037f00000000000000000000000000000000000000000000000000000000000000001681526020016100ac565b34801561019a57600080fd5b5061011c61041b565b60006001600160e01b031982166385572ffb60e01b14806101d457506001600160e01b031982166301ffc9a760e01b145b92915050565b60008060006060600054600160009054906101000a90046001600160401b0316600160089054906101000a90046001600160a01b0316600280805461021e90610c52565b80601f016020809104026020016040519081016040528092919081815260200182805461024a90610c52565b80156102975780601f1061026c57610100808354040283529160200191610297565b820191906000526020600020905b81548152906001019060200180831161027a57829003601f168201915b50505050509050935093509350935090919293565b6004546001600160a01b0316156102c257600080fd5b600480546001600160a01b0319166001600160a01b0392909216919091179055565b604080516001600160a01b038481166020830152818301849052825180830384018152606090920190925260045460009261033391600160a01b81046001600160401b0316911683600161048d565b6003546040516323b872dd60e01b8152336004820152306024820152604481018690529193506001600160a01b0316906323b872dd906064016020604051808303816000875af115801561038b573d6000803e3d6000fd5b505050506040513d601f19601f820116820180604052508101906103af9190610c8c565b505092915050565b336001600160a01b037f00000000000000000000000000000000000000000000000000000000000000001614610407576040516335fdcccd60e21b81523360048201526024015b60405180910390fd5b61041861041382610e83565b610868565b50565b6003546040516370a0823160e01b81523060048201526000916001600160a01b0316906370a0823190602401602060405180830381865afa158015610464573d6000803e3d6000fd5b505050506040513d601f19601f820116820180604052508101906104889190610f2f565b905090565b6040805160a081019091526001600160a01b03841660c082015260009081908060e081016040516020818303038152906040528152602001856040516020016104d69190610f48565b60408051601f198184030181529190528152602001600060405190808252806020026020018201604052801561053257816020015b604080518082019091526000808252602082015281526020019060019003908161050b5790505b508152602001600185600181111561054c5761054c610f5b565b1461055857600061057a565b7f00000000000000000000000000000000000000000000000000000000000000005b6001600160a01b0316815260200160405180602001604052806000815250815250905060007f00000000000000000000000000000000000000000000000000000000000000006001600160a01b03166320487ded88846040518363ffffffff1660e01b81526004016105ed929190610f71565b602060405180830381865afa15801561060a573d6000803e3d6000fd5b505050506040513d601f19601f8201168201806040525081019061062e9190610f2f565b9050600184600181111561064457610644610f5b565b036107955760405163095ea7b360e01b81526001600160a01b037f000000000000000000000000000000000000000000000000000000000000000081166004830152602482018390527f0000000000000000000000000000000000000000000000000000000000000000169063095ea7b3906044016020604051808303816000875af11580156106d8573d6000803e3d6000fd5b505050506040513d601f19601f820116820180604052508101906106fc9190610c8c565b506040516396f4e9f960e01b81526001600160a01b037f000000000000000000000000000000000000000000000000000000000000000016906396f4e9f99061074b908a908690600401610f71565b6020604051808303816000875af115801561076a573d6000803e3d6000fd5b505050506040513d601f19601f8201168201806040525081019061078e9190610f2f565b925061082b565b6040516396f4e9f960e01b81526001600160a01b037f000000000000000000000000000000000000000000000000000000000000000016906396f4e9f99083906107e5908b908790600401610f71565b60206040518083038185885af1158015610803573d6000803e3d6000fd5b50505050506040513d601f19601f820116820180604052508101906108289190610f2f565b92505b6040518381527f54791b38f3859327992a1ca0590ad3c0f08feba98d1a4f56ab0dca74d203392a9060200160405180910390a15050949350505050565b80516000556020808201516001805467ffffffffffffffff19166001600160401b03909216919091179055604082015180516108aa929082018101910161104a565b600160086101000a8154816001600160a01b0302191690836001600160a01b0316021790555080606001518060200190518101906108e89190611067565b6002906108f5908261112c565b50600454600154600160401b90046001600160a01b0390811691161461096e5760405162461bcd60e51b815260206004820152602860248201527f496e76616c6964206d6573736167652073656e6465722066726f6d206f72696760448201526734b71031b430b4b760c11b60648201526084016103fe565b60006002805461097d90610c52565b80601f01602080910402602001604051908101604052809291908181526020018280546109a990610c52565b80156109f65780601f106109cb576101008083540402835291602001916109f6565b820191906000526020600020905b8154815290600101906020018083116109d957829003601f168201915b5050505050905060008082806020019051810190610a1491906111eb565b60035460405163a9059cbb60e01b81526001600160a01b03808516600483015260248201849052939550919350919091169063a9059cbb906044016020604051808303816000875af1158015610a6e573d6000803e3d6000fd5b505050506040513d601f19601f82011682018060405250810190610a929190610c8c565b506000546001546040517fb1e312a29937cc11967b0e4a346fef1ae132424ebaba9dc6d90249dba053e87c92610ae89290916001600160401b03821691600160401b90046001600160a01b031690600290611219565b60405180910390a150505050565b600060208284031215610b0857600080fd5b81356001600160e01b031981168114610b2057600080fd5b9392505050565b60005b83811015610b42578181015183820152602001610b2a565b50506000910152565b60008151808452610b63816020860160208601610b27565b601f01601f19169290920160200192915050565b8481526001600160401b03841660208201526001600160a01b0383166040820152608060608201819052600090610bb090830184610b4b565b9695505050505050565b6001600160a01b038116811461041857600080fd5b600060208284031215610be157600080fd5b8135610b2081610bba565b60008060408385031215610bff57600080fd5b8235610c0a81610bba565b946020939093013593505050565b600060208284031215610c2a57600080fd5b81356001600160401b03811115610c4057600080fd5b820160a08185031215610b2057600080fd5b600181811c90821680610c6657607f821691505b602082108103610c8657634e487b7160e01b600052602260045260246000fd5b50919050565b600060208284031215610c9e57600080fd5b81518015158114610b2057600080fd5b634e487b7160e01b600052604160045260246000fd5b604080519081016001600160401b0381118282101715610ce657610ce6610cae565b60405290565b60405160a081016001600160401b0381118282101715610ce657610ce6610cae565b604051601f8201601f191681016001600160401b0381118282101715610d3657610d36610cae565b604052919050565b80356001600160401b0381168114610d5557600080fd5b919050565b60006001600160401b03821115610d7357610d73610cae565b50601f01601f191660200190565b600082601f830112610d9257600080fd5b8135610da5610da082610d5a565b610d0e565b818152846020838601011115610dba57600080fd5b816020850160208301376000918101602001919091529392505050565b600082601f830112610de857600080fd5b813560206001600160401b03821115610e0357610e03610cae565b610e11818360051b01610d0e565b82815260069290921b84018101918181019086841115610e3057600080fd5b8286015b84811015610e785760408189031215610e4d5760008081fd5b610e55610cc4565b8135610e6081610bba565b81528185013585820152835291830191604001610e34565b509695505050505050565b600060a08236031215610e9557600080fd5b610e9d610cec565b82358152610ead60208401610d3e565b602082015260408301356001600160401b0380821115610ecc57600080fd5b610ed836838701610d81565b60408401526060850135915080821115610ef157600080fd5b610efd36838701610d81565b60608401526080850135915080821115610f1657600080fd5b50610f2336828601610dd7565b60808301525092915050565b600060208284031215610f4157600080fd5b5051919050565b602081526000610b206020830184610b4b565b634e487b7160e01b600052602160045260246000fd5b600060406001600160401b038516835260208181850152845160a083860152610f9d60e0860182610b4b565b905081860151603f1980878403016060880152610fba8383610b4b565b88860151888203830160808a01528051808352908601945060009350908501905b8084101561100d57845180516001600160a01b0316835286015186830152938501936001939093019290860190610fdb565b5060608901516001600160a01b031660a08901526080890151888203830160c08a0152955061103c8187610b4b565b9a9950505050505050505050565b60006020828403121561105c57600080fd5b8151610b2081610bba565b60006020828403121561107957600080fd5b81516001600160401b0381111561108f57600080fd5b8201601f810184136110a057600080fd5b80516110ae610da082610d5a565b8181528560208385010111156110c357600080fd5b6110d4826020830160208601610b27565b95945050505050565b601f82111561112757600081815260208120601f850160051c810160208610156111045750805b601f850160051c820191505b8181101561112357828155600101611110565b5050505b505050565b81516001600160401b0381111561114557611145610cae565b611159816111538454610c52565b846110dd565b602080601f83116001811461118e57600084156111765750858301515b600019600386901b1c1916600185901b178555611123565b600085815260208120601f198616915b828110156111bd5788860151825594840194600190910190840161119e565b50858210156111db5787850151600019600388901b60f8161c191681555b5050505050600190811b01905550565b600080604083850312156111fe57600080fd5b825161120981610bba565b6020939093015192949293505050565b848152600060206001600160401b0386168184015260018060a01b0385166040840152608060608401526000845461125081610c52565b80608087015260a0600180841660008114611272576001811461128c576112ba565b60ff1985168984015283151560051b8901830195506112ba565b896000528660002060005b858110156112b25781548b8201860152908301908801611297565b8a0184019650505b50939b9a505050505050505050505056fea264697066735822122091b9fe3e06e5f40e8a947f223736ac6df8f65b50c64c8102e2b87aea27025b0464736f6c63430008140033",
    "linkReferences": {}
  },
  "methodIdentifiers": {
    "ccipReceive((bytes32,uint64,bytes,bytes,(address,uint256)[]))": "85572ffb",
    "getLatestMessageDetails()": "3394e6f4",
    "getLockedGho()": "f26d1026",
    "getRouter()": "b0f479a1",
    "sendCrossChain(address,uint256)": "6f58aa80",
    "setPortal(address)": "4ff56192",
    "supportsInterface(bytes4)": "01ffc9a7"
  },
  "id": 13
}