{
  "abi": [
    {
      "inputs": [],
      "stateMutability": "nonpayable",
      "type": "constructor"
    },
    {
      "anonymous": false,
      "inputs": [
        {
          "indexed": true,
          "internalType": "address",
          "name": "signer",
          "type": "address"
        },
        {
          "indexed": false,
          "internalType": "bool",
          "name": "isAdmin",
          "type": "bool"
        }
      ],
      "name": "AdminUpdated",
      "type": "event"
    },
    {
      "anonymous": false,
      "inputs": [
        {
          "indexed": false,
          "internalType": "string",
          "name": "prevURI",
          "type": "string"
        },
        {
          "indexed": false,
          "internalType": "string",
          "name": "newURI",
          "type": "string"
        }
      ],
      "name": "ContractURIUpdated",
      "type": "event"
    },
    {
      "anonymous": false,
      "inputs": [
        {
          "indexed": true,
          "internalType": "address",
          "name": "authorizingSigner",
          "type": "address"
        },
        {
          "indexed": true,
          "internalType": "address",
          "name": "targetSigner",
          "type": "address"
        },
        {
          "components": [
            {
              "internalType": "address",
              "name": "signer",
              "type": "address"
            },
            {
              "internalType": "uint8",
              "name": "isAdmin",
              "type": "uint8"
            },
            {
              "internalType": "address[]",
              "name": "approvedTargets",
              "type": "address[]"
            },
            {
              "internalType": "uint256",
              "name": "nativeTokenLimitPerTransaction",
              "type": "uint256"
            },
            {
              "internalType": "uint128",
              "name": "permissionStartTimestamp",
              "type": "uint128"
            },
            {
              "internalType": "uint128",
              "name": "permissionEndTimestamp",
              "type": "uint128"
            },
            {
              "internalType": "uint128",
              "name": "reqValidityStartTimestamp",
              "type": "uint128"
            },
            {
              "internalType": "uint128",
              "name": "reqValidityEndTimestamp",
              "type": "uint128"
            },
            {
              "internalType": "bytes32",
              "name": "uid",
              "type": "bytes32"
            }
          ],
          "indexed": false,
          "internalType": "struct IAccountPermissions.SignerPermissionRequest",
          "name": "permissions",
          "type": "tuple"
        }
      ],
      "name": "SignerPermissionsUpdated",
      "type": "event"
    },
    {
      "inputs": [],
      "name": "addDeposit",
      "outputs": [],
      "stateMutability": "payable",
      "type": "function"
    },
    {
      "inputs": [],
      "name": "contractURI",
      "outputs": [
        {
          "internalType": "string",
          "name": "",
          "type": "string"
        }
      ],
      "stateMutability": "view",
      "type": "function"
    },
    {
      "inputs": [
        {
          "internalType": "address",
          "name": "_target",
          "type": "address"
        },
        {
          "internalType": "uint256",
          "name": "_value",
          "type": "uint256"
        },
        {
          "internalType": "bytes",
          "name": "_calldata",
          "type": "bytes"
        }
      ],
      "name": "execute",
      "outputs": [],
      "stateMutability": "nonpayable",
      "type": "function"
    },
    {
      "inputs": [
        {
          "internalType": "address[]",
          "name": "_target",
          "type": "address[]"
        },
        {
          "internalType": "uint256[]",
          "name": "_value",
          "type": "uint256[]"
        },
        {
          "internalType": "bytes[]",
          "name": "_calldata",
          "type": "bytes[]"
        }
      ],
      "name": "executeBatch",
      "outputs": [],
      "stateMutability": "nonpayable",
      "type": "function"
    },
    {
      "inputs": [],
      "name": "getAllActiveSigners",
      "outputs": [
        {
          "components": [
            {
              "internalType": "address",
              "name": "signer",
              "type": "address"
            },
            {
              "internalType": "address[]",
              "name": "approvedTargets",
              "type": "address[]"
            },
            {
              "internalType": "uint256",
              "name": "nativeTokenLimitPerTransaction",
              "type": "uint256"
            },
            {
              "internalType": "uint128",
              "name": "startTimestamp",
              "type": "uint128"
            },
            {
              "internalType": "uint128",
              "name": "endTimestamp",
              "type": "uint128"
            }
          ],
          "internalType": "struct IAccountPermissions.SignerPermissions[]",
          "name": "signers",
          "type": "tuple[]"
        }
      ],
      "stateMutability": "view",
      "type": "function"
    },
    {
      "inputs": [],
      "name": "getAllAdmins",
      "outputs": [
        {
          "internalType": "address[]",
          "name": "",
          "type": "address[]"
        }
      ],
      "stateMutability": "view",
      "type": "function"
    },
    {
      "inputs": [],
      "name": "getAllSigners",
      "outputs": [
        {
          "components": [
            {
              "internalType": "address",
              "name": "signer",
              "type": "address"
            },
            {
              "internalType": "address[]",
              "name": "approvedTargets",
              "type": "address[]"
            },
            {
              "internalType": "uint256",
              "name": "nativeTokenLimitPerTransaction",
              "type": "uint256"
            },
            {
              "internalType": "uint128",
              "name": "startTimestamp",
              "type": "uint128"
            },
            {
              "internalType": "uint128",
              "name": "endTimestamp",
              "type": "uint128"
            }
          ],
          "internalType": "struct IAccountPermissions.SignerPermissions[]",
          "name": "signers",
          "type": "tuple[]"
        }
      ],
      "stateMutability": "view",
      "type": "function"
    },
    {
      "inputs": [
        {
          "internalType": "bytes",
          "name": "message",
          "type": "bytes"
        }
      ],
      "name": "getMessageHash",
      "outputs": [
        {
          "internalType": "bytes32",
          "name": "",
          "type": "bytes32"
        }
      ],
      "stateMutability": "view",
      "type": "function"
    },
    {
      "inputs": [
        {
          "internalType": "address",
          "name": "signer",
          "type": "address"
        }
      ],
      "name": "getPermissionsForSigner",
      "outputs": [
        {
          "components": [
            {
              "internalType": "address",
              "name": "signer",
              "type": "address"
            },
            {
              "internalType": "address[]",
              "name": "approvedTargets",
              "type": "address[]"
            },
            {
              "internalType": "uint256",
              "name": "nativeTokenLimitPerTransaction",
              "type": "uint256"
            },
            {
              "internalType": "uint128",
              "name": "startTimestamp",
              "type": "uint128"
            },
            {
              "internalType": "uint128",
              "name": "endTimestamp",
              "type": "uint128"
            }
          ],
          "internalType": "struct IAccountPermissions.SignerPermissions",
          "name": "",
          "type": "tuple"
        }
      ],
      "stateMutability": "view",
      "type": "function"
    },
    {
      "inputs": [
        {
          "internalType": "address",
          "name": "signer",
          "type": "address"
        }
      ],
      "name": "isActiveSigner",
      "outputs": [
        {
          "internalType": "bool",
          "name": "",
          "type": "bool"
        }
      ],
      "stateMutability": "view",
      "type": "function"
    },
    {
      "inputs": [
        {
          "internalType": "address",
          "name": "_account",
          "type": "address"
        }
      ],
      "name": "isAdmin",
      "outputs": [
        {
          "internalType": "bool",
          "name": "",
          "type": "bool"
        }
      ],
      "stateMutability": "view",
      "type": "function"
    },
    {
      "inputs": [
        {
          "internalType": "bytes32",
          "name": "_message",
          "type": "bytes32"
        },
        {
          "internalType": "bytes",
          "name": "_signature",
          "type": "bytes"
        }
      ],
      "name": "isValidSignature",
      "outputs": [
        {
          "internalType": "bytes4",
          "name": "magicValue",
          "type": "bytes4"
        }
      ],
      "stateMutability": "view",
      "type": "function"
    },
    {
      "inputs": [
        {
          "internalType": "address",
          "name": "",
          "type": "address"
        },
        {
          "internalType": "address",
          "name": "",
          "type": "address"
        },
        {
          "internalType": "uint256[]",
          "name": "",
          "type": "uint256[]"
        },
        {
          "internalType": "uint256[]",
          "name": "",
          "type": "uint256[]"
        },
        {
          "internalType": "bytes",
          "name": "",
          "type": "bytes"
        }
      ],
      "name": "onERC1155BatchReceived",
      "outputs": [
        {
          "internalType": "bytes4",
          "name": "",
          "type": "bytes4"
        }
      ],
      "stateMutability": "nonpayable",
      "type": "function"
    },
    {
      "inputs": [
        {
          "internalType": "address",
          "name": "",
          "type": "address"
        },
        {
          "internalType": "address",
          "name": "",
          "type": "address"
        },
        {
          "internalType": "uint256",
          "name": "",
          "type": "uint256"
        },
        {
          "internalType": "uint256",
          "name": "",
          "type": "uint256"
        },
        {
          "internalType": "bytes",
          "name": "",
          "type": "bytes"
        }
      ],
      "name": "onERC1155Received",
      "outputs": [
        {
          "internalType": "bytes4",
          "name": "",
          "type": "bytes4"
        }
      ],
      "stateMutability": "nonpayable",
      "type": "function"
    },
    {
      "inputs": [
        {
          "internalType": "address",
          "name": "",
          "type": "address"
        },
        {
          "internalType": "address",
          "name": "",
          "type": "address"
        },
        {
          "internalType": "uint256",
          "name": "",
          "type": "uint256"
        },
        {
          "internalType": "bytes",
          "name": "",
          "type": "bytes"
        }
      ],
      "name": "onERC721Received",
      "outputs": [
        {
          "internalType": "bytes4",
          "name": "",
          "type": "bytes4"
        }
      ],
      "stateMutability": "nonpayable",
      "type": "function"
    },
    {
      "inputs": [
        {
          "internalType": "string",
          "name": "_uri",
          "type": "string"
        }
      ],
      "name": "setContractURI",
      "outputs": [],
      "stateMutability": "nonpayable",
      "type": "function"
    },
    {
      "inputs": [
        {
          "components": [
            {
              "internalType": "address",
              "name": "signer",
              "type": "address"
            },
            {
              "internalType": "uint8",
              "name": "isAdmin",
              "type": "uint8"
            },
            {
              "internalType": "address[]",
              "name": "approvedTargets",
              "type": "address[]"
            },
            {
              "internalType": "uint256",
              "name": "nativeTokenLimitPerTransaction",
              "type": "uint256"
            },
            {
              "internalType": "uint128",
              "name": "permissionStartTimestamp",
              "type": "uint128"
            },
            {
              "internalType": "uint128",
              "name": "permissionEndTimestamp",
              "type": "uint128"
            },
            {
              "internalType": "uint128",
              "name": "reqValidityStartTimestamp",
              "type": "uint128"
            },
            {
              "internalType": "uint128",
              "name": "reqValidityEndTimestamp",
              "type": "uint128"
            },
            {
              "internalType": "bytes32",
              "name": "uid",
              "type": "bytes32"
            }
          ],
          "internalType": "struct IAccountPermissions.SignerPermissionRequest",
          "name": "_req",
          "type": "tuple"
        },
        {
          "internalType": "bytes",
          "name": "_signature",
          "type": "bytes"
        }
      ],
      "name": "setPermissionsForSigner",
      "outputs": [],
      "stateMutability": "nonpayable",
      "type": "function"
    },
    {
      "inputs": [
        {
          "internalType": "bytes4",
          "name": "interfaceId",
          "type": "bytes4"
        }
      ],
      "name": "supportsInterface",
      "outputs": [
        {
          "internalType": "bool",
          "name": "",
          "type": "bool"
        }
      ],
      "stateMutability": "view",
      "type": "function"
    },
    {
      "inputs": [
        {
          "components": [
            {
              "internalType": "address",
              "name": "signer",
              "type": "address"
            },
            {
              "internalType": "uint8",
              "name": "isAdmin",
              "type": "uint8"
            },
            {
              "internalType": "address[]",
              "name": "approvedTargets",
              "type": "address[]"
            },
            {
              "internalType": "uint256",
              "name": "nativeTokenLimitPerTransaction",
              "type": "uint256"
            },
            {
              "internalType": "uint128",
              "name": "permissionStartTimestamp",
              "type": "uint128"
            },
            {
              "internalType": "uint128",
              "name": "permissionEndTimestamp",
              "type": "uint128"
            },
            {
              "internalType": "uint128",
              "name": "reqValidityStartTimestamp",
              "type": "uint128"
            },
            {
              "internalType": "uint128",
              "name": "reqValidityEndTimestamp",
              "type": "uint128"
            },
            {
              "internalType": "bytes32",
              "name": "uid",
              "type": "bytes32"
            }
          ],
          "internalType": "struct IAccountPermissions.SignerPermissionRequest",
          "name": "req",
          "type": "tuple"
        },
        {
          "internalType": "bytes",
          "name": "signature",
          "type": "bytes"
        }
      ],
      "name": "verifySignerPermissionRequest",
      "outputs": [
        {
          "internalType": "bool",
          "name": "success",
          "type": "bool"
        },
        {
          "internalType": "address",
          "name": "signer",
          "type": "address"
        }
      ],
      "stateMutability": "view",
      "type": "function"
    },
    {
      "inputs": [
        {
          "internalType": "address payable",
          "name": "withdrawAddress",
          "type": "address"
        },
        {
          "internalType": "uint256",
          "name": "amount",
          "type": "uint256"
        }
      ],
      "name": "withdrawDepositTo",
      "outputs": [],
      "stateMutability": "nonpayable",
      "type": "function"
    },
    {
      "stateMutability": "payable",
      "type": "receive"
    }
  ],
  "bytecode": {
    "object": "0x61014060405234801561001157600080fd5b5060408051808201825260078152661058d8dbdd5b9d60ca1b6020808301918252835180850190945260018452603160f81b908401528151902060e08190527fc89efdaa54c0f20c7adf612882df0950f5a951637e0307cdcb4c672f298b8bc66101008190524660a0529192917f8b73c3c69bb8fe3d512ecc4cf759cc79239f7b179b0ffacaa9a75d522b39400f6100ee8184846040805160208101859052908101839052606081018290524660808201523060a082015260009060c0016040516020818303038152906040528051906020012090509392505050565b6080523060c052610120525061010392505050565b60805160a05160c05160e0516101005161012051612e8561015260003960006115ee0152600061163d01526000611618015260006115710152600061159b015260006115c50152612e856000f3fe6080604052600436106101235760003560e01c80638b52d723116100a0578063d42f2f3511610064578063d42f2f351461036d578063e8a3d48514610382578063e9523c97146103a4578063f15d424e146103c6578063f23a6e61146103f357600080fd5b80638b52d723146102a0578063938e3d7b146102c2578063a9082d84146102e2578063b61d27f614610321578063bc197c811461034157600080fd5b806347e1da2a116100e757806347e1da2a146102165780634a58db19146102385780634d44560d146102405780635892e236146102605780637dff5a791461028057600080fd5b806301ffc9a71461012f5780630a1028c414610164578063150b7a02146101925780631626ba7e146101d657806324d7806c146101f657600080fd5b3661012a57005b600080fd5b34801561013b57600080fd5b5061014f61014a366004612132565b61041f565b60405190151581526020015b60405180910390f35b34801561017057600080fd5b5061018461017f366004612219565b610465565b60405190815260200161015b565b34801561019e57600080fd5b506101bd6101ad366004612272565b630a85bd0160e11b949350505050565b6040516001600160e01b0319909116815260200161015b565b3480156101e257600080fd5b506101bd6101f13660046122dd565b610509565b34801561020257600080fd5b5061014f610211366004612323565b610649565b34801561022257600080fd5b50610236610231366004612384565b610678565b005b610236610843565b34801561024c57600080fd5b5061023661025b36600461241d565b610904565b34801561026c57600080fd5b5061023661027b36600461248a565b6109d7565b34801561028c57600080fd5b5061014f61029b366004612323565b610d8b565b3480156102ac57600080fd5b506102b5610e45565b60405161015b91906125a0565b3480156102ce57600080fd5b506102366102dd366004612602565b61108c565b3480156102ee57600080fd5b506103026102fd36600461248a565b6110dd565b6040805192151583526001600160a01b0390911660208301520161015b565b34801561032d57600080fd5b5061023661033c36600461264a565b611134565b34801561034d57600080fd5b506101bd61035c366004612719565b63bc197c8160e01b95945050505050565b34801561037957600080fd5b506102b561121e565b34801561038e57600080fd5b5061039761138f565b60405161015b9190612816565b3480156103b057600080fd5b506103b9611440565b60405161015b9190612829565b3480156103d257600080fd5b506103e66103e1366004612323565b611457565b60405161015b9190612876565b3480156103ff57600080fd5b506101bd61040e366004612889565b63f23a6e6160e01b95945050505050565b60006001600160e01b03198216630271189760e51b148061045057506001600160e01b03198216630a85bd0160e11b145b8061045f575061045f8261152f565b92915050565b6000807f82cac545155fcbf147f2a9013809613677ac7d65498556e6d19ce43bcbf6c28483805190602001206040516020016104ab929190918252602082015260400190565b6040516020818303038152906040528051906020012090506104cb611564565b60405161190160f01b602082015260228101919091526042810182905260620160405160208183030381529060405280519060200120915050919050565b6000806105368460405160200161052291815260200190565b604051602081830303815290604052610465565b90506000610544828561168b565b905061054f81610649565b156105665750630b135d3f60e11b915061045f9050565b3360006105716116af565b6001600160a01b038416600090815260069190910160205260409020905061059981836116d3565b806105c957506105a8816116f5565b60011480156105c9575060006105be82826116ff565b6001600160a01b0316145b6106265760405162461bcd60e51b8152602060048201526024808201527f4163636f756e743a2063616c6c6572206e6f7420617070726f7665642074617260448201526333b2ba1760e11b60648201526084015b60405180910390fd5b61062f83610d8b565b1561063f57630b135d3f60e11b94505b5050505092915050565b60006106536116af565b6001600160a01b03909216600090815260049290920160205250604090205460ff1690565b306001600160a01b031663b0d691fe6040518163ffffffff1660e01b8152600401602060405180830381865afa1580156106b6573d6000803e3d6000fd5b505050506040513d601f19601f820116820180604052508101906106da91906128f1565b6001600160a01b0316336001600160a01b031614806106fd57506106fd33610649565b6107195760405162461bcd60e51b815260040161061d9061290e565b61072161170b565b848114801561072f57508483145b61077b5760405162461bcd60e51b815260206004820152601d60248201527f4163636f756e743a2077726f6e67206172726179206c656e677468732e000000604482015260640161061d565b60005b8581101561083a5761082787878381811061079b5761079b61294f565b90506020020160208101906107b09190612323565b8686848181106107c2576107c261294f565b905060200201358585858181106107db576107db61294f565b90506020028101906107ed9190612965565b8080601f01602080910402602001604051908101604052809392919081815260200183838082843760009201919091525061183492505050565b5080610832816129c1565b91505061077e565b50505050505050565b306001600160a01b031663b0d691fe6040518163ffffffff1660e01b8152600401602060405180830381865afa158015610881573d6000803e3d6000fd5b505050506040513d601f19601f820116820180604052508101906108a591906128f1565b60405163b760faf960e01b81523060048201526001600160a01b03919091169063b760faf99034906024016000604051808303818588803b1580156108e957600080fd5b505af11580156108fd573d6000803e3d6000fd5b5050505050565b61090c6118a5565b306001600160a01b031663b0d691fe6040518163ffffffff1660e01b8152600401602060405180830381865afa15801561094a573d6000803e3d6000fd5b505050506040513d601f19601f8201168201806040525081019061096e91906128f1565b60405163040b850f60e31b81526001600160a01b03848116600483015260248201849052919091169063205c2878906044015b600060405180830381600087803b1580156109bb57600080fd5b505af11580156109cf573d6000803e3d6000fd5b505050505050565b60006109e66020850185612323565b9050426109f960e0860160c087016129f1565b6001600160801b031611158015610a285750610a1c610100850160e086016129f1565b6001600160801b031642105b610a5e5760405162461bcd60e51b8152602060048201526007602482015266085c195c9a5bd960ca1b604482015260640161061d565b600080610a6c8686866110dd565b9150915081610aa65760405162461bcd60e51b815260040161061d906020808252600490820152632173696760e01b604082015260600190565b6001610ab06116af565b610100880135600090815260079190910160209081526040808320805460ff1916941515949094179093559091610aec91908901908901612a1d565b60ff161115610b19576000610b076040880160208901612a1d565b60ff16600114905061083a84826118e5565b610b2283610649565b15610b575760405162461bcd60e51b815260206004820152600560248201526430b236b4b760d91b604482015260640161061d565b610b6c83610b636116af565b60020190611994565b50604051806060016040528087606001358152602001876080016020810190610b9591906129f1565b6001600160801b03168152602001610bb360c0890160a08a016129f1565b6001600160801b03169052610bc66116af565b6001600160a01b03851660009081526005919091016020908152604080832084518155918401519301516001600160801b03908116600160801b02931692909217600190920191909155610c3c610c1b6116af565b6001600160a01b0386166000908152600691909101602052604090206119a9565b805190915060005b81811015610ca657610c93838281518110610c6157610c6161294f565b6020026020010151610c716116af565b6001600160a01b038916600090815260069190910160205260409020906119b6565b50610c9f600182612a38565b9050610c44565b50610cb46040890189612a4b565b9050905060005b81811015610d3557610d22610cd360408b018b612a4b565b83818110610ce357610ce361294f565b9050602002016020810190610cf89190612323565b610d006116af565b6001600160a01b03891660009081526006919091016020526040902090611994565b50610d2e600182612a38565b9050610cbb565b50846001600160a01b0316836001600160a01b03167ff21d10c26e35863a8df291aca54181ee8c4a3bc8e00246c3f7a5a14b69d826a78a604051610d799190612b25565b60405180910390a35050505050505050565b600080610d966116af565b6001600160a01b038416600090815260059190910160209081526040918290208251606081018452815481526001909101546001600160801b03808216938301849052600160801b90910416928101929092529091504210801590610e07575080604001516001600160801b031642105b8015610e3e57506000610e3c610e1b6116af565b6001600160a01b0386166000908152600691909101602052604090206116f5565b115b9392505050565b60606000610e5c610e546116af565b6002016119a9565b80519091506000805b82811015610eed57610e8f848281518110610e8257610e8261294f565b6020026020010151610d8b565b15610ea65781610e9e816129c1565b925050610edb565b6000848281518110610eba57610eba61294f565b60200260200101906001600160a01b031690816001600160a01b0316815250505b610ee6600182612a38565b9050610e65565b50806001600160401b03811115610f0657610f0661215c565b604051908082528060200260200182016040528015610f3f57816020015b610f2c6120e8565b815260200190600190039081610f245790505b5093506000805b838110156110845760006001600160a01b0316858281518110610f6b57610f6b61294f565b60200260200101516001600160a01b031614611072576000858281518110610f9557610f9561294f565b602002602001015190506000610fa96116af565b6001600160a01b038316600081815260059290920160209081526040928390208351606081018552815481526001909101546001600160801b0380821683850152600160801b9091041681850152835160a081019094529183529092508101611013610c1b6116af565b81526020018260000151815260200182602001516001600160801b0316815260200182604001516001600160801b0316815250888580611052906129c1565b9650815181106110645761106461294f565b602002602001018190525050505b61107d600182612a38565b9050610f46565b505050505090565b6110946119cb565b6110d15760405162461bcd60e51b815260206004820152600e60248201526d139bdd08185d5d1a1bdc9a5e995960921b604482015260640161061d565b6110da816119e3565b50565b6000806110f36110ec86611b02565b8585611c46565b90506110fd6116af565b6101008601356000908152600791909101602052604090205460ff1615801561112a575061112a81610649565b9150935093915050565b306001600160a01b031663b0d691fe6040518163ffffffff1660e01b8152600401602060405180830381865afa158015611172573d6000803e3d6000fd5b505050506040513d601f19601f8201168201806040525081019061119691906128f1565b6001600160a01b0316336001600160a01b031614806111b957506111b933610649565b6111d55760405162461bcd60e51b815260040161061d9061290e565b6111dd61170b565b6108fd848484848080601f01602080910402602001604051908101604052809392919081815260200183838082843760009201919091525061183492505050565b6060600061122d610e546116af565b8051909150806001600160401b0381111561124a5761124a61215c565b60405190808252806020026020018201604052801561128357816020015b6112706120e8565b8152602001906001900390816112685790505b50925060005b818110156113895760008382815181106112a5576112a561294f565b6020026020010151905060006112b96116af565b6001600160a01b038316600081815260059290920160209081526040928390208351606081018552815481526001909101546001600160801b0380821683850152600160801b9091041681850152835160a081019094529183529092508101611323610c1b6116af565b81526020018260000151815260200182602001516001600160801b0316815260200182604001516001600160801b03168152508684815181106113685761136861294f565b602002602001018190525050506001816113829190612a38565b9050611289565b50505090565b60607f4bc804ba64359c0e35e5ed5d90ee596ecaa49a3a930ddcb1470ea0dd625da90080546113bd90612c1e565b80601f01602080910402602001604051908101604052809291908181526020018280546113e990612c1e565b80156114365780601f1061140b57610100808354040283529160200191611436565b820191906000526020600020905b81548152906001019060200180831161141957829003601f168201915b5050505050905090565b606061145261144d6116af565b6119a9565b905090565b61145f6120e8565b60006114696116af565b6001600160a01b038416600081815260059290920160209081526040928390208351606081018552815481526001909101546001600160801b0380821683850152600160801b9091041681850152835160a0810190945291835290925081016114f46114d36116af565b6001600160a01b0387166000908152600691909101602052604090206119a9565b81526020018260000151815260200182602001516001600160801b0316815260200182604001516001600160801b0316815250915050919050565b60006001600160e01b03198216630271189760e51b148061045f57506301ffc9a760e01b6001600160e01b031983161461045f565b6000306001600160a01b037f0000000000000000000000000000000000000000000000000000000000000000161480156115bd57507f000000000000000000000000000000000000000000000000000000000000000046145b156115e757507f000000000000000000000000000000000000000000000000000000000000000090565b50604080517f00000000000000000000000000000000000000000000000000000000000000006020808301919091527f0000000000000000000000000000000000000000000000000000000000000000828401527f000000000000000000000000000000000000000000000000000000000000000060608301524660808301523060a0808401919091528351808403909101815260c0909201909252805191012090565b600080600061169a8585611ca0565b915091506116a781611ce5565b509392505050565b7f3181e78fc1b109bc611fd2406150bf06e33faa75f71cba12c3e1fd670f2def0090565b6001600160a01b03811660009081526001830160205260408120541515610e3e565b600061045f825490565b6000610e3e8383611e2f565b6000306001600160a01b031663c45a01556040518163ffffffff1660e01b8152600401602060405180830381865afa15801561174b573d6000803e3d6000fd5b505050506040513d601f19601f8201168201806040525081019061176f91906128f1565b60405163c3c5a54760e01b815230600482015290915081906001600160a01b0382169063c3c5a54790602401602060405180830381865afa1580156117b8573d6000803e3d6000fd5b505050506040513d601f19601f820116820180604052508101906117dc9190612c58565b611830577f036f52c1827dab135f7fd44ca0bddde297e2f659c710e0ec53e975f22b548301546040516320e80fe360e21b815260048101919091526001600160a01b038216906383a03f8c906024016109a1565b5050565b60606000846001600160a01b031684846040516118519190612c7a565b60006040518083038185875af1925050503d806000811461188e576040519150601f19603f3d011682016040523d82523d6000602084013e611893565b606091505b5092509050806116a757815160208301fd5b6118ae33610649565b6118e35760405162461bcd60e51b815260206004820152600660248201526510b0b236b4b760d11b604482015260640161061d565b565b806118ee6116af565b6001600160a01b038416600090815260049190910160205260409020805460ff19169115159190911790558015611937576119318261192b6116af565b90611994565b5061194b565b611949826119436116af565b906119b6565b505b816001600160a01b03167f235bc17e7930760029e9f4d860a2a8089976de5b381cf8380fc11c1d88a1113382604051611988911515815260200190565b60405180910390a25050565b6000610e3e836001600160a01b038416611e59565b60606000610e3e83611ea8565b6000610e3e836001600160a01b038416611f04565b60006119d633610649565b8061145257505030331490565b60007f4bc804ba64359c0e35e5ed5d90ee596ecaa49a3a930ddcb1470ea0dd625da9008054611a1190612c1e565b80601f0160208091040260200160405190810160405280929190818152602001828054611a3d90612c1e565b8015611a8a5780601f10611a5f57610100808354040283529160200191611a8a565b820191906000526020600020905b815481529060010190602001808311611a6d57829003601f168201915b5050505050905081611ab97f4bc804ba64359c0e35e5ed5d90ee596ecaa49a3a930ddcb1470ea0dd625da90090565b90611ac49082612ce1565b507fc9c7c3fe08b88b4df9d4d47ef47d2c43d55c025a0ba88ca442580ed9e7348a168183604051611af6929190612da0565b60405180910390a15050565b60607f3fd4a1a1a267c84185e3b7eecd57c68783c0581d538b9d6e5f23e4670497c1e9611b326020840184612323565b611b426040850160208601612a1d565b611b4f6040860186612a4b565b604051602001611b60929190612dce565b60408051601f1981840301815291905280516020909101206060860135611b8d60a08801608089016129f1565b611b9d60c0890160a08a016129f1565b611bad60e08a0160c08b016129f1565b611bbe6101008b0160e08c016129f1565b60408051602081019a909a526001600160a01b039098169789019790975260ff9095166060880152608087019390935260a08601919091526001600160801b0390811660c086015290811660e0850152908116610100848101919091529116610120830152830135610140820152610160016040516020818303038152906040529050919050565b6000611c9883838080601f0160208091040260200160405190810160405280939291908181526020018383808284376000920191909152505087516020890120611c9292509050611ff7565b9061168b565b949350505050565b6000808251604103611cd65760208301516040840151606085015160001a611cca87828585612024565b94509450505050611cde565b506000905060025b9250929050565b6000816004811115611cf957611cf9612e10565b03611d015750565b6001816004811115611d1557611d15612e10565b03611d625760405162461bcd60e51b815260206004820152601860248201527f45434453413a20696e76616c6964207369676e61747572650000000000000000604482015260640161061d565b6002816004811115611d7657611d76612e10565b03611dc35760405162461bcd60e51b815260206004820152601f60248201527f45434453413a20696e76616c6964207369676e6174757265206c656e67746800604482015260640161061d565b6003816004811115611dd757611dd7612e10565b036110da5760405162461bcd60e51b815260206004820152602260248201527f45434453413a20696e76616c6964207369676e6174757265202773272076616c604482015261756560f01b606482015260840161061d565b6000826000018281548110611e4657611e4661294f565b9060005260206000200154905092915050565b6000818152600183016020526040812054611ea05750815460018181018455600084815260208082209093018490558454848252828601909352604090209190915561045f565b50600061045f565b606081600001805480602002602001604051908101604052809291908181526020018280548015611ef857602002820191906000526020600020905b815481526020019060010190808311611ee4575b50505050509050919050565b60008181526001830160205260408120548015611fed576000611f28600183612e26565b8554909150600090611f3c90600190612e26565b9050818114611fa1576000866000018281548110611f5c57611f5c61294f565b9060005260206000200154905080876000018481548110611f7f57611f7f61294f565b6000918252602080832090910192909255918252600188019052604090208390555b8554869080611fb257611fb2612e39565b60019003818190600052602060002001600090559055856001016000868152602001908152602001600020600090556001935050505061045f565b600091505061045f565b600061045f612004611564565b8360405161190160f01b8152600281019290925260228201526042902090565b6000807f7fffffffffffffffffffffffffffffff5d576e7357a4501ddfe92f46681b20a083111561205b57506000905060036120df565b6040805160008082526020820180845289905260ff881692820192909252606081018690526080810185905260019060a0016020604051602081039080840390855afa1580156120af573d6000803e3d6000fd5b5050604051601f1901519150506001600160a01b0381166120d8576000600192509250506120df565b9150600090505b94509492505050565b6040518060a0016040528060006001600160a01b03168152602001606081526020016000815260200160006001600160801b0316815260200160006001600160801b031681525090565b60006020828403121561214457600080fd5b81356001600160e01b031981168114610e3e57600080fd5b634e487b7160e01b600052604160045260246000fd5b604051601f8201601f191681016001600160401b038111828210171561219a5761219a61215c565b604052919050565b60006001600160401b038311156121bb576121bb61215c565b6121ce601f8401601f1916602001612172565b90508281528383830111156121e257600080fd5b828260208301376000602084830101529392505050565b600082601f83011261220a57600080fd5b610e3e838335602085016121a2565b60006020828403121561222b57600080fd5b81356001600160401b0381111561224157600080fd5b611c98848285016121f9565b6001600160a01b03811681146110da57600080fd5b803561226d8161224d565b919050565b6000806000806080858703121561228857600080fd5b84356122938161224d565b935060208501356122a38161224d565b92506040850135915060608501356001600160401b038111156122c557600080fd5b6122d1878288016121f9565b91505092959194509250565b600080604083850312156122f057600080fd5b8235915060208301356001600160401b0381111561230d57600080fd5b612319858286016121f9565b9150509250929050565b60006020828403121561233557600080fd5b8135610e3e8161224d565b60008083601f84011261235257600080fd5b5081356001600160401b0381111561236957600080fd5b6020830191508360208260051b8501011115611cde57600080fd5b6000806000806000806060878903121561239d57600080fd5b86356001600160401b03808211156123b457600080fd5b6123c08a838b01612340565b909850965060208901359150808211156123d957600080fd5b6123e58a838b01612340565b909650945060408901359150808211156123fe57600080fd5b5061240b89828a01612340565b979a9699509497509295939492505050565b6000806040838503121561243057600080fd5b823561243b8161224d565b946020939093013593505050565b60008083601f84011261245b57600080fd5b5081356001600160401b0381111561247257600080fd5b602083019150836020828501011115611cde57600080fd5b60008060006040848603121561249f57600080fd5b83356001600160401b03808211156124b657600080fd5b9085019061012082880312156124cb57600080fd5b909350602085013590808211156124e157600080fd5b506124ee86828701612449565b9497909650939450505050565b80516001600160a01b03908116835260208083015160a082860181905281519086018190526000939183019290849060c08801905b8083101561255257855185168252948301946001929092019190830190612530565b50604087015160408901526060870151945061257960608901866001600160801b03169052565b6080870151945061259560808901866001600160801b03169052565b979650505050505050565b6000602080830181845280855180835260408601915060408160051b870101925083870160005b828110156125f557603f198886030184526125e38583516124fb565b945092850192908501906001016125c7565b5092979650505050505050565b60006020828403121561261457600080fd5b81356001600160401b0381111561262a57600080fd5b8201601f8101841361263b57600080fd5b611c98848235602084016121a2565b6000806000806060858703121561266057600080fd5b843561266b8161224d565b93506020850135925060408501356001600160401b0381111561268d57600080fd5b61269987828801612449565b95989497509550505050565b600082601f8301126126b657600080fd5b813560206001600160401b038211156126d1576126d161215c565b8160051b6126e0828201612172565b92835284810182019282810190878511156126fa57600080fd5b83870192505b8483101561259557823582529183019190830190612700565b600080600080600060a0868803121561273157600080fd5b853561273c8161224d565b9450602086013561274c8161224d565b935060408601356001600160401b038082111561276857600080fd5b61277489838a016126a5565b9450606088013591508082111561278a57600080fd5b61279689838a016126a5565b935060808801359150808211156127ac57600080fd5b506127b9888289016121f9565b9150509295509295909350565b60005b838110156127e15781810151838201526020016127c9565b50506000910152565b600081518084526128028160208601602086016127c6565b601f01601f19169290920160200192915050565b602081526000610e3e60208301846127ea565b6020808252825182820181905260009190848201906040850190845b8181101561286a5783516001600160a01b031683529284019291840191600101612845565b50909695505050505050565b602081526000610e3e60208301846124fb565b600080600080600060a086880312156128a157600080fd5b85356128ac8161224d565b945060208601356128bc8161224d565b9350604086013592506060860135915060808601356001600160401b038111156128e557600080fd5b6127b9888289016121f9565b60006020828403121561290357600080fd5b8151610e3e8161224d565b60208082526021908201527f4163636f756e743a206e6f742061646d696e206f7220456e747279506f696e746040820152601760f91b606082015260800190565b634e487b7160e01b600052603260045260246000fd5b6000808335601e1984360301811261297c57600080fd5b8301803591506001600160401b0382111561299657600080fd5b602001915036819003821315611cde57600080fd5b634e487b7160e01b600052601160045260246000fd5b6000600182016129d3576129d36129ab565b5060010190565b80356001600160801b038116811461226d57600080fd5b600060208284031215612a0357600080fd5b610e3e826129da565b803560ff8116811461226d57600080fd5b600060208284031215612a2f57600080fd5b610e3e82612a0c565b8082018082111561045f5761045f6129ab565b6000808335601e19843603018112612a6257600080fd5b8301803591506001600160401b03821115612a7c57600080fd5b6020019150600581901b3603821315611cde57600080fd5b6000808335601e19843603018112612aab57600080fd5b83016020810192503590506001600160401b03811115612aca57600080fd5b8060051b3603821315611cde57600080fd5b8183526000602080850194508260005b85811015612b1a578135612aff8161224d565b6001600160a01b031687529582019590820190600101612aec565b509495945050505050565b60208152612b4660208201612b3984612262565b6001600160a01b03169052565b6000612b5460208401612a0c565b60ff8116604084015250612b6b6040840184612a94565b610120806060860152612b8361014086018385612adc565b925060608601356080860152612b9b608087016129da565b6001600160801b03811660a08701529150612bb860a087016129da565b6001600160801b03811660c08701529150612bd560c087016129da565b6001600160801b03811660e08701529150612bf260e087016129da565b9150610100612c0b818701846001600160801b03169052565b9590950135939094019290925250919050565b600181811c90821680612c3257607f821691505b602082108103612c5257634e487b7160e01b600052602260045260246000fd5b50919050565b600060208284031215612c6a57600080fd5b81518015158114610e3e57600080fd5b60008251612c8c8184602087016127c6565b9190910192915050565b601f821115612cdc57600081815260208120601f850160051c81016020861015612cbd5750805b601f850160051c820191505b818110156109cf57828155600101612cc9565b505050565b81516001600160401b03811115612cfa57612cfa61215c565b612d0e81612d088454612c1e565b84612c96565b602080601f831160018114612d435760008415612d2b5750858301515b600019600386901b1c1916600185901b1785556109cf565b600085815260208120601f198616915b82811015612d7257888601518255948401946001909101908401612d53565b5085821015612d905787850151600019600388901b60f8161c191681555b5050505050600190811b01905550565b604081526000612db360408301856127ea565b8281036020840152612dc581856127ea565b95945050505050565b60008184825b85811015612e05578135612de78161224d565b6001600160a01b031683526020928301929190910190600101612dd4565b509095945050505050565b634e487b7160e01b600052602160045260246000fd5b8181038181111561045f5761045f6129ab565b634e487b7160e01b600052603160045260246000fdfea264697066735822122005a911485a91b55d848d2ddb5f61a2d14e5159ad7dfce6a64f2e26e444df57a464736f6c63430008140033",
    "linkReferences": {}
  },
  "methodIdentifiers": {
    "addDeposit()": "4a58db19",
    "contractURI()": "e8a3d485",
    "execute(address,uint256,bytes)": "b61d27f6",
    "executeBatch(address[],uint256[],bytes[])": "47e1da2a",
    "getAllActiveSigners()": "8b52d723",
    "getAllAdmins()": "e9523c97",
    "getAllSigners()": "d42f2f35",
    "getMessageHash(bytes)": "0a1028c4",
    "getPermissionsForSigner(address)": "f15d424e",
    "isActiveSigner(address)": "7dff5a79",
    "isAdmin(address)": "24d7806c",
    "isValidSignature(bytes32,bytes)": "1626ba7e",
    "onERC1155BatchReceived(address,address,uint256[],uint256[],bytes)": "bc197c81",
    "onERC1155Received(address,address,uint256,uint256,bytes)": "f23a6e61",
    "onERC721Received(address,address,uint256,bytes)": "150b7a02",
    "setContractURI(string)": "938e3d7b",
    "setPermissionsForSigner((address,uint8,address[],uint256,uint128,uint128,uint128,uint128,bytes32),bytes)": "5892e236",
    "supportsInterface(bytes4)": "01ffc9a7",
    "verifySignerPermissionRequest((address,uint8,address[],uint256,uint128,uint128,uint128,uint128,bytes32),bytes)": "a9082d84",
    "withdrawDepositTo(address,uint256)": "4d44560d"
  },
  "id": 58
}