{
  "abi": [
    {
      "inputs": [
        {
          "internalType": "address",
          "name": "_defaultAdmin",
          "type": "address"
        },
        {
          "internalType": "contract IEntryPoint",
          "name": "_entrypoint",
          "type": "address"
        }
      ],
      "stateMutability": "nonpayable",
      "type": "constructor"
    },
    {
      "inputs": [],
      "name": "OnlySimulatedBackend",
      "type": "error"
    },
    {
      "anonymous": false,
      "inputs": [
        {
          "indexed": true,
          "internalType": "address",
          "name": "account",
          "type": "address"
        },
        {
          "indexed": true,
          "internalType": "address",
          "name": "accountAdmin",
          "type": "address"
        }
      ],
      "name": "AccountCreated",
      "type": "event"
    },
    {
      "anonymous": false,
      "inputs": [
        {
          "indexed": false,
          "internalType": "string",
          "name": "prevURI",
          "type": "string"
        },
        {
          "indexed": false,
          "internalType": "string",
          "name": "newURI",
          "type": "string"
        }
      ],
      "name": "ContractURIUpdated",
      "type": "event"
    },
    {
      "anonymous": false,
      "inputs": [
        {
          "indexed": true,
          "internalType": "bytes32",
          "name": "role",
          "type": "bytes32"
        },
        {
          "indexed": true,
          "internalType": "bytes32",
          "name": "previousAdminRole",
          "type": "bytes32"
        },
        {
          "indexed": true,
          "internalType": "bytes32",
          "name": "newAdminRole",
          "type": "bytes32"
        }
      ],
      "name": "RoleAdminChanged",
      "type": "event"
    },
    {
      "anonymous": false,
      "inputs": [
        {
          "indexed": true,
          "internalType": "bytes32",
          "name": "role",
          "type": "bytes32"
        },
        {
          "indexed": true,
          "internalType": "address",
          "name": "account",
          "type": "address"
        },
        {
          "indexed": true,
          "internalType": "address",
          "name": "sender",
          "type": "address"
        }
      ],
      "name": "RoleGranted",
      "type": "event"
    },
    {
      "anonymous": false,
      "inputs": [
        {
          "indexed": true,
          "internalType": "bytes32",
          "name": "role",
          "type": "bytes32"
        },
        {
          "indexed": true,
          "internalType": "address",
          "name": "account",
          "type": "address"
        },
        {
          "indexed": true,
          "internalType": "address",
          "name": "sender",
          "type": "address"
        }
      ],
      "name": "RoleRevoked",
      "type": "event"
    },
    {
      "anonymous": false,
      "inputs": [
        {
          "indexed": true,
          "internalType": "address",
          "name": "account",
          "type": "address"
        },
        {
          "indexed": true,
          "internalType": "address",
          "name": "signer",
          "type": "address"
        }
      ],
      "name": "SignerAdded",
      "type": "event"
    },
    {
      "anonymous": false,
      "inputs": [
        {
          "indexed": true,
          "internalType": "address",
          "name": "account",
          "type": "address"
        },
        {
          "indexed": true,
          "internalType": "address",
          "name": "signer",
          "type": "address"
        }
      ],
      "name": "SignerRemoved",
      "type": "event"
    },
    {
      "inputs": [],
      "name": "DEFAULT_ADMIN_ROLE",
      "outputs": [
        {
          "internalType": "bytes32",
          "name": "",
          "type": "bytes32"
        }
      ],
      "stateMutability": "view",
      "type": "function"
    },
    {
      "inputs": [],
      "name": "accountImplementation",
      "outputs": [
        {
          "internalType": "address",
          "name": "",
          "type": "address"
        }
      ],
      "stateMutability": "view",
      "type": "function"
    },
    {
      "inputs": [
        {
          "internalType": "bytes",
          "name": "",
          "type": "bytes"
        }
      ],
      "name": "checkUpkeep",
      "outputs": [
        {
          "internalType": "bool",
          "name": "upkeepNeeded",
          "type": "bool"
        },
        {
          "internalType": "bytes",
          "name": "performData",
          "type": "bytes"
        }
      ],
      "stateMutability": "view",
      "type": "function"
    },
    {
      "inputs": [],
      "name": "contractURI",
      "outputs": [
        {
          "internalType": "string",
          "name": "",
          "type": "string"
        }
      ],
      "stateMutability": "view",
      "type": "function"
    },
    {
      "inputs": [
        {
          "internalType": "address",
          "name": "_admin",
          "type": "address"
        },
        {
          "internalType": "bytes",
          "name": "_data",
          "type": "bytes"
        }
      ],
      "name": "createAccount",
      "outputs": [
        {
          "internalType": "address",
          "name": "",
          "type": "address"
        }
      ],
      "stateMutability": "nonpayable",
      "type": "function"
    },
    {
      "inputs": [],
      "name": "entrypoint",
      "outputs": [
        {
          "internalType": "address",
          "name": "",
          "type": "address"
        }
      ],
      "stateMutability": "view",
      "type": "function"
    },
    {
      "inputs": [
        {
          "internalType": "uint256",
          "name": "_start",
          "type": "uint256"
        },
        {
          "internalType": "uint256",
          "name": "_end",
          "type": "uint256"
        }
      ],
      "name": "getAccounts",
      "outputs": [
        {
          "internalType": "address[]",
          "name": "accounts",
          "type": "address[]"
        }
      ],
      "stateMutability": "view",
      "type": "function"
    },
    {
      "inputs": [
        {
          "internalType": "address",
          "name": "signer",
          "type": "address"
        }
      ],
      "name": "getAccountsOfSigner",
      "outputs": [
        {
          "internalType": "address[]",
          "name": "accounts",
          "type": "address[]"
        }
      ],
      "stateMutability": "view",
      "type": "function"
    },
    {
      "inputs": [
        {
          "internalType": "address",
          "name": "_adminSigner",
          "type": "address"
        },
        {
          "internalType": "bytes",
          "name": "_data",
          "type": "bytes"
        }
      ],
      "name": "getAddress",
      "outputs": [
        {
          "internalType": "address",
          "name": "",
          "type": "address"
        }
      ],
      "stateMutability": "view",
      "type": "function"
    },
    {
      "inputs": [],
      "name": "getAllAccounts",
      "outputs": [
        {
          "internalType": "address[]",
          "name": "",
          "type": "address[]"
        }
      ],
      "stateMutability": "view",
      "type": "function"
    },
    {
      "inputs": [
        {
          "internalType": "bytes32",
          "name": "role",
          "type": "bytes32"
        }
      ],
      "name": "getRoleAdmin",
      "outputs": [
        {
          "internalType": "bytes32",
          "name": "",
          "type": "bytes32"
        }
      ],
      "stateMutability": "view",
      "type": "function"
    },
    {
      "inputs": [
        {
          "internalType": "bytes32",
          "name": "role",
          "type": "bytes32"
        },
        {
          "internalType": "uint256",
          "name": "index",
          "type": "uint256"
        }
      ],
      "name": "getRoleMember",
      "outputs": [
        {
          "internalType": "address",
          "name": "member",
          "type": "address"
        }
      ],
      "stateMutability": "view",
      "type": "function"
    },
    {
      "inputs": [
        {
          "internalType": "bytes32",
          "name": "role",
          "type": "bytes32"
        }
      ],
      "name": "getRoleMemberCount",
      "outputs": [
        {
          "internalType": "uint256",
          "name": "count",
          "type": "uint256"
        }
      ],
      "stateMutability": "view",
      "type": "function"
    },
    {
      "inputs": [
        {
          "internalType": "bytes32",
          "name": "role",
          "type": "bytes32"
        },
        {
          "internalType": "address",
          "name": "account",
          "type": "address"
        }
      ],
      "name": "grantRole",
      "outputs": [],
      "stateMutability": "nonpayable",
      "type": "function"
    },
    {
      "inputs": [
        {
          "internalType": "bytes32",
          "name": "role",
          "type": "bytes32"
        },
        {
          "internalType": "address",
          "name": "account",
          "type": "address"
        }
      ],
      "name": "hasRole",
      "outputs": [
        {
          "internalType": "bool",
          "name": "",
          "type": "bool"
        }
      ],
      "stateMutability": "view",
      "type": "function"
    },
    {
      "inputs": [
        {
          "internalType": "bytes32",
          "name": "role",
          "type": "bytes32"
        },
        {
          "internalType": "address",
          "name": "account",
          "type": "address"
        }
      ],
      "name": "hasRoleWithSwitch",
      "outputs": [
        {
          "internalType": "bool",
          "name": "",
          "type": "bool"
        }
      ],
      "stateMutability": "view",
      "type": "function"
    },
    {
      "inputs": [
        {
          "internalType": "address",
          "name": "_upkeep",
          "type": "address"
        }
      ],
      "name": "initializeUpkeepAndRouter",
      "outputs": [],
      "stateMutability": "nonpayable",
      "type": "function"
    },
    {
      "inputs": [
        {
          "internalType": "address",
          "name": "_account",
          "type": "address"
        }
      ],
      "name": "isRegistered",
      "outputs": [
        {
          "internalType": "bool",
          "name": "",
          "type": "bool"
        }
      ],
      "stateMutability": "view",
      "type": "function"
    },
    {
      "inputs": [
        {
          "internalType": "bytes[]",
          "name": "data",
          "type": "bytes[]"
        }
      ],
      "name": "multicall",
      "outputs": [
        {
          "internalType": "bytes[]",
          "name": "results",
          "type": "bytes[]"
        }
      ],
      "stateMutability": "nonpayable",
      "type": "function"
    },
    {
      "inputs": [
        {
          "internalType": "bytes32",
          "name": "_salt",
          "type": "bytes32"
        }
      ],
      "name": "onRegister",
      "outputs": [],
      "stateMutability": "nonpayable",
      "type": "function"
    },
    {
      "inputs": [
        {
          "internalType": "address",
          "name": "_signer",
          "type": "address"
        },
        {
          "internalType": "bytes32",
          "name": "_salt",
          "type": "bytes32"
        }
      ],
      "name": "onSignerAdded",
      "outputs": [],
      "stateMutability": "nonpayable",
      "type": "function"
    },
    {
      "inputs": [
        {
          "internalType": "address",
          "name": "_signer",
          "type": "address"
        },
        {
          "internalType": "bytes32",
          "name": "_salt",
          "type": "bytes32"
        }
      ],
      "name": "onSignerRemoved",
      "outputs": [],
      "stateMutability": "nonpayable",
      "type": "function"
    },
    {
      "inputs": [
        {
          "internalType": "bytes",
          "name": "performData",
          "type": "bytes"
        }
      ],
      "name": "performUpkeep",
      "outputs": [],
      "stateMutability": "nonpayable",
      "type": "function"
    },
    {
      "inputs": [
        {
          "internalType": "bytes32",
          "name": "role",
          "type": "bytes32"
        },
        {
          "internalType": "address",
          "name": "account",
          "type": "address"
        }
      ],
      "name": "renounceRole",
      "outputs": [],
      "stateMutability": "nonpayable",
      "type": "function"
    },
    {
      "inputs": [
        {
          "internalType": "bytes32",
          "name": "role",
          "type": "bytes32"
        },
        {
          "internalType": "address",
          "name": "account",
          "type": "address"
        }
      ],
      "name": "revokeRole",
      "outputs": [],
      "stateMutability": "nonpayable",
      "type": "function"
    },
    {
      "inputs": [
        {
          "internalType": "string",
          "name": "_uri",
          "type": "string"
        }
      ],
      "name": "setContractURI",
      "outputs": [],
      "stateMutability": "nonpayable",
      "type": "function"
    },
    {
      "inputs": [],
      "name": "totalAccounts",
      "outputs": [
        {
          "internalType": "uint256",
          "name": "",
          "type": "uint256"
        }
      ],
      "stateMutability": "view",
      "type": "function"
    }
  ],
  "bytecode": {
    "object": "0x600680546001600160a01b03191673c4bf5cbdabe595361438f8c6a187bdc330539c601790556101006040527394a9d9ac8a22534e3faca9f4e7f2e2cf85d5e4c860c090815273aa8e23fb1079ea71e0a56f48a2aa51851d8433d060e0526200006d906007906002620002da565b503480156200007b57600080fd5b5060405162007d7c38038062007d7c8339810160408190526200009e9162000382565b8030604051620000ae9062000344565b6001600160a01b03928316815291166020820152604001604051809103906000f080158015620000e2573d6000803e3d6000fd5b506001600160a01b03908116608052811660a052620001036000836200010b565b505062000409565b62000117828262000127565b620001238282620001a1565b5050565b60008281527f0a7b0f5c59907924802379ebe98cdc23e2ee7820f63d30126e10b3752010e500602090815260408083206001600160a01b0385168085529252808320805460ff1916600117905551339285917f2f8788117e7eff1d82e926ec794901d17c78024a50270940304540a733656f0d9190a45050565b6000620001ad6200026f565b6000848152602091909152604090205490506001620001cb6200026f565b6000858152602091909152604081208054909190620001ec908490620003d7565b90915550829050620001fd6200026f565b6000858152602091825260408082208583526001019092522080546001600160a01b0319166001600160a01b0392909216919091179055806200023f6200026f565b6000948552602090815260408086206001600160a01b03909516865260029094019052919092205550565b905090565b60006200026a60008060ff19620002a860017f0c4ba382c0009cf238e4c1ca1a52f51c61e6248a70bdfb34e5ed49d5578a5c0c620003f3565b604051602001620002bb91815260200190565b60408051601f1981840301815291905280516020909101201692915050565b82805482825590600052602060002090810192821562000332579160200282015b828111156200033257825182546001600160a01b0319166001600160a01b03909116178255602090920191600190910190620002fb565b506200034092915062000352565b5090565b614de58062002f9783390190565b5b8082111562000340576000815560010162000353565b6001600160a01b03811681146200037f57600080fd5b50565b600080604083850312156200039657600080fd5b8251620003a38162000369565b6020840151909250620003b68162000369565b809150509250929050565b634e487b7160e01b600052601160045260246000fd5b80820180821115620003ed57620003ed620003c1565b92915050565b81810381811115620003ed57620003ed620003c1565b60805160a051612b4c6200044b600039600081816103840152610f0e0152600081816101f90152818161086a01528181610e6a01526111a70152612b4c6000f3fe608060405234801561001057600080fd5b50600436106101a95760003560e01c806391d14854116100f9578063ac9650d811610097578063d547741f11610071578063d547741f146103ff578063d8fd8f4414610412578063e68a7c3b14610425578063e8a3d4851461043857600080fd5b8063ac9650d8146103b9578063c3c5a547146103d9578063ca15c873146103ec57600080fd5b8063a217fddf116100d3578063a217fddf14610364578063a32fa5b31461036c578063a65d69d41461037f578063a9709e15146103a657600080fd5b806391d148541461031b5780639387a3801461033e578063938e3d7b1461035157600080fd5b806336568abe116101665780636e04ff0d116101405780636e04ff0d146102c157806383a03f8c146102e25780638878ed33146102f55780639010d07c1461030857600080fd5b806336568abe146102935780634585e33b146102a657806358451f97146102b957600080fd5b806308e93d0a146101ae5780630b61e12b146101cc5780630e6254fd146101e157806311464fbe146101f4578063248a9ca3146102335780632f2ff15d14610280575b600080fd5b6101b661044d565b6040516101c3919061219c565b60405180910390f35b6101df6101da3660046121c4565b61045e565b005b6101b66101ef3660046121f0565b6104ff565b61021b7f000000000000000000000000000000000000000000000000000000000000000081565b6040516001600160a01b0390911681526020016101c3565b61027261024136600461220d565b60009081527f0a7b0f5c59907924802379ebe98cdc23e2ee7820f63d30126e10b3752010e501602052604090205490565b6040519081526020016101c3565b6101df61028e366004612226565b610529565b6101df6102a1366004612226565b6105e2565b6101df6102b436600461229e565b610644565b6102726107af565b6102d46102cf36600461229e565b6107bb565b6040516101c392919061232f565b6101df6102f036600461220d565b6107d2565b61021b61030336600461234a565b610820565b61021b61031636600461239e565b61089a565b61032e610329366004612226565b6109a8565b60405190151581526020016101c3565b6101df61034c3660046121c4565b6109e0565b6101df61035f366004612406565b610a77565b610272600081565b61032e61037a366004612226565b610ac8565b61021b7f000000000000000000000000000000000000000000000000000000000000000081565b6101df6103b43660046121f0565b610b39565b6103cc6103c736600461249a565b610c3f565b6040516101c3919061250e565b61032e6103e73660046121f0565b610da5565b6102726103fa36600461220d565b610db1565b6101df61040d366004612226565b610e4e565b61021b61042036600461234a565b610e65565b6101b661043336600461239e565b610fb0565b6104406110e1565b6040516101c39190612570565b60606104596000611192565b905090565b33610469818361119f565b61048e5760405162461bcd60e51b815260040161048590612583565b60405180910390fd5b6001600160a01b03831660009081526002602052604081206104b090836111e3565b905080156104f957836001600160a01b0316826001600160a01b03167f12146497b3b826918ec47f0cac7272a09ed06b30c16c030e99ec48ff5dd60b4760405160405180910390a35b50505050565b6001600160a01b038116600090815260026020526040902060609061052390611192565b92915050565b610555600080516020612af78339815191525b60008481526001919091016020526040902054336111f8565b600080516020612af78339815191526000838152602091825260408082206001600160a01b0385168352909252205460ff16156105d45760405162461bcd60e51b815260206004820152601d60248201527f43616e206f6e6c79206772616e7420746f206e6f6e20686f6c646572730000006044820152606401610485565b6105de8282611284565b5050565b336001600160a01b0382161461063a5760405162461bcd60e51b815260206004820152601a60248201527f43616e206f6e6c792072656e6f756e636520666f722073656c660000000000006044820152606401610485565b6105de8282611298565b6004546001600160a01b031633146106945760405162461bcd60e51b815260206004820152601360248201527213db9b1e481d5c1ad9595c08185b1b1bddd959606a1b6044820152606401610485565b600080806106a4848601866125cf565b92509250925060005b825181101561074d57836001600160a01b0316633dd6e0258483815181106106d7576106d76126a5565b60200260200101516040518263ffffffff1660e01b815260040161070a91906001600160a01b0391909116815260200190565b600060405180830381600087803b15801561072457600080fd5b505af1158015610738573d6000803e3d6000fd5b5050505080610746906126d1565b90506106ad565b5080156107a857826001600160a01b031663b28362776040518163ffffffff1660e01b8152600401600060405180830381600087803b15801561078f57600080fd5b505af11580156107a3573d6000803e3d6000fd5b505050505b5050505050565b600061045960006112ac565b600060606107c76112b6565b909590945092505050565b336107dd818361119f565b6107f95760405162461bcd60e51b815260040161048590612583565b6108046000826111e3565b6105de5760405162461bcd60e51b8152600401610485906126ea565b6000806108638585858080601f01602080910402602001604051908101604052809392919081815260200183838082843760009201919091525061171692505050565b905061088f7f000000000000000000000000000000000000000000000000000000000000000082611749565b9150505b9392505050565b6000806108a56117a9565b600085815260209190915260408120549150805b8281101561099f5760006108cb6117a9565b60008881526020918252604080822085835260010190925220546001600160a01b03161461094357848203610931576109026117a9565b600087815260209182526040808220938252600190930190915220546001600160a01b03169250610523915050565b61093c600183612734565b915061098d565b61094e8660006109a8565b801561097a575061095d6117a9565b600087815260209182526040808220828052600201909252205481145b1561098d5761098a600183612734565b91505b610998600182612734565b90506108b9565b50505092915050565b6000918252600080516020612af7833981519152602090815260408084206001600160a01b0393909316845291905290205460ff1690565b336109eb818361119f565b610a075760405162461bcd60e51b815260040161048590612583565b6001600160a01b0383166000908152600260205260408120610a2990836117b3565b905080156104f957836001600160a01b0316826001600160a01b03167f98d1ebbe00ae92a5de96a0f49742a8afa89f42363592bc2e7cfaaed68b45e7a660405160405180910390a350505050565b610a7f6117c8565b610abc5760405162461bcd60e51b815260206004820152600e60248201526d139bdd08185d5d1a1bdc9a5e995960921b6044820152606401610485565b610ac5816117d4565b50565b6000600080516020612af7833981519152600084815260209182526040808220828052909252205460ff16610b3057600080516020612af78339815191526000848152602091825260408082206001600160a01b0386168352909252205460ff169050610523565b50600192915050565b6003546001600160a01b03163314610b885760405162461bcd60e51b815260206004820152601260248201527113db9b1e481bdddb995c88185b1b1bddd95960721b6044820152606401610485565b6004546001600160a01b031615610bd75760405162461bcd60e51b8152602060048201526013602482015272105b1c9958591e481a5b9a5d1a585b1a5e9959606a1b6044820152606401610485565b6003546001600160a01b03163314610c1d5760405162461bcd60e51b81526020600482015260096024820152682737ba1037bbb732b960b91b6044820152606401610485565b600480546001600160a01b0319166001600160a01b0392909216919091179055565b6060816001600160401b03811115610c5957610c596123c0565b604051908082528060200260200182016040528015610c8c57816020015b6060815260200190600190039081610c775790505b509050336000805b8481101561099f578115610d1357610cf130878784818110610cb857610cb86126a5565b9050602002810190610cca9190612747565b86604051602001610cdd9392919061278d565b6040516020818303038152906040526118f3565b848281518110610d0357610d036126a5565b6020026020010181905250610d93565b610d7530878784818110610d2957610d296126a5565b9050602002810190610d3b9190612747565b8080601f0160208091040260200160405190810160405280939291908181526020018383808284376000920191909152506118f392505050565b848281518110610d8757610d876126a5565b60200260200101819052505b80610d9d816126d1565b915050610c94565b60006105238183611918565b600080610dbc6117a9565b6000848152602091909152604081205491505b81811015610e29576000610de16117a9565b60008681526020918252604080822085835260010190925220546001600160a01b031614610e1757610e14600184612734565b92505b610e22600182612734565b9050610dcf565b50610e358360006109a8565b15610e4857610e45600183612734565b91505b50919050565b61063a600080516020612af783398151915261053c565b6000807f000000000000000000000000000000000000000000000000000000000000000090506000610ecd8686868080601f01602080910402602001604051908101604052809392919081815260200183838082843760009201919091525061171692505050565b90506000610edb8383611749565b90506001600160a01b0381163b15610ef7579250610893915050565b610f01838361193a565b9050336001600160a01b037f00000000000000000000000000000000000000000000000000000000000000001614610f5a57610f3e6000826111e3565b610f5a5760405162461bcd60e51b8152600401610485906126ea565b610f66818888886119d7565b866001600160a01b0316816001600160a01b03167fac631f3001b55ea1509cf3d7e74898f85392a61a76e8149181ae1259622dabc860405160405180910390a39695505050505050565b60608183108015610fca5750610fc660006112ac565b8211155b6110225760405162461bcd60e51b815260206004820152602360248201527f426173654163636f756e74466163746f72793a20696e76616c696420696e646960448201526263657360e81b6064820152608401610485565b600061102e84846127b3565b905061103a84846127b3565b6001600160401b03811115611051576110516123c0565b60405190808252806020026020018201604052801561107a578160200160208202803683370190505b50915060005b818110156110d95761109d6110958683612734565b600090611a3f565b8382815181106110af576110af6126a5565b6001600160a01b03909216602092830291909101909101526110d2600182612734565b9050611080565b505092915050565b60607f4bc804ba64359c0e35e5ed5d90ee596ecaa49a3a930ddcb1470ea0dd625da900805461110f906127c6565b80601f016020809104026020016040519081016040528092919081815260200182805461113b906127c6565b80156111885780601f1061115d57610100808354040283529160200191611188565b820191906000526020600020905b81548152906001019060200180831161116b57829003601f168201915b5050505050905090565b6060600061089383611a4b565b6000806111cc7f000000000000000000000000000000000000000000000000000000000000000084611749565b6001600160a01b0385811691161491505092915050565b6000610893836001600160a01b038416611aa7565b600080516020612af78339815191526000838152602091825260408082206001600160a01b0385168352909252205460ff166105de57611242816001600160a01b03166014611af6565b61124d836020611af6565b60405160200161125e9291906127fa565b60408051601f198184030181529082905262461bcd60e51b825261048591600401612570565b61128e8282611c91565b6105de8282611cf9565b6112a28282611db8565b6105de8282611e27565b6000610523825490565b600060606000600780548060200260200160405190810160405280929190818152602001828054801561131257602002820191906000526020600020905b81546001600160a01b031681526001909101906020018083116112f4575b50505050509050600061132361044d565b9050600082516001600160401b03811115611340576113406123c0565b604051908082528060200260200182016040528015611369578160200160208202803683370190505b50905060606000805b845181101561170c5760005b865181101561149d57600087828151811061139b5761139b6126a5565b60200260200101516001600160a01b03166370a082318885815181106113c3576113c36126a5565b60200260200101516040518263ffffffff1660e01b81526004016113f691906001600160a01b0391909116815260200190565b602060405180830381865afa158015611413573d6000803e3d6000fd5b505050506040513d601f19601f820116820180604052508101906114379190612867565b111561148d5786818151811061144f5761144f6126a5565b6020026020010151858481518110611469576114696126a5565b6001600160a01b039092166020928302919091019091015261148a836126d1565b92505b611496816126d1565b905061137e565b5060008582815181106114b2576114b26126a5565b60200260200101516001600160a01b0316634e9eb56e6040518163ffffffff1660e01b8152600401602060405180830381865afa1580156114f7573d6000803e3d6000fd5b505050506040513d601f19601f8201168201806040525081019061151b9190612867565b60065487519192506000916001600160a01b03909116906370a082319089908690811061154a5761154a6126a5565b60200260200101516040518263ffffffff1660e01b815260040161157d91906001600160a01b0391909116815260200190565b602060405180830381865afa15801561159a573d6000803e3d6000fd5b505050506040513d601f19601f820116820180604052508101906115be9190612867565b9050600082821180156115e2575060006115e0670de0b6b3a764000084612880565b115b6115ed5760006115f0565b60015b9050846001600160401b0381111561160a5761160a6123c0565b604051908082528060200260200182016040528015611633578160200160208202803683370190505b50955060005b8581101561169557878181518110611653576116536126a5565b602002602001015187828151811061166d5761166d6126a5565b6001600160a01b039092166020928302919091019091015261168e816126d1565b9050611639565b506000865111806116a35750805b156116f85760018885815181106116bc576116bc6126a5565b602002602001015187836040516020016116d8939291906128a2565b6040516020818303038152906040529a509a505050505050505050509091565b50505080611705906126d1565b9050611372565b5050505050509091565b6000828260405160200161172b9291906128d8565b60405160208183030381529060405280519060200120905092915050565b6040513060388201526f5af43d82803e903d91602b57fd5bf3ff602482015260148101839052733d602d80600a3d3981f3363d3d373d3d3d363d738152605881018290526037600c82012060788201526055604390910120600090610893565b6000610459611eb6565b6000610893836001600160a01b038416611f18565b600061045981336109a8565b60007f4bc804ba64359c0e35e5ed5d90ee596ecaa49a3a930ddcb1470ea0dd625da9008054611802906127c6565b80601f016020809104026020016040519081016040528092919081815260200182805461182e906127c6565b801561187b5780601f106118505761010080835404028352916020019161187b565b820191906000526020600020905b81548152906001019060200180831161185e57829003601f168201915b50505050509050816118aa7f4bc804ba64359c0e35e5ed5d90ee596ecaa49a3a930ddcb1470ea0dd625da90090565b906118b5908261294b565b507fc9c7c3fe08b88b4df9d4d47ef47d2c43d55c025a0ba88ca442580ed9e7348a1681836040516118e7929190612a0a565b60405180910390a15050565b60606108938383604051806060016040528060278152602001612ad06027913961200b565b6001600160a01b03811660009081526001830160205260408120541515610893565b6000763d602d80600a3d3981f3363d3d373d3d3d363d730000008360601b60e81c176000526e5af43d82803e903d91602b57fd5bf38360781b1760205281603760096000f590506001600160a01b0381166105235760405162461bcd60e51b815260206004820152601760248201527f455243313136373a2063726561746532206661696c65640000000000000000006044820152606401610485565b60405163347d5e2560e21b81526001600160a01b0385169063d1f5789490611a0790869086908690600401612a2f565b600060405180830381600087803b158015611a2157600080fd5b505af1158015611a35573d6000803e3d6000fd5b5050505050505050565b60006108938383612083565b606081600001805480602002602001604051908101604052809291908181526020018280548015611a9b57602002820191906000526020600020905b815481526020019060010190808311611a87575b50505050509050919050565b6000818152600183016020526040812054611aee57508154600181810184556000848152602080822090930184905584548482528286019093526040902091909155610523565b506000610523565b60606000611b05836002612a6f565b611b10906002612734565b6001600160401b03811115611b2757611b276123c0565b6040519080825280601f01601f191660200182016040528015611b51576020820181803683370190505b509050600360fc1b81600081518110611b6c57611b6c6126a5565b60200101906001600160f81b031916908160001a905350600f60fb1b81600181518110611b9b57611b9b6126a5565b60200101906001600160f81b031916908160001a9053506000611bbf846002612a6f565b611bca906001612734565b90505b6001811115611c42576f181899199a1a9b1b9c1cb0b131b232b360811b85600f1660108110611bfe57611bfe6126a5565b1a60f81b828281518110611c1457611c146126a5565b60200101906001600160f81b031916908160001a90535060049490941c93611c3b81612a86565b9050611bcd565b5083156108935760405162461bcd60e51b815260206004820181905260248201527f537472696e67733a20686578206c656e67746820696e73756666696369656e746044820152606401610485565b6000828152600080516020612af7833981519152602090815260408083206001600160a01b0385168085529252808320805460ff1916600117905551339285917f2f8788117e7eff1d82e926ec794901d17c78024a50270940304540a733656f0d9190a45050565b6000611d036117a9565b6000848152602091909152604090205490506001611d1f6117a9565b6000858152602091909152604081208054909190611d3e908490612734565b90915550829050611d4d6117a9565b6000858152602091825260408082208583526001019092522080546001600160a01b0319166001600160a01b039290921691909117905580611d8d6117a9565b6000948552602090815260408086206001600160a01b03909516865260029094019052919092205550565b611dc282826111f8565b6000828152600080516020612af7833981519152602090815260408083206001600160a01b0385168085529252808320805460ff1916905551339285917ff6391f5c32d9c69d2a47ea670b442974b53935d1edc7fd64eb21e047a839171b9190a45050565b6000611e316117a9565b6000848152602091825260408082206001600160a01b038616835260020190925220549050611e5e6117a9565b6000848152602091825260408082208483526001019092522080546001600160a01b0319169055611e8d6117a9565b6000938452602090815260408085206001600160a01b0390941685526002909301905250812055565b60008060ff19611ee760017f0c4ba382c0009cf238e4c1ca1a52f51c61e6248a70bdfb34e5ed49d5578a5c0c6127b3565b604051602001611ef991815260200190565b60408051601f1981840301815291905280516020909101201692915050565b60008181526001830160205260408120548015612001576000611f3c6001836127b3565b8554909150600090611f50906001906127b3565b9050818114611fb5576000866000018281548110611f7057611f706126a5565b9060005260206000200154905080876000018481548110611f9357611f936126a5565b6000918252602080832090910192909255918252600188019052604090208390555b8554869080611fc657611fc6612a9d565b600190038181906000526020600020016000905590558560010160008681526020019081526020016000206000905560019350505050610523565b6000915050610523565b6060600080856001600160a01b0316856040516120289190612ab3565b600060405180830381855af49150503d8060008114612063576040519150601f19603f3d011682016040523d82523d6000602084013e612068565b606091505b5091509150612079868383876120ad565b9695505050505050565b600082600001828154811061209a5761209a6126a5565b9060005260206000200154905092915050565b6060831561211c578251600003612115576001600160a01b0385163b6121155760405162461bcd60e51b815260206004820152601d60248201527f416464726573733a2063616c6c20746f206e6f6e2d636f6e74726163740000006044820152606401610485565b5081612126565b612126838361212e565b949350505050565b81511561213e5781518083602001fd5b8060405162461bcd60e51b81526004016104859190612570565b600081518084526020808501945080840160005b838110156121915781516001600160a01b03168752958201959082019060010161216c565b509495945050505050565b6020815260006108936020830184612158565b6001600160a01b0381168114610ac557600080fd5b600080604083850312156121d757600080fd5b82356121e2816121af565b946020939093013593505050565b60006020828403121561220257600080fd5b8135610893816121af565b60006020828403121561221f57600080fd5b5035919050565b6000806040838503121561223957600080fd5b82359150602083013561224b816121af565b809150509250929050565b60008083601f84011261226857600080fd5b5081356001600160401b0381111561227f57600080fd5b60208301915083602082850101111561229757600080fd5b9250929050565b600080602083850312156122b157600080fd5b82356001600160401b038111156122c757600080fd5b6122d385828601612256565b90969095509350505050565b60005b838110156122fa5781810151838201526020016122e2565b50506000910152565b6000815180845261231b8160208601602086016122df565b601f01601f19169290920160200192915050565b82151581526040602082015260006121266040830184612303565b60008060006040848603121561235f57600080fd5b833561236a816121af565b925060208401356001600160401b0381111561238557600080fd5b61239186828701612256565b9497909650939450505050565b600080604083850312156123b157600080fd5b50508035926020909101359150565b634e487b7160e01b600052604160045260246000fd5b604051601f8201601f191681016001600160401b03811182821017156123fe576123fe6123c0565b604052919050565b6000602080838503121561241957600080fd5b82356001600160401b038082111561243057600080fd5b818501915085601f83011261244457600080fd5b813581811115612456576124566123c0565b612468601f8201601f191685016123d6565b9150808252868482850101111561247e57600080fd5b8084840185840137600090820190930192909252509392505050565b600080602083850312156124ad57600080fd5b82356001600160401b03808211156124c457600080fd5b818501915085601f8301126124d857600080fd5b8135818111156124e757600080fd5b8660208260051b85010111156124fc57600080fd5b60209290920196919550909350505050565b6000602080830181845280855180835260408601915060408160051b870101925083870160005b8281101561256357603f19888603018452612551858351612303565b94509285019290850190600101612535565b5092979650505050505050565b6020815260006108936020830184612303565b6020808252601f908201527f4163636f756e74466163746f72793a206e6f7420616e206163636f756e742e00604082015260600190565b803580151581146125ca57600080fd5b919050565b6000806000606084860312156125e457600080fd5b83356125ef816121af565b92506020848101356001600160401b038082111561260c57600080fd5b818701915087601f83011261262057600080fd5b813581811115612632576126326123c0565b8060051b91506126438483016123d6565b818152918301840191848101908a84111561265d57600080fd5b938501935b838510156126875784359250612677836121af565b8282529385019390850190612662565b80975050505050505061269c604085016125ba565b90509250925092565b634e487b7160e01b600052603260045260246000fd5b634e487b7160e01b600052601160045260246000fd5b6000600182016126e3576126e36126bb565b5060010190565b6020808252602a908201527f4163636f756e74466163746f72793a206163636f756e7420616c7265616479206040820152691c9959da5cdd195c995960b21b606082015260800190565b80820180821115610523576105236126bb565b6000808335601e1984360301811261275e57600080fd5b8301803591506001600160401b0382111561277857600080fd5b60200191503681900382131561229757600080fd5b8284823760609190911b6bffffffffffffffffffffffff19169101908152601401919050565b81810381811115610523576105236126bb565b600181811c908216806127da57607f821691505b602082108103610e4857634e487b7160e01b600052602260045260246000fd5b7402832b936b4b9b9b4b7b7399d1030b1b1b7bab73a1605d1b81526000835161282a8160158501602088016122df565b7001034b99036b4b9b9b4b733903937b6329607d1b601591840191820152835161285b8160268401602088016122df565b01602601949350505050565b60006020828403121561287957600080fd5b5051919050565b60008261289d57634e487b7160e01b600052601260045260246000fd5b500690565b6001600160a01b03841681526060602082018190526000906128c690830185612158565b90508215156040830152949350505050565b6001600160a01b038316815260406020820181905260009061212690830184612303565b601f82111561294657600081815260208120601f850160051c810160208610156129235750805b601f850160051c820191505b818110156129425782815560010161292f565b5050505b505050565b81516001600160401b03811115612964576129646123c0565b6129788161297284546127c6565b846128fc565b602080601f8311600181146129ad57600084156129955750858301515b600019600386901b1c1916600185901b178555612942565b600085815260208120601f198616915b828110156129dc578886015182559484019460019091019084016129bd565b50858210156129fa5787850151600019600388901b60f8161c191681555b5050505050600190811b01905550565b604081526000612a1d6040830185612303565b828103602084015261088f8185612303565b6001600160a01b03841681526040602082018190528101829052818360608301376000818301606090810191909152601f909201601f1916010192915050565b8082028115828204841417610523576105236126bb565b600081612a9557612a956126bb565b506000190190565b634e487b7160e01b600052603160045260246000fd5b60008251612ac58184602087016122df565b919091019291505056fe416464726573733a206c6f772d6c6576656c2064656c65676174652063616c6c206661696c65640a7b0f5c59907924802379ebe98cdc23e2ee7820f63d30126e10b3752010e500a2646970667358221220eae2e51dff4dc162334ea30e43f4ce6927b399c0733a759f9e66097a8b955e5164736f6c634300081400336101806040523480156200001257600080fd5b5060405162004de538038062004de5833981016040819052620000359162000274565b60408051808201825260078152661058d8dbdd5b9d60ca1b60208083019182528351808501855260018152603160f81b908201529151902060e08190527fc89efdaa54c0f20c7adf612882df0950f5a951637e0307cdcb4c672f298b8bc66101008190524660a081815285517f8b73c3c69bb8fe3d512ecc4cf759cc79239f7b179b0ffacaa9a75d522b39400f818701819052818801959095526060810193909352608080840192909252308382018190528651808503909201825260c093840190965280519401939093209092529190526101205281816200011762000158565b6001600160a01b039081166101405216610160525050600180546001600160a01b031916331790556005805460ff60a01b1916600160a01b179055620002b3565b7f322cf19c484104d3b1a9c2982ebae869ede3fa5f6c4703ca41b9a48c76ee03005460ff808216916101009004168015620001e95760405162461bcd60e51b815260206004820152602760248201527f496e697469616c697a61626c653a20636f6e747261637420697320696e697469604482015266616c697a696e6760c81b606482015260840160405180910390fd5b60ff828116101562000257577f322cf19c484104d3b1a9c2982ebae869ede3fa5f6c4703ca41b9a48c76ee0300805460ff191660ff90811790915560408051918252517f7f26b83ff96e1f2b6a682f133852f6798a09c465da95921460cefb38474024989181900360200190a15b5050565b6001600160a01b03811681146200027157600080fd5b50565b600080604083850312156200028857600080fd5b825162000295816200025b565b6020840151909250620002a8816200025b565b809150509250929050565b60805160a05160c05160e05161010051610120516101405161016051614aa2620003436000396000611d4f01526000818161062001528181612b9001528181612caf01528181612ce501528181612dad01528181612e230152612e5301526000612704015260006127530152600061272e01526000612687015260006126b1015260006126db0152614aa26000f3fe6080604052600436106102295760003560e01c80639934cdb111610123578063c45a0155116100ab578063e9523c971161006f578063e9523c97146106ae578063ec1afaaa146106d0578063f15d424e146106f0578063f23a6e611461071d578063fbfa77cf1461074957600080fd5b8063c45a01551461060e578063d087d28814610642578063d1f5789414610657578063d42f2f3514610677578063e8a3d4851461068c57600080fd5b8063b0d691fe116100f2578063b0d691fe14610578578063b28362771461058d578063b61d27f6146105a2578063b76464d5146105c2578063bc197c81146105e257600080fd5b80639934cdb1146104cb578063a03e4bc3146104ec578063a9082d841461050c578063ac9650d81461054b57600080fd5b806347e1da2a116101b1578063735de9f711610175578063735de9f71461042957806374c13fda146104495780637dff5a79146104695780638b52d72314610489578063938e3d7b146104ab57600080fd5b806347e1da2a146103ab5780634a58db19146103cb5780634d44560d146103d35780634e9eb56e146103f35780635892e2361461040957600080fd5b80631dd756c5116101f85780631dd756c5146102f157806324d7806c1461031157806329245414146103315780633a871cdd146103695780633dd6e0251461038957600080fd5b806301ffc9a7146102355780630a1028c41461026a578063150b7a02146102985780631626ba7e146102d157600080fd5b3661023057005b600080fd5b34801561024157600080fd5b50610255610250366004613843565b610769565b60405190151581526020015b60405180910390f35b34801561027657600080fd5b5061028a61028536600461392a565b6107af565b604051908152602001610261565b3480156102a457600080fd5b506102b86102b3366004613983565b610853565b6040516001600160e01b03199091168152602001610261565b3480156102dd57600080fd5b506102b86102ec3660046139ee565b610864565b3480156102fd57600080fd5b5061025561030c366004613a4d565b6109a4565b34801561031d57600080fd5b5061025561032c366004613a92565b610c7c565b34801561033d57600080fd5b50600154610351906001600160a01b031681565b6040516001600160a01b039091168152602001610261565b34801561037557600080fd5b5061028a610384366004613aaf565b610cab565b34801561039557600080fd5b506103a96103a4366004613a92565b610cd1565b005b3480156103b757600080fd5b506103a96103c6366004613b40565b6111ef565b6103a9611360565b3480156103df57600080fd5b506103a96103ee366004613bd9565b6113c7565b3480156103ff57600080fd5b5061028a60005481565b34801561041557600080fd5b506103a9610424366004613c46565b611440565b34801561043557600080fd5b50600354610351906001600160a01b031681565b34801561045557600080fd5b50600254610351906001600160a01b031681565b34801561047557600080fd5b50610255610484366004613a92565b6117fd565b34801561049557600080fd5b5061049e6118b6565b6040516102619190613d5c565b3480156104b757600080fd5b506103a96104c6366004613dbe565b611afd565b3480156104d757600080fd5b5060055461025590600160a01b900460ff1681565b3480156104f857600080fd5b50600454610351906001600160a01b031681565b34801561051857600080fd5b5061052c610527366004613c46565b611b4e565b6040805192151583526001600160a01b03909116602083015201610261565b34801561055757600080fd5b5061056b610566366004613e06565b611ba5565b6040516102619190613e97565b34801561058457600080fd5b50610351611d14565b34801561059957600080fd5b506103a9611d74565b3480156105ae57600080fd5b506103a96105bd366004613eec565b611f43565b3480156105ce57600080fd5b506103a96105dd366004613a92565b611fd3565b3480156105ee57600080fd5b506102b86105fd366004613fd5565b63bc197c8160e01b95945050505050565b34801561061a57600080fd5b506103517f000000000000000000000000000000000000000000000000000000000000000081565b34801561064e57600080fd5b5061028a61201c565b34801561066357600080fd5b506103a9610672366004614082565b61209c565b34801561068357600080fd5b5061049e6122d4565b34801561069857600080fd5b506106a1612445565b60405161026191906140c9565b3480156106ba57600080fd5b506106c36124f6565b6040516102619190614120565b3480156106dc57600080fd5b506103a96106eb366004614141565b612508565b3480156106fc57600080fd5b5061071061070b366004613a92565b61256d565b604051610261919061415e565b34801561072957600080fd5b506102b8610738366004614171565b63f23a6e6160e01b95945050505050565b34801561075557600080fd5b50600554610351906001600160a01b031681565b60006001600160e01b03198216630271189760e51b148061079a57506001600160e01b03198216630a85bd0160e11b145b806107a957506107a982612645565b92915050565b6000807f82cac545155fcbf147f2a9013809613677ac7d65498556e6d19ce43bcbf6c28483805190602001206040516020016107f5929190918252602082015260400190565b60405160208183030381529060405280519060200120905061081561267a565b60405161190160f01b602082015260228101919091526042810182905260620160405160208183030381529060405280519060200120915050919050565b630a85bd0160e11b5b949350505050565b6000806108918460405160200161087d91815260200190565b6040516020818303038152906040526107af565b9050600061089f82856127a1565b90506108aa81610c7c565b156108c15750630b135d3f60e11b91506107a99050565b3360006108cc6127c5565b6001600160a01b03841660009081526006919091016020526040902090506108f481836127e9565b8061092457506109038161280b565b6001148015610924575060006109198282612815565b6001600160a01b0316145b6109815760405162461bcd60e51b8152602060048201526024808201527f4163636f756e743a2063616c6c6572206e6f7420617070726f7665642074617260448201526333b2ba1760e11b60648201526084015b60405180910390fd5b61098a836117fd565b1561099a57630b135d3f60e11b94505b5050505092915050565b60006109ae6127c5565b6001600160a01b0384166000908152600491909101602052604090205460ff16156109db575060016107a9565b60006109e56127c5565b6001600160a01b0385166000908152600591909101602090815260408083208151606081018352815481526001909101546001600160801b0380821694830194909452600160801b9004909216908201529150610a406127c5565b6006016000866001600160a01b03166001600160a01b0316815260200190815260200160002090504282602001516001600160801b03161180610a90575081604001516001600160801b03164210155b80610aa15750610a9f8161280b565b155b15610ab1576000925050506107a9565b6000610ac8610ac360608701876141d9565b612821565b90506000610ad58361280b565b6001148015610af657506000610aeb8482612815565b6001600160a01b0316145b90506324f16c0560e11b6001600160e01b0319831601610b6d57600080610b28610b2360608a018a6141d9565b61285b565b9150915082610b4e57610b3b85836127e9565b610b4e57600096505050505050506107a9565b8551811115610b6657600096505050505050506107a9565b5050610c6f565b635c0f12eb60e11b6001600160e01b0319831601610c6257600080610b9d610b9860608a018a6141d9565b6128c0565b509150915082610c075760005b8251811015610c0557610bdf838281518110610bc857610bc861421f565b6020026020010151876127e990919063ffffffff16565b610bf35760009750505050505050506107a9565b80610bfd8161424b565b915050610baa565b505b60005b8251811015610c5a57818181518110610c2557610c2561421f565b602002602001015187600001511015610c485760009750505050505050506107a9565b80610c528161424b565b915050610c0a565b505050610c6f565b60009450505050506107a9565b5060019695505050505050565b6000610c866127c5565b6001600160a01b03909216600090815260049290920160205250604090205460ff1690565b6000610cb561290d565b610cbf8484612977565b9050610cca82612abd565b9392505050565b6001546001600160a01b0316331480610cee5750610cee33610c7c565b610d3a5760405162461bcd60e51b815260206004820152601d60248201527f4163636f756e743a206e6f742061646d696e206f722055706b6565702e0000006044820152606401610978565b600554600160a01b900460ff16610d935760405162461bcd60e51b815260206004820152601760248201527f4163636f756e743a20737570706c79207061757365642e0000000000000000006044820152606401610978565b6040516370a0823160e01b81523060048201526000906001600160a01b038316906370a0823190602401602060405180830381865afa158015610dda573d6000803e3d6000fd5b505050506040513d601f19601f82011682018060405250810190610dfe9190614264565b90506000610e0f620f42408361427d565b90506000610e1d828461429f565b60048054604051632fe4a15f60e21b815230928101929092529192506000916001600160a01b03169063bf92857c9060240160c060405180830381865afa158015610e6c573d6000803e3d6000fd5b505050506040513d601f19601f82011682018060405250810190610e9091906142b2565b50505050915050600083111561108757600081118015610eb05750808311155b15610fa0576004805460405163095ea7b360e01b81526001600160a01b03918216928101929092526024820185905286169063095ea7b3906044016020604051808303816000875af1158015610f0a573d6000803e3d6000fd5b505050506040513d601f19601f82011682018060405250810190610f2e91906142fc565b50604080516001600160a01b0387811660248301526044820186905260026064830152306084808401919091528351808403909101815260a49092019092526020810180516001600160e01b031663573ade8160e01b1790526004549091610f999116600083612b0a565b5050611087565b6004805460405163095ea7b360e01b81526001600160a01b03918216928101929092526024820185905286169063095ea7b3906044016020604051808303816000875af1158015610ff5573d6000803e3d6000fd5b505050506040513d601f19601f8201168201806040525081019061101991906142fc565b50604080516001600160a01b03878116602483015260448201869052306064830152600060848084018290528451808503909101815260a49093019093526020820180516001600160e01b031663617ba03760e01b1790526004549192611084929091169083612b0a565b50505b60408051600280825260608201835260009260208301908036833701905050905085816000815181106110bc576110bc61421f565b6001600160a01b0392831660209182029290920101526002548251911690829060019081106110ed576110ed61421f565b6001600160a01b03928316602091820292909201015260035460405163095ea7b360e01b81529082166004820152602481018590529087169063095ea7b3906044016020604051808303816000875af115801561114e573d6000803e3d6000fd5b505050506040513d601f19601f8201168201806040525081019061117291906142fc565b506000638803dbee8480843061118a4261012c614319565b60405160240161119e95949392919061432c565b60408051601f198184030181529190526020810180516001600160e01b031660e09390931b929092179091526003549091506111e5906001600160a01b0316600083612b0a565b5050505050505050565b6111f7611d14565b6001600160a01b0316336001600160a01b0316148061121a575061121a33610c7c565b6112365760405162461bcd60e51b815260040161097890614368565b61123e612b7b565b848114801561124c57508483145b6112985760405162461bcd60e51b815260206004820152601d60248201527f4163636f756e743a2077726f6e67206172726179206c656e677468732e0000006044820152606401610978565b60005b85811015611357576113448787838181106112b8576112b861421f565b90506020020160208101906112cd9190613a92565b8686848181106112df576112df61421f565b905060200201358585858181106112f8576112f861421f565b905060200281019061130a91906141d9565b8080601f016020809104026020016040519081016040528093929190818152602001838380828437600092019190915250612b0a92505050565b508061134f8161424b565b91505061129b565b50505050505050565b611368611d14565b60405163b760faf960e01b81523060048201526001600160a01b03919091169063b760faf99034906024016000604051808303818588803b1580156113ac57600080fd5b505af11580156113c0573d6000803e3d6000fd5b5050505050565b6113cf612c5d565b6113d7611d14565b60405163040b850f60e31b81526001600160a01b03848116600483015260248201849052919091169063205c2878906044015b600060405180830381600087803b15801561142457600080fd5b505af1158015611438573d6000803e3d6000fd5b505050505050565b600061144f6020850185613a92565b90504261146260e0860160c087016143c0565b6001600160801b0316111580156114915750611485610100850160e086016143c0565b6001600160801b031642105b6114c75760405162461bcd60e51b8152602060048201526007602482015266085c195c9a5bd960ca1b6044820152606401610978565b6000806114d5868686611b4e565b915091508161150f5760405162461bcd60e51b8152600401610978906020808252600490820152632173696760e01b604082015260600190565b60016115196127c5565b610100880135600090815260079190910160209081526040808320805460ff1916941515949094179093559091611555919089019089016143ec565b60ff16111561158257600061157060408801602089016143ec565b60ff1660011490506113578482612c9b565b61158b83610c7c565b156115c05760405162461bcd60e51b815260206004820152600560248201526430b236b4b760d91b6044820152606401610978565b6115d5836115cc6127c5565b60020190612de2565b506040518060600160405280876060013581526020018760800160208101906115fe91906143c0565b6001600160801b0316815260200161161c60c0890160a08a016143c0565b6001600160801b0316905261162f6127c5565b6001600160a01b03851660009081526005919091016020908152604080832084518155918401519301516001600160801b03908116600160801b029316929092176001909201919091556116a56116846127c5565b6001600160a01b038616600090815260069190910160205260409020612df7565b805190915060005b8181101561170f576116fc8382815181106116ca576116ca61421f565b60200260200101516116da6127c5565b6001600160a01b03891660009081526006919091016020526040902090612e04565b50611708600182614319565b90506116ad565b5061171d6040890189614407565b9050905060005b8181101561179e5761178b61173c60408b018b614407565b8381811061174c5761174c61421f565b90506020020160208101906117619190613a92565b6117696127c5565b6001600160a01b03891660009081526006919091016020526040902090612de2565b50611797600182614319565b9050611724565b506117a888612e19565b846001600160a01b0316836001600160a01b03167ff21d10c26e35863a8df291aca54181ee8c4a3bc8e00246c3f7a5a14b69d826a78a6040516117eb91906144d6565b60405180910390a35050505050505050565b6000806118086127c5565b6001600160a01b038416600090815260059190910160209081526040918290208251606081018452815481526001909101546001600160801b03808216938301849052600160801b90910416928101929092529091504210801590611879575080604001516001600160801b031642105b8015610cca575060006118ae61188d6127c5565b6001600160a01b03861660009081526006919091016020526040902061280b565b119392505050565b606060006118cd6118c56127c5565b600201612df7565b80519091506000805b8281101561195e576119008482815181106118f3576118f361421f565b60200260200101516117fd565b15611917578161190f8161424b565b92505061194c565b600084828151811061192b5761192b61421f565b60200260200101906001600160a01b031690816001600160a01b0316815250505b611957600182614319565b90506118d6565b50806001600160401b038111156119775761197761386d565b6040519080825280602002602001820160405280156119b057816020015b61199d6137f9565b8152602001906001900390816119955790505b5093506000805b83811015611af55760006001600160a01b03168582815181106119dc576119dc61421f565b60200260200101516001600160a01b031614611ae3576000858281518110611a0657611a0661421f565b602002602001015190506000611a1a6127c5565b6001600160a01b038316600081815260059290920160209081526040928390208351606081018552815481526001909101546001600160801b0380821683850152600160801b9091041681850152835160a081019094529183529092508101611a846116846127c5565b81526020018260000151815260200182602001516001600160801b0316815260200182604001516001600160801b0316815250888580611ac39061424b565b965081518110611ad557611ad561421f565b602002602001018190525050505b611aee600182614319565b90506119b7565b505050505090565b611b05612ec7565b611b425760405162461bcd60e51b815260206004820152600e60248201526d139bdd08185d5d1a1bdc9a5e995960921b6044820152606401610978565b611b4b81612edf565b50565b600080611b64611b5d86612ffe565b8585613142565b9050611b6e6127c5565b6101008601356000908152600791909101602052604090205460ff16158015611b9b5750611b9b81610c7c565b9150935093915050565b6060816001600160401b03811115611bbf57611bbf61386d565b604051908082528060200260200182016040528015611bf257816020015b6060815260200190600190039081611bdd5790505b509050336000805b84811015611d0b578115611c7957611c5730878784818110611c1e57611c1e61421f565b9050602002810190611c3091906141d9565b86604051602001611c43939291906145cf565b604051602081830303815290604052613194565b848281518110611c6957611c6961421f565b6020026020010181905250611cf9565b611cdb30878784818110611c8f57611c8f61421f565b9050602002810190611ca191906141d9565b8080601f01602080910402602001604051908101604052809392919081815260200183838082843760009201919091525061319492505050565b848281518110611ced57611ced61421f565b60200260200101819052505b80611d038161424b565b915050611bfa565b50505092915050565b7f036f52c1827dab135f7fd44ca0bddde297e2f659c710e0ec53e975f22b548300546000906001600160a01b03168015611d4d57919050565b7f000000000000000000000000000000000000000000000000000000000000000091505090565b6001546001600160a01b0316331480611d915750611d9133610c7c565b611ddd5760405162461bcd60e51b815260206004820152601d60248201527f4163636f756e743a206e6f742061646d696e206f722055706b6565702e0000006044820152606401610978565b6002546040516370a0823160e01b81523060048201526000916001600160a01b0316906370a0823190602401602060405180830381865afa158015611e26573d6000803e3d6000fd5b505050506040513d601f19601f82011682018060405250810190611e4a9190614264565b90506000805482611e5b919061429f565b60025460055460405163095ea7b360e01b81526001600160a01b03918216600482015260248101849052929350169063095ea7b3906044016020604051808303816000875af1158015611eb2573d6000803e3d6000fd5b505050506040513d601f19601f82011682018060405250810190611ed691906142fc565b506040805160248101839052306044808301919091528251808303909101815260649091019091526020810180516001600160e01b0316636e553f6560e01b179052600554611f30906001600160a01b0316600083612b0a565b50611f3b828461429f565b600055505050565b611f4b611d14565b6001600160a01b0316336001600160a01b03161480611f6e5750611f6e33610c7c565b611f8a5760405162461bcd60e51b815260040161097890614368565b611f92612b7b565b6113c0848484848080601f016020809104026020016040519081016040528093929190818152602001838380828437600092019190915250612b0a92505050565b611fdb612c5d565b7f036f52c1827dab135f7fd44ca0bddde297e2f659c710e0ec53e975f22b54830080546001600160a01b0319166001600160a01b0392909216919091179055565b6000612026611d14565b604051631aab3f0d60e11b8152306004820152600060248201526001600160a01b0391909116906335567e1a90604401602060405180830381865afa158015612073573d6000803e3d6000fd5b505050506040513d601f19601f820116820180604052508101906120979190614264565b905090565b600080516020614a268339815191525460ff8082169161010090041680158080156120ca575060018360ff16105b806120e25750303b1580156120e257508260ff166001145b6121455760405162461bcd60e51b815260206004820152602e60248201527f496e697469616c697a61626c653a20636f6e747261637420697320616c72656160448201526d191e481a5b9a5d1a585b1a5e995960921b6064820152608401610978565b600080516020614a26833981519152805460ff19166001179055801561218257600080516020614a26833981519152805461ff0019166101001790555b6121c28686868080601f0160208091040260200160405190810160405280939291908181526020018383808284376000920191909152506131b992505050565b600080516020614a06833981519152556121dd866001612c9b565b600180546001600160a01b031990811633179091556005805460028054841673c4bf5cbdabe595361438f8c6a187bdc330539c6017905560038054841673d04b095b736d10744810d9eac344c306c100fe6f17905560048054909316736ae43d3271ff6888e7fc43fd7321a503ff738951179092557401ba743e062b790725ee00c3b857ef0ca28a10c7746001600160a81b0319909216919091179055801561143857600080516020614a26833981519152805461ff0019169055604080516001815290517f7f26b83ff96e1f2b6a682f133852f6798a09c465da95921460cefb38474024989181900360200190a1505050505050565b606060006122e36118c56127c5565b8051909150806001600160401b038111156123005761230061386d565b60405190808252806020026020018201604052801561233957816020015b6123266137f9565b81526020019060019003908161231e5790505b50925060005b8181101561243f57600083828151811061235b5761235b61421f565b60200260200101519050600061236f6127c5565b6001600160a01b038316600081815260059290920160209081526040928390208351606081018552815481526001909101546001600160801b0380821683850152600160801b9091041681850152835160a0810190945291835290925081016123d96116846127c5565b81526020018260000151815260200182602001516001600160801b0316815260200182604001516001600160801b031681525086848151811061241e5761241e61421f565b602002602001018190525050506001816124389190614319565b905061233f565b50505090565b60607f4bc804ba64359c0e35e5ed5d90ee596ecaa49a3a930ddcb1470ea0dd625da9008054612473906145f5565b80601f016020809104026020016040519081016040528092919081815260200182805461249f906145f5565b80156124ec5780601f106124c1576101008083540402835291602001916124ec565b820191906000526020600020905b8154815290600101906020018083116124cf57829003601f168201915b5050505050905090565b60606120976125036127c5565b612df7565b612510611d14565b6001600160a01b0316336001600160a01b03161480612533575061253333610c7c565b61254f5760405162461bcd60e51b815260040161097890614368565b60058054911515600160a01b0260ff60a01b19909216919091179055565b6125756137f9565b600061257f6127c5565b6001600160a01b038416600081815260059290920160209081526040928390208351606081018552815481526001909101546001600160801b0380821683850152600160801b9091041681850152835160a08101909452918352909250810161260a6125e96127c5565b6001600160a01b038716600090815260069190910160205260409020612df7565b81526020018260000151815260200182602001516001600160801b0316815260200182604001516001600160801b0316815250915050919050565b60006001600160e01b03198216630271189760e51b14806107a957506301ffc9a760e01b6001600160e01b03198316146107a9565b6000306001600160a01b037f0000000000000000000000000000000000000000000000000000000000000000161480156126d357507f000000000000000000000000000000000000000000000000000000000000000046145b156126fd57507f000000000000000000000000000000000000000000000000000000000000000090565b50604080517f00000000000000000000000000000000000000000000000000000000000000006020808301919091527f0000000000000000000000000000000000000000000000000000000000000000828401527f000000000000000000000000000000000000000000000000000000000000000060608301524660808301523060a0808401919091528351808403909101815260c0909201909252805191012090565b60008060006127b085856131ec565b915091506127bd81613231565b509392505050565b7f3181e78fc1b109bc611fd2406150bf06e33faa75f71cba12c3e1fd670f2def0090565b6001600160a01b03811660009081526001830160205260408120541515610cca565b60006107a9825490565b6000610cca838361337b565b600060048210156128445760405162461bcd60e51b815260040161097890614629565b612852600460008486614648565b610cca91614672565b600080604483101561287f5760405162461bcd60e51b815260040161097890614629565b61288d602460048587614648565b81019061289a9190613a92565b91506128aa604460248587614648565b8101906128b791906146a2565b90509250929050565b6060808060648410156128e55760405162461bcd60e51b815260040161097890614629565b6128f28460048188614648565b8101906128ff919061473a565b919790965090945092505050565b612915611d14565b6001600160a01b0316336001600160a01b0316146129755760405162461bcd60e51b815260206004820152601c60248201527f6163636f756e743a206e6f742066726f6d20456e747279506f696e74000000006044820152606401610978565b565b7f19457468657265756d205369676e6564204d6573736167653a0a3332000000006000908152601c829052603c812060006129f66129b96101408701876141d9565b8080601f01602080910402602001604051908101604052809392919081815260200183838082843760009201919091525086939250506127a19050565b9050612a0281866109a4565b612a11576001925050506107a9565b6000612a1b6127c5565b6001600160a01b03929092166000908152600590920160209081526040808420815160608082018452825482526001909201546001600160801b0380821683870152600160801b8204908116928501929092528351928301845295825265ffffffffffff8087169483019490945292831691015260d09290921b6001600160d01b03191660a09290921b65ffffffffffff60a01b169190911795945050505050565b8015611b4b57604051600090339060001990849084818181858888f193505050503d80600081146113c0576040519150601f19603f3d011682016040523d82523d6000602084013e6113c0565b60606000846001600160a01b03168484604051612b27919061481f565b60006040518083038185875af1925050503d8060008114612b64576040519150601f19603f3d011682016040523d82523d6000602084013e612b69565b606091505b5092509050806127bd57815160208301fd5b60405163c3c5a54760e01b81523060048201527f0000000000000000000000000000000000000000000000000000000000000000906001600160a01b0382169063c3c5a54790602401602060405180830381865afa158015612be1573d6000803e3d6000fd5b505050506040513d601f19601f82011682018060405250810190612c0591906142fc565b611b4b57600080516020614a06833981519152546040516320e80fe360e21b815260048101919091526001600160a01b038216906383a03f8c906024015b600060405180830381600087803b1580156113ac57600080fd5b612c6633610c7c565b6129755760405162461bcd60e51b815260206004820152600660248201526510b0b236b4b760d11b6044820152606401610978565b612ca582826133a5565b6001600160a01b037f0000000000000000000000000000000000000000000000000000000000000000163b15612dde578015612d76576001600160a01b037f000000000000000000000000000000000000000000000000000000000000000016630b61e12b837f036f52c1827dab135f7fd44ca0bddde297e2f659c710e0ec53e975f22b548300600101546040516001600160e01b031960e085901b1681526001600160a01b0390921660048301526024820152604401600060405180830381600087803b15801561142457600080fd5b600080516020614a06833981519152546040516301270f4760e71b81526001600160a01b03848116600483015260248201929092527f000000000000000000000000000000000000000000000000000000000000000090911690639387a3809060440161140a565b5050565b6000610cca836001600160a01b038416613454565b60606000610cca836134a3565b6000610cca836001600160a01b0384166134ff565b6001600160a01b037f0000000000000000000000000000000000000000000000000000000000000000163b15611b4b576001600160a01b037f000000000000000000000000000000000000000000000000000000000000000016630b61e12b612e856020840184613a92565b600080516020614a068339815191525460405160e084901b6001600160e01b03191681526001600160a01b039290921660048301526024820152604401612c43565b6000612ed233610c7c565b8061209757505030331490565b60007f4bc804ba64359c0e35e5ed5d90ee596ecaa49a3a930ddcb1470ea0dd625da9008054612f0d906145f5565b80601f0160208091040260200160405190810160405280929190818152602001828054612f39906145f5565b8015612f865780601f10612f5b57610100808354040283529160200191612f86565b820191906000526020600020905b815481529060010190602001808311612f6957829003601f168201915b5050505050905081612fb57f4bc804ba64359c0e35e5ed5d90ee596ecaa49a3a930ddcb1470ea0dd625da90090565b90612fc09082614886565b507fc9c7c3fe08b88b4df9d4d47ef47d2c43d55c025a0ba88ca442580ed9e7348a168183604051612ff2929190614945565b60405180910390a15050565b60607f3fd4a1a1a267c84185e3b7eecd57c68783c0581d538b9d6e5f23e4670497c1e961302e6020840184613a92565b61303e60408501602086016143ec565b61304b6040860186614407565b60405160200161305c929190614973565b60408051601f198184030181529190528051602090910120606086013561308960a08801608089016143c0565b61309960c0890160a08a016143c0565b6130a960e08a0160c08b016143c0565b6130ba6101008b0160e08c016143c0565b60408051602081019a909a526001600160a01b039098169789019790975260ff9095166060880152608087019390935260a08601919091526001600160801b0390811660c086015290811660e0850152908116610100848101919091529116610120830152830135610140820152610160016040516020818303038152906040529050919050565b600061085c83838080601f016020809104026020016040519081016040528093929190818152602001838380828437600092019190915250508751602089012061318e925090506135f2565b906127a1565b6060610cca8383604051806060016040528060278152602001614a466027913961361f565b600082826040516020016131ce9291906149b5565b60405160208183030381529060405280519060200120905092915050565b60008082516041036132225760208301516040840151606085015160001a61321687828585613697565b9450945050505061322a565b506000905060025b9250929050565b6000816004811115613245576132456149d9565b0361324d5750565b6001816004811115613261576132616149d9565b036132ae5760405162461bcd60e51b815260206004820152601860248201527f45434453413a20696e76616c6964207369676e617475726500000000000000006044820152606401610978565b60028160048111156132c2576132c26149d9565b0361330f5760405162461bcd60e51b815260206004820152601f60248201527f45434453413a20696e76616c6964207369676e6174757265206c656e677468006044820152606401610978565b6003816004811115613323576133236149d9565b03611b4b5760405162461bcd60e51b815260206004820152602260248201527f45434453413a20696e76616c6964207369676e6174757265202773272076616c604482015261756560f01b6064820152608401610978565b60008260000182815481106133925761339261421f565b9060005260206000200154905092915050565b806133ae6127c5565b6001600160a01b038416600090815260049190910160205260409020805460ff191691151591909117905580156133f7576133f1826133eb6127c5565b90612de2565b5061340b565b613409826134036127c5565b90612e04565b505b816001600160a01b03167f235bc17e7930760029e9f4d860a2a8089976de5b381cf8380fc11c1d88a1113382604051613448911515815260200190565b60405180910390a25050565b600081815260018301602052604081205461349b575081546001818101845560008481526020808220909301849055845484825282860190935260409020919091556107a9565b5060006107a9565b6060816000018054806020026020016040519081016040528092919081815260200182805480156134f357602002820191906000526020600020905b8154815260200190600101908083116134df575b50505050509050919050565b600081815260018301602052604081205480156135e857600061352360018361429f565b85549091506000906135379060019061429f565b905081811461359c5760008660000182815481106135575761355761421f565b906000526020600020015490508087600001848154811061357a5761357a61421f565b6000918252602080832090910192909255918252600188019052604090208390555b85548690806135ad576135ad6149ef565b6001900381819060005260206000200160009055905585600101600086815260200190815260200160002060009055600193505050506107a9565b60009150506107a9565b60006107a96135ff61267a565b8360405161190160f01b8152600281019290925260228201526042902090565b6060600080856001600160a01b03168560405161363c919061481f565b600060405180830381855af49150503d8060008114613677576040519150601f19603f3d011682016040523d82523d6000602084013e61367c565b606091505b509150915061368d8683838761375b565b9695505050505050565b6000807f7fffffffffffffffffffffffffffffff5d576e7357a4501ddfe92f46681b20a08311156136ce5750600090506003613752565b6040805160008082526020820180845289905260ff881692820192909252606081018690526080810185905260019060a0016020604051602081039080840390855afa158015613722573d6000803e3d6000fd5b5050604051601f1901519150506001600160a01b03811661374b57600060019250925050613752565b9150600090505b94509492505050565b606083156137ca5782516000036137c3576001600160a01b0385163b6137c35760405162461bcd60e51b815260206004820152601d60248201527f416464726573733a2063616c6c20746f206e6f6e2d636f6e74726163740000006044820152606401610978565b508161085c565b61085c83838151156137df5781518083602001fd5b8060405162461bcd60e51b815260040161097891906140c9565b6040518060a0016040528060006001600160a01b03168152602001606081526020016000815260200160006001600160801b0316815260200160006001600160801b031681525090565b60006020828403121561385557600080fd5b81356001600160e01b031981168114610cca57600080fd5b634e487b7160e01b600052604160045260246000fd5b604051601f8201601f191681016001600160401b03811182821017156138ab576138ab61386d565b604052919050565b60006001600160401b038311156138cc576138cc61386d565b6138df601f8401601f1916602001613883565b90508281528383830111156138f357600080fd5b828260208301376000602084830101529392505050565b600082601f83011261391b57600080fd5b610cca838335602085016138b3565b60006020828403121561393c57600080fd5b81356001600160401b0381111561395257600080fd5b61085c8482850161390a565b6001600160a01b0381168114611b4b57600080fd5b803561397e8161395e565b919050565b6000806000806080858703121561399957600080fd5b84356139a48161395e565b935060208501356139b48161395e565b92506040850135915060608501356001600160401b038111156139d657600080fd5b6139e28782880161390a565b91505092959194509250565b60008060408385031215613a0157600080fd5b8235915060208301356001600160401b03811115613a1e57600080fd5b613a2a8582860161390a565b9150509250929050565b60006101608284031215613a4757600080fd5b50919050565b60008060408385031215613a6057600080fd5b8235613a6b8161395e565b915060208301356001600160401b03811115613a8657600080fd5b613a2a85828601613a34565b600060208284031215613aa457600080fd5b8135610cca8161395e565b600080600060608486031215613ac457600080fd5b83356001600160401b03811115613ada57600080fd5b613ae686828701613a34565b9660208601359650604090950135949350505050565b60008083601f840112613b0e57600080fd5b5081356001600160401b03811115613b2557600080fd5b6020830191508360208260051b850101111561322a57600080fd5b60008060008060008060608789031215613b5957600080fd5b86356001600160401b0380821115613b7057600080fd5b613b7c8a838b01613afc565b90985096506020890135915080821115613b9557600080fd5b613ba18a838b01613afc565b90965094506040890135915080821115613bba57600080fd5b50613bc789828a01613afc565b979a9699509497509295939492505050565b60008060408385031215613bec57600080fd5b8235613bf78161395e565b946020939093013593505050565b60008083601f840112613c1757600080fd5b5081356001600160401b03811115613c2e57600080fd5b60208301915083602082850101111561322a57600080fd5b600080600060408486031215613c5b57600080fd5b83356001600160401b0380821115613c7257600080fd5b908501906101208288031215613c8757600080fd5b90935060208501359080821115613c9d57600080fd5b50613caa86828701613c05565b9497909650939450505050565b80516001600160a01b03908116835260208083015160a082860181905281519086018190526000939183019290849060c08801905b80831015613d0e57855185168252948301946001929092019190830190613cec565b506040870151604089015260608701519450613d3560608901866001600160801b03169052565b60808701519450613d5160808901866001600160801b03169052565b979650505050505050565b6000602080830181845280855180835260408601915060408160051b870101925083870160005b82811015613db157603f19888603018452613d9f858351613cb7565b94509285019290850190600101613d83565b5092979650505050505050565b600060208284031215613dd057600080fd5b81356001600160401b03811115613de657600080fd5b8201601f81018413613df757600080fd5b61085c848235602084016138b3565b60008060208385031215613e1957600080fd5b82356001600160401b03811115613e2f57600080fd5b613e3b85828601613afc565b90969095509350505050565b60005b83811015613e62578181015183820152602001613e4a565b50506000910152565b60008151808452613e83816020860160208601613e47565b601f01601f19169290920160200192915050565b6000602080830181845280855180835260408601915060408160051b870101925083870160005b82811015613db157603f19888603018452613eda858351613e6b565b94509285019290850190600101613ebe565b60008060008060608587031215613f0257600080fd5b8435613f0d8161395e565b93506020850135925060408501356001600160401b03811115613f2f57600080fd5b613f3b87828801613c05565b95989497509550505050565b60006001600160401b03821115613f6057613f6061386d565b5060051b60200190565b600082601f830112613f7b57600080fd5b81356020613f90613f8b83613f47565b613883565b82815260059290921b84018101918181019086841115613faf57600080fd5b8286015b84811015613fca5780358352918301918301613fb3565b509695505050505050565b600080600080600060a08688031215613fed57600080fd5b8535613ff88161395e565b945060208601356140088161395e565b935060408601356001600160401b038082111561402457600080fd5b61403089838a01613f6a565b9450606088013591508082111561404657600080fd5b61405289838a01613f6a565b9350608088013591508082111561406857600080fd5b506140758882890161390a565b9150509295509295909350565b60008060006040848603121561409757600080fd5b83356140a28161395e565b925060208401356001600160401b038111156140bd57600080fd5b613caa86828701613c05565b602081526000610cca6020830184613e6b565b600081518084526020808501945080840160005b838110156141155781516001600160a01b0316875295820195908201906001016140f0565b509495945050505050565b602081526000610cca60208301846140dc565b8015158114611b4b57600080fd5b60006020828403121561415357600080fd5b8135610cca81614133565b602081526000610cca6020830184613cb7565b600080600080600060a0868803121561418957600080fd5b85356141948161395e565b945060208601356141a48161395e565b9350604086013592506060860135915060808601356001600160401b038111156141cd57600080fd5b6140758882890161390a565b6000808335601e198436030181126141f057600080fd5b8301803591506001600160401b0382111561420a57600080fd5b60200191503681900382131561322a57600080fd5b634e487b7160e01b600052603260045260246000fd5b634e487b7160e01b600052601160045260246000fd5b60006001820161425d5761425d614235565b5060010190565b60006020828403121561427657600080fd5b5051919050565b60008261429a57634e487b7160e01b600052601260045260246000fd5b500690565b818103818111156107a9576107a9614235565b60008060008060008060c087890312156142cb57600080fd5b865195506020870151945060408701519350606087015192506080870151915060a087015190509295509295509295565b60006020828403121561430e57600080fd5b8151610cca81614133565b808201808211156107a9576107a9614235565b85815284602082015260a06040820152600061434b60a08301866140dc565b6001600160a01b0394909416606083015250608001529392505050565b60208082526021908201527f4163636f756e743a206e6f742061646d696e206f7220456e747279506f696e746040820152601760f91b606082015260800190565b80356001600160801b038116811461397e57600080fd5b6000602082840312156143d257600080fd5b610cca826143a9565b803560ff8116811461397e57600080fd5b6000602082840312156143fe57600080fd5b610cca826143db565b6000808335601e1984360301811261441e57600080fd5b8301803591506001600160401b0382111561443857600080fd5b6020019150600581901b360382131561322a57600080fd5b6000808335601e1984360301811261446757600080fd5b83016020810192503590506001600160401b0381111561448657600080fd5b8060051b360382131561322a57600080fd5b8183526000602080850194508260005b858110156141155781356144bb8161395e565b6001600160a01b0316875295820195908201906001016144a8565b602081526144f7602082016144ea84613973565b6001600160a01b03169052565b6000614505602084016143db565b60ff811660408401525061451c6040840184614450565b61012080606086015261453461014086018385614498565b92506060860135608086015261454c608087016143a9565b6001600160801b03811660a0870152915061456960a087016143a9565b6001600160801b03811660c0870152915061458660c087016143a9565b6001600160801b03811660e087015291506145a360e087016143a9565b91506101006145bc818701846001600160801b03169052565b9590950135939094019290925250919050565b8284823760609190911b6bffffffffffffffffffffffff19169101908152601401919050565b600181811c9082168061460957607f821691505b602082108103613a4757634e487b7160e01b600052602260045260246000fd5b602080825260059082015264214461746160d81b604082015260600190565b6000808585111561465857600080fd5b8386111561466557600080fd5b5050820193919092039150565b6001600160e01b0319813581811691600485101561469a5780818660040360031b1b83161692505b505092915050565b6000602082840312156146b457600080fd5b5035919050565b600082601f8301126146cc57600080fd5b813560206146dc613f8b83613f47565b82815260059290921b840181019181810190868411156146fb57600080fd5b8286015b84811015613fca5780356001600160401b0381111561471e5760008081fd5b61472c8986838b010161390a565b8452509183019183016146ff565b60008060006060848603121561474f57600080fd5b83356001600160401b038082111561476657600080fd5b818601915086601f83011261477a57600080fd5b8135602061478a613f8b83613f47565b82815260059290921b8401810191818101908a8411156147a957600080fd5b948201945b838610156147d05785356147c18161395e565b825294820194908201906147ae565b975050870135925050808211156147e657600080fd5b6147f287838801613f6a565b9350604086013591508082111561480857600080fd5b50614815868287016146bb565b9150509250925092565b60008251614831818460208701613e47565b9190910192915050565b601f82111561488157600081815260208120601f850160051c810160208610156148625750805b601f850160051c820191505b818110156114385782815560010161486e565b505050565b81516001600160401b0381111561489f5761489f61386d565b6148b3816148ad84546145f5565b8461483b565b602080601f8311600181146148e857600084156148d05750858301515b600019600386901b1c1916600185901b178555611438565b600085815260208120601f198616915b82811015614917578886015182559484019460019091019084016148f8565b50858210156149355787850151600019600388901b60f8161c191681555b5050505050600190811b01905550565b6040815260006149586040830185613e6b565b828103602084015261496a8185613e6b565b95945050505050565b60008184825b858110156149aa57813561498c8161395e565b6001600160a01b031683526020928301929190910190600101614979565b509095945050505050565b6001600160a01b038316815260406020820181905260009061085c90830184613e6b565b634e487b7160e01b600052602160045260246000fd5b634e487b7160e01b600052603160045260246000fdfe036f52c1827dab135f7fd44ca0bddde297e2f659c710e0ec53e975f22b548301322cf19c484104d3b1a9c2982ebae869ede3fa5f6c4703ca41b9a48c76ee0300416464726573733a206c6f772d6c6576656c2064656c65676174652063616c6c206661696c6564a2646970667358221220f26e6d6b28d6eb46d0c73cb9ce5a2913da2ee382933fac8dd37a6edadddad2f964736f6c63430008140033",
    "linkReferences": {}
  },
  "methodIdentifiers": {
    "DEFAULT_ADMIN_ROLE()": "a217fddf",
    "accountImplementation()": "11464fbe",
    "checkUpkeep(bytes)": "6e04ff0d",
    "contractURI()": "e8a3d485",
    "createAccount(address,bytes)": "d8fd8f44",
    "entrypoint()": "a65d69d4",
    "getAccounts(uint256,uint256)": "e68a7c3b",
    "getAccountsOfSigner(address)": "0e6254fd",
    "getAddress(address,bytes)": "8878ed33",
    "getAllAccounts()": "08e93d0a",
    "getRoleAdmin(bytes32)": "248a9ca3",
    "getRoleMember(bytes32,uint256)": "9010d07c",
    "getRoleMemberCount(bytes32)": "ca15c873",
    "grantRole(bytes32,address)": "2f2ff15d",
    "hasRole(bytes32,address)": "91d14854",
    "hasRoleWithSwitch(bytes32,address)": "a32fa5b3",
    "initializeUpkeepAndRouter(address)": "a9709e15",
    "isRegistered(address)": "c3c5a547",
    "multicall(bytes[])": "ac9650d8",
    "onRegister(bytes32)": "83a03f8c",
    "onSignerAdded(address,bytes32)": "0b61e12b",
    "onSignerRemoved(address,bytes32)": "9387a380",
    "performUpkeep(bytes)": "4585e33b",
    "renounceRole(bytes32,address)": "36568abe",
    "revokeRole(bytes32,address)": "d547741f",
    "setContractURI(string)": "938e3d7b",
    "totalAccounts()": "58451f97"
  },
  "id": 64
}