{
  "abi": [
    {
      "inputs": [
        {
          "internalType": "address",
          "name": "_defaultAdmin",
          "type": "address"
        },
        {
          "internalType": "contract IEntryPoint",
          "name": "_entrypoint",
          "type": "address"
        }
      ],
      "stateMutability": "nonpayable",
      "type": "constructor"
    },
    {
      "inputs": [],
      "name": "OnlySimulatedBackend",
      "type": "error"
    },
    {
      "anonymous": false,
      "inputs": [
        {
          "indexed": true,
          "internalType": "address",
          "name": "account",
          "type": "address"
        },
        {
          "indexed": true,
          "internalType": "address",
          "name": "accountAdmin",
          "type": "address"
        }
      ],
      "name": "AccountCreated",
      "type": "event"
    },
    {
      "anonymous": false,
      "inputs": [
        {
          "indexed": false,
          "internalType": "string",
          "name": "prevURI",
          "type": "string"
        },
        {
          "indexed": false,
          "internalType": "string",
          "name": "newURI",
          "type": "string"
        }
      ],
      "name": "ContractURIUpdated",
      "type": "event"
    },
    {
      "anonymous": false,
      "inputs": [
        {
          "indexed": true,
          "internalType": "bytes32",
          "name": "role",
          "type": "bytes32"
        },
        {
          "indexed": true,
          "internalType": "bytes32",
          "name": "previousAdminRole",
          "type": "bytes32"
        },
        {
          "indexed": true,
          "internalType": "bytes32",
          "name": "newAdminRole",
          "type": "bytes32"
        }
      ],
      "name": "RoleAdminChanged",
      "type": "event"
    },
    {
      "anonymous": false,
      "inputs": [
        {
          "indexed": true,
          "internalType": "bytes32",
          "name": "role",
          "type": "bytes32"
        },
        {
          "indexed": true,
          "internalType": "address",
          "name": "account",
          "type": "address"
        },
        {
          "indexed": true,
          "internalType": "address",
          "name": "sender",
          "type": "address"
        }
      ],
      "name": "RoleGranted",
      "type": "event"
    },
    {
      "anonymous": false,
      "inputs": [
        {
          "indexed": true,
          "internalType": "bytes32",
          "name": "role",
          "type": "bytes32"
        },
        {
          "indexed": true,
          "internalType": "address",
          "name": "account",
          "type": "address"
        },
        {
          "indexed": true,
          "internalType": "address",
          "name": "sender",
          "type": "address"
        }
      ],
      "name": "RoleRevoked",
      "type": "event"
    },
    {
      "anonymous": false,
      "inputs": [
        {
          "indexed": true,
          "internalType": "address",
          "name": "account",
          "type": "address"
        },
        {
          "indexed": true,
          "internalType": "address",
          "name": "signer",
          "type": "address"
        }
      ],
      "name": "SignerAdded",
      "type": "event"
    },
    {
      "anonymous": false,
      "inputs": [
        {
          "indexed": true,
          "internalType": "address",
          "name": "account",
          "type": "address"
        },
        {
          "indexed": true,
          "internalType": "address",
          "name": "signer",
          "type": "address"
        }
      ],
      "name": "SignerRemoved",
      "type": "event"
    },
    {
      "inputs": [],
      "name": "DEFAULT_ADMIN_ROLE",
      "outputs": [
        {
          "internalType": "bytes32",
          "name": "",
          "type": "bytes32"
        }
      ],
      "stateMutability": "view",
      "type": "function"
    },
    {
      "inputs": [],
      "name": "accountImplementation",
      "outputs": [
        {
          "internalType": "address",
          "name": "",
          "type": "address"
        }
      ],
      "stateMutability": "view",
      "type": "function"
    },
    {
      "inputs": [
        {
          "internalType": "bytes",
          "name": "",
          "type": "bytes"
        }
      ],
      "name": "checkUpkeep",
      "outputs": [
        {
          "internalType": "bool",
          "name": "upkeepNeeded",
          "type": "bool"
        },
        {
          "internalType": "bytes",
          "name": "performData",
          "type": "bytes"
        }
      ],
      "stateMutability": "view",
      "type": "function"
    },
    {
      "inputs": [],
      "name": "contractURI",
      "outputs": [
        {
          "internalType": "string",
          "name": "",
          "type": "string"
        }
      ],
      "stateMutability": "view",
      "type": "function"
    },
    {
      "inputs": [
        {
          "internalType": "address",
          "name": "_admin",
          "type": "address"
        },
        {
          "internalType": "bytes",
          "name": "_data",
          "type": "bytes"
        }
      ],
      "name": "createAccount",
      "outputs": [
        {
          "internalType": "address",
          "name": "",
          "type": "address"
        }
      ],
      "stateMutability": "nonpayable",
      "type": "function"
    },
    {
      "inputs": [],
      "name": "entrypoint",
      "outputs": [
        {
          "internalType": "address",
          "name": "",
          "type": "address"
        }
      ],
      "stateMutability": "view",
      "type": "function"
    },
    {
      "inputs": [
        {
          "internalType": "uint256",
          "name": "_start",
          "type": "uint256"
        },
        {
          "internalType": "uint256",
          "name": "_end",
          "type": "uint256"
        }
      ],
      "name": "getAccounts",
      "outputs": [
        {
          "internalType": "address[]",
          "name": "accounts",
          "type": "address[]"
        }
      ],
      "stateMutability": "view",
      "type": "function"
    },
    {
      "inputs": [
        {
          "internalType": "address",
          "name": "signer",
          "type": "address"
        }
      ],
      "name": "getAccountsOfSigner",
      "outputs": [
        {
          "internalType": "address[]",
          "name": "accounts",
          "type": "address[]"
        }
      ],
      "stateMutability": "view",
      "type": "function"
    },
    {
      "inputs": [
        {
          "internalType": "address",
          "name": "_adminSigner",
          "type": "address"
        },
        {
          "internalType": "bytes",
          "name": "_data",
          "type": "bytes"
        }
      ],
      "name": "getAddress",
      "outputs": [
        {
          "internalType": "address",
          "name": "",
          "type": "address"
        }
      ],
      "stateMutability": "view",
      "type": "function"
    },
    {
      "inputs": [],
      "name": "getAllAccounts",
      "outputs": [
        {
          "internalType": "address[]",
          "name": "",
          "type": "address[]"
        }
      ],
      "stateMutability": "view",
      "type": "function"
    },
    {
      "inputs": [
        {
          "internalType": "bytes32",
          "name": "role",
          "type": "bytes32"
        }
      ],
      "name": "getRoleAdmin",
      "outputs": [
        {
          "internalType": "bytes32",
          "name": "",
          "type": "bytes32"
        }
      ],
      "stateMutability": "view",
      "type": "function"
    },
    {
      "inputs": [
        {
          "internalType": "bytes32",
          "name": "role",
          "type": "bytes32"
        },
        {
          "internalType": "uint256",
          "name": "index",
          "type": "uint256"
        }
      ],
      "name": "getRoleMember",
      "outputs": [
        {
          "internalType": "address",
          "name": "member",
          "type": "address"
        }
      ],
      "stateMutability": "view",
      "type": "function"
    },
    {
      "inputs": [
        {
          "internalType": "bytes32",
          "name": "role",
          "type": "bytes32"
        }
      ],
      "name": "getRoleMemberCount",
      "outputs": [
        {
          "internalType": "uint256",
          "name": "count",
          "type": "uint256"
        }
      ],
      "stateMutability": "view",
      "type": "function"
    },
    {
      "inputs": [
        {
          "internalType": "bytes32",
          "name": "role",
          "type": "bytes32"
        },
        {
          "internalType": "address",
          "name": "account",
          "type": "address"
        }
      ],
      "name": "grantRole",
      "outputs": [],
      "stateMutability": "nonpayable",
      "type": "function"
    },
    {
      "inputs": [
        {
          "internalType": "bytes32",
          "name": "role",
          "type": "bytes32"
        },
        {
          "internalType": "address",
          "name": "account",
          "type": "address"
        }
      ],
      "name": "hasRole",
      "outputs": [
        {
          "internalType": "bool",
          "name": "",
          "type": "bool"
        }
      ],
      "stateMutability": "view",
      "type": "function"
    },
    {
      "inputs": [
        {
          "internalType": "bytes32",
          "name": "role",
          "type": "bytes32"
        },
        {
          "internalType": "address",
          "name": "account",
          "type": "address"
        }
      ],
      "name": "hasRoleWithSwitch",
      "outputs": [
        {
          "internalType": "bool",
          "name": "",
          "type": "bool"
        }
      ],
      "stateMutability": "view",
      "type": "function"
    },
    {
      "inputs": [
        {
          "internalType": "address",
          "name": "_upkeep",
          "type": "address"
        }
      ],
      "name": "initializeUpkeepAndRouter",
      "outputs": [],
      "stateMutability": "nonpayable",
      "type": "function"
    },
    {
      "inputs": [
        {
          "internalType": "address",
          "name": "_account",
          "type": "address"
        }
      ],
      "name": "isRegistered",
      "outputs": [
        {
          "internalType": "bool",
          "name": "",
          "type": "bool"
        }
      ],
      "stateMutability": "view",
      "type": "function"
    },
    {
      "inputs": [
        {
          "internalType": "bytes[]",
          "name": "data",
          "type": "bytes[]"
        }
      ],
      "name": "multicall",
      "outputs": [
        {
          "internalType": "bytes[]",
          "name": "results",
          "type": "bytes[]"
        }
      ],
      "stateMutability": "nonpayable",
      "type": "function"
    },
    {
      "inputs": [
        {
          "internalType": "bytes32",
          "name": "_salt",
          "type": "bytes32"
        }
      ],
      "name": "onRegister",
      "outputs": [],
      "stateMutability": "nonpayable",
      "type": "function"
    },
    {
      "inputs": [
        {
          "internalType": "address",
          "name": "_signer",
          "type": "address"
        },
        {
          "internalType": "bytes32",
          "name": "_salt",
          "type": "bytes32"
        }
      ],
      "name": "onSignerAdded",
      "outputs": [],
      "stateMutability": "nonpayable",
      "type": "function"
    },
    {
      "inputs": [
        {
          "internalType": "address",
          "name": "_signer",
          "type": "address"
        },
        {
          "internalType": "bytes32",
          "name": "_salt",
          "type": "bytes32"
        }
      ],
      "name": "onSignerRemoved",
      "outputs": [],
      "stateMutability": "nonpayable",
      "type": "function"
    },
    {
      "inputs": [
        {
          "internalType": "bytes",
          "name": "performData",
          "type": "bytes"
        }
      ],
      "name": "performUpkeep",
      "outputs": [],
      "stateMutability": "nonpayable",
      "type": "function"
    },
    {
      "inputs": [
        {
          "internalType": "bytes32",
          "name": "role",
          "type": "bytes32"
        },
        {
          "internalType": "address",
          "name": "account",
          "type": "address"
        }
      ],
      "name": "renounceRole",
      "outputs": [],
      "stateMutability": "nonpayable",
      "type": "function"
    },
    {
      "inputs": [
        {
          "internalType": "bytes32",
          "name": "role",
          "type": "bytes32"
        },
        {
          "internalType": "address",
          "name": "account",
          "type": "address"
        }
      ],
      "name": "revokeRole",
      "outputs": [],
      "stateMutability": "nonpayable",
      "type": "function"
    },
    {
      "inputs": [
        {
          "internalType": "string",
          "name": "_uri",
          "type": "string"
        }
      ],
      "name": "setContractURI",
      "outputs": [],
      "stateMutability": "nonpayable",
      "type": "function"
    },
    {
      "inputs": [],
      "name": "totalAccounts",
      "outputs": [
        {
          "internalType": "uint256",
          "name": "",
          "type": "uint256"
        }
      ],
      "stateMutability": "view",
      "type": "function"
    }
  ],
  "bytecode": {
    "object": "0x600680546001600160a01b03191673c4bf5cbdabe595361438f8c6a187bdc330539c601790556101006040527394a9d9ac8a22534e3faca9f4e7f2e2cf85d5e4c860c090815273aa8e23fb1079ea71e0a56f48a2aa51851d8433d060e0526200006d906007906002620002da565b503480156200007b57600080fd5b5060405162007d4738038062007d478339810160408190526200009e9162000382565b8030604051620000ae9062000344565b6001600160a01b03928316815291166020820152604001604051809103906000f080158015620000e2573d6000803e3d6000fd5b506001600160a01b03908116608052811660a052620001036000836200010b565b505062000409565b62000117828262000127565b620001238282620001a1565b5050565b60008281527f0a7b0f5c59907924802379ebe98cdc23e2ee7820f63d30126e10b3752010e500602090815260408083206001600160a01b0385168085529252808320805460ff1916600117905551339285917f2f8788117e7eff1d82e926ec794901d17c78024a50270940304540a733656f0d9190a45050565b6000620001ad6200026f565b6000848152602091909152604090205490506001620001cb6200026f565b6000858152602091909152604081208054909190620001ec908490620003d7565b90915550829050620001fd6200026f565b6000858152602091825260408082208583526001019092522080546001600160a01b0319166001600160a01b0392909216919091179055806200023f6200026f565b6000948552602090815260408086206001600160a01b03909516865260029094019052919092205550565b905090565b60006200026a60008060ff19620002a860017f0c4ba382c0009cf238e4c1ca1a52f51c61e6248a70bdfb34e5ed49d5578a5c0c620003f3565b604051602001620002bb91815260200190565b60408051601f1981840301815291905280516020909101201692915050565b82805482825590600052602060002090810192821562000332579160200282015b828111156200033257825182546001600160a01b0319166001600160a01b03909116178255602090920191600190910190620002fb565b506200034092915062000352565b5090565b614e458062002f0283390190565b5b8082111562000340576000815560010162000353565b6001600160a01b03811681146200037f57600080fd5b50565b600080604083850312156200039657600080fd5b8251620003a38162000369565b6020840151909250620003b68162000369565b809150509250929050565b634e487b7160e01b600052601160045260246000fd5b80820180821115620003ed57620003ed620003c1565b92915050565b81810381811115620003ed57620003ed620003c1565b60805160a051612ab76200044b600039600081816103840152610e790152600081816101f90152818161086a01528181610dd501526111120152612ab76000f3fe608060405234801561001057600080fd5b50600436106101a95760003560e01c806391d14854116100f9578063ac9650d811610097578063d547741f11610071578063d547741f146103ff578063d8fd8f4414610412578063e68a7c3b14610425578063e8a3d4851461043857600080fd5b8063ac9650d8146103b9578063c3c5a547146103d9578063ca15c873146103ec57600080fd5b8063a217fddf116100d3578063a217fddf14610364578063a32fa5b31461036c578063a65d69d41461037f578063a9709e15146103a657600080fd5b806391d148541461031b5780639387a3801461033e578063938e3d7b1461035157600080fd5b806336568abe116101665780636e04ff0d116101405780636e04ff0d146102c157806383a03f8c146102e25780638878ed33146102f55780639010d07c1461030857600080fd5b806336568abe146102935780634585e33b146102a657806358451f97146102b957600080fd5b806308e93d0a146101ae5780630b61e12b146101cc5780630e6254fd146101e157806311464fbe146101f4578063248a9ca3146102335780632f2ff15d14610280575b600080fd5b6101b661044d565b6040516101c39190612107565b60405180910390f35b6101df6101da36600461212f565b61045e565b005b6101b66101ef36600461215b565b6104ff565b61021b7f000000000000000000000000000000000000000000000000000000000000000081565b6040516001600160a01b0390911681526020016101c3565b610272610241366004612178565b60009081527f0a7b0f5c59907924802379ebe98cdc23e2ee7820f63d30126e10b3752010e501602052604090205490565b6040519081526020016101c3565b6101df61028e366004612191565b610529565b6101df6102a1366004612191565b6105e2565b6101df6102b4366004612209565b610644565b6102726107af565b6102d46102cf366004612209565b6107bb565b6040516101c392919061229a565b6101df6102f0366004612178565b6107d2565b61021b6103033660046122b5565b610820565b61021b610316366004612309565b61089a565b61032e610329366004612191565b6109a8565b60405190151581526020016101c3565b6101df61034c36600461212f565b6109e0565b6101df61035f366004612371565b610a77565b610272600081565b61032e61037a366004612191565b610ac8565b61021b7f000000000000000000000000000000000000000000000000000000000000000081565b6101df6103b436600461215b565b610b39565b6103cc6103c7366004612405565b610baa565b6040516101c39190612479565b61032e6103e736600461215b565b610d10565b6102726103fa366004612178565b610d1c565b6101df61040d366004612191565b610db9565b61021b6104203660046122b5565b610dd0565b6101b6610433366004612309565b610f1b565b61044061104c565b6040516101c391906124db565b606061045960006110fd565b905090565b33610469818361110a565b61048e5760405162461bcd60e51b8152600401610485906124ee565b60405180910390fd5b6001600160a01b03831660009081526002602052604081206104b0908361114e565b905080156104f957836001600160a01b0316826001600160a01b03167f12146497b3b826918ec47f0cac7272a09ed06b30c16c030e99ec48ff5dd60b4760405160405180910390a35b50505050565b6001600160a01b0381166000908152600260205260409020606090610523906110fd565b92915050565b610555600080516020612a628339815191525b6000848152600191909101602052604090205433611163565b600080516020612a628339815191526000838152602091825260408082206001600160a01b0385168352909252205460ff16156105d45760405162461bcd60e51b815260206004820152601d60248201527f43616e206f6e6c79206772616e7420746f206e6f6e20686f6c646572730000006044820152606401610485565b6105de82826111ef565b5050565b336001600160a01b0382161461063a5760405162461bcd60e51b815260206004820152601a60248201527f43616e206f6e6c792072656e6f756e636520666f722073656c660000000000006044820152606401610485565b6105de8282611203565b6004546001600160a01b031633146106945760405162461bcd60e51b815260206004820152601360248201527213db9b1e481d5c1ad9595c08185b1b1bddd959606a1b6044820152606401610485565b600080806106a48486018661253a565b92509250925060005b825181101561074d57836001600160a01b0316633dd6e0258483815181106106d7576106d7612610565b60200260200101516040518263ffffffff1660e01b815260040161070a91906001600160a01b0391909116815260200190565b600060405180830381600087803b15801561072457600080fd5b505af1158015610738573d6000803e3d6000fd5b50505050806107469061263c565b90506106ad565b5080156107a857826001600160a01b031663b28362776040518163ffffffff1660e01b8152600401600060405180830381600087803b15801561078f57600080fd5b505af11580156107a3573d6000803e3d6000fd5b505050505b5050505050565b60006104596000611217565b600060606107c7611221565b909590945092505050565b336107dd818361110a565b6107f95760405162461bcd60e51b8152600401610485906124ee565b61080460008261114e565b6105de5760405162461bcd60e51b815260040161048590612655565b6000806108638585858080601f01602080910402602001604051908101604052809392919081815260200183838082843760009201919091525061168192505050565b905061088f7f0000000000000000000000000000000000000000000000000000000000000000826116b4565b9150505b9392505050565b6000806108a5611714565b600085815260209190915260408120549150805b8281101561099f5760006108cb611714565b60008881526020918252604080822085835260010190925220546001600160a01b0316146109435784820361093157610902611714565b600087815260209182526040808220938252600190930190915220546001600160a01b03169250610523915050565b61093c60018361269f565b915061098d565b61094e8660006109a8565b801561097a575061095d611714565b600087815260209182526040808220828052600201909252205481145b1561098d5761098a60018361269f565b91505b61099860018261269f565b90506108b9565b50505092915050565b6000918252600080516020612a62833981519152602090815260408084206001600160a01b0393909316845291905290205460ff1690565b336109eb818361110a565b610a075760405162461bcd60e51b8152600401610485906124ee565b6001600160a01b0383166000908152600260205260408120610a29908361171e565b905080156104f957836001600160a01b0316826001600160a01b03167f98d1ebbe00ae92a5de96a0f49742a8afa89f42363592bc2e7cfaaed68b45e7a660405160405180910390a350505050565b610a7f611733565b610abc5760405162461bcd60e51b815260206004820152600e60248201526d139bdd08185d5d1a1bdc9a5e995960921b6044820152606401610485565b610ac58161173f565b50565b6000600080516020612a62833981519152600084815260209182526040808220828052909252205460ff16610b3057600080516020612a628339815191526000848152602091825260408082206001600160a01b0386168352909252205460ff169050610523565b50600192915050565b6004546001600160a01b031615610b885760405162461bcd60e51b8152602060048201526013602482015272105b1c9958591e481a5b9a5d1a585b1a5e9959606a1b6044820152606401610485565b600480546001600160a01b0319166001600160a01b0392909216919091179055565b6060816001600160401b03811115610bc457610bc461232b565b604051908082528060200260200182016040528015610bf757816020015b6060815260200190600190039081610be25790505b509050336000805b8481101561099f578115610c7e57610c5c30878784818110610c2357610c23612610565b9050602002810190610c3591906126b2565b86604051602001610c48939291906126f8565b60405160208183030381529060405261185e565b848281518110610c6e57610c6e612610565b6020026020010181905250610cfe565b610ce030878784818110610c9457610c94612610565b9050602002810190610ca691906126b2565b8080601f01602080910402602001604051908101604052809392919081815260200183838082843760009201919091525061185e92505050565b848281518110610cf257610cf2612610565b60200260200101819052505b80610d088161263c565b915050610bff565b60006105238183611883565b600080610d27611714565b6000848152602091909152604081205491505b81811015610d94576000610d4c611714565b60008681526020918252604080822085835260010190925220546001600160a01b031614610d8257610d7f60018461269f565b92505b610d8d60018261269f565b9050610d3a565b50610da08360006109a8565b15610db357610db060018361269f565b91505b50919050565b61063a600080516020612a6283398151915261053c565b6000807f000000000000000000000000000000000000000000000000000000000000000090506000610e388686868080601f01602080910402602001604051908101604052809392919081815260200183838082843760009201919091525061168192505050565b90506000610e4683836116b4565b90506001600160a01b0381163b15610e62579250610893915050565b610e6c83836118a5565b9050336001600160a01b037f00000000000000000000000000000000000000000000000000000000000000001614610ec557610ea960008261114e565b610ec55760405162461bcd60e51b815260040161048590612655565b610ed181888888611942565b866001600160a01b0316816001600160a01b03167fac631f3001b55ea1509cf3d7e74898f85392a61a76e8149181ae1259622dabc860405160405180910390a39695505050505050565b60608183108015610f355750610f316000611217565b8211155b610f8d5760405162461bcd60e51b815260206004820152602360248201527f426173654163636f756e74466163746f72793a20696e76616c696420696e646960448201526263657360e81b6064820152608401610485565b6000610f99848461271e565b9050610fa5848461271e565b6001600160401b03811115610fbc57610fbc61232b565b604051908082528060200260200182016040528015610fe5578160200160208202803683370190505b50915060005b8181101561104457611008611000868361269f565b6000906119aa565b83828151811061101a5761101a612610565b6001600160a01b039092166020928302919091019091015261103d60018261269f565b9050610feb565b505092915050565b60607f4bc804ba64359c0e35e5ed5d90ee596ecaa49a3a930ddcb1470ea0dd625da900805461107a90612731565b80601f01602080910402602001604051908101604052809291908181526020018280546110a690612731565b80156110f35780601f106110c8576101008083540402835291602001916110f3565b820191906000526020600020905b8154815290600101906020018083116110d657829003601f168201915b5050505050905090565b60606000610893836119b6565b6000806111377f0000000000000000000000000000000000000000000000000000000000000000846116b4565b6001600160a01b0385811691161491505092915050565b6000610893836001600160a01b038416611a12565b600080516020612a628339815191526000838152602091825260408082206001600160a01b0385168352909252205460ff166105de576111ad816001600160a01b03166014611a61565b6111b8836020611a61565b6040516020016111c9929190612765565b60408051601f198184030181529082905262461bcd60e51b8252610485916004016124db565b6111f98282611bfc565b6105de8282611c64565b61120d8282611d23565b6105de8282611d92565b6000610523825490565b600060606000600780548060200260200160405190810160405280929190818152602001828054801561127d57602002820191906000526020600020905b81546001600160a01b0316815260019091019060200180831161125f575b50505050509050600061128e61044d565b9050600082516001600160401b038111156112ab576112ab61232b565b6040519080825280602002602001820160405280156112d4578160200160208202803683370190505b50905060606000805b84518110156116775760005b865181101561140857600087828151811061130657611306612610565b60200260200101516001600160a01b03166370a0823188858151811061132e5761132e612610565b60200260200101516040518263ffffffff1660e01b815260040161136191906001600160a01b0391909116815260200190565b602060405180830381865afa15801561137e573d6000803e3d6000fd5b505050506040513d601f19601f820116820180604052508101906113a291906127d2565b11156113f8578681815181106113ba576113ba612610565b60200260200101518584815181106113d4576113d4612610565b6001600160a01b03909216602092830291909101909101526113f58361263c565b92505b6114018161263c565b90506112e9565b50600085828151811061141d5761141d612610565b60200260200101516001600160a01b0316634e9eb56e6040518163ffffffff1660e01b8152600401602060405180830381865afa158015611462573d6000803e3d6000fd5b505050506040513d601f19601f8201168201806040525081019061148691906127d2565b60065487519192506000916001600160a01b03909116906370a08231908990869081106114b5576114b5612610565b60200260200101516040518263ffffffff1660e01b81526004016114e891906001600160a01b0391909116815260200190565b602060405180830381865afa158015611505573d6000803e3d6000fd5b505050506040513d601f19601f8201168201806040525081019061152991906127d2565b90506000828211801561154d5750600061154b670de0b6b3a7640000846127eb565b115b61155857600061155b565b60015b9050846001600160401b038111156115755761157561232b565b60405190808252806020026020018201604052801561159e578160200160208202803683370190505b50955060005b85811015611600578781815181106115be576115be612610565b60200260200101518782815181106115d8576115d8612610565b6001600160a01b03909216602092830291909101909101526115f98161263c565b90506115a4565b5060008651118061160e5750805b1561166357600188858151811061162757611627612610565b602002602001015187836040516020016116439392919061280d565b6040516020818303038152906040529a509a505050505050505050509091565b505050806116709061263c565b90506112dd565b5050505050509091565b60008282604051602001611696929190612843565b60405160208183030381529060405280519060200120905092915050565b6040513060388201526f5af43d82803e903d91602b57fd5bf3ff602482015260148101839052733d602d80600a3d3981f3363d3d373d3d3d363d738152605881018290526037600c82012060788201526055604390910120600090610893565b6000610459611e21565b6000610893836001600160a01b038416611e83565b600061045981336109a8565b60007f4bc804ba64359c0e35e5ed5d90ee596ecaa49a3a930ddcb1470ea0dd625da900805461176d90612731565b80601f016020809104026020016040519081016040528092919081815260200182805461179990612731565b80156117e65780601f106117bb576101008083540402835291602001916117e6565b820191906000526020600020905b8154815290600101906020018083116117c957829003601f168201915b50505050509050816118157f4bc804ba64359c0e35e5ed5d90ee596ecaa49a3a930ddcb1470ea0dd625da90090565b9061182090826128b6565b507fc9c7c3fe08b88b4df9d4d47ef47d2c43d55c025a0ba88ca442580ed9e7348a168183604051611852929190612975565b60405180910390a15050565b60606108938383604051806060016040528060278152602001612a3b60279139611f76565b6001600160a01b03811660009081526001830160205260408120541515610893565b6000763d602d80600a3d3981f3363d3d373d3d3d363d730000008360601b60e81c176000526e5af43d82803e903d91602b57fd5bf38360781b1760205281603760096000f590506001600160a01b0381166105235760405162461bcd60e51b815260206004820152601760248201527f455243313136373a2063726561746532206661696c65640000000000000000006044820152606401610485565b60405163347d5e2560e21b81526001600160a01b0385169063d1f57894906119729086908690869060040161299a565b600060405180830381600087803b15801561198c57600080fd5b505af11580156119a0573d6000803e3d6000fd5b5050505050505050565b60006108938383611fee565b606081600001805480602002602001604051908101604052809291908181526020018280548015611a0657602002820191906000526020600020905b8154815260200190600101908083116119f2575b50505050509050919050565b6000818152600183016020526040812054611a5957508154600181810184556000848152602080822090930184905584548482528286019093526040902091909155610523565b506000610523565b60606000611a708360026129da565b611a7b90600261269f565b6001600160401b03811115611a9257611a9261232b565b6040519080825280601f01601f191660200182016040528015611abc576020820181803683370190505b509050600360fc1b81600081518110611ad757611ad7612610565b60200101906001600160f81b031916908160001a905350600f60fb1b81600181518110611b0657611b06612610565b60200101906001600160f81b031916908160001a9053506000611b2a8460026129da565b611b3590600161269f565b90505b6001811115611bad576f181899199a1a9b1b9c1cb0b131b232b360811b85600f1660108110611b6957611b69612610565b1a60f81b828281518110611b7f57611b7f612610565b60200101906001600160f81b031916908160001a90535060049490941c93611ba6816129f1565b9050611b38565b5083156108935760405162461bcd60e51b815260206004820181905260248201527f537472696e67733a20686578206c656e67746820696e73756666696369656e746044820152606401610485565b6000828152600080516020612a62833981519152602090815260408083206001600160a01b0385168085529252808320805460ff1916600117905551339285917f2f8788117e7eff1d82e926ec794901d17c78024a50270940304540a733656f0d9190a45050565b6000611c6e611714565b6000848152602091909152604090205490506001611c8a611714565b6000858152602091909152604081208054909190611ca990849061269f565b90915550829050611cb8611714565b6000858152602091825260408082208583526001019092522080546001600160a01b0319166001600160a01b039290921691909117905580611cf8611714565b6000948552602090815260408086206001600160a01b03909516865260029094019052919092205550565b611d2d8282611163565b6000828152600080516020612a62833981519152602090815260408083206001600160a01b0385168085529252808320805460ff1916905551339285917ff6391f5c32d9c69d2a47ea670b442974b53935d1edc7fd64eb21e047a839171b9190a45050565b6000611d9c611714565b6000848152602091825260408082206001600160a01b038616835260020190925220549050611dc9611714565b6000848152602091825260408082208483526001019092522080546001600160a01b0319169055611df8611714565b6000938452602090815260408085206001600160a01b0390941685526002909301905250812055565b60008060ff19611e5260017f0c4ba382c0009cf238e4c1ca1a52f51c61e6248a70bdfb34e5ed49d5578a5c0c61271e565b604051602001611e6491815260200190565b60408051601f1981840301815291905280516020909101201692915050565b60008181526001830160205260408120548015611f6c576000611ea760018361271e565b8554909150600090611ebb9060019061271e565b9050818114611f20576000866000018281548110611edb57611edb612610565b9060005260206000200154905080876000018481548110611efe57611efe612610565b6000918252602080832090910192909255918252600188019052604090208390555b8554869080611f3157611f31612a08565b600190038181906000526020600020016000905590558560010160008681526020019081526020016000206000905560019350505050610523565b6000915050610523565b6060600080856001600160a01b031685604051611f939190612a1e565b600060405180830381855af49150503d8060008114611fce576040519150601f19603f3d011682016040523d82523d6000602084013e611fd3565b606091505b5091509150611fe486838387612018565b9695505050505050565b600082600001828154811061200557612005612610565b9060005260206000200154905092915050565b60608315612087578251600003612080576001600160a01b0385163b6120805760405162461bcd60e51b815260206004820152601d60248201527f416464726573733a2063616c6c20746f206e6f6e2d636f6e74726163740000006044820152606401610485565b5081612091565b6120918383612099565b949350505050565b8151156120a95781518083602001fd5b8060405162461bcd60e51b815260040161048591906124db565b600081518084526020808501945080840160005b838110156120fc5781516001600160a01b0316875295820195908201906001016120d7565b509495945050505050565b60208152600061089360208301846120c3565b6001600160a01b0381168114610ac557600080fd5b6000806040838503121561214257600080fd5b823561214d8161211a565b946020939093013593505050565b60006020828403121561216d57600080fd5b81356108938161211a565b60006020828403121561218a57600080fd5b5035919050565b600080604083850312156121a457600080fd5b8235915060208301356121b68161211a565b809150509250929050565b60008083601f8401126121d357600080fd5b5081356001600160401b038111156121ea57600080fd5b60208301915083602082850101111561220257600080fd5b9250929050565b6000806020838503121561221c57600080fd5b82356001600160401b0381111561223257600080fd5b61223e858286016121c1565b90969095509350505050565b60005b8381101561226557818101518382015260200161224d565b50506000910152565b6000815180845261228681602086016020860161224a565b601f01601f19169290920160200192915050565b8215158152604060208201526000612091604083018461226e565b6000806000604084860312156122ca57600080fd5b83356122d58161211a565b925060208401356001600160401b038111156122f057600080fd5b6122fc868287016121c1565b9497909650939450505050565b6000806040838503121561231c57600080fd5b50508035926020909101359150565b634e487b7160e01b600052604160045260246000fd5b604051601f8201601f191681016001600160401b03811182821017156123695761236961232b565b604052919050565b6000602080838503121561238457600080fd5b82356001600160401b038082111561239b57600080fd5b818501915085601f8301126123af57600080fd5b8135818111156123c1576123c161232b565b6123d3601f8201601f19168501612341565b915080825286848285010111156123e957600080fd5b8084840185840137600090820190930192909252509392505050565b6000806020838503121561241857600080fd5b82356001600160401b038082111561242f57600080fd5b818501915085601f83011261244357600080fd5b81358181111561245257600080fd5b8660208260051b850101111561246757600080fd5b60209290920196919550909350505050565b6000602080830181845280855180835260408601915060408160051b870101925083870160005b828110156124ce57603f198886030184526124bc85835161226e565b945092850192908501906001016124a0565b5092979650505050505050565b602081526000610893602083018461226e565b6020808252601f908201527f4163636f756e74466163746f72793a206e6f7420616e206163636f756e742e00604082015260600190565b8035801515811461253557600080fd5b919050565b60008060006060848603121561254f57600080fd5b833561255a8161211a565b92506020848101356001600160401b038082111561257757600080fd5b818701915087601f83011261258b57600080fd5b81358181111561259d5761259d61232b565b8060051b91506125ae848301612341565b818152918301840191848101908a8411156125c857600080fd5b938501935b838510156125f257843592506125e28361211a565b82825293850193908501906125cd565b80975050505050505061260760408501612525565b90509250925092565b634e487b7160e01b600052603260045260246000fd5b634e487b7160e01b600052601160045260246000fd5b60006001820161264e5761264e612626565b5060010190565b6020808252602a908201527f4163636f756e74466163746f72793a206163636f756e7420616c7265616479206040820152691c9959da5cdd195c995960b21b606082015260800190565b8082018082111561052357610523612626565b6000808335601e198436030181126126c957600080fd5b8301803591506001600160401b038211156126e357600080fd5b60200191503681900382131561220257600080fd5b8284823760609190911b6bffffffffffffffffffffffff19169101908152601401919050565b8181038181111561052357610523612626565b600181811c9082168061274557607f821691505b602082108103610db357634e487b7160e01b600052602260045260246000fd5b7402832b936b4b9b9b4b7b7399d1030b1b1b7bab73a1605d1b81526000835161279581601585016020880161224a565b7001034b99036b4b9b9b4b733903937b6329607d1b60159184019182015283516127c681602684016020880161224a565b01602601949350505050565b6000602082840312156127e457600080fd5b5051919050565b60008261280857634e487b7160e01b600052601260045260246000fd5b500690565b6001600160a01b0384168152606060208201819052600090612831908301856120c3565b90508215156040830152949350505050565b6001600160a01b03831681526040602082018190526000906120919083018461226e565b601f8211156128b157600081815260208120601f850160051c8101602086101561288e5750805b601f850160051c820191505b818110156128ad5782815560010161289a565b5050505b505050565b81516001600160401b038111156128cf576128cf61232b565b6128e3816128dd8454612731565b84612867565b602080601f83116001811461291857600084156129005750858301515b600019600386901b1c1916600185901b1785556128ad565b600085815260208120601f198616915b8281101561294757888601518255948401946001909101908401612928565b50858210156129655787850151600019600388901b60f8161c191681555b5050505050600190811b01905550565b604081526000612988604083018561226e565b828103602084015261088f818561226e565b6001600160a01b03841681526040602082018190528101829052818360608301376000818301606090810191909152601f909201601f1916010192915050565b808202811582820484141761052357610523612626565b600081612a0057612a00612626565b506000190190565b634e487b7160e01b600052603160045260246000fd5b60008251612a3081846020870161224a565b919091019291505056fe416464726573733a206c6f772d6c6576656c2064656c65676174652063616c6c206661696c65640a7b0f5c59907924802379ebe98cdc23e2ee7820f63d30126e10b3752010e500a26469706673582212206c6d172b60c109d23f95e2005397c5c4f8700fbdd6c16244337160e50a5ab9d164736f6c634300081400336101806040523480156200001257600080fd5b5060405162004e4538038062004e45833981016040819052620000359162000274565b60408051808201825260078152661058d8dbdd5b9d60ca1b60208083019182528351808501855260018152603160f81b908201529151902060e08190527fc89efdaa54c0f20c7adf612882df0950f5a951637e0307cdcb4c672f298b8bc66101008190524660a081815285517f8b73c3c69bb8fe3d512ecc4cf759cc79239f7b179b0ffacaa9a75d522b39400f818701819052818801959095526060810193909352608080840192909252308382018190528651808503909201825260c093840190965280519401939093209092529190526101205281816200011762000158565b6001600160a01b039081166101405216610160525050600180546001600160a01b031916331790556005805460ff60a01b1916600160a01b179055620002b3565b7f322cf19c484104d3b1a9c2982ebae869ede3fa5f6c4703ca41b9a48c76ee03005460ff808216916101009004168015620001e95760405162461bcd60e51b815260206004820152602760248201527f496e697469616c697a61626c653a20636f6e747261637420697320696e697469604482015266616c697a696e6760c81b606482015260840160405180910390fd5b60ff828116101562000257577f322cf19c484104d3b1a9c2982ebae869ede3fa5f6c4703ca41b9a48c76ee0300805460ff191660ff90811790915560408051918252517f7f26b83ff96e1f2b6a682f133852f6798a09c465da95921460cefb38474024989181900360200190a15b5050565b6001600160a01b03811681146200027157600080fd5b50565b600080604083850312156200028857600080fd5b825162000295816200025b565b6020840151909250620002a8816200025b565b809150509250929050565b60805160a05160c05160e05161010051610120516101405161016051614b02620003436000396000611d9401526000818161062001528181612b7f01528181612d0f01528181612d4501528181612e0d01528181612e830152612eb301526000612764015260006127b30152600061278e015260006126e7015260006127110152600061273b0152614b026000f3fe6080604052600436106102295760003560e01c80639934cdb111610123578063c45a0155116100ab578063e9523c971161006f578063e9523c97146106ae578063ec1afaaa146106d0578063f15d424e146106f0578063f23a6e611461071d578063fbfa77cf1461074957600080fd5b8063c45a01551461060e578063d087d28814610642578063d1f5789414610657578063d42f2f3514610677578063e8a3d4851461068c57600080fd5b8063b0d691fe116100f2578063b0d691fe14610578578063b28362771461058d578063b61d27f6146105a2578063b76464d5146105c2578063bc197c81146105e257600080fd5b80639934cdb1146104cb578063a03e4bc3146104ec578063a9082d841461050c578063ac9650d81461054b57600080fd5b806347e1da2a116101b1578063735de9f711610175578063735de9f71461042957806374c13fda146104495780637dff5a79146104695780638b52d72314610489578063938e3d7b146104ab57600080fd5b806347e1da2a146103ab5780634a58db19146103cb5780634d44560d146103d35780634e9eb56e146103f35780635892e2361461040957600080fd5b80631dd756c5116101f85780631dd756c5146102f157806324d7806c1461031157806329245414146103315780633a871cdd146103695780633dd6e0251461038957600080fd5b806301ffc9a7146102355780630a1028c41461026a578063150b7a02146102985780631626ba7e146102d157600080fd5b3661023057005b600080fd5b34801561024157600080fd5b506102556102503660046138a3565b610769565b60405190151581526020015b60405180910390f35b34801561027657600080fd5b5061028a61028536600461398a565b6107af565b604051908152602001610261565b3480156102a457600080fd5b506102b86102b33660046139e3565b610853565b6040516001600160e01b03199091168152602001610261565b3480156102dd57600080fd5b506102b86102ec366004613a4e565b610864565b3480156102fd57600080fd5b5061025561030c366004613aad565b6109a4565b34801561031d57600080fd5b5061025561032c366004613af2565b610c7c565b34801561033d57600080fd5b50600154610351906001600160a01b031681565b6040516001600160a01b039091168152602001610261565b34801561037557600080fd5b5061028a610384366004613b0f565b610cab565b34801561039557600080fd5b506103a96103a4366004613af2565b610cd1565b005b3480156103b757600080fd5b506103a96103c6366004613ba0565b611234565b6103a96113a5565b3480156103df57600080fd5b506103a96103ee366004613c39565b61140c565b3480156103ff57600080fd5b5061028a60005481565b34801561041557600080fd5b506103a9610424366004613ca6565b611485565b34801561043557600080fd5b50600354610351906001600160a01b031681565b34801561045557600080fd5b50600254610351906001600160a01b031681565b34801561047557600080fd5b50610255610484366004613af2565b611842565b34801561049557600080fd5b5061049e6118fb565b6040516102619190613dbc565b3480156104b757600080fd5b506103a96104c6366004613e1e565b611b42565b3480156104d757600080fd5b5060055461025590600160a01b900460ff1681565b3480156104f857600080fd5b50600454610351906001600160a01b031681565b34801561051857600080fd5b5061052c610527366004613ca6565b611b93565b6040805192151583526001600160a01b03909116602083015201610261565b34801561055757600080fd5b5061056b610566366004613e66565b611bea565b6040516102619190613ef7565b34801561058457600080fd5b50610351611d59565b34801561059957600080fd5b506103a9611db9565b3480156105ae57600080fd5b506103a96105bd366004613f4c565b611fa3565b3480156105ce57600080fd5b506103a96105dd366004613af2565b612033565b3480156105ee57600080fd5b506102b86105fd366004614035565b63bc197c8160e01b95945050505050565b34801561061a57600080fd5b506103517f000000000000000000000000000000000000000000000000000000000000000081565b34801561064e57600080fd5b5061028a61207c565b34801561066357600080fd5b506103a96106723660046140e2565b6120fc565b34801561068357600080fd5b5061049e612334565b34801561069857600080fd5b506106a16124a5565b6040516102619190614129565b3480156106ba57600080fd5b506106c3612556565b6040516102619190614180565b3480156106dc57600080fd5b506103a96106eb3660046141a1565b612568565b3480156106fc57600080fd5b5061071061070b366004613af2565b6125cd565b60405161026191906141be565b34801561072957600080fd5b506102b86107383660046141d1565b63f23a6e6160e01b95945050505050565b34801561075557600080fd5b50600554610351906001600160a01b031681565b60006001600160e01b03198216630271189760e51b148061079a57506001600160e01b03198216630a85bd0160e11b145b806107a957506107a9826126a5565b92915050565b6000807f82cac545155fcbf147f2a9013809613677ac7d65498556e6d19ce43bcbf6c28483805190602001206040516020016107f5929190918252602082015260400190565b6040516020818303038152906040528051906020012090506108156126da565b60405161190160f01b602082015260228101919091526042810182905260620160405160208183030381529060405280519060200120915050919050565b630a85bd0160e11b5b949350505050565b6000806108918460405160200161087d91815260200190565b6040516020818303038152906040526107af565b9050600061089f8285612801565b90506108aa81610c7c565b156108c15750630b135d3f60e11b91506107a99050565b3360006108cc612825565b6001600160a01b03841660009081526006919091016020526040902090506108f48183612849565b8061092457506109038161286b565b6001148015610924575060006109198282612875565b6001600160a01b0316145b6109815760405162461bcd60e51b8152602060048201526024808201527f4163636f756e743a2063616c6c6572206e6f7420617070726f7665642074617260448201526333b2ba1760e11b60648201526084015b60405180910390fd5b61098a83611842565b1561099a57630b135d3f60e11b94505b5050505092915050565b60006109ae612825565b6001600160a01b0384166000908152600491909101602052604090205460ff16156109db575060016107a9565b60006109e5612825565b6001600160a01b0385166000908152600591909101602090815260408083208151606081018352815481526001909101546001600160801b0380821694830194909452600160801b9004909216908201529150610a40612825565b6006016000866001600160a01b03166001600160a01b0316815260200190815260200160002090504282602001516001600160801b03161180610a90575081604001516001600160801b03164210155b80610aa15750610a9f8161286b565b155b15610ab1576000925050506107a9565b6000610ac8610ac36060870187614239565b612881565b90506000610ad58361286b565b6001148015610af657506000610aeb8482612875565b6001600160a01b0316145b90506324f16c0560e11b6001600160e01b0319831601610b6d57600080610b28610b2360608a018a614239565b6128bb565b9150915082610b4e57610b3b8583612849565b610b4e57600096505050505050506107a9565b8551811115610b6657600096505050505050506107a9565b5050610c6f565b635c0f12eb60e11b6001600160e01b0319831601610c6257600080610b9d610b9860608a018a614239565b612920565b509150915082610c075760005b8251811015610c0557610bdf838281518110610bc857610bc861427f565b60200260200101518761284990919063ffffffff16565b610bf35760009750505050505050506107a9565b80610bfd816142ab565b915050610baa565b505b60005b8251811015610c5a57818181518110610c2557610c2561427f565b602002602001015187600001511015610c485760009750505050505050506107a9565b80610c52816142ab565b915050610c0a565b505050610c6f565b60009450505050506107a9565b5060019695505050505050565b6000610c86612825565b6001600160a01b03909216600090815260049290920160205250604090205460ff1690565b6000610cb561296d565b610cbf84846129d7565b9050610cca82612b1d565b9392505050565b6001546001600160a01b0316331480610cee5750610cee33610c7c565b610d3a5760405162461bcd60e51b815260206004820152601d60248201527f4163636f756e743a206e6f742061646d696e206f722055706b6565702e0000006044820152606401610978565b600554600160a01b900460ff16610d935760405162461bcd60e51b815260206004820152601760248201527f4163636f756e743a20737570706c79207061757365642e0000000000000000006044820152606401610978565b6040516370a0823160e01b81523060048201526000906001600160a01b038316906370a0823190602401602060405180830381865afa158015610dda573d6000803e3d6000fd5b505050506040513d601f19601f82011682018060405250810190610dfe91906142c4565b90506000610e0f620f4240836142dd565b90506000610e1d82846142ff565b60048054604051632fe4a15f60e21b815230928101929092529192506000916001600160a01b03169063bf92857c9060240160c060405180830381865afa158015610e6c573d6000803e3d6000fd5b505050506040513d601f19601f82011682018060405250810190610e909190614312565b5050505091505060008311156110ab57600081118015610eb05750808311155b15610fbb576004805460405163095ea7b360e01b81526001600160a01b03918216928101929092526024820185905286169063095ea7b3906044016020604051808303816000875af1158015610f0a573d6000803e3d6000fd5b505050506040513d601f19601f82011682018060405250810190610f2e919061435c565b506004805460405163573ade8160e01b81526001600160a01b0388811693820193909352602481018690526002604482015230606482015291169063573ade81906084016020604051808303816000875af1158015610f91573d6000803e3d6000fd5b505050506040513d601f19601f82011682018060405250810190610fb591906142c4565b506110ab565b6004805460405163095ea7b360e01b81526001600160a01b03918216928101929092526024820185905286169063095ea7b3906044016020604051808303816000875af1158015611010573d6000803e3d6000fd5b505050506040513d601f19601f82011682018060405250810190611034919061435c565b506004805460405163617ba03760e01b81526001600160a01b0388811693820193909352602481018690523060448201526000606482015291169063617ba03790608401600060405180830381600087803b15801561109257600080fd5b505af11580156110a6573d6000803e3d6000fd5b505050505b60408051600280825260608201835260009260208301908036833701905050905085816000815181106110e0576110e061427f565b6001600160a01b0392831660209182029290920101526002548251911690829060019081106111115761111161427f565b6001600160a01b03928316602091820292909201015260035460405163095ea7b360e01b81529082166004820152602481018590529087169063095ea7b3906044016020604051808303816000875af1158015611172573d6000803e3d6000fd5b505050506040513d601f19601f82011682018060405250810190611196919061435c565b506003546040516338ed173960e01b81526000916001600160a01b0316906338ed1739906111d09087908190879030904290600401614379565b6020604051808303816000875af11580156111ef573d6000803e3d6000fd5b505050506040513d601f19601f8201168201806040525081019061121391906142c4565b90508060008082825461122691906143b5565b909155505050505050505050565b61123c611d59565b6001600160a01b0316336001600160a01b0316148061125f575061125f33610c7c565b61127b5760405162461bcd60e51b8152600401610978906143c8565b611283612b6a565b848114801561129157508483145b6112dd5760405162461bcd60e51b815260206004820152601d60248201527f4163636f756e743a2077726f6e67206172726179206c656e677468732e0000006044820152606401610978565b60005b8581101561139c576113898787838181106112fd576112fd61427f565b90506020020160208101906113129190613af2565b8686848181106113245761132461427f565b9050602002013585858581811061133d5761133d61427f565b905060200281019061134f9190614239565b8080601f016020809104026020016040519081016040528093929190818152602001838380828437600092019190915250612c4c92505050565b5080611394816142ab565b9150506112e0565b50505050505050565b6113ad611d59565b60405163b760faf960e01b81523060048201526001600160a01b03919091169063b760faf99034906024016000604051808303818588803b1580156113f157600080fd5b505af1158015611405573d6000803e3d6000fd5b5050505050565b611414612cbd565b61141c611d59565b60405163040b850f60e31b81526001600160a01b03848116600483015260248201849052919091169063205c2878906044015b600060405180830381600087803b15801561146957600080fd5b505af115801561147d573d6000803e3d6000fd5b505050505050565b60006114946020850185613af2565b9050426114a760e0860160c08701614420565b6001600160801b0316111580156114d657506114ca610100850160e08601614420565b6001600160801b031642105b61150c5760405162461bcd60e51b8152602060048201526007602482015266085c195c9a5bd960ca1b6044820152606401610978565b60008061151a868686611b93565b91509150816115545760405162461bcd60e51b8152600401610978906020808252600490820152632173696760e01b604082015260600190565b600161155e612825565b610100880135600090815260079190910160209081526040808320805460ff191694151594909417909355909161159a9190890190890161444c565b60ff1611156115c75760006115b5604088016020890161444c565b60ff16600114905061139c8482612cfb565b6115d083610c7c565b156116055760405162461bcd60e51b815260206004820152600560248201526430b236b4b760d91b6044820152606401610978565b61161a83611611612825565b60020190612e42565b506040518060600160405280876060013581526020018760800160208101906116439190614420565b6001600160801b0316815260200161166160c0890160a08a01614420565b6001600160801b03169052611674612825565b6001600160a01b03851660009081526005919091016020908152604080832084518155918401519301516001600160801b03908116600160801b029316929092176001909201919091556116ea6116c9612825565b6001600160a01b038616600090815260069190910160205260409020612e57565b805190915060005b818110156117545761174183828151811061170f5761170f61427f565b602002602001015161171f612825565b6001600160a01b03891660009081526006919091016020526040902090612e64565b5061174d6001826143b5565b90506116f2565b506117626040890189614467565b9050905060005b818110156117e3576117d061178160408b018b614467565b838181106117915761179161427f565b90506020020160208101906117a69190613af2565b6117ae612825565b6001600160a01b03891660009081526006919091016020526040902090612e42565b506117dc6001826143b5565b9050611769565b506117ed88612e79565b846001600160a01b0316836001600160a01b03167ff21d10c26e35863a8df291aca54181ee8c4a3bc8e00246c3f7a5a14b69d826a78a6040516118309190614536565b60405180910390a35050505050505050565b60008061184d612825565b6001600160a01b038416600090815260059190910160209081526040918290208251606081018452815481526001909101546001600160801b03808216938301849052600160801b909104169281019290925290915042108015906118be575080604001516001600160801b031642105b8015610cca575060006118f36118d2612825565b6001600160a01b03861660009081526006919091016020526040902061286b565b119392505050565b6060600061191261190a612825565b600201612e57565b80519091506000805b828110156119a3576119458482815181106119385761193861427f565b6020026020010151611842565b1561195c5781611954816142ab565b925050611991565b60008482815181106119705761197061427f565b60200260200101906001600160a01b031690816001600160a01b0316815250505b61199c6001826143b5565b905061191b565b50806001600160401b038111156119bc576119bc6138cd565b6040519080825280602002602001820160405280156119f557816020015b6119e2613859565b8152602001906001900390816119da5790505b5093506000805b83811015611b3a5760006001600160a01b0316858281518110611a2157611a2161427f565b60200260200101516001600160a01b031614611b28576000858281518110611a4b57611a4b61427f565b602002602001015190506000611a5f612825565b6001600160a01b038316600081815260059290920160209081526040928390208351606081018552815481526001909101546001600160801b0380821683850152600160801b9091041681850152835160a081019094529183529092508101611ac96116c9612825565b81526020018260000151815260200182602001516001600160801b0316815260200182604001516001600160801b0316815250888580611b08906142ab565b965081518110611b1a57611b1a61427f565b602002602001018190525050505b611b336001826143b5565b90506119fc565b505050505090565b611b4a612f27565b611b875760405162461bcd60e51b815260206004820152600e60248201526d139bdd08185d5d1a1bdc9a5e995960921b6044820152606401610978565b611b9081612f3f565b50565b600080611ba9611ba28661305e565b85856131a2565b9050611bb3612825565b6101008601356000908152600791909101602052604090205460ff16158015611be05750611be081610c7c565b9150935093915050565b6060816001600160401b03811115611c0457611c046138cd565b604051908082528060200260200182016040528015611c3757816020015b6060815260200190600190039081611c225790505b509050336000805b84811015611d50578115611cbe57611c9c30878784818110611c6357611c6361427f565b9050602002810190611c759190614239565b86604051602001611c889392919061462f565b6040516020818303038152906040526131f4565b848281518110611cae57611cae61427f565b6020026020010181905250611d3e565b611d2030878784818110611cd457611cd461427f565b9050602002810190611ce69190614239565b8080601f0160208091040260200160405190810160405280939291908181526020018383808284376000920191909152506131f492505050565b848281518110611d3257611d3261427f565b60200260200101819052505b80611d48816142ab565b915050611c3f565b50505092915050565b7f036f52c1827dab135f7fd44ca0bddde297e2f659c710e0ec53e975f22b548300546000906001600160a01b03168015611d9257919050565b7f000000000000000000000000000000000000000000000000000000000000000091505090565b6001546001600160a01b0316331480611dd65750611dd633610c7c565b611e225760405162461bcd60e51b815260206004820152601d60248201527f4163636f756e743a206e6f742061646d696e206f722055706b6565702e0000006044820152606401610978565b6002546040516370a0823160e01b81523060048201526000916001600160a01b0316906370a0823190602401602060405180830381865afa158015611e6b573d6000803e3d6000fd5b505050506040513d601f19601f82011682018060405250810190611e8f91906142c4565b90506000805482611ea091906142ff565b60025460055460405163095ea7b360e01b81526001600160a01b03918216600482015260248101849052929350169063095ea7b3906044016020604051808303816000875af1158015611ef7573d6000803e3d6000fd5b505050506040513d601f19601f82011682018060405250810190611f1b919061435c565b50600554604051636e553f6560e01b8152600481018390523060248201526001600160a01b0390911690636e553f65906044016020604051808303816000875af1158015611f6d573d6000803e3d6000fd5b505050506040513d601f19601f82011682018060405250810190611f9191906142c4565b50611f9c81836142ff565b6000555050565b611fab611d59565b6001600160a01b0316336001600160a01b03161480611fce5750611fce33610c7c565b611fea5760405162461bcd60e51b8152600401610978906143c8565b611ff2612b6a565b611405848484848080601f016020809104026020016040519081016040528093929190818152602001838380828437600092019190915250612c4c92505050565b61203b612cbd565b7f036f52c1827dab135f7fd44ca0bddde297e2f659c710e0ec53e975f22b54830080546001600160a01b0319166001600160a01b0392909216919091179055565b6000612086611d59565b604051631aab3f0d60e11b8152306004820152600060248201526001600160a01b0391909116906335567e1a90604401602060405180830381865afa1580156120d3573d6000803e3d6000fd5b505050506040513d601f19601f820116820180604052508101906120f791906142c4565b905090565b600080516020614a868339815191525460ff80821691610100900416801580801561212a575060018360ff16105b806121425750303b15801561214257508260ff166001145b6121a55760405162461bcd60e51b815260206004820152602e60248201527f496e697469616c697a61626c653a20636f6e747261637420697320616c72656160448201526d191e481a5b9a5d1a585b1a5e995960921b6064820152608401610978565b600080516020614a86833981519152805460ff1916600117905580156121e257600080516020614a86833981519152805461ff0019166101001790555b6122228686868080601f01602080910402602001604051908101604052809392919081815260200183838082843760009201919091525061321992505050565b600080516020614a668339815191525561223d866001612cfb565b600180546001600160a01b031990811633179091556005805460028054841673c4bf5cbdabe595361438f8c6a187bdc330539c6017905560038054841673f125dbd2865d1638efb4b98fd07a11cca2d9d7fd17905560048054909316736ae43d3271ff6888e7fc43fd7321a503ff738951179092557401cdf50ab9837b08e4777f5a28abfc5184311124756001600160a81b0319909216919091179055801561147d57600080516020614a86833981519152805461ff0019169055604080516001815290517f7f26b83ff96e1f2b6a682f133852f6798a09c465da95921460cefb38474024989181900360200190a1505050505050565b6060600061234361190a612825565b8051909150806001600160401b03811115612360576123606138cd565b60405190808252806020026020018201604052801561239957816020015b612386613859565b81526020019060019003908161237e5790505b50925060005b8181101561249f5760008382815181106123bb576123bb61427f565b6020026020010151905060006123cf612825565b6001600160a01b038316600081815260059290920160209081526040928390208351606081018552815481526001909101546001600160801b0380821683850152600160801b9091041681850152835160a0810190945291835290925081016124396116c9612825565b81526020018260000151815260200182602001516001600160801b0316815260200182604001516001600160801b031681525086848151811061247e5761247e61427f565b6020026020010181905250505060018161249891906143b5565b905061239f565b50505090565b60607f4bc804ba64359c0e35e5ed5d90ee596ecaa49a3a930ddcb1470ea0dd625da90080546124d390614655565b80601f01602080910402602001604051908101604052809291908181526020018280546124ff90614655565b801561254c5780601f106125215761010080835404028352916020019161254c565b820191906000526020600020905b81548152906001019060200180831161252f57829003601f168201915b5050505050905090565b60606120f7612563612825565b612e57565b612570611d59565b6001600160a01b0316336001600160a01b03161480612593575061259333610c7c565b6125af5760405162461bcd60e51b8152600401610978906143c8565b60058054911515600160a01b0260ff60a01b19909216919091179055565b6125d5613859565b60006125df612825565b6001600160a01b038416600081815260059290920160209081526040928390208351606081018552815481526001909101546001600160801b0380821683850152600160801b9091041681850152835160a08101909452918352909250810161266a612649612825565b6001600160a01b038716600090815260069190910160205260409020612e57565b81526020018260000151815260200182602001516001600160801b0316815260200182604001516001600160801b0316815250915050919050565b60006001600160e01b03198216630271189760e51b14806107a957506301ffc9a760e01b6001600160e01b03198316146107a9565b6000306001600160a01b037f00000000000000000000000000000000000000000000000000000000000000001614801561273357507f000000000000000000000000000000000000000000000000000000000000000046145b1561275d57507f000000000000000000000000000000000000000000000000000000000000000090565b50604080517f00000000000000000000000000000000000000000000000000000000000000006020808301919091527f0000000000000000000000000000000000000000000000000000000000000000828401527f000000000000000000000000000000000000000000000000000000000000000060608301524660808301523060a0808401919091528351808403909101815260c0909201909252805191012090565b6000806000612810858561324c565b9150915061281d81613291565b509392505050565b7f3181e78fc1b109bc611fd2406150bf06e33faa75f71cba12c3e1fd670f2def0090565b6001600160a01b03811660009081526001830160205260408120541515610cca565b60006107a9825490565b6000610cca83836133db565b600060048210156128a45760405162461bcd60e51b815260040161097890614689565b6128b26004600084866146a8565b610cca916146d2565b60008060448310156128df5760405162461bcd60e51b815260040161097890614689565b6128ed6024600485876146a8565b8101906128fa9190613af2565b915061290a6044602485876146a8565b8101906129179190614702565b90509250929050565b6060808060648410156129455760405162461bcd60e51b815260040161097890614689565b61295284600481886146a8565b81019061295f919061479a565b919790965090945092505050565b612975611d59565b6001600160a01b0316336001600160a01b0316146129d55760405162461bcd60e51b815260206004820152601c60248201527f6163636f756e743a206e6f742066726f6d20456e747279506f696e74000000006044820152606401610978565b565b7f19457468657265756d205369676e6564204d6573736167653a0a3332000000006000908152601c829052603c81206000612a56612a19610140870187614239565b8080601f01602080910402602001604051908101604052809392919081815260200183838082843760009201919091525086939250506128019050565b9050612a6281866109a4565b612a71576001925050506107a9565b6000612a7b612825565b6001600160a01b03929092166000908152600590920160209081526040808420815160608082018452825482526001909201546001600160801b0380821683870152600160801b8204908116928501929092528351928301845295825265ffffffffffff8087169483019490945292831691015260d09290921b6001600160d01b03191660a09290921b65ffffffffffff60a01b169190911795945050505050565b8015611b9057604051600090339060001990849084818181858888f193505050503d8060008114611405576040519150601f19603f3d011682016040523d82523d6000602084013e611405565b60405163c3c5a54760e01b81523060048201527f0000000000000000000000000000000000000000000000000000000000000000906001600160a01b0382169063c3c5a54790602401602060405180830381865afa158015612bd0573d6000803e3d6000fd5b505050506040513d601f19601f82011682018060405250810190612bf4919061435c565b611b9057600080516020614a66833981519152546040516320e80fe360e21b815260048101919091526001600160a01b038216906383a03f8c906024015b600060405180830381600087803b1580156113f157600080fd5b60606000846001600160a01b03168484604051612c69919061487f565b60006040518083038185875af1925050503d8060008114612ca6576040519150601f19603f3d011682016040523d82523d6000602084013e612cab565b606091505b50925090508061281d57815160208301fd5b612cc633610c7c565b6129d55760405162461bcd60e51b815260206004820152600660248201526510b0b236b4b760d11b6044820152606401610978565b612d058282613405565b6001600160a01b037f0000000000000000000000000000000000000000000000000000000000000000163b15612e3e578015612dd6576001600160a01b037f000000000000000000000000000000000000000000000000000000000000000016630b61e12b837f036f52c1827dab135f7fd44ca0bddde297e2f659c710e0ec53e975f22b548300600101546040516001600160e01b031960e085901b1681526001600160a01b0390921660048301526024820152604401600060405180830381600087803b15801561146957600080fd5b600080516020614a66833981519152546040516301270f4760e71b81526001600160a01b03848116600483015260248201929092527f000000000000000000000000000000000000000000000000000000000000000090911690639387a3809060440161144f565b5050565b6000610cca836001600160a01b0384166134b4565b60606000610cca83613503565b6000610cca836001600160a01b03841661355f565b6001600160a01b037f0000000000000000000000000000000000000000000000000000000000000000163b15611b90576001600160a01b037f000000000000000000000000000000000000000000000000000000000000000016630b61e12b612ee56020840184613af2565b600080516020614a668339815191525460405160e084901b6001600160e01b03191681526001600160a01b039290921660048301526024820152604401612c32565b6000612f3233610c7c565b806120f757505030331490565b60007f4bc804ba64359c0e35e5ed5d90ee596ecaa49a3a930ddcb1470ea0dd625da9008054612f6d90614655565b80601f0160208091040260200160405190810160405280929190818152602001828054612f9990614655565b8015612fe65780601f10612fbb57610100808354040283529160200191612fe6565b820191906000526020600020905b815481529060010190602001808311612fc957829003601f168201915b50505050509050816130157f4bc804ba64359c0e35e5ed5d90ee596ecaa49a3a930ddcb1470ea0dd625da90090565b9061302090826148e6565b507fc9c7c3fe08b88b4df9d4d47ef47d2c43d55c025a0ba88ca442580ed9e7348a1681836040516130529291906149a5565b60405180910390a15050565b60607f3fd4a1a1a267c84185e3b7eecd57c68783c0581d538b9d6e5f23e4670497c1e961308e6020840184613af2565b61309e604085016020860161444c565b6130ab6040860186614467565b6040516020016130bc9291906149d3565b60408051601f19818403018152919052805160209091012060608601356130e960a0880160808901614420565b6130f960c0890160a08a01614420565b61310960e08a0160c08b01614420565b61311a6101008b0160e08c01614420565b60408051602081019a909a526001600160a01b039098169789019790975260ff9095166060880152608087019390935260a08601919091526001600160801b0390811660c086015290811660e0850152908116610100848101919091529116610120830152830135610140820152610160016040516020818303038152906040529050919050565b600061085c83838080601f01602080910402602001604051908101604052809392919081815260200183838082843760009201919091525050875160208901206131ee92509050613652565b90612801565b6060610cca8383604051806060016040528060278152602001614aa66027913961367f565b6000828260405160200161322e929190614a15565b60405160208183030381529060405280519060200120905092915050565b60008082516041036132825760208301516040840151606085015160001a613276878285856136f7565b9450945050505061328a565b506000905060025b9250929050565b60008160048111156132a5576132a5614a39565b036132ad5750565b60018160048111156132c1576132c1614a39565b0361330e5760405162461bcd60e51b815260206004820152601860248201527f45434453413a20696e76616c6964207369676e617475726500000000000000006044820152606401610978565b600281600481111561332257613322614a39565b0361336f5760405162461bcd60e51b815260206004820152601f60248201527f45434453413a20696e76616c6964207369676e6174757265206c656e677468006044820152606401610978565b600381600481111561338357613383614a39565b03611b905760405162461bcd60e51b815260206004820152602260248201527f45434453413a20696e76616c6964207369676e6174757265202773272076616c604482015261756560f01b6064820152608401610978565b60008260000182815481106133f2576133f261427f565b9060005260206000200154905092915050565b8061340e612825565b6001600160a01b038416600090815260049190910160205260409020805460ff19169115159190911790558015613457576134518261344b612825565b90612e42565b5061346b565b61346982613463612825565b90612e64565b505b816001600160a01b03167f235bc17e7930760029e9f4d860a2a8089976de5b381cf8380fc11c1d88a11133826040516134a8911515815260200190565b60405180910390a25050565b60008181526001830160205260408120546134fb575081546001818101845560008481526020808220909301849055845484825282860190935260409020919091556107a9565b5060006107a9565b60608160000180548060200260200160405190810160405280929190818152602001828054801561355357602002820191906000526020600020905b81548152602001906001019080831161353f575b50505050509050919050565b600081815260018301602052604081205480156136485760006135836001836142ff565b8554909150600090613597906001906142ff565b90508181146135fc5760008660000182815481106135b7576135b761427f565b90600052602060002001549050808760000184815481106135da576135da61427f565b6000918252602080832090910192909255918252600188019052604090208390555b855486908061360d5761360d614a4f565b6001900381819060005260206000200160009055905585600101600086815260200190815260200160002060009055600193505050506107a9565b60009150506107a9565b60006107a961365f6126da565b8360405161190160f01b8152600281019290925260228201526042902090565b6060600080856001600160a01b03168560405161369c919061487f565b600060405180830381855af49150503d80600081146136d7576040519150601f19603f3d011682016040523d82523d6000602084013e6136dc565b606091505b50915091506136ed868383876137bb565b9695505050505050565b6000807f7fffffffffffffffffffffffffffffff5d576e7357a4501ddfe92f46681b20a083111561372e57506000905060036137b2565b6040805160008082526020820180845289905260ff881692820192909252606081018690526080810185905260019060a0016020604051602081039080840390855afa158015613782573d6000803e3d6000fd5b5050604051601f1901519150506001600160a01b0381166137ab576000600192509250506137b2565b9150600090505b94509492505050565b6060831561382a578251600003613823576001600160a01b0385163b6138235760405162461bcd60e51b815260206004820152601d60248201527f416464726573733a2063616c6c20746f206e6f6e2d636f6e74726163740000006044820152606401610978565b508161085c565b61085c838381511561383f5781518083602001fd5b8060405162461bcd60e51b81526004016109789190614129565b6040518060a0016040528060006001600160a01b03168152602001606081526020016000815260200160006001600160801b0316815260200160006001600160801b031681525090565b6000602082840312156138b557600080fd5b81356001600160e01b031981168114610cca57600080fd5b634e487b7160e01b600052604160045260246000fd5b604051601f8201601f191681016001600160401b038111828210171561390b5761390b6138cd565b604052919050565b60006001600160401b0383111561392c5761392c6138cd565b61393f601f8401601f19166020016138e3565b905082815283838301111561395357600080fd5b828260208301376000602084830101529392505050565b600082601f83011261397b57600080fd5b610cca83833560208501613913565b60006020828403121561399c57600080fd5b81356001600160401b038111156139b257600080fd5b61085c8482850161396a565b6001600160a01b0381168114611b9057600080fd5b80356139de816139be565b919050565b600080600080608085870312156139f957600080fd5b8435613a04816139be565b93506020850135613a14816139be565b92506040850135915060608501356001600160401b03811115613a3657600080fd5b613a428782880161396a565b91505092959194509250565b60008060408385031215613a6157600080fd5b8235915060208301356001600160401b03811115613a7e57600080fd5b613a8a8582860161396a565b9150509250929050565b60006101608284031215613aa757600080fd5b50919050565b60008060408385031215613ac057600080fd5b8235613acb816139be565b915060208301356001600160401b03811115613ae657600080fd5b613a8a85828601613a94565b600060208284031215613b0457600080fd5b8135610cca816139be565b600080600060608486031215613b2457600080fd5b83356001600160401b03811115613b3a57600080fd5b613b4686828701613a94565b9660208601359650604090950135949350505050565b60008083601f840112613b6e57600080fd5b5081356001600160401b03811115613b8557600080fd5b6020830191508360208260051b850101111561328a57600080fd5b60008060008060008060608789031215613bb957600080fd5b86356001600160401b0380821115613bd057600080fd5b613bdc8a838b01613b5c565b90985096506020890135915080821115613bf557600080fd5b613c018a838b01613b5c565b90965094506040890135915080821115613c1a57600080fd5b50613c2789828a01613b5c565b979a9699509497509295939492505050565b60008060408385031215613c4c57600080fd5b8235613c57816139be565b946020939093013593505050565b60008083601f840112613c7757600080fd5b5081356001600160401b03811115613c8e57600080fd5b60208301915083602082850101111561328a57600080fd5b600080600060408486031215613cbb57600080fd5b83356001600160401b0380821115613cd257600080fd5b908501906101208288031215613ce757600080fd5b90935060208501359080821115613cfd57600080fd5b50613d0a86828701613c65565b9497909650939450505050565b80516001600160a01b03908116835260208083015160a082860181905281519086018190526000939183019290849060c08801905b80831015613d6e57855185168252948301946001929092019190830190613d4c565b506040870151604089015260608701519450613d9560608901866001600160801b03169052565b60808701519450613db160808901866001600160801b03169052565b979650505050505050565b6000602080830181845280855180835260408601915060408160051b870101925083870160005b82811015613e1157603f19888603018452613dff858351613d17565b94509285019290850190600101613de3565b5092979650505050505050565b600060208284031215613e3057600080fd5b81356001600160401b03811115613e4657600080fd5b8201601f81018413613e5757600080fd5b61085c84823560208401613913565b60008060208385031215613e7957600080fd5b82356001600160401b03811115613e8f57600080fd5b613e9b85828601613b5c565b90969095509350505050565b60005b83811015613ec2578181015183820152602001613eaa565b50506000910152565b60008151808452613ee3816020860160208601613ea7565b601f01601f19169290920160200192915050565b6000602080830181845280855180835260408601915060408160051b870101925083870160005b82811015613e1157603f19888603018452613f3a858351613ecb565b94509285019290850190600101613f1e565b60008060008060608587031215613f6257600080fd5b8435613f6d816139be565b93506020850135925060408501356001600160401b03811115613f8f57600080fd5b613f9b87828801613c65565b95989497509550505050565b60006001600160401b03821115613fc057613fc06138cd565b5060051b60200190565b600082601f830112613fdb57600080fd5b81356020613ff0613feb83613fa7565b6138e3565b82815260059290921b8401810191818101908684111561400f57600080fd5b8286015b8481101561402a5780358352918301918301614013565b509695505050505050565b600080600080600060a0868803121561404d57600080fd5b8535614058816139be565b94506020860135614068816139be565b935060408601356001600160401b038082111561408457600080fd5b61409089838a01613fca565b945060608801359150808211156140a657600080fd5b6140b289838a01613fca565b935060808801359150808211156140c857600080fd5b506140d58882890161396a565b9150509295509295909350565b6000806000604084860312156140f757600080fd5b8335614102816139be565b925060208401356001600160401b0381111561411d57600080fd5b613d0a86828701613c65565b602081526000610cca6020830184613ecb565b600081518084526020808501945080840160005b838110156141755781516001600160a01b031687529582019590820190600101614150565b509495945050505050565b602081526000610cca602083018461413c565b8015158114611b9057600080fd5b6000602082840312156141b357600080fd5b8135610cca81614193565b602081526000610cca6020830184613d17565b600080600080600060a086880312156141e957600080fd5b85356141f4816139be565b94506020860135614204816139be565b9350604086013592506060860135915060808601356001600160401b0381111561422d57600080fd5b6140d58882890161396a565b6000808335601e1984360301811261425057600080fd5b8301803591506001600160401b0382111561426a57600080fd5b60200191503681900382131561328a57600080fd5b634e487b7160e01b600052603260045260246000fd5b634e487b7160e01b600052601160045260246000fd5b6000600182016142bd576142bd614295565b5060010190565b6000602082840312156142d657600080fd5b5051919050565b6000826142fa57634e487b7160e01b600052601260045260246000fd5b500690565b818103818111156107a9576107a9614295565b60008060008060008060c0878903121561432b57600080fd5b865195506020870151945060408701519350606087015192506080870151915060a087015190509295509295509295565b60006020828403121561436e57600080fd5b8151610cca81614193565b85815284602082015260a06040820152600061439860a083018661413c565b6001600160a01b0394909416606083015250608001529392505050565b808201808211156107a9576107a9614295565b60208082526021908201527f4163636f756e743a206e6f742061646d696e206f7220456e747279506f696e746040820152601760f91b606082015260800190565b80356001600160801b03811681146139de57600080fd5b60006020828403121561443257600080fd5b610cca82614409565b803560ff811681146139de57600080fd5b60006020828403121561445e57600080fd5b610cca8261443b565b6000808335601e1984360301811261447e57600080fd5b8301803591506001600160401b0382111561449857600080fd5b6020019150600581901b360382131561328a57600080fd5b6000808335601e198436030181126144c757600080fd5b83016020810192503590506001600160401b038111156144e657600080fd5b8060051b360382131561328a57600080fd5b8183526000602080850194508260005b8581101561417557813561451b816139be565b6001600160a01b031687529582019590820190600101614508565b602081526145576020820161454a846139d3565b6001600160a01b03169052565b60006145656020840161443b565b60ff811660408401525061457c60408401846144b0565b610120806060860152614594610140860183856144f8565b9250606086013560808601526145ac60808701614409565b6001600160801b03811660a087015291506145c960a08701614409565b6001600160801b03811660c087015291506145e660c08701614409565b6001600160801b03811660e0870152915061460360e08701614409565b915061010061461c818701846001600160801b03169052565b9590950135939094019290925250919050565b8284823760609190911b6bffffffffffffffffffffffff19169101908152601401919050565b600181811c9082168061466957607f821691505b602082108103613aa757634e487b7160e01b600052602260045260246000fd5b602080825260059082015264214461746160d81b604082015260600190565b600080858511156146b857600080fd5b838611156146c557600080fd5b5050820193919092039150565b6001600160e01b031981358181169160048510156146fa5780818660040360031b1b83161692505b505092915050565b60006020828403121561471457600080fd5b5035919050565b600082601f83011261472c57600080fd5b8135602061473c613feb83613fa7565b82815260059290921b8401810191818101908684111561475b57600080fd5b8286015b8481101561402a5780356001600160401b0381111561477e5760008081fd5b61478c8986838b010161396a565b84525091830191830161475f565b6000806000606084860312156147af57600080fd5b83356001600160401b03808211156147c657600080fd5b818601915086601f8301126147da57600080fd5b813560206147ea613feb83613fa7565b82815260059290921b8401810191818101908a84111561480957600080fd5b948201945b83861015614830578535614821816139be565b8252948201949082019061480e565b9750508701359250508082111561484657600080fd5b61485287838801613fca565b9350604086013591508082111561486857600080fd5b506148758682870161471b565b9150509250925092565b60008251614891818460208701613ea7565b9190910192915050565b601f8211156148e157600081815260208120601f850160051c810160208610156148c25750805b601f850160051c820191505b8181101561147d578281556001016148ce565b505050565b81516001600160401b038111156148ff576148ff6138cd565b6149138161490d8454614655565b8461489b565b602080601f83116001811461494857600084156149305750858301515b600019600386901b1c1916600185901b17855561147d565b600085815260208120601f198616915b8281101561497757888601518255948401946001909101908401614958565b50858210156149955787850151600019600388901b60f8161c191681555b5050505050600190811b01905550565b6040815260006149b86040830185613ecb565b82810360208401526149ca8185613ecb565b95945050505050565b60008184825b85811015614a0a5781356149ec816139be565b6001600160a01b0316835260209283019291909101906001016149d9565b509095945050505050565b6001600160a01b038316815260406020820181905260009061085c90830184613ecb565b634e487b7160e01b600052602160045260246000fd5b634e487b7160e01b600052603160045260246000fdfe036f52c1827dab135f7fd44ca0bddde297e2f659c710e0ec53e975f22b548301322cf19c484104d3b1a9c2982ebae869ede3fa5f6c4703ca41b9a48c76ee0300416464726573733a206c6f772d6c6576656c2064656c65676174652063616c6c206661696c6564a2646970667358221220cc791ff07726aca9ac72224bcb90cdca188a28d0f665a7502b7d50718bfea02364736f6c63430008140033",
    "linkReferences": {}
  },
  "methodIdentifiers": {
    "DEFAULT_ADMIN_ROLE()": "a217fddf",
    "accountImplementation()": "11464fbe",
    "checkUpkeep(bytes)": "6e04ff0d",
    "contractURI()": "e8a3d485",
    "createAccount(address,bytes)": "d8fd8f44",
    "entrypoint()": "a65d69d4",
    "getAccounts(uint256,uint256)": "e68a7c3b",
    "getAccountsOfSigner(address)": "0e6254fd",
    "getAddress(address,bytes)": "8878ed33",
    "getAllAccounts()": "08e93d0a",
    "getRoleAdmin(bytes32)": "248a9ca3",
    "getRoleMember(bytes32,uint256)": "9010d07c",
    "getRoleMemberCount(bytes32)": "ca15c873",
    "grantRole(bytes32,address)": "2f2ff15d",
    "hasRole(bytes32,address)": "91d14854",
    "hasRoleWithSwitch(bytes32,address)": "a32fa5b3",
    "initializeUpkeepAndRouter(address)": "a9709e15",
    "isRegistered(address)": "c3c5a547",
    "multicall(bytes[])": "ac9650d8",
    "onRegister(bytes32)": "83a03f8c",
    "onSignerAdded(address,bytes32)": "0b61e12b",
    "onSignerRemoved(address,bytes32)": "9387a380",
    "performUpkeep(bytes)": "4585e33b",
    "renounceRole(bytes32,address)": "36568abe",
    "revokeRole(bytes32,address)": "d547741f",
    "setContractURI(string)": "938e3d7b",
    "totalAccounts()": "58451f97"
  },
  "id": 70
}