{
  "abi": [
    {
      "inputs": [
        {
          "internalType": "address",
          "name": "router",
          "type": "address"
        }
      ],
      "stateMutability": "nonpayable",
      "type": "constructor"
    },
    {
      "inputs": [
        {
          "internalType": "address",
          "name": "router",
          "type": "address"
        }
      ],
      "name": "InvalidRouter",
      "type": "error"
    },
    {
      "anonymous": false,
      "inputs": [
        {
          "indexed": false,
          "internalType": "bytes32",
          "name": "latestMessageId",
          "type": "bytes32"
        },
        {
          "indexed": false,
          "internalType": "uint64",
          "name": "latestSourceChainSelector",
          "type": "uint64"
        },
        {
          "indexed": false,
          "internalType": "address",
          "name": "latestSender",
          "type": "address"
        },
        {
          "indexed": false,
          "internalType": "string",
          "name": "latestMessage",
          "type": "string"
        }
      ],
      "name": "MessageReceived",
      "type": "event"
    },
    {
      "inputs": [
        {
          "components": [
            {
              "internalType": "bytes32",
              "name": "messageId",
              "type": "bytes32"
            },
            {
              "internalType": "uint64",
              "name": "sourceChainSelector",
              "type": "uint64"
            },
            {
              "internalType": "bytes",
              "name": "sender",
              "type": "bytes"
            },
            {
              "internalType": "bytes",
              "name": "data",
              "type": "bytes"
            },
            {
              "components": [
                {
                  "internalType": "address",
                  "name": "token",
                  "type": "address"
                },
                {
                  "internalType": "uint256",
                  "name": "amount",
                  "type": "uint256"
                }
              ],
              "internalType": "struct Client.EVMTokenAmount[]",
              "name": "destTokenAmounts",
              "type": "tuple[]"
            }
          ],
          "internalType": "struct Client.Any2EVMMessage",
          "name": "message",
          "type": "tuple"
        }
      ],
      "name": "ccipReceive",
      "outputs": [],
      "stateMutability": "nonpayable",
      "type": "function"
    },
    {
      "inputs": [],
      "name": "getLatestMessageDetails",
      "outputs": [
        {
          "internalType": "bytes32",
          "name": "",
          "type": "bytes32"
        },
        {
          "internalType": "uint64",
          "name": "",
          "type": "uint64"
        },
        {
          "internalType": "address",
          "name": "",
          "type": "address"
        },
        {
          "internalType": "string",
          "name": "",
          "type": "string"
        }
      ],
      "stateMutability": "view",
      "type": "function"
    },
    {
      "inputs": [],
      "name": "getRouter",
      "outputs": [
        {
          "internalType": "address",
          "name": "",
          "type": "address"
        }
      ],
      "stateMutability": "view",
      "type": "function"
    },
    {
      "inputs": [
        {
          "internalType": "bytes4",
          "name": "interfaceId",
          "type": "bytes4"
        }
      ],
      "name": "supportsInterface",
      "outputs": [
        {
          "internalType": "bool",
          "name": "",
          "type": "bool"
        }
      ],
      "stateMutability": "pure",
      "type": "function"
    }
  ],
  "bytecode": {
    "object": "0x60a060405234801561001057600080fd5b50604051610a3e380380610a3e83398101604081905261002f91610070565b806001600160a01b03811661005e576040516335fdcccd60e21b81526000600482015260240160405180910390fd5b6001600160a01b0316608052506100a0565b60006020828403121561008257600080fd5b81516001600160a01b038116811461009957600080fd5b9392505050565b60805161097d6100c16000396000818160b301526101f1015261097d6000f3fe608060405234801561001057600080fd5b506004361061004c5760003560e01c806301ffc9a7146100515780633394e6f41461007957806385572ffb14610091578063b0f479a1146100a6575b600080fd5b61006461005f36600461033c565b6100dd565b60405190151581526020015b60405180910390f35b610081610114565b6040516100709493929190610391565b6100a461009f3660046103ea565b6101e6565b005b6040516001600160a01b037f0000000000000000000000000000000000000000000000000000000000000000168152602001610070565b60006001600160e01b031982166385572ffb60e01b148061010e57506001600160e01b031982166301ffc9a760e01b145b92915050565b60008060006060600054600160009054906101000a90046001600160401b0316600160089054906101000a90046001600160a01b0316600280805461015890610424565b80601f016020809104026020016040519081016040528092919081815260200182805461018490610424565b80156101d15780601f106101a6576101008083540402835291602001916101d1565b820191906000526020600020905b8154815290600101906020018083116101b457829003601f168201915b50505050509050935093509350935090919293565b336001600160a01b037f00000000000000000000000000000000000000000000000000000000000000001614610235576040516335fdcccd60e21b815233600482015260240160405180910390fd5b61024661024182610648565b610249565b50565b80516000556020808201516001805467ffffffffffffffff19166001600160401b039092169190911790556040820151805161028b92908201810191016106f4565b600160086101000a8154816001600160a01b0302191690836001600160a01b0316021790555080606001518060200190518101906102c99190610711565b6002906102d690826107d6565b506000546001546040517fb1e312a29937cc11967b0e4a346fef1ae132424ebaba9dc6d90249dba053e87c926103319290916001600160401b038216916801000000000000000090046001600160a01b031690600290610895565b60405180910390a150565b60006020828403121561034e57600080fd5b81356001600160e01b03198116811461036657600080fd5b9392505050565b60005b83811015610388578181015183820152602001610370565b50506000910152565b8481526001600160401b038416602082015260018060a01b038316604082015260806060820152600082518060808401526103d38160a085016020870161036d565b601f01601f19169190910160a00195945050505050565b6000602082840312156103fc57600080fd5b81356001600160401b0381111561041257600080fd5b820160a0818503121561036657600080fd5b600181811c9082168061043857607f821691505b60208210810361045857634e487b7160e01b600052602260045260246000fd5b50919050565b634e487b7160e01b600052604160045260246000fd5b604080519081016001600160401b03811182821017156104965761049661045e565b60405290565b60405160a081016001600160401b03811182821017156104965761049661045e565b604051601f8201601f191681016001600160401b03811182821017156104e6576104e661045e565b604052919050565b80356001600160401b038116811461050557600080fd5b919050565b60006001600160401b038211156105235761052361045e565b50601f01601f191660200190565b600082601f83011261054257600080fd5b81356105556105508261050a565b6104be565b81815284602083860101111561056a57600080fd5b816020850160208301376000918101602001919091529392505050565b6001600160a01b038116811461024657600080fd5b600082601f8301126105ad57600080fd5b813560206001600160401b038211156105c8576105c861045e565b6105d6818360051b016104be565b82815260069290921b840181019181810190868411156105f557600080fd5b8286015b8481101561063d57604081890312156106125760008081fd5b61061a610474565b813561062581610587565b815281850135858201528352918301916040016105f9565b509695505050505050565b600060a0823603121561065a57600080fd5b61066261049c565b82358152610672602084016104ee565b602082015260408301356001600160401b038082111561069157600080fd5b61069d36838701610531565b604084015260608501359150808211156106b657600080fd5b6106c236838701610531565b606084015260808501359150808211156106db57600080fd5b506106e83682860161059c565b60808301525092915050565b60006020828403121561070657600080fd5b815161036681610587565b60006020828403121561072357600080fd5b81516001600160401b0381111561073957600080fd5b8201601f8101841361074a57600080fd5b80516107586105508261050a565b81815285602083850101111561076d57600080fd5b61077e82602083016020860161036d565b95945050505050565b601f8211156107d157600081815260208120601f850160051c810160208610156107ae5750805b601f850160051c820191505b818110156107cd578281556001016107ba565b5050505b505050565b81516001600160401b038111156107ef576107ef61045e565b610803816107fd8454610424565b84610787565b602080601f83116001811461083857600084156108205750858301515b600019600386901b1c1916600185901b1785556107cd565b600085815260208120601f198616915b8281101561086757888601518255948401946001909101908401610848565b50858210156108855787850151600019600388901b60f8161c191681555b5050505050600190811b01905550565b848152600060206001600160401b0386168184015260018060a01b038516604084015260806060840152600084546108cc81610424565b80608087015260a06001808416600081146108ee576001811461090857610936565b60ff1985168984015283151560051b890183019550610936565b896000528660002060005b8581101561092e5781548b8201860152908301908801610913565b8a0184019650505b50939b9a505050505050505050505056fea2646970667358221220b229978d5f7e72a8248ab034d47870f622b62a4bf98f581baad073273e35922164736f6c63430008140033",
    "linkReferences": {}
  },
  "methodIdentifiers": {
    "ccipReceive((bytes32,uint64,bytes,bytes,(address,uint256)[]))": "85572ffb",
    "getLatestMessageDetails()": "3394e6f4",
    "getRouter()": "b0f479a1",
    "supportsInterface(bytes4)": "01ffc9a7"
  },
  "id": 12
}