{
  "abi": [
    {
      "inputs": [
        {
          "internalType": "contract IEntryPoint",
          "name": "_entrypoint",
          "type": "address"
        },
        {
          "internalType": "address",
          "name": "_factory",
          "type": "address"
        }
      ],
      "stateMutability": "nonpayable",
      "type": "constructor"
    },
    {
      "anonymous": false,
      "inputs": [
        {
          "indexed": true,
          "internalType": "address",
          "name": "signer",
          "type": "address"
        },
        {
          "indexed": false,
          "internalType": "bool",
          "name": "isAdmin",
          "type": "bool"
        }
      ],
      "name": "AdminUpdated",
      "type": "event"
    },
    {
      "anonymous": false,
      "inputs": [
        {
          "indexed": false,
          "internalType": "string",
          "name": "prevURI",
          "type": "string"
        },
        {
          "indexed": false,
          "internalType": "string",
          "name": "newURI",
          "type": "string"
        }
      ],
      "name": "ContractURIUpdated",
      "type": "event"
    },
    {
      "anonymous": false,
      "inputs": [
        {
          "indexed": false,
          "internalType": "uint8",
          "name": "version",
          "type": "uint8"
        }
      ],
      "name": "Initialized",
      "type": "event"
    },
    {
      "anonymous": false,
      "inputs": [
        {
          "indexed": true,
          "internalType": "address",
          "name": "authorizingSigner",
          "type": "address"
        },
        {
          "indexed": true,
          "internalType": "address",
          "name": "targetSigner",
          "type": "address"
        },
        {
          "components": [
            {
              "internalType": "address",
              "name": "signer",
              "type": "address"
            },
            {
              "internalType": "uint8",
              "name": "isAdmin",
              "type": "uint8"
            },
            {
              "internalType": "address[]",
              "name": "approvedTargets",
              "type": "address[]"
            },
            {
              "internalType": "uint256",
              "name": "nativeTokenLimitPerTransaction",
              "type": "uint256"
            },
            {
              "internalType": "uint128",
              "name": "permissionStartTimestamp",
              "type": "uint128"
            },
            {
              "internalType": "uint128",
              "name": "permissionEndTimestamp",
              "type": "uint128"
            },
            {
              "internalType": "uint128",
              "name": "reqValidityStartTimestamp",
              "type": "uint128"
            },
            {
              "internalType": "uint128",
              "name": "reqValidityEndTimestamp",
              "type": "uint128"
            },
            {
              "internalType": "bytes32",
              "name": "uid",
              "type": "bytes32"
            }
          ],
          "indexed": false,
          "internalType": "struct IAccountPermissions.SignerPermissionRequest",
          "name": "permissions",
          "type": "tuple"
        }
      ],
      "name": "SignerPermissionsUpdated",
      "type": "event"
    },
    {
      "inputs": [],
      "name": "aavePool",
      "outputs": [
        {
          "internalType": "address",
          "name": "",
          "type": "address"
        }
      ],
      "stateMutability": "view",
      "type": "function"
    },
    {
      "inputs": [],
      "name": "addDeposit",
      "outputs": [],
      "stateMutability": "payable",
      "type": "function"
    },
    {
      "inputs": [],
      "name": "allowedSupply",
      "outputs": [
        {
          "internalType": "bool",
          "name": "",
          "type": "bool"
        }
      ],
      "stateMutability": "view",
      "type": "function"
    },
    {
      "inputs": [],
      "name": "automationUpkeep",
      "outputs": [
        {
          "internalType": "address",
          "name": "",
          "type": "address"
        }
      ],
      "stateMutability": "view",
      "type": "function"
    },
    {
      "inputs": [],
      "name": "contractURI",
      "outputs": [
        {
          "internalType": "string",
          "name": "",
          "type": "string"
        }
      ],
      "stateMutability": "view",
      "type": "function"
    },
    {
      "inputs": [],
      "name": "defaultToken",
      "outputs": [
        {
          "internalType": "address",
          "name": "",
          "type": "address"
        }
      ],
      "stateMutability": "view",
      "type": "function"
    },
    {
      "inputs": [],
      "name": "entryPoint",
      "outputs": [
        {
          "internalType": "contract IEntryPoint",
          "name": "",
          "type": "address"
        }
      ],
      "stateMutability": "view",
      "type": "function"
    },
    {
      "inputs": [
        {
          "internalType": "address",
          "name": "_target",
          "type": "address"
        },
        {
          "internalType": "uint256",
          "name": "_value",
          "type": "uint256"
        },
        {
          "internalType": "bytes",
          "name": "_calldata",
          "type": "bytes"
        }
      ],
      "name": "execute",
      "outputs": [],
      "stateMutability": "nonpayable",
      "type": "function"
    },
    {
      "inputs": [
        {
          "internalType": "address[]",
          "name": "_target",
          "type": "address[]"
        },
        {
          "internalType": "uint256[]",
          "name": "_value",
          "type": "uint256[]"
        },
        {
          "internalType": "bytes[]",
          "name": "_calldata",
          "type": "bytes[]"
        }
      ],
      "name": "executeBatch",
      "outputs": [],
      "stateMutability": "nonpayable",
      "type": "function"
    },
    {
      "inputs": [],
      "name": "executeSupplyToVault",
      "outputs": [],
      "stateMutability": "nonpayable",
      "type": "function"
    },
    {
      "inputs": [
        {
          "internalType": "address",
          "name": "token",
          "type": "address"
        }
      ],
      "name": "executeSwapAndSupply",
      "outputs": [],
      "stateMutability": "nonpayable",
      "type": "function"
    },
    {
      "inputs": [],
      "name": "factory",
      "outputs": [
        {
          "internalType": "address",
          "name": "",
          "type": "address"
        }
      ],
      "stateMutability": "view",
      "type": "function"
    },
    {
      "inputs": [],
      "name": "getAllActiveSigners",
      "outputs": [
        {
          "components": [
            {
              "internalType": "address",
              "name": "signer",
              "type": "address"
            },
            {
              "internalType": "address[]",
              "name": "approvedTargets",
              "type": "address[]"
            },
            {
              "internalType": "uint256",
              "name": "nativeTokenLimitPerTransaction",
              "type": "uint256"
            },
            {
              "internalType": "uint128",
              "name": "startTimestamp",
              "type": "uint128"
            },
            {
              "internalType": "uint128",
              "name": "endTimestamp",
              "type": "uint128"
            }
          ],
          "internalType": "struct IAccountPermissions.SignerPermissions[]",
          "name": "signers",
          "type": "tuple[]"
        }
      ],
      "stateMutability": "view",
      "type": "function"
    },
    {
      "inputs": [],
      "name": "getAllAdmins",
      "outputs": [
        {
          "internalType": "address[]",
          "name": "",
          "type": "address[]"
        }
      ],
      "stateMutability": "view",
      "type": "function"
    },
    {
      "inputs": [],
      "name": "getAllSigners",
      "outputs": [
        {
          "components": [
            {
              "internalType": "address",
              "name": "signer",
              "type": "address"
            },
            {
              "internalType": "address[]",
              "name": "approvedTargets",
              "type": "address[]"
            },
            {
              "internalType": "uint256",
              "name": "nativeTokenLimitPerTransaction",
              "type": "uint256"
            },
            {
              "internalType": "uint128",
              "name": "startTimestamp",
              "type": "uint128"
            },
            {
              "internalType": "uint128",
              "name": "endTimestamp",
              "type": "uint128"
            }
          ],
          "internalType": "struct IAccountPermissions.SignerPermissions[]",
          "name": "signers",
          "type": "tuple[]"
        }
      ],
      "stateMutability": "view",
      "type": "function"
    },
    {
      "inputs": [
        {
          "internalType": "bytes",
          "name": "message",
          "type": "bytes"
        }
      ],
      "name": "getMessageHash",
      "outputs": [
        {
          "internalType": "bytes32",
          "name": "",
          "type": "bytes32"
        }
      ],
      "stateMutability": "view",
      "type": "function"
    },
    {
      "inputs": [],
      "name": "getNonce",
      "outputs": [
        {
          "internalType": "uint256",
          "name": "",
          "type": "uint256"
        }
      ],
      "stateMutability": "view",
      "type": "function"
    },
    {
      "inputs": [
        {
          "internalType": "address",
          "name": "signer",
          "type": "address"
        }
      ],
      "name": "getPermissionsForSigner",
      "outputs": [
        {
          "components": [
            {
              "internalType": "address",
              "name": "signer",
              "type": "address"
            },
            {
              "internalType": "address[]",
              "name": "approvedTargets",
              "type": "address[]"
            },
            {
              "internalType": "uint256",
              "name": "nativeTokenLimitPerTransaction",
              "type": "uint256"
            },
            {
              "internalType": "uint128",
              "name": "startTimestamp",
              "type": "uint128"
            },
            {
              "internalType": "uint128",
              "name": "endTimestamp",
              "type": "uint128"
            }
          ],
          "internalType": "struct IAccountPermissions.SignerPermissions",
          "name": "",
          "type": "tuple"
        }
      ],
      "stateMutability": "view",
      "type": "function"
    },
    {
      "inputs": [],
      "name": "ghoTreshold",
      "outputs": [
        {
          "internalType": "uint256",
          "name": "",
          "type": "uint256"
        }
      ],
      "stateMutability": "view",
      "type": "function"
    },
    {
      "inputs": [
        {
          "internalType": "address",
          "name": "_defaultAdmin",
          "type": "address"
        },
        {
          "internalType": "bytes",
          "name": "_data",
          "type": "bytes"
        }
      ],
      "name": "initialize",
      "outputs": [],
      "stateMutability": "nonpayable",
      "type": "function"
    },
    {
      "inputs": [
        {
          "internalType": "address",
          "name": "signer",
          "type": "address"
        }
      ],
      "name": "isActiveSigner",
      "outputs": [
        {
          "internalType": "bool",
          "name": "",
          "type": "bool"
        }
      ],
      "stateMutability": "view",
      "type": "function"
    },
    {
      "inputs": [
        {
          "internalType": "address",
          "name": "_account",
          "type": "address"
        }
      ],
      "name": "isAdmin",
      "outputs": [
        {
          "internalType": "bool",
          "name": "",
          "type": "bool"
        }
      ],
      "stateMutability": "view",
      "type": "function"
    },
    {
      "inputs": [
        {
          "internalType": "bytes32",
          "name": "_message",
          "type": "bytes32"
        },
        {
          "internalType": "bytes",
          "name": "_signature",
          "type": "bytes"
        }
      ],
      "name": "isValidSignature",
      "outputs": [
        {
          "internalType": "bytes4",
          "name": "magicValue",
          "type": "bytes4"
        }
      ],
      "stateMutability": "view",
      "type": "function"
    },
    {
      "inputs": [
        {
          "internalType": "address",
          "name": "_signer",
          "type": "address"
        },
        {
          "components": [
            {
              "internalType": "address",
              "name": "sender",
              "type": "address"
            },
            {
              "internalType": "uint256",
              "name": "nonce",
              "type": "uint256"
            },
            {
              "internalType": "bytes",
              "name": "initCode",
              "type": "bytes"
            },
            {
              "internalType": "bytes",
              "name": "callData",
              "type": "bytes"
            },
            {
              "internalType": "uint256",
              "name": "callGasLimit",
              "type": "uint256"
            },
            {
              "internalType": "uint256",
              "name": "verificationGasLimit",
              "type": "uint256"
            },
            {
              "internalType": "uint256",
              "name": "preVerificationGas",
              "type": "uint256"
            },
            {
              "internalType": "uint256",
              "name": "maxFeePerGas",
              "type": "uint256"
            },
            {
              "internalType": "uint256",
              "name": "maxPriorityFeePerGas",
              "type": "uint256"
            },
            {
              "internalType": "bytes",
              "name": "paymasterAndData",
              "type": "bytes"
            },
            {
              "internalType": "bytes",
              "name": "signature",
              "type": "bytes"
            }
          ],
          "internalType": "struct UserOperation",
          "name": "_userOp",
          "type": "tuple"
        }
      ],
      "name": "isValidSigner",
      "outputs": [
        {
          "internalType": "bool",
          "name": "",
          "type": "bool"
        }
      ],
      "stateMutability": "view",
      "type": "function"
    },
    {
      "inputs": [
        {
          "internalType": "bytes[]",
          "name": "data",
          "type": "bytes[]"
        }
      ],
      "name": "multicall",
      "outputs": [
        {
          "internalType": "bytes[]",
          "name": "results",
          "type": "bytes[]"
        }
      ],
      "stateMutability": "nonpayable",
      "type": "function"
    },
    {
      "inputs": [
        {
          "internalType": "address",
          "name": "",
          "type": "address"
        },
        {
          "internalType": "address",
          "name": "",
          "type": "address"
        },
        {
          "internalType": "uint256[]",
          "name": "",
          "type": "uint256[]"
        },
        {
          "internalType": "uint256[]",
          "name": "",
          "type": "uint256[]"
        },
        {
          "internalType": "bytes",
          "name": "",
          "type": "bytes"
        }
      ],
      "name": "onERC1155BatchReceived",
      "outputs": [
        {
          "internalType": "bytes4",
          "name": "",
          "type": "bytes4"
        }
      ],
      "stateMutability": "nonpayable",
      "type": "function"
    },
    {
      "inputs": [
        {
          "internalType": "address",
          "name": "",
          "type": "address"
        },
        {
          "internalType": "address",
          "name": "",
          "type": "address"
        },
        {
          "internalType": "uint256",
          "name": "",
          "type": "uint256"
        },
        {
          "internalType": "uint256",
          "name": "",
          "type": "uint256"
        },
        {
          "internalType": "bytes",
          "name": "",
          "type": "bytes"
        }
      ],
      "name": "onERC1155Received",
      "outputs": [
        {
          "internalType": "bytes4",
          "name": "",
          "type": "bytes4"
        }
      ],
      "stateMutability": "nonpayable",
      "type": "function"
    },
    {
      "inputs": [
        {
          "internalType": "address",
          "name": "",
          "type": "address"
        },
        {
          "internalType": "address",
          "name": "",
          "type": "address"
        },
        {
          "internalType": "uint256",
          "name": "",
          "type": "uint256"
        },
        {
          "internalType": "bytes",
          "name": "",
          "type": "bytes"
        }
      ],
      "name": "onERC721Received",
      "outputs": [
        {
          "internalType": "bytes4",
          "name": "",
          "type": "bytes4"
        }
      ],
      "stateMutability": "nonpayable",
      "type": "function"
    },
    {
      "inputs": [
        {
          "internalType": "bool",
          "name": "_allowedSupply",
          "type": "bool"
        }
      ],
      "name": "setAllowedSupply",
      "outputs": [],
      "stateMutability": "nonpayable",
      "type": "function"
    },
    {
      "inputs": [
        {
          "internalType": "string",
          "name": "_uri",
          "type": "string"
        }
      ],
      "name": "setContractURI",
      "outputs": [],
      "stateMutability": "nonpayable",
      "type": "function"
    },
    {
      "inputs": [
        {
          "internalType": "contract IEntryPoint",
          "name": "_entrypointOverride",
          "type": "address"
        }
      ],
      "name": "setEntrypointOverride",
      "outputs": [],
      "stateMutability": "nonpayable",
      "type": "function"
    },
    {
      "inputs": [
        {
          "components": [
            {
              "internalType": "address",
              "name": "signer",
              "type": "address"
            },
            {
              "internalType": "uint8",
              "name": "isAdmin",
              "type": "uint8"
            },
            {
              "internalType": "address[]",
              "name": "approvedTargets",
              "type": "address[]"
            },
            {
              "internalType": "uint256",
              "name": "nativeTokenLimitPerTransaction",
              "type": "uint256"
            },
            {
              "internalType": "uint128",
              "name": "permissionStartTimestamp",
              "type": "uint128"
            },
            {
              "internalType": "uint128",
              "name": "permissionEndTimestamp",
              "type": "uint128"
            },
            {
              "internalType": "uint128",
              "name": "reqValidityStartTimestamp",
              "type": "uint128"
            },
            {
              "internalType": "uint128",
              "name": "reqValidityEndTimestamp",
              "type": "uint128"
            },
            {
              "internalType": "bytes32",
              "name": "uid",
              "type": "bytes32"
            }
          ],
          "internalType": "struct IAccountPermissions.SignerPermissionRequest",
          "name": "_req",
          "type": "tuple"
        },
        {
          "internalType": "bytes",
          "name": "_signature",
          "type": "bytes"
        }
      ],
      "name": "setPermissionsForSigner",
      "outputs": [],
      "stateMutability": "nonpayable",
      "type": "function"
    },
    {
      "inputs": [
        {
          "internalType": "bytes4",
          "name": "interfaceId",
          "type": "bytes4"
        }
      ],
      "name": "supportsInterface",
      "outputs": [
        {
          "internalType": "bool",
          "name": "",
          "type": "bool"
        }
      ],
      "stateMutability": "view",
      "type": "function"
    },
    {
      "inputs": [],
      "name": "uniswapRouter",
      "outputs": [
        {
          "internalType": "address",
          "name": "",
          "type": "address"
        }
      ],
      "stateMutability": "view",
      "type": "function"
    },
    {
      "inputs": [
        {
          "components": [
            {
              "internalType": "address",
              "name": "sender",
              "type": "address"
            },
            {
              "internalType": "uint256",
              "name": "nonce",
              "type": "uint256"
            },
            {
              "internalType": "bytes",
              "name": "initCode",
              "type": "bytes"
            },
            {
              "internalType": "bytes",
              "name": "callData",
              "type": "bytes"
            },
            {
              "internalType": "uint256",
              "name": "callGasLimit",
              "type": "uint256"
            },
            {
              "internalType": "uint256",
              "name": "verificationGasLimit",
              "type": "uint256"
            },
            {
              "internalType": "uint256",
              "name": "preVerificationGas",
              "type": "uint256"
            },
            {
              "internalType": "uint256",
              "name": "maxFeePerGas",
              "type": "uint256"
            },
            {
              "internalType": "uint256",
              "name": "maxPriorityFeePerGas",
              "type": "uint256"
            },
            {
              "internalType": "bytes",
              "name": "paymasterAndData",
              "type": "bytes"
            },
            {
              "internalType": "bytes",
              "name": "signature",
              "type": "bytes"
            }
          ],
          "internalType": "struct UserOperation",
          "name": "userOp",
          "type": "tuple"
        },
        {
          "internalType": "bytes32",
          "name": "userOpHash",
          "type": "bytes32"
        },
        {
          "internalType": "uint256",
          "name": "missingAccountFunds",
          "type": "uint256"
        }
      ],
      "name": "validateUserOp",
      "outputs": [
        {
          "internalType": "uint256",
          "name": "validationData",
          "type": "uint256"
        }
      ],
      "stateMutability": "nonpayable",
      "type": "function"
    },
    {
      "inputs": [],
      "name": "vault",
      "outputs": [
        {
          "internalType": "address",
          "name": "",
          "type": "address"
        }
      ],
      "stateMutability": "view",
      "type": "function"
    },
    {
      "inputs": [
        {
          "components": [
            {
              "internalType": "address",
              "name": "signer",
              "type": "address"
            },
            {
              "internalType": "uint8",
              "name": "isAdmin",
              "type": "uint8"
            },
            {
              "internalType": "address[]",
              "name": "approvedTargets",
              "type": "address[]"
            },
            {
              "internalType": "uint256",
              "name": "nativeTokenLimitPerTransaction",
              "type": "uint256"
            },
            {
              "internalType": "uint128",
              "name": "permissionStartTimestamp",
              "type": "uint128"
            },
            {
              "internalType": "uint128",
              "name": "permissionEndTimestamp",
              "type": "uint128"
            },
            {
              "internalType": "uint128",
              "name": "reqValidityStartTimestamp",
              "type": "uint128"
            },
            {
              "internalType": "uint128",
              "name": "reqValidityEndTimestamp",
              "type": "uint128"
            },
            {
              "internalType": "bytes32",
              "name": "uid",
              "type": "bytes32"
            }
          ],
          "internalType": "struct IAccountPermissions.SignerPermissionRequest",
          "name": "req",
          "type": "tuple"
        },
        {
          "internalType": "bytes",
          "name": "signature",
          "type": "bytes"
        }
      ],
      "name": "verifySignerPermissionRequest",
      "outputs": [
        {
          "internalType": "bool",
          "name": "success",
          "type": "bool"
        },
        {
          "internalType": "address",
          "name": "signer",
          "type": "address"
        }
      ],
      "stateMutability": "view",
      "type": "function"
    },
    {
      "inputs": [
        {
          "internalType": "address payable",
          "name": "withdrawAddress",
          "type": "address"
        },
        {
          "internalType": "uint256",
          "name": "amount",
          "type": "uint256"
        }
      ],
      "name": "withdrawDepositTo",
      "outputs": [],
      "stateMutability": "nonpayable",
      "type": "function"
    },
    {
      "stateMutability": "payable",
      "type": "receive"
    }
  ],
  "bytecode": {
    "object": "0x6101806040523480156200001257600080fd5b5060405162004de538038062004de5833981016040819052620000359162000274565b60408051808201825260078152661058d8dbdd5b9d60ca1b60208083019182528351808501855260018152603160f81b908201529151902060e08190527fc89efdaa54c0f20c7adf612882df0950f5a951637e0307cdcb4c672f298b8bc66101008190524660a081815285517f8b73c3c69bb8fe3d512ecc4cf759cc79239f7b179b0ffacaa9a75d522b39400f818701819052818801959095526060810193909352608080840192909252308382018190528651808503909201825260c093840190965280519401939093209092529190526101205281816200011762000158565b6001600160a01b039081166101405216610160525050600180546001600160a01b031916331790556005805460ff60a01b1916600160a01b179055620002b3565b7f322cf19c484104d3b1a9c2982ebae869ede3fa5f6c4703ca41b9a48c76ee03005460ff808216916101009004168015620001e95760405162461bcd60e51b815260206004820152602760248201527f496e697469616c697a61626c653a20636f6e747261637420697320696e697469604482015266616c697a696e6760c81b606482015260840160405180910390fd5b60ff828116101562000257577f322cf19c484104d3b1a9c2982ebae869ede3fa5f6c4703ca41b9a48c76ee0300805460ff191660ff90811790915560408051918252517f7f26b83ff96e1f2b6a682f133852f6798a09c465da95921460cefb38474024989181900360200190a15b5050565b6001600160a01b03811681146200027157600080fd5b50565b600080604083850312156200028857600080fd5b825162000295816200025b565b6020840151909250620002a8816200025b565b809150509250929050565b60805160a05160c05160e05161010051610120516101405161016051614aa2620003436000396000611d4f01526000818161062001528181612b9001528181612caf01528181612ce501528181612dad01528181612e230152612e5301526000612704015260006127530152600061272e01526000612687015260006126b1015260006126db0152614aa26000f3fe6080604052600436106102295760003560e01c80639934cdb111610123578063c45a0155116100ab578063e9523c971161006f578063e9523c97146106ae578063ec1afaaa146106d0578063f15d424e146106f0578063f23a6e611461071d578063fbfa77cf1461074957600080fd5b8063c45a01551461060e578063d087d28814610642578063d1f5789414610657578063d42f2f3514610677578063e8a3d4851461068c57600080fd5b8063b0d691fe116100f2578063b0d691fe14610578578063b28362771461058d578063b61d27f6146105a2578063b76464d5146105c2578063bc197c81146105e257600080fd5b80639934cdb1146104cb578063a03e4bc3146104ec578063a9082d841461050c578063ac9650d81461054b57600080fd5b806347e1da2a116101b1578063735de9f711610175578063735de9f71461042957806374c13fda146104495780637dff5a79146104695780638b52d72314610489578063938e3d7b146104ab57600080fd5b806347e1da2a146103ab5780634a58db19146103cb5780634d44560d146103d35780634e9eb56e146103f35780635892e2361461040957600080fd5b80631dd756c5116101f85780631dd756c5146102f157806324d7806c1461031157806329245414146103315780633a871cdd146103695780633dd6e0251461038957600080fd5b806301ffc9a7146102355780630a1028c41461026a578063150b7a02146102985780631626ba7e146102d157600080fd5b3661023057005b600080fd5b34801561024157600080fd5b50610255610250366004613843565b610769565b60405190151581526020015b60405180910390f35b34801561027657600080fd5b5061028a61028536600461392a565b6107af565b604051908152602001610261565b3480156102a457600080fd5b506102b86102b3366004613983565b610853565b6040516001600160e01b03199091168152602001610261565b3480156102dd57600080fd5b506102b86102ec3660046139ee565b610864565b3480156102fd57600080fd5b5061025561030c366004613a4d565b6109a4565b34801561031d57600080fd5b5061025561032c366004613a92565b610c7c565b34801561033d57600080fd5b50600154610351906001600160a01b031681565b6040516001600160a01b039091168152602001610261565b34801561037557600080fd5b5061028a610384366004613aaf565b610cab565b34801561039557600080fd5b506103a96103a4366004613a92565b610cd1565b005b3480156103b757600080fd5b506103a96103c6366004613b40565b6111ef565b6103a9611360565b3480156103df57600080fd5b506103a96103ee366004613bd9565b6113c7565b3480156103ff57600080fd5b5061028a60005481565b34801561041557600080fd5b506103a9610424366004613c46565b611440565b34801561043557600080fd5b50600354610351906001600160a01b031681565b34801561045557600080fd5b50600254610351906001600160a01b031681565b34801561047557600080fd5b50610255610484366004613a92565b6117fd565b34801561049557600080fd5b5061049e6118b6565b6040516102619190613d5c565b3480156104b757600080fd5b506103a96104c6366004613dbe565b611afd565b3480156104d757600080fd5b5060055461025590600160a01b900460ff1681565b3480156104f857600080fd5b50600454610351906001600160a01b031681565b34801561051857600080fd5b5061052c610527366004613c46565b611b4e565b6040805192151583526001600160a01b03909116602083015201610261565b34801561055757600080fd5b5061056b610566366004613e06565b611ba5565b6040516102619190613e97565b34801561058457600080fd5b50610351611d14565b34801561059957600080fd5b506103a9611d74565b3480156105ae57600080fd5b506103a96105bd366004613eec565b611f43565b3480156105ce57600080fd5b506103a96105dd366004613a92565b611fd3565b3480156105ee57600080fd5b506102b86105fd366004613fd5565b63bc197c8160e01b95945050505050565b34801561061a57600080fd5b506103517f000000000000000000000000000000000000000000000000000000000000000081565b34801561064e57600080fd5b5061028a61201c565b34801561066357600080fd5b506103a9610672366004614082565b61209c565b34801561068357600080fd5b5061049e6122d4565b34801561069857600080fd5b506106a1612445565b60405161026191906140c9565b3480156106ba57600080fd5b506106c36124f6565b6040516102619190614120565b3480156106dc57600080fd5b506103a96106eb366004614141565b612508565b3480156106fc57600080fd5b5061071061070b366004613a92565b61256d565b604051610261919061415e565b34801561072957600080fd5b506102b8610738366004614171565b63f23a6e6160e01b95945050505050565b34801561075557600080fd5b50600554610351906001600160a01b031681565b60006001600160e01b03198216630271189760e51b148061079a57506001600160e01b03198216630a85bd0160e11b145b806107a957506107a982612645565b92915050565b6000807f82cac545155fcbf147f2a9013809613677ac7d65498556e6d19ce43bcbf6c28483805190602001206040516020016107f5929190918252602082015260400190565b60405160208183030381529060405280519060200120905061081561267a565b60405161190160f01b602082015260228101919091526042810182905260620160405160208183030381529060405280519060200120915050919050565b630a85bd0160e11b5b949350505050565b6000806108918460405160200161087d91815260200190565b6040516020818303038152906040526107af565b9050600061089f82856127a1565b90506108aa81610c7c565b156108c15750630b135d3f60e11b91506107a99050565b3360006108cc6127c5565b6001600160a01b03841660009081526006919091016020526040902090506108f481836127e9565b8061092457506109038161280b565b6001148015610924575060006109198282612815565b6001600160a01b0316145b6109815760405162461bcd60e51b8152602060048201526024808201527f4163636f756e743a2063616c6c6572206e6f7420617070726f7665642074617260448201526333b2ba1760e11b60648201526084015b60405180910390fd5b61098a836117fd565b1561099a57630b135d3f60e11b94505b5050505092915050565b60006109ae6127c5565b6001600160a01b0384166000908152600491909101602052604090205460ff16156109db575060016107a9565b60006109e56127c5565b6001600160a01b0385166000908152600591909101602090815260408083208151606081018352815481526001909101546001600160801b0380821694830194909452600160801b9004909216908201529150610a406127c5565b6006016000866001600160a01b03166001600160a01b0316815260200190815260200160002090504282602001516001600160801b03161180610a90575081604001516001600160801b03164210155b80610aa15750610a9f8161280b565b155b15610ab1576000925050506107a9565b6000610ac8610ac360608701876141d9565b612821565b90506000610ad58361280b565b6001148015610af657506000610aeb8482612815565b6001600160a01b0316145b90506324f16c0560e11b6001600160e01b0319831601610b6d57600080610b28610b2360608a018a6141d9565b61285b565b9150915082610b4e57610b3b85836127e9565b610b4e57600096505050505050506107a9565b8551811115610b6657600096505050505050506107a9565b5050610c6f565b635c0f12eb60e11b6001600160e01b0319831601610c6257600080610b9d610b9860608a018a6141d9565b6128c0565b509150915082610c075760005b8251811015610c0557610bdf838281518110610bc857610bc861421f565b6020026020010151876127e990919063ffffffff16565b610bf35760009750505050505050506107a9565b80610bfd8161424b565b915050610baa565b505b60005b8251811015610c5a57818181518110610c2557610c2561421f565b602002602001015187600001511015610c485760009750505050505050506107a9565b80610c528161424b565b915050610c0a565b505050610c6f565b60009450505050506107a9565b5060019695505050505050565b6000610c866127c5565b6001600160a01b03909216600090815260049290920160205250604090205460ff1690565b6000610cb561290d565b610cbf8484612977565b9050610cca82612abd565b9392505050565b6001546001600160a01b0316331480610cee5750610cee33610c7c565b610d3a5760405162461bcd60e51b815260206004820152601d60248201527f4163636f756e743a206e6f742061646d696e206f722055706b6565702e0000006044820152606401610978565b600554600160a01b900460ff16610d935760405162461bcd60e51b815260206004820152601760248201527f4163636f756e743a20737570706c79207061757365642e0000000000000000006044820152606401610978565b6040516370a0823160e01b81523060048201526000906001600160a01b038316906370a0823190602401602060405180830381865afa158015610dda573d6000803e3d6000fd5b505050506040513d601f19601f82011682018060405250810190610dfe9190614264565b90506000610e0f620f42408361427d565b90506000610e1d828461429f565b60048054604051632fe4a15f60e21b815230928101929092529192506000916001600160a01b03169063bf92857c9060240160c060405180830381865afa158015610e6c573d6000803e3d6000fd5b505050506040513d601f19601f82011682018060405250810190610e9091906142b2565b50505050915050600083111561108757600081118015610eb05750808311155b15610fa0576004805460405163095ea7b360e01b81526001600160a01b03918216928101929092526024820185905286169063095ea7b3906044016020604051808303816000875af1158015610f0a573d6000803e3d6000fd5b505050506040513d601f19601f82011682018060405250810190610f2e91906142fc565b50604080516001600160a01b0387811660248301526044820186905260026064830152306084808401919091528351808403909101815260a49092019092526020810180516001600160e01b031663573ade8160e01b1790526004549091610f999116600083612b0a565b5050611087565b6004805460405163095ea7b360e01b81526001600160a01b03918216928101929092526024820185905286169063095ea7b3906044016020604051808303816000875af1158015610ff5573d6000803e3d6000fd5b505050506040513d601f19601f8201168201806040525081019061101991906142fc565b50604080516001600160a01b03878116602483015260448201869052306064830152600060848084018290528451808503909101815260a49093019093526020820180516001600160e01b031663617ba03760e01b1790526004549192611084929091169083612b0a565b50505b60408051600280825260608201835260009260208301908036833701905050905085816000815181106110bc576110bc61421f565b6001600160a01b0392831660209182029290920101526002548251911690829060019081106110ed576110ed61421f565b6001600160a01b03928316602091820292909201015260035460405163095ea7b360e01b81529082166004820152602481018590529087169063095ea7b3906044016020604051808303816000875af115801561114e573d6000803e3d6000fd5b505050506040513d601f19601f8201168201806040525081019061117291906142fc565b506000638803dbee8480843061118a4261012c614319565b60405160240161119e95949392919061432c565b60408051601f198184030181529190526020810180516001600160e01b031660e09390931b929092179091526003549091506111e5906001600160a01b0316600083612b0a565b5050505050505050565b6111f7611d14565b6001600160a01b0316336001600160a01b0316148061121a575061121a33610c7c565b6112365760405162461bcd60e51b815260040161097890614368565b61123e612b7b565b848114801561124c57508483145b6112985760405162461bcd60e51b815260206004820152601d60248201527f4163636f756e743a2077726f6e67206172726179206c656e677468732e0000006044820152606401610978565b60005b85811015611357576113448787838181106112b8576112b861421f565b90506020020160208101906112cd9190613a92565b8686848181106112df576112df61421f565b905060200201358585858181106112f8576112f861421f565b905060200281019061130a91906141d9565b8080601f016020809104026020016040519081016040528093929190818152602001838380828437600092019190915250612b0a92505050565b508061134f8161424b565b91505061129b565b50505050505050565b611368611d14565b60405163b760faf960e01b81523060048201526001600160a01b03919091169063b760faf99034906024016000604051808303818588803b1580156113ac57600080fd5b505af11580156113c0573d6000803e3d6000fd5b5050505050565b6113cf612c5d565b6113d7611d14565b60405163040b850f60e31b81526001600160a01b03848116600483015260248201849052919091169063205c2878906044015b600060405180830381600087803b15801561142457600080fd5b505af1158015611438573d6000803e3d6000fd5b505050505050565b600061144f6020850185613a92565b90504261146260e0860160c087016143c0565b6001600160801b0316111580156114915750611485610100850160e086016143c0565b6001600160801b031642105b6114c75760405162461bcd60e51b8152602060048201526007602482015266085c195c9a5bd960ca1b6044820152606401610978565b6000806114d5868686611b4e565b915091508161150f5760405162461bcd60e51b8152600401610978906020808252600490820152632173696760e01b604082015260600190565b60016115196127c5565b610100880135600090815260079190910160209081526040808320805460ff1916941515949094179093559091611555919089019089016143ec565b60ff16111561158257600061157060408801602089016143ec565b60ff1660011490506113578482612c9b565b61158b83610c7c565b156115c05760405162461bcd60e51b815260206004820152600560248201526430b236b4b760d91b6044820152606401610978565b6115d5836115cc6127c5565b60020190612de2565b506040518060600160405280876060013581526020018760800160208101906115fe91906143c0565b6001600160801b0316815260200161161c60c0890160a08a016143c0565b6001600160801b0316905261162f6127c5565b6001600160a01b03851660009081526005919091016020908152604080832084518155918401519301516001600160801b03908116600160801b029316929092176001909201919091556116a56116846127c5565b6001600160a01b038616600090815260069190910160205260409020612df7565b805190915060005b8181101561170f576116fc8382815181106116ca576116ca61421f565b60200260200101516116da6127c5565b6001600160a01b03891660009081526006919091016020526040902090612e04565b50611708600182614319565b90506116ad565b5061171d6040890189614407565b9050905060005b8181101561179e5761178b61173c60408b018b614407565b8381811061174c5761174c61421f565b90506020020160208101906117619190613a92565b6117696127c5565b6001600160a01b03891660009081526006919091016020526040902090612de2565b50611797600182614319565b9050611724565b506117a888612e19565b846001600160a01b0316836001600160a01b03167ff21d10c26e35863a8df291aca54181ee8c4a3bc8e00246c3f7a5a14b69d826a78a6040516117eb91906144d6565b60405180910390a35050505050505050565b6000806118086127c5565b6001600160a01b038416600090815260059190910160209081526040918290208251606081018452815481526001909101546001600160801b03808216938301849052600160801b90910416928101929092529091504210801590611879575080604001516001600160801b031642105b8015610cca575060006118ae61188d6127c5565b6001600160a01b03861660009081526006919091016020526040902061280b565b119392505050565b606060006118cd6118c56127c5565b600201612df7565b80519091506000805b8281101561195e576119008482815181106118f3576118f361421f565b60200260200101516117fd565b15611917578161190f8161424b565b92505061194c565b600084828151811061192b5761192b61421f565b60200260200101906001600160a01b031690816001600160a01b0316815250505b611957600182614319565b90506118d6565b50806001600160401b038111156119775761197761386d565b6040519080825280602002602001820160405280156119b057816020015b61199d6137f9565b8152602001906001900390816119955790505b5093506000805b83811015611af55760006001600160a01b03168582815181106119dc576119dc61421f565b60200260200101516001600160a01b031614611ae3576000858281518110611a0657611a0661421f565b602002602001015190506000611a1a6127c5565b6001600160a01b038316600081815260059290920160209081526040928390208351606081018552815481526001909101546001600160801b0380821683850152600160801b9091041681850152835160a081019094529183529092508101611a846116846127c5565b81526020018260000151815260200182602001516001600160801b0316815260200182604001516001600160801b0316815250888580611ac39061424b565b965081518110611ad557611ad561421f565b602002602001018190525050505b611aee600182614319565b90506119b7565b505050505090565b611b05612ec7565b611b425760405162461bcd60e51b815260206004820152600e60248201526d139bdd08185d5d1a1bdc9a5e995960921b6044820152606401610978565b611b4b81612edf565b50565b600080611b64611b5d86612ffe565b8585613142565b9050611b6e6127c5565b6101008601356000908152600791909101602052604090205460ff16158015611b9b5750611b9b81610c7c565b9150935093915050565b6060816001600160401b03811115611bbf57611bbf61386d565b604051908082528060200260200182016040528015611bf257816020015b6060815260200190600190039081611bdd5790505b509050336000805b84811015611d0b578115611c7957611c5730878784818110611c1e57611c1e61421f565b9050602002810190611c3091906141d9565b86604051602001611c43939291906145cf565b604051602081830303815290604052613194565b848281518110611c6957611c6961421f565b6020026020010181905250611cf9565b611cdb30878784818110611c8f57611c8f61421f565b9050602002810190611ca191906141d9565b8080601f01602080910402602001604051908101604052809392919081815260200183838082843760009201919091525061319492505050565b848281518110611ced57611ced61421f565b60200260200101819052505b80611d038161424b565b915050611bfa565b50505092915050565b7f036f52c1827dab135f7fd44ca0bddde297e2f659c710e0ec53e975f22b548300546000906001600160a01b03168015611d4d57919050565b7f000000000000000000000000000000000000000000000000000000000000000091505090565b6001546001600160a01b0316331480611d915750611d9133610c7c565b611ddd5760405162461bcd60e51b815260206004820152601d60248201527f4163636f756e743a206e6f742061646d696e206f722055706b6565702e0000006044820152606401610978565b6002546040516370a0823160e01b81523060048201526000916001600160a01b0316906370a0823190602401602060405180830381865afa158015611e26573d6000803e3d6000fd5b505050506040513d601f19601f82011682018060405250810190611e4a9190614264565b90506000805482611e5b919061429f565b60025460055460405163095ea7b360e01b81526001600160a01b03918216600482015260248101849052929350169063095ea7b3906044016020604051808303816000875af1158015611eb2573d6000803e3d6000fd5b505050506040513d601f19601f82011682018060405250810190611ed691906142fc565b506040805160248101839052306044808301919091528251808303909101815260649091019091526020810180516001600160e01b0316636e553f6560e01b179052600554611f30906001600160a01b0316600083612b0a565b50611f3b828461429f565b600055505050565b611f4b611d14565b6001600160a01b0316336001600160a01b03161480611f6e5750611f6e33610c7c565b611f8a5760405162461bcd60e51b815260040161097890614368565b611f92612b7b565b6113c0848484848080601f016020809104026020016040519081016040528093929190818152602001838380828437600092019190915250612b0a92505050565b611fdb612c5d565b7f036f52c1827dab135f7fd44ca0bddde297e2f659c710e0ec53e975f22b54830080546001600160a01b0319166001600160a01b0392909216919091179055565b6000612026611d14565b604051631aab3f0d60e11b8152306004820152600060248201526001600160a01b0391909116906335567e1a90604401602060405180830381865afa158015612073573d6000803e3d6000fd5b505050506040513d601f19601f820116820180604052508101906120979190614264565b905090565b600080516020614a268339815191525460ff8082169161010090041680158080156120ca575060018360ff16105b806120e25750303b1580156120e257508260ff166001145b6121455760405162461bcd60e51b815260206004820152602e60248201527f496e697469616c697a61626c653a20636f6e747261637420697320616c72656160448201526d191e481a5b9a5d1a585b1a5e995960921b6064820152608401610978565b600080516020614a26833981519152805460ff19166001179055801561218257600080516020614a26833981519152805461ff0019166101001790555b6121c28686868080601f0160208091040260200160405190810160405280939291908181526020018383808284376000920191909152506131b992505050565b600080516020614a06833981519152556121dd866001612c9b565b600180546001600160a01b031990811633179091556005805460028054841673c4bf5cbdabe595361438f8c6a187bdc330539c6017905560038054841673d04b095b736d10744810d9eac344c306c100fe6f17905560048054909316736ae43d3271ff6888e7fc43fd7321a503ff738951179092557401ba743e062b790725ee00c3b857ef0ca28a10c7746001600160a81b0319909216919091179055801561143857600080516020614a26833981519152805461ff0019169055604080516001815290517f7f26b83ff96e1f2b6a682f133852f6798a09c465da95921460cefb38474024989181900360200190a1505050505050565b606060006122e36118c56127c5565b8051909150806001600160401b038111156123005761230061386d565b60405190808252806020026020018201604052801561233957816020015b6123266137f9565b81526020019060019003908161231e5790505b50925060005b8181101561243f57600083828151811061235b5761235b61421f565b60200260200101519050600061236f6127c5565b6001600160a01b038316600081815260059290920160209081526040928390208351606081018552815481526001909101546001600160801b0380821683850152600160801b9091041681850152835160a0810190945291835290925081016123d96116846127c5565b81526020018260000151815260200182602001516001600160801b0316815260200182604001516001600160801b031681525086848151811061241e5761241e61421f565b602002602001018190525050506001816124389190614319565b905061233f565b50505090565b60607f4bc804ba64359c0e35e5ed5d90ee596ecaa49a3a930ddcb1470ea0dd625da9008054612473906145f5565b80601f016020809104026020016040519081016040528092919081815260200182805461249f906145f5565b80156124ec5780601f106124c1576101008083540402835291602001916124ec565b820191906000526020600020905b8154815290600101906020018083116124cf57829003601f168201915b5050505050905090565b60606120976125036127c5565b612df7565b612510611d14565b6001600160a01b0316336001600160a01b03161480612533575061253333610c7c565b61254f5760405162461bcd60e51b815260040161097890614368565b60058054911515600160a01b0260ff60a01b19909216919091179055565b6125756137f9565b600061257f6127c5565b6001600160a01b038416600081815260059290920160209081526040928390208351606081018552815481526001909101546001600160801b0380821683850152600160801b9091041681850152835160a08101909452918352909250810161260a6125e96127c5565b6001600160a01b038716600090815260069190910160205260409020612df7565b81526020018260000151815260200182602001516001600160801b0316815260200182604001516001600160801b0316815250915050919050565b60006001600160e01b03198216630271189760e51b14806107a957506301ffc9a760e01b6001600160e01b03198316146107a9565b6000306001600160a01b037f0000000000000000000000000000000000000000000000000000000000000000161480156126d357507f000000000000000000000000000000000000000000000000000000000000000046145b156126fd57507f000000000000000000000000000000000000000000000000000000000000000090565b50604080517f00000000000000000000000000000000000000000000000000000000000000006020808301919091527f0000000000000000000000000000000000000000000000000000000000000000828401527f000000000000000000000000000000000000000000000000000000000000000060608301524660808301523060a0808401919091528351808403909101815260c0909201909252805191012090565b60008060006127b085856131ec565b915091506127bd81613231565b509392505050565b7f3181e78fc1b109bc611fd2406150bf06e33faa75f71cba12c3e1fd670f2def0090565b6001600160a01b03811660009081526001830160205260408120541515610cca565b60006107a9825490565b6000610cca838361337b565b600060048210156128445760405162461bcd60e51b815260040161097890614629565b612852600460008486614648565b610cca91614672565b600080604483101561287f5760405162461bcd60e51b815260040161097890614629565b61288d602460048587614648565b81019061289a9190613a92565b91506128aa604460248587614648565b8101906128b791906146a2565b90509250929050565b6060808060648410156128e55760405162461bcd60e51b815260040161097890614629565b6128f28460048188614648565b8101906128ff919061473a565b919790965090945092505050565b612915611d14565b6001600160a01b0316336001600160a01b0316146129755760405162461bcd60e51b815260206004820152601c60248201527f6163636f756e743a206e6f742066726f6d20456e747279506f696e74000000006044820152606401610978565b565b7f19457468657265756d205369676e6564204d6573736167653a0a3332000000006000908152601c829052603c812060006129f66129b96101408701876141d9565b8080601f01602080910402602001604051908101604052809392919081815260200183838082843760009201919091525086939250506127a19050565b9050612a0281866109a4565b612a11576001925050506107a9565b6000612a1b6127c5565b6001600160a01b03929092166000908152600590920160209081526040808420815160608082018452825482526001909201546001600160801b0380821683870152600160801b8204908116928501929092528351928301845295825265ffffffffffff8087169483019490945292831691015260d09290921b6001600160d01b03191660a09290921b65ffffffffffff60a01b169190911795945050505050565b8015611b4b57604051600090339060001990849084818181858888f193505050503d80600081146113c0576040519150601f19603f3d011682016040523d82523d6000602084013e6113c0565b60606000846001600160a01b03168484604051612b27919061481f565b60006040518083038185875af1925050503d8060008114612b64576040519150601f19603f3d011682016040523d82523d6000602084013e612b69565b606091505b5092509050806127bd57815160208301fd5b60405163c3c5a54760e01b81523060048201527f0000000000000000000000000000000000000000000000000000000000000000906001600160a01b0382169063c3c5a54790602401602060405180830381865afa158015612be1573d6000803e3d6000fd5b505050506040513d601f19601f82011682018060405250810190612c0591906142fc565b611b4b57600080516020614a06833981519152546040516320e80fe360e21b815260048101919091526001600160a01b038216906383a03f8c906024015b600060405180830381600087803b1580156113ac57600080fd5b612c6633610c7c565b6129755760405162461bcd60e51b815260206004820152600660248201526510b0b236b4b760d11b6044820152606401610978565b612ca582826133a5565b6001600160a01b037f0000000000000000000000000000000000000000000000000000000000000000163b15612dde578015612d76576001600160a01b037f000000000000000000000000000000000000000000000000000000000000000016630b61e12b837f036f52c1827dab135f7fd44ca0bddde297e2f659c710e0ec53e975f22b548300600101546040516001600160e01b031960e085901b1681526001600160a01b0390921660048301526024820152604401600060405180830381600087803b15801561142457600080fd5b600080516020614a06833981519152546040516301270f4760e71b81526001600160a01b03848116600483015260248201929092527f000000000000000000000000000000000000000000000000000000000000000090911690639387a3809060440161140a565b5050565b6000610cca836001600160a01b038416613454565b60606000610cca836134a3565b6000610cca836001600160a01b0384166134ff565b6001600160a01b037f0000000000000000000000000000000000000000000000000000000000000000163b15611b4b576001600160a01b037f000000000000000000000000000000000000000000000000000000000000000016630b61e12b612e856020840184613a92565b600080516020614a068339815191525460405160e084901b6001600160e01b03191681526001600160a01b039290921660048301526024820152604401612c43565b6000612ed233610c7c565b8061209757505030331490565b60007f4bc804ba64359c0e35e5ed5d90ee596ecaa49a3a930ddcb1470ea0dd625da9008054612f0d906145f5565b80601f0160208091040260200160405190810160405280929190818152602001828054612f39906145f5565b8015612f865780601f10612f5b57610100808354040283529160200191612f86565b820191906000526020600020905b815481529060010190602001808311612f6957829003601f168201915b5050505050905081612fb57f4bc804ba64359c0e35e5ed5d90ee596ecaa49a3a930ddcb1470ea0dd625da90090565b90612fc09082614886565b507fc9c7c3fe08b88b4df9d4d47ef47d2c43d55c025a0ba88ca442580ed9e7348a168183604051612ff2929190614945565b60405180910390a15050565b60607f3fd4a1a1a267c84185e3b7eecd57c68783c0581d538b9d6e5f23e4670497c1e961302e6020840184613a92565b61303e60408501602086016143ec565b61304b6040860186614407565b60405160200161305c929190614973565b60408051601f198184030181529190528051602090910120606086013561308960a08801608089016143c0565b61309960c0890160a08a016143c0565b6130a960e08a0160c08b016143c0565b6130ba6101008b0160e08c016143c0565b60408051602081019a909a526001600160a01b039098169789019790975260ff9095166060880152608087019390935260a08601919091526001600160801b0390811660c086015290811660e0850152908116610100848101919091529116610120830152830135610140820152610160016040516020818303038152906040529050919050565b600061085c83838080601f016020809104026020016040519081016040528093929190818152602001838380828437600092019190915250508751602089012061318e925090506135f2565b906127a1565b6060610cca8383604051806060016040528060278152602001614a466027913961361f565b600082826040516020016131ce9291906149b5565b60405160208183030381529060405280519060200120905092915050565b60008082516041036132225760208301516040840151606085015160001a61321687828585613697565b9450945050505061322a565b506000905060025b9250929050565b6000816004811115613245576132456149d9565b0361324d5750565b6001816004811115613261576132616149d9565b036132ae5760405162461bcd60e51b815260206004820152601860248201527f45434453413a20696e76616c6964207369676e617475726500000000000000006044820152606401610978565b60028160048111156132c2576132c26149d9565b0361330f5760405162461bcd60e51b815260206004820152601f60248201527f45434453413a20696e76616c6964207369676e6174757265206c656e677468006044820152606401610978565b6003816004811115613323576133236149d9565b03611b4b5760405162461bcd60e51b815260206004820152602260248201527f45434453413a20696e76616c6964207369676e6174757265202773272076616c604482015261756560f01b6064820152608401610978565b60008260000182815481106133925761339261421f565b9060005260206000200154905092915050565b806133ae6127c5565b6001600160a01b038416600090815260049190910160205260409020805460ff191691151591909117905580156133f7576133f1826133eb6127c5565b90612de2565b5061340b565b613409826134036127c5565b90612e04565b505b816001600160a01b03167f235bc17e7930760029e9f4d860a2a8089976de5b381cf8380fc11c1d88a1113382604051613448911515815260200190565b60405180910390a25050565b600081815260018301602052604081205461349b575081546001818101845560008481526020808220909301849055845484825282860190935260409020919091556107a9565b5060006107a9565b6060816000018054806020026020016040519081016040528092919081815260200182805480156134f357602002820191906000526020600020905b8154815260200190600101908083116134df575b50505050509050919050565b600081815260018301602052604081205480156135e857600061352360018361429f565b85549091506000906135379060019061429f565b905081811461359c5760008660000182815481106135575761355761421f565b906000526020600020015490508087600001848154811061357a5761357a61421f565b6000918252602080832090910192909255918252600188019052604090208390555b85548690806135ad576135ad6149ef565b6001900381819060005260206000200160009055905585600101600086815260200190815260200160002060009055600193505050506107a9565b60009150506107a9565b60006107a96135ff61267a565b8360405161190160f01b8152600281019290925260228201526042902090565b6060600080856001600160a01b03168560405161363c919061481f565b600060405180830381855af49150503d8060008114613677576040519150601f19603f3d011682016040523d82523d6000602084013e61367c565b606091505b509150915061368d8683838761375b565b9695505050505050565b6000807f7fffffffffffffffffffffffffffffff5d576e7357a4501ddfe92f46681b20a08311156136ce5750600090506003613752565b6040805160008082526020820180845289905260ff881692820192909252606081018690526080810185905260019060a0016020604051602081039080840390855afa158015613722573d6000803e3d6000fd5b5050604051601f1901519150506001600160a01b03811661374b57600060019250925050613752565b9150600090505b94509492505050565b606083156137ca5782516000036137c3576001600160a01b0385163b6137c35760405162461bcd60e51b815260206004820152601d60248201527f416464726573733a2063616c6c20746f206e6f6e2d636f6e74726163740000006044820152606401610978565b508161085c565b61085c83838151156137df5781518083602001fd5b8060405162461bcd60e51b815260040161097891906140c9565b6040518060a0016040528060006001600160a01b03168152602001606081526020016000815260200160006001600160801b0316815260200160006001600160801b031681525090565b60006020828403121561385557600080fd5b81356001600160e01b031981168114610cca57600080fd5b634e487b7160e01b600052604160045260246000fd5b604051601f8201601f191681016001600160401b03811182821017156138ab576138ab61386d565b604052919050565b60006001600160401b038311156138cc576138cc61386d565b6138df601f8401601f1916602001613883565b90508281528383830111156138f357600080fd5b828260208301376000602084830101529392505050565b600082601f83011261391b57600080fd5b610cca838335602085016138b3565b60006020828403121561393c57600080fd5b81356001600160401b0381111561395257600080fd5b61085c8482850161390a565b6001600160a01b0381168114611b4b57600080fd5b803561397e8161395e565b919050565b6000806000806080858703121561399957600080fd5b84356139a48161395e565b935060208501356139b48161395e565b92506040850135915060608501356001600160401b038111156139d657600080fd5b6139e28782880161390a565b91505092959194509250565b60008060408385031215613a0157600080fd5b8235915060208301356001600160401b03811115613a1e57600080fd5b613a2a8582860161390a565b9150509250929050565b60006101608284031215613a4757600080fd5b50919050565b60008060408385031215613a6057600080fd5b8235613a6b8161395e565b915060208301356001600160401b03811115613a8657600080fd5b613a2a85828601613a34565b600060208284031215613aa457600080fd5b8135610cca8161395e565b600080600060608486031215613ac457600080fd5b83356001600160401b03811115613ada57600080fd5b613ae686828701613a34565b9660208601359650604090950135949350505050565b60008083601f840112613b0e57600080fd5b5081356001600160401b03811115613b2557600080fd5b6020830191508360208260051b850101111561322a57600080fd5b60008060008060008060608789031215613b5957600080fd5b86356001600160401b0380821115613b7057600080fd5b613b7c8a838b01613afc565b90985096506020890135915080821115613b9557600080fd5b613ba18a838b01613afc565b90965094506040890135915080821115613bba57600080fd5b50613bc789828a01613afc565b979a9699509497509295939492505050565b60008060408385031215613bec57600080fd5b8235613bf78161395e565b946020939093013593505050565b60008083601f840112613c1757600080fd5b5081356001600160401b03811115613c2e57600080fd5b60208301915083602082850101111561322a57600080fd5b600080600060408486031215613c5b57600080fd5b83356001600160401b0380821115613c7257600080fd5b908501906101208288031215613c8757600080fd5b90935060208501359080821115613c9d57600080fd5b50613caa86828701613c05565b9497909650939450505050565b80516001600160a01b03908116835260208083015160a082860181905281519086018190526000939183019290849060c08801905b80831015613d0e57855185168252948301946001929092019190830190613cec565b506040870151604089015260608701519450613d3560608901866001600160801b03169052565b60808701519450613d5160808901866001600160801b03169052565b979650505050505050565b6000602080830181845280855180835260408601915060408160051b870101925083870160005b82811015613db157603f19888603018452613d9f858351613cb7565b94509285019290850190600101613d83565b5092979650505050505050565b600060208284031215613dd057600080fd5b81356001600160401b03811115613de657600080fd5b8201601f81018413613df757600080fd5b61085c848235602084016138b3565b60008060208385031215613e1957600080fd5b82356001600160401b03811115613e2f57600080fd5b613e3b85828601613afc565b90969095509350505050565b60005b83811015613e62578181015183820152602001613e4a565b50506000910152565b60008151808452613e83816020860160208601613e47565b601f01601f19169290920160200192915050565b6000602080830181845280855180835260408601915060408160051b870101925083870160005b82811015613db157603f19888603018452613eda858351613e6b565b94509285019290850190600101613ebe565b60008060008060608587031215613f0257600080fd5b8435613f0d8161395e565b93506020850135925060408501356001600160401b03811115613f2f57600080fd5b613f3b87828801613c05565b95989497509550505050565b60006001600160401b03821115613f6057613f6061386d565b5060051b60200190565b600082601f830112613f7b57600080fd5b81356020613f90613f8b83613f47565b613883565b82815260059290921b84018101918181019086841115613faf57600080fd5b8286015b84811015613fca5780358352918301918301613fb3565b509695505050505050565b600080600080600060a08688031215613fed57600080fd5b8535613ff88161395e565b945060208601356140088161395e565b935060408601356001600160401b038082111561402457600080fd5b61403089838a01613f6a565b9450606088013591508082111561404657600080fd5b61405289838a01613f6a565b9350608088013591508082111561406857600080fd5b506140758882890161390a565b9150509295509295909350565b60008060006040848603121561409757600080fd5b83356140a28161395e565b925060208401356001600160401b038111156140bd57600080fd5b613caa86828701613c05565b602081526000610cca6020830184613e6b565b600081518084526020808501945080840160005b838110156141155781516001600160a01b0316875295820195908201906001016140f0565b509495945050505050565b602081526000610cca60208301846140dc565b8015158114611b4b57600080fd5b60006020828403121561415357600080fd5b8135610cca81614133565b602081526000610cca6020830184613cb7565b600080600080600060a0868803121561418957600080fd5b85356141948161395e565b945060208601356141a48161395e565b9350604086013592506060860135915060808601356001600160401b038111156141cd57600080fd5b6140758882890161390a565b6000808335601e198436030181126141f057600080fd5b8301803591506001600160401b0382111561420a57600080fd5b60200191503681900382131561322a57600080fd5b634e487b7160e01b600052603260045260246000fd5b634e487b7160e01b600052601160045260246000fd5b60006001820161425d5761425d614235565b5060010190565b60006020828403121561427657600080fd5b5051919050565b60008261429a57634e487b7160e01b600052601260045260246000fd5b500690565b818103818111156107a9576107a9614235565b60008060008060008060c087890312156142cb57600080fd5b865195506020870151945060408701519350606087015192506080870151915060a087015190509295509295509295565b60006020828403121561430e57600080fd5b8151610cca81614133565b808201808211156107a9576107a9614235565b85815284602082015260a06040820152600061434b60a08301866140dc565b6001600160a01b0394909416606083015250608001529392505050565b60208082526021908201527f4163636f756e743a206e6f742061646d696e206f7220456e747279506f696e746040820152601760f91b606082015260800190565b80356001600160801b038116811461397e57600080fd5b6000602082840312156143d257600080fd5b610cca826143a9565b803560ff8116811461397e57600080fd5b6000602082840312156143fe57600080fd5b610cca826143db565b6000808335601e1984360301811261441e57600080fd5b8301803591506001600160401b0382111561443857600080fd5b6020019150600581901b360382131561322a57600080fd5b6000808335601e1984360301811261446757600080fd5b83016020810192503590506001600160401b0381111561448657600080fd5b8060051b360382131561322a57600080fd5b8183526000602080850194508260005b858110156141155781356144bb8161395e565b6001600160a01b0316875295820195908201906001016144a8565b602081526144f7602082016144ea84613973565b6001600160a01b03169052565b6000614505602084016143db565b60ff811660408401525061451c6040840184614450565b61012080606086015261453461014086018385614498565b92506060860135608086015261454c608087016143a9565b6001600160801b03811660a0870152915061456960a087016143a9565b6001600160801b03811660c0870152915061458660c087016143a9565b6001600160801b03811660e087015291506145a360e087016143a9565b91506101006145bc818701846001600160801b03169052565b9590950135939094019290925250919050565b8284823760609190911b6bffffffffffffffffffffffff19169101908152601401919050565b600181811c9082168061460957607f821691505b602082108103613a4757634e487b7160e01b600052602260045260246000fd5b602080825260059082015264214461746160d81b604082015260600190565b6000808585111561465857600080fd5b8386111561466557600080fd5b5050820193919092039150565b6001600160e01b0319813581811691600485101561469a5780818660040360031b1b83161692505b505092915050565b6000602082840312156146b457600080fd5b5035919050565b600082601f8301126146cc57600080fd5b813560206146dc613f8b83613f47565b82815260059290921b840181019181810190868411156146fb57600080fd5b8286015b84811015613fca5780356001600160401b0381111561471e5760008081fd5b61472c8986838b010161390a565b8452509183019183016146ff565b60008060006060848603121561474f57600080fd5b83356001600160401b038082111561476657600080fd5b818601915086601f83011261477a57600080fd5b8135602061478a613f8b83613f47565b82815260059290921b8401810191818101908a8411156147a957600080fd5b948201945b838610156147d05785356147c18161395e565b825294820194908201906147ae565b975050870135925050808211156147e657600080fd5b6147f287838801613f6a565b9350604086013591508082111561480857600080fd5b50614815868287016146bb565b9150509250925092565b60008251614831818460208701613e47565b9190910192915050565b601f82111561488157600081815260208120601f850160051c810160208610156148625750805b601f850160051c820191505b818110156114385782815560010161486e565b505050565b81516001600160401b0381111561489f5761489f61386d565b6148b3816148ad84546145f5565b8461483b565b602080601f8311600181146148e857600084156148d05750858301515b600019600386901b1c1916600185901b178555611438565b600085815260208120601f198616915b82811015614917578886015182559484019460019091019084016148f8565b50858210156149355787850151600019600388901b60f8161c191681555b5050505050600190811b01905550565b6040815260006149586040830185613e6b565b828103602084015261496a8185613e6b565b95945050505050565b60008184825b858110156149aa57813561498c8161395e565b6001600160a01b031683526020928301929190910190600101614979565b509095945050505050565b6001600160a01b038316815260406020820181905260009061085c90830184613e6b565b634e487b7160e01b600052602160045260246000fd5b634e487b7160e01b600052603160045260246000fdfe036f52c1827dab135f7fd44ca0bddde297e2f659c710e0ec53e975f22b548301322cf19c484104d3b1a9c2982ebae869ede3fa5f6c4703ca41b9a48c76ee0300416464726573733a206c6f772d6c6576656c2064656c65676174652063616c6c206661696c6564a2646970667358221220f26e6d6b28d6eb46d0c73cb9ce5a2913da2ee382933fac8dd37a6edadddad2f964736f6c63430008140033",
    "linkReferences": {}
  },
  "methodIdentifiers": {
    "aavePool()": "a03e4bc3",
    "addDeposit()": "4a58db19",
    "allowedSupply()": "9934cdb1",
    "automationUpkeep()": "29245414",
    "contractURI()": "e8a3d485",
    "defaultToken()": "74c13fda",
    "entryPoint()": "b0d691fe",
    "execute(address,uint256,bytes)": "b61d27f6",
    "executeBatch(address[],uint256[],bytes[])": "47e1da2a",
    "executeSupplyToVault()": "b2836277",
    "executeSwapAndSupply(address)": "3dd6e025",
    "factory()": "c45a0155",
    "getAllActiveSigners()": "8b52d723",
    "getAllAdmins()": "e9523c97",
    "getAllSigners()": "d42f2f35",
    "getMessageHash(bytes)": "0a1028c4",
    "getNonce()": "d087d288",
    "getPermissionsForSigner(address)": "f15d424e",
    "ghoTreshold()": "4e9eb56e",
    "initialize(address,bytes)": "d1f57894",
    "isActiveSigner(address)": "7dff5a79",
    "isAdmin(address)": "24d7806c",
    "isValidSignature(bytes32,bytes)": "1626ba7e",
    "isValidSigner(address,(address,uint256,bytes,bytes,uint256,uint256,uint256,uint256,uint256,bytes,bytes))": "1dd756c5",
    "multicall(bytes[])": "ac9650d8",
    "onERC1155BatchReceived(address,address,uint256[],uint256[],bytes)": "bc197c81",
    "onERC1155Received(address,address,uint256,uint256,bytes)": "f23a6e61",
    "onERC721Received(address,address,uint256,bytes)": "150b7a02",
    "setAllowedSupply(bool)": "ec1afaaa",
    "setContractURI(string)": "938e3d7b",
    "setEntrypointOverride(address)": "b76464d5",
    "setPermissionsForSigner((address,uint8,address[],uint256,uint128,uint128,uint128,uint128,bytes32),bytes)": "5892e236",
    "supportsInterface(bytes4)": "01ffc9a7",
    "uniswapRouter()": "735de9f7",
    "validateUserOp((address,uint256,bytes,bytes,uint256,uint256,uint256,uint256,uint256,bytes,bytes),bytes32,uint256)": "3a871cdd",
    "vault()": "fbfa77cf",
    "verifySignerPermissionRequest((address,uint8,address[],uint256,uint128,uint128,uint128,uint128,bytes32),bytes)": "a9082d84",
    "withdrawDepositTo(address,uint256)": "4d44560d"
  },
  "id": 63
}