{
  "abi": [
    {
      "inputs": [
        {
          "internalType": "contract IEntryPoint",
          "name": "_entrypoint",
          "type": "address"
        },
        {
          "internalType": "address",
          "name": "_factory",
          "type": "address"
        },
        {
          "internalType": "address",
          "name": "_defaultToken",
          "type": "address"
        },
        {
          "internalType": "address",
          "name": "_uniswapRouter",
          "type": "address"
        }
      ],
      "stateMutability": "nonpayable",
      "type": "constructor"
    },
    {
      "anonymous": false,
      "inputs": [
        {
          "indexed": true,
          "internalType": "address",
          "name": "signer",
          "type": "address"
        },
        {
          "indexed": false,
          "internalType": "bool",
          "name": "isAdmin",
          "type": "bool"
        }
      ],
      "name": "AdminUpdated",
      "type": "event"
    },
    {
      "anonymous": false,
      "inputs": [
        {
          "indexed": false,
          "internalType": "string",
          "name": "prevURI",
          "type": "string"
        },
        {
          "indexed": false,
          "internalType": "string",
          "name": "newURI",
          "type": "string"
        }
      ],
      "name": "ContractURIUpdated",
      "type": "event"
    },
    {
      "anonymous": false,
      "inputs": [
        {
          "indexed": false,
          "internalType": "uint8",
          "name": "version",
          "type": "uint8"
        }
      ],
      "name": "Initialized",
      "type": "event"
    },
    {
      "anonymous": false,
      "inputs": [
        {
          "indexed": true,
          "internalType": "address",
          "name": "authorizingSigner",
          "type": "address"
        },
        {
          "indexed": true,
          "internalType": "address",
          "name": "targetSigner",
          "type": "address"
        },
        {
          "components": [
            {
              "internalType": "address",
              "name": "signer",
              "type": "address"
            },
            {
              "internalType": "uint8",
              "name": "isAdmin",
              "type": "uint8"
            },
            {
              "internalType": "address[]",
              "name": "approvedTargets",
              "type": "address[]"
            },
            {
              "internalType": "uint256",
              "name": "nativeTokenLimitPerTransaction",
              "type": "uint256"
            },
            {
              "internalType": "uint128",
              "name": "permissionStartTimestamp",
              "type": "uint128"
            },
            {
              "internalType": "uint128",
              "name": "permissionEndTimestamp",
              "type": "uint128"
            },
            {
              "internalType": "uint128",
              "name": "reqValidityStartTimestamp",
              "type": "uint128"
            },
            {
              "internalType": "uint128",
              "name": "reqValidityEndTimestamp",
              "type": "uint128"
            },
            {
              "internalType": "bytes32",
              "name": "uid",
              "type": "bytes32"
            }
          ],
          "indexed": false,
          "internalType": "struct IAccountPermissions.SignerPermissionRequest",
          "name": "permissions",
          "type": "tuple"
        }
      ],
      "name": "SignerPermissionsUpdated",
      "type": "event"
    },
    {
      "inputs": [],
      "name": "addDeposit",
      "outputs": [],
      "stateMutability": "payable",
      "type": "function"
    },
    {
      "inputs": [],
      "name": "allowedSupply",
      "outputs": [
        {
          "internalType": "bool",
          "name": "",
          "type": "bool"
        }
      ],
      "stateMutability": "view",
      "type": "function"
    },
    {
      "inputs": [],
      "name": "automationUpkeep",
      "outputs": [
        {
          "internalType": "address",
          "name": "",
          "type": "address"
        }
      ],
      "stateMutability": "view",
      "type": "function"
    },
    {
      "inputs": [],
      "name": "contractURI",
      "outputs": [
        {
          "internalType": "string",
          "name": "",
          "type": "string"
        }
      ],
      "stateMutability": "view",
      "type": "function"
    },
    {
      "inputs": [],
      "name": "defaultToken",
      "outputs": [
        {
          "internalType": "address",
          "name": "",
          "type": "address"
        }
      ],
      "stateMutability": "view",
      "type": "function"
    },
    {
      "inputs": [],
      "name": "entryPoint",
      "outputs": [
        {
          "internalType": "contract IEntryPoint",
          "name": "",
          "type": "address"
        }
      ],
      "stateMutability": "view",
      "type": "function"
    },
    {
      "inputs": [
        {
          "internalType": "address",
          "name": "_target",
          "type": "address"
        },
        {
          "internalType": "uint256",
          "name": "_value",
          "type": "uint256"
        },
        {
          "internalType": "bytes",
          "name": "_calldata",
          "type": "bytes"
        }
      ],
      "name": "execute",
      "outputs": [],
      "stateMutability": "nonpayable",
      "type": "function"
    },
    {
      "inputs": [
        {
          "internalType": "address[]",
          "name": "_target",
          "type": "address[]"
        },
        {
          "internalType": "uint256[]",
          "name": "_value",
          "type": "uint256[]"
        },
        {
          "internalType": "bytes[]",
          "name": "_calldata",
          "type": "bytes[]"
        }
      ],
      "name": "executeBatch",
      "outputs": [],
      "stateMutability": "nonpayable",
      "type": "function"
    },
    {
      "inputs": [
        {
          "internalType": "address",
          "name": "token",
          "type": "address"
        },
        {
          "internalType": "address",
          "name": "aavePool",
          "type": "address"
        }
      ],
      "name": "executeSwapAndSupply",
      "outputs": [],
      "stateMutability": "nonpayable",
      "type": "function"
    },
    {
      "inputs": [],
      "name": "factory",
      "outputs": [
        {
          "internalType": "address",
          "name": "",
          "type": "address"
        }
      ],
      "stateMutability": "view",
      "type": "function"
    },
    {
      "inputs": [],
      "name": "getAllActiveSigners",
      "outputs": [
        {
          "components": [
            {
              "internalType": "address",
              "name": "signer",
              "type": "address"
            },
            {
              "internalType": "address[]",
              "name": "approvedTargets",
              "type": "address[]"
            },
            {
              "internalType": "uint256",
              "name": "nativeTokenLimitPerTransaction",
              "type": "uint256"
            },
            {
              "internalType": "uint128",
              "name": "startTimestamp",
              "type": "uint128"
            },
            {
              "internalType": "uint128",
              "name": "endTimestamp",
              "type": "uint128"
            }
          ],
          "internalType": "struct IAccountPermissions.SignerPermissions[]",
          "name": "signers",
          "type": "tuple[]"
        }
      ],
      "stateMutability": "view",
      "type": "function"
    },
    {
      "inputs": [],
      "name": "getAllAdmins",
      "outputs": [
        {
          "internalType": "address[]",
          "name": "",
          "type": "address[]"
        }
      ],
      "stateMutability": "view",
      "type": "function"
    },
    {
      "inputs": [],
      "name": "getAllSigners",
      "outputs": [
        {
          "components": [
            {
              "internalType": "address",
              "name": "signer",
              "type": "address"
            },
            {
              "internalType": "address[]",
              "name": "approvedTargets",
              "type": "address[]"
            },
            {
              "internalType": "uint256",
              "name": "nativeTokenLimitPerTransaction",
              "type": "uint256"
            },
            {
              "internalType": "uint128",
              "name": "startTimestamp",
              "type": "uint128"
            },
            {
              "internalType": "uint128",
              "name": "endTimestamp",
              "type": "uint128"
            }
          ],
          "internalType": "struct IAccountPermissions.SignerPermissions[]",
          "name": "signers",
          "type": "tuple[]"
        }
      ],
      "stateMutability": "view",
      "type": "function"
    },
    {
      "inputs": [
        {
          "internalType": "bytes",
          "name": "message",
          "type": "bytes"
        }
      ],
      "name": "getMessageHash",
      "outputs": [
        {
          "internalType": "bytes32",
          "name": "",
          "type": "bytes32"
        }
      ],
      "stateMutability": "view",
      "type": "function"
    },
    {
      "inputs": [],
      "name": "getNonce",
      "outputs": [
        {
          "internalType": "uint256",
          "name": "",
          "type": "uint256"
        }
      ],
      "stateMutability": "view",
      "type": "function"
    },
    {
      "inputs": [
        {
          "internalType": "address",
          "name": "signer",
          "type": "address"
        }
      ],
      "name": "getPermissionsForSigner",
      "outputs": [
        {
          "components": [
            {
              "internalType": "address",
              "name": "signer",
              "type": "address"
            },
            {
              "internalType": "address[]",
              "name": "approvedTargets",
              "type": "address[]"
            },
            {
              "internalType": "uint256",
              "name": "nativeTokenLimitPerTransaction",
              "type": "uint256"
            },
            {
              "internalType": "uint128",
              "name": "startTimestamp",
              "type": "uint128"
            },
            {
              "internalType": "uint128",
              "name": "endTimestamp",
              "type": "uint128"
            }
          ],
          "internalType": "struct IAccountPermissions.SignerPermissions",
          "name": "",
          "type": "tuple"
        }
      ],
      "stateMutability": "view",
      "type": "function"
    },
    {
      "inputs": [
        {
          "internalType": "address",
          "name": "_defaultAdmin",
          "type": "address"
        },
        {
          "internalType": "bytes",
          "name": "_data",
          "type": "bytes"
        }
      ],
      "name": "initialize",
      "outputs": [],
      "stateMutability": "nonpayable",
      "type": "function"
    },
    {
      "inputs": [
        {
          "internalType": "address",
          "name": "signer",
          "type": "address"
        }
      ],
      "name": "isActiveSigner",
      "outputs": [
        {
          "internalType": "bool",
          "name": "",
          "type": "bool"
        }
      ],
      "stateMutability": "view",
      "type": "function"
    },
    {
      "inputs": [
        {
          "internalType": "address",
          "name": "_account",
          "type": "address"
        }
      ],
      "name": "isAdmin",
      "outputs": [
        {
          "internalType": "bool",
          "name": "",
          "type": "bool"
        }
      ],
      "stateMutability": "view",
      "type": "function"
    },
    {
      "inputs": [
        {
          "internalType": "bytes32",
          "name": "_message",
          "type": "bytes32"
        },
        {
          "internalType": "bytes",
          "name": "_signature",
          "type": "bytes"
        }
      ],
      "name": "isValidSignature",
      "outputs": [
        {
          "internalType": "bytes4",
          "name": "magicValue",
          "type": "bytes4"
        }
      ],
      "stateMutability": "view",
      "type": "function"
    },
    {
      "inputs": [
        {
          "internalType": "address",
          "name": "_signer",
          "type": "address"
        },
        {
          "components": [
            {
              "internalType": "address",
              "name": "sender",
              "type": "address"
            },
            {
              "internalType": "uint256",
              "name": "nonce",
              "type": "uint256"
            },
            {
              "internalType": "bytes",
              "name": "initCode",
              "type": "bytes"
            },
            {
              "internalType": "bytes",
              "name": "callData",
              "type": "bytes"
            },
            {
              "internalType": "uint256",
              "name": "callGasLimit",
              "type": "uint256"
            },
            {
              "internalType": "uint256",
              "name": "verificationGasLimit",
              "type": "uint256"
            },
            {
              "internalType": "uint256",
              "name": "preVerificationGas",
              "type": "uint256"
            },
            {
              "internalType": "uint256",
              "name": "maxFeePerGas",
              "type": "uint256"
            },
            {
              "internalType": "uint256",
              "name": "maxPriorityFeePerGas",
              "type": "uint256"
            },
            {
              "internalType": "bytes",
              "name": "paymasterAndData",
              "type": "bytes"
            },
            {
              "internalType": "bytes",
              "name": "signature",
              "type": "bytes"
            }
          ],
          "internalType": "struct UserOperation",
          "name": "_userOp",
          "type": "tuple"
        }
      ],
      "name": "isValidSigner",
      "outputs": [
        {
          "internalType": "bool",
          "name": "",
          "type": "bool"
        }
      ],
      "stateMutability": "view",
      "type": "function"
    },
    {
      "inputs": [
        {
          "internalType": "bytes[]",
          "name": "data",
          "type": "bytes[]"
        }
      ],
      "name": "multicall",
      "outputs": [
        {
          "internalType": "bytes[]",
          "name": "results",
          "type": "bytes[]"
        }
      ],
      "stateMutability": "nonpayable",
      "type": "function"
    },
    {
      "inputs": [
        {
          "internalType": "address",
          "name": "",
          "type": "address"
        },
        {
          "internalType": "address",
          "name": "",
          "type": "address"
        },
        {
          "internalType": "uint256[]",
          "name": "",
          "type": "uint256[]"
        },
        {
          "internalType": "uint256[]",
          "name": "",
          "type": "uint256[]"
        },
        {
          "internalType": "bytes",
          "name": "",
          "type": "bytes"
        }
      ],
      "name": "onERC1155BatchReceived",
      "outputs": [
        {
          "internalType": "bytes4",
          "name": "",
          "type": "bytes4"
        }
      ],
      "stateMutability": "nonpayable",
      "type": "function"
    },
    {
      "inputs": [
        {
          "internalType": "address",
          "name": "",
          "type": "address"
        },
        {
          "internalType": "address",
          "name": "",
          "type": "address"
        },
        {
          "internalType": "uint256",
          "name": "",
          "type": "uint256"
        },
        {
          "internalType": "uint256",
          "name": "",
          "type": "uint256"
        },
        {
          "internalType": "bytes",
          "name": "",
          "type": "bytes"
        }
      ],
      "name": "onERC1155Received",
      "outputs": [
        {
          "internalType": "bytes4",
          "name": "",
          "type": "bytes4"
        }
      ],
      "stateMutability": "nonpayable",
      "type": "function"
    },
    {
      "inputs": [
        {
          "internalType": "address",
          "name": "",
          "type": "address"
        },
        {
          "internalType": "address",
          "name": "",
          "type": "address"
        },
        {
          "internalType": "uint256",
          "name": "",
          "type": "uint256"
        },
        {
          "internalType": "bytes",
          "name": "",
          "type": "bytes"
        }
      ],
      "name": "onERC721Received",
      "outputs": [
        {
          "internalType": "bytes4",
          "name": "",
          "type": "bytes4"
        }
      ],
      "stateMutability": "nonpayable",
      "type": "function"
    },
    {
      "inputs": [
        {
          "internalType": "bool",
          "name": "_allowedSupply",
          "type": "bool"
        }
      ],
      "name": "setAllowedSupply",
      "outputs": [],
      "stateMutability": "nonpayable",
      "type": "function"
    },
    {
      "inputs": [
        {
          "internalType": "string",
          "name": "_uri",
          "type": "string"
        }
      ],
      "name": "setContractURI",
      "outputs": [],
      "stateMutability": "nonpayable",
      "type": "function"
    },
    {
      "inputs": [
        {
          "internalType": "address",
          "name": "_defaultToken",
          "type": "address"
        }
      ],
      "name": "setDefaultToken",
      "outputs": [],
      "stateMutability": "nonpayable",
      "type": "function"
    },
    {
      "inputs": [
        {
          "internalType": "contract IEntryPoint",
          "name": "_entrypointOverride",
          "type": "address"
        }
      ],
      "name": "setEntrypointOverride",
      "outputs": [],
      "stateMutability": "nonpayable",
      "type": "function"
    },
    {
      "inputs": [
        {
          "components": [
            {
              "internalType": "address",
              "name": "signer",
              "type": "address"
            },
            {
              "internalType": "uint8",
              "name": "isAdmin",
              "type": "uint8"
            },
            {
              "internalType": "address[]",
              "name": "approvedTargets",
              "type": "address[]"
            },
            {
              "internalType": "uint256",
              "name": "nativeTokenLimitPerTransaction",
              "type": "uint256"
            },
            {
              "internalType": "uint128",
              "name": "permissionStartTimestamp",
              "type": "uint128"
            },
            {
              "internalType": "uint128",
              "name": "permissionEndTimestamp",
              "type": "uint128"
            },
            {
              "internalType": "uint128",
              "name": "reqValidityStartTimestamp",
              "type": "uint128"
            },
            {
              "internalType": "uint128",
              "name": "reqValidityEndTimestamp",
              "type": "uint128"
            },
            {
              "internalType": "bytes32",
              "name": "uid",
              "type": "bytes32"
            }
          ],
          "internalType": "struct IAccountPermissions.SignerPermissionRequest",
          "name": "_req",
          "type": "tuple"
        },
        {
          "internalType": "bytes",
          "name": "_signature",
          "type": "bytes"
        }
      ],
      "name": "setPermissionsForSigner",
      "outputs": [],
      "stateMutability": "nonpayable",
      "type": "function"
    },
    {
      "inputs": [
        {
          "internalType": "address",
          "name": "_uniswapRouter",
          "type": "address"
        }
      ],
      "name": "setUniswapRouter",
      "outputs": [],
      "stateMutability": "nonpayable",
      "type": "function"
    },
    {
      "inputs": [
        {
          "internalType": "address",
          "name": "_upkeep",
          "type": "address"
        }
      ],
      "name": "setUpkeep",
      "outputs": [],
      "stateMutability": "nonpayable",
      "type": "function"
    },
    {
      "inputs": [
        {
          "internalType": "bytes4",
          "name": "interfaceId",
          "type": "bytes4"
        }
      ],
      "name": "supportsInterface",
      "outputs": [
        {
          "internalType": "bool",
          "name": "",
          "type": "bool"
        }
      ],
      "stateMutability": "view",
      "type": "function"
    },
    {
      "inputs": [],
      "name": "uniswapRouter",
      "outputs": [
        {
          "internalType": "address",
          "name": "",
          "type": "address"
        }
      ],
      "stateMutability": "view",
      "type": "function"
    },
    {
      "inputs": [
        {
          "components": [
            {
              "internalType": "address",
              "name": "sender",
              "type": "address"
            },
            {
              "internalType": "uint256",
              "name": "nonce",
              "type": "uint256"
            },
            {
              "internalType": "bytes",
              "name": "initCode",
              "type": "bytes"
            },
            {
              "internalType": "bytes",
              "name": "callData",
              "type": "bytes"
            },
            {
              "internalType": "uint256",
              "name": "callGasLimit",
              "type": "uint256"
            },
            {
              "internalType": "uint256",
              "name": "verificationGasLimit",
              "type": "uint256"
            },
            {
              "internalType": "uint256",
              "name": "preVerificationGas",
              "type": "uint256"
            },
            {
              "internalType": "uint256",
              "name": "maxFeePerGas",
              "type": "uint256"
            },
            {
              "internalType": "uint256",
              "name": "maxPriorityFeePerGas",
              "type": "uint256"
            },
            {
              "internalType": "bytes",
              "name": "paymasterAndData",
              "type": "bytes"
            },
            {
              "internalType": "bytes",
              "name": "signature",
              "type": "bytes"
            }
          ],
          "internalType": "struct UserOperation",
          "name": "userOp",
          "type": "tuple"
        },
        {
          "internalType": "bytes32",
          "name": "userOpHash",
          "type": "bytes32"
        },
        {
          "internalType": "uint256",
          "name": "missingAccountFunds",
          "type": "uint256"
        }
      ],
      "name": "validateUserOp",
      "outputs": [
        {
          "internalType": "uint256",
          "name": "validationData",
          "type": "uint256"
        }
      ],
      "stateMutability": "nonpayable",
      "type": "function"
    },
    {
      "inputs": [
        {
          "components": [
            {
              "internalType": "address",
              "name": "signer",
              "type": "address"
            },
            {
              "internalType": "uint8",
              "name": "isAdmin",
              "type": "uint8"
            },
            {
              "internalType": "address[]",
              "name": "approvedTargets",
              "type": "address[]"
            },
            {
              "internalType": "uint256",
              "name": "nativeTokenLimitPerTransaction",
              "type": "uint256"
            },
            {
              "internalType": "uint128",
              "name": "permissionStartTimestamp",
              "type": "uint128"
            },
            {
              "internalType": "uint128",
              "name": "permissionEndTimestamp",
              "type": "uint128"
            },
            {
              "internalType": "uint128",
              "name": "reqValidityStartTimestamp",
              "type": "uint128"
            },
            {
              "internalType": "uint128",
              "name": "reqValidityEndTimestamp",
              "type": "uint128"
            },
            {
              "internalType": "bytes32",
              "name": "uid",
              "type": "bytes32"
            }
          ],
          "internalType": "struct IAccountPermissions.SignerPermissionRequest",
          "name": "req",
          "type": "tuple"
        },
        {
          "internalType": "bytes",
          "name": "signature",
          "type": "bytes"
        }
      ],
      "name": "verifySignerPermissionRequest",
      "outputs": [
        {
          "internalType": "bool",
          "name": "success",
          "type": "bool"
        },
        {
          "internalType": "address",
          "name": "signer",
          "type": "address"
        }
      ],
      "stateMutability": "view",
      "type": "function"
    },
    {
      "inputs": [
        {
          "internalType": "address payable",
          "name": "withdrawAddress",
          "type": "address"
        },
        {
          "internalType": "uint256",
          "name": "amount",
          "type": "uint256"
        }
      ],
      "name": "withdrawDepositTo",
      "outputs": [],
      "stateMutability": "nonpayable",
      "type": "function"
    },
    {
      "stateMutability": "payable",
      "type": "receive"
    }
  ],
  "bytecode": {
    "object": "0x6101806040523480156200001257600080fd5b5060405162004c1c38038062004c1c833981016040819052620000359162000294565b60408051808201825260078152661058d8dbdd5b9d60ca1b60208083019182528351808501855260018152603160f81b908201529151902060e08190527fc89efdaa54c0f20c7adf612882df0950f5a951637e0307cdcb4c672f298b8bc66101008190524660a081815285517f8b73c3c69bb8fe3d512ecc4cf759cc79239f7b179b0ffacaa9a75d522b39400f818701819052818801959095526060810193909352608080840192909252308382018190528651808503909201825260c093840190965280519401939093209092529190526101205283836200011762000178565b6001600160a01b039081166101405290811661016052600080546001600160a01b03199081163317909155600180549483169490911693909317909255600280546001600160a81b0319169190921617600160a01b17905550620002fc9050565b7f322cf19c484104d3b1a9c2982ebae869ede3fa5f6c4703ca41b9a48c76ee03005460ff808216916101009004168015620002095760405162461bcd60e51b815260206004820152602760248201527f496e697469616c697a61626c653a20636f6e747261637420697320696e697469604482015266616c697a696e6760c81b606482015260840160405180910390fd5b60ff828116101562000277577f322cf19c484104d3b1a9c2982ebae869ede3fa5f6c4703ca41b9a48c76ee0300805460ff191660ff90811790915560408051918252517f7f26b83ff96e1f2b6a682f133852f6798a09c465da95921460cefb38474024989181900360200190a15b5050565b6001600160a01b03811681146200029157600080fd5b50565b60008060008060808587031215620002ab57600080fd5b8451620002b8816200027b565b6020860151909450620002cb816200027b565b6040860151909350620002de816200027b565b6060860151909250620002f1816200027b565b939692955090935050565b60805160a05160c05160e051610100516101205161014051610160516148906200038c60003960006118840152600081816105ea015281816128d401528181612a6401528181612a9a01528181612b6201528181612bd80152612c08015260006124b901526000612508015260006124e30152600061243c015260006124660152600061249001526148906000f3fe60806040526004361061021e5760003560e01c80639934cdb111610123578063d087d288116100ab578063e8a3d4851161006f578063e8a3d48514610696578063e9523c97146106b8578063ec1afaaa146106da578063f15d424e146106fa578063f23a6e611461072757600080fd5b8063d087d2881461060c578063d1f5789414610621578063d42f2f3514610641578063ddd5d6c614610656578063e1e32f991461067657600080fd5b8063b61d27f6116100f2578063b61d27f61461054c578063b76464d51461056c578063bc197c811461058c578063bea9849e146105b8578063c45a0155146105d857600080fd5b80639934cdb1146104aa578063a9082d84146104cb578063ac9650d81461050a578063b0d691fe1461053757600080fd5b806347e1da2a116101a6578063735de9f711610175578063735de9f71461040857806374c13fda146104285780637dff5a79146104485780638b52d72314610468578063938e3d7b1461048a57600080fd5b806347e1da2a146103a05780634a58db19146103c05780634d44560d146103c85780635892e236146103e857600080fd5b80631dd756c5116101ed5780631dd756c5146102e657806324d7806c1461030657806329245414146103265780632df635071461035e5780633a871cdd1461038057600080fd5b806301ffc9a71461022a5780630a1028c41461025f578063150b7a021461028d5780631626ba7e146102c657600080fd5b3661022557005b600080fd5b34801561023657600080fd5b5061024a6102453660046135f8565b610753565b60405190151581526020015b60405180910390f35b34801561026b57600080fd5b5061027f61027a3660046136df565b610799565b604051908152602001610256565b34801561029957600080fd5b506102ad6102a8366004613738565b61083d565b6040516001600160e01b03199091168152602001610256565b3480156102d257600080fd5b506102ad6102e13660046137a3565b61084e565b3480156102f257600080fd5b5061024a610301366004613802565b61098e565b34801561031257600080fd5b5061024a610321366004613847565b610c66565b34801561033257600080fd5b50600054610346906001600160a01b031681565b6040516001600160a01b039091168152602001610256565b34801561036a57600080fd5b5061037e610379366004613847565b610c95565b005b34801561038c57600080fd5b5061027f61039b366004613864565b610cfe565b3480156103ac57600080fd5b5061037e6103bb3660046138f5565b610d24565b61037e610e95565b3480156103d457600080fd5b5061037e6103e336600461398e565b610efc565b3480156103f457600080fd5b5061037e6104033660046139fb565b610f75565b34801561041457600080fd5b50600254610346906001600160a01b031681565b34801561043457600080fd5b50600154610346906001600160a01b031681565b34801561045457600080fd5b5061024a610463366004613847565b611332565b34801561047457600080fd5b5061047d6113eb565b6040516102569190613b11565b34801561049657600080fd5b5061037e6104a5366004613b73565b611632565b3480156104b657600080fd5b5060025461024a90600160a01b900460ff1681565b3480156104d757600080fd5b506104eb6104e63660046139fb565b611683565b6040805192151583526001600160a01b03909116602083015201610256565b34801561051657600080fd5b5061052a610525366004613bbb565b6116da565b6040516102569190613c4c565b34801561054357600080fd5b50610346611849565b34801561055857600080fd5b5061037e610567366004613ca1565b6118a9565b34801561057857600080fd5b5061037e610587366004613847565b611939565b34801561059857600080fd5b506102ad6105a7366004613d8a565b63bc197c8160e01b95945050505050565b3480156105c457600080fd5b5061037e6105d3366004613847565b611982565b3480156105e457600080fd5b506103467f000000000000000000000000000000000000000000000000000000000000000081565b34801561061857600080fd5b5061027f6119eb565b34801561062d57600080fd5b5061037e61063c366004613e37565b611a6b565b34801561064d57600080fd5b5061047d611c06565b34801561066257600080fd5b5061037e610671366004613e7e565b611d77565b34801561068257600080fd5b5061037e610691366004613847565b612191565b3480156106a257600080fd5b506106ab6121fa565b6040516102569190613eb7565b3480156106c457600080fd5b506106cd6122ab565b6040516102569190613f0e565b3480156106e657600080fd5b5061037e6106f5366004613f2f565b6122bd565b34801561070657600080fd5b5061071a610715366004613847565b612322565b6040516102569190613f4c565b34801561073357600080fd5b506102ad610742366004613f5f565b63f23a6e6160e01b95945050505050565b60006001600160e01b03198216630271189760e51b148061078457506001600160e01b03198216630a85bd0160e11b145b806107935750610793826123fa565b92915050565b6000807f82cac545155fcbf147f2a9013809613677ac7d65498556e6d19ce43bcbf6c28483805190602001206040516020016107df929190918252602082015260400190565b6040516020818303038152906040528051906020012090506107ff61242f565b60405161190160f01b602082015260228101919091526042810182905260620160405160208183030381529060405280519060200120915050919050565b630a85bd0160e11b5b949350505050565b60008061087b8460405160200161086791815260200190565b604051602081830303815290604052610799565b905060006108898285612556565b905061089481610c66565b156108ab5750630b135d3f60e11b91506107939050565b3360006108b661257a565b6001600160a01b03841660009081526006919091016020526040902090506108de818361259e565b8061090e57506108ed816125c0565b600114801561090e5750600061090382826125ca565b6001600160a01b0316145b61096b5760405162461bcd60e51b8152602060048201526024808201527f4163636f756e743a2063616c6c6572206e6f7420617070726f7665642074617260448201526333b2ba1760e11b60648201526084015b60405180910390fd5b61097483611332565b1561098457630b135d3f60e11b94505b5050505092915050565b600061099861257a565b6001600160a01b0384166000908152600491909101602052604090205460ff16156109c557506001610793565b60006109cf61257a565b6001600160a01b0385166000908152600591909101602090815260408083208151606081018352815481526001909101546001600160801b0380821694830194909452600160801b9004909216908201529150610a2a61257a565b6006016000866001600160a01b03166001600160a01b0316815260200190815260200160002090504282602001516001600160801b03161180610a7a575081604001516001600160801b03164210155b80610a8b5750610a89816125c0565b155b15610a9b57600092505050610793565b6000610ab2610aad6060870187613fc7565b6125d6565b90506000610abf836125c0565b6001148015610ae057506000610ad584826125ca565b6001600160a01b0316145b90506324f16c0560e11b6001600160e01b0319831601610b5757600080610b12610b0d60608a018a613fc7565b612610565b9150915082610b3857610b25858361259e565b610b385760009650505050505050610793565b8551811115610b505760009650505050505050610793565b5050610c59565b635c0f12eb60e11b6001600160e01b0319831601610c4c57600080610b87610b8260608a018a613fc7565b612675565b509150915082610bf15760005b8251811015610bef57610bc9838281518110610bb257610bb261400d565b60200260200101518761259e90919063ffffffff16565b610bdd576000975050505050505050610793565b80610be781614039565b915050610b94565b505b60005b8251811015610c4457818181518110610c0f57610c0f61400d565b602002602001015187600001511015610c32576000975050505050505050610793565b80610c3c81614039565b915050610bf4565b505050610c59565b6000945050505050610793565b5060019695505050505050565b6000610c7061257a565b6001600160a01b03909216600090815260049290920160205250604090205460ff1690565b610c9d611849565b6001600160a01b0316336001600160a01b03161480610cc05750610cc033610c66565b610cdc5760405162461bcd60e51b815260040161096290614052565b600080546001600160a01b0319166001600160a01b0392909216919091179055565b6000610d086126c2565b610d12848461272c565b9050610d1d82612872565b9392505050565b610d2c611849565b6001600160a01b0316336001600160a01b03161480610d4f5750610d4f33610c66565b610d6b5760405162461bcd60e51b815260040161096290614052565b610d736128bf565b8481148015610d8157508483145b610dcd5760405162461bcd60e51b815260206004820152601d60248201527f4163636f756e743a2077726f6e67206172726179206c656e677468732e0000006044820152606401610962565b60005b85811015610e8c57610e79878783818110610ded57610ded61400d565b9050602002016020810190610e029190613847565b868684818110610e1457610e1461400d565b90506020020135858585818110610e2d57610e2d61400d565b9050602002810190610e3f9190613fc7565b8080601f0160208091040260200160405190810160405280939291908181526020018383808284376000920191909152506129a192505050565b5080610e8481614039565b915050610dd0565b50505050505050565b610e9d611849565b60405163b760faf960e01b81523060048201526001600160a01b03919091169063b760faf99034906024016000604051808303818588803b158015610ee157600080fd5b505af1158015610ef5573d6000803e3d6000fd5b5050505050565b610f04612a12565b610f0c611849565b60405163040b850f60e31b81526001600160a01b03848116600483015260248201849052919091169063205c2878906044015b600060405180830381600087803b158015610f5957600080fd5b505af1158015610f6d573d6000803e3d6000fd5b505050505050565b6000610f846020850185613847565b905042610f9760e0860160c087016140aa565b6001600160801b031611158015610fc65750610fba610100850160e086016140aa565b6001600160801b031642105b610ffc5760405162461bcd60e51b8152602060048201526007602482015266085c195c9a5bd960ca1b6044820152606401610962565b60008061100a868686611683565b91509150816110445760405162461bcd60e51b8152600401610962906020808252600490820152632173696760e01b604082015260600190565b600161104e61257a565b610100880135600090815260079190910160209081526040808320805460ff191694151594909417909355909161108a919089019089016140d6565b60ff1611156110b75760006110a560408801602089016140d6565b60ff166001149050610e8c8482612a50565b6110c083610c66565b156110f55760405162461bcd60e51b815260206004820152600560248201526430b236b4b760d91b6044820152606401610962565b61110a8361110161257a565b60020190612b97565b5060405180606001604052808760600135815260200187608001602081019061113391906140aa565b6001600160801b0316815260200161115160c0890160a08a016140aa565b6001600160801b0316905261116461257a565b6001600160a01b03851660009081526005919091016020908152604080832084518155918401519301516001600160801b03908116600160801b029316929092176001909201919091556111da6111b961257a565b6001600160a01b038616600090815260069190910160205260409020612bac565b805190915060005b81811015611244576112318382815181106111ff576111ff61400d565b602002602001015161120f61257a565b6001600160a01b03891660009081526006919091016020526040902090612bb9565b5061123d6001826140f1565b90506111e2565b506112526040890189614104565b9050905060005b818110156112d3576112c061127160408b018b614104565b838181106112815761128161400d565b90506020020160208101906112969190613847565b61129e61257a565b6001600160a01b03891660009081526006919091016020526040902090612b97565b506112cc6001826140f1565b9050611259565b506112dd88612bce565b846001600160a01b0316836001600160a01b03167ff21d10c26e35863a8df291aca54181ee8c4a3bc8e00246c3f7a5a14b69d826a78a60405161132091906141d3565b60405180910390a35050505050505050565b60008061133d61257a565b6001600160a01b038416600090815260059190910160209081526040918290208251606081018452815481526001909101546001600160801b03808216938301849052600160801b909104169281019290925290915042108015906113ae575080604001516001600160801b031642105b8015610d1d575060006113e36113c261257a565b6001600160a01b0386166000908152600691909101602052604090206125c0565b119392505050565b606060006114026113fa61257a565b600201612bac565b80519091506000805b82811015611493576114358482815181106114285761142861400d565b6020026020010151611332565b1561144c578161144481614039565b925050611481565b60008482815181106114605761146061400d565b60200260200101906001600160a01b031690816001600160a01b0316815250505b61148c6001826140f1565b905061140b565b50806001600160401b038111156114ac576114ac613622565b6040519080825280602002602001820160405280156114e557816020015b6114d26135ae565b8152602001906001900390816114ca5790505b5093506000805b8381101561162a5760006001600160a01b03168582815181106115115761151161400d565b60200260200101516001600160a01b03161461161857600085828151811061153b5761153b61400d565b60200260200101519050600061154f61257a565b6001600160a01b038316600081815260059290920160209081526040928390208351606081018552815481526001909101546001600160801b0380821683850152600160801b9091041681850152835160a0810190945291835290925081016115b96111b961257a565b81526020018260000151815260200182602001516001600160801b0316815260200182604001516001600160801b03168152508885806115f890614039565b96508151811061160a5761160a61400d565b602002602001018190525050505b6116236001826140f1565b90506114ec565b505050505090565b61163a612c7c565b6116775760405162461bcd60e51b815260206004820152600e60248201526d139bdd08185d5d1a1bdc9a5e995960921b6044820152606401610962565b61168081612c94565b50565b60008061169961169286612db3565b8585612ef7565b90506116a361257a565b6101008601356000908152600791909101602052604090205460ff161580156116d057506116d081610c66565b9150935093915050565b6060816001600160401b038111156116f4576116f4613622565b60405190808252806020026020018201604052801561172757816020015b60608152602001906001900390816117125790505b509050336000805b848110156118405781156117ae5761178c308787848181106117535761175361400d565b90506020028101906117659190613fc7565b86604051602001611778939291906142cc565b604051602081830303815290604052612f49565b84828151811061179e5761179e61400d565b602002602001018190525061182e565b611810308787848181106117c4576117c461400d565b90506020028101906117d69190613fc7565b8080601f016020809104026020016040519081016040528093929190818152602001838380828437600092019190915250612f4992505050565b8482815181106118225761182261400d565b60200260200101819052505b8061183881614039565b91505061172f565b50505092915050565b7f036f52c1827dab135f7fd44ca0bddde297e2f659c710e0ec53e975f22b548300546000906001600160a01b0316801561188257919050565b7f000000000000000000000000000000000000000000000000000000000000000091505090565b6118b1611849565b6001600160a01b0316336001600160a01b031614806118d457506118d433610c66565b6118f05760405162461bcd60e51b815260040161096290614052565b6118f86128bf565b610ef5848484848080601f0160208091040260200160405190810160405280939291908181526020018383808284376000920191909152506129a192505050565b611941612a12565b7f036f52c1827dab135f7fd44ca0bddde297e2f659c710e0ec53e975f22b54830080546001600160a01b0319166001600160a01b0392909216919091179055565b61198a611849565b6001600160a01b0316336001600160a01b031614806119ad57506119ad33610c66565b6119c95760405162461bcd60e51b815260040161096290614052565b600280546001600160a01b0319166001600160a01b0392909216919091179055565b60006119f5611849565b604051631aab3f0d60e11b8152306004820152600060248201526001600160a01b0391909116906335567e1a90604401602060405180830381865afa158015611a42573d6000803e3d6000fd5b505050506040513d601f19601f82011682018060405250810190611a6691906142f2565b905090565b6000805160206148148339815191525460ff808216916101009004168015808015611a99575060018360ff16105b80611ab15750303b158015611ab157508260ff166001145b611b145760405162461bcd60e51b815260206004820152602e60248201527f496e697469616c697a61626c653a20636f6e747261637420697320616c72656160448201526d191e481a5b9a5d1a585b1a5e995960921b6064820152608401610962565b600080516020614814833981519152805460ff191660011790558015611b5157600080516020614814833981519152805461ff0019166101001790555b611b918686868080601f016020809104026020016040519081016040528093929190818152602001838380828437600092019190915250612f6e92505050565b6000805160206147f483398151915255611bac866001612a50565b8015610f6d57600080516020614814833981519152805461ff0019169055604080516001815290517f7f26b83ff96e1f2b6a682f133852f6798a09c465da95921460cefb38474024989181900360200190a1505050505050565b60606000611c156113fa61257a565b8051909150806001600160401b03811115611c3257611c32613622565b604051908082528060200260200182016040528015611c6b57816020015b611c586135ae565b815260200190600190039081611c505790505b50925060005b81811015611d71576000838281518110611c8d57611c8d61400d565b602002602001015190506000611ca161257a565b6001600160a01b038316600081815260059290920160209081526040928390208351606081018552815481526001909101546001600160801b0380821683850152600160801b9091041681850152835160a081019094529183529092508101611d0b6111b961257a565b81526020018260000151815260200182602001516001600160801b0316815260200182604001516001600160801b0316815250868481518110611d5057611d5061400d565b60200260200101819052505050600181611d6a91906140f1565b9050611c71565b50505090565b6000546001600160a01b0316331480611d945750611d9433610c66565b611de05760405162461bcd60e51b815260206004820152601d60248201527f4163636f756e743a206e6f742061646d696e206f722055706b6565702e0000006044820152606401610962565b600254600160a01b900460ff16611e395760405162461bcd60e51b815260206004820152601760248201527f4163636f756e743a20737570706c79207061757365642e0000000000000000006044820152606401610962565b611e416128bf565b6040516370a0823160e01b81523060048201526000906001600160a01b038416906370a0823190602401602060405180830381865afa158015611e88573d6000803e3d6000fd5b505050506040513d601f19601f82011682018060405250810190611eac91906142f2565b90506000611ec1662386f26fc100008361430b565b90506000611ecf828461432d565b604051632fe4a15f60e21b81523060048201529091506000906001600160a01b0386169063bf92857c9060240160c060405180830381865afa158015611f19573d6000803e3d6000fd5b505050506040513d601f19601f82011682018060405250810190611f3d9190614340565b50505050915050600083111561209757600081118015611f5d5750808311155b15611fbd57604080516001600160a01b03881660248201526044810185905260026064820152306084808301919091528251808303909101815260a490910190915260200180516001600160e01b031663573ade8160e01b179052612097565b60405163095ea7b360e01b81526001600160a01b0386811660048301526024820185905287169063095ea7b3906044016020604051808303816000875af115801561200c573d6000803e3d6000fd5b505050506040513d601f19601f82011682018060405250810190612030919061438a565b50604080516001600160a01b038816602482015260448101859052306064820152600060848083018290528351808403909101815260a49092019092526020810180516001600160e01b031663617ba03760e01b17905290612094908790836129a1565b50505b60408051600280825260608201835260009260208301908036833701905050905086816000815181106120cc576120cc61400d565b6001600160a01b03928316602091820292909201015260018054835192169183919081106120fc576120fc61400d565b6001600160a01b03909216602092830291909101909101526000638803dbee8480843061212b4261012c6140f1565b60405160240161213f9594939291906143a7565b60408051601f198184030181529190526020810180516001600160e01b031660e09390931b92909217909152600254909150612186906001600160a01b03166000836129a1565b505050505050505050565b612199611849565b6001600160a01b0316336001600160a01b031614806121bc57506121bc33610c66565b6121d85760405162461bcd60e51b815260040161096290614052565b600180546001600160a01b0319166001600160a01b0392909216919091179055565b60607f4bc804ba64359c0e35e5ed5d90ee596ecaa49a3a930ddcb1470ea0dd625da9008054612228906143e3565b80601f0160208091040260200160405190810160405280929190818152602001828054612254906143e3565b80156122a15780601f10612276576101008083540402835291602001916122a1565b820191906000526020600020905b81548152906001019060200180831161228457829003601f168201915b5050505050905090565b6060611a666122b861257a565b612bac565b6122c5611849565b6001600160a01b0316336001600160a01b031614806122e857506122e833610c66565b6123045760405162461bcd60e51b815260040161096290614052565b60028054911515600160a01b0260ff60a01b19909216919091179055565b61232a6135ae565b600061233461257a565b6001600160a01b038416600081815260059290920160209081526040928390208351606081018552815481526001909101546001600160801b0380821683850152600160801b9091041681850152835160a0810190945291835290925081016123bf61239e61257a565b6001600160a01b038716600090815260069190910160205260409020612bac565b81526020018260000151815260200182602001516001600160801b0316815260200182604001516001600160801b0316815250915050919050565b60006001600160e01b03198216630271189760e51b148061079357506301ffc9a760e01b6001600160e01b0319831614610793565b6000306001600160a01b037f00000000000000000000000000000000000000000000000000000000000000001614801561248857507f000000000000000000000000000000000000000000000000000000000000000046145b156124b257507f000000000000000000000000000000000000000000000000000000000000000090565b50604080517f00000000000000000000000000000000000000000000000000000000000000006020808301919091527f0000000000000000000000000000000000000000000000000000000000000000828401527f000000000000000000000000000000000000000000000000000000000000000060608301524660808301523060a0808401919091528351808403909101815260c0909201909252805191012090565b60008060006125658585612fa1565b9150915061257281612fe6565b509392505050565b7f3181e78fc1b109bc611fd2406150bf06e33faa75f71cba12c3e1fd670f2def0090565b6001600160a01b03811660009081526001830160205260408120541515610d1d565b6000610793825490565b6000610d1d8383613130565b600060048210156125f95760405162461bcd60e51b815260040161096290614417565b612607600460008486614436565b610d1d91614460565b60008060448310156126345760405162461bcd60e51b815260040161096290614417565b612642602460048587614436565b81019061264f9190613847565b915061265f604460248587614436565b81019061266c9190614490565b90509250929050565b60608080606484101561269a5760405162461bcd60e51b815260040161096290614417565b6126a78460048188614436565b8101906126b49190614528565b919790965090945092505050565b6126ca611849565b6001600160a01b0316336001600160a01b03161461272a5760405162461bcd60e51b815260206004820152601c60248201527f6163636f756e743a206e6f742066726f6d20456e747279506f696e74000000006044820152606401610962565b565b7f19457468657265756d205369676e6564204d6573736167653a0a3332000000006000908152601c829052603c812060006127ab61276e610140870187613fc7565b8080601f01602080910402602001604051908101604052809392919081815260200183838082843760009201919091525086939250506125569050565b90506127b7818661098e565b6127c657600192505050610793565b60006127d061257a565b6001600160a01b03929092166000908152600590920160209081526040808420815160608082018452825482526001909201546001600160801b0380821683870152600160801b8204908116928501929092528351928301845295825265ffffffffffff8087169483019490945292831691015260d09290921b6001600160d01b03191660a09290921b65ffffffffffff60a01b169190911795945050505050565b801561168057604051600090339060001990849084818181858888f193505050503d8060008114610ef5576040519150601f19603f3d011682016040523d82523d6000602084013e610ef5565b60405163c3c5a54760e01b81523060048201527f0000000000000000000000000000000000000000000000000000000000000000906001600160a01b0382169063c3c5a54790602401602060405180830381865afa158015612925573d6000803e3d6000fd5b505050506040513d601f19601f82011682018060405250810190612949919061438a565b611680576000805160206147f4833981519152546040516320e80fe360e21b815260048101919091526001600160a01b038216906383a03f8c906024015b600060405180830381600087803b158015610ee157600080fd5b60606000846001600160a01b031684846040516129be919061460d565b60006040518083038185875af1925050503d80600081146129fb576040519150601f19603f3d011682016040523d82523d6000602084013e612a00565b606091505b50925090508061257257815160208301fd5b612a1b33610c66565b61272a5760405162461bcd60e51b815260206004820152600660248201526510b0b236b4b760d11b6044820152606401610962565b612a5a828261315a565b6001600160a01b037f0000000000000000000000000000000000000000000000000000000000000000163b15612b93578015612b2b576001600160a01b037f000000000000000000000000000000000000000000000000000000000000000016630b61e12b837f036f52c1827dab135f7fd44ca0bddde297e2f659c710e0ec53e975f22b548300600101546040516001600160e01b031960e085901b1681526001600160a01b0390921660048301526024820152604401600060405180830381600087803b158015610f5957600080fd5b6000805160206147f4833981519152546040516301270f4760e71b81526001600160a01b03848116600483015260248201929092527f000000000000000000000000000000000000000000000000000000000000000090911690639387a38090604401610f3f565b5050565b6000610d1d836001600160a01b038416613209565b60606000610d1d83613258565b6000610d1d836001600160a01b0384166132b4565b6001600160a01b037f0000000000000000000000000000000000000000000000000000000000000000163b15611680576001600160a01b037f000000000000000000000000000000000000000000000000000000000000000016630b61e12b612c3a6020840184613847565b6000805160206147f48339815191525460405160e084901b6001600160e01b03191681526001600160a01b039290921660048301526024820152604401612987565b6000612c8733610c66565b80611a6657505030331490565b60007f4bc804ba64359c0e35e5ed5d90ee596ecaa49a3a930ddcb1470ea0dd625da9008054612cc2906143e3565b80601f0160208091040260200160405190810160405280929190818152602001828054612cee906143e3565b8015612d3b5780601f10612d1057610100808354040283529160200191612d3b565b820191906000526020600020905b815481529060010190602001808311612d1e57829003601f168201915b5050505050905081612d6a7f4bc804ba64359c0e35e5ed5d90ee596ecaa49a3a930ddcb1470ea0dd625da90090565b90612d759082614674565b507fc9c7c3fe08b88b4df9d4d47ef47d2c43d55c025a0ba88ca442580ed9e7348a168183604051612da7929190614733565b60405180910390a15050565b60607f3fd4a1a1a267c84185e3b7eecd57c68783c0581d538b9d6e5f23e4670497c1e9612de36020840184613847565b612df360408501602086016140d6565b612e006040860186614104565b604051602001612e11929190614761565b60408051601f1981840301815291905280516020909101206060860135612e3e60a08801608089016140aa565b612e4e60c0890160a08a016140aa565b612e5e60e08a0160c08b016140aa565b612e6f6101008b0160e08c016140aa565b60408051602081019a909a526001600160a01b039098169789019790975260ff9095166060880152608087019390935260a08601919091526001600160801b0390811660c086015290811660e0850152908116610100848101919091529116610120830152830135610140820152610160016040516020818303038152906040529050919050565b600061084683838080601f0160208091040260200160405190810160405280939291908181526020018383808284376000920191909152505087516020890120612f43925090506133a7565b90612556565b6060610d1d8383604051806060016040528060278152602001614834602791396133d4565b60008282604051602001612f839291906147a3565b60405160208183030381529060405280519060200120905092915050565b6000808251604103612fd75760208301516040840151606085015160001a612fcb8782858561344c565b94509450505050612fdf565b506000905060025b9250929050565b6000816004811115612ffa57612ffa6147c7565b036130025750565b6001816004811115613016576130166147c7565b036130635760405162461bcd60e51b815260206004820152601860248201527f45434453413a20696e76616c6964207369676e617475726500000000000000006044820152606401610962565b6002816004811115613077576130776147c7565b036130c45760405162461bcd60e51b815260206004820152601f60248201527f45434453413a20696e76616c6964207369676e6174757265206c656e677468006044820152606401610962565b60038160048111156130d8576130d86147c7565b036116805760405162461bcd60e51b815260206004820152602260248201527f45434453413a20696e76616c6964207369676e6174757265202773272076616c604482015261756560f01b6064820152608401610962565b60008260000182815481106131475761314761400d565b9060005260206000200154905092915050565b8061316361257a565b6001600160a01b038416600090815260049190910160205260409020805460ff191691151591909117905580156131ac576131a6826131a061257a565b90612b97565b506131c0565b6131be826131b861257a565b90612bb9565b505b816001600160a01b03167f235bc17e7930760029e9f4d860a2a8089976de5b381cf8380fc11c1d88a11133826040516131fd911515815260200190565b60405180910390a25050565b600081815260018301602052604081205461325057508154600181810184556000848152602080822090930184905584548482528286019093526040902091909155610793565b506000610793565b6060816000018054806020026020016040519081016040528092919081815260200182805480156132a857602002820191906000526020600020905b815481526020019060010190808311613294575b50505050509050919050565b6000818152600183016020526040812054801561339d5760006132d860018361432d565b85549091506000906132ec9060019061432d565b905081811461335157600086600001828154811061330c5761330c61400d565b906000526020600020015490508087600001848154811061332f5761332f61400d565b6000918252602080832090910192909255918252600188019052604090208390555b8554869080613362576133626147dd565b600190038181906000526020600020016000905590558560010160008681526020019081526020016000206000905560019350505050610793565b6000915050610793565b60006107936133b461242f565b8360405161190160f01b8152600281019290925260228201526042902090565b6060600080856001600160a01b0316856040516133f1919061460d565b600060405180830381855af49150503d806000811461342c576040519150601f19603f3d011682016040523d82523d6000602084013e613431565b606091505b509150915061344286838387613510565b9695505050505050565b6000807f7fffffffffffffffffffffffffffffff5d576e7357a4501ddfe92f46681b20a08311156134835750600090506003613507565b6040805160008082526020820180845289905260ff881692820192909252606081018690526080810185905260019060a0016020604051602081039080840390855afa1580156134d7573d6000803e3d6000fd5b5050604051601f1901519150506001600160a01b03811661350057600060019250925050613507565b9150600090505b94509492505050565b6060831561357f578251600003613578576001600160a01b0385163b6135785760405162461bcd60e51b815260206004820152601d60248201527f416464726573733a2063616c6c20746f206e6f6e2d636f6e74726163740000006044820152606401610962565b5081610846565b61084683838151156135945781518083602001fd5b8060405162461bcd60e51b81526004016109629190613eb7565b6040518060a0016040528060006001600160a01b03168152602001606081526020016000815260200160006001600160801b0316815260200160006001600160801b031681525090565b60006020828403121561360a57600080fd5b81356001600160e01b031981168114610d1d57600080fd5b634e487b7160e01b600052604160045260246000fd5b604051601f8201601f191681016001600160401b038111828210171561366057613660613622565b604052919050565b60006001600160401b0383111561368157613681613622565b613694601f8401601f1916602001613638565b90508281528383830111156136a857600080fd5b828260208301376000602084830101529392505050565b600082601f8301126136d057600080fd5b610d1d83833560208501613668565b6000602082840312156136f157600080fd5b81356001600160401b0381111561370757600080fd5b610846848285016136bf565b6001600160a01b038116811461168057600080fd5b803561373381613713565b919050565b6000806000806080858703121561374e57600080fd5b843561375981613713565b9350602085013561376981613713565b92506040850135915060608501356001600160401b0381111561378b57600080fd5b613797878288016136bf565b91505092959194509250565b600080604083850312156137b657600080fd5b8235915060208301356001600160401b038111156137d357600080fd5b6137df858286016136bf565b9150509250929050565b600061016082840312156137fc57600080fd5b50919050565b6000806040838503121561381557600080fd5b823561382081613713565b915060208301356001600160401b0381111561383b57600080fd5b6137df858286016137e9565b60006020828403121561385957600080fd5b8135610d1d81613713565b60008060006060848603121561387957600080fd5b83356001600160401b0381111561388f57600080fd5b61389b868287016137e9565b9660208601359650604090950135949350505050565b60008083601f8401126138c357600080fd5b5081356001600160401b038111156138da57600080fd5b6020830191508360208260051b8501011115612fdf57600080fd5b6000806000806000806060878903121561390e57600080fd5b86356001600160401b038082111561392557600080fd5b6139318a838b016138b1565b9098509650602089013591508082111561394a57600080fd5b6139568a838b016138b1565b9096509450604089013591508082111561396f57600080fd5b5061397c89828a016138b1565b979a9699509497509295939492505050565b600080604083850312156139a157600080fd5b82356139ac81613713565b946020939093013593505050565b60008083601f8401126139cc57600080fd5b5081356001600160401b038111156139e357600080fd5b602083019150836020828501011115612fdf57600080fd5b600080600060408486031215613a1057600080fd5b83356001600160401b0380821115613a2757600080fd5b908501906101208288031215613a3c57600080fd5b90935060208501359080821115613a5257600080fd5b50613a5f868287016139ba565b9497909650939450505050565b80516001600160a01b03908116835260208083015160a082860181905281519086018190526000939183019290849060c08801905b80831015613ac357855185168252948301946001929092019190830190613aa1565b506040870151604089015260608701519450613aea60608901866001600160801b03169052565b60808701519450613b0660808901866001600160801b03169052565b979650505050505050565b6000602080830181845280855180835260408601915060408160051b870101925083870160005b82811015613b6657603f19888603018452613b54858351613a6c565b94509285019290850190600101613b38565b5092979650505050505050565b600060208284031215613b8557600080fd5b81356001600160401b03811115613b9b57600080fd5b8201601f81018413613bac57600080fd5b61084684823560208401613668565b60008060208385031215613bce57600080fd5b82356001600160401b03811115613be457600080fd5b613bf0858286016138b1565b90969095509350505050565b60005b83811015613c17578181015183820152602001613bff565b50506000910152565b60008151808452613c38816020860160208601613bfc565b601f01601f19169290920160200192915050565b6000602080830181845280855180835260408601915060408160051b870101925083870160005b82811015613b6657603f19888603018452613c8f858351613c20565b94509285019290850190600101613c73565b60008060008060608587031215613cb757600080fd5b8435613cc281613713565b93506020850135925060408501356001600160401b03811115613ce457600080fd5b613cf0878288016139ba565b95989497509550505050565b60006001600160401b03821115613d1557613d15613622565b5060051b60200190565b600082601f830112613d3057600080fd5b81356020613d45613d4083613cfc565b613638565b82815260059290921b84018101918181019086841115613d6457600080fd5b8286015b84811015613d7f5780358352918301918301613d68565b509695505050505050565b600080600080600060a08688031215613da257600080fd5b8535613dad81613713565b94506020860135613dbd81613713565b935060408601356001600160401b0380821115613dd957600080fd5b613de589838a01613d1f565b94506060880135915080821115613dfb57600080fd5b613e0789838a01613d1f565b93506080880135915080821115613e1d57600080fd5b50613e2a888289016136bf565b9150509295509295909350565b600080600060408486031215613e4c57600080fd5b8335613e5781613713565b925060208401356001600160401b03811115613e7257600080fd5b613a5f868287016139ba565b60008060408385031215613e9157600080fd5b8235613e9c81613713565b91506020830135613eac81613713565b809150509250929050565b602081526000610d1d6020830184613c20565b600081518084526020808501945080840160005b83811015613f035781516001600160a01b031687529582019590820190600101613ede565b509495945050505050565b602081526000610d1d6020830184613eca565b801515811461168057600080fd5b600060208284031215613f4157600080fd5b8135610d1d81613f21565b602081526000610d1d6020830184613a6c565b600080600080600060a08688031215613f7757600080fd5b8535613f8281613713565b94506020860135613f9281613713565b9350604086013592506060860135915060808601356001600160401b03811115613fbb57600080fd5b613e2a888289016136bf565b6000808335601e19843603018112613fde57600080fd5b8301803591506001600160401b03821115613ff857600080fd5b602001915036819003821315612fdf57600080fd5b634e487b7160e01b600052603260045260246000fd5b634e487b7160e01b600052601160045260246000fd5b60006001820161404b5761404b614023565b5060010190565b60208082526021908201527f4163636f756e743a206e6f742061646d696e206f7220456e747279506f696e746040820152601760f91b606082015260800190565b80356001600160801b038116811461373357600080fd5b6000602082840312156140bc57600080fd5b610d1d82614093565b803560ff8116811461373357600080fd5b6000602082840312156140e857600080fd5b610d1d826140c5565b8082018082111561079357610793614023565b6000808335601e1984360301811261411b57600080fd5b8301803591506001600160401b0382111561413557600080fd5b6020019150600581901b3603821315612fdf57600080fd5b6000808335601e1984360301811261416457600080fd5b83016020810192503590506001600160401b0381111561418357600080fd5b8060051b3603821315612fdf57600080fd5b8183526000602080850194508260005b85811015613f035781356141b881613713565b6001600160a01b0316875295820195908201906001016141a5565b602081526141f4602082016141e784613728565b6001600160a01b03169052565b6000614202602084016140c5565b60ff8116604084015250614219604084018461414d565b61012080606086015261423161014086018385614195565b92506060860135608086015261424960808701614093565b6001600160801b03811660a0870152915061426660a08701614093565b6001600160801b03811660c0870152915061428360c08701614093565b6001600160801b03811660e087015291506142a060e08701614093565b91506101006142b9818701846001600160801b03169052565b9590950135939094019290925250919050565b8284823760609190911b6bffffffffffffffffffffffff19169101908152601401919050565b60006020828403121561430457600080fd5b5051919050565b60008261432857634e487b7160e01b600052601260045260246000fd5b500690565b8181038181111561079357610793614023565b60008060008060008060c0878903121561435957600080fd5b865195506020870151945060408701519350606087015192506080870151915060a087015190509295509295509295565b60006020828403121561439c57600080fd5b8151610d1d81613f21565b85815284602082015260a0604082015260006143c660a0830186613eca565b6001600160a01b0394909416606083015250608001529392505050565b600181811c908216806143f757607f821691505b6020821081036137fc57634e487b7160e01b600052602260045260246000fd5b602080825260059082015264214461746160d81b604082015260600190565b6000808585111561444657600080fd5b8386111561445357600080fd5b5050820193919092039150565b6001600160e01b031981358181169160048510156144885780818660040360031b1b83161692505b505092915050565b6000602082840312156144a257600080fd5b5035919050565b600082601f8301126144ba57600080fd5b813560206144ca613d4083613cfc565b82815260059290921b840181019181810190868411156144e957600080fd5b8286015b84811015613d7f5780356001600160401b0381111561450c5760008081fd5b61451a8986838b01016136bf565b8452509183019183016144ed565b60008060006060848603121561453d57600080fd5b83356001600160401b038082111561455457600080fd5b818601915086601f83011261456857600080fd5b81356020614578613d4083613cfc565b82815260059290921b8401810191818101908a84111561459757600080fd5b948201945b838610156145be5785356145af81613713565b8252948201949082019061459c565b975050870135925050808211156145d457600080fd5b6145e087838801613d1f565b935060408601359150808211156145f657600080fd5b50614603868287016144a9565b9150509250925092565b6000825161461f818460208701613bfc565b9190910192915050565b601f82111561466f57600081815260208120601f850160051c810160208610156146505750805b601f850160051c820191505b81811015610f6d5782815560010161465c565b505050565b81516001600160401b0381111561468d5761468d613622565b6146a18161469b84546143e3565b84614629565b602080601f8311600181146146d657600084156146be5750858301515b600019600386901b1c1916600185901b178555610f6d565b600085815260208120601f198616915b82811015614705578886015182559484019460019091019084016146e6565b50858210156147235787850151600019600388901b60f8161c191681555b5050505050600190811b01905550565b6040815260006147466040830185613c20565b82810360208401526147588185613c20565b95945050505050565b60008184825b8581101561479857813561477a81613713565b6001600160a01b031683526020928301929190910190600101614767565b509095945050505050565b6001600160a01b038316815260406020820181905260009061084690830184613c20565b634e487b7160e01b600052602160045260246000fd5b634e487b7160e01b600052603160045260246000fdfe036f52c1827dab135f7fd44ca0bddde297e2f659c710e0ec53e975f22b548301322cf19c484104d3b1a9c2982ebae869ede3fa5f6c4703ca41b9a48c76ee0300416464726573733a206c6f772d6c6576656c2064656c65676174652063616c6c206661696c6564a2646970667358221220f003ea2e4995b749b521e33b8ffdcf7619cbc83d1f1d41c1e6a785cf090bbb9264736f6c63430008130033",
    "linkReferences": {}
  },
  "methodIdentifiers": {
    "addDeposit()": "4a58db19",
    "allowedSupply()": "9934cdb1",
    "automationUpkeep()": "29245414",
    "contractURI()": "e8a3d485",
    "defaultToken()": "74c13fda",
    "entryPoint()": "b0d691fe",
    "execute(address,uint256,bytes)": "b61d27f6",
    "executeBatch(address[],uint256[],bytes[])": "47e1da2a",
    "executeSwapAndSupply(address,address)": "ddd5d6c6",
    "factory()": "c45a0155",
    "getAllActiveSigners()": "8b52d723",
    "getAllAdmins()": "e9523c97",
    "getAllSigners()": "d42f2f35",
    "getMessageHash(bytes)": "0a1028c4",
    "getNonce()": "d087d288",
    "getPermissionsForSigner(address)": "f15d424e",
    "initialize(address,bytes)": "d1f57894",
    "isActiveSigner(address)": "7dff5a79",
    "isAdmin(address)": "24d7806c",
    "isValidSignature(bytes32,bytes)": "1626ba7e",
    "isValidSigner(address,(address,uint256,bytes,bytes,uint256,uint256,uint256,uint256,uint256,bytes,bytes))": "1dd756c5",
    "multicall(bytes[])": "ac9650d8",
    "onERC1155BatchReceived(address,address,uint256[],uint256[],bytes)": "bc197c81",
    "onERC1155Received(address,address,uint256,uint256,bytes)": "f23a6e61",
    "onERC721Received(address,address,uint256,bytes)": "150b7a02",
    "setAllowedSupply(bool)": "ec1afaaa",
    "setContractURI(string)": "938e3d7b",
    "setDefaultToken(address)": "e1e32f99",
    "setEntrypointOverride(address)": "b76464d5",
    "setPermissionsForSigner((address,uint8,address[],uint256,uint128,uint128,uint128,uint128,bytes32),bytes)": "5892e236",
    "setUniswapRouter(address)": "bea9849e",
    "setUpkeep(address)": "2df63507",
    "supportsInterface(bytes4)": "01ffc9a7",
    "uniswapRouter()": "735de9f7",
    "validateUserOp((address,uint256,bytes,bytes,uint256,uint256,uint256,uint256,uint256,bytes,bytes),bytes32,uint256)": "3a871cdd",
    "verifySignerPermissionRequest((address,uint8,address[],uint256,uint128,uint128,uint128,uint128,bytes32),bytes)": "a9082d84",
    "withdrawDepositTo(address,uint256)": "4d44560d"
  },
  "id": 63
}