{
  "abi": [
    {
      "inputs": [
        {
          "internalType": "contract IEntryPoint",
          "name": "_entrypoint",
          "type": "address"
        },
        {
          "internalType": "address",
          "name": "_factory",
          "type": "address"
        },
        {
          "internalType": "address",
          "name": "_defaultToken",
          "type": "address"
        },
        {
          "internalType": "address",
          "name": "_uniswapRouter",
          "type": "address"
        }
      ],
      "stateMutability": "nonpayable",
      "type": "constructor"
    },
    {
      "anonymous": false,
      "inputs": [
        {
          "indexed": true,
          "internalType": "address",
          "name": "signer",
          "type": "address"
        },
        {
          "indexed": false,
          "internalType": "bool",
          "name": "isAdmin",
          "type": "bool"
        }
      ],
      "name": "AdminUpdated",
      "type": "event"
    },
    {
      "anonymous": false,
      "inputs": [
        {
          "indexed": false,
          "internalType": "string",
          "name": "prevURI",
          "type": "string"
        },
        {
          "indexed": false,
          "internalType": "string",
          "name": "newURI",
          "type": "string"
        }
      ],
      "name": "ContractURIUpdated",
      "type": "event"
    },
    {
      "anonymous": false,
      "inputs": [
        {
          "indexed": false,
          "internalType": "uint8",
          "name": "version",
          "type": "uint8"
        }
      ],
      "name": "Initialized",
      "type": "event"
    },
    {
      "anonymous": false,
      "inputs": [
        {
          "indexed": true,
          "internalType": "address",
          "name": "authorizingSigner",
          "type": "address"
        },
        {
          "indexed": true,
          "internalType": "address",
          "name": "targetSigner",
          "type": "address"
        },
        {
          "components": [
            {
              "internalType": "address",
              "name": "signer",
              "type": "address"
            },
            {
              "internalType": "uint8",
              "name": "isAdmin",
              "type": "uint8"
            },
            {
              "internalType": "address[]",
              "name": "approvedTargets",
              "type": "address[]"
            },
            {
              "internalType": "uint256",
              "name": "nativeTokenLimitPerTransaction",
              "type": "uint256"
            },
            {
              "internalType": "uint128",
              "name": "permissionStartTimestamp",
              "type": "uint128"
            },
            {
              "internalType": "uint128",
              "name": "permissionEndTimestamp",
              "type": "uint128"
            },
            {
              "internalType": "uint128",
              "name": "reqValidityStartTimestamp",
              "type": "uint128"
            },
            {
              "internalType": "uint128",
              "name": "reqValidityEndTimestamp",
              "type": "uint128"
            },
            {
              "internalType": "bytes32",
              "name": "uid",
              "type": "bytes32"
            }
          ],
          "indexed": false,
          "internalType": "struct IAccountPermissions.SignerPermissionRequest",
          "name": "permissions",
          "type": "tuple"
        }
      ],
      "name": "SignerPermissionsUpdated",
      "type": "event"
    },
    {
      "inputs": [],
      "name": "addDeposit",
      "outputs": [],
      "stateMutability": "payable",
      "type": "function"
    },
    {
      "inputs": [],
      "name": "allowedSupply",
      "outputs": [
        {
          "internalType": "bool",
          "name": "",
          "type": "bool"
        }
      ],
      "stateMutability": "view",
      "type": "function"
    },
    {
      "inputs": [],
      "name": "automationUpkeep",
      "outputs": [
        {
          "internalType": "address",
          "name": "",
          "type": "address"
        }
      ],
      "stateMutability": "view",
      "type": "function"
    },
    {
      "inputs": [],
      "name": "contractURI",
      "outputs": [
        {
          "internalType": "string",
          "name": "",
          "type": "string"
        }
      ],
      "stateMutability": "view",
      "type": "function"
    },
    {
      "inputs": [],
      "name": "defaultToken",
      "outputs": [
        {
          "internalType": "address",
          "name": "",
          "type": "address"
        }
      ],
      "stateMutability": "view",
      "type": "function"
    },
    {
      "inputs": [],
      "name": "entryPoint",
      "outputs": [
        {
          "internalType": "contract IEntryPoint",
          "name": "",
          "type": "address"
        }
      ],
      "stateMutability": "view",
      "type": "function"
    },
    {
      "inputs": [
        {
          "internalType": "address",
          "name": "_target",
          "type": "address"
        },
        {
          "internalType": "uint256",
          "name": "_value",
          "type": "uint256"
        },
        {
          "internalType": "bytes",
          "name": "_calldata",
          "type": "bytes"
        }
      ],
      "name": "execute",
      "outputs": [],
      "stateMutability": "nonpayable",
      "type": "function"
    },
    {
      "inputs": [
        {
          "internalType": "address[]",
          "name": "_target",
          "type": "address[]"
        },
        {
          "internalType": "uint256[]",
          "name": "_value",
          "type": "uint256[]"
        },
        {
          "internalType": "bytes[]",
          "name": "_calldata",
          "type": "bytes[]"
        }
      ],
      "name": "executeBatch",
      "outputs": [],
      "stateMutability": "nonpayable",
      "type": "function"
    },
    {
      "inputs": [
        {
          "internalType": "address",
          "name": "token",
          "type": "address"
        },
        {
          "internalType": "address",
          "name": "aavePool",
          "type": "address"
        }
      ],
      "name": "executeSwapAndSupply",
      "outputs": [],
      "stateMutability": "nonpayable",
      "type": "function"
    },
    {
      "inputs": [],
      "name": "factory",
      "outputs": [
        {
          "internalType": "address",
          "name": "",
          "type": "address"
        }
      ],
      "stateMutability": "view",
      "type": "function"
    },
    {
      "inputs": [],
      "name": "getAllActiveSigners",
      "outputs": [
        {
          "components": [
            {
              "internalType": "address",
              "name": "signer",
              "type": "address"
            },
            {
              "internalType": "address[]",
              "name": "approvedTargets",
              "type": "address[]"
            },
            {
              "internalType": "uint256",
              "name": "nativeTokenLimitPerTransaction",
              "type": "uint256"
            },
            {
              "internalType": "uint128",
              "name": "startTimestamp",
              "type": "uint128"
            },
            {
              "internalType": "uint128",
              "name": "endTimestamp",
              "type": "uint128"
            }
          ],
          "internalType": "struct IAccountPermissions.SignerPermissions[]",
          "name": "signers",
          "type": "tuple[]"
        }
      ],
      "stateMutability": "view",
      "type": "function"
    },
    {
      "inputs": [],
      "name": "getAllAdmins",
      "outputs": [
        {
          "internalType": "address[]",
          "name": "",
          "type": "address[]"
        }
      ],
      "stateMutability": "view",
      "type": "function"
    },
    {
      "inputs": [],
      "name": "getAllSigners",
      "outputs": [
        {
          "components": [
            {
              "internalType": "address",
              "name": "signer",
              "type": "address"
            },
            {
              "internalType": "address[]",
              "name": "approvedTargets",
              "type": "address[]"
            },
            {
              "internalType": "uint256",
              "name": "nativeTokenLimitPerTransaction",
              "type": "uint256"
            },
            {
              "internalType": "uint128",
              "name": "startTimestamp",
              "type": "uint128"
            },
            {
              "internalType": "uint128",
              "name": "endTimestamp",
              "type": "uint128"
            }
          ],
          "internalType": "struct IAccountPermissions.SignerPermissions[]",
          "name": "signers",
          "type": "tuple[]"
        }
      ],
      "stateMutability": "view",
      "type": "function"
    },
    {
      "inputs": [
        {
          "internalType": "bytes",
          "name": "message",
          "type": "bytes"
        }
      ],
      "name": "getMessageHash",
      "outputs": [
        {
          "internalType": "bytes32",
          "name": "",
          "type": "bytes32"
        }
      ],
      "stateMutability": "view",
      "type": "function"
    },
    {
      "inputs": [],
      "name": "getNonce",
      "outputs": [
        {
          "internalType": "uint256",
          "name": "",
          "type": "uint256"
        }
      ],
      "stateMutability": "view",
      "type": "function"
    },
    {
      "inputs": [
        {
          "internalType": "address",
          "name": "signer",
          "type": "address"
        }
      ],
      "name": "getPermissionsForSigner",
      "outputs": [
        {
          "components": [
            {
              "internalType": "address",
              "name": "signer",
              "type": "address"
            },
            {
              "internalType": "address[]",
              "name": "approvedTargets",
              "type": "address[]"
            },
            {
              "internalType": "uint256",
              "name": "nativeTokenLimitPerTransaction",
              "type": "uint256"
            },
            {
              "internalType": "uint128",
              "name": "startTimestamp",
              "type": "uint128"
            },
            {
              "internalType": "uint128",
              "name": "endTimestamp",
              "type": "uint128"
            }
          ],
          "internalType": "struct IAccountPermissions.SignerPermissions",
          "name": "",
          "type": "tuple"
        }
      ],
      "stateMutability": "view",
      "type": "function"
    },
    {
      "inputs": [
        {
          "internalType": "address",
          "name": "_defaultAdmin",
          "type": "address"
        },
        {
          "internalType": "bytes",
          "name": "_data",
          "type": "bytes"
        }
      ],
      "name": "initialize",
      "outputs": [],
      "stateMutability": "nonpayable",
      "type": "function"
    },
    {
      "inputs": [
        {
          "internalType": "address",
          "name": "signer",
          "type": "address"
        }
      ],
      "name": "isActiveSigner",
      "outputs": [
        {
          "internalType": "bool",
          "name": "",
          "type": "bool"
        }
      ],
      "stateMutability": "view",
      "type": "function"
    },
    {
      "inputs": [
        {
          "internalType": "address",
          "name": "_account",
          "type": "address"
        }
      ],
      "name": "isAdmin",
      "outputs": [
        {
          "internalType": "bool",
          "name": "",
          "type": "bool"
        }
      ],
      "stateMutability": "view",
      "type": "function"
    },
    {
      "inputs": [
        {
          "internalType": "bytes32",
          "name": "_message",
          "type": "bytes32"
        },
        {
          "internalType": "bytes",
          "name": "_signature",
          "type": "bytes"
        }
      ],
      "name": "isValidSignature",
      "outputs": [
        {
          "internalType": "bytes4",
          "name": "magicValue",
          "type": "bytes4"
        }
      ],
      "stateMutability": "view",
      "type": "function"
    },
    {
      "inputs": [
        {
          "internalType": "address",
          "name": "_signer",
          "type": "address"
        },
        {
          "components": [
            {
              "internalType": "address",
              "name": "sender",
              "type": "address"
            },
            {
              "internalType": "uint256",
              "name": "nonce",
              "type": "uint256"
            },
            {
              "internalType": "bytes",
              "name": "initCode",
              "type": "bytes"
            },
            {
              "internalType": "bytes",
              "name": "callData",
              "type": "bytes"
            },
            {
              "internalType": "uint256",
              "name": "callGasLimit",
              "type": "uint256"
            },
            {
              "internalType": "uint256",
              "name": "verificationGasLimit",
              "type": "uint256"
            },
            {
              "internalType": "uint256",
              "name": "preVerificationGas",
              "type": "uint256"
            },
            {
              "internalType": "uint256",
              "name": "maxFeePerGas",
              "type": "uint256"
            },
            {
              "internalType": "uint256",
              "name": "maxPriorityFeePerGas",
              "type": "uint256"
            },
            {
              "internalType": "bytes",
              "name": "paymasterAndData",
              "type": "bytes"
            },
            {
              "internalType": "bytes",
              "name": "signature",
              "type": "bytes"
            }
          ],
          "internalType": "struct UserOperation",
          "name": "_userOp",
          "type": "tuple"
        }
      ],
      "name": "isValidSigner",
      "outputs": [
        {
          "internalType": "bool",
          "name": "",
          "type": "bool"
        }
      ],
      "stateMutability": "view",
      "type": "function"
    },
    {
      "inputs": [
        {
          "internalType": "bytes[]",
          "name": "data",
          "type": "bytes[]"
        }
      ],
      "name": "multicall",
      "outputs": [
        {
          "internalType": "bytes[]",
          "name": "results",
          "type": "bytes[]"
        }
      ],
      "stateMutability": "nonpayable",
      "type": "function"
    },
    {
      "inputs": [
        {
          "internalType": "address",
          "name": "",
          "type": "address"
        },
        {
          "internalType": "address",
          "name": "",
          "type": "address"
        },
        {
          "internalType": "uint256[]",
          "name": "",
          "type": "uint256[]"
        },
        {
          "internalType": "uint256[]",
          "name": "",
          "type": "uint256[]"
        },
        {
          "internalType": "bytes",
          "name": "",
          "type": "bytes"
        }
      ],
      "name": "onERC1155BatchReceived",
      "outputs": [
        {
          "internalType": "bytes4",
          "name": "",
          "type": "bytes4"
        }
      ],
      "stateMutability": "nonpayable",
      "type": "function"
    },
    {
      "inputs": [
        {
          "internalType": "address",
          "name": "",
          "type": "address"
        },
        {
          "internalType": "address",
          "name": "",
          "type": "address"
        },
        {
          "internalType": "uint256",
          "name": "",
          "type": "uint256"
        },
        {
          "internalType": "uint256",
          "name": "",
          "type": "uint256"
        },
        {
          "internalType": "bytes",
          "name": "",
          "type": "bytes"
        }
      ],
      "name": "onERC1155Received",
      "outputs": [
        {
          "internalType": "bytes4",
          "name": "",
          "type": "bytes4"
        }
      ],
      "stateMutability": "nonpayable",
      "type": "function"
    },
    {
      "inputs": [
        {
          "internalType": "address",
          "name": "",
          "type": "address"
        },
        {
          "internalType": "address",
          "name": "",
          "type": "address"
        },
        {
          "internalType": "uint256",
          "name": "",
          "type": "uint256"
        },
        {
          "internalType": "bytes",
          "name": "",
          "type": "bytes"
        }
      ],
      "name": "onERC721Received",
      "outputs": [
        {
          "internalType": "bytes4",
          "name": "",
          "type": "bytes4"
        }
      ],
      "stateMutability": "nonpayable",
      "type": "function"
    },
    {
      "inputs": [
        {
          "internalType": "bool",
          "name": "_allowedSupply",
          "type": "bool"
        }
      ],
      "name": "setAllowedSupply",
      "outputs": [],
      "stateMutability": "nonpayable",
      "type": "function"
    },
    {
      "inputs": [
        {
          "internalType": "string",
          "name": "_uri",
          "type": "string"
        }
      ],
      "name": "setContractURI",
      "outputs": [],
      "stateMutability": "nonpayable",
      "type": "function"
    },
    {
      "inputs": [
        {
          "internalType": "address",
          "name": "_defaultToken",
          "type": "address"
        }
      ],
      "name": "setDefaultToken",
      "outputs": [],
      "stateMutability": "nonpayable",
      "type": "function"
    },
    {
      "inputs": [
        {
          "internalType": "contract IEntryPoint",
          "name": "_entrypointOverride",
          "type": "address"
        }
      ],
      "name": "setEntrypointOverride",
      "outputs": [],
      "stateMutability": "nonpayable",
      "type": "function"
    },
    {
      "inputs": [
        {
          "components": [
            {
              "internalType": "address",
              "name": "signer",
              "type": "address"
            },
            {
              "internalType": "uint8",
              "name": "isAdmin",
              "type": "uint8"
            },
            {
              "internalType": "address[]",
              "name": "approvedTargets",
              "type": "address[]"
            },
            {
              "internalType": "uint256",
              "name": "nativeTokenLimitPerTransaction",
              "type": "uint256"
            },
            {
              "internalType": "uint128",
              "name": "permissionStartTimestamp",
              "type": "uint128"
            },
            {
              "internalType": "uint128",
              "name": "permissionEndTimestamp",
              "type": "uint128"
            },
            {
              "internalType": "uint128",
              "name": "reqValidityStartTimestamp",
              "type": "uint128"
            },
            {
              "internalType": "uint128",
              "name": "reqValidityEndTimestamp",
              "type": "uint128"
            },
            {
              "internalType": "bytes32",
              "name": "uid",
              "type": "bytes32"
            }
          ],
          "internalType": "struct IAccountPermissions.SignerPermissionRequest",
          "name": "_req",
          "type": "tuple"
        },
        {
          "internalType": "bytes",
          "name": "_signature",
          "type": "bytes"
        }
      ],
      "name": "setPermissionsForSigner",
      "outputs": [],
      "stateMutability": "nonpayable",
      "type": "function"
    },
    {
      "inputs": [
        {
          "internalType": "address",
          "name": "_uniswapRouter",
          "type": "address"
        }
      ],
      "name": "setUniswapRouter",
      "outputs": [],
      "stateMutability": "nonpayable",
      "type": "function"
    },
    {
      "inputs": [
        {
          "internalType": "address",
          "name": "_upkeep",
          "type": "address"
        }
      ],
      "name": "setUpkeep",
      "outputs": [],
      "stateMutability": "nonpayable",
      "type": "function"
    },
    {
      "inputs": [
        {
          "internalType": "bytes4",
          "name": "interfaceId",
          "type": "bytes4"
        }
      ],
      "name": "supportsInterface",
      "outputs": [
        {
          "internalType": "bool",
          "name": "",
          "type": "bool"
        }
      ],
      "stateMutability": "view",
      "type": "function"
    },
    {
      "inputs": [
        {
          "internalType": "address",
          "name": "_tokenAddress",
          "type": "address"
        },
        {
          "internalType": "address",
          "name": "_to",
          "type": "address"
        },
        {
          "internalType": "uint256",
          "name": "_amount",
          "type": "uint256"
        }
      ],
      "name": "transferToken",
      "outputs": [],
      "stateMutability": "nonpayable",
      "type": "function"
    },
    {
      "inputs": [],
      "name": "uniswapRouter",
      "outputs": [
        {
          "internalType": "address",
          "name": "",
          "type": "address"
        }
      ],
      "stateMutability": "view",
      "type": "function"
    },
    {
      "inputs": [
        {
          "components": [
            {
              "internalType": "address",
              "name": "sender",
              "type": "address"
            },
            {
              "internalType": "uint256",
              "name": "nonce",
              "type": "uint256"
            },
            {
              "internalType": "bytes",
              "name": "initCode",
              "type": "bytes"
            },
            {
              "internalType": "bytes",
              "name": "callData",
              "type": "bytes"
            },
            {
              "internalType": "uint256",
              "name": "callGasLimit",
              "type": "uint256"
            },
            {
              "internalType": "uint256",
              "name": "verificationGasLimit",
              "type": "uint256"
            },
            {
              "internalType": "uint256",
              "name": "preVerificationGas",
              "type": "uint256"
            },
            {
              "internalType": "uint256",
              "name": "maxFeePerGas",
              "type": "uint256"
            },
            {
              "internalType": "uint256",
              "name": "maxPriorityFeePerGas",
              "type": "uint256"
            },
            {
              "internalType": "bytes",
              "name": "paymasterAndData",
              "type": "bytes"
            },
            {
              "internalType": "bytes",
              "name": "signature",
              "type": "bytes"
            }
          ],
          "internalType": "struct UserOperation",
          "name": "userOp",
          "type": "tuple"
        },
        {
          "internalType": "bytes32",
          "name": "userOpHash",
          "type": "bytes32"
        },
        {
          "internalType": "uint256",
          "name": "missingAccountFunds",
          "type": "uint256"
        }
      ],
      "name": "validateUserOp",
      "outputs": [
        {
          "internalType": "uint256",
          "name": "validationData",
          "type": "uint256"
        }
      ],
      "stateMutability": "nonpayable",
      "type": "function"
    },
    {
      "inputs": [
        {
          "components": [
            {
              "internalType": "address",
              "name": "signer",
              "type": "address"
            },
            {
              "internalType": "uint8",
              "name": "isAdmin",
              "type": "uint8"
            },
            {
              "internalType": "address[]",
              "name": "approvedTargets",
              "type": "address[]"
            },
            {
              "internalType": "uint256",
              "name": "nativeTokenLimitPerTransaction",
              "type": "uint256"
            },
            {
              "internalType": "uint128",
              "name": "permissionStartTimestamp",
              "type": "uint128"
            },
            {
              "internalType": "uint128",
              "name": "permissionEndTimestamp",
              "type": "uint128"
            },
            {
              "internalType": "uint128",
              "name": "reqValidityStartTimestamp",
              "type": "uint128"
            },
            {
              "internalType": "uint128",
              "name": "reqValidityEndTimestamp",
              "type": "uint128"
            },
            {
              "internalType": "bytes32",
              "name": "uid",
              "type": "bytes32"
            }
          ],
          "internalType": "struct IAccountPermissions.SignerPermissionRequest",
          "name": "req",
          "type": "tuple"
        },
        {
          "internalType": "bytes",
          "name": "signature",
          "type": "bytes"
        }
      ],
      "name": "verifySignerPermissionRequest",
      "outputs": [
        {
          "internalType": "bool",
          "name": "success",
          "type": "bool"
        },
        {
          "internalType": "address",
          "name": "signer",
          "type": "address"
        }
      ],
      "stateMutability": "view",
      "type": "function"
    },
    {
      "inputs": [
        {
          "internalType": "address payable",
          "name": "withdrawAddress",
          "type": "address"
        },
        {
          "internalType": "uint256",
          "name": "amount",
          "type": "uint256"
        }
      ],
      "name": "withdrawDepositTo",
      "outputs": [],
      "stateMutability": "nonpayable",
      "type": "function"
    },
    {
      "stateMutability": "payable",
      "type": "receive"
    }
  ],
  "bytecode": {
    "object": "0x6101806040523480156200001257600080fd5b5060405162004d5038038062004d50833981016040819052620000359162000294565b60408051808201825260078152661058d8dbdd5b9d60ca1b60208083019182528351808501855260018152603160f81b908201529151902060e08190527fc89efdaa54c0f20c7adf612882df0950f5a951637e0307cdcb4c672f298b8bc66101008190524660a081815285517f8b73c3c69bb8fe3d512ecc4cf759cc79239f7b179b0ffacaa9a75d522b39400f818701819052818801959095526060810193909352608080840192909252308382018190528651808503909201825260c093840190965280519401939093209092529190526101205283836200011762000178565b6001600160a01b039081166101405290811661016052600080546001600160a01b03199081163317909155600180549483169490911693909317909255600280546001600160a81b0319169190921617600160a01b17905550620002fc9050565b7f322cf19c484104d3b1a9c2982ebae869ede3fa5f6c4703ca41b9a48c76ee03005460ff808216916101009004168015620002095760405162461bcd60e51b815260206004820152602760248201527f496e697469616c697a61626c653a20636f6e747261637420697320696e697469604482015266616c697a696e6760c81b606482015260840160405180910390fd5b60ff828116101562000277577f322cf19c484104d3b1a9c2982ebae869ede3fa5f6c4703ca41b9a48c76ee0300805460ff191660ff90811790915560408051918252517f7f26b83ff96e1f2b6a682f133852f6798a09c465da95921460cefb38474024989181900360200190a15b5050565b6001600160a01b03811681146200029157600080fd5b50565b60008060008060808587031215620002ab57600080fd5b8451620002b8816200027b565b6020860151909450620002cb816200027b565b6040860151909350620002de816200027b565b6060860151909250620002f1816200027b565b939692955090935050565b60805160a05160c05160e051610100516101205161014051610160516149c46200038c60003960006118af0152600081816105f5015281816129c701528181612b5701528181612b8d01528181612c5501528181612ccb0152612cfb015260006125ac015260006125fb015260006125d60152600061252f015260006125590152600061258301526149c46000f3fe6080604052600436106102295760003560e01c8063a9082d8411610123578063d1f57894116100ab578063e9523c971161006f578063e9523c97146106c3578063ec1afaaa146106e5578063f15d424e14610705578063f23a6e6114610732578063f5537ede1461075e57600080fd5b8063d1f578941461062c578063d42f2f351461064c578063ddd5d6c614610661578063e1e32f9914610681578063e8a3d485146106a157600080fd5b8063b76464d5116100f2578063b76464d514610577578063bc197c8114610597578063bea9849e146105c3578063c45a0155146105e3578063d087d2881461061757600080fd5b8063a9082d84146104d6578063ac9650d814610515578063b0d691fe14610542578063b61d27f61461055757600080fd5b806347e1da2a116101b157806374c13fda1161017557806374c13fda146104335780637dff5a79146104535780638b52d72314610473578063938e3d7b146104955780639934cdb1146104b557600080fd5b806347e1da2a146103ab5780634a58db19146103cb5780634d44560d146103d35780635892e236146103f3578063735de9f71461041357600080fd5b80631dd756c5116101f85780631dd756c5146102f157806324d7806c1461031157806329245414146103315780632df63507146103695780633a871cdd1461038b57600080fd5b806301ffc9a7146102355780630a1028c41461026a578063150b7a02146102985780631626ba7e146102d157600080fd5b3661023057005b600080fd5b34801561024157600080fd5b506102556102503660046136eb565b61077e565b60405190151581526020015b60405180910390f35b34801561027657600080fd5b5061028a6102853660046137d2565b6107c4565b604051908152602001610261565b3480156102a457600080fd5b506102b86102b336600461382b565b610868565b6040516001600160e01b03199091168152602001610261565b3480156102dd57600080fd5b506102b86102ec366004613896565b610879565b3480156102fd57600080fd5b5061025561030c3660046138f5565b6109b9565b34801561031d57600080fd5b5061025561032c36600461393a565b610c91565b34801561033d57600080fd5b50600054610351906001600160a01b031681565b6040516001600160a01b039091168152602001610261565b34801561037557600080fd5b5061038961038436600461393a565b610cc0565b005b34801561039757600080fd5b5061028a6103a6366004613957565b610d29565b3480156103b757600080fd5b506103896103c63660046139e8565b610d4f565b610389610ec0565b3480156103df57600080fd5b506103896103ee366004613a81565b610f27565b3480156103ff57600080fd5b5061038961040e366004613aee565b610fa0565b34801561041f57600080fd5b50600254610351906001600160a01b031681565b34801561043f57600080fd5b50600154610351906001600160a01b031681565b34801561045f57600080fd5b5061025561046e36600461393a565b61135d565b34801561047f57600080fd5b50610488611416565b6040516102619190613c04565b3480156104a157600080fd5b506103896104b0366004613c66565b61165d565b3480156104c157600080fd5b5060025461025590600160a01b900460ff1681565b3480156104e257600080fd5b506104f66104f1366004613aee565b6116ae565b6040805192151583526001600160a01b03909116602083015201610261565b34801561052157600080fd5b50610535610530366004613cae565b611705565b6040516102619190613d3f565b34801561054e57600080fd5b50610351611874565b34801561056357600080fd5b50610389610572366004613d94565b6118d4565b34801561058357600080fd5b5061038961059236600461393a565b611964565b3480156105a357600080fd5b506102b86105b2366004613e7d565b63bc197c8160e01b95945050505050565b3480156105cf57600080fd5b506103896105de36600461393a565b6119ad565b3480156105ef57600080fd5b506103517f000000000000000000000000000000000000000000000000000000000000000081565b34801561062357600080fd5b5061028a611a16565b34801561063857600080fd5b50610389610647366004613f2a565b611a96565b34801561065857600080fd5b50610488611c31565b34801561066d57600080fd5b5061038961067c366004613f71565b611da2565b34801561068d57600080fd5b5061038961069c36600461393a565b6121bc565b3480156106ad57600080fd5b506106b6612225565b6040516102619190613faa565b3480156106cf57600080fd5b506106d86122d6565b6040516102619190614001565b3480156106f157600080fd5b50610389610700366004614022565b6122e8565b34801561071157600080fd5b5061072561072036600461393a565b61234d565b604051610261919061403f565b34801561073e57600080fd5b506102b861074d366004614052565b63f23a6e6160e01b95945050505050565b34801561076a57600080fd5b506103896107793660046140ba565b612425565b60006001600160e01b03198216630271189760e51b14806107af57506001600160e01b03198216630a85bd0160e11b145b806107be57506107be826124ed565b92915050565b6000807f82cac545155fcbf147f2a9013809613677ac7d65498556e6d19ce43bcbf6c284838051906020012060405160200161080a929190918252602082015260400190565b60405160208183030381529060405280519060200120905061082a612522565b60405161190160f01b602082015260228101919091526042810182905260620160405160208183030381529060405280519060200120915050919050565b630a85bd0160e11b5b949350505050565b6000806108a68460405160200161089291815260200190565b6040516020818303038152906040526107c4565b905060006108b48285612649565b90506108bf81610c91565b156108d65750630b135d3f60e11b91506107be9050565b3360006108e161266d565b6001600160a01b03841660009081526006919091016020526040902090506109098183612691565b806109395750610918816126b3565b60011480156109395750600061092e82826126bd565b6001600160a01b0316145b6109965760405162461bcd60e51b8152602060048201526024808201527f4163636f756e743a2063616c6c6572206e6f7420617070726f7665642074617260448201526333b2ba1760e11b60648201526084015b60405180910390fd5b61099f8361135d565b156109af57630b135d3f60e11b94505b5050505092915050565b60006109c361266d565b6001600160a01b0384166000908152600491909101602052604090205460ff16156109f0575060016107be565b60006109fa61266d565b6001600160a01b0385166000908152600591909101602090815260408083208151606081018352815481526001909101546001600160801b0380821694830194909452600160801b9004909216908201529150610a5561266d565b6006016000866001600160a01b03166001600160a01b0316815260200190815260200160002090504282602001516001600160801b03161180610aa5575081604001516001600160801b03164210155b80610ab65750610ab4816126b3565b155b15610ac6576000925050506107be565b6000610add610ad860608701876140fb565b6126c9565b90506000610aea836126b3565b6001148015610b0b57506000610b0084826126bd565b6001600160a01b0316145b90506324f16c0560e11b6001600160e01b0319831601610b8257600080610b3d610b3860608a018a6140fb565b612703565b9150915082610b6357610b508583612691565b610b6357600096505050505050506107be565b8551811115610b7b57600096505050505050506107be565b5050610c84565b635c0f12eb60e11b6001600160e01b0319831601610c7757600080610bb2610bad60608a018a6140fb565b612768565b509150915082610c1c5760005b8251811015610c1a57610bf4838281518110610bdd57610bdd614141565b60200260200101518761269190919063ffffffff16565b610c085760009750505050505050506107be565b80610c128161416d565b915050610bbf565b505b60005b8251811015610c6f57818181518110610c3a57610c3a614141565b602002602001015187600001511015610c5d5760009750505050505050506107be565b80610c678161416d565b915050610c1f565b505050610c84565b60009450505050506107be565b5060019695505050505050565b6000610c9b61266d565b6001600160a01b03909216600090815260049290920160205250604090205460ff1690565b610cc8611874565b6001600160a01b0316336001600160a01b03161480610ceb5750610ceb33610c91565b610d075760405162461bcd60e51b815260040161098d90614186565b600080546001600160a01b0319166001600160a01b0392909216919091179055565b6000610d336127b5565b610d3d848461281f565b9050610d4882612965565b9392505050565b610d57611874565b6001600160a01b0316336001600160a01b03161480610d7a5750610d7a33610c91565b610d965760405162461bcd60e51b815260040161098d90614186565b610d9e6129b2565b8481148015610dac57508483145b610df85760405162461bcd60e51b815260206004820152601d60248201527f4163636f756e743a2077726f6e67206172726179206c656e677468732e000000604482015260640161098d565b60005b85811015610eb757610ea4878783818110610e1857610e18614141565b9050602002016020810190610e2d919061393a565b868684818110610e3f57610e3f614141565b90506020020135858585818110610e5857610e58614141565b9050602002810190610e6a91906140fb565b8080601f016020809104026020016040519081016040528093929190818152602001838380828437600092019190915250612a9492505050565b5080610eaf8161416d565b915050610dfb565b50505050505050565b610ec8611874565b60405163b760faf960e01b81523060048201526001600160a01b03919091169063b760faf99034906024016000604051808303818588803b158015610f0c57600080fd5b505af1158015610f20573d6000803e3d6000fd5b5050505050565b610f2f612b05565b610f37611874565b60405163040b850f60e31b81526001600160a01b03848116600483015260248201849052919091169063205c2878906044015b600060405180830381600087803b158015610f8457600080fd5b505af1158015610f98573d6000803e3d6000fd5b505050505050565b6000610faf602085018561393a565b905042610fc260e0860160c087016141de565b6001600160801b031611158015610ff15750610fe5610100850160e086016141de565b6001600160801b031642105b6110275760405162461bcd60e51b8152602060048201526007602482015266085c195c9a5bd960ca1b604482015260640161098d565b6000806110358686866116ae565b915091508161106f5760405162461bcd60e51b815260040161098d906020808252600490820152632173696760e01b604082015260600190565b600161107961266d565b610100880135600090815260079190910160209081526040808320805460ff19169415159490941790935590916110b59190890190890161420a565b60ff1611156110e25760006110d0604088016020890161420a565b60ff166001149050610eb78482612b43565b6110eb83610c91565b156111205760405162461bcd60e51b815260206004820152600560248201526430b236b4b760d91b604482015260640161098d565b6111358361112c61266d565b60020190612c8a565b5060405180606001604052808760600135815260200187608001602081019061115e91906141de565b6001600160801b0316815260200161117c60c0890160a08a016141de565b6001600160801b0316905261118f61266d565b6001600160a01b03851660009081526005919091016020908152604080832084518155918401519301516001600160801b03908116600160801b029316929092176001909201919091556112056111e461266d565b6001600160a01b038616600090815260069190910160205260409020612c9f565b805190915060005b8181101561126f5761125c83828151811061122a5761122a614141565b602002602001015161123a61266d565b6001600160a01b03891660009081526006919091016020526040902090612cac565b50611268600182614225565b905061120d565b5061127d6040890189614238565b9050905060005b818110156112fe576112eb61129c60408b018b614238565b838181106112ac576112ac614141565b90506020020160208101906112c1919061393a565b6112c961266d565b6001600160a01b03891660009081526006919091016020526040902090612c8a565b506112f7600182614225565b9050611284565b5061130888612cc1565b846001600160a01b0316836001600160a01b03167ff21d10c26e35863a8df291aca54181ee8c4a3bc8e00246c3f7a5a14b69d826a78a60405161134b9190614307565b60405180910390a35050505050505050565b60008061136861266d565b6001600160a01b038416600090815260059190910160209081526040918290208251606081018452815481526001909101546001600160801b03808216938301849052600160801b909104169281019290925290915042108015906113d9575080604001516001600160801b031642105b8015610d485750600061140e6113ed61266d565b6001600160a01b0386166000908152600691909101602052604090206126b3565b119392505050565b6060600061142d61142561266d565b600201612c9f565b80519091506000805b828110156114be5761146084828151811061145357611453614141565b602002602001015161135d565b15611477578161146f8161416d565b9250506114ac565b600084828151811061148b5761148b614141565b60200260200101906001600160a01b031690816001600160a01b0316815250505b6114b7600182614225565b9050611436565b50806001600160401b038111156114d7576114d7613715565b60405190808252806020026020018201604052801561151057816020015b6114fd6136a1565b8152602001906001900390816114f55790505b5093506000805b838110156116555760006001600160a01b031685828151811061153c5761153c614141565b60200260200101516001600160a01b03161461164357600085828151811061156657611566614141565b60200260200101519050600061157a61266d565b6001600160a01b038316600081815260059290920160209081526040928390208351606081018552815481526001909101546001600160801b0380821683850152600160801b9091041681850152835160a0810190945291835290925081016115e46111e461266d565b81526020018260000151815260200182602001516001600160801b0316815260200182604001516001600160801b03168152508885806116239061416d565b96508151811061163557611635614141565b602002602001018190525050505b61164e600182614225565b9050611517565b505050505090565b611665612d6f565b6116a25760405162461bcd60e51b815260206004820152600e60248201526d139bdd08185d5d1a1bdc9a5e995960921b604482015260640161098d565b6116ab81612d87565b50565b6000806116c46116bd86612ea6565b8585612fea565b90506116ce61266d565b6101008601356000908152600791909101602052604090205460ff161580156116fb57506116fb81610c91565b9150935093915050565b6060816001600160401b0381111561171f5761171f613715565b60405190808252806020026020018201604052801561175257816020015b606081526020019060019003908161173d5790505b509050336000805b8481101561186b5781156117d9576117b73087878481811061177e5761177e614141565b905060200281019061179091906140fb565b866040516020016117a393929190614400565b60405160208183030381529060405261303c565b8482815181106117c9576117c9614141565b6020026020010181905250611859565b61183b308787848181106117ef576117ef614141565b905060200281019061180191906140fb565b8080601f01602080910402602001604051908101604052809392919081815260200183838082843760009201919091525061303c92505050565b84828151811061184d5761184d614141565b60200260200101819052505b806118638161416d565b91505061175a565b50505092915050565b7f036f52c1827dab135f7fd44ca0bddde297e2f659c710e0ec53e975f22b548300546000906001600160a01b031680156118ad57919050565b7f000000000000000000000000000000000000000000000000000000000000000091505090565b6118dc611874565b6001600160a01b0316336001600160a01b031614806118ff57506118ff33610c91565b61191b5760405162461bcd60e51b815260040161098d90614186565b6119236129b2565b610f20848484848080601f016020809104026020016040519081016040528093929190818152602001838380828437600092019190915250612a9492505050565b61196c612b05565b7f036f52c1827dab135f7fd44ca0bddde297e2f659c710e0ec53e975f22b54830080546001600160a01b0319166001600160a01b0392909216919091179055565b6119b5611874565b6001600160a01b0316336001600160a01b031614806119d857506119d833610c91565b6119f45760405162461bcd60e51b815260040161098d90614186565b600280546001600160a01b0319166001600160a01b0392909216919091179055565b6000611a20611874565b604051631aab3f0d60e11b8152306004820152600060248201526001600160a01b0391909116906335567e1a90604401602060405180830381865afa158015611a6d573d6000803e3d6000fd5b505050506040513d601f19601f82011682018060405250810190611a919190614426565b905090565b6000805160206149488339815191525460ff808216916101009004168015808015611ac4575060018360ff16105b80611adc5750303b158015611adc57508260ff166001145b611b3f5760405162461bcd60e51b815260206004820152602e60248201527f496e697469616c697a61626c653a20636f6e747261637420697320616c72656160448201526d191e481a5b9a5d1a585b1a5e995960921b606482015260840161098d565b600080516020614948833981519152805460ff191660011790558015611b7c57600080516020614948833981519152805461ff0019166101001790555b611bbc8686868080601f01602080910402602001604051908101604052809392919081815260200183838082843760009201919091525061306192505050565b60008051602061492883398151915255611bd7866001612b43565b8015610f9857600080516020614948833981519152805461ff0019169055604080516001815290517f7f26b83ff96e1f2b6a682f133852f6798a09c465da95921460cefb38474024989181900360200190a1505050505050565b60606000611c4061142561266d565b8051909150806001600160401b03811115611c5d57611c5d613715565b604051908082528060200260200182016040528015611c9657816020015b611c836136a1565b815260200190600190039081611c7b5790505b50925060005b81811015611d9c576000838281518110611cb857611cb8614141565b602002602001015190506000611ccc61266d565b6001600160a01b038316600081815260059290920160209081526040928390208351606081018552815481526001909101546001600160801b0380821683850152600160801b9091041681850152835160a081019094529183529092508101611d366111e461266d565b81526020018260000151815260200182602001516001600160801b0316815260200182604001516001600160801b0316815250868481518110611d7b57611d7b614141565b60200260200101819052505050600181611d959190614225565b9050611c9c565b50505090565b6000546001600160a01b0316331480611dbf5750611dbf33610c91565b611e0b5760405162461bcd60e51b815260206004820152601d60248201527f4163636f756e743a206e6f742061646d696e206f722055706b6565702e000000604482015260640161098d565b600254600160a01b900460ff16611e645760405162461bcd60e51b815260206004820152601760248201527f4163636f756e743a20737570706c79207061757365642e000000000000000000604482015260640161098d565b611e6c6129b2565b6040516370a0823160e01b81523060048201526000906001600160a01b038416906370a0823190602401602060405180830381865afa158015611eb3573d6000803e3d6000fd5b505050506040513d601f19601f82011682018060405250810190611ed79190614426565b90506000611eec662386f26fc100008361443f565b90506000611efa8284614461565b604051632fe4a15f60e21b81523060048201529091506000906001600160a01b0386169063bf92857c9060240160c060405180830381865afa158015611f44573d6000803e3d6000fd5b505050506040513d601f19601f82011682018060405250810190611f689190614474565b5050505091505060008311156120c257600081118015611f885750808311155b15611fe857604080516001600160a01b03881660248201526044810185905260026064820152306084808301919091528251808303909101815260a490910190915260200180516001600160e01b031663573ade8160e01b1790526120c2565b60405163095ea7b360e01b81526001600160a01b0386811660048301526024820185905287169063095ea7b3906044016020604051808303816000875af1158015612037573d6000803e3d6000fd5b505050506040513d601f19601f8201168201806040525081019061205b91906144be565b50604080516001600160a01b038816602482015260448101859052306064820152600060848083018290528351808403909101815260a49092019092526020810180516001600160e01b031663617ba03760e01b179052906120bf90879083612a94565b50505b60408051600280825260608201835260009260208301908036833701905050905086816000815181106120f7576120f7614141565b6001600160a01b039283166020918202929092010152600180548351921691839190811061212757612127614141565b6001600160a01b03909216602092830291909101909101526000638803dbee848084306121564261012c614225565b60405160240161216a9594939291906144db565b60408051601f198184030181529190526020810180516001600160e01b031660e09390931b929092179091526002549091506121b1906001600160a01b0316600083612a94565b505050505050505050565b6121c4611874565b6001600160a01b0316336001600160a01b031614806121e757506121e733610c91565b6122035760405162461bcd60e51b815260040161098d90614186565b600180546001600160a01b0319166001600160a01b0392909216919091179055565b60607f4bc804ba64359c0e35e5ed5d90ee596ecaa49a3a930ddcb1470ea0dd625da900805461225390614517565b80601f016020809104026020016040519081016040528092919081815260200182805461227f90614517565b80156122cc5780601f106122a1576101008083540402835291602001916122cc565b820191906000526020600020905b8154815290600101906020018083116122af57829003601f168201915b5050505050905090565b6060611a916122e361266d565b612c9f565b6122f0611874565b6001600160a01b0316336001600160a01b03161480612313575061231333610c91565b61232f5760405162461bcd60e51b815260040161098d90614186565b60028054911515600160a01b0260ff60a01b19909216919091179055565b6123556136a1565b600061235f61266d565b6001600160a01b038416600081815260059290920160209081526040928390208351606081018552815481526001909101546001600160801b0380821683850152600160801b9091041681850152835160a0810190945291835290925081016123ea6123c961266d565b6001600160a01b038716600090815260069190910160205260409020612c9f565b81526020018260000151815260200182602001516001600160801b0316815260200182604001516001600160801b0316815250915050919050565b61242d611874565b6001600160a01b0316336001600160a01b03161480612450575061245033610c91565b61246c5760405162461bcd60e51b815260040161098d90614186565b6124746129b2565b60405163a9059cbb60e01b81526001600160a01b0383811660048301526024820183905284169063a9059cbb906044016020604051808303816000875af11580156124c3573d6000803e3d6000fd5b505050506040513d601f19601f820116820180604052508101906124e791906144be565b50505050565b60006001600160e01b03198216630271189760e51b14806107be57506301ffc9a760e01b6001600160e01b03198316146107be565b6000306001600160a01b037f00000000000000000000000000000000000000000000000000000000000000001614801561257b57507f000000000000000000000000000000000000000000000000000000000000000046145b156125a557507f000000000000000000000000000000000000000000000000000000000000000090565b50604080517f00000000000000000000000000000000000000000000000000000000000000006020808301919091527f0000000000000000000000000000000000000000000000000000000000000000828401527f000000000000000000000000000000000000000000000000000000000000000060608301524660808301523060a0808401919091528351808403909101815260c0909201909252805191012090565b60008060006126588585613094565b91509150612665816130d9565b509392505050565b7f3181e78fc1b109bc611fd2406150bf06e33faa75f71cba12c3e1fd670f2def0090565b6001600160a01b03811660009081526001830160205260408120541515610d48565b60006107be825490565b6000610d488383613223565b600060048210156126ec5760405162461bcd60e51b815260040161098d9061454b565b6126fa60046000848661456a565b610d4891614594565b60008060448310156127275760405162461bcd60e51b815260040161098d9061454b565b61273560246004858761456a565b810190612742919061393a565b915061275260446024858761456a565b81019061275f91906145c4565b90509250929050565b60608080606484101561278d5760405162461bcd60e51b815260040161098d9061454b565b61279a846004818861456a565b8101906127a7919061465c565b919790965090945092505050565b6127bd611874565b6001600160a01b0316336001600160a01b03161461281d5760405162461bcd60e51b815260206004820152601c60248201527f6163636f756e743a206e6f742066726f6d20456e747279506f696e7400000000604482015260640161098d565b565b7f19457468657265756d205369676e6564204d6573736167653a0a3332000000006000908152601c829052603c8120600061289e6128616101408701876140fb565b8080601f01602080910402602001604051908101604052809392919081815260200183838082843760009201919091525086939250506126499050565b90506128aa81866109b9565b6128b9576001925050506107be565b60006128c361266d565b6001600160a01b03929092166000908152600590920160209081526040808420815160608082018452825482526001909201546001600160801b0380821683870152600160801b8204908116928501929092528351928301845295825265ffffffffffff8087169483019490945292831691015260d09290921b6001600160d01b03191660a09290921b65ffffffffffff60a01b169190911795945050505050565b80156116ab57604051600090339060001990849084818181858888f193505050503d8060008114610f20576040519150601f19603f3d011682016040523d82523d6000602084013e610f20565b60405163c3c5a54760e01b81523060048201527f0000000000000000000000000000000000000000000000000000000000000000906001600160a01b0382169063c3c5a54790602401602060405180830381865afa158015612a18573d6000803e3d6000fd5b505050506040513d601f19601f82011682018060405250810190612a3c91906144be565b6116ab57600080516020614928833981519152546040516320e80fe360e21b815260048101919091526001600160a01b038216906383a03f8c906024015b600060405180830381600087803b158015610f0c57600080fd5b60606000846001600160a01b03168484604051612ab19190614741565b60006040518083038185875af1925050503d8060008114612aee576040519150601f19603f3d011682016040523d82523d6000602084013e612af3565b606091505b50925090508061266557815160208301fd5b612b0e33610c91565b61281d5760405162461bcd60e51b815260206004820152600660248201526510b0b236b4b760d11b604482015260640161098d565b612b4d828261324d565b6001600160a01b037f0000000000000000000000000000000000000000000000000000000000000000163b15612c86578015612c1e576001600160a01b037f000000000000000000000000000000000000000000000000000000000000000016630b61e12b837f036f52c1827dab135f7fd44ca0bddde297e2f659c710e0ec53e975f22b548300600101546040516001600160e01b031960e085901b1681526001600160a01b0390921660048301526024820152604401600060405180830381600087803b158015610f8457600080fd5b600080516020614928833981519152546040516301270f4760e71b81526001600160a01b03848116600483015260248201929092527f000000000000000000000000000000000000000000000000000000000000000090911690639387a38090604401610f6a565b5050565b6000610d48836001600160a01b0384166132fc565b60606000610d488361334b565b6000610d48836001600160a01b0384166133a7565b6001600160a01b037f0000000000000000000000000000000000000000000000000000000000000000163b156116ab576001600160a01b037f000000000000000000000000000000000000000000000000000000000000000016630b61e12b612d2d602084018461393a565b6000805160206149288339815191525460405160e084901b6001600160e01b03191681526001600160a01b039290921660048301526024820152604401612a7a565b6000612d7a33610c91565b80611a9157505030331490565b60007f4bc804ba64359c0e35e5ed5d90ee596ecaa49a3a930ddcb1470ea0dd625da9008054612db590614517565b80601f0160208091040260200160405190810160405280929190818152602001828054612de190614517565b8015612e2e5780601f10612e0357610100808354040283529160200191612e2e565b820191906000526020600020905b815481529060010190602001808311612e1157829003601f168201915b5050505050905081612e5d7f4bc804ba64359c0e35e5ed5d90ee596ecaa49a3a930ddcb1470ea0dd625da90090565b90612e6890826147a8565b507fc9c7c3fe08b88b4df9d4d47ef47d2c43d55c025a0ba88ca442580ed9e7348a168183604051612e9a929190614867565b60405180910390a15050565b60607f3fd4a1a1a267c84185e3b7eecd57c68783c0581d538b9d6e5f23e4670497c1e9612ed6602084018461393a565b612ee6604085016020860161420a565b612ef36040860186614238565b604051602001612f04929190614895565b60408051601f1981840301815291905280516020909101206060860135612f3160a08801608089016141de565b612f4160c0890160a08a016141de565b612f5160e08a0160c08b016141de565b612f626101008b0160e08c016141de565b60408051602081019a909a526001600160a01b039098169789019790975260ff9095166060880152608087019390935260a08601919091526001600160801b0390811660c086015290811660e0850152908116610100848101919091529116610120830152830135610140820152610160016040516020818303038152906040529050919050565b600061087183838080601f01602080910402602001604051908101604052809392919081815260200183838082843760009201919091525050875160208901206130369250905061349a565b90612649565b6060610d488383604051806060016040528060278152602001614968602791396134c7565b600082826040516020016130769291906148d7565b60405160208183030381529060405280519060200120905092915050565b60008082516041036130ca5760208301516040840151606085015160001a6130be8782858561353f565b945094505050506130d2565b506000905060025b9250929050565b60008160048111156130ed576130ed6148fb565b036130f55750565b6001816004811115613109576131096148fb565b036131565760405162461bcd60e51b815260206004820152601860248201527f45434453413a20696e76616c6964207369676e61747572650000000000000000604482015260640161098d565b600281600481111561316a5761316a6148fb565b036131b75760405162461bcd60e51b815260206004820152601f60248201527f45434453413a20696e76616c6964207369676e6174757265206c656e67746800604482015260640161098d565b60038160048111156131cb576131cb6148fb565b036116ab5760405162461bcd60e51b815260206004820152602260248201527f45434453413a20696e76616c6964207369676e6174757265202773272076616c604482015261756560f01b606482015260840161098d565b600082600001828154811061323a5761323a614141565b9060005260206000200154905092915050565b8061325661266d565b6001600160a01b038416600090815260049190910160205260409020805460ff1916911515919091179055801561329f576132998261329361266d565b90612c8a565b506132b3565b6132b1826132ab61266d565b90612cac565b505b816001600160a01b03167f235bc17e7930760029e9f4d860a2a8089976de5b381cf8380fc11c1d88a11133826040516132f0911515815260200190565b60405180910390a25050565b6000818152600183016020526040812054613343575081546001818101845560008481526020808220909301849055845484825282860190935260409020919091556107be565b5060006107be565b60608160000180548060200260200160405190810160405280929190818152602001828054801561339b57602002820191906000526020600020905b815481526020019060010190808311613387575b50505050509050919050565b600081815260018301602052604081205480156134905760006133cb600183614461565b85549091506000906133df90600190614461565b90508181146134445760008660000182815481106133ff576133ff614141565b906000526020600020015490508087600001848154811061342257613422614141565b6000918252602080832090910192909255918252600188019052604090208390555b855486908061345557613455614911565b6001900381819060005260206000200160009055905585600101600086815260200190815260200160002060009055600193505050506107be565b60009150506107be565b60006107be6134a7612522565b8360405161190160f01b8152600281019290925260228201526042902090565b6060600080856001600160a01b0316856040516134e49190614741565b600060405180830381855af49150503d806000811461351f576040519150601f19603f3d011682016040523d82523d6000602084013e613524565b606091505b509150915061353586838387613603565b9695505050505050565b6000807f7fffffffffffffffffffffffffffffff5d576e7357a4501ddfe92f46681b20a083111561357657506000905060036135fa565b6040805160008082526020820180845289905260ff881692820192909252606081018690526080810185905260019060a0016020604051602081039080840390855afa1580156135ca573d6000803e3d6000fd5b5050604051601f1901519150506001600160a01b0381166135f3576000600192509250506135fa565b9150600090505b94509492505050565b6060831561367257825160000361366b576001600160a01b0385163b61366b5760405162461bcd60e51b815260206004820152601d60248201527f416464726573733a2063616c6c20746f206e6f6e2d636f6e7472616374000000604482015260640161098d565b5081610871565b61087183838151156136875781518083602001fd5b8060405162461bcd60e51b815260040161098d9190613faa565b6040518060a0016040528060006001600160a01b03168152602001606081526020016000815260200160006001600160801b0316815260200160006001600160801b031681525090565b6000602082840312156136fd57600080fd5b81356001600160e01b031981168114610d4857600080fd5b634e487b7160e01b600052604160045260246000fd5b604051601f8201601f191681016001600160401b038111828210171561375357613753613715565b604052919050565b60006001600160401b0383111561377457613774613715565b613787601f8401601f191660200161372b565b905082815283838301111561379b57600080fd5b828260208301376000602084830101529392505050565b600082601f8301126137c357600080fd5b610d488383356020850161375b565b6000602082840312156137e457600080fd5b81356001600160401b038111156137fa57600080fd5b610871848285016137b2565b6001600160a01b03811681146116ab57600080fd5b803561382681613806565b919050565b6000806000806080858703121561384157600080fd5b843561384c81613806565b9350602085013561385c81613806565b92506040850135915060608501356001600160401b0381111561387e57600080fd5b61388a878288016137b2565b91505092959194509250565b600080604083850312156138a957600080fd5b8235915060208301356001600160401b038111156138c657600080fd5b6138d2858286016137b2565b9150509250929050565b600061016082840312156138ef57600080fd5b50919050565b6000806040838503121561390857600080fd5b823561391381613806565b915060208301356001600160401b0381111561392e57600080fd5b6138d2858286016138dc565b60006020828403121561394c57600080fd5b8135610d4881613806565b60008060006060848603121561396c57600080fd5b83356001600160401b0381111561398257600080fd5b61398e868287016138dc565b9660208601359650604090950135949350505050565b60008083601f8401126139b657600080fd5b5081356001600160401b038111156139cd57600080fd5b6020830191508360208260051b85010111156130d257600080fd5b60008060008060008060608789031215613a0157600080fd5b86356001600160401b0380821115613a1857600080fd5b613a248a838b016139a4565b90985096506020890135915080821115613a3d57600080fd5b613a498a838b016139a4565b90965094506040890135915080821115613a6257600080fd5b50613a6f89828a016139a4565b979a9699509497509295939492505050565b60008060408385031215613a9457600080fd5b8235613a9f81613806565b946020939093013593505050565b60008083601f840112613abf57600080fd5b5081356001600160401b03811115613ad657600080fd5b6020830191508360208285010111156130d257600080fd5b600080600060408486031215613b0357600080fd5b83356001600160401b0380821115613b1a57600080fd5b908501906101208288031215613b2f57600080fd5b90935060208501359080821115613b4557600080fd5b50613b5286828701613aad565b9497909650939450505050565b80516001600160a01b03908116835260208083015160a082860181905281519086018190526000939183019290849060c08801905b80831015613bb657855185168252948301946001929092019190830190613b94565b506040870151604089015260608701519450613bdd60608901866001600160801b03169052565b60808701519450613bf960808901866001600160801b03169052565b979650505050505050565b6000602080830181845280855180835260408601915060408160051b870101925083870160005b82811015613c5957603f19888603018452613c47858351613b5f565b94509285019290850190600101613c2b565b5092979650505050505050565b600060208284031215613c7857600080fd5b81356001600160401b03811115613c8e57600080fd5b8201601f81018413613c9f57600080fd5b6108718482356020840161375b565b60008060208385031215613cc157600080fd5b82356001600160401b03811115613cd757600080fd5b613ce3858286016139a4565b90969095509350505050565b60005b83811015613d0a578181015183820152602001613cf2565b50506000910152565b60008151808452613d2b816020860160208601613cef565b601f01601f19169290920160200192915050565b6000602080830181845280855180835260408601915060408160051b870101925083870160005b82811015613c5957603f19888603018452613d82858351613d13565b94509285019290850190600101613d66565b60008060008060608587031215613daa57600080fd5b8435613db581613806565b93506020850135925060408501356001600160401b03811115613dd757600080fd5b613de387828801613aad565b95989497509550505050565b60006001600160401b03821115613e0857613e08613715565b5060051b60200190565b600082601f830112613e2357600080fd5b81356020613e38613e3383613def565b61372b565b82815260059290921b84018101918181019086841115613e5757600080fd5b8286015b84811015613e725780358352918301918301613e5b565b509695505050505050565b600080600080600060a08688031215613e9557600080fd5b8535613ea081613806565b94506020860135613eb081613806565b935060408601356001600160401b0380821115613ecc57600080fd5b613ed889838a01613e12565b94506060880135915080821115613eee57600080fd5b613efa89838a01613e12565b93506080880135915080821115613f1057600080fd5b50613f1d888289016137b2565b9150509295509295909350565b600080600060408486031215613f3f57600080fd5b8335613f4a81613806565b925060208401356001600160401b03811115613f6557600080fd5b613b5286828701613aad565b60008060408385031215613f8457600080fd5b8235613f8f81613806565b91506020830135613f9f81613806565b809150509250929050565b602081526000610d486020830184613d13565b600081518084526020808501945080840160005b83811015613ff65781516001600160a01b031687529582019590820190600101613fd1565b509495945050505050565b602081526000610d486020830184613fbd565b80151581146116ab57600080fd5b60006020828403121561403457600080fd5b8135610d4881614014565b602081526000610d486020830184613b5f565b600080600080600060a0868803121561406a57600080fd5b853561407581613806565b9450602086013561408581613806565b9350604086013592506060860135915060808601356001600160401b038111156140ae57600080fd5b613f1d888289016137b2565b6000806000606084860312156140cf57600080fd5b83356140da81613806565b925060208401356140ea81613806565b929592945050506040919091013590565b6000808335601e1984360301811261411257600080fd5b8301803591506001600160401b0382111561412c57600080fd5b6020019150368190038213156130d257600080fd5b634e487b7160e01b600052603260045260246000fd5b634e487b7160e01b600052601160045260246000fd5b60006001820161417f5761417f614157565b5060010190565b60208082526021908201527f4163636f756e743a206e6f742061646d696e206f7220456e747279506f696e746040820152601760f91b606082015260800190565b80356001600160801b038116811461382657600080fd5b6000602082840312156141f057600080fd5b610d48826141c7565b803560ff8116811461382657600080fd5b60006020828403121561421c57600080fd5b610d48826141f9565b808201808211156107be576107be614157565b6000808335601e1984360301811261424f57600080fd5b8301803591506001600160401b0382111561426957600080fd5b6020019150600581901b36038213156130d257600080fd5b6000808335601e1984360301811261429857600080fd5b83016020810192503590506001600160401b038111156142b757600080fd5b8060051b36038213156130d257600080fd5b8183526000602080850194508260005b85811015613ff65781356142ec81613806565b6001600160a01b0316875295820195908201906001016142d9565b602081526143286020820161431b8461381b565b6001600160a01b03169052565b6000614336602084016141f9565b60ff811660408401525061434d6040840184614281565b610120806060860152614365610140860183856142c9565b92506060860135608086015261437d608087016141c7565b6001600160801b03811660a0870152915061439a60a087016141c7565b6001600160801b03811660c087015291506143b760c087016141c7565b6001600160801b03811660e087015291506143d460e087016141c7565b91506101006143ed818701846001600160801b03169052565b9590950135939094019290925250919050565b8284823760609190911b6bffffffffffffffffffffffff19169101908152601401919050565b60006020828403121561443857600080fd5b5051919050565b60008261445c57634e487b7160e01b600052601260045260246000fd5b500690565b818103818111156107be576107be614157565b60008060008060008060c0878903121561448d57600080fd5b865195506020870151945060408701519350606087015192506080870151915060a087015190509295509295509295565b6000602082840312156144d057600080fd5b8151610d4881614014565b85815284602082015260a0604082015260006144fa60a0830186613fbd565b6001600160a01b0394909416606083015250608001529392505050565b600181811c9082168061452b57607f821691505b6020821081036138ef57634e487b7160e01b600052602260045260246000fd5b602080825260059082015264214461746160d81b604082015260600190565b6000808585111561457a57600080fd5b8386111561458757600080fd5b5050820193919092039150565b6001600160e01b031981358181169160048510156145bc5780818660040360031b1b83161692505b505092915050565b6000602082840312156145d657600080fd5b5035919050565b600082601f8301126145ee57600080fd5b813560206145fe613e3383613def565b82815260059290921b8401810191818101908684111561461d57600080fd5b8286015b84811015613e725780356001600160401b038111156146405760008081fd5b61464e8986838b01016137b2565b845250918301918301614621565b60008060006060848603121561467157600080fd5b83356001600160401b038082111561468857600080fd5b818601915086601f83011261469c57600080fd5b813560206146ac613e3383613def565b82815260059290921b8401810191818101908a8411156146cb57600080fd5b948201945b838610156146f25785356146e381613806565b825294820194908201906146d0565b9750508701359250508082111561470857600080fd5b61471487838801613e12565b9350604086013591508082111561472a57600080fd5b50614737868287016145dd565b9150509250925092565b60008251614753818460208701613cef565b9190910192915050565b601f8211156147a357600081815260208120601f850160051c810160208610156147845750805b601f850160051c820191505b81811015610f9857828155600101614790565b505050565b81516001600160401b038111156147c1576147c1613715565b6147d5816147cf8454614517565b8461475d565b602080601f83116001811461480a57600084156147f25750858301515b600019600386901b1c1916600185901b178555610f98565b600085815260208120601f198616915b828110156148395788860151825594840194600190910190840161481a565b50858210156148575787850151600019600388901b60f8161c191681555b5050505050600190811b01905550565b60408152600061487a6040830185613d13565b828103602084015261488c8185613d13565b95945050505050565b60008184825b858110156148cc5781356148ae81613806565b6001600160a01b03168352602092830192919091019060010161489b565b509095945050505050565b6001600160a01b038316815260406020820181905260009061087190830184613d13565b634e487b7160e01b600052602160045260246000fd5b634e487b7160e01b600052603160045260246000fdfe036f52c1827dab135f7fd44ca0bddde297e2f659c710e0ec53e975f22b548301322cf19c484104d3b1a9c2982ebae869ede3fa5f6c4703ca41b9a48c76ee0300416464726573733a206c6f772d6c6576656c2064656c65676174652063616c6c206661696c6564a2646970667358221220d78fb80ec5e379c7d1421f05a1b300924cb9ce17a76c45b9b208a70cd461f58864736f6c63430008130033",
    "linkReferences": {}
  },
  "methodIdentifiers": {
    "addDeposit()": "4a58db19",
    "allowedSupply()": "9934cdb1",
    "automationUpkeep()": "29245414",
    "contractURI()": "e8a3d485",
    "defaultToken()": "74c13fda",
    "entryPoint()": "b0d691fe",
    "execute(address,uint256,bytes)": "b61d27f6",
    "executeBatch(address[],uint256[],bytes[])": "47e1da2a",
    "executeSwapAndSupply(address,address)": "ddd5d6c6",
    "factory()": "c45a0155",
    "getAllActiveSigners()": "8b52d723",
    "getAllAdmins()": "e9523c97",
    "getAllSigners()": "d42f2f35",
    "getMessageHash(bytes)": "0a1028c4",
    "getNonce()": "d087d288",
    "getPermissionsForSigner(address)": "f15d424e",
    "initialize(address,bytes)": "d1f57894",
    "isActiveSigner(address)": "7dff5a79",
    "isAdmin(address)": "24d7806c",
    "isValidSignature(bytes32,bytes)": "1626ba7e",
    "isValidSigner(address,(address,uint256,bytes,bytes,uint256,uint256,uint256,uint256,uint256,bytes,bytes))": "1dd756c5",
    "multicall(bytes[])": "ac9650d8",
    "onERC1155BatchReceived(address,address,uint256[],uint256[],bytes)": "bc197c81",
    "onERC1155Received(address,address,uint256,uint256,bytes)": "f23a6e61",
    "onERC721Received(address,address,uint256,bytes)": "150b7a02",
    "setAllowedSupply(bool)": "ec1afaaa",
    "setContractURI(string)": "938e3d7b",
    "setDefaultToken(address)": "e1e32f99",
    "setEntrypointOverride(address)": "b76464d5",
    "setPermissionsForSigner((address,uint8,address[],uint256,uint128,uint128,uint128,uint128,bytes32),bytes)": "5892e236",
    "setUniswapRouter(address)": "bea9849e",
    "setUpkeep(address)": "2df63507",
    "supportsInterface(bytes4)": "01ffc9a7",
    "transferToken(address,address,uint256)": "f5537ede",
    "uniswapRouter()": "735de9f7",
    "validateUserOp((address,uint256,bytes,bytes,uint256,uint256,uint256,uint256,uint256,bytes,bytes),bytes32,uint256)": "3a871cdd",
    "verifySignerPermissionRequest((address,uint8,address[],uint256,uint128,uint128,uint128,uint128,bytes32),bytes)": "a9082d84",
    "withdrawDepositTo(address,uint256)": "4d44560d"
  },
  "id": 63
}