{
  "abi": [
    {
      "inputs": [
        {
          "internalType": "contract IEntryPoint",
          "name": "_entrypoint",
          "type": "address"
        },
        {
          "internalType": "address",
          "name": "_factory",
          "type": "address"
        }
      ],
      "stateMutability": "nonpayable",
      "type": "constructor"
    },
    {
      "anonymous": false,
      "inputs": [
        {
          "indexed": true,
          "internalType": "address",
          "name": "signer",
          "type": "address"
        },
        {
          "indexed": false,
          "internalType": "bool",
          "name": "isAdmin",
          "type": "bool"
        }
      ],
      "name": "AdminUpdated",
      "type": "event"
    },
    {
      "anonymous": false,
      "inputs": [
        {
          "indexed": false,
          "internalType": "string",
          "name": "prevURI",
          "type": "string"
        },
        {
          "indexed": false,
          "internalType": "string",
          "name": "newURI",
          "type": "string"
        }
      ],
      "name": "ContractURIUpdated",
      "type": "event"
    },
    {
      "anonymous": false,
      "inputs": [
        {
          "indexed": false,
          "internalType": "uint8",
          "name": "version",
          "type": "uint8"
        }
      ],
      "name": "Initialized",
      "type": "event"
    },
    {
      "anonymous": false,
      "inputs": [
        {
          "indexed": true,
          "internalType": "address",
          "name": "authorizingSigner",
          "type": "address"
        },
        {
          "indexed": true,
          "internalType": "address",
          "name": "targetSigner",
          "type": "address"
        },
        {
          "components": [
            {
              "internalType": "address",
              "name": "signer",
              "type": "address"
            },
            {
              "internalType": "uint8",
              "name": "isAdmin",
              "type": "uint8"
            },
            {
              "internalType": "address[]",
              "name": "approvedTargets",
              "type": "address[]"
            },
            {
              "internalType": "uint256",
              "name": "nativeTokenLimitPerTransaction",
              "type": "uint256"
            },
            {
              "internalType": "uint128",
              "name": "permissionStartTimestamp",
              "type": "uint128"
            },
            {
              "internalType": "uint128",
              "name": "permissionEndTimestamp",
              "type": "uint128"
            },
            {
              "internalType": "uint128",
              "name": "reqValidityStartTimestamp",
              "type": "uint128"
            },
            {
              "internalType": "uint128",
              "name": "reqValidityEndTimestamp",
              "type": "uint128"
            },
            {
              "internalType": "bytes32",
              "name": "uid",
              "type": "bytes32"
            }
          ],
          "indexed": false,
          "internalType": "struct IAccountPermissions.SignerPermissionRequest",
          "name": "permissions",
          "type": "tuple"
        }
      ],
      "name": "SignerPermissionsUpdated",
      "type": "event"
    },
    {
      "inputs": [],
      "name": "aavePool",
      "outputs": [
        {
          "internalType": "address",
          "name": "",
          "type": "address"
        }
      ],
      "stateMutability": "view",
      "type": "function"
    },
    {
      "inputs": [],
      "name": "addDeposit",
      "outputs": [],
      "stateMutability": "payable",
      "type": "function"
    },
    {
      "inputs": [],
      "name": "allowedSupply",
      "outputs": [
        {
          "internalType": "bool",
          "name": "",
          "type": "bool"
        }
      ],
      "stateMutability": "view",
      "type": "function"
    },
    {
      "inputs": [],
      "name": "automationUpkeep",
      "outputs": [
        {
          "internalType": "address",
          "name": "",
          "type": "address"
        }
      ],
      "stateMutability": "view",
      "type": "function"
    },
    {
      "inputs": [],
      "name": "contractURI",
      "outputs": [
        {
          "internalType": "string",
          "name": "",
          "type": "string"
        }
      ],
      "stateMutability": "view",
      "type": "function"
    },
    {
      "inputs": [],
      "name": "defaultToken",
      "outputs": [
        {
          "internalType": "address",
          "name": "",
          "type": "address"
        }
      ],
      "stateMutability": "view",
      "type": "function"
    },
    {
      "inputs": [],
      "name": "entryPoint",
      "outputs": [
        {
          "internalType": "contract IEntryPoint",
          "name": "",
          "type": "address"
        }
      ],
      "stateMutability": "view",
      "type": "function"
    },
    {
      "inputs": [
        {
          "internalType": "address",
          "name": "_target",
          "type": "address"
        },
        {
          "internalType": "uint256",
          "name": "_value",
          "type": "uint256"
        },
        {
          "internalType": "bytes",
          "name": "_calldata",
          "type": "bytes"
        }
      ],
      "name": "execute",
      "outputs": [],
      "stateMutability": "nonpayable",
      "type": "function"
    },
    {
      "inputs": [
        {
          "internalType": "address[]",
          "name": "_target",
          "type": "address[]"
        },
        {
          "internalType": "uint256[]",
          "name": "_value",
          "type": "uint256[]"
        },
        {
          "internalType": "bytes[]",
          "name": "_calldata",
          "type": "bytes[]"
        }
      ],
      "name": "executeBatch",
      "outputs": [],
      "stateMutability": "nonpayable",
      "type": "function"
    },
    {
      "inputs": [],
      "name": "executeSupplyToVault",
      "outputs": [],
      "stateMutability": "nonpayable",
      "type": "function"
    },
    {
      "inputs": [
        {
          "internalType": "address",
          "name": "token",
          "type": "address"
        }
      ],
      "name": "executeSwapAndSupply",
      "outputs": [],
      "stateMutability": "nonpayable",
      "type": "function"
    },
    {
      "inputs": [],
      "name": "factory",
      "outputs": [
        {
          "internalType": "address",
          "name": "",
          "type": "address"
        }
      ],
      "stateMutability": "view",
      "type": "function"
    },
    {
      "inputs": [],
      "name": "getAllActiveSigners",
      "outputs": [
        {
          "components": [
            {
              "internalType": "address",
              "name": "signer",
              "type": "address"
            },
            {
              "internalType": "address[]",
              "name": "approvedTargets",
              "type": "address[]"
            },
            {
              "internalType": "uint256",
              "name": "nativeTokenLimitPerTransaction",
              "type": "uint256"
            },
            {
              "internalType": "uint128",
              "name": "startTimestamp",
              "type": "uint128"
            },
            {
              "internalType": "uint128",
              "name": "endTimestamp",
              "type": "uint128"
            }
          ],
          "internalType": "struct IAccountPermissions.SignerPermissions[]",
          "name": "signers",
          "type": "tuple[]"
        }
      ],
      "stateMutability": "view",
      "type": "function"
    },
    {
      "inputs": [],
      "name": "getAllAdmins",
      "outputs": [
        {
          "internalType": "address[]",
          "name": "",
          "type": "address[]"
        }
      ],
      "stateMutability": "view",
      "type": "function"
    },
    {
      "inputs": [],
      "name": "getAllSigners",
      "outputs": [
        {
          "components": [
            {
              "internalType": "address",
              "name": "signer",
              "type": "address"
            },
            {
              "internalType": "address[]",
              "name": "approvedTargets",
              "type": "address[]"
            },
            {
              "internalType": "uint256",
              "name": "nativeTokenLimitPerTransaction",
              "type": "uint256"
            },
            {
              "internalType": "uint128",
              "name": "startTimestamp",
              "type": "uint128"
            },
            {
              "internalType": "uint128",
              "name": "endTimestamp",
              "type": "uint128"
            }
          ],
          "internalType": "struct IAccountPermissions.SignerPermissions[]",
          "name": "signers",
          "type": "tuple[]"
        }
      ],
      "stateMutability": "view",
      "type": "function"
    },
    {
      "inputs": [
        {
          "internalType": "bytes",
          "name": "message",
          "type": "bytes"
        }
      ],
      "name": "getMessageHash",
      "outputs": [
        {
          "internalType": "bytes32",
          "name": "",
          "type": "bytes32"
        }
      ],
      "stateMutability": "view",
      "type": "function"
    },
    {
      "inputs": [],
      "name": "getNonce",
      "outputs": [
        {
          "internalType": "uint256",
          "name": "",
          "type": "uint256"
        }
      ],
      "stateMutability": "view",
      "type": "function"
    },
    {
      "inputs": [
        {
          "internalType": "address",
          "name": "signer",
          "type": "address"
        }
      ],
      "name": "getPermissionsForSigner",
      "outputs": [
        {
          "components": [
            {
              "internalType": "address",
              "name": "signer",
              "type": "address"
            },
            {
              "internalType": "address[]",
              "name": "approvedTargets",
              "type": "address[]"
            },
            {
              "internalType": "uint256",
              "name": "nativeTokenLimitPerTransaction",
              "type": "uint256"
            },
            {
              "internalType": "uint128",
              "name": "startTimestamp",
              "type": "uint128"
            },
            {
              "internalType": "uint128",
              "name": "endTimestamp",
              "type": "uint128"
            }
          ],
          "internalType": "struct IAccountPermissions.SignerPermissions",
          "name": "",
          "type": "tuple"
        }
      ],
      "stateMutability": "view",
      "type": "function"
    },
    {
      "inputs": [],
      "name": "ghoThreshold",
      "outputs": [
        {
          "internalType": "uint256",
          "name": "",
          "type": "uint256"
        }
      ],
      "stateMutability": "view",
      "type": "function"
    },
    {
      "inputs": [
        {
          "internalType": "address",
          "name": "_defaultAdmin",
          "type": "address"
        },
        {
          "internalType": "bytes",
          "name": "_data",
          "type": "bytes"
        }
      ],
      "name": "initialize",
      "outputs": [],
      "stateMutability": "nonpayable",
      "type": "function"
    },
    {
      "inputs": [
        {
          "internalType": "address",
          "name": "signer",
          "type": "address"
        }
      ],
      "name": "isActiveSigner",
      "outputs": [
        {
          "internalType": "bool",
          "name": "",
          "type": "bool"
        }
      ],
      "stateMutability": "view",
      "type": "function"
    },
    {
      "inputs": [
        {
          "internalType": "address",
          "name": "_account",
          "type": "address"
        }
      ],
      "name": "isAdmin",
      "outputs": [
        {
          "internalType": "bool",
          "name": "",
          "type": "bool"
        }
      ],
      "stateMutability": "view",
      "type": "function"
    },
    {
      "inputs": [
        {
          "internalType": "bytes32",
          "name": "_message",
          "type": "bytes32"
        },
        {
          "internalType": "bytes",
          "name": "_signature",
          "type": "bytes"
        }
      ],
      "name": "isValidSignature",
      "outputs": [
        {
          "internalType": "bytes4",
          "name": "magicValue",
          "type": "bytes4"
        }
      ],
      "stateMutability": "view",
      "type": "function"
    },
    {
      "inputs": [
        {
          "internalType": "address",
          "name": "_signer",
          "type": "address"
        },
        {
          "components": [
            {
              "internalType": "address",
              "name": "sender",
              "type": "address"
            },
            {
              "internalType": "uint256",
              "name": "nonce",
              "type": "uint256"
            },
            {
              "internalType": "bytes",
              "name": "initCode",
              "type": "bytes"
            },
            {
              "internalType": "bytes",
              "name": "callData",
              "type": "bytes"
            },
            {
              "internalType": "uint256",
              "name": "callGasLimit",
              "type": "uint256"
            },
            {
              "internalType": "uint256",
              "name": "verificationGasLimit",
              "type": "uint256"
            },
            {
              "internalType": "uint256",
              "name": "preVerificationGas",
              "type": "uint256"
            },
            {
              "internalType": "uint256",
              "name": "maxFeePerGas",
              "type": "uint256"
            },
            {
              "internalType": "uint256",
              "name": "maxPriorityFeePerGas",
              "type": "uint256"
            },
            {
              "internalType": "bytes",
              "name": "paymasterAndData",
              "type": "bytes"
            },
            {
              "internalType": "bytes",
              "name": "signature",
              "type": "bytes"
            }
          ],
          "internalType": "struct UserOperation",
          "name": "_userOp",
          "type": "tuple"
        }
      ],
      "name": "isValidSigner",
      "outputs": [
        {
          "internalType": "bool",
          "name": "",
          "type": "bool"
        }
      ],
      "stateMutability": "view",
      "type": "function"
    },
    {
      "inputs": [
        {
          "internalType": "bytes[]",
          "name": "data",
          "type": "bytes[]"
        }
      ],
      "name": "multicall",
      "outputs": [
        {
          "internalType": "bytes[]",
          "name": "results",
          "type": "bytes[]"
        }
      ],
      "stateMutability": "nonpayable",
      "type": "function"
    },
    {
      "inputs": [
        {
          "internalType": "address",
          "name": "",
          "type": "address"
        },
        {
          "internalType": "address",
          "name": "",
          "type": "address"
        },
        {
          "internalType": "uint256[]",
          "name": "",
          "type": "uint256[]"
        },
        {
          "internalType": "uint256[]",
          "name": "",
          "type": "uint256[]"
        },
        {
          "internalType": "bytes",
          "name": "",
          "type": "bytes"
        }
      ],
      "name": "onERC1155BatchReceived",
      "outputs": [
        {
          "internalType": "bytes4",
          "name": "",
          "type": "bytes4"
        }
      ],
      "stateMutability": "nonpayable",
      "type": "function"
    },
    {
      "inputs": [
        {
          "internalType": "address",
          "name": "",
          "type": "address"
        },
        {
          "internalType": "address",
          "name": "",
          "type": "address"
        },
        {
          "internalType": "uint256",
          "name": "",
          "type": "uint256"
        },
        {
          "internalType": "uint256",
          "name": "",
          "type": "uint256"
        },
        {
          "internalType": "bytes",
          "name": "",
          "type": "bytes"
        }
      ],
      "name": "onERC1155Received",
      "outputs": [
        {
          "internalType": "bytes4",
          "name": "",
          "type": "bytes4"
        }
      ],
      "stateMutability": "nonpayable",
      "type": "function"
    },
    {
      "inputs": [
        {
          "internalType": "address",
          "name": "",
          "type": "address"
        },
        {
          "internalType": "address",
          "name": "",
          "type": "address"
        },
        {
          "internalType": "uint256",
          "name": "",
          "type": "uint256"
        },
        {
          "internalType": "bytes",
          "name": "",
          "type": "bytes"
        }
      ],
      "name": "onERC721Received",
      "outputs": [
        {
          "internalType": "bytes4",
          "name": "",
          "type": "bytes4"
        }
      ],
      "stateMutability": "nonpayable",
      "type": "function"
    },
    {
      "inputs": [
        {
          "internalType": "bool",
          "name": "_allowedSupply",
          "type": "bool"
        }
      ],
      "name": "setAllowedSupply",
      "outputs": [],
      "stateMutability": "nonpayable",
      "type": "function"
    },
    {
      "inputs": [
        {
          "internalType": "string",
          "name": "_uri",
          "type": "string"
        }
      ],
      "name": "setContractURI",
      "outputs": [],
      "stateMutability": "nonpayable",
      "type": "function"
    },
    {
      "inputs": [
        {
          "internalType": "contract IEntryPoint",
          "name": "_entrypointOverride",
          "type": "address"
        }
      ],
      "name": "setEntrypointOverride",
      "outputs": [],
      "stateMutability": "nonpayable",
      "type": "function"
    },
    {
      "inputs": [
        {
          "components": [
            {
              "internalType": "address",
              "name": "signer",
              "type": "address"
            },
            {
              "internalType": "uint8",
              "name": "isAdmin",
              "type": "uint8"
            },
            {
              "internalType": "address[]",
              "name": "approvedTargets",
              "type": "address[]"
            },
            {
              "internalType": "uint256",
              "name": "nativeTokenLimitPerTransaction",
              "type": "uint256"
            },
            {
              "internalType": "uint128",
              "name": "permissionStartTimestamp",
              "type": "uint128"
            },
            {
              "internalType": "uint128",
              "name": "permissionEndTimestamp",
              "type": "uint128"
            },
            {
              "internalType": "uint128",
              "name": "reqValidityStartTimestamp",
              "type": "uint128"
            },
            {
              "internalType": "uint128",
              "name": "reqValidityEndTimestamp",
              "type": "uint128"
            },
            {
              "internalType": "bytes32",
              "name": "uid",
              "type": "bytes32"
            }
          ],
          "internalType": "struct IAccountPermissions.SignerPermissionRequest",
          "name": "_req",
          "type": "tuple"
        },
        {
          "internalType": "bytes",
          "name": "_signature",
          "type": "bytes"
        }
      ],
      "name": "setPermissionsForSigner",
      "outputs": [],
      "stateMutability": "nonpayable",
      "type": "function"
    },
    {
      "inputs": [],
      "name": "supplyAndSwapTrigger",
      "outputs": [
        {
          "internalType": "address",
          "name": "",
          "type": "address"
        }
      ],
      "stateMutability": "view",
      "type": "function"
    },
    {
      "inputs": [
        {
          "internalType": "bytes4",
          "name": "interfaceId",
          "type": "bytes4"
        }
      ],
      "name": "supportsInterface",
      "outputs": [
        {
          "internalType": "bool",
          "name": "",
          "type": "bool"
        }
      ],
      "stateMutability": "view",
      "type": "function"
    },
    {
      "inputs": [],
      "name": "uniswapRouter",
      "outputs": [
        {
          "internalType": "address",
          "name": "",
          "type": "address"
        }
      ],
      "stateMutability": "view",
      "type": "function"
    },
    {
      "inputs": [],
      "name": "usdcToken",
      "outputs": [
        {
          "internalType": "address",
          "name": "",
          "type": "address"
        }
      ],
      "stateMutability": "view",
      "type": "function"
    },
    {
      "inputs": [
        {
          "components": [
            {
              "internalType": "address",
              "name": "sender",
              "type": "address"
            },
            {
              "internalType": "uint256",
              "name": "nonce",
              "type": "uint256"
            },
            {
              "internalType": "bytes",
              "name": "initCode",
              "type": "bytes"
            },
            {
              "internalType": "bytes",
              "name": "callData",
              "type": "bytes"
            },
            {
              "internalType": "uint256",
              "name": "callGasLimit",
              "type": "uint256"
            },
            {
              "internalType": "uint256",
              "name": "verificationGasLimit",
              "type": "uint256"
            },
            {
              "internalType": "uint256",
              "name": "preVerificationGas",
              "type": "uint256"
            },
            {
              "internalType": "uint256",
              "name": "maxFeePerGas",
              "type": "uint256"
            },
            {
              "internalType": "uint256",
              "name": "maxPriorityFeePerGas",
              "type": "uint256"
            },
            {
              "internalType": "bytes",
              "name": "paymasterAndData",
              "type": "bytes"
            },
            {
              "internalType": "bytes",
              "name": "signature",
              "type": "bytes"
            }
          ],
          "internalType": "struct UserOperation",
          "name": "userOp",
          "type": "tuple"
        },
        {
          "internalType": "bytes32",
          "name": "userOpHash",
          "type": "bytes32"
        },
        {
          "internalType": "uint256",
          "name": "missingAccountFunds",
          "type": "uint256"
        }
      ],
      "name": "validateUserOp",
      "outputs": [
        {
          "internalType": "uint256",
          "name": "validationData",
          "type": "uint256"
        }
      ],
      "stateMutability": "nonpayable",
      "type": "function"
    },
    {
      "inputs": [],
      "name": "vault",
      "outputs": [
        {
          "internalType": "address",
          "name": "",
          "type": "address"
        }
      ],
      "stateMutability": "view",
      "type": "function"
    },
    {
      "inputs": [
        {
          "components": [
            {
              "internalType": "address",
              "name": "signer",
              "type": "address"
            },
            {
              "internalType": "uint8",
              "name": "isAdmin",
              "type": "uint8"
            },
            {
              "internalType": "address[]",
              "name": "approvedTargets",
              "type": "address[]"
            },
            {
              "internalType": "uint256",
              "name": "nativeTokenLimitPerTransaction",
              "type": "uint256"
            },
            {
              "internalType": "uint128",
              "name": "permissionStartTimestamp",
              "type": "uint128"
            },
            {
              "internalType": "uint128",
              "name": "permissionEndTimestamp",
              "type": "uint128"
            },
            {
              "internalType": "uint128",
              "name": "reqValidityStartTimestamp",
              "type": "uint128"
            },
            {
              "internalType": "uint128",
              "name": "reqValidityEndTimestamp",
              "type": "uint128"
            },
            {
              "internalType": "bytes32",
              "name": "uid",
              "type": "bytes32"
            }
          ],
          "internalType": "struct IAccountPermissions.SignerPermissionRequest",
          "name": "req",
          "type": "tuple"
        },
        {
          "internalType": "bytes",
          "name": "signature",
          "type": "bytes"
        }
      ],
      "name": "verifySignerPermissionRequest",
      "outputs": [
        {
          "internalType": "bool",
          "name": "success",
          "type": "bool"
        },
        {
          "internalType": "address",
          "name": "signer",
          "type": "address"
        }
      ],
      "stateMutability": "view",
      "type": "function"
    },
    {
      "inputs": [
        {
          "internalType": "address payable",
          "name": "withdrawAddress",
          "type": "address"
        },
        {
          "internalType": "uint256",
          "name": "amount",
          "type": "uint256"
        }
      ],
      "name": "withdrawDepositTo",
      "outputs": [],
      "stateMutability": "nonpayable",
      "type": "function"
    },
    {
      "stateMutability": "payable",
      "type": "receive"
    }
  ],
  "bytecode": {
    "object": "0x6101806040523480156200001257600080fd5b506040516200548e3803806200548e833981016040819052620000359162000274565b60408051808201825260078152661058d8dbdd5b9d60ca1b60208083019182528351808501855260018152603160f81b908201529151902060e08190527fc89efdaa54c0f20c7adf612882df0950f5a951637e0307cdcb4c672f298b8bc66101008190524660a081815285517f8b73c3c69bb8fe3d512ecc4cf759cc79239f7b179b0ffacaa9a75d522b39400f818701819052818801959095526060810193909352608080840192909252308382018190528651808503909201825260c093840190965280519401939093209092529190526101205281816200011762000158565b6001600160a01b039081166101405216610160525050600180546001600160a01b031916331790556007805460ff60a01b1916600160a01b179055620002b3565b7f322cf19c484104d3b1a9c2982ebae869ede3fa5f6c4703ca41b9a48c76ee03005460ff808216916101009004168015620001e95760405162461bcd60e51b815260206004820152602760248201527f496e697469616c697a61626c653a20636f6e747261637420697320696e697469604482015266616c697a696e6760c81b606482015260840160405180910390fd5b60ff828116101562000257577f322cf19c484104d3b1a9c2982ebae869ede3fa5f6c4703ca41b9a48c76ee0300805460ff191660ff90811790915560408051918252517f7f26b83ff96e1f2b6a682f133852f6798a09c465da95921460cefb38474024989181900360200190a15b5050565b6001600160a01b03811681146200027157600080fd5b50565b600080604083850312156200028857600080fd5b825162000295816200025b565b6020840151909250620002a8816200025b565b809150509250929050565b60805160a05160c05160e0516101005161012051610140516101605161514b620003436000396000611f0a01526000818161067601528181612ecb0152818161305b015281816130a6015281816131020152818161318401526131b401526000612ab001526000612aff01526000612ada01526000612a3301526000612a5d01526000612a87015261514b6000f3fe60806040526004361061023f5760003560e01c8063938e3d7b1161012e578063c45a0155116100ab578063e9523c971161006f578063e9523c9714610704578063ec1afaaa14610726578063f15d424e14610746578063f23a6e6114610773578063fbfa77cf1461079f57600080fd5b8063c45a015514610664578063d087d28814610698578063d1f57894146106ad578063d42f2f35146106cd578063e8a3d485146106e257600080fd5b8063b0d691fe116100f2578063b0d691fe146105ce578063b2836277146105e3578063b61d27f6146105f8578063b76464d514610618578063bc197c811461063857600080fd5b8063938e3d7b146105015780639934cdb114610521578063a03e4bc314610542578063a9082d8414610562578063ac9650d8146105a157600080fd5b80633dd6e025116101bc5780635892e236116101805780635892e2361461045f578063735de9f71461047f57806374c13fda1461049f5780637dff5a79146104bf5780638b52d723146104df57600080fd5b80633dd6e025146103df57806347e1da2a146104015780634a58db19146104215780634d44560d146104295780634e11f6a51461044957600080fd5b80631626ba7e116102035780631626ba7e1461033f5780631dd756c51461035f57806324d7806c1461037f578063292454141461039f5780633a871cdd146103bf57600080fd5b806301ffc9a71461024b5780630a1028c4146102805780630db796e9146102ae57806311eac855146102e6578063150b7a021461030657600080fd5b3661024657005b600080fd5b34801561025757600080fd5b5061026b610266366004613e4e565b6107bf565b60405190151581526020015b60405180910390f35b34801561028c57600080fd5b506102a061029b366004613f35565b610805565b604051908152602001610277565b3480156102ba57600080fd5b506007546102ce906001600160a01b031681565b6040516001600160a01b039091168152602001610277565b3480156102f257600080fd5b506003546102ce906001600160a01b031681565b34801561031257600080fd5b50610326610321366004613f8e565b6108a9565b6040516001600160e01b03199091168152602001610277565b34801561034b57600080fd5b5061032661035a366004613ff9565b6108ba565b34801561036b57600080fd5b5061026b61037a366004614058565b6109fa565b34801561038b57600080fd5b5061026b61039a36600461409d565b610cd2565b3480156103ab57600080fd5b506001546102ce906001600160a01b031681565b3480156103cb57600080fd5b506102a06103da3660046140ba565b610d01565b3480156103eb57600080fd5b506103ff6103fa36600461409d565b610d27565b005b34801561040d57600080fd5b506103ff61041c36600461414b565b61129f565b6103ff611518565b34801561043557600080fd5b506103ff6104443660046141e4565b61157f565b34801561045557600080fd5b506102a060005481565b34801561046b57600080fd5b506103ff61047a366004614251565b6115f2565b34801561048b57600080fd5b506004546102ce906001600160a01b031681565b3480156104ab57600080fd5b506002546102ce906001600160a01b031681565b3480156104cb57600080fd5b5061026b6104da36600461409d565b6119b8565b3480156104eb57600080fd5b506104f4611a71565b6040516102779190614367565b34801561050d57600080fd5b506103ff61051c3660046143c9565b611cb8565b34801561052d57600080fd5b5060075461026b90600160a01b900460ff1681565b34801561054e57600080fd5b506005546102ce906001600160a01b031681565b34801561056e57600080fd5b5061058261057d366004614251565b611d09565b6040805192151583526001600160a01b03909116602083015201610277565b3480156105ad57600080fd5b506105c16105bc366004614411565b611d60565b60405161027791906144a2565b3480156105da57600080fd5b506102ce611ecf565b3480156105ef57600080fd5b506103ff611f2f565b34801561060457600080fd5b506103ff6106133660046144f7565b612180565b34801561062457600080fd5b506103ff61063336600461409d565b612343565b34801561064457600080fd5b506103266106533660046145e0565b63bc197c8160e01b95945050505050565b34801561067057600080fd5b506102ce7f000000000000000000000000000000000000000000000000000000000000000081565b3480156106a457600080fd5b506102a061238c565b3480156106b957600080fd5b506103ff6106c836600461468d565b61240c565b3480156106d957600080fd5b506104f4612680565b3480156106ee57600080fd5b506106f76127f1565b60405161027791906146d4565b34801561071057600080fd5b506107196128a2565b604051610277919061472b565b34801561073257600080fd5b506103ff61074136600461474c565b6128b4565b34801561075257600080fd5b5061076661076136600461409d565b612919565b6040516102779190614769565b34801561077f57600080fd5b5061032661078e36600461477c565b63f23a6e6160e01b95945050505050565b3480156107ab57600080fd5b506006546102ce906001600160a01b031681565b60006001600160e01b03198216630271189760e51b14806107f057506001600160e01b03198216630a85bd0160e11b145b806107ff57506107ff826129f1565b92915050565b6000807f82cac545155fcbf147f2a9013809613677ac7d65498556e6d19ce43bcbf6c284838051906020012060405160200161084b929190918252602082015260400190565b60405160208183030381529060405280519060200120905061086b612a26565b60405161190160f01b602082015260228101919091526042810182905260620160405160208183030381529060405280519060200120915050919050565b630a85bd0160e11b5b949350505050565b6000806108e7846040516020016108d391815260200190565b604051602081830303815290604052610805565b905060006108f58285612b4d565b905061090081610cd2565b156109175750630b135d3f60e11b91506107ff9050565b336000610922612b71565b6001600160a01b038416600090815260069190910160205260409020905061094a8183612b95565b8061097a575061095981612bb7565b600114801561097a5750600061096f8282612bc1565b6001600160a01b0316145b6109d75760405162461bcd60e51b8152602060048201526024808201527f4163636f756e743a2063616c6c6572206e6f7420617070726f7665642074617260448201526333b2ba1760e11b60648201526084015b60405180910390fd5b6109e0836119b8565b156109f057630b135d3f60e11b94505b5050505092915050565b6000610a04612b71565b6001600160a01b0384166000908152600491909101602052604090205460ff1615610a31575060016107ff565b6000610a3b612b71565b6001600160a01b0385166000908152600591909101602090815260408083208151606081018352815481526001909101546001600160801b0380821694830194909452600160801b9004909216908201529150610a96612b71565b6006016000866001600160a01b03166001600160a01b0316815260200190815260200160002090504282602001516001600160801b03161180610ae6575081604001516001600160801b03164210155b80610af75750610af581612bb7565b155b15610b07576000925050506107ff565b6000610b1e610b1960608701876147e4565b612bcd565b90506000610b2b83612bb7565b6001148015610b4c57506000610b418482612bc1565b6001600160a01b0316145b90506324f16c0560e11b6001600160e01b0319831601610bc357600080610b7e610b7960608a018a6147e4565b612c07565b9150915082610ba457610b918583612b95565b610ba457600096505050505050506107ff565b8551811115610bbc57600096505050505050506107ff565b5050610cc5565b635c0f12eb60e11b6001600160e01b0319831601610cb857600080610bf3610bee60608a018a6147e4565b612c6c565b509150915082610c5d5760005b8251811015610c5b57610c35838281518110610c1e57610c1e61482a565b602002602001015187612b9590919063ffffffff16565b610c495760009750505050505050506107ff565b80610c5381614856565b915050610c00565b505b60005b8251811015610cb057818181518110610c7b57610c7b61482a565b602002602001015187600001511015610c9e5760009750505050505050506107ff565b80610ca881614856565b915050610c60565b505050610cc5565b60009450505050506107ff565b5060019695505050505050565b6000610cdc612b71565b6001600160a01b03909216600090815260049290920160205250604090205460ff1690565b6000610d0b612cb9565b610d158484612d23565b9050610d2082612e69565b9392505050565b6001546001600160a01b0316331480610d445750610d4433610cd2565b610d905760405162461bcd60e51b815260206004820152601d60248201527f4163636f756e743a206e6f742061646d696e206f722055706b6565702e00000060448201526064016109ce565b600754600160a01b900460ff16610de95760405162461bcd60e51b815260206004820152601760248201527f4163636f756e743a20737570706c79207061757365642e00000000000000000060448201526064016109ce565b6040516370a0823160e01b81523060048201526000906001600160a01b038316906370a0823190602401602060405180830381865afa158015610e30573d6000803e3d6000fd5b505050506040513d601f19601f82011682018060405250810190610e54919061486f565b90506000610e65620f424083614888565b90506000610e7382846148aa565b600554604051632fe4a15f60e21b81523060048201529192506000916001600160a01b039091169063bf92857c9060240160c060405180830381865afa158015610ec1573d6000803e3d6000fd5b505050506040513d601f19601f82011682018060405250810190610ee591906148bd565b5050505091505060008311156110f857600081118015610f055750808311155b1561100c5760055460405163095ea7b360e01b81526001600160a01b038781169263095ea7b392610f3e92909116908790600401614907565b6020604051808303816000875af1158015610f5d573d6000803e3d6000fd5b505050506040513d601f19601f82011682018060405250810190610f819190614920565b5060055460405163573ade8160e01b81526001600160a01b03878116600483015260248201869052600260448301523060648301529091169063573ade81906084016020604051808303816000875af1158015610fe2573d6000803e3d6000fd5b505050506040513d601f19601f82011682018060405250810190611006919061486f565b506110f8565b60055460405163095ea7b360e01b81526001600160a01b038781169263095ea7b39261104092909116908790600401614907565b6020604051808303816000875af115801561105f573d6000803e3d6000fd5b505050506040513d601f19601f820116820180604052508101906110839190614920565b5060055460405163617ba03760e01b81526001600160a01b03878116600483015260248201869052306044830152600060648301529091169063617ba03790608401600060405180830381600087803b1580156110df57600080fd5b505af11580156110f3573d6000803e3d6000fd5b505050505b604080516002808252606082018352600092602083019080368337019050509050858160008151811061112d5761112d61482a565b6001600160a01b03928316602091820292909201015260025482519116908290600190811061115e5761115e61482a565b6001600160a01b0392831660209182029290920101526004805460405163095ea7b360e01b81528984169363095ea7b39361119f9390911691889101614907565b6020604051808303816000875af11580156111be573d6000803e3d6000fd5b505050506040513d601f19601f820116820180604052508101906111e29190614920565b50600480546040516338ed173960e01b81526060926001600160a01b03909216916338ed17399161121d91889182918891309142910161493d565b6000604051808303816000875af115801561123c573d6000803e3d6000fd5b505050506040513d6000823e601f3d908101601f191682016040526112649190810190614979565b9050806001815181106112795761127961482a565b602002602001015160008082825461129191906149fe565b909155505050505050505050565b6112a7611ecf565b6001600160a01b0316336001600160a01b031614806112ca57506112ca33610cd2565b6112e65760405162461bcd60e51b81526004016109ce90614a11565b6002546040516370a0823160e01b81523060048201526000916001600160a01b0316906370a0823190602401602060405180830381865afa15801561132f573d6000803e3d6000fd5b505050506040513d601f19601f82011682018060405250810190611353919061486f565b905061135d612eb6565b858214801561136b57508584145b6113b75760405162461bcd60e51b815260206004820152601d60248201527f4163636f756e743a2077726f6e67206172726179206c656e677468732e00000060448201526064016109ce565b60005b86811015611476576114638888838181106113d7576113d761482a565b90506020020160208101906113ec919061409d565b8787848181106113fe576113fe61482a565b905060200201358686858181106114175761141761482a565b905060200281019061142991906147e4565b8080601f016020809104026020016040519081016040528093929190818152602001838380828437600092019190915250612f9892505050565b508061146e81614856565b9150506113ba565b506002546040516370a0823160e01b81523060048201526000916001600160a01b0316906370a0823190602401602060405180830381865afa1580156114c0573d6000803e3d6000fd5b505050506040513d601f19601f820116820180604052508101906114e4919061486f565b90508181101561150e576114f881836148aa565b60008082825461150891906148aa565b90915550505b5050505050505050565b611520611ecf565b60405163b760faf960e01b81523060048201526001600160a01b03919091169063b760faf99034906024016000604051808303818588803b15801561156457600080fd5b505af1158015611578573d6000803e3d6000fd5b5050505050565b611587613009565b61158f611ecf565b6001600160a01b031663205c287883836040518363ffffffff1660e01b81526004016115bc929190614907565b600060405180830381600087803b1580156115d657600080fd5b505af11580156115ea573d6000803e3d6000fd5b505050505050565b6000611601602085018561409d565b90504261161460e0860160c08701614a69565b6001600160801b0316111580156116435750611637610100850160e08601614a69565b6001600160801b031642105b6116795760405162461bcd60e51b8152602060048201526007602482015266085c195c9a5bd960ca1b60448201526064016109ce565b600080611687868686611d09565b91509150816116c15760405162461bcd60e51b81526004016109ce906020808252600490820152632173696760e01b604082015260600190565b60016116cb612b71565b610100880135600090815260079190910160209081526040808320805460ff191694151594909417909355909161170791908901908901614a95565b60ff16111561173d5760006117226040880160208901614a95565b60ff1660011490506117348482613047565b50505050505050565b61174683610cd2565b1561177b5760405162461bcd60e51b815260206004820152600560248201526430b236b4b760d91b60448201526064016109ce565b61179083611787612b71565b60020190613143565b506040518060600160405280876060013581526020018760800160208101906117b99190614a69565b6001600160801b031681526020016117d760c0890160a08a01614a69565b6001600160801b031690526117ea612b71565b6001600160a01b03851660009081526005919091016020908152604080832084518155918401519301516001600160801b03908116600160801b0293169290921760019092019190915561186061183f612b71565b6001600160a01b038616600090815260069190910160205260409020613158565b805190915060005b818110156118ca576118b78382815181106118855761188561482a565b6020026020010151611895612b71565b6001600160a01b03891660009081526006919091016020526040902090613165565b506118c36001826149fe565b9050611868565b506118d86040890189614ab0565b9050905060005b81811015611959576119466118f760408b018b614ab0565b838181106119075761190761482a565b905060200201602081019061191c919061409d565b611924612b71565b6001600160a01b03891660009081526006919091016020526040902090613143565b506119526001826149fe565b90506118df565b506119638861317a565b846001600160a01b0316836001600160a01b03167ff21d10c26e35863a8df291aca54181ee8c4a3bc8e00246c3f7a5a14b69d826a78a6040516119a69190614b7f565b60405180910390a35050505050505050565b6000806119c3612b71565b6001600160a01b038416600090815260059190910160209081526040918290208251606081018452815481526001909101546001600160801b03808216938301849052600160801b90910416928101929092529091504210801590611a34575080604001516001600160801b031642105b8015610d2057506000611a69611a48612b71565b6001600160a01b038616600090815260069190910160205260409020612bb7565b119392505050565b60606000611a88611a80612b71565b600201613158565b80519091506000805b82811015611b1957611abb848281518110611aae57611aae61482a565b60200260200101516119b8565b15611ad25781611aca81614856565b925050611b07565b6000848281518110611ae657611ae661482a565b60200260200101906001600160a01b031690816001600160a01b0316815250505b611b126001826149fe565b9050611a91565b50806001600160401b03811115611b3257611b32613e78565b604051908082528060200260200182016040528015611b6b57816020015b611b58613e04565b815260200190600190039081611b505790505b5093506000805b83811015611cb05760006001600160a01b0316858281518110611b9757611b9761482a565b60200260200101516001600160a01b031614611c9e576000858281518110611bc157611bc161482a565b602002602001015190506000611bd5612b71565b6001600160a01b038316600081815260059290920160209081526040928390208351606081018552815481526001909101546001600160801b0380821683850152600160801b9091041681850152835160a081019094529183529092508101611c3f61183f612b71565b81526020018260000151815260200182602001516001600160801b0316815260200182604001516001600160801b0316815250888580611c7e90614856565b965081518110611c9057611c9061482a565b602002602001018190525050505b611ca96001826149fe565b9050611b72565b505050505090565b611cc0613218565b611cfd5760405162461bcd60e51b815260206004820152600e60248201526d139bdd08185d5d1a1bdc9a5e995960921b60448201526064016109ce565b611d0681613230565b50565b600080611d1f611d188661334f565b8585613493565b9050611d29612b71565b6101008601356000908152600791909101602052604090205460ff16158015611d565750611d5681610cd2565b9150935093915050565b6060816001600160401b03811115611d7a57611d7a613e78565b604051908082528060200260200182016040528015611dad57816020015b6060815260200190600190039081611d985790505b509050336000805b84811015611ec6578115611e3457611e1230878784818110611dd957611dd961482a565b9050602002810190611deb91906147e4565b86604051602001611dfe93929190614c78565b6040516020818303038152906040526134e5565b848281518110611e2457611e2461482a565b6020026020010181905250611eb4565b611e9630878784818110611e4a57611e4a61482a565b9050602002810190611e5c91906147e4565b8080601f0160208091040260200160405190810160405280939291908181526020018383808284376000920191909152506134e592505050565b848281518110611ea857611ea861482a565b60200260200101819052505b80611ebe81614856565b915050611db5565b50505092915050565b7f036f52c1827dab135f7fd44ca0bddde297e2f659c710e0ec53e975f22b548300546000906001600160a01b03168015611f0857919050565b7f000000000000000000000000000000000000000000000000000000000000000091505090565b6001546001600160a01b0316331480611f4c5750611f4c33610cd2565b611f985760405162461bcd60e51b815260206004820152601d60248201527f4163636f756e743a206e6f742061646d696e206f722055706b6565702e00000060448201526064016109ce565b6002546040516370a0823160e01b81523060048201526000916001600160a01b0316906370a0823190602401602060405180830381865afa158015611fe1573d6000803e3d6000fd5b505050506040513d601f19601f82011682018060405250810190612005919061486f565b9050600061201b670de0b6b3a764000083614888565b60025460065460405163095ea7b360e01b81529293506001600160a01b039182169263095ea7b3926120539216908590600401614907565b6020604051808303816000875af1158015612072573d6000803e3d6000fd5b505050506040513d601f19601f820116820180604052508101906120969190614920565b50600654604051636e553f6560e01b8152600481018390523060248201526001600160a01b0390911690636e553f65906044016020604051808303816000875af11580156120e8573d6000803e3d6000fd5b505050506040513d601f19601f8201168201806040525081019061210c919061486f565b506002546040516370a0823160e01b81523060048201526001600160a01b03909116906370a0823190602401602060405180830381865afa158015612155573d6000803e3d6000fd5b505050506040513d601f19601f82011682018060405250810190612179919061486f565b6000555050565b612188611ecf565b6001600160a01b0316336001600160a01b031614806121ab57506121ab33610cd2565b6121c75760405162461bcd60e51b81526004016109ce90614a11565b6002546040516370a0823160e01b81523060048201526000916001600160a01b0316906370a0823190602401602060405180830381865afa158015612210573d6000803e3d6000fd5b505050506040513d601f19601f82011682018060405250810190612234919061486f565b905061223e612eb6565b6007546001600160a01b03908116908616036122625761225d8461350a565b6122a5565b6122a3858585858080601f016020809104026020016040519081016040528093929190818152602001838380828437600092019190915250612f9892505050565b505b6002546040516370a0823160e01b81523060048201526000916001600160a01b0316906370a0823190602401602060405180830381865afa1580156122ee573d6000803e3d6000fd5b505050506040513d601f19601f82011682018060405250810190612312919061486f565b9050818110156115ea5761232681836148aa565b60008082825461233691906148aa565b9091555050505050505050565b61234b613009565b7f036f52c1827dab135f7fd44ca0bddde297e2f659c710e0ec53e975f22b54830080546001600160a01b0319166001600160a01b0392909216919091179055565b6000612396611ecf565b604051631aab3f0d60e11b8152306004820152600060248201526001600160a01b0391909116906335567e1a90604401602060405180830381865afa1580156123e3573d6000803e3d6000fd5b505050506040513d601f19601f82011682018060405250810190612407919061486f565b905090565b6000805160206150cf8339815191525460ff80821691610100900416801580801561243a575060018360ff16105b806124525750303b15801561245257508260ff166001145b6124b55760405162461bcd60e51b815260206004820152602e60248201527f496e697469616c697a61626c653a20636f6e747261637420697320616c72656160448201526d191e481a5b9a5d1a585b1a5e995960921b60648201526084016109ce565b6000805160206150cf833981519152805460ff1916600117905580156124f2576000805160206150cf833981519152805461ff0019166101001790555b6125328686868080601f0160208091040260200160405190810160405280939291908181526020018383808284376000920191909152506137c492505050565b6000805160206150af8339815191525561254d866001613047565b600180546001600160a01b031990811633179091556007805460028054841673c4bf5cbdabe595361438f8c6a187bdc330539c601790556003805484167394a9d9ac8a22534e3faca9f4e7f2e2cf85d5e4c817905560048054841673c51afe94b5931894f92a7d8f2d628985ffe4c9f9179055600580548416736ae43d3271ff6888e7fc43fd7321a503ff7389511790556006805490931673ca324eb66adda0b9612d3cf40cc1ddb50bbb756d1790925574013b1356916ba1d5e2b78dc0bc4fbb0ae33353fa126001600160a81b031990921691909117905580156115ea576000805160206150cf833981519152805461ff0019169055604080516001815290517f7f26b83ff96e1f2b6a682f133852f6798a09c465da95921460cefb38474024989181900360200190a1505050505050565b6060600061268f611a80612b71565b8051909150806001600160401b038111156126ac576126ac613e78565b6040519080825280602002602001820160405280156126e557816020015b6126d2613e04565b8152602001906001900390816126ca5790505b50925060005b818110156127eb5760008382815181106127075761270761482a565b60200260200101519050600061271b612b71565b6001600160a01b038316600081815260059290920160209081526040928390208351606081018552815481526001909101546001600160801b0380821683850152600160801b9091041681850152835160a08101909452918352909250810161278561183f612b71565b81526020018260000151815260200182602001516001600160801b0316815260200182604001516001600160801b03168152508684815181106127ca576127ca61482a565b602002602001018190525050506001816127e491906149fe565b90506126eb565b50505090565b60607f4bc804ba64359c0e35e5ed5d90ee596ecaa49a3a930ddcb1470ea0dd625da900805461281f90614c9e565b80601f016020809104026020016040519081016040528092919081815260200182805461284b90614c9e565b80156128985780601f1061286d57610100808354040283529160200191612898565b820191906000526020600020905b81548152906001019060200180831161287b57829003601f168201915b5050505050905090565b60606124076128af612b71565b613158565b6128bc611ecf565b6001600160a01b0316336001600160a01b031614806128df57506128df33610cd2565b6128fb5760405162461bcd60e51b81526004016109ce90614a11565b60078054911515600160a01b0260ff60a01b19909216919091179055565b612921613e04565b600061292b612b71565b6001600160a01b038416600081815260059290920160209081526040928390208351606081018552815481526001909101546001600160801b0380821683850152600160801b9091041681850152835160a0810190945291835290925081016129b6612995612b71565b6001600160a01b038716600090815260069190910160205260409020613158565b81526020018260000151815260200182602001516001600160801b0316815260200182604001516001600160801b0316815250915050919050565b60006001600160e01b03198216630271189760e51b14806107ff57506301ffc9a760e01b6001600160e01b03198316146107ff565b6000306001600160a01b037f000000000000000000000000000000000000000000000000000000000000000016148015612a7f57507f000000000000000000000000000000000000000000000000000000000000000046145b15612aa957507f000000000000000000000000000000000000000000000000000000000000000090565b50604080517f00000000000000000000000000000000000000000000000000000000000000006020808301919091527f0000000000000000000000000000000000000000000000000000000000000000828401527f000000000000000000000000000000000000000000000000000000000000000060608301524660808301523060a0808401919091528351808403909101815260c0909201909252805191012090565b6000806000612b5c85856137f7565b91509150612b698161383c565b509392505050565b7f3181e78fc1b109bc611fd2406150bf06e33faa75f71cba12c3e1fd670f2def0090565b6001600160a01b03811660009081526001830160205260408120541515610d20565b60006107ff825490565b6000610d208383613986565b60006004821015612bf05760405162461bcd60e51b81526004016109ce90614cd2565b612bfe600460008486614cf1565b610d2091614d1b565b6000806044831015612c2b5760405162461bcd60e51b81526004016109ce90614cd2565b612c39602460048587614cf1565b810190612c46919061409d565b9150612c56604460248587614cf1565b810190612c639190614d4b565b90509250929050565b606080806064841015612c915760405162461bcd60e51b81526004016109ce90614cd2565b612c9e8460048188614cf1565b810190612cab9190614de3565b919790965090945092505050565b612cc1611ecf565b6001600160a01b0316336001600160a01b031614612d215760405162461bcd60e51b815260206004820152601c60248201527f6163636f756e743a206e6f742066726f6d20456e747279506f696e740000000060448201526064016109ce565b565b7f19457468657265756d205369676e6564204d6573736167653a0a3332000000006000908152601c829052603c81206000612da2612d656101408701876147e4565b8080601f0160208091040260200160405190810160405280939291908181526020018383808284376000920191909152508693925050612b4d9050565b9050612dae81866109fa565b612dbd576001925050506107ff565b6000612dc7612b71565b6001600160a01b03929092166000908152600590920160209081526040808420815160608082018452825482526001909201546001600160801b0380821683870152600160801b8204908116928501929092528351928301845295825265ffffffffffff8087169483019490945292831691015260d09290921b6001600160d01b03191660a09290921b65ffffffffffff60a01b169190911795945050505050565b8015611d0657604051600090339060001990849084818181858888f193505050503d8060008114611578576040519150601f19603f3d011682016040523d82523d6000602084013e611578565b60405163c3c5a54760e01b81523060048201527f0000000000000000000000000000000000000000000000000000000000000000906001600160a01b0382169063c3c5a54790602401602060405180830381865afa158015612f1c573d6000803e3d6000fd5b505050506040513d601f19601f82011682018060405250810190612f409190614920565b611d06576000805160206150af833981519152546040516320e80fe360e21b815260048101919091526001600160a01b038216906383a03f8c906024015b600060405180830381600087803b15801561156457600080fd5b60606000846001600160a01b03168484604051612fb59190614ec8565b60006040518083038185875af1925050503d8060008114612ff2576040519150601f19603f3d011682016040523d82523d6000602084013e612ff7565b606091505b509250905080612b6957815160208301fd5b61301233610cd2565b612d215760405162461bcd60e51b815260206004820152600660248201526510b0b236b4b760d11b60448201526064016109ce565b61305182826139b0565b6001600160a01b037f0000000000000000000000000000000000000000000000000000000000000000163b1561313f5780156130e3576000805160206150af83398151915254604051630b61e12b60e01b81527f00000000000000000000000000000000000000000000000000000000000000006001600160a01b031691630b61e12b916115bc918691600401614907565b6000805160206150af833981519152546040516301270f4760e71b81527f00000000000000000000000000000000000000000000000000000000000000006001600160a01b031691639387a380916115bc918691600401614907565b5050565b6000610d20836001600160a01b038416613a5f565b60606000610d2083613aae565b6000610d20836001600160a01b038416613b0a565b6001600160a01b037f0000000000000000000000000000000000000000000000000000000000000000163b15611d06576001600160a01b037f000000000000000000000000000000000000000000000000000000000000000016630b61e12b6131e6602084018461409d565b6000805160206150af833981519152546040516001600160e01b031960e085901b168152612f7e929190600401614907565b600061322333610cd2565b8061240757505030331490565b60007f4bc804ba64359c0e35e5ed5d90ee596ecaa49a3a930ddcb1470ea0dd625da900805461325e90614c9e565b80601f016020809104026020016040519081016040528092919081815260200182805461328a90614c9e565b80156132d75780601f106132ac576101008083540402835291602001916132d7565b820191906000526020600020905b8154815290600101906020018083116132ba57829003601f168201915b50505050509050816133067f4bc804ba64359c0e35e5ed5d90ee596ecaa49a3a930ddcb1470ea0dd625da90090565b906133119082614f2f565b507fc9c7c3fe08b88b4df9d4d47ef47d2c43d55c025a0ba88ca442580ed9e7348a168183604051613343929190614fee565b60405180910390a15050565b60607f3fd4a1a1a267c84185e3b7eecd57c68783c0581d538b9d6e5f23e4670497c1e961337f602084018461409d565b61338f6040850160208601614a95565b61339c6040860186614ab0565b6040516020016133ad92919061501c565b60408051601f19818403018152919052805160209091012060608601356133da60a0880160808901614a69565b6133ea60c0890160a08a01614a69565b6133fa60e08a0160c08b01614a69565b61340b6101008b0160e08c01614a69565b60408051602081019a909a526001600160a01b039098169789019790975260ff9095166060880152608087019390935260a08601919091526001600160801b0390811660c086015290811660e0850152908116610100848101919091529116610120830152830135610140820152610160016040516020818303038152906040529050919050565b60006108b283838080601f01602080910402602001604051908101604052809392919081815260200183838082843760009201919091525050875160208901206134df92509050613bfd565b90612b4d565b6060610d2083836040518060600160405280602781526020016150ef60279139613c2a565b604080516002808252606082018352600092602083019080368337505060025482519293506001600160a01b03169183915060009061354b5761354b61482a565b6001600160a01b03928316602091820292909201015260035482519116908290600190811061357c5761357c61482a565b6001600160a01b0392831660209182029290920101526002546004805460405163095ea7b360e01b81529284169363095ea7b3936135c1939290911691879101614907565b6020604051808303816000875af11580156135e0573d6000803e3d6000fd5b505050506040513d601f19601f820116820180604052508101906136049190614920565b50600480546040516338ed173960e01b81526060926001600160a01b03909216916338ed17399161363f91879182918891309142910161493d565b6000604051808303816000875af115801561365e573d6000803e3d6000fd5b505050506040513d6000823e601f3d908101601f191682016040526136869190810190614979565b60035460055482519293506001600160a01b039182169263095ea7b39290911690849060019081106136ba576136ba61482a565b60200260200101516040518363ffffffff1660e01b81526004016136df929190614907565b6020604051808303816000875af11580156136fe573d6000803e3d6000fd5b505050506040513d601f19601f820116820180604052508101906137229190614920565b5060055460035482516001600160a01b039283169263617ba037921690849060019081106137525761375261482a565b60209081029190910101516040516001600160e01b031960e085901b1681526001600160a01b039092166004830152602482015230604482015260006064820152608401600060405180830381600087803b1580156137b057600080fd5b505af1158015611734573d6000803e3d6000fd5b600082826040516020016137d992919061505e565b60405160208183030381529060405280519060200120905092915050565b600080825160410361382d5760208301516040840151606085015160001a61382187828585613ca2565b94509450505050613835565b506000905060025b9250929050565b600081600481111561385057613850615082565b036138585750565b600181600481111561386c5761386c615082565b036138b95760405162461bcd60e51b815260206004820152601860248201527f45434453413a20696e76616c6964207369676e6174757265000000000000000060448201526064016109ce565b60028160048111156138cd576138cd615082565b0361391a5760405162461bcd60e51b815260206004820152601f60248201527f45434453413a20696e76616c6964207369676e6174757265206c656e6774680060448201526064016109ce565b600381600481111561392e5761392e615082565b03611d065760405162461bcd60e51b815260206004820152602260248201527f45434453413a20696e76616c6964207369676e6174757265202773272076616c604482015261756560f01b60648201526084016109ce565b600082600001828154811061399d5761399d61482a565b9060005260206000200154905092915050565b806139b9612b71565b6001600160a01b038416600090815260049190910160205260409020805460ff19169115159190911790558015613a02576139fc826139f6612b71565b90613143565b50613a16565b613a1482613a0e612b71565b90613165565b505b816001600160a01b03167f235bc17e7930760029e9f4d860a2a8089976de5b381cf8380fc11c1d88a1113382604051613a53911515815260200190565b60405180910390a25050565b6000818152600183016020526040812054613aa6575081546001818101845560008481526020808220909301849055845484825282860190935260409020919091556107ff565b5060006107ff565b606081600001805480602002602001604051908101604052809291908181526020018280548015613afe57602002820191906000526020600020905b815481526020019060010190808311613aea575b50505050509050919050565b60008181526001830160205260408120548015613bf3576000613b2e6001836148aa565b8554909150600090613b42906001906148aa565b9050818114613ba7576000866000018281548110613b6257613b6261482a565b9060005260206000200154905080876000018481548110613b8557613b8561482a565b6000918252602080832090910192909255918252600188019052604090208390555b8554869080613bb857613bb8615098565b6001900381819060005260206000200160009055905585600101600086815260200190815260200160002060009055600193505050506107ff565b60009150506107ff565b60006107ff613c0a612a26565b8360405161190160f01b8152600281019290925260228201526042902090565b6060600080856001600160a01b031685604051613c479190614ec8565b600060405180830381855af49150503d8060008114613c82576040519150601f19603f3d011682016040523d82523d6000602084013e613c87565b606091505b5091509150613c9886838387613d66565b9695505050505050565b6000807f7fffffffffffffffffffffffffffffff5d576e7357a4501ddfe92f46681b20a0831115613cd95750600090506003613d5d565b6040805160008082526020820180845289905260ff881692820192909252606081018690526080810185905260019060a0016020604051602081039080840390855afa158015613d2d573d6000803e3d6000fd5b5050604051601f1901519150506001600160a01b038116613d5657600060019250925050613d5d565b9150600090505b94509492505050565b60608315613dd5578251600003613dce576001600160a01b0385163b613dce5760405162461bcd60e51b815260206004820152601d60248201527f416464726573733a2063616c6c20746f206e6f6e2d636f6e747261637400000060448201526064016109ce565b50816108b2565b6108b28383815115613dea5781518083602001fd5b8060405162461bcd60e51b81526004016109ce91906146d4565b6040518060a0016040528060006001600160a01b03168152602001606081526020016000815260200160006001600160801b0316815260200160006001600160801b031681525090565b600060208284031215613e6057600080fd5b81356001600160e01b031981168114610d2057600080fd5b634e487b7160e01b600052604160045260246000fd5b604051601f8201601f191681016001600160401b0381118282101715613eb657613eb6613e78565b604052919050565b60006001600160401b03831115613ed757613ed7613e78565b613eea601f8401601f1916602001613e8e565b9050828152838383011115613efe57600080fd5b828260208301376000602084830101529392505050565b600082601f830112613f2657600080fd5b610d2083833560208501613ebe565b600060208284031215613f4757600080fd5b81356001600160401b03811115613f5d57600080fd5b6108b284828501613f15565b6001600160a01b0381168114611d0657600080fd5b8035613f8981613f69565b919050565b60008060008060808587031215613fa457600080fd5b8435613faf81613f69565b93506020850135613fbf81613f69565b92506040850135915060608501356001600160401b03811115613fe157600080fd5b613fed87828801613f15565b91505092959194509250565b6000806040838503121561400c57600080fd5b8235915060208301356001600160401b0381111561402957600080fd5b61403585828601613f15565b9150509250929050565b6000610160828403121561405257600080fd5b50919050565b6000806040838503121561406b57600080fd5b823561407681613f69565b915060208301356001600160401b0381111561409157600080fd5b6140358582860161403f565b6000602082840312156140af57600080fd5b8135610d2081613f69565b6000806000606084860312156140cf57600080fd5b83356001600160401b038111156140e557600080fd5b6140f18682870161403f565b9660208601359650604090950135949350505050565b60008083601f84011261411957600080fd5b5081356001600160401b0381111561413057600080fd5b6020830191508360208260051b850101111561383557600080fd5b6000806000806000806060878903121561416457600080fd5b86356001600160401b038082111561417b57600080fd5b6141878a838b01614107565b909850965060208901359150808211156141a057600080fd5b6141ac8a838b01614107565b909650945060408901359150808211156141c557600080fd5b506141d289828a01614107565b979a9699509497509295939492505050565b600080604083850312156141f757600080fd5b823561420281613f69565b946020939093013593505050565b60008083601f84011261422257600080fd5b5081356001600160401b0381111561423957600080fd5b60208301915083602082850101111561383557600080fd5b60008060006040848603121561426657600080fd5b83356001600160401b038082111561427d57600080fd5b90850190610120828803121561429257600080fd5b909350602085013590808211156142a857600080fd5b506142b586828701614210565b9497909650939450505050565b80516001600160a01b03908116835260208083015160a082860181905281519086018190526000939183019290849060c08801905b80831015614319578551851682529483019460019290920191908301906142f7565b50604087015160408901526060870151945061434060608901866001600160801b03169052565b6080870151945061435c60808901866001600160801b03169052565b979650505050505050565b6000602080830181845280855180835260408601915060408160051b870101925083870160005b828110156143bc57603f198886030184526143aa8583516142c2565b9450928501929085019060010161438e565b5092979650505050505050565b6000602082840312156143db57600080fd5b81356001600160401b038111156143f157600080fd5b8201601f8101841361440257600080fd5b6108b284823560208401613ebe565b6000806020838503121561442457600080fd5b82356001600160401b0381111561443a57600080fd5b61444685828601614107565b90969095509350505050565b60005b8381101561446d578181015183820152602001614455565b50506000910152565b6000815180845261448e816020860160208601614452565b601f01601f19169290920160200192915050565b6000602080830181845280855180835260408601915060408160051b870101925083870160005b828110156143bc57603f198886030184526144e5858351614476565b945092850192908501906001016144c9565b6000806000806060858703121561450d57600080fd5b843561451881613f69565b93506020850135925060408501356001600160401b0381111561453a57600080fd5b61454687828801614210565b95989497509550505050565b60006001600160401b0382111561456b5761456b613e78565b5060051b60200190565b600082601f83011261458657600080fd5b8135602061459b61459683614552565b613e8e565b82815260059290921b840181019181810190868411156145ba57600080fd5b8286015b848110156145d557803583529183019183016145be565b509695505050505050565b600080600080600060a086880312156145f857600080fd5b853561460381613f69565b9450602086013561461381613f69565b935060408601356001600160401b038082111561462f57600080fd5b61463b89838a01614575565b9450606088013591508082111561465157600080fd5b61465d89838a01614575565b9350608088013591508082111561467357600080fd5b5061468088828901613f15565b9150509295509295909350565b6000806000604084860312156146a257600080fd5b83356146ad81613f69565b925060208401356001600160401b038111156146c857600080fd5b6142b586828701614210565b602081526000610d206020830184614476565b600081518084526020808501945080840160005b838110156147205781516001600160a01b0316875295820195908201906001016146fb565b509495945050505050565b602081526000610d2060208301846146e7565b8015158114611d0657600080fd5b60006020828403121561475e57600080fd5b8135610d208161473e565b602081526000610d2060208301846142c2565b600080600080600060a0868803121561479457600080fd5b853561479f81613f69565b945060208601356147af81613f69565b9350604086013592506060860135915060808601356001600160401b038111156147d857600080fd5b61468088828901613f15565b6000808335601e198436030181126147fb57600080fd5b8301803591506001600160401b0382111561481557600080fd5b60200191503681900382131561383557600080fd5b634e487b7160e01b600052603260045260246000fd5b634e487b7160e01b600052601160045260246000fd5b60006001820161486857614868614840565b5060010190565b60006020828403121561488157600080fd5b5051919050565b6000826148a557634e487b7160e01b600052601260045260246000fd5b500690565b818103818111156107ff576107ff614840565b60008060008060008060c087890312156148d657600080fd5b865195506020870151945060408701519350606087015192506080870151915060a087015190509295509295509295565b6001600160a01b03929092168252602082015260400190565b60006020828403121561493257600080fd5b8151610d208161473e565b85815284602082015260a06040820152600061495c60a08301866146e7565b6001600160a01b0394909416606083015250608001529392505050565b6000602080838503121561498c57600080fd5b82516001600160401b038111156149a257600080fd5b8301601f810185136149b357600080fd5b80516149c161459682614552565b81815260059190911b820183019083810190878311156149e057600080fd5b928401925b8284101561435c578351825292840192908401906149e5565b808201808211156107ff576107ff614840565b60208082526021908201527f4163636f756e743a206e6f742061646d696e206f7220456e747279506f696e746040820152601760f91b606082015260800190565b80356001600160801b0381168114613f8957600080fd5b600060208284031215614a7b57600080fd5b610d2082614a52565b803560ff81168114613f8957600080fd5b600060208284031215614aa757600080fd5b610d2082614a84565b6000808335601e19843603018112614ac757600080fd5b8301803591506001600160401b03821115614ae157600080fd5b6020019150600581901b360382131561383557600080fd5b6000808335601e19843603018112614b1057600080fd5b83016020810192503590506001600160401b03811115614b2f57600080fd5b8060051b360382131561383557600080fd5b8183526000602080850194508260005b85811015614720578135614b6481613f69565b6001600160a01b031687529582019590820190600101614b51565b60208152614ba060208201614b9384613f7e565b6001600160a01b03169052565b6000614bae60208401614a84565b60ff8116604084015250614bc56040840184614af9565b610120806060860152614bdd61014086018385614b41565b925060608601356080860152614bf560808701614a52565b6001600160801b03811660a08701529150614c1260a08701614a52565b6001600160801b03811660c08701529150614c2f60c08701614a52565b6001600160801b03811660e08701529150614c4c60e08701614a52565b9150610100614c65818701846001600160801b03169052565b9590950135939094019290925250919050565b8284823760609190911b6bffffffffffffffffffffffff19169101908152601401919050565b600181811c90821680614cb257607f821691505b60208210810361405257634e487b7160e01b600052602260045260246000fd5b602080825260059082015264214461746160d81b604082015260600190565b60008085851115614d0157600080fd5b83861115614d0e57600080fd5b5050820193919092039150565b6001600160e01b03198135818116916004851015614d435780818660040360031b1b83161692505b505092915050565b600060208284031215614d5d57600080fd5b5035919050565b600082601f830112614d7557600080fd5b81356020614d8561459683614552565b82815260059290921b84018101918181019086841115614da457600080fd5b8286015b848110156145d55780356001600160401b03811115614dc75760008081fd5b614dd58986838b0101613f15565b845250918301918301614da8565b600080600060608486031215614df857600080fd5b83356001600160401b0380821115614e0f57600080fd5b818601915086601f830112614e2357600080fd5b81356020614e3361459683614552565b82815260059290921b8401810191818101908a841115614e5257600080fd5b948201945b83861015614e79578535614e6a81613f69565b82529482019490820190614e57565b97505087013592505080821115614e8f57600080fd5b614e9b87838801614575565b93506040860135915080821115614eb157600080fd5b50614ebe86828701614d64565b9150509250925092565b60008251614eda818460208701614452565b9190910192915050565b601f821115614f2a57600081815260208120601f850160051c81016020861015614f0b5750805b601f850160051c820191505b818110156115ea57828155600101614f17565b505050565b81516001600160401b03811115614f4857614f48613e78565b614f5c81614f568454614c9e565b84614ee4565b602080601f831160018114614f915760008415614f795750858301515b600019600386901b1c1916600185901b1785556115ea565b600085815260208120601f198616915b82811015614fc057888601518255948401946001909101908401614fa1565b5085821015614fde5787850151600019600388901b60f8161c191681555b5050505050600190811b01905550565b6040815260006150016040830185614476565b82810360208401526150138185614476565b95945050505050565b60008184825b8581101561505357813561503581613f69565b6001600160a01b031683526020928301929190910190600101615022565b509095945050505050565b6001600160a01b03831681526040602082018190526000906108b290830184614476565b634e487b7160e01b600052602160045260246000fd5b634e487b7160e01b600052603160045260246000fdfe036f52c1827dab135f7fd44ca0bddde297e2f659c710e0ec53e975f22b548301322cf19c484104d3b1a9c2982ebae869ede3fa5f6c4703ca41b9a48c76ee0300416464726573733a206c6f772d6c6576656c2064656c65676174652063616c6c206661696c6564a26469706673582212208875ab18452820bfb559ef9128fa46f1796ba0620624b5a011042e7d39256f6364736f6c63430008140033",
    "linkReferences": {}
  },
  "methodIdentifiers": {
    "aavePool()": "a03e4bc3",
    "addDeposit()": "4a58db19",
    "allowedSupply()": "9934cdb1",
    "automationUpkeep()": "29245414",
    "contractURI()": "e8a3d485",
    "defaultToken()": "74c13fda",
    "entryPoint()": "b0d691fe",
    "execute(address,uint256,bytes)": "b61d27f6",
    "executeBatch(address[],uint256[],bytes[])": "47e1da2a",
    "executeSupplyToVault()": "b2836277",
    "executeSwapAndSupply(address)": "3dd6e025",
    "factory()": "c45a0155",
    "getAllActiveSigners()": "8b52d723",
    "getAllAdmins()": "e9523c97",
    "getAllSigners()": "d42f2f35",
    "getMessageHash(bytes)": "0a1028c4",
    "getNonce()": "d087d288",
    "getPermissionsForSigner(address)": "f15d424e",
    "ghoThreshold()": "4e11f6a5",
    "initialize(address,bytes)": "d1f57894",
    "isActiveSigner(address)": "7dff5a79",
    "isAdmin(address)": "24d7806c",
    "isValidSignature(bytes32,bytes)": "1626ba7e",
    "isValidSigner(address,(address,uint256,bytes,bytes,uint256,uint256,uint256,uint256,uint256,bytes,bytes))": "1dd756c5",
    "multicall(bytes[])": "ac9650d8",
    "onERC1155BatchReceived(address,address,uint256[],uint256[],bytes)": "bc197c81",
    "onERC1155Received(address,address,uint256,uint256,bytes)": "f23a6e61",
    "onERC721Received(address,address,uint256,bytes)": "150b7a02",
    "setAllowedSupply(bool)": "ec1afaaa",
    "setContractURI(string)": "938e3d7b",
    "setEntrypointOverride(address)": "b76464d5",
    "setPermissionsForSigner((address,uint8,address[],uint256,uint128,uint128,uint128,uint128,bytes32),bytes)": "5892e236",
    "supplyAndSwapTrigger()": "0db796e9",
    "supportsInterface(bytes4)": "01ffc9a7",
    "uniswapRouter()": "735de9f7",
    "usdcToken()": "11eac855",
    "validateUserOp((address,uint256,bytes,bytes,uint256,uint256,uint256,uint256,uint256,bytes,bytes),bytes32,uint256)": "3a871cdd",
    "vault()": "fbfa77cf",
    "verifySignerPermissionRequest((address,uint8,address[],uint256,uint128,uint128,uint128,uint128,bytes32),bytes)": "a9082d84",
    "withdrawDepositTo(address,uint256)": "4d44560d"
  },
  "id": 75
}