{
  "abi": [
    {
      "inputs": [
        {
          "internalType": "contract IEntryPoint",
          "name": "_entrypoint",
          "type": "address"
        },
        {
          "internalType": "address",
          "name": "_factory",
          "type": "address"
        }
      ],
      "stateMutability": "nonpayable",
      "type": "constructor"
    },
    {
      "anonymous": false,
      "inputs": [
        {
          "indexed": true,
          "internalType": "address",
          "name": "signer",
          "type": "address"
        },
        {
          "indexed": false,
          "internalType": "bool",
          "name": "isAdmin",
          "type": "bool"
        }
      ],
      "name": "AdminUpdated",
      "type": "event"
    },
    {
      "anonymous": false,
      "inputs": [
        {
          "indexed": false,
          "internalType": "string",
          "name": "prevURI",
          "type": "string"
        },
        {
          "indexed": false,
          "internalType": "string",
          "name": "newURI",
          "type": "string"
        }
      ],
      "name": "ContractURIUpdated",
      "type": "event"
    },
    {
      "anonymous": false,
      "inputs": [
        {
          "indexed": false,
          "internalType": "uint8",
          "name": "version",
          "type": "uint8"
        }
      ],
      "name": "Initialized",
      "type": "event"
    },
    {
      "anonymous": false,
      "inputs": [
        {
          "indexed": true,
          "internalType": "address",
          "name": "authorizingSigner",
          "type": "address"
        },
        {
          "indexed": true,
          "internalType": "address",
          "name": "targetSigner",
          "type": "address"
        },
        {
          "components": [
            {
              "internalType": "address",
              "name": "signer",
              "type": "address"
            },
            {
              "internalType": "uint8",
              "name": "isAdmin",
              "type": "uint8"
            },
            {
              "internalType": "address[]",
              "name": "approvedTargets",
              "type": "address[]"
            },
            {
              "internalType": "uint256",
              "name": "nativeTokenLimitPerTransaction",
              "type": "uint256"
            },
            {
              "internalType": "uint128",
              "name": "permissionStartTimestamp",
              "type": "uint128"
            },
            {
              "internalType": "uint128",
              "name": "permissionEndTimestamp",
              "type": "uint128"
            },
            {
              "internalType": "uint128",
              "name": "reqValidityStartTimestamp",
              "type": "uint128"
            },
            {
              "internalType": "uint128",
              "name": "reqValidityEndTimestamp",
              "type": "uint128"
            },
            {
              "internalType": "bytes32",
              "name": "uid",
              "type": "bytes32"
            }
          ],
          "indexed": false,
          "internalType": "struct IAccountPermissions.SignerPermissionRequest",
          "name": "permissions",
          "type": "tuple"
        }
      ],
      "name": "SignerPermissionsUpdated",
      "type": "event"
    },
    {
      "inputs": [],
      "name": "aavePool",
      "outputs": [
        {
          "internalType": "address",
          "name": "",
          "type": "address"
        }
      ],
      "stateMutability": "view",
      "type": "function"
    },
    {
      "inputs": [],
      "name": "addDeposit",
      "outputs": [],
      "stateMutability": "payable",
      "type": "function"
    },
    {
      "inputs": [],
      "name": "allowedSupply",
      "outputs": [
        {
          "internalType": "bool",
          "name": "",
          "type": "bool"
        }
      ],
      "stateMutability": "view",
      "type": "function"
    },
    {
      "inputs": [],
      "name": "automationUpkeep",
      "outputs": [
        {
          "internalType": "address",
          "name": "",
          "type": "address"
        }
      ],
      "stateMutability": "view",
      "type": "function"
    },
    {
      "inputs": [],
      "name": "contractURI",
      "outputs": [
        {
          "internalType": "string",
          "name": "",
          "type": "string"
        }
      ],
      "stateMutability": "view",
      "type": "function"
    },
    {
      "inputs": [],
      "name": "defaultToken",
      "outputs": [
        {
          "internalType": "address",
          "name": "",
          "type": "address"
        }
      ],
      "stateMutability": "view",
      "type": "function"
    },
    {
      "inputs": [],
      "name": "entryPoint",
      "outputs": [
        {
          "internalType": "contract IEntryPoint",
          "name": "",
          "type": "address"
        }
      ],
      "stateMutability": "view",
      "type": "function"
    },
    {
      "inputs": [
        {
          "internalType": "address",
          "name": "_target",
          "type": "address"
        },
        {
          "internalType": "uint256",
          "name": "_value",
          "type": "uint256"
        },
        {
          "internalType": "bytes",
          "name": "_calldata",
          "type": "bytes"
        }
      ],
      "name": "execute",
      "outputs": [],
      "stateMutability": "nonpayable",
      "type": "function"
    },
    {
      "inputs": [
        {
          "internalType": "address[]",
          "name": "_target",
          "type": "address[]"
        },
        {
          "internalType": "uint256[]",
          "name": "_value",
          "type": "uint256[]"
        },
        {
          "internalType": "bytes[]",
          "name": "_calldata",
          "type": "bytes[]"
        }
      ],
      "name": "executeBatch",
      "outputs": [],
      "stateMutability": "nonpayable",
      "type": "function"
    },
    {
      "inputs": [],
      "name": "executeSupplyToVault",
      "outputs": [],
      "stateMutability": "nonpayable",
      "type": "function"
    },
    {
      "inputs": [
        {
          "internalType": "address",
          "name": "token",
          "type": "address"
        }
      ],
      "name": "executeSwapAndSupply",
      "outputs": [],
      "stateMutability": "nonpayable",
      "type": "function"
    },
    {
      "inputs": [],
      "name": "factory",
      "outputs": [
        {
          "internalType": "address",
          "name": "",
          "type": "address"
        }
      ],
      "stateMutability": "view",
      "type": "function"
    },
    {
      "inputs": [],
      "name": "getAllActiveSigners",
      "outputs": [
        {
          "components": [
            {
              "internalType": "address",
              "name": "signer",
              "type": "address"
            },
            {
              "internalType": "address[]",
              "name": "approvedTargets",
              "type": "address[]"
            },
            {
              "internalType": "uint256",
              "name": "nativeTokenLimitPerTransaction",
              "type": "uint256"
            },
            {
              "internalType": "uint128",
              "name": "startTimestamp",
              "type": "uint128"
            },
            {
              "internalType": "uint128",
              "name": "endTimestamp",
              "type": "uint128"
            }
          ],
          "internalType": "struct IAccountPermissions.SignerPermissions[]",
          "name": "signers",
          "type": "tuple[]"
        }
      ],
      "stateMutability": "view",
      "type": "function"
    },
    {
      "inputs": [],
      "name": "getAllAdmins",
      "outputs": [
        {
          "internalType": "address[]",
          "name": "",
          "type": "address[]"
        }
      ],
      "stateMutability": "view",
      "type": "function"
    },
    {
      "inputs": [],
      "name": "getAllSigners",
      "outputs": [
        {
          "components": [
            {
              "internalType": "address",
              "name": "signer",
              "type": "address"
            },
            {
              "internalType": "address[]",
              "name": "approvedTargets",
              "type": "address[]"
            },
            {
              "internalType": "uint256",
              "name": "nativeTokenLimitPerTransaction",
              "type": "uint256"
            },
            {
              "internalType": "uint128",
              "name": "startTimestamp",
              "type": "uint128"
            },
            {
              "internalType": "uint128",
              "name": "endTimestamp",
              "type": "uint128"
            }
          ],
          "internalType": "struct IAccountPermissions.SignerPermissions[]",
          "name": "signers",
          "type": "tuple[]"
        }
      ],
      "stateMutability": "view",
      "type": "function"
    },
    {
      "inputs": [
        {
          "internalType": "bytes",
          "name": "message",
          "type": "bytes"
        }
      ],
      "name": "getMessageHash",
      "outputs": [
        {
          "internalType": "bytes32",
          "name": "",
          "type": "bytes32"
        }
      ],
      "stateMutability": "view",
      "type": "function"
    },
    {
      "inputs": [],
      "name": "getNonce",
      "outputs": [
        {
          "internalType": "uint256",
          "name": "",
          "type": "uint256"
        }
      ],
      "stateMutability": "view",
      "type": "function"
    },
    {
      "inputs": [
        {
          "internalType": "address",
          "name": "signer",
          "type": "address"
        }
      ],
      "name": "getPermissionsForSigner",
      "outputs": [
        {
          "components": [
            {
              "internalType": "address",
              "name": "signer",
              "type": "address"
            },
            {
              "internalType": "address[]",
              "name": "approvedTargets",
              "type": "address[]"
            },
            {
              "internalType": "uint256",
              "name": "nativeTokenLimitPerTransaction",
              "type": "uint256"
            },
            {
              "internalType": "uint128",
              "name": "startTimestamp",
              "type": "uint128"
            },
            {
              "internalType": "uint128",
              "name": "endTimestamp",
              "type": "uint128"
            }
          ],
          "internalType": "struct IAccountPermissions.SignerPermissions",
          "name": "",
          "type": "tuple"
        }
      ],
      "stateMutability": "view",
      "type": "function"
    },
    {
      "inputs": [],
      "name": "ghoThreshold",
      "outputs": [
        {
          "internalType": "uint256",
          "name": "",
          "type": "uint256"
        }
      ],
      "stateMutability": "view",
      "type": "function"
    },
    {
      "inputs": [
        {
          "internalType": "address",
          "name": "_defaultAdmin",
          "type": "address"
        },
        {
          "internalType": "bytes",
          "name": "_data",
          "type": "bytes"
        }
      ],
      "name": "initialize",
      "outputs": [],
      "stateMutability": "nonpayable",
      "type": "function"
    },
    {
      "inputs": [
        {
          "internalType": "address",
          "name": "signer",
          "type": "address"
        }
      ],
      "name": "isActiveSigner",
      "outputs": [
        {
          "internalType": "bool",
          "name": "",
          "type": "bool"
        }
      ],
      "stateMutability": "view",
      "type": "function"
    },
    {
      "inputs": [
        {
          "internalType": "address",
          "name": "_account",
          "type": "address"
        }
      ],
      "name": "isAdmin",
      "outputs": [
        {
          "internalType": "bool",
          "name": "",
          "type": "bool"
        }
      ],
      "stateMutability": "view",
      "type": "function"
    },
    {
      "inputs": [
        {
          "internalType": "bytes32",
          "name": "_message",
          "type": "bytes32"
        },
        {
          "internalType": "bytes",
          "name": "_signature",
          "type": "bytes"
        }
      ],
      "name": "isValidSignature",
      "outputs": [
        {
          "internalType": "bytes4",
          "name": "magicValue",
          "type": "bytes4"
        }
      ],
      "stateMutability": "view",
      "type": "function"
    },
    {
      "inputs": [
        {
          "internalType": "address",
          "name": "_signer",
          "type": "address"
        },
        {
          "components": [
            {
              "internalType": "address",
              "name": "sender",
              "type": "address"
            },
            {
              "internalType": "uint256",
              "name": "nonce",
              "type": "uint256"
            },
            {
              "internalType": "bytes",
              "name": "initCode",
              "type": "bytes"
            },
            {
              "internalType": "bytes",
              "name": "callData",
              "type": "bytes"
            },
            {
              "internalType": "uint256",
              "name": "callGasLimit",
              "type": "uint256"
            },
            {
              "internalType": "uint256",
              "name": "verificationGasLimit",
              "type": "uint256"
            },
            {
              "internalType": "uint256",
              "name": "preVerificationGas",
              "type": "uint256"
            },
            {
              "internalType": "uint256",
              "name": "maxFeePerGas",
              "type": "uint256"
            },
            {
              "internalType": "uint256",
              "name": "maxPriorityFeePerGas",
              "type": "uint256"
            },
            {
              "internalType": "bytes",
              "name": "paymasterAndData",
              "type": "bytes"
            },
            {
              "internalType": "bytes",
              "name": "signature",
              "type": "bytes"
            }
          ],
          "internalType": "struct UserOperation",
          "name": "_userOp",
          "type": "tuple"
        }
      ],
      "name": "isValidSigner",
      "outputs": [
        {
          "internalType": "bool",
          "name": "",
          "type": "bool"
        }
      ],
      "stateMutability": "view",
      "type": "function"
    },
    {
      "inputs": [
        {
          "internalType": "bytes[]",
          "name": "data",
          "type": "bytes[]"
        }
      ],
      "name": "multicall",
      "outputs": [
        {
          "internalType": "bytes[]",
          "name": "results",
          "type": "bytes[]"
        }
      ],
      "stateMutability": "nonpayable",
      "type": "function"
    },
    {
      "inputs": [
        {
          "internalType": "address",
          "name": "",
          "type": "address"
        },
        {
          "internalType": "address",
          "name": "",
          "type": "address"
        },
        {
          "internalType": "uint256[]",
          "name": "",
          "type": "uint256[]"
        },
        {
          "internalType": "uint256[]",
          "name": "",
          "type": "uint256[]"
        },
        {
          "internalType": "bytes",
          "name": "",
          "type": "bytes"
        }
      ],
      "name": "onERC1155BatchReceived",
      "outputs": [
        {
          "internalType": "bytes4",
          "name": "",
          "type": "bytes4"
        }
      ],
      "stateMutability": "nonpayable",
      "type": "function"
    },
    {
      "inputs": [
        {
          "internalType": "address",
          "name": "",
          "type": "address"
        },
        {
          "internalType": "address",
          "name": "",
          "type": "address"
        },
        {
          "internalType": "uint256",
          "name": "",
          "type": "uint256"
        },
        {
          "internalType": "uint256",
          "name": "",
          "type": "uint256"
        },
        {
          "internalType": "bytes",
          "name": "",
          "type": "bytes"
        }
      ],
      "name": "onERC1155Received",
      "outputs": [
        {
          "internalType": "bytes4",
          "name": "",
          "type": "bytes4"
        }
      ],
      "stateMutability": "nonpayable",
      "type": "function"
    },
    {
      "inputs": [
        {
          "internalType": "address",
          "name": "",
          "type": "address"
        },
        {
          "internalType": "address",
          "name": "",
          "type": "address"
        },
        {
          "internalType": "uint256",
          "name": "",
          "type": "uint256"
        },
        {
          "internalType": "bytes",
          "name": "",
          "type": "bytes"
        }
      ],
      "name": "onERC721Received",
      "outputs": [
        {
          "internalType": "bytes4",
          "name": "",
          "type": "bytes4"
        }
      ],
      "stateMutability": "nonpayable",
      "type": "function"
    },
    {
      "inputs": [
        {
          "internalType": "bool",
          "name": "_allowedSupply",
          "type": "bool"
        }
      ],
      "name": "setAllowedSupply",
      "outputs": [],
      "stateMutability": "nonpayable",
      "type": "function"
    },
    {
      "inputs": [
        {
          "internalType": "string",
          "name": "_uri",
          "type": "string"
        }
      ],
      "name": "setContractURI",
      "outputs": [],
      "stateMutability": "nonpayable",
      "type": "function"
    },
    {
      "inputs": [
        {
          "internalType": "contract IEntryPoint",
          "name": "_entrypointOverride",
          "type": "address"
        }
      ],
      "name": "setEntrypointOverride",
      "outputs": [],
      "stateMutability": "nonpayable",
      "type": "function"
    },
    {
      "inputs": [
        {
          "components": [
            {
              "internalType": "address",
              "name": "signer",
              "type": "address"
            },
            {
              "internalType": "uint8",
              "name": "isAdmin",
              "type": "uint8"
            },
            {
              "internalType": "address[]",
              "name": "approvedTargets",
              "type": "address[]"
            },
            {
              "internalType": "uint256",
              "name": "nativeTokenLimitPerTransaction",
              "type": "uint256"
            },
            {
              "internalType": "uint128",
              "name": "permissionStartTimestamp",
              "type": "uint128"
            },
            {
              "internalType": "uint128",
              "name": "permissionEndTimestamp",
              "type": "uint128"
            },
            {
              "internalType": "uint128",
              "name": "reqValidityStartTimestamp",
              "type": "uint128"
            },
            {
              "internalType": "uint128",
              "name": "reqValidityEndTimestamp",
              "type": "uint128"
            },
            {
              "internalType": "bytes32",
              "name": "uid",
              "type": "bytes32"
            }
          ],
          "internalType": "struct IAccountPermissions.SignerPermissionRequest",
          "name": "_req",
          "type": "tuple"
        },
        {
          "internalType": "bytes",
          "name": "_signature",
          "type": "bytes"
        }
      ],
      "name": "setPermissionsForSigner",
      "outputs": [],
      "stateMutability": "nonpayable",
      "type": "function"
    },
    {
      "inputs": [],
      "name": "supplyAndSwapTrigger",
      "outputs": [
        {
          "internalType": "address",
          "name": "",
          "type": "address"
        }
      ],
      "stateMutability": "view",
      "type": "function"
    },
    {
      "inputs": [
        {
          "internalType": "bytes4",
          "name": "interfaceId",
          "type": "bytes4"
        }
      ],
      "name": "supportsInterface",
      "outputs": [
        {
          "internalType": "bool",
          "name": "",
          "type": "bool"
        }
      ],
      "stateMutability": "view",
      "type": "function"
    },
    {
      "inputs": [],
      "name": "uniswapRouter",
      "outputs": [
        {
          "internalType": "address",
          "name": "",
          "type": "address"
        }
      ],
      "stateMutability": "view",
      "type": "function"
    },
    {
      "inputs": [],
      "name": "usdcToken",
      "outputs": [
        {
          "internalType": "address",
          "name": "",
          "type": "address"
        }
      ],
      "stateMutability": "view",
      "type": "function"
    },
    {
      "inputs": [
        {
          "components": [
            {
              "internalType": "address",
              "name": "sender",
              "type": "address"
            },
            {
              "internalType": "uint256",
              "name": "nonce",
              "type": "uint256"
            },
            {
              "internalType": "bytes",
              "name": "initCode",
              "type": "bytes"
            },
            {
              "internalType": "bytes",
              "name": "callData",
              "type": "bytes"
            },
            {
              "internalType": "uint256",
              "name": "callGasLimit",
              "type": "uint256"
            },
            {
              "internalType": "uint256",
              "name": "verificationGasLimit",
              "type": "uint256"
            },
            {
              "internalType": "uint256",
              "name": "preVerificationGas",
              "type": "uint256"
            },
            {
              "internalType": "uint256",
              "name": "maxFeePerGas",
              "type": "uint256"
            },
            {
              "internalType": "uint256",
              "name": "maxPriorityFeePerGas",
              "type": "uint256"
            },
            {
              "internalType": "bytes",
              "name": "paymasterAndData",
              "type": "bytes"
            },
            {
              "internalType": "bytes",
              "name": "signature",
              "type": "bytes"
            }
          ],
          "internalType": "struct UserOperation",
          "name": "userOp",
          "type": "tuple"
        },
        {
          "internalType": "bytes32",
          "name": "userOpHash",
          "type": "bytes32"
        },
        {
          "internalType": "uint256",
          "name": "missingAccountFunds",
          "type": "uint256"
        }
      ],
      "name": "validateUserOp",
      "outputs": [
        {
          "internalType": "uint256",
          "name": "validationData",
          "type": "uint256"
        }
      ],
      "stateMutability": "nonpayable",
      "type": "function"
    },
    {
      "inputs": [],
      "name": "vault",
      "outputs": [
        {
          "internalType": "address",
          "name": "",
          "type": "address"
        }
      ],
      "stateMutability": "view",
      "type": "function"
    },
    {
      "inputs": [
        {
          "components": [
            {
              "internalType": "address",
              "name": "signer",
              "type": "address"
            },
            {
              "internalType": "uint8",
              "name": "isAdmin",
              "type": "uint8"
            },
            {
              "internalType": "address[]",
              "name": "approvedTargets",
              "type": "address[]"
            },
            {
              "internalType": "uint256",
              "name": "nativeTokenLimitPerTransaction",
              "type": "uint256"
            },
            {
              "internalType": "uint128",
              "name": "permissionStartTimestamp",
              "type": "uint128"
            },
            {
              "internalType": "uint128",
              "name": "permissionEndTimestamp",
              "type": "uint128"
            },
            {
              "internalType": "uint128",
              "name": "reqValidityStartTimestamp",
              "type": "uint128"
            },
            {
              "internalType": "uint128",
              "name": "reqValidityEndTimestamp",
              "type": "uint128"
            },
            {
              "internalType": "bytes32",
              "name": "uid",
              "type": "bytes32"
            }
          ],
          "internalType": "struct IAccountPermissions.SignerPermissionRequest",
          "name": "req",
          "type": "tuple"
        },
        {
          "internalType": "bytes",
          "name": "signature",
          "type": "bytes"
        }
      ],
      "name": "verifySignerPermissionRequest",
      "outputs": [
        {
          "internalType": "bool",
          "name": "success",
          "type": "bool"
        },
        {
          "internalType": "address",
          "name": "signer",
          "type": "address"
        }
      ],
      "stateMutability": "view",
      "type": "function"
    },
    {
      "inputs": [
        {
          "internalType": "address payable",
          "name": "withdrawAddress",
          "type": "address"
        },
        {
          "internalType": "uint256",
          "name": "amount",
          "type": "uint256"
        }
      ],
      "name": "withdrawDepositTo",
      "outputs": [],
      "stateMutability": "nonpayable",
      "type": "function"
    },
    {
      "stateMutability": "payable",
      "type": "receive"
    }
  ],
  "bytecode": {
    "object": "0x6101806040523480156200001257600080fd5b50604051620050ca380380620050ca833981016040819052620000359162000274565b60408051808201825260078152661058d8dbdd5b9d60ca1b60208083019182528351808501855260018152603160f81b908201529151902060e08190527fc89efdaa54c0f20c7adf612882df0950f5a951637e0307cdcb4c672f298b8bc66101008190524660a081815285517f8b73c3c69bb8fe3d512ecc4cf759cc79239f7b179b0ffacaa9a75d522b39400f818701819052818801959095526060810193909352608080840192909252308382018190528651808503909201825260c093840190965280519401939093209092529190526101205281816200011762000158565b6001600160a01b039081166101405216610160525050600180546001600160a01b031916331790556007805460ff60a01b1916600160a01b179055620002b3565b7f322cf19c484104d3b1a9c2982ebae869ede3fa5f6c4703ca41b9a48c76ee03005460ff808216916101009004168015620001e95760405162461bcd60e51b815260206004820152602760248201527f496e697469616c697a61626c653a20636f6e747261637420697320696e697469604482015266616c697a696e6760c81b606482015260840160405180910390fd5b60ff828116101562000257577f322cf19c484104d3b1a9c2982ebae869ede3fa5f6c4703ca41b9a48c76ee0300805460ff191660ff90811790915560408051918252517f7f26b83ff96e1f2b6a682f133852f6798a09c465da95921460cefb38474024989181900360200190a15b5050565b6001600160a01b03811681146200027157600080fd5b50565b600080604083850312156200028857600080fd5b825162000295816200025b565b6020840151909250620002a8816200025b565b809150509250929050565b60805160a05160c05160e05161010051610120516101405161016051614d87620003436000396000611e7b01526000818161067601528181612d7f01528181612f0f01528181612f450152818161300d0152818161308301526130b301526000612964015260006129b30152600061298e015260006128e7015260006129110152600061293b0152614d876000f3fe60806040526004361061023f5760003560e01c8063938e3d7b1161012e578063c45a0155116100ab578063e9523c971161006f578063e9523c9714610704578063ec1afaaa14610726578063f15d424e14610746578063f23a6e6114610773578063fbfa77cf1461079f57600080fd5b8063c45a015514610664578063d087d28814610698578063d1f57894146106ad578063d42f2f35146106cd578063e8a3d485146106e257600080fd5b8063b0d691fe116100f2578063b0d691fe146105ce578063b2836277146105e3578063b61d27f6146105f8578063b76464d514610618578063bc197c811461063857600080fd5b8063938e3d7b146105015780639934cdb114610521578063a03e4bc314610542578063a9082d8414610562578063ac9650d8146105a157600080fd5b80633dd6e025116101bc5780635892e236116101805780635892e2361461045f578063735de9f71461047f57806374c13fda1461049f5780637dff5a79146104bf5780638b52d723146104df57600080fd5b80633dd6e025146103df57806347e1da2a146104015780634a58db19146104215780634d44560d146104295780634e11f6a51461044957600080fd5b80631626ba7e116102035780631626ba7e1461033f5780631dd756c51461035f57806324d7806c1461037f578063292454141461039f5780633a871cdd146103bf57600080fd5b806301ffc9a71461024b5780630a1028c4146102805780630db796e9146102ae57806311eac855146102e6578063150b7a021461030657600080fd5b3661024657005b600080fd5b34801561025757600080fd5b5061026b610266366004613aa3565b6107bf565b60405190151581526020015b60405180910390f35b34801561028c57600080fd5b506102a061029b366004613b8a565b610805565b604051908152602001610277565b3480156102ba57600080fd5b506007546102ce906001600160a01b031681565b6040516001600160a01b039091168152602001610277565b3480156102f257600080fd5b506003546102ce906001600160a01b031681565b34801561031257600080fd5b50610326610321366004613be3565b6108a9565b6040516001600160e01b03199091168152602001610277565b34801561034b57600080fd5b5061032661035a366004613c4e565b6108ba565b34801561036b57600080fd5b5061026b61037a366004613cad565b6109fa565b34801561038b57600080fd5b5061026b61039a366004613cf2565b610cd2565b3480156103ab57600080fd5b506001546102ce906001600160a01b031681565b3480156103cb57600080fd5b506102a06103da366004613d0f565b610d01565b3480156103eb57600080fd5b506103ff6103fa366004613cf2565b610d27565b005b34801561040d57600080fd5b506103ff61041c366004613da0565b6112a3565b6103ff611483565b34801561043557600080fd5b506103ff610444366004613e39565b6114ea565b34801561045557600080fd5b506102a060005481565b34801561046b57600080fd5b506103ff61047a366004613ea6565b611563565b34801561048b57600080fd5b506004546102ce906001600160a01b031681565b3480156104ab57600080fd5b506002546102ce906001600160a01b031681565b3480156104cb57600080fd5b5061026b6104da366004613cf2565b611929565b3480156104eb57600080fd5b506104f46119e2565b6040516102779190613fbc565b34801561050d57600080fd5b506103ff61051c36600461401e565b611c29565b34801561052d57600080fd5b5060075461026b90600160a01b900460ff1681565b34801561054e57600080fd5b506005546102ce906001600160a01b031681565b34801561056e57600080fd5b5061058261057d366004613ea6565b611c7a565b6040805192151583526001600160a01b03909116602083015201610277565b3480156105ad57600080fd5b506105c16105bc366004614066565b611cd1565b60405161027791906140f7565b3480156105da57600080fd5b506102ce611e40565b3480156105ef57600080fd5b506103ff611ea0565b34801561060457600080fd5b506103ff61061336600461414c565b6120f1565b34801561062457600080fd5b506103ff610633366004613cf2565b6121f7565b34801561064457600080fd5b50610326610653366004614235565b63bc197c8160e01b95945050505050565b34801561067057600080fd5b506102ce7f000000000000000000000000000000000000000000000000000000000000000081565b3480156106a457600080fd5b506102a0612240565b3480156106b957600080fd5b506103ff6106c83660046142e2565b6122c0565b3480156106d957600080fd5b506104f4612534565b3480156106ee57600080fd5b506106f76126a5565b6040516102779190614329565b34801561071057600080fd5b50610719612756565b6040516102779190614380565b34801561073257600080fd5b506103ff6107413660046143a1565b612768565b34801561075257600080fd5b50610766610761366004613cf2565b6127cd565b60405161027791906143be565b34801561077f57600080fd5b5061032661078e3660046143d1565b63f23a6e6160e01b95945050505050565b3480156107ab57600080fd5b506006546102ce906001600160a01b031681565b60006001600160e01b03198216630271189760e51b14806107f057506001600160e01b03198216630a85bd0160e11b145b806107ff57506107ff826128a5565b92915050565b6000807f82cac545155fcbf147f2a9013809613677ac7d65498556e6d19ce43bcbf6c284838051906020012060405160200161084b929190918252602082015260400190565b60405160208183030381529060405280519060200120905061086b6128da565b60405161190160f01b602082015260228101919091526042810182905260620160405160208183030381529060405280519060200120915050919050565b630a85bd0160e11b5b949350505050565b6000806108e7846040516020016108d391815260200190565b604051602081830303815290604052610805565b905060006108f58285612a01565b905061090081610cd2565b156109175750630b135d3f60e11b91506107ff9050565b336000610922612a25565b6001600160a01b038416600090815260069190910160205260409020905061094a8183612a49565b8061097a575061095981612a6b565b600114801561097a5750600061096f8282612a75565b6001600160a01b0316145b6109d75760405162461bcd60e51b8152602060048201526024808201527f4163636f756e743a2063616c6c6572206e6f7420617070726f7665642074617260448201526333b2ba1760e11b60648201526084015b60405180910390fd5b6109e083611929565b156109f057630b135d3f60e11b94505b5050505092915050565b6000610a04612a25565b6001600160a01b0384166000908152600491909101602052604090205460ff1615610a31575060016107ff565b6000610a3b612a25565b6001600160a01b0385166000908152600591909101602090815260408083208151606081018352815481526001909101546001600160801b0380821694830194909452600160801b9004909216908201529150610a96612a25565b6006016000866001600160a01b03166001600160a01b0316815260200190815260200160002090504282602001516001600160801b03161180610ae6575081604001516001600160801b03164210155b80610af75750610af581612a6b565b155b15610b07576000925050506107ff565b6000610b1e610b196060870187614439565b612a81565b90506000610b2b83612a6b565b6001148015610b4c57506000610b418482612a75565b6001600160a01b0316145b90506324f16c0560e11b6001600160e01b0319831601610bc357600080610b7e610b7960608a018a614439565b612abb565b9150915082610ba457610b918583612a49565b610ba457600096505050505050506107ff565b8551811115610bbc57600096505050505050506107ff565b5050610cc5565b635c0f12eb60e11b6001600160e01b0319831601610cb857600080610bf3610bee60608a018a614439565b612b20565b509150915082610c5d5760005b8251811015610c5b57610c35838281518110610c1e57610c1e61447f565b602002602001015187612a4990919063ffffffff16565b610c495760009750505050505050506107ff565b80610c53816144ab565b915050610c00565b505b60005b8251811015610cb057818181518110610c7b57610c7b61447f565b602002602001015187600001511015610c9e5760009750505050505050506107ff565b80610ca8816144ab565b915050610c60565b505050610cc5565b60009450505050506107ff565b5060019695505050505050565b6000610cdc612a25565b6001600160a01b03909216600090815260049290920160205250604090205460ff1690565b6000610d0b612b6d565b610d158484612bd7565b9050610d2082612d1d565b9392505050565b6001546001600160a01b0316331480610d445750610d4433610cd2565b610d905760405162461bcd60e51b815260206004820152601d60248201527f4163636f756e743a206e6f742061646d696e206f722055706b6565702e00000060448201526064016109ce565b600754600160a01b900460ff16610de95760405162461bcd60e51b815260206004820152601760248201527f4163636f756e743a20737570706c79207061757365642e00000000000000000060448201526064016109ce565b6040516370a0823160e01b81523060048201526000906001600160a01b038316906370a0823190602401602060405180830381865afa158015610e30573d6000803e3d6000fd5b505050506040513d601f19601f82011682018060405250810190610e5491906144c4565b90506000610e65620f4240836144dd565b90506000610e7382846144ff565b600554604051632fe4a15f60e21b81523060048201529192506000916001600160a01b039091169063bf92857c9060240160c060405180830381865afa158015610ec1573d6000803e3d6000fd5b505050506040513d601f19601f82011682018060405250810190610ee59190614512565b5050505091505060008311156110f857600081118015610f055750808311155b1561100c5760055460405163095ea7b360e01b81526001600160a01b039182166004820152602481018590529086169063095ea7b3906044016020604051808303816000875af1158015610f5d573d6000803e3d6000fd5b505050506040513d601f19601f82011682018060405250810190610f81919061455c565b5060055460405163573ade8160e01b81526001600160a01b03878116600483015260248201869052600260448301523060648301529091169063573ade81906084016020604051808303816000875af1158015610fe2573d6000803e3d6000fd5b505050506040513d601f19601f8201168201806040525081019061100691906144c4565b506110f8565b60055460405163095ea7b360e01b81526001600160a01b039182166004820152602481018590529086169063095ea7b3906044016020604051808303816000875af115801561105f573d6000803e3d6000fd5b505050506040513d601f19601f82011682018060405250810190611083919061455c565b5060055460405163617ba03760e01b81526001600160a01b03878116600483015260248201869052306044830152600060648301529091169063617ba03790608401600060405180830381600087803b1580156110df57600080fd5b505af11580156110f3573d6000803e3d6000fd5b505050505b604080516002808252606082018352600092602083019080368337019050509050858160008151811061112d5761112d61447f565b6001600160a01b03928316602091820292909201015260025482519116908290600190811061115e5761115e61447f565b6001600160a01b0392831660209182029290920101526004805460405163095ea7b360e01b815290831691810191909152602481018590529087169063095ea7b3906044016020604051808303816000875af11580156111c2573d6000803e3d6000fd5b505050506040513d601f19601f820116820180604052508101906111e6919061455c565b50600480546040516338ed173960e01b81526060926001600160a01b03909216916338ed173991611221918891829188913091429101614579565b6000604051808303816000875af1158015611240573d6000803e3d6000fd5b505050506040513d6000823e601f3d908101601f1916820160405261126891908101906145b5565b90508060018151811061127d5761127d61447f565b6020026020010151600080828254611295919061463a565b909155505050505050505050565b6112ab611e40565b6001600160a01b0316336001600160a01b031614806112ce57506112ce33610cd2565b6112ea5760405162461bcd60e51b81526004016109ce9061464d565b6112f2612d6a565b848114801561130057508483145b61134c5760405162461bcd60e51b815260206004820152601d60248201527f4163636f756e743a2077726f6e67206172726179206c656e677468732e00000060448201526064016109ce565b60005b8581101561140b576113f887878381811061136c5761136c61447f565b90506020020160208101906113819190613cf2565b8686848181106113935761139361447f565b905060200201358585858181106113ac576113ac61447f565b90506020028101906113be9190614439565b8080601f016020809104026020016040519081016040528093929190818152602001838380828437600092019190915250612e4c92505050565b5080611403816144ab565b91505061134f565b506002546040516370a0823160e01b81523060048201526001600160a01b03909116906370a0823190602401602060405180830381865afa158015611454573d6000803e3d6000fd5b505050506040513d601f19601f8201168201806040525081019061147891906144c4565b600055505050505050565b61148b611e40565b60405163b760faf960e01b81523060048201526001600160a01b03919091169063b760faf99034906024016000604051808303818588803b1580156114cf57600080fd5b505af11580156114e3573d6000803e3d6000fd5b5050505050565b6114f2612ebd565b6114fa611e40565b60405163040b850f60e31b81526001600160a01b03848116600483015260248201849052919091169063205c2878906044015b600060405180830381600087803b15801561154757600080fd5b505af115801561155b573d6000803e3d6000fd5b505050505050565b60006115726020850185613cf2565b90504261158560e0860160c087016146a5565b6001600160801b0316111580156115b457506115a8610100850160e086016146a5565b6001600160801b031642105b6115ea5760405162461bcd60e51b8152602060048201526007602482015266085c195c9a5bd960ca1b60448201526064016109ce565b6000806115f8868686611c7a565b91509150816116325760405162461bcd60e51b81526004016109ce906020808252600490820152632173696760e01b604082015260600190565b600161163c612a25565b610100880135600090815260079190910160209081526040808320805460ff1916941515949094179093559091611678919089019089016146d1565b60ff1611156116ae57600061169360408801602089016146d1565b60ff1660011490506116a58482612efb565b50505050505050565b6116b783610cd2565b156116ec5760405162461bcd60e51b815260206004820152600560248201526430b236b4b760d91b60448201526064016109ce565b611701836116f8612a25565b60020190613042565b5060405180606001604052808760600135815260200187608001602081019061172a91906146a5565b6001600160801b0316815260200161174860c0890160a08a016146a5565b6001600160801b0316905261175b612a25565b6001600160a01b03851660009081526005919091016020908152604080832084518155918401519301516001600160801b03908116600160801b029316929092176001909201919091556117d16117b0612a25565b6001600160a01b038616600090815260069190910160205260409020613057565b805190915060005b8181101561183b576118288382815181106117f6576117f661447f565b6020026020010151611806612a25565b6001600160a01b03891660009081526006919091016020526040902090613064565b5061183460018261463a565b90506117d9565b5061184960408901896146ec565b9050905060005b818110156118ca576118b761186860408b018b6146ec565b838181106118785761187861447f565b905060200201602081019061188d9190613cf2565b611895612a25565b6001600160a01b03891660009081526006919091016020526040902090613042565b506118c360018261463a565b9050611850565b506118d488613079565b846001600160a01b0316836001600160a01b03167ff21d10c26e35863a8df291aca54181ee8c4a3bc8e00246c3f7a5a14b69d826a78a60405161191791906147bb565b60405180910390a35050505050505050565b600080611934612a25565b6001600160a01b038416600090815260059190910160209081526040918290208251606081018452815481526001909101546001600160801b03808216938301849052600160801b909104169281019290925290915042108015906119a5575080604001516001600160801b031642105b8015610d20575060006119da6119b9612a25565b6001600160a01b038616600090815260069190910160205260409020612a6b565b119392505050565b606060006119f96119f1612a25565b600201613057565b80519091506000805b82811015611a8a57611a2c848281518110611a1f57611a1f61447f565b6020026020010151611929565b15611a435781611a3b816144ab565b925050611a78565b6000848281518110611a5757611a5761447f565b60200260200101906001600160a01b031690816001600160a01b0316815250505b611a8360018261463a565b9050611a02565b50806001600160401b03811115611aa357611aa3613acd565b604051908082528060200260200182016040528015611adc57816020015b611ac9613a59565b815260200190600190039081611ac15790505b5093506000805b83811015611c215760006001600160a01b0316858281518110611b0857611b0861447f565b60200260200101516001600160a01b031614611c0f576000858281518110611b3257611b3261447f565b602002602001015190506000611b46612a25565b6001600160a01b038316600081815260059290920160209081526040928390208351606081018552815481526001909101546001600160801b0380821683850152600160801b9091041681850152835160a081019094529183529092508101611bb06117b0612a25565b81526020018260000151815260200182602001516001600160801b0316815260200182604001516001600160801b0316815250888580611bef906144ab565b965081518110611c0157611c0161447f565b602002602001018190525050505b611c1a60018261463a565b9050611ae3565b505050505090565b611c31613127565b611c6e5760405162461bcd60e51b815260206004820152600e60248201526d139bdd08185d5d1a1bdc9a5e995960921b60448201526064016109ce565b611c778161313f565b50565b600080611c90611c898661325e565b85856133a2565b9050611c9a612a25565b6101008601356000908152600791909101602052604090205460ff16158015611cc75750611cc781610cd2565b9150935093915050565b6060816001600160401b03811115611ceb57611ceb613acd565b604051908082528060200260200182016040528015611d1e57816020015b6060815260200190600190039081611d095790505b509050336000805b84811015611e37578115611da557611d8330878784818110611d4a57611d4a61447f565b9050602002810190611d5c9190614439565b86604051602001611d6f939291906148b4565b6040516020818303038152906040526133f4565b848281518110611d9557611d9561447f565b6020026020010181905250611e25565b611e0730878784818110611dbb57611dbb61447f565b9050602002810190611dcd9190614439565b8080601f0160208091040260200160405190810160405280939291908181526020018383808284376000920191909152506133f492505050565b848281518110611e1957611e1961447f565b60200260200101819052505b80611e2f816144ab565b915050611d26565b50505092915050565b7f036f52c1827dab135f7fd44ca0bddde297e2f659c710e0ec53e975f22b548300546000906001600160a01b03168015611e7957919050565b7f000000000000000000000000000000000000000000000000000000000000000091505090565b6001546001600160a01b0316331480611ebd5750611ebd33610cd2565b611f095760405162461bcd60e51b815260206004820152601d60248201527f4163636f756e743a206e6f742061646d696e206f722055706b6565702e00000060448201526064016109ce565b6002546040516370a0823160e01b81523060048201526000916001600160a01b0316906370a0823190602401602060405180830381865afa158015611f52573d6000803e3d6000fd5b505050506040513d601f19601f82011682018060405250810190611f7691906144c4565b90506000611f8c670de0b6b3a7640000836144dd565b60025460065460405163095ea7b360e01b81526001600160a01b03918216600482015260248101849052929350169063095ea7b3906044016020604051808303816000875af1158015611fe3573d6000803e3d6000fd5b505050506040513d601f19601f82011682018060405250810190612007919061455c565b50600654604051636e553f6560e01b8152600481018390523060248201526001600160a01b0390911690636e553f65906044016020604051808303816000875af1158015612059573d6000803e3d6000fd5b505050506040513d601f19601f8201168201806040525081019061207d91906144c4565b506002546040516370a0823160e01b81523060048201526001600160a01b03909116906370a0823190602401602060405180830381865afa1580156120c6573d6000803e3d6000fd5b505050506040513d601f19601f820116820180604052508101906120ea91906144c4565b6000555050565b6120f9611e40565b6001600160a01b0316336001600160a01b0316148061211c575061211c33610cd2565b6121385760405162461bcd60e51b81526004016109ce9061464d565b612140612d6a565b612181848484848080601f016020809104026020016040519081016040528093929190818152602001838380828437600092019190915250612e4c92505050565b506002546040516370a0823160e01b81523060048201526001600160a01b03909116906370a0823190602401602060405180830381865afa1580156121ca573d6000803e3d6000fd5b505050506040513d601f19601f820116820180604052508101906121ee91906144c4565b60005550505050565b6121ff612ebd565b7f036f52c1827dab135f7fd44ca0bddde297e2f659c710e0ec53e975f22b54830080546001600160a01b0319166001600160a01b0392909216919091179055565b600061224a611e40565b604051631aab3f0d60e11b8152306004820152600060248201526001600160a01b0391909116906335567e1a90604401602060405180830381865afa158015612297573d6000803e3d6000fd5b505050506040513d601f19601f820116820180604052508101906122bb91906144c4565b905090565b600080516020614d0b8339815191525460ff8082169161010090041680158080156122ee575060018360ff16105b806123065750303b15801561230657508260ff166001145b6123695760405162461bcd60e51b815260206004820152602e60248201527f496e697469616c697a61626c653a20636f6e747261637420697320616c72656160448201526d191e481a5b9a5d1a585b1a5e995960921b60648201526084016109ce565b600080516020614d0b833981519152805460ff1916600117905580156123a657600080516020614d0b833981519152805461ff0019166101001790555b6123e68686868080601f01602080910402602001604051908101604052809392919081815260200183838082843760009201919091525061341992505050565b600080516020614ceb83398151915255612401866001612efb565b600180546001600160a01b031990811633179091556007805460028054841673c4bf5cbdabe595361438f8c6a187bdc330539c601790556003805484167394a9d9ac8a22534e3faca9f4e7f2e2cf85d5e4c817905560048054841673c51afe94b5931894f92a7d8f2d628985ffe4c9f9179055600580548416736ae43d3271ff6888e7fc43fd7321a503ff7389511790556006805490931673ca324eb66adda0b9612d3cf40cc1ddb50bbb756d1790925574013b1356916ba1d5e2b78dc0bc4fbb0ae33353fa126001600160a81b0319909216919091179055801561155b57600080516020614d0b833981519152805461ff0019169055604080516001815290517f7f26b83ff96e1f2b6a682f133852f6798a09c465da95921460cefb38474024989181900360200190a1505050505050565b606060006125436119f1612a25565b8051909150806001600160401b0381111561256057612560613acd565b60405190808252806020026020018201604052801561259957816020015b612586613a59565b81526020019060019003908161257e5790505b50925060005b8181101561269f5760008382815181106125bb576125bb61447f565b6020026020010151905060006125cf612a25565b6001600160a01b038316600081815260059290920160209081526040928390208351606081018552815481526001909101546001600160801b0380821683850152600160801b9091041681850152835160a0810190945291835290925081016126396117b0612a25565b81526020018260000151815260200182602001516001600160801b0316815260200182604001516001600160801b031681525086848151811061267e5761267e61447f565b60200260200101819052505050600181612698919061463a565b905061259f565b50505090565b60607f4bc804ba64359c0e35e5ed5d90ee596ecaa49a3a930ddcb1470ea0dd625da90080546126d3906148da565b80601f01602080910402602001604051908101604052809291908181526020018280546126ff906148da565b801561274c5780601f106127215761010080835404028352916020019161274c565b820191906000526020600020905b81548152906001019060200180831161272f57829003601f168201915b5050505050905090565b60606122bb612763612a25565b613057565b612770611e40565b6001600160a01b0316336001600160a01b03161480612793575061279333610cd2565b6127af5760405162461bcd60e51b81526004016109ce9061464d565b60078054911515600160a01b0260ff60a01b19909216919091179055565b6127d5613a59565b60006127df612a25565b6001600160a01b038416600081815260059290920160209081526040928390208351606081018552815481526001909101546001600160801b0380821683850152600160801b9091041681850152835160a08101909452918352909250810161286a612849612a25565b6001600160a01b038716600090815260069190910160205260409020613057565b81526020018260000151815260200182602001516001600160801b0316815260200182604001516001600160801b0316815250915050919050565b60006001600160e01b03198216630271189760e51b14806107ff57506301ffc9a760e01b6001600160e01b03198316146107ff565b6000306001600160a01b037f00000000000000000000000000000000000000000000000000000000000000001614801561293357507f000000000000000000000000000000000000000000000000000000000000000046145b1561295d57507f000000000000000000000000000000000000000000000000000000000000000090565b50604080517f00000000000000000000000000000000000000000000000000000000000000006020808301919091527f0000000000000000000000000000000000000000000000000000000000000000828401527f000000000000000000000000000000000000000000000000000000000000000060608301524660808301523060a0808401919091528351808403909101815260c0909201909252805191012090565b6000806000612a10858561344c565b91509150612a1d81613491565b509392505050565b7f3181e78fc1b109bc611fd2406150bf06e33faa75f71cba12c3e1fd670f2def0090565b6001600160a01b03811660009081526001830160205260408120541515610d20565b60006107ff825490565b6000610d2083836135db565b60006004821015612aa45760405162461bcd60e51b81526004016109ce9061490e565b612ab260046000848661492d565b610d2091614957565b6000806044831015612adf5760405162461bcd60e51b81526004016109ce9061490e565b612aed60246004858761492d565b810190612afa9190613cf2565b9150612b0a60446024858761492d565b810190612b179190614987565b90509250929050565b606080806064841015612b455760405162461bcd60e51b81526004016109ce9061490e565b612b52846004818861492d565b810190612b5f9190614a1f565b919790965090945092505050565b612b75611e40565b6001600160a01b0316336001600160a01b031614612bd55760405162461bcd60e51b815260206004820152601c60248201527f6163636f756e743a206e6f742066726f6d20456e747279506f696e740000000060448201526064016109ce565b565b7f19457468657265756d205369676e6564204d6573736167653a0a3332000000006000908152601c829052603c81206000612c56612c19610140870187614439565b8080601f0160208091040260200160405190810160405280939291908181526020018383808284376000920191909152508693925050612a019050565b9050612c6281866109fa565b612c71576001925050506107ff565b6000612c7b612a25565b6001600160a01b03929092166000908152600590920160209081526040808420815160608082018452825482526001909201546001600160801b0380821683870152600160801b8204908116928501929092528351928301845295825265ffffffffffff8087169483019490945292831691015260d09290921b6001600160d01b03191660a09290921b65ffffffffffff60a01b169190911795945050505050565b8015611c7757604051600090339060001990849084818181858888f193505050503d80600081146114e3576040519150601f19603f3d011682016040523d82523d6000602084013e6114e3565b60405163c3c5a54760e01b81523060048201527f0000000000000000000000000000000000000000000000000000000000000000906001600160a01b0382169063c3c5a54790602401602060405180830381865afa158015612dd0573d6000803e3d6000fd5b505050506040513d601f19601f82011682018060405250810190612df4919061455c565b611c7757600080516020614ceb833981519152546040516320e80fe360e21b815260048101919091526001600160a01b038216906383a03f8c906024015b600060405180830381600087803b1580156114cf57600080fd5b60606000846001600160a01b03168484604051612e699190614b04565b60006040518083038185875af1925050503d8060008114612ea6576040519150601f19603f3d011682016040523d82523d6000602084013e612eab565b606091505b509250905080612a1d57815160208301fd5b612ec633610cd2565b612bd55760405162461bcd60e51b815260206004820152600660248201526510b0b236b4b760d11b60448201526064016109ce565b612f058282613605565b6001600160a01b037f0000000000000000000000000000000000000000000000000000000000000000163b1561303e578015612fd6576001600160a01b037f000000000000000000000000000000000000000000000000000000000000000016630b61e12b837f036f52c1827dab135f7fd44ca0bddde297e2f659c710e0ec53e975f22b548300600101546040516001600160e01b031960e085901b1681526001600160a01b0390921660048301526024820152604401600060405180830381600087803b15801561154757600080fd5b600080516020614ceb833981519152546040516301270f4760e71b81526001600160a01b03848116600483015260248201929092527f000000000000000000000000000000000000000000000000000000000000000090911690639387a3809060440161152d565b5050565b6000610d20836001600160a01b0384166136b4565b60606000610d2083613703565b6000610d20836001600160a01b03841661375f565b6001600160a01b037f0000000000000000000000000000000000000000000000000000000000000000163b15611c77576001600160a01b037f000000000000000000000000000000000000000000000000000000000000000016630b61e12b6130e56020840184613cf2565b600080516020614ceb8339815191525460405160e084901b6001600160e01b03191681526001600160a01b039290921660048301526024820152604401612e32565b600061313233610cd2565b806122bb57505030331490565b60007f4bc804ba64359c0e35e5ed5d90ee596ecaa49a3a930ddcb1470ea0dd625da900805461316d906148da565b80601f0160208091040260200160405190810160405280929190818152602001828054613199906148da565b80156131e65780601f106131bb576101008083540402835291602001916131e6565b820191906000526020600020905b8154815290600101906020018083116131c957829003601f168201915b50505050509050816132157f4bc804ba64359c0e35e5ed5d90ee596ecaa49a3a930ddcb1470ea0dd625da90090565b906132209082614b6b565b507fc9c7c3fe08b88b4df9d4d47ef47d2c43d55c025a0ba88ca442580ed9e7348a168183604051613252929190614c2a565b60405180910390a15050565b60607f3fd4a1a1a267c84185e3b7eecd57c68783c0581d538b9d6e5f23e4670497c1e961328e6020840184613cf2565b61329e60408501602086016146d1565b6132ab60408601866146ec565b6040516020016132bc929190614c58565b60408051601f19818403018152919052805160209091012060608601356132e960a08801608089016146a5565b6132f960c0890160a08a016146a5565b61330960e08a0160c08b016146a5565b61331a6101008b0160e08c016146a5565b60408051602081019a909a526001600160a01b039098169789019790975260ff9095166060880152608087019390935260a08601919091526001600160801b0390811660c086015290811660e0850152908116610100848101919091529116610120830152830135610140820152610160016040516020818303038152906040529050919050565b60006108b283838080601f01602080910402602001604051908101604052809392919081815260200183838082843760009201919091525050875160208901206133ee92509050613852565b90612a01565b6060610d208383604051806060016040528060278152602001614d2b6027913961387f565b6000828260405160200161342e929190614c9a565b60405160208183030381529060405280519060200120905092915050565b60008082516041036134825760208301516040840151606085015160001a613476878285856138f7565b9450945050505061348a565b506000905060025b9250929050565b60008160048111156134a5576134a5614cbe565b036134ad5750565b60018160048111156134c1576134c1614cbe565b0361350e5760405162461bcd60e51b815260206004820152601860248201527f45434453413a20696e76616c6964207369676e6174757265000000000000000060448201526064016109ce565b600281600481111561352257613522614cbe565b0361356f5760405162461bcd60e51b815260206004820152601f60248201527f45434453413a20696e76616c6964207369676e6174757265206c656e6774680060448201526064016109ce565b600381600481111561358357613583614cbe565b03611c775760405162461bcd60e51b815260206004820152602260248201527f45434453413a20696e76616c6964207369676e6174757265202773272076616c604482015261756560f01b60648201526084016109ce565b60008260000182815481106135f2576135f261447f565b9060005260206000200154905092915050565b8061360e612a25565b6001600160a01b038416600090815260049190910160205260409020805460ff19169115159190911790558015613657576136518261364b612a25565b90613042565b5061366b565b61366982613663612a25565b90613064565b505b816001600160a01b03167f235bc17e7930760029e9f4d860a2a8089976de5b381cf8380fc11c1d88a11133826040516136a8911515815260200190565b60405180910390a25050565b60008181526001830160205260408120546136fb575081546001818101845560008481526020808220909301849055845484825282860190935260409020919091556107ff565b5060006107ff565b60608160000180548060200260200160405190810160405280929190818152602001828054801561375357602002820191906000526020600020905b81548152602001906001019080831161373f575b50505050509050919050565b600081815260018301602052604081205480156138485760006137836001836144ff565b8554909150600090613797906001906144ff565b90508181146137fc5760008660000182815481106137b7576137b761447f565b90600052602060002001549050808760000184815481106137da576137da61447f565b6000918252602080832090910192909255918252600188019052604090208390555b855486908061380d5761380d614cd4565b6001900381819060005260206000200160009055905585600101600086815260200190815260200160002060009055600193505050506107ff565b60009150506107ff565b60006107ff61385f6128da565b8360405161190160f01b8152600281019290925260228201526042902090565b6060600080856001600160a01b03168560405161389c9190614b04565b600060405180830381855af49150503d80600081146138d7576040519150601f19603f3d011682016040523d82523d6000602084013e6138dc565b606091505b50915091506138ed868383876139bb565b9695505050505050565b6000807f7fffffffffffffffffffffffffffffff5d576e7357a4501ddfe92f46681b20a083111561392e57506000905060036139b2565b6040805160008082526020820180845289905260ff881692820192909252606081018690526080810185905260019060a0016020604051602081039080840390855afa158015613982573d6000803e3d6000fd5b5050604051601f1901519150506001600160a01b0381166139ab576000600192509250506139b2565b9150600090505b94509492505050565b60608315613a2a578251600003613a23576001600160a01b0385163b613a235760405162461bcd60e51b815260206004820152601d60248201527f416464726573733a2063616c6c20746f206e6f6e2d636f6e747261637400000060448201526064016109ce565b50816108b2565b6108b28383815115613a3f5781518083602001fd5b8060405162461bcd60e51b81526004016109ce9190614329565b6040518060a0016040528060006001600160a01b03168152602001606081526020016000815260200160006001600160801b0316815260200160006001600160801b031681525090565b600060208284031215613ab557600080fd5b81356001600160e01b031981168114610d2057600080fd5b634e487b7160e01b600052604160045260246000fd5b604051601f8201601f191681016001600160401b0381118282101715613b0b57613b0b613acd565b604052919050565b60006001600160401b03831115613b2c57613b2c613acd565b613b3f601f8401601f1916602001613ae3565b9050828152838383011115613b5357600080fd5b828260208301376000602084830101529392505050565b600082601f830112613b7b57600080fd5b610d2083833560208501613b13565b600060208284031215613b9c57600080fd5b81356001600160401b03811115613bb257600080fd5b6108b284828501613b6a565b6001600160a01b0381168114611c7757600080fd5b8035613bde81613bbe565b919050565b60008060008060808587031215613bf957600080fd5b8435613c0481613bbe565b93506020850135613c1481613bbe565b92506040850135915060608501356001600160401b03811115613c3657600080fd5b613c4287828801613b6a565b91505092959194509250565b60008060408385031215613c6157600080fd5b8235915060208301356001600160401b03811115613c7e57600080fd5b613c8a85828601613b6a565b9150509250929050565b60006101608284031215613ca757600080fd5b50919050565b60008060408385031215613cc057600080fd5b8235613ccb81613bbe565b915060208301356001600160401b03811115613ce657600080fd5b613c8a85828601613c94565b600060208284031215613d0457600080fd5b8135610d2081613bbe565b600080600060608486031215613d2457600080fd5b83356001600160401b03811115613d3a57600080fd5b613d4686828701613c94565b9660208601359650604090950135949350505050565b60008083601f840112613d6e57600080fd5b5081356001600160401b03811115613d8557600080fd5b6020830191508360208260051b850101111561348a57600080fd5b60008060008060008060608789031215613db957600080fd5b86356001600160401b0380821115613dd057600080fd5b613ddc8a838b01613d5c565b90985096506020890135915080821115613df557600080fd5b613e018a838b01613d5c565b90965094506040890135915080821115613e1a57600080fd5b50613e2789828a01613d5c565b979a9699509497509295939492505050565b60008060408385031215613e4c57600080fd5b8235613e5781613bbe565b946020939093013593505050565b60008083601f840112613e7757600080fd5b5081356001600160401b03811115613e8e57600080fd5b60208301915083602082850101111561348a57600080fd5b600080600060408486031215613ebb57600080fd5b83356001600160401b0380821115613ed257600080fd5b908501906101208288031215613ee757600080fd5b90935060208501359080821115613efd57600080fd5b50613f0a86828701613e65565b9497909650939450505050565b80516001600160a01b03908116835260208083015160a082860181905281519086018190526000939183019290849060c08801905b80831015613f6e57855185168252948301946001929092019190830190613f4c565b506040870151604089015260608701519450613f9560608901866001600160801b03169052565b60808701519450613fb160808901866001600160801b03169052565b979650505050505050565b6000602080830181845280855180835260408601915060408160051b870101925083870160005b8281101561401157603f19888603018452613fff858351613f17565b94509285019290850190600101613fe3565b5092979650505050505050565b60006020828403121561403057600080fd5b81356001600160401b0381111561404657600080fd5b8201601f8101841361405757600080fd5b6108b284823560208401613b13565b6000806020838503121561407957600080fd5b82356001600160401b0381111561408f57600080fd5b61409b85828601613d5c565b90969095509350505050565b60005b838110156140c25781810151838201526020016140aa565b50506000910152565b600081518084526140e38160208601602086016140a7565b601f01601f19169290920160200192915050565b6000602080830181845280855180835260408601915060408160051b870101925083870160005b8281101561401157603f1988860301845261413a8583516140cb565b9450928501929085019060010161411e565b6000806000806060858703121561416257600080fd5b843561416d81613bbe565b93506020850135925060408501356001600160401b0381111561418f57600080fd5b61419b87828801613e65565b95989497509550505050565b60006001600160401b038211156141c0576141c0613acd565b5060051b60200190565b600082601f8301126141db57600080fd5b813560206141f06141eb836141a7565b613ae3565b82815260059290921b8401810191818101908684111561420f57600080fd5b8286015b8481101561422a5780358352918301918301614213565b509695505050505050565b600080600080600060a0868803121561424d57600080fd5b853561425881613bbe565b9450602086013561426881613bbe565b935060408601356001600160401b038082111561428457600080fd5b61429089838a016141ca565b945060608801359150808211156142a657600080fd5b6142b289838a016141ca565b935060808801359150808211156142c857600080fd5b506142d588828901613b6a565b9150509295509295909350565b6000806000604084860312156142f757600080fd5b833561430281613bbe565b925060208401356001600160401b0381111561431d57600080fd5b613f0a86828701613e65565b602081526000610d2060208301846140cb565b600081518084526020808501945080840160005b838110156143755781516001600160a01b031687529582019590820190600101614350565b509495945050505050565b602081526000610d20602083018461433c565b8015158114611c7757600080fd5b6000602082840312156143b357600080fd5b8135610d2081614393565b602081526000610d206020830184613f17565b600080600080600060a086880312156143e957600080fd5b85356143f481613bbe565b9450602086013561440481613bbe565b9350604086013592506060860135915060808601356001600160401b0381111561442d57600080fd5b6142d588828901613b6a565b6000808335601e1984360301811261445057600080fd5b8301803591506001600160401b0382111561446a57600080fd5b60200191503681900382131561348a57600080fd5b634e487b7160e01b600052603260045260246000fd5b634e487b7160e01b600052601160045260246000fd5b6000600182016144bd576144bd614495565b5060010190565b6000602082840312156144d657600080fd5b5051919050565b6000826144fa57634e487b7160e01b600052601260045260246000fd5b500690565b818103818111156107ff576107ff614495565b60008060008060008060c0878903121561452b57600080fd5b865195506020870151945060408701519350606087015192506080870151915060a087015190509295509295509295565b60006020828403121561456e57600080fd5b8151610d2081614393565b85815284602082015260a06040820152600061459860a083018661433c565b6001600160a01b0394909416606083015250608001529392505050565b600060208083850312156145c857600080fd5b82516001600160401b038111156145de57600080fd5b8301601f810185136145ef57600080fd5b80516145fd6141eb826141a7565b81815260059190911b8201830190838101908783111561461c57600080fd5b928401925b82841015613fb157835182529284019290840190614621565b808201808211156107ff576107ff614495565b60208082526021908201527f4163636f756e743a206e6f742061646d696e206f7220456e747279506f696e746040820152601760f91b606082015260800190565b80356001600160801b0381168114613bde57600080fd5b6000602082840312156146b757600080fd5b610d208261468e565b803560ff81168114613bde57600080fd5b6000602082840312156146e357600080fd5b610d20826146c0565b6000808335601e1984360301811261470357600080fd5b8301803591506001600160401b0382111561471d57600080fd5b6020019150600581901b360382131561348a57600080fd5b6000808335601e1984360301811261474c57600080fd5b83016020810192503590506001600160401b0381111561476b57600080fd5b8060051b360382131561348a57600080fd5b8183526000602080850194508260005b858110156143755781356147a081613bbe565b6001600160a01b03168752958201959082019060010161478d565b602081526147dc602082016147cf84613bd3565b6001600160a01b03169052565b60006147ea602084016146c0565b60ff81166040840152506148016040840184614735565b6101208060608601526148196101408601838561477d565b9250606086013560808601526148316080870161468e565b6001600160801b03811660a0870152915061484e60a0870161468e565b6001600160801b03811660c0870152915061486b60c0870161468e565b6001600160801b03811660e0870152915061488860e0870161468e565b91506101006148a1818701846001600160801b03169052565b9590950135939094019290925250919050565b8284823760609190911b6bffffffffffffffffffffffff19169101908152601401919050565b600181811c908216806148ee57607f821691505b602082108103613ca757634e487b7160e01b600052602260045260246000fd5b602080825260059082015264214461746160d81b604082015260600190565b6000808585111561493d57600080fd5b8386111561494a57600080fd5b5050820193919092039150565b6001600160e01b0319813581811691600485101561497f5780818660040360031b1b83161692505b505092915050565b60006020828403121561499957600080fd5b5035919050565b600082601f8301126149b157600080fd5b813560206149c16141eb836141a7565b82815260059290921b840181019181810190868411156149e057600080fd5b8286015b8481101561422a5780356001600160401b03811115614a035760008081fd5b614a118986838b0101613b6a565b8452509183019183016149e4565b600080600060608486031215614a3457600080fd5b83356001600160401b0380821115614a4b57600080fd5b818601915086601f830112614a5f57600080fd5b81356020614a6f6141eb836141a7565b82815260059290921b8401810191818101908a841115614a8e57600080fd5b948201945b83861015614ab5578535614aa681613bbe565b82529482019490820190614a93565b97505087013592505080821115614acb57600080fd5b614ad7878388016141ca565b93506040860135915080821115614aed57600080fd5b50614afa868287016149a0565b9150509250925092565b60008251614b168184602087016140a7565b9190910192915050565b601f821115614b6657600081815260208120601f850160051c81016020861015614b475750805b601f850160051c820191505b8181101561155b57828155600101614b53565b505050565b81516001600160401b03811115614b8457614b84613acd565b614b9881614b9284546148da565b84614b20565b602080601f831160018114614bcd5760008415614bb55750858301515b600019600386901b1c1916600185901b17855561155b565b600085815260208120601f198616915b82811015614bfc57888601518255948401946001909101908401614bdd565b5085821015614c1a5787850151600019600388901b60f8161c191681555b5050505050600190811b01905550565b604081526000614c3d60408301856140cb565b8281036020840152614c4f81856140cb565b95945050505050565b60008184825b85811015614c8f578135614c7181613bbe565b6001600160a01b031683526020928301929190910190600101614c5e565b509095945050505050565b6001600160a01b03831681526040602082018190526000906108b2908301846140cb565b634e487b7160e01b600052602160045260246000fd5b634e487b7160e01b600052603160045260246000fdfe036f52c1827dab135f7fd44ca0bddde297e2f659c710e0ec53e975f22b548301322cf19c484104d3b1a9c2982ebae869ede3fa5f6c4703ca41b9a48c76ee0300416464726573733a206c6f772d6c6576656c2064656c65676174652063616c6c206661696c6564a2646970667358221220901f32a1ff162f40fd71c2c6b3905a3cd9b42af74c3f577d65225e978e17a4d564736f6c63430008140033",
    "linkReferences": {}
  },
  "methodIdentifiers": {
    "aavePool()": "a03e4bc3",
    "addDeposit()": "4a58db19",
    "allowedSupply()": "9934cdb1",
    "automationUpkeep()": "29245414",
    "contractURI()": "e8a3d485",
    "defaultToken()": "74c13fda",
    "entryPoint()": "b0d691fe",
    "execute(address,uint256,bytes)": "b61d27f6",
    "executeBatch(address[],uint256[],bytes[])": "47e1da2a",
    "executeSupplyToVault()": "b2836277",
    "executeSwapAndSupply(address)": "3dd6e025",
    "factory()": "c45a0155",
    "getAllActiveSigners()": "8b52d723",
    "getAllAdmins()": "e9523c97",
    "getAllSigners()": "d42f2f35",
    "getMessageHash(bytes)": "0a1028c4",
    "getNonce()": "d087d288",
    "getPermissionsForSigner(address)": "f15d424e",
    "ghoThreshold()": "4e11f6a5",
    "initialize(address,bytes)": "d1f57894",
    "isActiveSigner(address)": "7dff5a79",
    "isAdmin(address)": "24d7806c",
    "isValidSignature(bytes32,bytes)": "1626ba7e",
    "isValidSigner(address,(address,uint256,bytes,bytes,uint256,uint256,uint256,uint256,uint256,bytes,bytes))": "1dd756c5",
    "multicall(bytes[])": "ac9650d8",
    "onERC1155BatchReceived(address,address,uint256[],uint256[],bytes)": "bc197c81",
    "onERC1155Received(address,address,uint256,uint256,bytes)": "f23a6e61",
    "onERC721Received(address,address,uint256,bytes)": "150b7a02",
    "setAllowedSupply(bool)": "ec1afaaa",
    "setContractURI(string)": "938e3d7b",
    "setEntrypointOverride(address)": "b76464d5",
    "setPermissionsForSigner((address,uint8,address[],uint256,uint128,uint128,uint128,uint128,bytes32),bytes)": "5892e236",
    "supplyAndSwapTrigger()": "0db796e9",
    "supportsInterface(bytes4)": "01ffc9a7",
    "uniswapRouter()": "735de9f7",
    "usdcToken()": "11eac855",
    "validateUserOp((address,uint256,bytes,bytes,uint256,uint256,uint256,uint256,uint256,bytes,bytes),bytes32,uint256)": "3a871cdd",
    "vault()": "fbfa77cf",
    "verifySignerPermissionRequest((address,uint8,address[],uint256,uint128,uint128,uint128,uint128,bytes32),bytes)": "a9082d84",
    "withdrawDepositTo(address,uint256)": "4d44560d"
  },
  "id": 69
}