{
  "abi": [
    {
      "inputs": [
        {
          "internalType": "contract IEntryPoint",
          "name": "_entrypoint",
          "type": "address"
        },
        {
          "internalType": "address",
          "name": "_factory",
          "type": "address"
        }
      ],
      "stateMutability": "nonpayable",
      "type": "constructor"
    },
    {
      "anonymous": false,
      "inputs": [
        {
          "indexed": true,
          "internalType": "address",
          "name": "signer",
          "type": "address"
        },
        {
          "indexed": false,
          "internalType": "bool",
          "name": "isAdmin",
          "type": "bool"
        }
      ],
      "name": "AdminUpdated",
      "type": "event"
    },
    {
      "anonymous": false,
      "inputs": [
        {
          "indexed": false,
          "internalType": "string",
          "name": "prevURI",
          "type": "string"
        },
        {
          "indexed": false,
          "internalType": "string",
          "name": "newURI",
          "type": "string"
        }
      ],
      "name": "ContractURIUpdated",
      "type": "event"
    },
    {
      "anonymous": false,
      "inputs": [
        {
          "indexed": false,
          "internalType": "uint8",
          "name": "version",
          "type": "uint8"
        }
      ],
      "name": "Initialized",
      "type": "event"
    },
    {
      "anonymous": false,
      "inputs": [
        {
          "indexed": true,
          "internalType": "address",
          "name": "authorizingSigner",
          "type": "address"
        },
        {
          "indexed": true,
          "internalType": "address",
          "name": "targetSigner",
          "type": "address"
        },
        {
          "components": [
            {
              "internalType": "address",
              "name": "signer",
              "type": "address"
            },
            {
              "internalType": "uint8",
              "name": "isAdmin",
              "type": "uint8"
            },
            {
              "internalType": "address[]",
              "name": "approvedTargets",
              "type": "address[]"
            },
            {
              "internalType": "uint256",
              "name": "nativeTokenLimitPerTransaction",
              "type": "uint256"
            },
            {
              "internalType": "uint128",
              "name": "permissionStartTimestamp",
              "type": "uint128"
            },
            {
              "internalType": "uint128",
              "name": "permissionEndTimestamp",
              "type": "uint128"
            },
            {
              "internalType": "uint128",
              "name": "reqValidityStartTimestamp",
              "type": "uint128"
            },
            {
              "internalType": "uint128",
              "name": "reqValidityEndTimestamp",
              "type": "uint128"
            },
            {
              "internalType": "bytes32",
              "name": "uid",
              "type": "bytes32"
            }
          ],
          "indexed": false,
          "internalType": "struct IAccountPermissions.SignerPermissionRequest",
          "name": "permissions",
          "type": "tuple"
        }
      ],
      "name": "SignerPermissionsUpdated",
      "type": "event"
    },
    {
      "inputs": [],
      "name": "aavePool",
      "outputs": [
        {
          "internalType": "address",
          "name": "",
          "type": "address"
        }
      ],
      "stateMutability": "view",
      "type": "function"
    },
    {
      "inputs": [],
      "name": "addDeposit",
      "outputs": [],
      "stateMutability": "payable",
      "type": "function"
    },
    {
      "inputs": [],
      "name": "allowedSupply",
      "outputs": [
        {
          "internalType": "bool",
          "name": "",
          "type": "bool"
        }
      ],
      "stateMutability": "view",
      "type": "function"
    },
    {
      "inputs": [],
      "name": "automationUpkeep",
      "outputs": [
        {
          "internalType": "address",
          "name": "",
          "type": "address"
        }
      ],
      "stateMutability": "view",
      "type": "function"
    },
    {
      "inputs": [],
      "name": "contractURI",
      "outputs": [
        {
          "internalType": "string",
          "name": "",
          "type": "string"
        }
      ],
      "stateMutability": "view",
      "type": "function"
    },
    {
      "inputs": [],
      "name": "defaultToken",
      "outputs": [
        {
          "internalType": "address",
          "name": "",
          "type": "address"
        }
      ],
      "stateMutability": "view",
      "type": "function"
    },
    {
      "inputs": [],
      "name": "entryPoint",
      "outputs": [
        {
          "internalType": "contract IEntryPoint",
          "name": "",
          "type": "address"
        }
      ],
      "stateMutability": "view",
      "type": "function"
    },
    {
      "inputs": [
        {
          "internalType": "address",
          "name": "_target",
          "type": "address"
        },
        {
          "internalType": "uint256",
          "name": "_value",
          "type": "uint256"
        },
        {
          "internalType": "bytes",
          "name": "_calldata",
          "type": "bytes"
        }
      ],
      "name": "execute",
      "outputs": [],
      "stateMutability": "nonpayable",
      "type": "function"
    },
    {
      "inputs": [
        {
          "internalType": "address[]",
          "name": "_target",
          "type": "address[]"
        },
        {
          "internalType": "uint256[]",
          "name": "_value",
          "type": "uint256[]"
        },
        {
          "internalType": "bytes[]",
          "name": "_calldata",
          "type": "bytes[]"
        }
      ],
      "name": "executeBatch",
      "outputs": [],
      "stateMutability": "nonpayable",
      "type": "function"
    },
    {
      "inputs": [],
      "name": "executeSupplyToVault",
      "outputs": [],
      "stateMutability": "nonpayable",
      "type": "function"
    },
    {
      "inputs": [
        {
          "internalType": "address",
          "name": "token",
          "type": "address"
        }
      ],
      "name": "executeSwapAndSupply",
      "outputs": [],
      "stateMutability": "nonpayable",
      "type": "function"
    },
    {
      "inputs": [],
      "name": "factory",
      "outputs": [
        {
          "internalType": "address",
          "name": "",
          "type": "address"
        }
      ],
      "stateMutability": "view",
      "type": "function"
    },
    {
      "inputs": [],
      "name": "getAllActiveSigners",
      "outputs": [
        {
          "components": [
            {
              "internalType": "address",
              "name": "signer",
              "type": "address"
            },
            {
              "internalType": "address[]",
              "name": "approvedTargets",
              "type": "address[]"
            },
            {
              "internalType": "uint256",
              "name": "nativeTokenLimitPerTransaction",
              "type": "uint256"
            },
            {
              "internalType": "uint128",
              "name": "startTimestamp",
              "type": "uint128"
            },
            {
              "internalType": "uint128",
              "name": "endTimestamp",
              "type": "uint128"
            }
          ],
          "internalType": "struct IAccountPermissions.SignerPermissions[]",
          "name": "signers",
          "type": "tuple[]"
        }
      ],
      "stateMutability": "view",
      "type": "function"
    },
    {
      "inputs": [],
      "name": "getAllAdmins",
      "outputs": [
        {
          "internalType": "address[]",
          "name": "",
          "type": "address[]"
        }
      ],
      "stateMutability": "view",
      "type": "function"
    },
    {
      "inputs": [],
      "name": "getAllSigners",
      "outputs": [
        {
          "components": [
            {
              "internalType": "address",
              "name": "signer",
              "type": "address"
            },
            {
              "internalType": "address[]",
              "name": "approvedTargets",
              "type": "address[]"
            },
            {
              "internalType": "uint256",
              "name": "nativeTokenLimitPerTransaction",
              "type": "uint256"
            },
            {
              "internalType": "uint128",
              "name": "startTimestamp",
              "type": "uint128"
            },
            {
              "internalType": "uint128",
              "name": "endTimestamp",
              "type": "uint128"
            }
          ],
          "internalType": "struct IAccountPermissions.SignerPermissions[]",
          "name": "signers",
          "type": "tuple[]"
        }
      ],
      "stateMutability": "view",
      "type": "function"
    },
    {
      "inputs": [
        {
          "internalType": "bytes",
          "name": "message",
          "type": "bytes"
        }
      ],
      "name": "getMessageHash",
      "outputs": [
        {
          "internalType": "bytes32",
          "name": "",
          "type": "bytes32"
        }
      ],
      "stateMutability": "view",
      "type": "function"
    },
    {
      "inputs": [],
      "name": "getNonce",
      "outputs": [
        {
          "internalType": "uint256",
          "name": "",
          "type": "uint256"
        }
      ],
      "stateMutability": "view",
      "type": "function"
    },
    {
      "inputs": [
        {
          "internalType": "address",
          "name": "signer",
          "type": "address"
        }
      ],
      "name": "getPermissionsForSigner",
      "outputs": [
        {
          "components": [
            {
              "internalType": "address",
              "name": "signer",
              "type": "address"
            },
            {
              "internalType": "address[]",
              "name": "approvedTargets",
              "type": "address[]"
            },
            {
              "internalType": "uint256",
              "name": "nativeTokenLimitPerTransaction",
              "type": "uint256"
            },
            {
              "internalType": "uint128",
              "name": "startTimestamp",
              "type": "uint128"
            },
            {
              "internalType": "uint128",
              "name": "endTimestamp",
              "type": "uint128"
            }
          ],
          "internalType": "struct IAccountPermissions.SignerPermissions",
          "name": "",
          "type": "tuple"
        }
      ],
      "stateMutability": "view",
      "type": "function"
    },
    {
      "inputs": [],
      "name": "ghoTreshold",
      "outputs": [
        {
          "internalType": "uint256",
          "name": "",
          "type": "uint256"
        }
      ],
      "stateMutability": "view",
      "type": "function"
    },
    {
      "inputs": [
        {
          "internalType": "address",
          "name": "_defaultAdmin",
          "type": "address"
        },
        {
          "internalType": "bytes",
          "name": "_data",
          "type": "bytes"
        }
      ],
      "name": "initialize",
      "outputs": [],
      "stateMutability": "nonpayable",
      "type": "function"
    },
    {
      "inputs": [
        {
          "internalType": "address",
          "name": "signer",
          "type": "address"
        }
      ],
      "name": "isActiveSigner",
      "outputs": [
        {
          "internalType": "bool",
          "name": "",
          "type": "bool"
        }
      ],
      "stateMutability": "view",
      "type": "function"
    },
    {
      "inputs": [
        {
          "internalType": "address",
          "name": "_account",
          "type": "address"
        }
      ],
      "name": "isAdmin",
      "outputs": [
        {
          "internalType": "bool",
          "name": "",
          "type": "bool"
        }
      ],
      "stateMutability": "view",
      "type": "function"
    },
    {
      "inputs": [
        {
          "internalType": "bytes32",
          "name": "_message",
          "type": "bytes32"
        },
        {
          "internalType": "bytes",
          "name": "_signature",
          "type": "bytes"
        }
      ],
      "name": "isValidSignature",
      "outputs": [
        {
          "internalType": "bytes4",
          "name": "magicValue",
          "type": "bytes4"
        }
      ],
      "stateMutability": "view",
      "type": "function"
    },
    {
      "inputs": [
        {
          "internalType": "address",
          "name": "_signer",
          "type": "address"
        },
        {
          "components": [
            {
              "internalType": "address",
              "name": "sender",
              "type": "address"
            },
            {
              "internalType": "uint256",
              "name": "nonce",
              "type": "uint256"
            },
            {
              "internalType": "bytes",
              "name": "initCode",
              "type": "bytes"
            },
            {
              "internalType": "bytes",
              "name": "callData",
              "type": "bytes"
            },
            {
              "internalType": "uint256",
              "name": "callGasLimit",
              "type": "uint256"
            },
            {
              "internalType": "uint256",
              "name": "verificationGasLimit",
              "type": "uint256"
            },
            {
              "internalType": "uint256",
              "name": "preVerificationGas",
              "type": "uint256"
            },
            {
              "internalType": "uint256",
              "name": "maxFeePerGas",
              "type": "uint256"
            },
            {
              "internalType": "uint256",
              "name": "maxPriorityFeePerGas",
              "type": "uint256"
            },
            {
              "internalType": "bytes",
              "name": "paymasterAndData",
              "type": "bytes"
            },
            {
              "internalType": "bytes",
              "name": "signature",
              "type": "bytes"
            }
          ],
          "internalType": "struct UserOperation",
          "name": "_userOp",
          "type": "tuple"
        }
      ],
      "name": "isValidSigner",
      "outputs": [
        {
          "internalType": "bool",
          "name": "",
          "type": "bool"
        }
      ],
      "stateMutability": "view",
      "type": "function"
    },
    {
      "inputs": [
        {
          "internalType": "bytes[]",
          "name": "data",
          "type": "bytes[]"
        }
      ],
      "name": "multicall",
      "outputs": [
        {
          "internalType": "bytes[]",
          "name": "results",
          "type": "bytes[]"
        }
      ],
      "stateMutability": "nonpayable",
      "type": "function"
    },
    {
      "inputs": [
        {
          "internalType": "address",
          "name": "",
          "type": "address"
        },
        {
          "internalType": "address",
          "name": "",
          "type": "address"
        },
        {
          "internalType": "uint256[]",
          "name": "",
          "type": "uint256[]"
        },
        {
          "internalType": "uint256[]",
          "name": "",
          "type": "uint256[]"
        },
        {
          "internalType": "bytes",
          "name": "",
          "type": "bytes"
        }
      ],
      "name": "onERC1155BatchReceived",
      "outputs": [
        {
          "internalType": "bytes4",
          "name": "",
          "type": "bytes4"
        }
      ],
      "stateMutability": "nonpayable",
      "type": "function"
    },
    {
      "inputs": [
        {
          "internalType": "address",
          "name": "",
          "type": "address"
        },
        {
          "internalType": "address",
          "name": "",
          "type": "address"
        },
        {
          "internalType": "uint256",
          "name": "",
          "type": "uint256"
        },
        {
          "internalType": "uint256",
          "name": "",
          "type": "uint256"
        },
        {
          "internalType": "bytes",
          "name": "",
          "type": "bytes"
        }
      ],
      "name": "onERC1155Received",
      "outputs": [
        {
          "internalType": "bytes4",
          "name": "",
          "type": "bytes4"
        }
      ],
      "stateMutability": "nonpayable",
      "type": "function"
    },
    {
      "inputs": [
        {
          "internalType": "address",
          "name": "",
          "type": "address"
        },
        {
          "internalType": "address",
          "name": "",
          "type": "address"
        },
        {
          "internalType": "uint256",
          "name": "",
          "type": "uint256"
        },
        {
          "internalType": "bytes",
          "name": "",
          "type": "bytes"
        }
      ],
      "name": "onERC721Received",
      "outputs": [
        {
          "internalType": "bytes4",
          "name": "",
          "type": "bytes4"
        }
      ],
      "stateMutability": "nonpayable",
      "type": "function"
    },
    {
      "inputs": [
        {
          "internalType": "bool",
          "name": "_allowedSupply",
          "type": "bool"
        }
      ],
      "name": "setAllowedSupply",
      "outputs": [],
      "stateMutability": "nonpayable",
      "type": "function"
    },
    {
      "inputs": [
        {
          "internalType": "string",
          "name": "_uri",
          "type": "string"
        }
      ],
      "name": "setContractURI",
      "outputs": [],
      "stateMutability": "nonpayable",
      "type": "function"
    },
    {
      "inputs": [
        {
          "internalType": "contract IEntryPoint",
          "name": "_entrypointOverride",
          "type": "address"
        }
      ],
      "name": "setEntrypointOverride",
      "outputs": [],
      "stateMutability": "nonpayable",
      "type": "function"
    },
    {
      "inputs": [
        {
          "components": [
            {
              "internalType": "address",
              "name": "signer",
              "type": "address"
            },
            {
              "internalType": "uint8",
              "name": "isAdmin",
              "type": "uint8"
            },
            {
              "internalType": "address[]",
              "name": "approvedTargets",
              "type": "address[]"
            },
            {
              "internalType": "uint256",
              "name": "nativeTokenLimitPerTransaction",
              "type": "uint256"
            },
            {
              "internalType": "uint128",
              "name": "permissionStartTimestamp",
              "type": "uint128"
            },
            {
              "internalType": "uint128",
              "name": "permissionEndTimestamp",
              "type": "uint128"
            },
            {
              "internalType": "uint128",
              "name": "reqValidityStartTimestamp",
              "type": "uint128"
            },
            {
              "internalType": "uint128",
              "name": "reqValidityEndTimestamp",
              "type": "uint128"
            },
            {
              "internalType": "bytes32",
              "name": "uid",
              "type": "bytes32"
            }
          ],
          "internalType": "struct IAccountPermissions.SignerPermissionRequest",
          "name": "_req",
          "type": "tuple"
        },
        {
          "internalType": "bytes",
          "name": "_signature",
          "type": "bytes"
        }
      ],
      "name": "setPermissionsForSigner",
      "outputs": [],
      "stateMutability": "nonpayable",
      "type": "function"
    },
    {
      "inputs": [
        {
          "internalType": "bytes4",
          "name": "interfaceId",
          "type": "bytes4"
        }
      ],
      "name": "supportsInterface",
      "outputs": [
        {
          "internalType": "bool",
          "name": "",
          "type": "bool"
        }
      ],
      "stateMutability": "view",
      "type": "function"
    },
    {
      "inputs": [],
      "name": "uniswapRouter",
      "outputs": [
        {
          "internalType": "address",
          "name": "",
          "type": "address"
        }
      ],
      "stateMutability": "view",
      "type": "function"
    },
    {
      "inputs": [
        {
          "components": [
            {
              "internalType": "address",
              "name": "sender",
              "type": "address"
            },
            {
              "internalType": "uint256",
              "name": "nonce",
              "type": "uint256"
            },
            {
              "internalType": "bytes",
              "name": "initCode",
              "type": "bytes"
            },
            {
              "internalType": "bytes",
              "name": "callData",
              "type": "bytes"
            },
            {
              "internalType": "uint256",
              "name": "callGasLimit",
              "type": "uint256"
            },
            {
              "internalType": "uint256",
              "name": "verificationGasLimit",
              "type": "uint256"
            },
            {
              "internalType": "uint256",
              "name": "preVerificationGas",
              "type": "uint256"
            },
            {
              "internalType": "uint256",
              "name": "maxFeePerGas",
              "type": "uint256"
            },
            {
              "internalType": "uint256",
              "name": "maxPriorityFeePerGas",
              "type": "uint256"
            },
            {
              "internalType": "bytes",
              "name": "paymasterAndData",
              "type": "bytes"
            },
            {
              "internalType": "bytes",
              "name": "signature",
              "type": "bytes"
            }
          ],
          "internalType": "struct UserOperation",
          "name": "userOp",
          "type": "tuple"
        },
        {
          "internalType": "bytes32",
          "name": "userOpHash",
          "type": "bytes32"
        },
        {
          "internalType": "uint256",
          "name": "missingAccountFunds",
          "type": "uint256"
        }
      ],
      "name": "validateUserOp",
      "outputs": [
        {
          "internalType": "uint256",
          "name": "validationData",
          "type": "uint256"
        }
      ],
      "stateMutability": "nonpayable",
      "type": "function"
    },
    {
      "inputs": [],
      "name": "vault",
      "outputs": [
        {
          "internalType": "address",
          "name": "",
          "type": "address"
        }
      ],
      "stateMutability": "view",
      "type": "function"
    },
    {
      "inputs": [
        {
          "components": [
            {
              "internalType": "address",
              "name": "signer",
              "type": "address"
            },
            {
              "internalType": "uint8",
              "name": "isAdmin",
              "type": "uint8"
            },
            {
              "internalType": "address[]",
              "name": "approvedTargets",
              "type": "address[]"
            },
            {
              "internalType": "uint256",
              "name": "nativeTokenLimitPerTransaction",
              "type": "uint256"
            },
            {
              "internalType": "uint128",
              "name": "permissionStartTimestamp",
              "type": "uint128"
            },
            {
              "internalType": "uint128",
              "name": "permissionEndTimestamp",
              "type": "uint128"
            },
            {
              "internalType": "uint128",
              "name": "reqValidityStartTimestamp",
              "type": "uint128"
            },
            {
              "internalType": "uint128",
              "name": "reqValidityEndTimestamp",
              "type": "uint128"
            },
            {
              "internalType": "bytes32",
              "name": "uid",
              "type": "bytes32"
            }
          ],
          "internalType": "struct IAccountPermissions.SignerPermissionRequest",
          "name": "req",
          "type": "tuple"
        },
        {
          "internalType": "bytes",
          "name": "signature",
          "type": "bytes"
        }
      ],
      "name": "verifySignerPermissionRequest",
      "outputs": [
        {
          "internalType": "bool",
          "name": "success",
          "type": "bool"
        },
        {
          "internalType": "address",
          "name": "signer",
          "type": "address"
        }
      ],
      "stateMutability": "view",
      "type": "function"
    },
    {
      "inputs": [
        {
          "internalType": "address payable",
          "name": "withdrawAddress",
          "type": "address"
        },
        {
          "internalType": "uint256",
          "name": "amount",
          "type": "uint256"
        }
      ],
      "name": "withdrawDepositTo",
      "outputs": [],
      "stateMutability": "nonpayable",
      "type": "function"
    },
    {
      "stateMutability": "payable",
      "type": "receive"
    }
  ],
  "bytecode": {
    "object": "0x6101806040523480156200001257600080fd5b5060405162004e4538038062004e45833981016040819052620000359162000274565b60408051808201825260078152661058d8dbdd5b9d60ca1b60208083019182528351808501855260018152603160f81b908201529151902060e08190527fc89efdaa54c0f20c7adf612882df0950f5a951637e0307cdcb4c672f298b8bc66101008190524660a081815285517f8b73c3c69bb8fe3d512ecc4cf759cc79239f7b179b0ffacaa9a75d522b39400f818701819052818801959095526060810193909352608080840192909252308382018190528651808503909201825260c093840190965280519401939093209092529190526101205281816200011762000158565b6001600160a01b039081166101405216610160525050600180546001600160a01b031916331790556005805460ff60a01b1916600160a01b179055620002b3565b7f322cf19c484104d3b1a9c2982ebae869ede3fa5f6c4703ca41b9a48c76ee03005460ff808216916101009004168015620001e95760405162461bcd60e51b815260206004820152602760248201527f496e697469616c697a61626c653a20636f6e747261637420697320696e697469604482015266616c697a696e6760c81b606482015260840160405180910390fd5b60ff828116101562000257577f322cf19c484104d3b1a9c2982ebae869ede3fa5f6c4703ca41b9a48c76ee0300805460ff191660ff90811790915560408051918252517f7f26b83ff96e1f2b6a682f133852f6798a09c465da95921460cefb38474024989181900360200190a15b5050565b6001600160a01b03811681146200027157600080fd5b50565b600080604083850312156200028857600080fd5b825162000295816200025b565b6020840151909250620002a8816200025b565b809150509250929050565b60805160a05160c05160e05161010051610120516101405161016051614b02620003436000396000611d9401526000818161062001528181612b7f01528181612d0f01528181612d4501528181612e0d01528181612e830152612eb301526000612764015260006127b30152600061278e015260006126e7015260006127110152600061273b0152614b026000f3fe6080604052600436106102295760003560e01c80639934cdb111610123578063c45a0155116100ab578063e9523c971161006f578063e9523c97146106ae578063ec1afaaa146106d0578063f15d424e146106f0578063f23a6e611461071d578063fbfa77cf1461074957600080fd5b8063c45a01551461060e578063d087d28814610642578063d1f5789414610657578063d42f2f3514610677578063e8a3d4851461068c57600080fd5b8063b0d691fe116100f2578063b0d691fe14610578578063b28362771461058d578063b61d27f6146105a2578063b76464d5146105c2578063bc197c81146105e257600080fd5b80639934cdb1146104cb578063a03e4bc3146104ec578063a9082d841461050c578063ac9650d81461054b57600080fd5b806347e1da2a116101b1578063735de9f711610175578063735de9f71461042957806374c13fda146104495780637dff5a79146104695780638b52d72314610489578063938e3d7b146104ab57600080fd5b806347e1da2a146103ab5780634a58db19146103cb5780634d44560d146103d35780634e9eb56e146103f35780635892e2361461040957600080fd5b80631dd756c5116101f85780631dd756c5146102f157806324d7806c1461031157806329245414146103315780633a871cdd146103695780633dd6e0251461038957600080fd5b806301ffc9a7146102355780630a1028c41461026a578063150b7a02146102985780631626ba7e146102d157600080fd5b3661023057005b600080fd5b34801561024157600080fd5b506102556102503660046138a3565b610769565b60405190151581526020015b60405180910390f35b34801561027657600080fd5b5061028a61028536600461398a565b6107af565b604051908152602001610261565b3480156102a457600080fd5b506102b86102b33660046139e3565b610853565b6040516001600160e01b03199091168152602001610261565b3480156102dd57600080fd5b506102b86102ec366004613a4e565b610864565b3480156102fd57600080fd5b5061025561030c366004613aad565b6109a4565b34801561031d57600080fd5b5061025561032c366004613af2565b610c7c565b34801561033d57600080fd5b50600154610351906001600160a01b031681565b6040516001600160a01b039091168152602001610261565b34801561037557600080fd5b5061028a610384366004613b0f565b610cab565b34801561039557600080fd5b506103a96103a4366004613af2565b610cd1565b005b3480156103b757600080fd5b506103a96103c6366004613ba0565b611234565b6103a96113a5565b3480156103df57600080fd5b506103a96103ee366004613c39565b61140c565b3480156103ff57600080fd5b5061028a60005481565b34801561041557600080fd5b506103a9610424366004613ca6565b611485565b34801561043557600080fd5b50600354610351906001600160a01b031681565b34801561045557600080fd5b50600254610351906001600160a01b031681565b34801561047557600080fd5b50610255610484366004613af2565b611842565b34801561049557600080fd5b5061049e6118fb565b6040516102619190613dbc565b3480156104b757600080fd5b506103a96104c6366004613e1e565b611b42565b3480156104d757600080fd5b5060055461025590600160a01b900460ff1681565b3480156104f857600080fd5b50600454610351906001600160a01b031681565b34801561051857600080fd5b5061052c610527366004613ca6565b611b93565b6040805192151583526001600160a01b03909116602083015201610261565b34801561055757600080fd5b5061056b610566366004613e66565b611bea565b6040516102619190613ef7565b34801561058457600080fd5b50610351611d59565b34801561059957600080fd5b506103a9611db9565b3480156105ae57600080fd5b506103a96105bd366004613f4c565b611fa3565b3480156105ce57600080fd5b506103a96105dd366004613af2565b612033565b3480156105ee57600080fd5b506102b86105fd366004614035565b63bc197c8160e01b95945050505050565b34801561061a57600080fd5b506103517f000000000000000000000000000000000000000000000000000000000000000081565b34801561064e57600080fd5b5061028a61207c565b34801561066357600080fd5b506103a96106723660046140e2565b6120fc565b34801561068357600080fd5b5061049e612334565b34801561069857600080fd5b506106a16124a5565b6040516102619190614129565b3480156106ba57600080fd5b506106c3612556565b6040516102619190614180565b3480156106dc57600080fd5b506103a96106eb3660046141a1565b612568565b3480156106fc57600080fd5b5061071061070b366004613af2565b6125cd565b60405161026191906141be565b34801561072957600080fd5b506102b86107383660046141d1565b63f23a6e6160e01b95945050505050565b34801561075557600080fd5b50600554610351906001600160a01b031681565b60006001600160e01b03198216630271189760e51b148061079a57506001600160e01b03198216630a85bd0160e11b145b806107a957506107a9826126a5565b92915050565b6000807f82cac545155fcbf147f2a9013809613677ac7d65498556e6d19ce43bcbf6c28483805190602001206040516020016107f5929190918252602082015260400190565b6040516020818303038152906040528051906020012090506108156126da565b60405161190160f01b602082015260228101919091526042810182905260620160405160208183030381529060405280519060200120915050919050565b630a85bd0160e11b5b949350505050565b6000806108918460405160200161087d91815260200190565b6040516020818303038152906040526107af565b9050600061089f8285612801565b90506108aa81610c7c565b156108c15750630b135d3f60e11b91506107a99050565b3360006108cc612825565b6001600160a01b03841660009081526006919091016020526040902090506108f48183612849565b8061092457506109038161286b565b6001148015610924575060006109198282612875565b6001600160a01b0316145b6109815760405162461bcd60e51b8152602060048201526024808201527f4163636f756e743a2063616c6c6572206e6f7420617070726f7665642074617260448201526333b2ba1760e11b60648201526084015b60405180910390fd5b61098a83611842565b1561099a57630b135d3f60e11b94505b5050505092915050565b60006109ae612825565b6001600160a01b0384166000908152600491909101602052604090205460ff16156109db575060016107a9565b60006109e5612825565b6001600160a01b0385166000908152600591909101602090815260408083208151606081018352815481526001909101546001600160801b0380821694830194909452600160801b9004909216908201529150610a40612825565b6006016000866001600160a01b03166001600160a01b0316815260200190815260200160002090504282602001516001600160801b03161180610a90575081604001516001600160801b03164210155b80610aa15750610a9f8161286b565b155b15610ab1576000925050506107a9565b6000610ac8610ac36060870187614239565b612881565b90506000610ad58361286b565b6001148015610af657506000610aeb8482612875565b6001600160a01b0316145b90506324f16c0560e11b6001600160e01b0319831601610b6d57600080610b28610b2360608a018a614239565b6128bb565b9150915082610b4e57610b3b8583612849565b610b4e57600096505050505050506107a9565b8551811115610b6657600096505050505050506107a9565b5050610c6f565b635c0f12eb60e11b6001600160e01b0319831601610c6257600080610b9d610b9860608a018a614239565b612920565b509150915082610c075760005b8251811015610c0557610bdf838281518110610bc857610bc861427f565b60200260200101518761284990919063ffffffff16565b610bf35760009750505050505050506107a9565b80610bfd816142ab565b915050610baa565b505b60005b8251811015610c5a57818181518110610c2557610c2561427f565b602002602001015187600001511015610c485760009750505050505050506107a9565b80610c52816142ab565b915050610c0a565b505050610c6f565b60009450505050506107a9565b5060019695505050505050565b6000610c86612825565b6001600160a01b03909216600090815260049290920160205250604090205460ff1690565b6000610cb561296d565b610cbf84846129d7565b9050610cca82612b1d565b9392505050565b6001546001600160a01b0316331480610cee5750610cee33610c7c565b610d3a5760405162461bcd60e51b815260206004820152601d60248201527f4163636f756e743a206e6f742061646d696e206f722055706b6565702e0000006044820152606401610978565b600554600160a01b900460ff16610d935760405162461bcd60e51b815260206004820152601760248201527f4163636f756e743a20737570706c79207061757365642e0000000000000000006044820152606401610978565b6040516370a0823160e01b81523060048201526000906001600160a01b038316906370a0823190602401602060405180830381865afa158015610dda573d6000803e3d6000fd5b505050506040513d601f19601f82011682018060405250810190610dfe91906142c4565b90506000610e0f620f4240836142dd565b90506000610e1d82846142ff565b60048054604051632fe4a15f60e21b815230928101929092529192506000916001600160a01b03169063bf92857c9060240160c060405180830381865afa158015610e6c573d6000803e3d6000fd5b505050506040513d601f19601f82011682018060405250810190610e909190614312565b5050505091505060008311156110ab57600081118015610eb05750808311155b15610fbb576004805460405163095ea7b360e01b81526001600160a01b03918216928101929092526024820185905286169063095ea7b3906044016020604051808303816000875af1158015610f0a573d6000803e3d6000fd5b505050506040513d601f19601f82011682018060405250810190610f2e919061435c565b506004805460405163573ade8160e01b81526001600160a01b0388811693820193909352602481018690526002604482015230606482015291169063573ade81906084016020604051808303816000875af1158015610f91573d6000803e3d6000fd5b505050506040513d601f19601f82011682018060405250810190610fb591906142c4565b506110ab565b6004805460405163095ea7b360e01b81526001600160a01b03918216928101929092526024820185905286169063095ea7b3906044016020604051808303816000875af1158015611010573d6000803e3d6000fd5b505050506040513d601f19601f82011682018060405250810190611034919061435c565b506004805460405163617ba03760e01b81526001600160a01b0388811693820193909352602481018690523060448201526000606482015291169063617ba03790608401600060405180830381600087803b15801561109257600080fd5b505af11580156110a6573d6000803e3d6000fd5b505050505b60408051600280825260608201835260009260208301908036833701905050905085816000815181106110e0576110e061427f565b6001600160a01b0392831660209182029290920101526002548251911690829060019081106111115761111161427f565b6001600160a01b03928316602091820292909201015260035460405163095ea7b360e01b81529082166004820152602481018590529087169063095ea7b3906044016020604051808303816000875af1158015611172573d6000803e3d6000fd5b505050506040513d601f19601f82011682018060405250810190611196919061435c565b506003546040516338ed173960e01b81526000916001600160a01b0316906338ed1739906111d09087908190879030904290600401614379565b6020604051808303816000875af11580156111ef573d6000803e3d6000fd5b505050506040513d601f19601f8201168201806040525081019061121391906142c4565b90508060008082825461122691906143b5565b909155505050505050505050565b61123c611d59565b6001600160a01b0316336001600160a01b0316148061125f575061125f33610c7c565b61127b5760405162461bcd60e51b8152600401610978906143c8565b611283612b6a565b848114801561129157508483145b6112dd5760405162461bcd60e51b815260206004820152601d60248201527f4163636f756e743a2077726f6e67206172726179206c656e677468732e0000006044820152606401610978565b60005b8581101561139c576113898787838181106112fd576112fd61427f565b90506020020160208101906113129190613af2565b8686848181106113245761132461427f565b9050602002013585858581811061133d5761133d61427f565b905060200281019061134f9190614239565b8080601f016020809104026020016040519081016040528093929190818152602001838380828437600092019190915250612c4c92505050565b5080611394816142ab565b9150506112e0565b50505050505050565b6113ad611d59565b60405163b760faf960e01b81523060048201526001600160a01b03919091169063b760faf99034906024016000604051808303818588803b1580156113f157600080fd5b505af1158015611405573d6000803e3d6000fd5b5050505050565b611414612cbd565b61141c611d59565b60405163040b850f60e31b81526001600160a01b03848116600483015260248201849052919091169063205c2878906044015b600060405180830381600087803b15801561146957600080fd5b505af115801561147d573d6000803e3d6000fd5b505050505050565b60006114946020850185613af2565b9050426114a760e0860160c08701614420565b6001600160801b0316111580156114d657506114ca610100850160e08601614420565b6001600160801b031642105b61150c5760405162461bcd60e51b8152602060048201526007602482015266085c195c9a5bd960ca1b6044820152606401610978565b60008061151a868686611b93565b91509150816115545760405162461bcd60e51b8152600401610978906020808252600490820152632173696760e01b604082015260600190565b600161155e612825565b610100880135600090815260079190910160209081526040808320805460ff191694151594909417909355909161159a9190890190890161444c565b60ff1611156115c75760006115b5604088016020890161444c565b60ff16600114905061139c8482612cfb565b6115d083610c7c565b156116055760405162461bcd60e51b815260206004820152600560248201526430b236b4b760d91b6044820152606401610978565b61161a83611611612825565b60020190612e42565b506040518060600160405280876060013581526020018760800160208101906116439190614420565b6001600160801b0316815260200161166160c0890160a08a01614420565b6001600160801b03169052611674612825565b6001600160a01b03851660009081526005919091016020908152604080832084518155918401519301516001600160801b03908116600160801b029316929092176001909201919091556116ea6116c9612825565b6001600160a01b038616600090815260069190910160205260409020612e57565b805190915060005b818110156117545761174183828151811061170f5761170f61427f565b602002602001015161171f612825565b6001600160a01b03891660009081526006919091016020526040902090612e64565b5061174d6001826143b5565b90506116f2565b506117626040890189614467565b9050905060005b818110156117e3576117d061178160408b018b614467565b838181106117915761179161427f565b90506020020160208101906117a69190613af2565b6117ae612825565b6001600160a01b03891660009081526006919091016020526040902090612e42565b506117dc6001826143b5565b9050611769565b506117ed88612e79565b846001600160a01b0316836001600160a01b03167ff21d10c26e35863a8df291aca54181ee8c4a3bc8e00246c3f7a5a14b69d826a78a6040516118309190614536565b60405180910390a35050505050505050565b60008061184d612825565b6001600160a01b038416600090815260059190910160209081526040918290208251606081018452815481526001909101546001600160801b03808216938301849052600160801b909104169281019290925290915042108015906118be575080604001516001600160801b031642105b8015610cca575060006118f36118d2612825565b6001600160a01b03861660009081526006919091016020526040902061286b565b119392505050565b6060600061191261190a612825565b600201612e57565b80519091506000805b828110156119a3576119458482815181106119385761193861427f565b6020026020010151611842565b1561195c5781611954816142ab565b925050611991565b60008482815181106119705761197061427f565b60200260200101906001600160a01b031690816001600160a01b0316815250505b61199c6001826143b5565b905061191b565b50806001600160401b038111156119bc576119bc6138cd565b6040519080825280602002602001820160405280156119f557816020015b6119e2613859565b8152602001906001900390816119da5790505b5093506000805b83811015611b3a5760006001600160a01b0316858281518110611a2157611a2161427f565b60200260200101516001600160a01b031614611b28576000858281518110611a4b57611a4b61427f565b602002602001015190506000611a5f612825565b6001600160a01b038316600081815260059290920160209081526040928390208351606081018552815481526001909101546001600160801b0380821683850152600160801b9091041681850152835160a081019094529183529092508101611ac96116c9612825565b81526020018260000151815260200182602001516001600160801b0316815260200182604001516001600160801b0316815250888580611b08906142ab565b965081518110611b1a57611b1a61427f565b602002602001018190525050505b611b336001826143b5565b90506119fc565b505050505090565b611b4a612f27565b611b875760405162461bcd60e51b815260206004820152600e60248201526d139bdd08185d5d1a1bdc9a5e995960921b6044820152606401610978565b611b9081612f3f565b50565b600080611ba9611ba28661305e565b85856131a2565b9050611bb3612825565b6101008601356000908152600791909101602052604090205460ff16158015611be05750611be081610c7c565b9150935093915050565b6060816001600160401b03811115611c0457611c046138cd565b604051908082528060200260200182016040528015611c3757816020015b6060815260200190600190039081611c225790505b509050336000805b84811015611d50578115611cbe57611c9c30878784818110611c6357611c6361427f565b9050602002810190611c759190614239565b86604051602001611c889392919061462f565b6040516020818303038152906040526131f4565b848281518110611cae57611cae61427f565b6020026020010181905250611d3e565b611d2030878784818110611cd457611cd461427f565b9050602002810190611ce69190614239565b8080601f0160208091040260200160405190810160405280939291908181526020018383808284376000920191909152506131f492505050565b848281518110611d3257611d3261427f565b60200260200101819052505b80611d48816142ab565b915050611c3f565b50505092915050565b7f036f52c1827dab135f7fd44ca0bddde297e2f659c710e0ec53e975f22b548300546000906001600160a01b03168015611d9257919050565b7f000000000000000000000000000000000000000000000000000000000000000091505090565b6001546001600160a01b0316331480611dd65750611dd633610c7c565b611e225760405162461bcd60e51b815260206004820152601d60248201527f4163636f756e743a206e6f742061646d696e206f722055706b6565702e0000006044820152606401610978565b6002546040516370a0823160e01b81523060048201526000916001600160a01b0316906370a0823190602401602060405180830381865afa158015611e6b573d6000803e3d6000fd5b505050506040513d601f19601f82011682018060405250810190611e8f91906142c4565b90506000805482611ea091906142ff565b60025460055460405163095ea7b360e01b81526001600160a01b03918216600482015260248101849052929350169063095ea7b3906044016020604051808303816000875af1158015611ef7573d6000803e3d6000fd5b505050506040513d601f19601f82011682018060405250810190611f1b919061435c565b50600554604051636e553f6560e01b8152600481018390523060248201526001600160a01b0390911690636e553f65906044016020604051808303816000875af1158015611f6d573d6000803e3d6000fd5b505050506040513d601f19601f82011682018060405250810190611f9191906142c4565b50611f9c81836142ff565b6000555050565b611fab611d59565b6001600160a01b0316336001600160a01b03161480611fce5750611fce33610c7c565b611fea5760405162461bcd60e51b8152600401610978906143c8565b611ff2612b6a565b611405848484848080601f016020809104026020016040519081016040528093929190818152602001838380828437600092019190915250612c4c92505050565b61203b612cbd565b7f036f52c1827dab135f7fd44ca0bddde297e2f659c710e0ec53e975f22b54830080546001600160a01b0319166001600160a01b0392909216919091179055565b6000612086611d59565b604051631aab3f0d60e11b8152306004820152600060248201526001600160a01b0391909116906335567e1a90604401602060405180830381865afa1580156120d3573d6000803e3d6000fd5b505050506040513d601f19601f820116820180604052508101906120f791906142c4565b905090565b600080516020614a868339815191525460ff80821691610100900416801580801561212a575060018360ff16105b806121425750303b15801561214257508260ff166001145b6121a55760405162461bcd60e51b815260206004820152602e60248201527f496e697469616c697a61626c653a20636f6e747261637420697320616c72656160448201526d191e481a5b9a5d1a585b1a5e995960921b6064820152608401610978565b600080516020614a86833981519152805460ff1916600117905580156121e257600080516020614a86833981519152805461ff0019166101001790555b6122228686868080601f01602080910402602001604051908101604052809392919081815260200183838082843760009201919091525061321992505050565b600080516020614a668339815191525561223d866001612cfb565b600180546001600160a01b031990811633179091556005805460028054841673c4bf5cbdabe595361438f8c6a187bdc330539c6017905560038054841673f125dbd2865d1638efb4b98fd07a11cca2d9d7fd17905560048054909316736ae43d3271ff6888e7fc43fd7321a503ff738951179092557401cdf50ab9837b08e4777f5a28abfc5184311124756001600160a81b0319909216919091179055801561147d57600080516020614a86833981519152805461ff0019169055604080516001815290517f7f26b83ff96e1f2b6a682f133852f6798a09c465da95921460cefb38474024989181900360200190a1505050505050565b6060600061234361190a612825565b8051909150806001600160401b03811115612360576123606138cd565b60405190808252806020026020018201604052801561239957816020015b612386613859565b81526020019060019003908161237e5790505b50925060005b8181101561249f5760008382815181106123bb576123bb61427f565b6020026020010151905060006123cf612825565b6001600160a01b038316600081815260059290920160209081526040928390208351606081018552815481526001909101546001600160801b0380821683850152600160801b9091041681850152835160a0810190945291835290925081016124396116c9612825565b81526020018260000151815260200182602001516001600160801b0316815260200182604001516001600160801b031681525086848151811061247e5761247e61427f565b6020026020010181905250505060018161249891906143b5565b905061239f565b50505090565b60607f4bc804ba64359c0e35e5ed5d90ee596ecaa49a3a930ddcb1470ea0dd625da90080546124d390614655565b80601f01602080910402602001604051908101604052809291908181526020018280546124ff90614655565b801561254c5780601f106125215761010080835404028352916020019161254c565b820191906000526020600020905b81548152906001019060200180831161252f57829003601f168201915b5050505050905090565b60606120f7612563612825565b612e57565b612570611d59565b6001600160a01b0316336001600160a01b03161480612593575061259333610c7c565b6125af5760405162461bcd60e51b8152600401610978906143c8565b60058054911515600160a01b0260ff60a01b19909216919091179055565b6125d5613859565b60006125df612825565b6001600160a01b038416600081815260059290920160209081526040928390208351606081018552815481526001909101546001600160801b0380821683850152600160801b9091041681850152835160a08101909452918352909250810161266a612649612825565b6001600160a01b038716600090815260069190910160205260409020612e57565b81526020018260000151815260200182602001516001600160801b0316815260200182604001516001600160801b0316815250915050919050565b60006001600160e01b03198216630271189760e51b14806107a957506301ffc9a760e01b6001600160e01b03198316146107a9565b6000306001600160a01b037f00000000000000000000000000000000000000000000000000000000000000001614801561273357507f000000000000000000000000000000000000000000000000000000000000000046145b1561275d57507f000000000000000000000000000000000000000000000000000000000000000090565b50604080517f00000000000000000000000000000000000000000000000000000000000000006020808301919091527f0000000000000000000000000000000000000000000000000000000000000000828401527f000000000000000000000000000000000000000000000000000000000000000060608301524660808301523060a0808401919091528351808403909101815260c0909201909252805191012090565b6000806000612810858561324c565b9150915061281d81613291565b509392505050565b7f3181e78fc1b109bc611fd2406150bf06e33faa75f71cba12c3e1fd670f2def0090565b6001600160a01b03811660009081526001830160205260408120541515610cca565b60006107a9825490565b6000610cca83836133db565b600060048210156128a45760405162461bcd60e51b815260040161097890614689565b6128b26004600084866146a8565b610cca916146d2565b60008060448310156128df5760405162461bcd60e51b815260040161097890614689565b6128ed6024600485876146a8565b8101906128fa9190613af2565b915061290a6044602485876146a8565b8101906129179190614702565b90509250929050565b6060808060648410156129455760405162461bcd60e51b815260040161097890614689565b61295284600481886146a8565b81019061295f919061479a565b919790965090945092505050565b612975611d59565b6001600160a01b0316336001600160a01b0316146129d55760405162461bcd60e51b815260206004820152601c60248201527f6163636f756e743a206e6f742066726f6d20456e747279506f696e74000000006044820152606401610978565b565b7f19457468657265756d205369676e6564204d6573736167653a0a3332000000006000908152601c829052603c81206000612a56612a19610140870187614239565b8080601f01602080910402602001604051908101604052809392919081815260200183838082843760009201919091525086939250506128019050565b9050612a6281866109a4565b612a71576001925050506107a9565b6000612a7b612825565b6001600160a01b03929092166000908152600590920160209081526040808420815160608082018452825482526001909201546001600160801b0380821683870152600160801b8204908116928501929092528351928301845295825265ffffffffffff8087169483019490945292831691015260d09290921b6001600160d01b03191660a09290921b65ffffffffffff60a01b169190911795945050505050565b8015611b9057604051600090339060001990849084818181858888f193505050503d8060008114611405576040519150601f19603f3d011682016040523d82523d6000602084013e611405565b60405163c3c5a54760e01b81523060048201527f0000000000000000000000000000000000000000000000000000000000000000906001600160a01b0382169063c3c5a54790602401602060405180830381865afa158015612bd0573d6000803e3d6000fd5b505050506040513d601f19601f82011682018060405250810190612bf4919061435c565b611b9057600080516020614a66833981519152546040516320e80fe360e21b815260048101919091526001600160a01b038216906383a03f8c906024015b600060405180830381600087803b1580156113f157600080fd5b60606000846001600160a01b03168484604051612c69919061487f565b60006040518083038185875af1925050503d8060008114612ca6576040519150601f19603f3d011682016040523d82523d6000602084013e612cab565b606091505b50925090508061281d57815160208301fd5b612cc633610c7c565b6129d55760405162461bcd60e51b815260206004820152600660248201526510b0b236b4b760d11b6044820152606401610978565b612d058282613405565b6001600160a01b037f0000000000000000000000000000000000000000000000000000000000000000163b15612e3e578015612dd6576001600160a01b037f000000000000000000000000000000000000000000000000000000000000000016630b61e12b837f036f52c1827dab135f7fd44ca0bddde297e2f659c710e0ec53e975f22b548300600101546040516001600160e01b031960e085901b1681526001600160a01b0390921660048301526024820152604401600060405180830381600087803b15801561146957600080fd5b600080516020614a66833981519152546040516301270f4760e71b81526001600160a01b03848116600483015260248201929092527f000000000000000000000000000000000000000000000000000000000000000090911690639387a3809060440161144f565b5050565b6000610cca836001600160a01b0384166134b4565b60606000610cca83613503565b6000610cca836001600160a01b03841661355f565b6001600160a01b037f0000000000000000000000000000000000000000000000000000000000000000163b15611b90576001600160a01b037f000000000000000000000000000000000000000000000000000000000000000016630b61e12b612ee56020840184613af2565b600080516020614a668339815191525460405160e084901b6001600160e01b03191681526001600160a01b039290921660048301526024820152604401612c32565b6000612f3233610c7c565b806120f757505030331490565b60007f4bc804ba64359c0e35e5ed5d90ee596ecaa49a3a930ddcb1470ea0dd625da9008054612f6d90614655565b80601f0160208091040260200160405190810160405280929190818152602001828054612f9990614655565b8015612fe65780601f10612fbb57610100808354040283529160200191612fe6565b820191906000526020600020905b815481529060010190602001808311612fc957829003601f168201915b50505050509050816130157f4bc804ba64359c0e35e5ed5d90ee596ecaa49a3a930ddcb1470ea0dd625da90090565b9061302090826148e6565b507fc9c7c3fe08b88b4df9d4d47ef47d2c43d55c025a0ba88ca442580ed9e7348a1681836040516130529291906149a5565b60405180910390a15050565b60607f3fd4a1a1a267c84185e3b7eecd57c68783c0581d538b9d6e5f23e4670497c1e961308e6020840184613af2565b61309e604085016020860161444c565b6130ab6040860186614467565b6040516020016130bc9291906149d3565b60408051601f19818403018152919052805160209091012060608601356130e960a0880160808901614420565b6130f960c0890160a08a01614420565b61310960e08a0160c08b01614420565b61311a6101008b0160e08c01614420565b60408051602081019a909a526001600160a01b039098169789019790975260ff9095166060880152608087019390935260a08601919091526001600160801b0390811660c086015290811660e0850152908116610100848101919091529116610120830152830135610140820152610160016040516020818303038152906040529050919050565b600061085c83838080601f01602080910402602001604051908101604052809392919081815260200183838082843760009201919091525050875160208901206131ee92509050613652565b90612801565b6060610cca8383604051806060016040528060278152602001614aa66027913961367f565b6000828260405160200161322e929190614a15565b60405160208183030381529060405280519060200120905092915050565b60008082516041036132825760208301516040840151606085015160001a613276878285856136f7565b9450945050505061328a565b506000905060025b9250929050565b60008160048111156132a5576132a5614a39565b036132ad5750565b60018160048111156132c1576132c1614a39565b0361330e5760405162461bcd60e51b815260206004820152601860248201527f45434453413a20696e76616c6964207369676e617475726500000000000000006044820152606401610978565b600281600481111561332257613322614a39565b0361336f5760405162461bcd60e51b815260206004820152601f60248201527f45434453413a20696e76616c6964207369676e6174757265206c656e677468006044820152606401610978565b600381600481111561338357613383614a39565b03611b905760405162461bcd60e51b815260206004820152602260248201527f45434453413a20696e76616c6964207369676e6174757265202773272076616c604482015261756560f01b6064820152608401610978565b60008260000182815481106133f2576133f261427f565b9060005260206000200154905092915050565b8061340e612825565b6001600160a01b038416600090815260049190910160205260409020805460ff19169115159190911790558015613457576134518261344b612825565b90612e42565b5061346b565b61346982613463612825565b90612e64565b505b816001600160a01b03167f235bc17e7930760029e9f4d860a2a8089976de5b381cf8380fc11c1d88a11133826040516134a8911515815260200190565b60405180910390a25050565b60008181526001830160205260408120546134fb575081546001818101845560008481526020808220909301849055845484825282860190935260409020919091556107a9565b5060006107a9565b60608160000180548060200260200160405190810160405280929190818152602001828054801561355357602002820191906000526020600020905b81548152602001906001019080831161353f575b50505050509050919050565b600081815260018301602052604081205480156136485760006135836001836142ff565b8554909150600090613597906001906142ff565b90508181146135fc5760008660000182815481106135b7576135b761427f565b90600052602060002001549050808760000184815481106135da576135da61427f565b6000918252602080832090910192909255918252600188019052604090208390555b855486908061360d5761360d614a4f565b6001900381819060005260206000200160009055905585600101600086815260200190815260200160002060009055600193505050506107a9565b60009150506107a9565b60006107a961365f6126da565b8360405161190160f01b8152600281019290925260228201526042902090565b6060600080856001600160a01b03168560405161369c919061487f565b600060405180830381855af49150503d80600081146136d7576040519150601f19603f3d011682016040523d82523d6000602084013e6136dc565b606091505b50915091506136ed868383876137bb565b9695505050505050565b6000807f7fffffffffffffffffffffffffffffff5d576e7357a4501ddfe92f46681b20a083111561372e57506000905060036137b2565b6040805160008082526020820180845289905260ff881692820192909252606081018690526080810185905260019060a0016020604051602081039080840390855afa158015613782573d6000803e3d6000fd5b5050604051601f1901519150506001600160a01b0381166137ab576000600192509250506137b2565b9150600090505b94509492505050565b6060831561382a578251600003613823576001600160a01b0385163b6138235760405162461bcd60e51b815260206004820152601d60248201527f416464726573733a2063616c6c20746f206e6f6e2d636f6e74726163740000006044820152606401610978565b508161085c565b61085c838381511561383f5781518083602001fd5b8060405162461bcd60e51b81526004016109789190614129565b6040518060a0016040528060006001600160a01b03168152602001606081526020016000815260200160006001600160801b0316815260200160006001600160801b031681525090565b6000602082840312156138b557600080fd5b81356001600160e01b031981168114610cca57600080fd5b634e487b7160e01b600052604160045260246000fd5b604051601f8201601f191681016001600160401b038111828210171561390b5761390b6138cd565b604052919050565b60006001600160401b0383111561392c5761392c6138cd565b61393f601f8401601f19166020016138e3565b905082815283838301111561395357600080fd5b828260208301376000602084830101529392505050565b600082601f83011261397b57600080fd5b610cca83833560208501613913565b60006020828403121561399c57600080fd5b81356001600160401b038111156139b257600080fd5b61085c8482850161396a565b6001600160a01b0381168114611b9057600080fd5b80356139de816139be565b919050565b600080600080608085870312156139f957600080fd5b8435613a04816139be565b93506020850135613a14816139be565b92506040850135915060608501356001600160401b03811115613a3657600080fd5b613a428782880161396a565b91505092959194509250565b60008060408385031215613a6157600080fd5b8235915060208301356001600160401b03811115613a7e57600080fd5b613a8a8582860161396a565b9150509250929050565b60006101608284031215613aa757600080fd5b50919050565b60008060408385031215613ac057600080fd5b8235613acb816139be565b915060208301356001600160401b03811115613ae657600080fd5b613a8a85828601613a94565b600060208284031215613b0457600080fd5b8135610cca816139be565b600080600060608486031215613b2457600080fd5b83356001600160401b03811115613b3a57600080fd5b613b4686828701613a94565b9660208601359650604090950135949350505050565b60008083601f840112613b6e57600080fd5b5081356001600160401b03811115613b8557600080fd5b6020830191508360208260051b850101111561328a57600080fd5b60008060008060008060608789031215613bb957600080fd5b86356001600160401b0380821115613bd057600080fd5b613bdc8a838b01613b5c565b90985096506020890135915080821115613bf557600080fd5b613c018a838b01613b5c565b90965094506040890135915080821115613c1a57600080fd5b50613c2789828a01613b5c565b979a9699509497509295939492505050565b60008060408385031215613c4c57600080fd5b8235613c57816139be565b946020939093013593505050565b60008083601f840112613c7757600080fd5b5081356001600160401b03811115613c8e57600080fd5b60208301915083602082850101111561328a57600080fd5b600080600060408486031215613cbb57600080fd5b83356001600160401b0380821115613cd257600080fd5b908501906101208288031215613ce757600080fd5b90935060208501359080821115613cfd57600080fd5b50613d0a86828701613c65565b9497909650939450505050565b80516001600160a01b03908116835260208083015160a082860181905281519086018190526000939183019290849060c08801905b80831015613d6e57855185168252948301946001929092019190830190613d4c565b506040870151604089015260608701519450613d9560608901866001600160801b03169052565b60808701519450613db160808901866001600160801b03169052565b979650505050505050565b6000602080830181845280855180835260408601915060408160051b870101925083870160005b82811015613e1157603f19888603018452613dff858351613d17565b94509285019290850190600101613de3565b5092979650505050505050565b600060208284031215613e3057600080fd5b81356001600160401b03811115613e4657600080fd5b8201601f81018413613e5757600080fd5b61085c84823560208401613913565b60008060208385031215613e7957600080fd5b82356001600160401b03811115613e8f57600080fd5b613e9b85828601613b5c565b90969095509350505050565b60005b83811015613ec2578181015183820152602001613eaa565b50506000910152565b60008151808452613ee3816020860160208601613ea7565b601f01601f19169290920160200192915050565b6000602080830181845280855180835260408601915060408160051b870101925083870160005b82811015613e1157603f19888603018452613f3a858351613ecb565b94509285019290850190600101613f1e565b60008060008060608587031215613f6257600080fd5b8435613f6d816139be565b93506020850135925060408501356001600160401b03811115613f8f57600080fd5b613f9b87828801613c65565b95989497509550505050565b60006001600160401b03821115613fc057613fc06138cd565b5060051b60200190565b600082601f830112613fdb57600080fd5b81356020613ff0613feb83613fa7565b6138e3565b82815260059290921b8401810191818101908684111561400f57600080fd5b8286015b8481101561402a5780358352918301918301614013565b509695505050505050565b600080600080600060a0868803121561404d57600080fd5b8535614058816139be565b94506020860135614068816139be565b935060408601356001600160401b038082111561408457600080fd5b61409089838a01613fca565b945060608801359150808211156140a657600080fd5b6140b289838a01613fca565b935060808801359150808211156140c857600080fd5b506140d58882890161396a565b9150509295509295909350565b6000806000604084860312156140f757600080fd5b8335614102816139be565b925060208401356001600160401b0381111561411d57600080fd5b613d0a86828701613c65565b602081526000610cca6020830184613ecb565b600081518084526020808501945080840160005b838110156141755781516001600160a01b031687529582019590820190600101614150565b509495945050505050565b602081526000610cca602083018461413c565b8015158114611b9057600080fd5b6000602082840312156141b357600080fd5b8135610cca81614193565b602081526000610cca6020830184613d17565b600080600080600060a086880312156141e957600080fd5b85356141f4816139be565b94506020860135614204816139be565b9350604086013592506060860135915060808601356001600160401b0381111561422d57600080fd5b6140d58882890161396a565b6000808335601e1984360301811261425057600080fd5b8301803591506001600160401b0382111561426a57600080fd5b60200191503681900382131561328a57600080fd5b634e487b7160e01b600052603260045260246000fd5b634e487b7160e01b600052601160045260246000fd5b6000600182016142bd576142bd614295565b5060010190565b6000602082840312156142d657600080fd5b5051919050565b6000826142fa57634e487b7160e01b600052601260045260246000fd5b500690565b818103818111156107a9576107a9614295565b60008060008060008060c0878903121561432b57600080fd5b865195506020870151945060408701519350606087015192506080870151915060a087015190509295509295509295565b60006020828403121561436e57600080fd5b8151610cca81614193565b85815284602082015260a06040820152600061439860a083018661413c565b6001600160a01b0394909416606083015250608001529392505050565b808201808211156107a9576107a9614295565b60208082526021908201527f4163636f756e743a206e6f742061646d696e206f7220456e747279506f696e746040820152601760f91b606082015260800190565b80356001600160801b03811681146139de57600080fd5b60006020828403121561443257600080fd5b610cca82614409565b803560ff811681146139de57600080fd5b60006020828403121561445e57600080fd5b610cca8261443b565b6000808335601e1984360301811261447e57600080fd5b8301803591506001600160401b0382111561449857600080fd5b6020019150600581901b360382131561328a57600080fd5b6000808335601e198436030181126144c757600080fd5b83016020810192503590506001600160401b038111156144e657600080fd5b8060051b360382131561328a57600080fd5b8183526000602080850194508260005b8581101561417557813561451b816139be565b6001600160a01b031687529582019590820190600101614508565b602081526145576020820161454a846139d3565b6001600160a01b03169052565b60006145656020840161443b565b60ff811660408401525061457c60408401846144b0565b610120806060860152614594610140860183856144f8565b9250606086013560808601526145ac60808701614409565b6001600160801b03811660a087015291506145c960a08701614409565b6001600160801b03811660c087015291506145e660c08701614409565b6001600160801b03811660e0870152915061460360e08701614409565b915061010061461c818701846001600160801b03169052565b9590950135939094019290925250919050565b8284823760609190911b6bffffffffffffffffffffffff19169101908152601401919050565b600181811c9082168061466957607f821691505b602082108103613aa757634e487b7160e01b600052602260045260246000fd5b602080825260059082015264214461746160d81b604082015260600190565b600080858511156146b857600080fd5b838611156146c557600080fd5b5050820193919092039150565b6001600160e01b031981358181169160048510156146fa5780818660040360031b1b83161692505b505092915050565b60006020828403121561471457600080fd5b5035919050565b600082601f83011261472c57600080fd5b8135602061473c613feb83613fa7565b82815260059290921b8401810191818101908684111561475b57600080fd5b8286015b8481101561402a5780356001600160401b0381111561477e5760008081fd5b61478c8986838b010161396a565b84525091830191830161475f565b6000806000606084860312156147af57600080fd5b83356001600160401b03808211156147c657600080fd5b818601915086601f8301126147da57600080fd5b813560206147ea613feb83613fa7565b82815260059290921b8401810191818101908a84111561480957600080fd5b948201945b83861015614830578535614821816139be565b8252948201949082019061480e565b9750508701359250508082111561484657600080fd5b61485287838801613fca565b9350604086013591508082111561486857600080fd5b506148758682870161471b565b9150509250925092565b60008251614891818460208701613ea7565b9190910192915050565b601f8211156148e157600081815260208120601f850160051c810160208610156148c25750805b601f850160051c820191505b8181101561147d578281556001016148ce565b505050565b81516001600160401b038111156148ff576148ff6138cd565b6149138161490d8454614655565b8461489b565b602080601f83116001811461494857600084156149305750858301515b600019600386901b1c1916600185901b17855561147d565b600085815260208120601f198616915b8281101561497757888601518255948401946001909101908401614958565b50858210156149955787850151600019600388901b60f8161c191681555b5050505050600190811b01905550565b6040815260006149b86040830185613ecb565b82810360208401526149ca8185613ecb565b95945050505050565b60008184825b85811015614a0a5781356149ec816139be565b6001600160a01b0316835260209283019291909101906001016149d9565b509095945050505050565b6001600160a01b038316815260406020820181905260009061085c90830184613ecb565b634e487b7160e01b600052602160045260246000fd5b634e487b7160e01b600052603160045260246000fdfe036f52c1827dab135f7fd44ca0bddde297e2f659c710e0ec53e975f22b548301322cf19c484104d3b1a9c2982ebae869ede3fa5f6c4703ca41b9a48c76ee0300416464726573733a206c6f772d6c6576656c2064656c65676174652063616c6c206661696c6564a2646970667358221220cc791ff07726aca9ac72224bcb90cdca188a28d0f665a7502b7d50718bfea02364736f6c63430008140033",
    "linkReferences": {}
  },
  "methodIdentifiers": {
    "aavePool()": "a03e4bc3",
    "addDeposit()": "4a58db19",
    "allowedSupply()": "9934cdb1",
    "automationUpkeep()": "29245414",
    "contractURI()": "e8a3d485",
    "defaultToken()": "74c13fda",
    "entryPoint()": "b0d691fe",
    "execute(address,uint256,bytes)": "b61d27f6",
    "executeBatch(address[],uint256[],bytes[])": "47e1da2a",
    "executeSupplyToVault()": "b2836277",
    "executeSwapAndSupply(address)": "3dd6e025",
    "factory()": "c45a0155",
    "getAllActiveSigners()": "8b52d723",
    "getAllAdmins()": "e9523c97",
    "getAllSigners()": "d42f2f35",
    "getMessageHash(bytes)": "0a1028c4",
    "getNonce()": "d087d288",
    "getPermissionsForSigner(address)": "f15d424e",
    "ghoTreshold()": "4e9eb56e",
    "initialize(address,bytes)": "d1f57894",
    "isActiveSigner(address)": "7dff5a79",
    "isAdmin(address)": "24d7806c",
    "isValidSignature(bytes32,bytes)": "1626ba7e",
    "isValidSigner(address,(address,uint256,bytes,bytes,uint256,uint256,uint256,uint256,uint256,bytes,bytes))": "1dd756c5",
    "multicall(bytes[])": "ac9650d8",
    "onERC1155BatchReceived(address,address,uint256[],uint256[],bytes)": "bc197c81",
    "onERC1155Received(address,address,uint256,uint256,bytes)": "f23a6e61",
    "onERC721Received(address,address,uint256,bytes)": "150b7a02",
    "setAllowedSupply(bool)": "ec1afaaa",
    "setContractURI(string)": "938e3d7b",
    "setEntrypointOverride(address)": "b76464d5",
    "setPermissionsForSigner((address,uint8,address[],uint256,uint128,uint128,uint128,uint128,bytes32),bytes)": "5892e236",
    "supportsInterface(bytes4)": "01ffc9a7",
    "uniswapRouter()": "735de9f7",
    "validateUserOp((address,uint256,bytes,bytes,uint256,uint256,uint256,uint256,uint256,bytes,bytes),bytes32,uint256)": "3a871cdd",
    "vault()": "fbfa77cf",
    "verifySignerPermissionRequest((address,uint8,address[],uint256,uint128,uint128,uint128,uint128,bytes32),bytes)": "a9082d84",
    "withdrawDepositTo(address,uint256)": "4d44560d"
  },
  "id": 69
}