{
  "abi": [
    {
      "inputs": [
        {
          "internalType": "contract IEntryPoint",
          "name": "_entrypoint",
          "type": "address"
        },
        {
          "internalType": "address",
          "name": "_factory",
          "type": "address"
        }
      ],
      "stateMutability": "nonpayable",
      "type": "constructor"
    },
    {
      "anonymous": false,
      "inputs": [
        {
          "indexed": true,
          "internalType": "address",
          "name": "signer",
          "type": "address"
        },
        {
          "indexed": false,
          "internalType": "bool",
          "name": "isAdmin",
          "type": "bool"
        }
      ],
      "name": "AdminUpdated",
      "type": "event"
    },
    {
      "anonymous": false,
      "inputs": [
        {
          "indexed": false,
          "internalType": "uint8",
          "name": "version",
          "type": "uint8"
        }
      ],
      "name": "Initialized",
      "type": "event"
    },
    {
      "anonymous": false,
      "inputs": [
        {
          "indexed": true,
          "internalType": "address",
          "name": "authorizingSigner",
          "type": "address"
        },
        {
          "indexed": true,
          "internalType": "address",
          "name": "targetSigner",
          "type": "address"
        },
        {
          "components": [
            {
              "internalType": "address",
              "name": "signer",
              "type": "address"
            },
            {
              "internalType": "uint8",
              "name": "isAdmin",
              "type": "uint8"
            },
            {
              "internalType": "address[]",
              "name": "approvedTargets",
              "type": "address[]"
            },
            {
              "internalType": "uint256",
              "name": "nativeTokenLimitPerTransaction",
              "type": "uint256"
            },
            {
              "internalType": "uint128",
              "name": "permissionStartTimestamp",
              "type": "uint128"
            },
            {
              "internalType": "uint128",
              "name": "permissionEndTimestamp",
              "type": "uint128"
            },
            {
              "internalType": "uint128",
              "name": "reqValidityStartTimestamp",
              "type": "uint128"
            },
            {
              "internalType": "uint128",
              "name": "reqValidityEndTimestamp",
              "type": "uint128"
            },
            {
              "internalType": "bytes32",
              "name": "uid",
              "type": "bytes32"
            }
          ],
          "indexed": false,
          "internalType": "struct IAccountPermissions.SignerPermissionRequest",
          "name": "permissions",
          "type": "tuple"
        }
      ],
      "name": "SignerPermissionsUpdated",
      "type": "event"
    },
    {
      "inputs": [],
      "name": "entryPoint",
      "outputs": [
        {
          "internalType": "contract IEntryPoint",
          "name": "",
          "type": "address"
        }
      ],
      "stateMutability": "view",
      "type": "function"
    },
    {
      "inputs": [],
      "name": "factory",
      "outputs": [
        {
          "internalType": "address",
          "name": "",
          "type": "address"
        }
      ],
      "stateMutability": "view",
      "type": "function"
    },
    {
      "inputs": [],
      "name": "getAllActiveSigners",
      "outputs": [
        {
          "components": [
            {
              "internalType": "address",
              "name": "signer",
              "type": "address"
            },
            {
              "internalType": "address[]",
              "name": "approvedTargets",
              "type": "address[]"
            },
            {
              "internalType": "uint256",
              "name": "nativeTokenLimitPerTransaction",
              "type": "uint256"
            },
            {
              "internalType": "uint128",
              "name": "startTimestamp",
              "type": "uint128"
            },
            {
              "internalType": "uint128",
              "name": "endTimestamp",
              "type": "uint128"
            }
          ],
          "internalType": "struct IAccountPermissions.SignerPermissions[]",
          "name": "signers",
          "type": "tuple[]"
        }
      ],
      "stateMutability": "view",
      "type": "function"
    },
    {
      "inputs": [],
      "name": "getAllAdmins",
      "outputs": [
        {
          "internalType": "address[]",
          "name": "",
          "type": "address[]"
        }
      ],
      "stateMutability": "view",
      "type": "function"
    },
    {
      "inputs": [],
      "name": "getAllSigners",
      "outputs": [
        {
          "components": [
            {
              "internalType": "address",
              "name": "signer",
              "type": "address"
            },
            {
              "internalType": "address[]",
              "name": "approvedTargets",
              "type": "address[]"
            },
            {
              "internalType": "uint256",
              "name": "nativeTokenLimitPerTransaction",
              "type": "uint256"
            },
            {
              "internalType": "uint128",
              "name": "startTimestamp",
              "type": "uint128"
            },
            {
              "internalType": "uint128",
              "name": "endTimestamp",
              "type": "uint128"
            }
          ],
          "internalType": "struct IAccountPermissions.SignerPermissions[]",
          "name": "signers",
          "type": "tuple[]"
        }
      ],
      "stateMutability": "view",
      "type": "function"
    },
    {
      "inputs": [],
      "name": "getNonce",
      "outputs": [
        {
          "internalType": "uint256",
          "name": "",
          "type": "uint256"
        }
      ],
      "stateMutability": "view",
      "type": "function"
    },
    {
      "inputs": [
        {
          "internalType": "address",
          "name": "signer",
          "type": "address"
        }
      ],
      "name": "getPermissionsForSigner",
      "outputs": [
        {
          "components": [
            {
              "internalType": "address",
              "name": "signer",
              "type": "address"
            },
            {
              "internalType": "address[]",
              "name": "approvedTargets",
              "type": "address[]"
            },
            {
              "internalType": "uint256",
              "name": "nativeTokenLimitPerTransaction",
              "type": "uint256"
            },
            {
              "internalType": "uint128",
              "name": "startTimestamp",
              "type": "uint128"
            },
            {
              "internalType": "uint128",
              "name": "endTimestamp",
              "type": "uint128"
            }
          ],
          "internalType": "struct IAccountPermissions.SignerPermissions",
          "name": "",
          "type": "tuple"
        }
      ],
      "stateMutability": "view",
      "type": "function"
    },
    {
      "inputs": [
        {
          "internalType": "address",
          "name": "_defaultAdmin",
          "type": "address"
        },
        {
          "internalType": "bytes",
          "name": "_data",
          "type": "bytes"
        }
      ],
      "name": "initialize",
      "outputs": [],
      "stateMutability": "nonpayable",
      "type": "function"
    },
    {
      "inputs": [
        {
          "internalType": "address",
          "name": "signer",
          "type": "address"
        }
      ],
      "name": "isActiveSigner",
      "outputs": [
        {
          "internalType": "bool",
          "name": "",
          "type": "bool"
        }
      ],
      "stateMutability": "view",
      "type": "function"
    },
    {
      "inputs": [
        {
          "internalType": "address",
          "name": "_account",
          "type": "address"
        }
      ],
      "name": "isAdmin",
      "outputs": [
        {
          "internalType": "bool",
          "name": "",
          "type": "bool"
        }
      ],
      "stateMutability": "view",
      "type": "function"
    },
    {
      "inputs": [
        {
          "internalType": "address",
          "name": "_signer",
          "type": "address"
        },
        {
          "components": [
            {
              "internalType": "address",
              "name": "sender",
              "type": "address"
            },
            {
              "internalType": "uint256",
              "name": "nonce",
              "type": "uint256"
            },
            {
              "internalType": "bytes",
              "name": "initCode",
              "type": "bytes"
            },
            {
              "internalType": "bytes",
              "name": "callData",
              "type": "bytes"
            },
            {
              "internalType": "uint256",
              "name": "callGasLimit",
              "type": "uint256"
            },
            {
              "internalType": "uint256",
              "name": "verificationGasLimit",
              "type": "uint256"
            },
            {
              "internalType": "uint256",
              "name": "preVerificationGas",
              "type": "uint256"
            },
            {
              "internalType": "uint256",
              "name": "maxFeePerGas",
              "type": "uint256"
            },
            {
              "internalType": "uint256",
              "name": "maxPriorityFeePerGas",
              "type": "uint256"
            },
            {
              "internalType": "bytes",
              "name": "paymasterAndData",
              "type": "bytes"
            },
            {
              "internalType": "bytes",
              "name": "signature",
              "type": "bytes"
            }
          ],
          "internalType": "struct UserOperation",
          "name": "_userOp",
          "type": "tuple"
        }
      ],
      "name": "isValidSigner",
      "outputs": [
        {
          "internalType": "bool",
          "name": "",
          "type": "bool"
        }
      ],
      "stateMutability": "view",
      "type": "function"
    },
    {
      "inputs": [
        {
          "internalType": "bytes[]",
          "name": "data",
          "type": "bytes[]"
        }
      ],
      "name": "multicall",
      "outputs": [
        {
          "internalType": "bytes[]",
          "name": "results",
          "type": "bytes[]"
        }
      ],
      "stateMutability": "nonpayable",
      "type": "function"
    },
    {
      "inputs": [
        {
          "internalType": "contract IEntryPoint",
          "name": "_entrypointOverride",
          "type": "address"
        }
      ],
      "name": "setEntrypointOverride",
      "outputs": [],
      "stateMutability": "nonpayable",
      "type": "function"
    },
    {
      "inputs": [
        {
          "components": [
            {
              "internalType": "address",
              "name": "signer",
              "type": "address"
            },
            {
              "internalType": "uint8",
              "name": "isAdmin",
              "type": "uint8"
            },
            {
              "internalType": "address[]",
              "name": "approvedTargets",
              "type": "address[]"
            },
            {
              "internalType": "uint256",
              "name": "nativeTokenLimitPerTransaction",
              "type": "uint256"
            },
            {
              "internalType": "uint128",
              "name": "permissionStartTimestamp",
              "type": "uint128"
            },
            {
              "internalType": "uint128",
              "name": "permissionEndTimestamp",
              "type": "uint128"
            },
            {
              "internalType": "uint128",
              "name": "reqValidityStartTimestamp",
              "type": "uint128"
            },
            {
              "internalType": "uint128",
              "name": "reqValidityEndTimestamp",
              "type": "uint128"
            },
            {
              "internalType": "bytes32",
              "name": "uid",
              "type": "bytes32"
            }
          ],
          "internalType": "struct IAccountPermissions.SignerPermissionRequest",
          "name": "_req",
          "type": "tuple"
        },
        {
          "internalType": "bytes",
          "name": "_signature",
          "type": "bytes"
        }
      ],
      "name": "setPermissionsForSigner",
      "outputs": [],
      "stateMutability": "nonpayable",
      "type": "function"
    },
    {
      "inputs": [
        {
          "components": [
            {
              "internalType": "address",
              "name": "sender",
              "type": "address"
            },
            {
              "internalType": "uint256",
              "name": "nonce",
              "type": "uint256"
            },
            {
              "internalType": "bytes",
              "name": "initCode",
              "type": "bytes"
            },
            {
              "internalType": "bytes",
              "name": "callData",
              "type": "bytes"
            },
            {
              "internalType": "uint256",
              "name": "callGasLimit",
              "type": "uint256"
            },
            {
              "internalType": "uint256",
              "name": "verificationGasLimit",
              "type": "uint256"
            },
            {
              "internalType": "uint256",
              "name": "preVerificationGas",
              "type": "uint256"
            },
            {
              "internalType": "uint256",
              "name": "maxFeePerGas",
              "type": "uint256"
            },
            {
              "internalType": "uint256",
              "name": "maxPriorityFeePerGas",
              "type": "uint256"
            },
            {
              "internalType": "bytes",
              "name": "paymasterAndData",
              "type": "bytes"
            },
            {
              "internalType": "bytes",
              "name": "signature",
              "type": "bytes"
            }
          ],
          "internalType": "struct UserOperation",
          "name": "userOp",
          "type": "tuple"
        },
        {
          "internalType": "bytes32",
          "name": "userOpHash",
          "type": "bytes32"
        },
        {
          "internalType": "uint256",
          "name": "missingAccountFunds",
          "type": "uint256"
        }
      ],
      "name": "validateUserOp",
      "outputs": [
        {
          "internalType": "uint256",
          "name": "validationData",
          "type": "uint256"
        }
      ],
      "stateMutability": "nonpayable",
      "type": "function"
    },
    {
      "inputs": [
        {
          "components": [
            {
              "internalType": "address",
              "name": "signer",
              "type": "address"
            },
            {
              "internalType": "uint8",
              "name": "isAdmin",
              "type": "uint8"
            },
            {
              "internalType": "address[]",
              "name": "approvedTargets",
              "type": "address[]"
            },
            {
              "internalType": "uint256",
              "name": "nativeTokenLimitPerTransaction",
              "type": "uint256"
            },
            {
              "internalType": "uint128",
              "name": "permissionStartTimestamp",
              "type": "uint128"
            },
            {
              "internalType": "uint128",
              "name": "permissionEndTimestamp",
              "type": "uint128"
            },
            {
              "internalType": "uint128",
              "name": "reqValidityStartTimestamp",
              "type": "uint128"
            },
            {
              "internalType": "uint128",
              "name": "reqValidityEndTimestamp",
              "type": "uint128"
            },
            {
              "internalType": "bytes32",
              "name": "uid",
              "type": "bytes32"
            }
          ],
          "internalType": "struct IAccountPermissions.SignerPermissionRequest",
          "name": "req",
          "type": "tuple"
        },
        {
          "internalType": "bytes",
          "name": "signature",
          "type": "bytes"
        }
      ],
      "name": "verifySignerPermissionRequest",
      "outputs": [
        {
          "internalType": "bool",
          "name": "success",
          "type": "bool"
        },
        {
          "internalType": "address",
          "name": "signer",
          "type": "address"
        }
      ],
      "stateMutability": "view",
      "type": "function"
    }
  ],
  "bytecode": {
    "object": "0x6101806040523480156200001257600080fd5b506040516200326138038062003261833981016040819052620000359162000263565b60408051808201825260078152661058d8dbdd5b9d60ca1b6020808301918252835180850190945260018452603160f81b908401528151902060e08190527fc89efdaa54c0f20c7adf612882df0950f5a951637e0307cdcb4c672f298b8bc66101008190524660a0529192917f8b73c3c69bb8fe3d512ecc4cf759cc79239f7b179b0ffacaa9a75d522b39400f620001128184846040805160208101859052908101839052606081018290524660808201523060a082015260009060c0016040516020818303038152906040528051906020012090509392505050565b6080523060c05261012052506200012d925050620001479050565b6001600160a01b03908116610140521661016052620002a2565b7f322cf19c484104d3b1a9c2982ebae869ede3fa5f6c4703ca41b9a48c76ee03005460ff808216916101009004168015620001d85760405162461bcd60e51b815260206004820152602760248201527f496e697469616c697a61626c653a20636f6e747261637420697320696e697469604482015266616c697a696e6760c81b606482015260840160405180910390fd5b60ff828116101562000246577f322cf19c484104d3b1a9c2982ebae869ede3fa5f6c4703ca41b9a48c76ee0300805460ff191660ff90811790915560408051918252517f7f26b83ff96e1f2b6a682f133852f6798a09c465da95921460cefb38474024989181900360200190a15b5050565b6001600160a01b03811681146200026057600080fd5b50565b600080604083850312156200027757600080fd5b825162000284816200024a565b602084015190925062000297816200024a565b809150509250929050565b60805160a05160c05160e05161010051610120516101405161016051612f366200032b6000396000610e8b015260008181610228015281816116d80152818161170e015281816117ab0152818161186f015261189f015260006120cb0152600061211a015260006120f50152600061204e01526000612078015260006120a20152612f366000f3fe608060405234801561001057600080fd5b50600436106101005760003560e01c8063b0d691fe11610097578063d1f5789411610066578063d1f5789414610252578063d42f2f3514610265578063e9523c971461026d578063f15d424e1461028257600080fd5b8063b0d691fe146101f0578063b76464d514610210578063c45a015514610223578063d087d2881461024a57600080fd5b80637dff5a79116100d35780637dff5a79146101765780638b52d72314610189578063a9082d841461019e578063ac9650d8146101d057600080fd5b80631dd756c51461010557806324d7806c1461012d5780633a871cdd146101405780635892e23614610161575b600080fd5b610118610113366004612357565b6102a2565b60405190151581526020015b60405180910390f35b61011861013b3660046123a6565b61057c565b61015361014e3660046123c3565b6105ab565b604051908152602001610124565b61017461016f366004612451565b6105d1565b005b6101186101843660046123a6565b61099c565b610191610a55565b6040516101249190612567565b6101b16101ac366004612451565b610c9c565b6040805192151583526001600160a01b03909116602083015201610124565b6101e36101de3660046125c9565b610cf3565b604051610124919061268d565b6101f8610e62565b6040516001600160a01b039091168152602001610124565b61017461021e3660046123a6565b610eb0565b6101f87f000000000000000000000000000000000000000000000000000000000000000081565b610153610ee7565b6101746102603660046126e2565b610f67565b610191611115565b610275611286565b6040516101249190612729565b6102956102903660046123a6565b611298565b6040516101249190612776565b60006102ac611370565b6001600160a01b0384166000908152600491909101602052604090205460ff16156102d957506001610576565b60006102e3611370565b6001600160a01b0385166000908152600591909101602090815260408083208151606081018352815481526001909101546001600160801b0380821694830194909452600160801b900490921690820152915061033e611370565b6006016000866001600160a01b03166001600160a01b0316815260200190815260200160002090504282602001516001600160801b0316118061038e575081604001516001600160801b03164210155b8061039f575061039d81611394565b155b156103af57600092505050610576565b60006103c66103c16060870187612789565b61139e565b905060006103d383611394565b60011480156103f4575060006103e984826113d8565b6001600160a01b0316145b90506324f16c0560e11b6001600160e01b031983160161046b5760008061042661042160608a018a612789565b6113e4565b915091508261044c576104398583611449565b61044c5760009650505050505050610576565b85518111156104645760009650505050505050610576565b505061056d565b635c0f12eb60e11b6001600160e01b03198316016105605760008061049b61049660608a018a612789565b61146b565b5091509150826105055760005b8251811015610503576104dd8382815181106104c6576104c66127cf565b60200260200101518761144990919063ffffffff16565b6104f1576000975050505050505050610576565b806104fb816127fb565b9150506104a8565b505b60005b825181101561055857818181518110610523576105236127cf565b602002602001015187600001511015610546576000975050505050505050610576565b80610550816127fb565b915050610508565b50505061056d565b6000945050505050610576565b60019450505050505b92915050565b6000610586611370565b6001600160a01b03909216600090815260049290920160205250604090205460ff1690565b60006105b56114b8565b6105bf8484611522565b90506105ca8261166b565b9392505050565b60006105e060208501856123a6565b9050426105f360e0860160c0870161282b565b6001600160801b0316111580156106225750610616610100850160e0860161282b565b6001600160801b031642105b61065d5760405162461bcd60e51b8152602060048201526007602482015266085c195c9a5bd960ca1b60448201526064015b60405180910390fd5b60008061066b868686610c9c565b91509150816106a55760405162461bcd60e51b8152600401610654906020808252600490820152632173696760e01b604082015260600190565b60016106af611370565b610100880135600090815260079190910160209081526040808320805460ff19169415159490941790935590916106eb91908901908901612857565b60ff1611156107215760006107066040880160208901612857565b60ff16600114905061071884826116c4565b50505050505050565b61072a8361057c565b1561075f5760405162461bcd60e51b815260206004820152600560248201526430b236b4b760d91b6044820152606401610654565b6107748361076b611370565b6002019061182e565b5060405180606001604052808760600135815260200187608001602081019061079d919061282b565b6001600160801b031681526020016107bb60c0890160a08a0161282b565b6001600160801b031690526107ce611370565b6001600160a01b03851660009081526005919091016020908152604080832084518155918401519301516001600160801b03908116600160801b02931692909217600190920191909155610844610823611370565b6001600160a01b038616600090815260069190910160205260409020611843565b805190915060005b818110156108ae5761089b838281518110610869576108696127cf565b6020026020010151610879611370565b6001600160a01b03891660009081526006919091016020526040902090611850565b506108a7600182612872565b905061084c565b506108bc6040890189612885565b9050905060005b8181101561093d5761092a6108db60408b018b612885565b838181106108eb576108eb6127cf565b905060200201602081019061090091906123a6565b610908611370565b6001600160a01b0389166000908152600691909101602052604090209061182e565b50610936600182612872565b90506108c3565b5061094788611865565b846001600160a01b0316836001600160a01b03167ff21d10c26e35863a8df291aca54181ee8c4a3bc8e00246c3f7a5a14b69d826a78a60405161098a919061295f565b60405180910390a35050505050505050565b6000806109a7611370565b6001600160a01b038416600090815260059190910160209081526040918290208251606081018452815481526001909101546001600160801b03808216938301849052600160801b90910416928101929092529091504210801590610a18575080604001516001600160801b031642105b80156105ca57506000610a4d610a2c611370565b6001600160a01b038616600090815260069190910160205260409020611394565b119392505050565b60606000610a6c610a64611370565b600201611843565b80519091506000805b82811015610afd57610a9f848281518110610a9257610a926127cf565b602002602001015161099c565b15610ab65781610aae816127fb565b925050610aeb565b6000848281518110610aca57610aca6127cf565b60200260200101906001600160a01b031690816001600160a01b0316815250505b610af6600182612872565b9050610a75565b50806001600160401b03811115610b1657610b16612a58565b604051908082528060200260200182016040528015610b4f57816020015b610b3c6122cf565b815260200190600190039081610b345790505b5093506000805b83811015610c945760006001600160a01b0316858281518110610b7b57610b7b6127cf565b60200260200101516001600160a01b031614610c82576000858281518110610ba557610ba56127cf565b602002602001015190506000610bb9611370565b6001600160a01b038316600081815260059290920160209081526040928390208351606081018552815481526001909101546001600160801b0380821683850152600160801b9091041681850152835160a081019094529183529092508101610c23610823611370565b81526020018260000151815260200182602001516001600160801b0316815260200182604001516001600160801b0316815250888580610c62906127fb565b965081518110610c7457610c746127cf565b602002602001018190525050505b610c8d600182612872565b9050610b56565b505050505090565b600080610cb2610cab8661193e565b8585611a82565b9050610cbc611370565b6101008601356000908152600791909101602052604090205460ff16158015610ce95750610ce98161057c565b9150935093915050565b6060816001600160401b03811115610d0d57610d0d612a58565b604051908082528060200260200182016040528015610d4057816020015b6060815260200190600190039081610d2b5790505b509050336000805b84811015610e59578115610dc757610da530878784818110610d6c57610d6c6127cf565b9050602002810190610d7e9190612789565b86604051602001610d9193929190612a6e565b604051602081830303815290604052611adc565b848281518110610db757610db76127cf565b6020026020010181905250610e47565b610e2930878784818110610ddd57610ddd6127cf565b9050602002810190610def9190612789565b8080601f016020809104026020016040519081016040528093929190818152602001838380828437600092019190915250611adc92505050565b848281518110610e3b57610e3b6127cf565b60200260200101819052505b80610e51816127fb565b915050610d48565b50505092915050565b600080516020612eba833981519152546000906001600160a01b03168015610e8957919050565b7f000000000000000000000000000000000000000000000000000000000000000091505090565b610eb8611b01565b600080516020612eba83398151915280546001600160a01b0319166001600160a01b0392909216919091179055565b6000610ef1610e62565b604051631aab3f0d60e11b8152306004820152600060248201526001600160a01b0391909116906335567e1a90604401602060405180830381865afa158015610f3e573d6000803e3d6000fd5b505050506040513d601f19601f82011682018060405250810190610f629190612a94565b905090565b600080516020612e9a8339815191525460ff808216916101009004168015808015610f95575060018360ff16105b80610fad5750303b158015610fad57508260ff166001145b6110105760405162461bcd60e51b815260206004820152602e60248201527f496e697469616c697a61626c653a20636f6e747261637420697320616c72656160448201526d191e481a5b9a5d1a585b1a5e995960921b6064820152608401610654565b600080516020612e9a833981519152805460ff19166001179055801561104d57600080516020612e9a833981519152805461ff0019166101001790555b61108d8686868080601f016020809104026020016040519081016040528093929190818152602001838380828437600092019190915250611b3f92505050565b7f036f52c1827dab135f7fd44ca0bddde297e2f659c710e0ec53e975f22b548301556110ba8660016116c4565b801561110d57600080516020612e9a833981519152805461ff0019169055604080516001815290517f7f26b83ff96e1f2b6a682f133852f6798a09c465da95921460cefb38474024989181900360200190a15b505050505050565b60606000611124610a64611370565b8051909150806001600160401b0381111561114157611141612a58565b60405190808252806020026020018201604052801561117a57816020015b6111676122cf565b81526020019060019003908161115f5790505b50925060005b8181101561128057600083828151811061119c5761119c6127cf565b6020026020010151905060006111b0611370565b6001600160a01b038316600081815260059290920160209081526040928390208351606081018552815481526001909101546001600160801b0380821683850152600160801b9091041681850152835160a08101909452918352909250810161121a610823611370565b81526020018260000151815260200182602001516001600160801b0316815260200182604001516001600160801b031681525086848151811061125f5761125f6127cf565b602002602001018190525050506001816112799190612872565b9050611180565b50505090565b6060610f62611293611370565b611843565b6112a06122cf565b60006112aa611370565b6001600160a01b038416600081815260059290920160209081526040928390208351606081018552815481526001909101546001600160801b0380821683850152600160801b9091041681850152835160a081019094529183529092508101611335611314611370565b6001600160a01b038716600090815260069190910160205260409020611843565b81526020018260000151815260200182602001516001600160801b0316815260200182604001516001600160801b0316815250915050919050565b7f3181e78fc1b109bc611fd2406150bf06e33faa75f71cba12c3e1fd670f2def0090565b6000610576825490565b600060048210156113c15760405162461bcd60e51b815260040161065490612aad565b6113cf600460008486612acc565b6105ca91612af6565b60006105ca8383611b72565b60008060448310156114085760405162461bcd60e51b815260040161065490612aad565b611416602460048587612acc565b81019061142391906123a6565b9150611433604460248587612acc565b8101906114409190612b26565b90509250929050565b6001600160a01b038116600090815260018301602052604081205415156105ca565b6060808060648410156114905760405162461bcd60e51b815260040161065490612aad565b61149d8460048188612acc565b8101906114aa9190612ce0565b919790965090945092505050565b6114c0610e62565b6001600160a01b0316336001600160a01b0316146115205760405162461bcd60e51b815260206004820152601c60248201527f6163636f756e743a206e6f742066726f6d20456e747279506f696e74000000006044820152606401610654565b565b7f19457468657265756d205369676e6564204d6573736167653a0a3332000000006000908152601c829052603c812060006115a1611564610140870187612789565b8080601f0160208091040260200160405190810160405280939291908181526020018383808284376000920191909152508693925050611b9c9050565b90506115ad81866102a2565b6115bc57600192505050610576565b60006115c6611370565b6001600160a01b03929092166000908152600590920160209081526040808420815160608082018452825482526001909201546001600160801b0380821683870152600160801b8204908116928501929092528351928301845295825265ffffffffffff8087169483019490945292831691015260d09290921b6001600160d01b03191660a09290921b65ffffffffffff60a01b169190911795945050505050565b50565b801561166857604051600090339060001990849084818181858888f193505050503d80600081146116b8576040519150601f19603f3d011682016040523d82523d6000602084013e6116bd565b606091505b5050505050565b6116ce8282611bc0565b6001600160a01b037f0000000000000000000000000000000000000000000000000000000000000000163b1561182a5780156117a1576001600160a01b037f000000000000000000000000000000000000000000000000000000000000000016630b61e12b83600080516020612eba833981519152600101546040516001600160e01b031960e085901b1681526001600160a01b0390921660048301526024820152604401600060405180830381600087803b15801561178d57600080fd5b505af115801561110d573d6000803e3d6000fd5b6001600160a01b037f000000000000000000000000000000000000000000000000000000000000000016639387a38083600080516020612eba833981519152600101546040516001600160e01b031960e085901b1681526001600160a01b0390921660048301526024820152604401600060405180830381600087803b15801561178d57600080fd5b5050565b60006105ca836001600160a01b038416611c6f565b606060006105ca83611cbe565b60006105ca836001600160a01b038416611d1a565b6001600160a01b037f0000000000000000000000000000000000000000000000000000000000000000163b15611668576001600160a01b037f000000000000000000000000000000000000000000000000000000000000000016630b61e12b6118d160208401846123a6565b600080516020612eba833981519152600101546040516001600160e01b031960e085901b1681526001600160a01b0390921660048301526024820152604401600060405180830381600087803b15801561192a57600080fd5b505af11580156116bd573d6000803e3d6000fd5b60607f3fd4a1a1a267c84185e3b7eecd57c68783c0581d538b9d6e5f23e4670497c1e961196e60208401846123a6565b61197e6040850160208601612857565b61198b6040860186612885565b60405160200161199c929190612dc5565b60408051601f19818403018152919052805160209091012060608601356119c960a088016080890161282b565b6119d960c0890160a08a0161282b565b6119e960e08a0160c08b0161282b565b6119fa6101008b0160e08c0161282b565b60408051602081019a909a526001600160a01b039098169789019790975260ff9095166060880152608087019390935260a08601919091526001600160801b0390811660c086015290811660e0850152908116610100848101919091529116610120830152830135610140820152610160016040516020818303038152906040529050919050565b6000611ad483838080601f0160208091040260200160405190810160405280939291908181526020018383808284376000920191909152505087516020890120611ace92509050611e0d565b90611b9c565b949350505050565b60606105ca8383604051806060016040528060278152602001612eda60279139611e3a565b611b0a3361057c565b6115205760405162461bcd60e51b815260206004820152600660248201526510b0b236b4b760d11b6044820152606401610654565b60008282604051602001611b54929190612e07565b60405160208183030381529060405280519060200120905092915050565b6000826000018281548110611b8957611b896127cf565b9060005260206000200154905092915050565b6000806000611bab8585611eb2565b91509150611bb881611ef7565b509392505050565b80611bc9611370565b6001600160a01b038416600090815260049190910160205260409020805460ff19169115159190911790558015611c1257611c0c82611c06611370565b9061182e565b50611c26565b611c2482611c1e611370565b90611850565b505b816001600160a01b03167f235bc17e7930760029e9f4d860a2a8089976de5b381cf8380fc11c1d88a1113382604051611c63911515815260200190565b60405180910390a25050565b6000818152600183016020526040812054611cb657508154600181810184556000848152602080822090930184905584548482528286019093526040902091909155610576565b506000610576565b606081600001805480602002602001604051908101604052809291908181526020018280548015611d0e57602002820191906000526020600020905b815481526020019060010190808311611cfa575b50505050509050919050565b60008181526001830160205260408120548015611e03576000611d3e600183612e2b565b8554909150600090611d5290600190612e2b565b9050818114611db7576000866000018281548110611d7257611d726127cf565b9060005260206000200154905080876000018481548110611d9557611d956127cf565b6000918252602080832090910192909255918252600188019052604090208390555b8554869080611dc857611dc8612e3e565b600190038181906000526020600020016000905590558560010160008681526020019081526020016000206000905560019350505050610576565b6000915050610576565b6000610576611e1a612041565b8360405161190160f01b8152600281019290925260228201526042902090565b6060600080856001600160a01b031685604051611e579190612e54565b600060405180830381855af49150503d8060008114611e92576040519150601f19603f3d011682016040523d82523d6000602084013e611e97565b606091505b5091509150611ea886838387612168565b9695505050505050565b6000808251604103611ee85760208301516040840151606085015160001a611edc878285856121e1565b94509450505050611ef0565b506000905060025b9250929050565b6000816004811115611f0b57611f0b612e70565b03611f135750565b6001816004811115611f2757611f27612e70565b03611f745760405162461bcd60e51b815260206004820152601860248201527f45434453413a20696e76616c6964207369676e617475726500000000000000006044820152606401610654565b6002816004811115611f8857611f88612e70565b03611fd55760405162461bcd60e51b815260206004820152601f60248201527f45434453413a20696e76616c6964207369676e6174757265206c656e677468006044820152606401610654565b6003816004811115611fe957611fe9612e70565b036116685760405162461bcd60e51b815260206004820152602260248201527f45434453413a20696e76616c6964207369676e6174757265202773272076616c604482015261756560f01b6064820152608401610654565b6000306001600160a01b037f00000000000000000000000000000000000000000000000000000000000000001614801561209a57507f000000000000000000000000000000000000000000000000000000000000000046145b156120c457507f000000000000000000000000000000000000000000000000000000000000000090565b50604080517f00000000000000000000000000000000000000000000000000000000000000006020808301919091527f0000000000000000000000000000000000000000000000000000000000000000828401527f000000000000000000000000000000000000000000000000000000000000000060608301524660808301523060a0808401919091528351808403909101815260c0909201909252805191012090565b606083156121d75782516000036121d0576001600160a01b0385163b6121d05760405162461bcd60e51b815260206004820152601d60248201527f416464726573733a2063616c6c20746f206e6f6e2d636f6e74726163740000006044820152606401610654565b5081611ad4565b611ad483836122a5565b6000807f7fffffffffffffffffffffffffffffff5d576e7357a4501ddfe92f46681b20a0831115612218575060009050600361229c565b6040805160008082526020820180845289905260ff881692820192909252606081018690526080810185905260019060a0016020604051602081039080840390855afa15801561226c573d6000803e3d6000fd5b5050604051601f1901519150506001600160a01b0381166122955760006001925092505061229c565b9150600090505b94509492505050565b8151156122b55781518083602001fd5b8060405162461bcd60e51b81526004016106549190612e86565b6040518060a0016040528060006001600160a01b03168152602001606081526020016000815260200160006001600160801b0316815260200160006001600160801b031681525090565b6001600160a01b038116811461166857600080fd5b803561233981612319565b919050565b6000610160828403121561235157600080fd5b50919050565b6000806040838503121561236a57600080fd5b823561237581612319565b915060208301356001600160401b0381111561239057600080fd5b61239c8582860161233e565b9150509250929050565b6000602082840312156123b857600080fd5b81356105ca81612319565b6000806000606084860312156123d857600080fd5b83356001600160401b038111156123ee57600080fd5b6123fa8682870161233e565b9660208601359650604090950135949350505050565b60008083601f84011261242257600080fd5b5081356001600160401b0381111561243957600080fd5b602083019150836020828501011115611ef057600080fd5b60008060006040848603121561246657600080fd5b83356001600160401b038082111561247d57600080fd5b90850190610120828803121561249257600080fd5b909350602085013590808211156124a857600080fd5b506124b586828701612410565b9497909650939450505050565b80516001600160a01b03908116835260208083015160a082860181905281519086018190526000939183019290849060c08801905b80831015612519578551851682529483019460019290920191908301906124f7565b50604087015160408901526060870151945061254060608901866001600160801b03169052565b6080870151945061255c60808901866001600160801b03169052565b979650505050505050565b6000602080830181845280855180835260408601915060408160051b870101925083870160005b828110156125bc57603f198886030184526125aa8583516124c2565b9450928501929085019060010161258e565b5092979650505050505050565b600080602083850312156125dc57600080fd5b82356001600160401b03808211156125f357600080fd5b818501915085601f83011261260757600080fd5b81358181111561261657600080fd5b8660208260051b850101111561262b57600080fd5b60209290920196919550909350505050565b60005b83811015612658578181015183820152602001612640565b50506000910152565b6000815180845261267981602086016020860161263d565b601f01601f19169290920160200192915050565b6000602080830181845280855180835260408601915060408160051b870101925083870160005b828110156125bc57603f198886030184526126d0858351612661565b945092850192908501906001016126b4565b6000806000604084860312156126f757600080fd5b833561270281612319565b925060208401356001600160401b0381111561271d57600080fd5b6124b586828701612410565b6020808252825182820181905260009190848201906040850190845b8181101561276a5783516001600160a01b031683529284019291840191600101612745565b50909695505050505050565b6020815260006105ca60208301846124c2565b6000808335601e198436030181126127a057600080fd5b8301803591506001600160401b038211156127ba57600080fd5b602001915036819003821315611ef057600080fd5b634e487b7160e01b600052603260045260246000fd5b634e487b7160e01b600052601160045260246000fd5b60006001820161280d5761280d6127e5565b5060010190565b80356001600160801b038116811461233957600080fd5b60006020828403121561283d57600080fd5b6105ca82612814565b803560ff8116811461233957600080fd5b60006020828403121561286957600080fd5b6105ca82612846565b80820180821115610576576105766127e5565b6000808335601e1984360301811261289c57600080fd5b8301803591506001600160401b038211156128b657600080fd5b6020019150600581901b3603821315611ef057600080fd5b6000808335601e198436030181126128e557600080fd5b83016020810192503590506001600160401b0381111561290457600080fd5b8060051b3603821315611ef057600080fd5b8183526000602080850194508260005b8581101561295457813561293981612319565b6001600160a01b031687529582019590820190600101612926565b509495945050505050565b60208152612980602082016129738461232e565b6001600160a01b03169052565b600061298e60208401612846565b60ff81166040840152506129a560408401846128ce565b6101208060608601526129bd61014086018385612916565b9250606086013560808601526129d560808701612814565b6001600160801b03811660a087015291506129f260a08701612814565b6001600160801b03811660c08701529150612a0f60c08701612814565b6001600160801b03811660e08701529150612a2c60e08701612814565b9150610100612a45818701846001600160801b03169052565b9590950135939094019290925250919050565b634e487b7160e01b600052604160045260246000fd5b8284823760609190911b6bffffffffffffffffffffffff19169101908152601401919050565b600060208284031215612aa657600080fd5b5051919050565b602080825260059082015264214461746160d81b604082015260600190565b60008085851115612adc57600080fd5b83861115612ae957600080fd5b5050820193919092039150565b6001600160e01b03198135818116916004851015612b1e5780818660040360031b1b83161692505b505092915050565b600060208284031215612b3857600080fd5b5035919050565b604051601f8201601f191681016001600160401b0381118282101715612b6757612b67612a58565b604052919050565b60006001600160401b03821115612b8857612b88612a58565b5060051b60200190565b600082601f830112612ba357600080fd5b81356020612bb8612bb383612b6f565b612b3f565b82815260059290921b84018101918181019086841115612bd757600080fd5b8286015b84811015612bf25780358352918301918301612bdb565b509695505050505050565b6000601f8381840112612c0f57600080fd5b82356020612c1f612bb383612b6f565b82815260059290921b85018101918181019087841115612c3e57600080fd5b8287015b84811015612cd45780356001600160401b0380821115612c625760008081fd5b818a0191508a603f830112612c775760008081fd5b85820135604082821115612c8d57612c8d612a58565b612c9e828b01601f19168901612b3f565b92508183528c81838601011115612cb55760008081fd5b8181850189850137506000908201870152845250918301918301612c42565b50979650505050505050565b600080600060608486031215612cf557600080fd5b83356001600160401b0380821115612d0c57600080fd5b818601915086601f830112612d2057600080fd5b81356020612d30612bb383612b6f565b82815260059290921b8401810191818101908a841115612d4f57600080fd5b948201945b83861015612d76578535612d6781612319565b82529482019490820190612d54565b97505087013592505080821115612d8c57600080fd5b612d9887838801612b92565b93506040860135915080821115612dae57600080fd5b50612dbb86828701612bfd565b9150509250925092565b60008184825b85811015612dfc578135612dde81612319565b6001600160a01b031683526020928301929190910190600101612dcb565b509095945050505050565b6001600160a01b0383168152604060208201819052600090611ad490830184612661565b81810381811115610576576105766127e5565b634e487b7160e01b600052603160045260246000fd5b60008251612e6681846020870161263d565b9190910192915050565b634e487b7160e01b600052602160045260246000fd5b6020815260006105ca602083018461266156fe322cf19c484104d3b1a9c2982ebae869ede3fa5f6c4703ca41b9a48c76ee0300036f52c1827dab135f7fd44ca0bddde297e2f659c710e0ec53e975f22b548300416464726573733a206c6f772d6c6576656c2064656c65676174652063616c6c206661696c6564a2646970667358221220a7d8a9ab52a6c106834c7018edb65b23177bc7fc57d49b23b796de62ef86d73864736f6c63430008140033",
    "linkReferences": {}
  },
  "methodIdentifiers": {
    "entryPoint()": "b0d691fe",
    "factory()": "c45a0155",
    "getAllActiveSigners()": "8b52d723",
    "getAllAdmins()": "e9523c97",
    "getAllSigners()": "d42f2f35",
    "getNonce()": "d087d288",
    "getPermissionsForSigner(address)": "f15d424e",
    "initialize(address,bytes)": "d1f57894",
    "isActiveSigner(address)": "7dff5a79",
    "isAdmin(address)": "24d7806c",
    "isValidSigner(address,(address,uint256,bytes,bytes,uint256,uint256,uint256,uint256,uint256,bytes,bytes))": "1dd756c5",
    "multicall(bytes[])": "ac9650d8",
    "setEntrypointOverride(address)": "b76464d5",
    "setPermissionsForSigner((address,uint8,address[],uint256,uint128,uint128,uint128,uint128,bytes32),bytes)": "5892e236",
    "validateUserOp((address,uint256,bytes,bytes,uint256,uint256,uint256,uint256,uint256,bytes,bytes),bytes32,uint256)": "3a871cdd",
    "verifySignerPermissionRequest((address,uint8,address[],uint256,uint128,uint128,uint128,uint128,bytes32),bytes)": "a9082d84"
  },
  "id": 68
}