{
  "abi": [
    {
      "inputs": [
        {
          "internalType": "uint256",
          "name": "amountIn",
          "type": "uint256"
        },
        {
          "internalType": "uint256",
          "name": "amountOutMin",
          "type": "uint256"
        },
        {
          "internalType": "address[]",
          "name": "path",
          "type": "address[]"
        },
        {
          "internalType": "address",
          "name": "to",
          "type": "address"
        },
        {
          "internalType": "uint256",
          "name": "deadline",
          "type": "uint256"
        }
      ],
      "name": "swapExactTokensForTokens",
      "outputs": [
        {
          "internalType": "uint256",
          "name": "amountOut",
          "type": "uint256"
        }
      ],
      "stateMutability": "nonpayable",
      "type": "function"
    }
  ],
  "bytecode": {
    "object": "0x608060405234801561001057600080fd5b5061037f806100206000396000f3fe608060405234801561001057600080fd5b506004361061002b5760003560e01c806338ed173914610030575b600080fd5b61004361003e366004610222565b610055565b60405190815260200160405180910390f35b60008381036100aa5760405162461bcd60e51b815260206004820152601760248201527f4d6f636b526f757465723a2070617468206c656e677468000000000000000000604482015260640160405180910390fd5b848460008181106100bd576100bd6102c4565b90506020020160208101906100d291906102da565b6040516323b872dd60e01b8152336004820152306024820152604481018990526001600160a01b0391909116906323b872dd906064016020604051808303816000875af1158015610127573d6000803e3d6000fd5b505050506040513d601f19601f8201168201806040525081019061014b91906102fc565b50600061015d8864e8d4a5100061031e565b905085856001818110610172576101726102c4565b905060200201602081019061018791906102da565b60405163a9059cbb60e01b8152336004820152602481018390526001600160a01b03919091169063a9059cbb906044016020604051808303816000875af11580156101d6573d6000803e3d6000fd5b505050506040513d601f19601f820116820180604052508101906101fa91906102fc565b50979650505050505050565b80356001600160a01b038116811461021d57600080fd5b919050565b60008060008060008060a0878903121561023b57600080fd5b8635955060208701359450604087013567ffffffffffffffff8082111561026157600080fd5b818901915089601f83011261027557600080fd5b81358181111561028457600080fd5b8a60208260051b850101111561029957600080fd5b6020830196508095505050506102b160608801610206565b9150608087013590509295509295509295565b634e487b7160e01b600052603260045260246000fd5b6000602082840312156102ec57600080fd5b6102f582610206565b9392505050565b60006020828403121561030e57600080fd5b815180151581146102f557600080fd5b808202811582820484141761034357634e487b7160e01b600052601160045260246000fd5b9291505056fea2646970667358221220cfc799420f43dfc212c3958ed722f769f39d4cf5883035647ee9a2415ec6e47764736f6c63430008140033",
    "linkReferences": {}
  },
  "methodIdentifiers": {
    "swapExactTokensForTokens(uint256,uint256,address[],address,uint256)": "38ed1739"
  },
  "id": 72
}