{
  "abi": [
    {
      "inputs": [],
      "name": "gho",
      "outputs": [
        {
          "internalType": "address",
          "name": "",
          "type": "address"
        }
      ],
      "stateMutability": "view",
      "type": "function"
    },
    {
      "inputs": [
        {
          "internalType": "uint256",
          "name": "amountIn",
          "type": "uint256"
        },
        {
          "internalType": "uint256",
          "name": "amountOutMin",
          "type": "uint256"
        },
        {
          "internalType": "address[]",
          "name": "path",
          "type": "address[]"
        },
        {
          "internalType": "address",
          "name": "to",
          "type": "address"
        },
        {
          "internalType": "uint256",
          "name": "deadline",
          "type": "uint256"
        }
      ],
      "name": "swapExactTokensForTokens",
      "outputs": [
        {
          "internalType": "uint256[]",
          "name": "",
          "type": "uint256[]"
        }
      ],
      "stateMutability": "nonpayable",
      "type": "function"
    }
  ],
  "bytecode": {
    "object": "0x6080604052600080546001600160a01b03191673c4bf5cbdabe595361438f8c6a187bdc330539c6017905534801561003657600080fd5b50610492806100466000396000f3fe608060405234801561001057600080fd5b50600436106100365760003560e01c806338ed17391461003b578063d1af1ca914610064575b600080fd5b61004e6100493660046102cf565b61008f565b60405161005b9190610371565b60405180910390f35b600054610077906001600160a01b031681565b6040516001600160a01b03909116815260200161005b565b600080546060919081906001600160a01b0316878783816100b2576100b26103b5565b90506020020160208101906100c791906103cb565b6001600160a01b0316036100da57600191505b81156100f6576100ef64e8d4a510008a6103ed565b9050610108565b6101058964e8d4a5100061040f565b90505b8686600081811061011b5761011b6103b5565b905060200201602081019061013091906103cb565b6040516323b872dd60e01b8152336004820152306024820152604481018b90526001600160a01b0391909116906323b872dd906064016020604051808303816000875af1158015610185573d6000803e3d6000fd5b505050506040513d601f19601f820116820180604052508101906101a9919061043a565b50868660018181106101bd576101bd6103b5565b90506020020160208101906101d291906103cb565b60405163a9059cbb60e01b8152336004820152602481018390526001600160a01b03919091169063a9059cbb906044016020604051808303816000875af1158015610221573d6000803e3d6000fd5b505050506040513d601f19601f82011682018060405250810190610245919061043a565b50604080516002808252606082018352600092602083019080368337019050509050898160008151811061027b5761027b6103b5565b602002602001018181525050818160018151811061029b5761029b6103b5565b60209081029190910101529998505050505050505050565b80356001600160a01b03811681146102ca57600080fd5b919050565b60008060008060008060a087890312156102e857600080fd5b8635955060208701359450604087013567ffffffffffffffff8082111561030e57600080fd5b818901915089601f83011261032257600080fd5b81358181111561033157600080fd5b8a60208260051b850101111561034657600080fd5b60208301965080955050505061035e606088016102b3565b9150608087013590509295509295509295565b6020808252825182820181905260009190848201906040850190845b818110156103a95783518352928401929184019160010161038d565b50909695505050505050565b634e487b7160e01b600052603260045260246000fd5b6000602082840312156103dd57600080fd5b6103e6826102b3565b9392505050565b60008261040a57634e487b7160e01b600052601260045260246000fd5b500490565b808202811582820484141761043457634e487b7160e01b600052601160045260246000fd5b92915050565b60006020828403121561044c57600080fd5b815180151581146103e657600080fdfea264697066735822122004231980a00c1cf00088a38d5345a0729919b60ea7ea6a306b337c0f1170551164736f6c63430008140033",
    "linkReferences": {}
  },
  "methodIdentifiers": {
    "gho()": "d1af1ca9",
    "swapExactTokensForTokens(uint256,uint256,address[],address,uint256)": "38ed1739"
  },
  "id": 82
}