{
  "abi": [
    {
      "inputs": [
        {
          "internalType": "address",
          "name": "_token",
          "type": "address"
        },
        {
          "internalType": "string",
          "name": "name",
          "type": "string"
        },
        {
          "internalType": "string",
          "name": "symbol",
          "type": "string"
        }
      ],
      "stateMutability": "nonpayable",
      "type": "constructor"
    },
    {
      "inputs": [
        {
          "internalType": "address",
          "name": "receiver",
          "type": "address"
        },
        {
          "internalType": "uint256",
          "name": "assets",
          "type": "uint256"
        },
        {
          "internalType": "uint256",
          "name": "max",
          "type": "uint256"
        }
      ],
      "name": "ERC4626ExceededMaxDeposit",
      "type": "error"
    },
    {
      "inputs": [
        {
          "internalType": "address",
          "name": "receiver",
          "type": "address"
        },
        {
          "internalType": "uint256",
          "name": "shares",
          "type": "uint256"
        },
        {
          "internalType": "uint256",
          "name": "max",
          "type": "uint256"
        }
      ],
      "name": "ERC4626ExceededMaxMint",
      "type": "error"
    },
    {
      "inputs": [
        {
          "internalType": "address",
          "name": "owner",
          "type": "address"
        },
        {
          "internalType": "uint256",
          "name": "shares",
          "type": "uint256"
        },
        {
          "internalType": "uint256",
          "name": "max",
          "type": "uint256"
        }
      ],
      "name": "ERC4626ExceededMaxRedeem",
      "type": "error"
    },
    {
      "inputs": [
        {
          "internalType": "address",
          "name": "owner",
          "type": "address"
        },
        {
          "internalType": "uint256",
          "name": "assets",
          "type": "uint256"
        },
        {
          "internalType": "uint256",
          "name": "max",
          "type": "uint256"
        }
      ],
      "name": "ERC4626ExceededMaxWithdraw",
      "type": "error"
    },
    {
      "inputs": [],
      "name": "MathOverflowedMulDiv",
      "type": "error"
    },
    {
      "anonymous": false,
      "inputs": [
        {
          "indexed": true,
          "internalType": "address",
          "name": "owner",
          "type": "address"
        },
        {
          "indexed": true,
          "internalType": "address",
          "name": "spender",
          "type": "address"
        },
        {
          "indexed": false,
          "internalType": "uint256",
          "name": "value",
          "type": "uint256"
        }
      ],
      "name": "Approval",
      "type": "event"
    },
    {
      "anonymous": false,
      "inputs": [
        {
          "indexed": true,
          "internalType": "address",
          "name": "sender",
          "type": "address"
        },
        {
          "indexed": true,
          "internalType": "address",
          "name": "owner",
          "type": "address"
        },
        {
          "indexed": false,
          "internalType": "uint256",
          "name": "assets",
          "type": "uint256"
        },
        {
          "indexed": false,
          "internalType": "uint256",
          "name": "shares",
          "type": "uint256"
        }
      ],
      "name": "Deposit",
      "type": "event"
    },
    {
      "anonymous": false,
      "inputs": [
        {
          "indexed": true,
          "internalType": "address",
          "name": "from",
          "type": "address"
        },
        {
          "indexed": true,
          "internalType": "address",
          "name": "to",
          "type": "address"
        },
        {
          "indexed": false,
          "internalType": "uint256",
          "name": "value",
          "type": "uint256"
        }
      ],
      "name": "Transfer",
      "type": "event"
    },
    {
      "anonymous": false,
      "inputs": [
        {
          "indexed": true,
          "internalType": "address",
          "name": "sender",
          "type": "address"
        },
        {
          "indexed": true,
          "internalType": "address",
          "name": "receiver",
          "type": "address"
        },
        {
          "indexed": true,
          "internalType": "address",
          "name": "owner",
          "type": "address"
        },
        {
          "indexed": false,
          "internalType": "uint256",
          "name": "assets",
          "type": "uint256"
        },
        {
          "indexed": false,
          "internalType": "uint256",
          "name": "shares",
          "type": "uint256"
        }
      ],
      "name": "Withdraw",
      "type": "event"
    },
    {
      "inputs": [
        {
          "internalType": "address",
          "name": "",
          "type": "address"
        },
        {
          "internalType": "address",
          "name": "",
          "type": "address"
        }
      ],
      "name": "_allowances",
      "outputs": [
        {
          "internalType": "uint256",
          "name": "",
          "type": "uint256"
        }
      ],
      "stateMutability": "view",
      "type": "function"
    },
    {
      "inputs": [
        {
          "internalType": "address",
          "name": "owner",
          "type": "address"
        },
        {
          "internalType": "address",
          "name": "spender",
          "type": "address"
        }
      ],
      "name": "allowance",
      "outputs": [
        {
          "internalType": "uint256",
          "name": "",
          "type": "uint256"
        }
      ],
      "stateMutability": "view",
      "type": "function"
    },
    {
      "inputs": [
        {
          "internalType": "address",
          "name": "spender",
          "type": "address"
        },
        {
          "internalType": "uint256",
          "name": "amount",
          "type": "uint256"
        }
      ],
      "name": "approve",
      "outputs": [
        {
          "internalType": "bool",
          "name": "",
          "type": "bool"
        }
      ],
      "stateMutability": "nonpayable",
      "type": "function"
    },
    {
      "inputs": [],
      "name": "asset",
      "outputs": [
        {
          "internalType": "address",
          "name": "",
          "type": "address"
        }
      ],
      "stateMutability": "view",
      "type": "function"
    },
    {
      "inputs": [
        {
          "internalType": "address",
          "name": "",
          "type": "address"
        }
      ],
      "name": "assetsTot",
      "outputs": [
        {
          "internalType": "uint256",
          "name": "",
          "type": "uint256"
        }
      ],
      "stateMutability": "view",
      "type": "function"
    },
    {
      "inputs": [
        {
          "internalType": "address",
          "name": "account",
          "type": "address"
        }
      ],
      "name": "balanceOf",
      "outputs": [
        {
          "internalType": "uint256",
          "name": "",
          "type": "uint256"
        }
      ],
      "stateMutability": "view",
      "type": "function"
    },
    {
      "inputs": [
        {
          "internalType": "uint256",
          "name": "shares",
          "type": "uint256"
        }
      ],
      "name": "convertToAssets",
      "outputs": [
        {
          "internalType": "uint256",
          "name": "",
          "type": "uint256"
        }
      ],
      "stateMutability": "view",
      "type": "function"
    },
    {
      "inputs": [
        {
          "internalType": "uint256",
          "name": "assets",
          "type": "uint256"
        }
      ],
      "name": "convertToShares",
      "outputs": [
        {
          "internalType": "uint256",
          "name": "",
          "type": "uint256"
        }
      ],
      "stateMutability": "view",
      "type": "function"
    },
    {
      "inputs": [],
      "name": "decimals",
      "outputs": [
        {
          "internalType": "uint8",
          "name": "",
          "type": "uint8"
        }
      ],
      "stateMutability": "view",
      "type": "function"
    },
    {
      "inputs": [
        {
          "internalType": "address",
          "name": "spender",
          "type": "address"
        },
        {
          "internalType": "uint256",
          "name": "subtractedValue",
          "type": "uint256"
        }
      ],
      "name": "decreaseAllowance",
      "outputs": [
        {
          "internalType": "bool",
          "name": "",
          "type": "bool"
        }
      ],
      "stateMutability": "nonpayable",
      "type": "function"
    },
    {
      "inputs": [
        {
          "internalType": "uint256",
          "name": "assets",
          "type": "uint256"
        },
        {
          "internalType": "address",
          "name": "receiver",
          "type": "address"
        }
      ],
      "name": "deposit",
      "outputs": [
        {
          "internalType": "uint256",
          "name": "",
          "type": "uint256"
        }
      ],
      "stateMutability": "nonpayable",
      "type": "function"
    },
    {
      "inputs": [
        {
          "internalType": "address",
          "name": "spender",
          "type": "address"
        },
        {
          "internalType": "uint256",
          "name": "addedValue",
          "type": "uint256"
        }
      ],
      "name": "increaseAllowance",
      "outputs": [
        {
          "internalType": "bool",
          "name": "",
          "type": "bool"
        }
      ],
      "stateMutability": "nonpayable",
      "type": "function"
    },
    {
      "inputs": [
        {
          "internalType": "address",
          "name": "",
          "type": "address"
        }
      ],
      "name": "liquidityPositions",
      "outputs": [
        {
          "internalType": "uint256",
          "name": "",
          "type": "uint256"
        }
      ],
      "stateMutability": "view",
      "type": "function"
    },
    {
      "inputs": [
        {
          "internalType": "address",
          "name": "",
          "type": "address"
        }
      ],
      "name": "maxDeposit",
      "outputs": [
        {
          "internalType": "uint256",
          "name": "",
          "type": "uint256"
        }
      ],
      "stateMutability": "view",
      "type": "function"
    },
    {
      "inputs": [
        {
          "internalType": "address",
          "name": "",
          "type": "address"
        }
      ],
      "name": "maxMint",
      "outputs": [
        {
          "internalType": "uint256",
          "name": "",
          "type": "uint256"
        }
      ],
      "stateMutability": "view",
      "type": "function"
    },
    {
      "inputs": [
        {
          "internalType": "address",
          "name": "owner",
          "type": "address"
        }
      ],
      "name": "maxRedeem",
      "outputs": [
        {
          "internalType": "uint256",
          "name": "",
          "type": "uint256"
        }
      ],
      "stateMutability": "view",
      "type": "function"
    },
    {
      "inputs": [
        {
          "internalType": "address",
          "name": "owner",
          "type": "address"
        }
      ],
      "name": "maxWithdraw",
      "outputs": [
        {
          "internalType": "uint256",
          "name": "",
          "type": "uint256"
        }
      ],
      "stateMutability": "view",
      "type": "function"
    },
    {
      "inputs": [
        {
          "internalType": "uint256",
          "name": "shares",
          "type": "uint256"
        },
        {
          "internalType": "address",
          "name": "receiver",
          "type": "address"
        }
      ],
      "name": "mint",
      "outputs": [
        {
          "internalType": "uint256",
          "name": "",
          "type": "uint256"
        }
      ],
      "stateMutability": "nonpayable",
      "type": "function"
    },
    {
      "inputs": [
        {
          "internalType": "uint256",
          "name": "amount0ToAdd",
          "type": "uint256"
        },
        {
          "internalType": "uint256",
          "name": "amount1ToAdd",
          "type": "uint256"
        }
      ],
      "name": "mintNewPosition",
      "outputs": [
        {
          "internalType": "uint256",
          "name": "tokenId",
          "type": "uint256"
        },
        {
          "internalType": "uint128",
          "name": "liquidity",
          "type": "uint128"
        },
        {
          "internalType": "uint256",
          "name": "amount0",
          "type": "uint256"
        },
        {
          "internalType": "uint256",
          "name": "amount1",
          "type": "uint256"
        },
        {
          "internalType": "uint256",
          "name": "refundUsdc",
          "type": "uint256"
        },
        {
          "internalType": "uint256",
          "name": "refundGho",
          "type": "uint256"
        }
      ],
      "stateMutability": "nonpayable",
      "type": "function"
    },
    {
      "inputs": [],
      "name": "name",
      "outputs": [
        {
          "internalType": "string",
          "name": "",
          "type": "string"
        }
      ],
      "stateMutability": "view",
      "type": "function"
    },
    {
      "inputs": [],
      "name": "nonfungiblePositionManager",
      "outputs": [
        {
          "internalType": "contract INonfungiblePositionManager",
          "name": "",
          "type": "address"
        }
      ],
      "stateMutability": "view",
      "type": "function"
    },
    {
      "inputs": [
        {
          "internalType": "address",
          "name": "operator",
          "type": "address"
        },
        {
          "internalType": "address",
          "name": "from",
          "type": "address"
        },
        {
          "internalType": "uint256",
          "name": "tokenId",
          "type": "uint256"
        },
        {
          "internalType": "bytes",
          "name": "",
          "type": "bytes"
        }
      ],
      "name": "onERC721Received",
      "outputs": [
        {
          "internalType": "bytes4",
          "name": "",
          "type": "bytes4"
        }
      ],
      "stateMutability": "nonpayable",
      "type": "function"
    },
    {
      "inputs": [],
      "name": "positionId",
      "outputs": [
        {
          "internalType": "uint256",
          "name": "",
          "type": "uint256"
        }
      ],
      "stateMutability": "view",
      "type": "function"
    },
    {
      "inputs": [
        {
          "internalType": "uint256",
          "name": "assets",
          "type": "uint256"
        }
      ],
      "name": "previewDeposit",
      "outputs": [
        {
          "internalType": "uint256",
          "name": "",
          "type": "uint256"
        }
      ],
      "stateMutability": "view",
      "type": "function"
    },
    {
      "inputs": [
        {
          "internalType": "uint256",
          "name": "shares",
          "type": "uint256"
        }
      ],
      "name": "previewMint",
      "outputs": [
        {
          "internalType": "uint256",
          "name": "",
          "type": "uint256"
        }
      ],
      "stateMutability": "view",
      "type": "function"
    },
    {
      "inputs": [
        {
          "internalType": "uint256",
          "name": "shares",
          "type": "uint256"
        }
      ],
      "name": "previewRedeem",
      "outputs": [
        {
          "internalType": "uint256",
          "name": "",
          "type": "uint256"
        }
      ],
      "stateMutability": "view",
      "type": "function"
    },
    {
      "inputs": [
        {
          "internalType": "uint256",
          "name": "assets",
          "type": "uint256"
        }
      ],
      "name": "previewWithdraw",
      "outputs": [
        {
          "internalType": "uint256",
          "name": "",
          "type": "uint256"
        }
      ],
      "stateMutability": "view",
      "type": "function"
    },
    {
      "inputs": [
        {
          "internalType": "uint256",
          "name": "shares",
          "type": "uint256"
        },
        {
          "internalType": "address",
          "name": "receiver",
          "type": "address"
        },
        {
          "internalType": "address",
          "name": "owner",
          "type": "address"
        }
      ],
      "name": "redeem",
      "outputs": [
        {
          "internalType": "uint256",
          "name": "",
          "type": "uint256"
        }
      ],
      "stateMutability": "nonpayable",
      "type": "function"
    },
    {
      "inputs": [],
      "name": "symbol",
      "outputs": [
        {
          "internalType": "string",
          "name": "",
          "type": "string"
        }
      ],
      "stateMutability": "view",
      "type": "function"
    },
    {
      "inputs": [],
      "name": "totAssets",
      "outputs": [
        {
          "internalType": "uint256",
          "name": "",
          "type": "uint256"
        }
      ],
      "stateMutability": "view",
      "type": "function"
    },
    {
      "inputs": [],
      "name": "totalAssets",
      "outputs": [
        {
          "internalType": "uint256",
          "name": "",
          "type": "uint256"
        }
      ],
      "stateMutability": "view",
      "type": "function"
    },
    {
      "inputs": [
        {
          "internalType": "address",
          "name": "user",
          "type": "address"
        }
      ],
      "name": "totalAssetsOfUser",
      "outputs": [
        {
          "internalType": "uint256",
          "name": "",
          "type": "uint256"
        }
      ],
      "stateMutability": "view",
      "type": "function"
    },
    {
      "inputs": [],
      "name": "totalLiquidity",
      "outputs": [
        {
          "internalType": "uint256",
          "name": "",
          "type": "uint256"
        }
      ],
      "stateMutability": "view",
      "type": "function"
    },
    {
      "inputs": [],
      "name": "totalSupply",
      "outputs": [
        {
          "internalType": "uint256",
          "name": "",
          "type": "uint256"
        }
      ],
      "stateMutability": "view",
      "type": "function"
    },
    {
      "inputs": [
        {
          "internalType": "address",
          "name": "to",
          "type": "address"
        },
        {
          "internalType": "uint256",
          "name": "amount",
          "type": "uint256"
        }
      ],
      "name": "transfer",
      "outputs": [
        {
          "internalType": "bool",
          "name": "",
          "type": "bool"
        }
      ],
      "stateMutability": "nonpayable",
      "type": "function"
    },
    {
      "inputs": [
        {
          "internalType": "address",
          "name": "from",
          "type": "address"
        },
        {
          "internalType": "address",
          "name": "to",
          "type": "address"
        },
        {
          "internalType": "uint256",
          "name": "amount",
          "type": "uint256"
        }
      ],
      "name": "transferFrom",
      "outputs": [
        {
          "internalType": "bool",
          "name": "",
          "type": "bool"
        }
      ],
      "stateMutability": "nonpayable",
      "type": "function"
    },
    {
      "inputs": [
        {
          "internalType": "uint256",
          "name": "shares",
          "type": "uint256"
        },
        {
          "internalType": "address",
          "name": "receiver",
          "type": "address"
        },
        {
          "internalType": "address",
          "name": "owner",
          "type": "address"
        }
      ],
      "name": "withdraw",
      "outputs": [
        {
          "internalType": "uint256",
          "name": "",
          "type": "uint256"
        }
      ],
      "stateMutability": "nonpayable",
      "type": "function"
    }
  ],
  "bytecode": {
    "object": "0x60c0604052600a80546001600160a01b031916731238536071e1c677a632429e3655c799b22cda521790553480156200003757600080fd5b50604051620035ca380380620035ca8339810160408190526200005a9162000275565b82828260036200006b83826200038e565b5060046200007a82826200038e565b5050506000806200009183620000c360201b60201c565b9150915081620000a3576012620000a5565b805b60ff1660a05250506001600160a01b03166080525062000492915050565b60408051600481526024810182526020810180516001600160e01b031663313ce56760e01b17905290516000918291829182916001600160a01b038716916200010c916200045a565b600060405180830381855afa9150503d806000811462000149576040519150601f19603f3d011682016040523d82523d6000602084013e6200014e565b606091505b50915091508180156200016357506020815110155b156200019b5760008180602001905181019062000181919062000478565b905060ff811162000199576001969095509350505050565b505b5060009485945092505050565b634e487b7160e01b600052604160045260246000fd5b60005b83811015620001db578181015183820152602001620001c1565b50506000910152565b600082601f830112620001f657600080fd5b81516001600160401b0380821115620002135762000213620001a8565b604051601f8301601f19908116603f011681019082821181831017156200023e576200023e620001a8565b816040528381528660208588010111156200025857600080fd5b6200026b846020830160208901620001be565b9695505050505050565b6000806000606084860312156200028b57600080fd5b83516001600160a01b0381168114620002a357600080fd5b60208501519093506001600160401b0380821115620002c157600080fd5b620002cf87838801620001e4565b93506040860151915080821115620002e657600080fd5b50620002f586828701620001e4565b9150509250925092565b600181811c908216806200031457607f821691505b6020821081036200033557634e487b7160e01b600052602260045260246000fd5b50919050565b601f8211156200038957600081815260208120601f850160051c81016020861015620003645750805b601f850160051c820191505b81811015620003855782815560010162000370565b5050505b505050565b81516001600160401b03811115620003aa57620003aa620001a8565b620003c281620003bb8454620002ff565b846200033b565b602080601f831160018114620003fa5760008415620003e15750858301515b600019600386901b1c1916600185901b17855562000385565b600085815260208120601f198616915b828110156200042b578886015182559484019460019091019084016200040a565b50858210156200044a5787850151600019600388901b60f8161c191681555b5050505050600190811b01905550565b600082516200046e818460208701620001be565b9190910192915050565b6000602082840312156200048b57600080fd5b5051919050565b60805160a051613112620004b860003960006106780152600061036801526131126000f3fe608060405234801561001057600080fd5b50600436106102275760003560e01c80636fd0ea9211610130578063b44a2722116100b8578063ce96cb771161007c578063ce96cb77146104ff578063d905777e14610512578063dd62ed3e14610525578063ef8b30f7146104ec578063f058ebee1461053857600080fd5b8063b44a2722146104b3578063b460af94146104c6578063ba087652146104d9578063c63d75b6146103b3578063c6e6f592146104ec57600080fd5b806395d89b41116100ff57806395d89b41146104695780639c55f7a014610471578063a457c2d71461047a578063a9059cbb1461048d578063b3d7f6b9146104a057600080fd5b80636fd0ea921461040457806370a082311461042457806371640de31461044d57806394bf804d1461045657600080fd5b806318160ddd116101b3578063395093511161018257806339509351146103a0578063402d267d146103b357806345be27b6146103c85780634cdad506146102a75780636e553f65146103f157600080fd5b806318160ddd1461033157806323b872dd14610339578063313ce5671461034c57806338d52e0f1461036657600080fd5b806307a2d13a116101fa57806307a2d13a146102a7578063095ea7b3146102ba5780630a28a477146102dd578063150b7a02146102f057806315770f921461032857600080fd5b806301b54c1c1461022c57806301e1d1141461025f578063024c2ddd1461026757806306fdde0314610292575b600080fd5b61024c61023a3660046128c3565b60066020526000908152604090205481565b6040519081526020015b60405180910390f35b60095461024c565b61024c6102753660046128de565b600160209081526000928352604080842090915290825290205481565b61029a610580565b6040516102569190612935565b61024c6102b5366004612968565b610612565b6102cd6102c8366004612981565b610625565b6040519015158152602001610256565b61024c6102eb366004612968565b61063d565b61030f6102fe3660046129ab565b630a85bd0160e11b95945050505050565b6040516001600160e01b03199091168152602001610256565b61024c60085481565b60025461024c565b6102cd610347366004612a46565b61064a565b610354610670565b60405160ff9091168152602001610256565b7f00000000000000000000000000000000000000000000000000000000000000005b6040516001600160a01b039091168152602001610256565b6102cd6103ae366004612981565b6106a1565b61024c6103c13660046128c3565b5060001990565b61024c6103d63660046128c3565b6001600160a01b031660009081526006602052604090205490565b61024c6103ff366004612a82565b6106c3565b61024c6104123660046128c3565b60056020526000908152604090205481565b61024c6104323660046128c3565b6001600160a01b031660009081526020819052604090205490565b61024c60075481565b61024c610464366004612a82565b610cf5565b61029a610d1b565b61024c60095481565b6102cd610488366004612981565b610d2a565b6102cd61049b366004612981565b610db0565b61024c6104ae366004612968565b610dbe565b600a54610388906001600160a01b031681565b61024c6104d4366004612aa5565b610dcb565b61024c6104e7366004612aa5565b611224565b61024c6104fa366004612968565b61128f565b61024c61050d3660046128c3565b61129c565b61024c6105203660046128c3565b6112c0565b61024c6105333660046128de565b6112de565b61054b610546366004612ae1565b611309565b604080519687526001600160801b039095166020870152938501929092526060840152608083015260a082015260c001610256565b60606003805461058f90612b03565b80601f01602080910402602001604051908101604052809291908181526020018280546105bb90612b03565b80156106085780601f106105dd57610100808354040283529160200191610608565b820191906000526020600020905b8154815290600101906020018083116105eb57829003601f168201915b5050505050905090565b600061061f826000611813565b92915050565b60003361063381858561184e565b5060019392505050565b600061061f826001611972565b60003361065885828561199d565b610663858585611a17565b60019150505b9392505050565b600061069c817f0000000000000000000000000000000000000000000000000000000000000000612b53565b905090565b6000336106338185856106b483836112de565b6106be9190612b6c565b61184e565b60006000196106d6565b60405180910390fd5b6106f06000805160206130bd833981519152333087611bbb565b6040805160028082526060820183526000926020830190803683370190505090506000805160206130bd8339815191528160008151811061073357610733612b95565b60200260200101906001600160a01b031690816001600160a01b0316815250507394a9d9ac8a22534e3faca9f4e7f2e2cf85d5e4c88160018151811061077b5761077b612b95565b6001600160a01b039092166020928302919091019091015260006107a0600287612bc1565b9050816000815181106107b5576107b5612b95565b60200260200101516001600160a01b031663095ea7b37349b86914d97db46ff0f771f7bea4f0b28501605b886040518363ffffffff1660e01b81526004016107fe929190612bd5565b6020604051808303816000875af115801561081d573d6000803e3d6000fd5b505050506040513d601f19601f820116820180604052508101906108419190612bee565b506040516338ed173960e01b81526060907349b86914d97db46ff0f771f7bea4f0b28501605b906338ed173990610885908590600090889030904290600401612c10565b6000604051808303816000875af11580156108a4573d6000803e3d6000fd5b505050506040513d6000823e601f3d908101601f191682016040526108cc9190810190612c81565b336000908152600560205260408120549192509081908190819081908103610aad578760008151811061090157610901612b95565b60200260200101516001600160a01b031663095ea7b3600a60009054906101000a90046001600160a01b03168e6040518363ffffffff1660e01b815260040161094b929190612bd5565b6020604051808303816000875af115801561096a573d6000803e3d6000fd5b505050506040513d601f19601f8201168201806040525081019061098e9190612bee565b50876001815181106109a2576109a2612b95565b60200260200101516001600160a01b031663095ea7b3600a60009054906101000a90046001600160a01b0316886001815181106109e1576109e1612b95565b602002602001015160026109f59190612d3f565b6040518363ffffffff1660e01b8152600401610a12929190612bd5565b6020604051808303816000875af1158015610a31573d6000803e3d6000fd5b505050506040513d601f19601f82011682018060405250810190610a559190612bee565b50610a7a86600181518110610a6c57610a6c612b95565b602002602001015188611309565b6007869055336000908152600560205260409020959095556001600160801b039093169850909650945092509050610c51565b87600081518110610ac057610ac0612b95565b60200260200101516001600160a01b031663095ea7b3600a60009054906101000a90046001600160a01b03168e6040518363ffffffff1660e01b8152600401610b0a929190612bd5565b6020604051808303816000875af1158015610b29573d6000803e3d6000fd5b505050506040513d601f19601f82011682018060405250810190610b4d9190612bee565b5087600181518110610b6157610b61612b95565b60200260200101516001600160a01b031663095ea7b3600a60009054906101000a90046001600160a01b031688600181518110610ba057610ba0612b95565b60200260200101516002610bb49190612d3f565b6040518363ffffffff1660e01b8152600401610bd1929190612bd5565b6020604051808303816000875af1158015610bf0573d6000803e3d6000fd5b505050506040513d601f19601f82011682018060405250810190610c149190612bee565b50610c3c60075487600181518110610c2e57610c2e612b95565b602002602001015189611c15565b6001600160801b039094169850945091925050505b84610c5e338d8f846120ec565b8560086000828254610c709190612b6c565b90915550829050610c81848f612d56565b610c8b9190612d56565b6001600160a01b038d1660009081526006602052604081208054909190610cb3908490612b6c565b90915550829050610cc4848f612d56565b610cce9190612d56565b60096000828254610cdf9190612b6c565b90915550909d9c50505050505050505050505050565b60006000196000610d0585610dbe565b9050610d13338583886120ec565b949350505050565b60606004805461058f90612b03565b60003381610d3882866112de565b905083811015610d985760405162461bcd60e51b815260206004820152602560248201527f45524332303a2064656372656173656420616c6c6f77616e63652062656c6f77604482015264207a65726f60d81b60648201526084016106cd565b610da5828686840361184e565b506001949350505050565b600033610633818585611a17565b600061061f826001611813565b336000908152600560205260408120548103610e235760405162461bcd60e51b81526020600482015260176024820152761c1bdcda5d1a5bdb88191bd95cc81b9bdd08195e1a5cdd604a1b60448201526064016106cd565b336000908152600560205260408120548190610e3f9087612152565b33600090815260056020526040812054929450909250908190610e6190612224565b604080516002808252606082018352939550919350600092906020830190803683370190505090507394a9d9ac8a22534e3faca9f4e7f2e2cf85d5e4c881600081518110610eb157610eb1612b95565b60200260200101906001600160a01b031690816001600160a01b0316815250506000805160206130bd83398151915281600181518110610ef357610ef3612b95565b60200260200101906001600160a01b031690816001600160a01b03168152505080600081518110610f2657610f26612b95565b60200260200101516001600160a01b031663095ea7b37349b86914d97db46ff0f771f7bea4f0b28501605b8588610f5d9190612b6c565b6040518363ffffffff1660e01b8152600401610f7a929190612bd5565b6020604051808303816000875af1158015610f99573d6000803e3d6000fd5b505050506040513d601f19601f82011682018060405250810190610fbd9190612bee565b506040516370a0823160e01b81523060048201526060907349b86914d97db46ff0f771f7bea4f0b28501605b906338ed1739907394a9d9ac8a22534e3faca9f4e7f2e2cf85d5e4c8906370a0823190602401602060405180830381865afa15801561102c573d6000803e3d6000fd5b505050506040513d601f19601f820116820180604052508101906110509190612d69565b60008530426040518663ffffffff1660e01b8152600401611075959493929190612c10565b6000604051808303816000875af1158015611094573d6000803e3d6000fd5b505050506040513d6000823e601f3d908101601f191682016040526110bc9190810190612c81565b6040516370a0823160e01b81523060048201529091506000906000805160206130bd833981519152906370a0823190602401602060405180830381865afa15801561110b573d6000803e3d6000fd5b505050506040513d601f19601f8201168201806040525081019061112f9190612d69565b60405163a9059cbb60e01b81529091506000805160206130bd8339815191529063a9059cbb90611165908d908590600401612bd5565b6020604051808303816000875af1158015611184573d6000803e3d6000fd5b505050506040513d601f19601f820116820180604052508101906111a89190612bee565b506111b6338b8b8e8f6122e7565b6001600160a01b038916600090815260066020526040812080548392906111de908490612d56565b9250508190555080600960008282546111f79190612d56565b925050819055508a600860008282546112109190612d56565b909155509a9b9a5050505050505050505050565b600080611230836112c0565b90508085111561126c57604051632e52afbb60e21b81526001600160a01b038416600482015260248101869052604481018290526064016106cd565b600061127786610612565b9050611286338686848a6122e7565b95945050505050565b600061061f826000611972565b6001600160a01b03811660009081526020819052604081205461061f906000611813565b6001600160a01b03811660009081526020819052604081205461061f565b6001600160a01b03918216600090815260016020908152604080832093909416825291909152205490565b60008060008060008060006040518061016001604052807394a9d9ac8a22534e3faca9f4e7f2e2cf85d5e4c86001600160a01b031681526020016000805160206130bd8339815191526001600160a01b03168152602001610bb862ffffff168152602001603c80620d89e71961137f9190612d82565b6113899190612dbc565b60020b8152602001603c806113a1620d89e719612de3565b6113ab9190612d82565b6113b59190612dbc565b60020b8152602081018b905260408082018b905260006060830181905260808301523060a08301524260c090920191909152600a549051634418b22b60e11b81529192506001600160a01b031690638831645690611417908490600401612e05565b6080604051808303816000875af1158015611436573d6000803e3d6000fd5b505050506040513d601f19601f8201168201806040525081019061145a9190612ee0565b92995090975095509350888510156116f8576000611478868b612d56565b60408051600280825260608201835292935060009290916020830190803683370190505090507394a9d9ac8a22534e3faca9f4e7f2e2cf85d5e4c8816000815181106114c6576114c6612b95565b60200260200101906001600160a01b031690816001600160a01b0316815250506000805160206130bd8339815191528160018151811061150857611508612b95565b6001600160a01b039092166020928302919091019091015260405163095ea7b360e01b81526060907394a9d9ac8a22534e3faca9f4e7f2e2cf85d5e4c89063095ea7b390611570907349b86914d97db46ff0f771f7bea4f0b28501605b908790600401612bd5565b6020604051808303816000875af115801561158f573d6000803e3d6000fd5b505050506040513d601f19601f820116820180604052508101906115b39190612bee565b506040516338ed173960e01b81527349b86914d97db46ff0f771f7bea4f0b28501605b906338ed1739906115f4908690600090879030904290600401612c10565b6000604051808303816000875af1158015611613573d6000803e3d6000fd5b505050506040513d6000823e601f3d908101601f1916820160405261163b9190810190612c81565b90506000805160206130bd8339815191526001600160a01b031663a9059cbb338360018151811061166e5761166e612b95565b60200260200101516040518363ffffffff1660e01b8152600401611693929190612bd5565b6020604051808303816000875af11580156116b2573d6000803e3d6000fd5b505050506040513d601f19601f820116820180604052508101906116d69190612bee565b50806001815181106116ea576116ea612b95565b602002602001015195505050505b8784101561180857600a5460405163095ea7b360e01b81526000805160206130bd8339815191529163095ea7b39161173f916001600160a01b031690600090600401612bd5565b6020604051808303816000875af115801561175e573d6000803e3d6000fd5b505050506040513d601f19601f820116820180604052508101906117829190612bee565b5061178d8489612d56565b60405163a9059cbb60e01b81529092506000805160206130bd8339815191529063a9059cbb906117c39033908690600401612bd5565b6020604051808303816000875af11580156117e2573d6000803e3d6000fd5b505050506040513d601f19601f820116820180604052508101906118069190612bee565b505b509295509295509295565b600061066961182160095490565b61182c906001612b6c565b6118386000600a613000565b6002546118459190612b6c565b8591908561237c565b6001600160a01b0383166118b05760405162461bcd60e51b8152602060048201526024808201527f45524332303a20617070726f76652066726f6d20746865207a65726f206164646044820152637265737360e01b60648201526084016106cd565b6001600160a01b0382166119115760405162461bcd60e51b815260206004820152602260248201527f45524332303a20617070726f766520746f20746865207a65726f206164647265604482015261737360f01b60648201526084016106cd565b6001600160a01b0383811660008181526001602090815260408083209487168084529482529182902085905590518481527f8c5be1e5ebec7d5bd14f71427d1e84f3dd0314c0f7b2291e5b200ac8c7c3b925910160405180910390a3505050565b600061066961198282600a613000565b60025461198f9190612b6c565b600954611845906001612b6c565b60006119a984846112de565b90506000198114611a115781811015611a045760405162461bcd60e51b815260206004820152601d60248201527f45524332303a20696e73756666696369656e7420616c6c6f77616e636500000060448201526064016106cd565b611a11848484840361184e565b50505050565b6001600160a01b038316611a7b5760405162461bcd60e51b815260206004820152602560248201527f45524332303a207472616e736665722066726f6d20746865207a65726f206164604482015264647265737360d81b60648201526084016106cd565b6001600160a01b038216611add5760405162461bcd60e51b815260206004820152602360248201527f45524332303a207472616e7366657220746f20746865207a65726f206164647260448201526265737360e81b60648201526084016106cd565b6001600160a01b03831660009081526020819052604090205481811015611b555760405162461bcd60e51b815260206004820152602660248201527f45524332303a207472616e7366657220616d6f756e7420657863656564732062604482015265616c616e636560d01b60648201526084016106cd565b6001600160a01b03848116600081815260208181526040808320878703905593871680835291849020805487019055925185815290927fddf252ad1be2c89b69c2b068fc378daa952ba7f163c4a11628f55a4df523b3ef910160405180910390a3611a11565b604080516001600160a01b0385811660248301528416604482015260648082018490528251808303909101815260849091019091526020810180516001600160e01b03166323b872dd60e01b179052611a119085906123d0565b3360009081526005602052604081205481908190819081908103611c755760405162461bcd60e51b81526020600482015260176024820152761c1bdcda5d1a5bdb88191bd95cc81b9bdd08195e1a5cdd604a1b60448201526064016106cd565b6040805160c08101825289815260208101898152818301898152600060608401818152608085019182524260a08601908152600a54965163219f5d1760e01b81528651600482015294516024860152925160448501525160648401525160848301525160a482015290916001600160a01b03169063219f5d179060c4016060604051808303816000875af1158015611d11573d6000803e3d6000fd5b505050506040513d601f19601f82011682018060405250810190611d35919061300f565b9197509550935087851015611fd0576000611d50868a612d56565b60408051600280825260608201835292935060009290916020830190803683370190505090507394a9d9ac8a22534e3faca9f4e7f2e2cf85d5e4c881600081518110611d9e57611d9e612b95565b60200260200101906001600160a01b031690816001600160a01b0316815250506000805160206130bd83398151915281600181518110611de057611de0612b95565b6001600160a01b039092166020928302919091019091015260405163095ea7b360e01b81526060907394a9d9ac8a22534e3faca9f4e7f2e2cf85d5e4c89063095ea7b390611e48907349b86914d97db46ff0f771f7bea4f0b28501605b908790600401612bd5565b6020604051808303816000875af1158015611e67573d6000803e3d6000fd5b505050506040513d601f19601f82011682018060405250810190611e8b9190612bee565b506040516338ed173960e01b81527349b86914d97db46ff0f771f7bea4f0b28501605b906338ed173990611ecc908690600090879030904290600401612c10565b6000604051808303816000875af1158015611eeb573d6000803e3d6000fd5b505050506040513d6000823e601f3d908101601f19168201604052611f139190810190612c81565b90506000805160206130bd8339815191526001600160a01b031663a9059cbb3383600181518110611f4657611f46612b95565b60200260200101516040518363ffffffff1660e01b8152600401611f6b929190612bd5565b6020604051808303816000875af1158015611f8a573d6000803e3d6000fd5b505050506040513d601f19601f82011682018060405250810190611fae9190612bee565b5080600181518110611fc257611fc2612b95565b602002602001015195505050505b868410156120e057600a5460405163095ea7b360e01b81526000805160206130bd8339815191529163095ea7b391612017916001600160a01b031690600090600401612bd5565b6020604051808303816000875af1158015612036573d6000803e3d6000fd5b505050506040513d601f19601f8201168201806040525081019061205a9190612bee565b506120658488612d56565b60405163a9059cbb60e01b81529092506000805160206130bd8339815191529063a9059cbb9061209b9033908690600401612bd5565b6020604051808303816000875af11580156120ba573d6000803e3d6000fd5b505050506040513d601f19601f820116820180604052508101906120de9190612bee565b505b50939792965093509350565b6120f683826124a2565b826001600160a01b0316846001600160a01b03167fdcbc1c05240f31ff3ad067ef1ee35ce4997762752e3a095284754544f4c709d78484604051612144929190918252602082015260400190565b60405180910390a350505050565b6040805160a0810182528381526001600160801b03838116602083019081526000838501818152606085018281524260808701908152600a549751630624e65f60e11b81528751600482015294519095166024850152905160448401525160648301529151608482015290928392916001600160a01b0390911690630c49ccbe9060a40160408051808303816000875af11580156121f4573d6000803e3d6000fd5b505050506040513d601f19601f820116820180604052508101906122189190613044565b90969095509350505050565b6040805160808101825282815230602082019081526001600160801b0382840181815260608401828152600a54955163fc6f786560e01b81528551600482015293516001600160a01b03908116602486015291518316604485015251909116606483015260009384939291169063fc6f78659060840160408051808303816000875af11580156122b8573d6000803e3d6000fd5b505050506040513d601f19601f820116820180604052508101906122dc9190613044565b909590945092505050565b826001600160a01b0316856001600160a01b03161461230b5761230b83868361199d565b6123158382612561565b826001600160a01b0316846001600160a01b0316866001600160a01b03167ffbde797d201c681b91056529119e0b02407c7bb96a4a2c75c01fc9667232c8db858560405161236d929190918252602082015260400190565b60405180910390a45050505050565b60008061238a868686612693565b905061239583612757565b80156123b15750600084806123ac576123ac612bab565b868809115b15611286576123c1600182612b6c565b9695505050505050565b505050565b6000612425826040518060400160405280602081526020017f5361666545524332303a206c6f772d6c6576656c2063616c6c206661696c6564815250856001600160a01b03166127849092919063ffffffff16565b8051909150156123cb57808060200190518101906124439190612bee565b6123cb5760405162461bcd60e51b815260206004820152602a60248201527f5361666545524332303a204552433230206f7065726174696f6e20646964206e6044820152691bdd081cdd58d8d9595960b21b60648201526084016106cd565b6001600160a01b0382166124f85760405162461bcd60e51b815260206004820152601f60248201527f45524332303a206d696e7420746f20746865207a65726f20616464726573730060448201526064016106cd565b806002600082825461250a9190612b6c565b90915550506001600160a01b038216600081815260208181526040808320805486019055518481527fddf252ad1be2c89b69c2b068fc378daa952ba7f163c4a11628f55a4df523b3ef910160405180910390a35050565b6001600160a01b0382166125c15760405162461bcd60e51b815260206004820152602160248201527f45524332303a206275726e2066726f6d20746865207a65726f206164647265736044820152607360f81b60648201526084016106cd565b6001600160a01b038216600090815260208190526040902054818110156126355760405162461bcd60e51b815260206004820152602260248201527f45524332303a206275726e20616d6f756e7420657863656564732062616c616e604482015261636560f01b60648201526084016106cd565b6001600160a01b0383166000818152602081815260408083208686039055600280548790039055518581529192917fddf252ad1be2c89b69c2b068fc378daa952ba7f163c4a11628f55a4df523b3ef910160405180910390a3505050565b60008383028160001985870982811083820303915050806000036126ca578382816126c0576126c0612bab565b0492505050610669565b8084116126ea5760405163227bc15360e01b815260040160405180910390fd5b6000848688096000868103871696879004966002600389028118808a02820302808a02820302808a02820302808a02820302808a02820302808a02909103029181900381900460010186841190950394909402919094039290920491909117919091029150509392505050565b6000600282600381111561276d5761276d613068565b612777919061307e565b60ff166001149050919050565b6060610d13848460008585600080866001600160a01b031685876040516127ab91906130a0565b60006040518083038185875af1925050503d80600081146127e8576040519150601f19603f3d011682016040523d82523d6000602084013e6127ed565b606091505b50915091506127fe87838387612809565b979650505050505050565b60608315612878578251600003612871576001600160a01b0385163b6128715760405162461bcd60e51b815260206004820152601d60248201527f416464726573733a2063616c6c20746f206e6f6e2d636f6e747261637400000060448201526064016106cd565b5081610d13565b610d13838381511561288d5781518083602001fd5b8060405162461bcd60e51b81526004016106cd9190612935565b80356001600160a01b03811681146128be57600080fd5b919050565b6000602082840312156128d557600080fd5b610669826128a7565b600080604083850312156128f157600080fd5b6128fa836128a7565b9150612908602084016128a7565b90509250929050565b60005b8381101561292c578181015183820152602001612914565b50506000910152565b6020815260008251806020840152612954816040850160208701612911565b601f01601f19169190910160400192915050565b60006020828403121561297a57600080fd5b5035919050565b6000806040838503121561299457600080fd5b61299d836128a7565b946020939093013593505050565b6000806000806000608086880312156129c357600080fd5b6129cc866128a7565b94506129da602087016128a7565b935060408601359250606086013567ffffffffffffffff808211156129fe57600080fd5b818801915088601f830112612a1257600080fd5b813581811115612a2157600080fd5b896020828501011115612a3357600080fd5b9699959850939650602001949392505050565b600080600060608486031215612a5b57600080fd5b612a64846128a7565b9250612a72602085016128a7565b9150604084013590509250925092565b60008060408385031215612a9557600080fd5b82359150612908602084016128a7565b600080600060608486031215612aba57600080fd5b83359250612aca602085016128a7565b9150612ad8604085016128a7565b90509250925092565b60008060408385031215612af457600080fd5b50508035926020909101359150565b600181811c90821680612b1757607f821691505b602082108103612b3757634e487b7160e01b600052602260045260246000fd5b50919050565b634e487b7160e01b600052601160045260246000fd5b60ff818116838216019081111561061f5761061f612b3d565b8082018082111561061f5761061f612b3d565b634e487b7160e01b600052604160045260246000fd5b634e487b7160e01b600052603260045260246000fd5b634e487b7160e01b600052601260045260246000fd5b600082612bd057612bd0612bab565b500490565b6001600160a01b03929092168252602082015260400190565b600060208284031215612c0057600080fd5b8151801515811461066957600080fd5b600060a082018783526020878185015260a0604085015281875180845260c086019150828901935060005b81811015612c605784516001600160a01b031683529383019391830191600101612c3b565b50506001600160a01b03969096166060850152505050608001529392505050565b60006020808385031215612c9457600080fd5b825167ffffffffffffffff80821115612cac57600080fd5b818501915085601f830112612cc057600080fd5b815181811115612cd257612cd2612b7f565b8060051b604051601f19603f83011681018181108582111715612cf757612cf7612b7f565b604052918252848201925083810185019188831115612d1557600080fd5b938501935b82851015612d3357845184529385019392850192612d1a565b98975050505050505050565b808202811582820484141761061f5761061f612b3d565b8181038181111561061f5761061f612b3d565b600060208284031215612d7b57600080fd5b5051919050565b60008160020b8360020b80612d9957612d99612bab565b627fffff19821460001982141615612db357612db3612b3d565b90059392505050565b60008260020b8260020b028060020b9150808214612ddc57612ddc612b3d565b5092915050565b60008160020b627fffff198103612dfc57612dfc612b3d565b60000392915050565b81516001600160a01b0316815261016081016020830151612e3160208401826001600160a01b03169052565b506040830151612e48604084018262ffffff169052565b506060830151612e5d606084018260020b9052565b506080830151612e72608084018260020b9052565b5060a083015160a083015260c083015160c083015260e083015160e083015261010080840151818401525061012080840151612eb8828501826001600160a01b03169052565b505061014092830151919092015290565b80516001600160801b03811681146128be57600080fd5b60008060008060808587031215612ef657600080fd5b84519350612f0660208601612ec9565b6040860151606090960151949790965092505050565b600181815b80851115612f57578160001904821115612f3d57612f3d612b3d565b80851615612f4a57918102915b93841c9390800290612f21565b509250929050565b600082612f6e5750600161061f565b81612f7b5750600061061f565b8160018114612f915760028114612f9b57612fb7565b600191505061061f565b60ff841115612fac57612fac612b3d565b50506001821b61061f565b5060208310610133831016604e8410600b8410161715612fda575081810a61061f565b612fe48383612f1c565b8060001904821115612ff857612ff8612b3d565b029392505050565b600061066960ff841683612f5f565b60008060006060848603121561302457600080fd5b61302d84612ec9565b925060208401519150604084015190509250925092565b6000806040838503121561305757600080fd5b505080516020909101519092909150565b634e487b7160e01b600052602160045260246000fd5b600060ff83168061309157613091612bab565b8060ff84160691505092915050565b600082516130b2818460208701612911565b919091019291505056fe000000000000000000000000c4bf5cbdabe595361438f8c6a187bdc330539c60a2646970667358221220141c2ea32f5c49db74b5836550e9065d167fe6f26559c347b3c2677f7e9c416464736f6c63430008140033",
    "linkReferences": {}
  },
  "methodIdentifiers": {
    "_allowances(address,address)": "024c2ddd",
    "allowance(address,address)": "dd62ed3e",
    "approve(address,uint256)": "095ea7b3",
    "asset()": "38d52e0f",
    "assetsTot(address)": "01b54c1c",
    "balanceOf(address)": "70a08231",
    "convertToAssets(uint256)": "07a2d13a",
    "convertToShares(uint256)": "c6e6f592",
    "decimals()": "313ce567",
    "decreaseAllowance(address,uint256)": "a457c2d7",
    "deposit(uint256,address)": "6e553f65",
    "increaseAllowance(address,uint256)": "39509351",
    "liquidityPositions(address)": "6fd0ea92",
    "maxDeposit(address)": "402d267d",
    "maxMint(address)": "c63d75b6",
    "maxRedeem(address)": "d905777e",
    "maxWithdraw(address)": "ce96cb77",
    "mint(uint256,address)": "94bf804d",
    "mintNewPosition(uint256,uint256)": "f058ebee",
    "name()": "06fdde03",
    "nonfungiblePositionManager()": "b44a2722",
    "onERC721Received(address,address,uint256,bytes)": "150b7a02",
    "positionId()": "71640de3",
    "previewDeposit(uint256)": "ef8b30f7",
    "previewMint(uint256)": "b3d7f6b9",
    "previewRedeem(uint256)": "4cdad506",
    "previewWithdraw(uint256)": "0a28a477",
    "redeem(uint256,address,address)": "ba087652",
    "symbol()": "95d89b41",
    "totAssets()": "9c55f7a0",
    "totalAssets()": "01e1d114",
    "totalAssetsOfUser(address)": "45be27b6",
    "totalLiquidity()": "15770f92",
    "totalSupply()": "18160ddd",
    "transfer(address,uint256)": "a9059cbb",
    "transferFrom(address,address,uint256)": "23b872dd",
    "withdraw(uint256,address,address)": "b460af94"
  },
  "id": 79
}