{
  "abi": [
    {
      "inputs": [],
      "name": "CONTRACT_METADATA_STORAGE_POSITION",
      "outputs": [
        {
          "internalType": "bytes32",
          "name": "",
          "type": "bytes32"
        }
      ],
      "stateMutability": "view",
      "type": "function"
    }
  ],
  "bytecode": {
    "object": "0x60a6610038600b82828239805160001a607314602b57634e487b7160e01b600052600060045260246000fd5b30600052607381538281f3fe730000000000000000000000000000000000000000301460806040526004361060335760003560e01c80637e837fbf146038575b600080fd5b605e7f4bc804ba64359c0e35e5ed5d90ee596ecaa49a3a930ddcb1470ea0dd625da90081565b60405190815260200160405180910390f3fea26469706673582212205977c901845f55c6d0f966da13c38423d8736a409bfb54f2159c22de924e50dc64736f6c63430008130033",
    "linkReferences": {}
  },
  "methodIdentifiers": {
    "CONTRACT_METADATA_STORAGE_POSITION()": "7e837fbf"
  },
  "id": 32
}