{
  "abi": [
    {
      "inputs": [],
      "name": "PERMISSIONS_ENUMERABLE_STORAGE_POSITION",
      "outputs": [
        {
          "internalType": "bytes32",
          "name": "",
          "type": "bytes32"
        }
      ],
      "stateMutability": "view",
      "type": "function"
    }
  ],
  "bytecode": {
    "object": "0x61010361003a600b82828239805160001a60731461002d57634e487b7160e01b600052600060045260246000fd5b30600052607381538281f3fe730000000000000000000000000000000000000000301460806040526004361060335760003560e01c8063871ef69d146038575b600080fd5b603e6050565b60405190815260200160405180910390f35b60ff19607c60017f0c4ba382c0009cf238e4c1ca1a52f51c61e6248a70bdfb34e5ed49d5578a5c0c60a7565b604051602001608d91815260200190565b604051602081830303815290604052805190602001201681565b8181038181111560c757634e487b7160e01b600052601160045260246000fd5b9291505056fea26469706673582212208002249100a8c159318159e46fe07d22773beeec8f65d27505fc3fa39846c4a864736f6c63430008140033",
    "linkReferences": {}
  },
  "methodIdentifiers": {
    "PERMISSIONS_ENUMERABLE_STORAGE_POSITION()": "871ef69d"
  },
  "id": 35
}