{
  "abi": [
    {
      "anonymous": false,
      "inputs": [
        {
          "indexed": true,
          "internalType": "bytes32",
          "name": "role",
          "type": "bytes32"
        },
        {
          "indexed": true,
          "internalType": "bytes32",
          "name": "previousAdminRole",
          "type": "bytes32"
        },
        {
          "indexed": true,
          "internalType": "bytes32",
          "name": "newAdminRole",
          "type": "bytes32"
        }
      ],
      "name": "RoleAdminChanged",
      "type": "event"
    },
    {
      "anonymous": false,
      "inputs": [
        {
          "indexed": true,
          "internalType": "bytes32",
          "name": "role",
          "type": "bytes32"
        },
        {
          "indexed": true,
          "internalType": "address",
          "name": "account",
          "type": "address"
        },
        {
          "indexed": true,
          "internalType": "address",
          "name": "sender",
          "type": "address"
        }
      ],
      "name": "RoleGranted",
      "type": "event"
    },
    {
      "anonymous": false,
      "inputs": [
        {
          "indexed": true,
          "internalType": "bytes32",
          "name": "role",
          "type": "bytes32"
        },
        {
          "indexed": true,
          "internalType": "address",
          "name": "account",
          "type": "address"
        },
        {
          "indexed": true,
          "internalType": "address",
          "name": "sender",
          "type": "address"
        }
      ],
      "name": "RoleRevoked",
      "type": "event"
    },
    {
      "inputs": [],
      "name": "DEFAULT_ADMIN_ROLE",
      "outputs": [
        {
          "internalType": "bytes32",
          "name": "",
          "type": "bytes32"
        }
      ],
      "stateMutability": "view",
      "type": "function"
    },
    {
      "inputs": [
        {
          "internalType": "bytes32",
          "name": "role",
          "type": "bytes32"
        }
      ],
      "name": "getRoleAdmin",
      "outputs": [
        {
          "internalType": "bytes32",
          "name": "",
          "type": "bytes32"
        }
      ],
      "stateMutability": "view",
      "type": "function"
    },
    {
      "inputs": [
        {
          "internalType": "bytes32",
          "name": "role",
          "type": "bytes32"
        },
        {
          "internalType": "uint256",
          "name": "index",
          "type": "uint256"
        }
      ],
      "name": "getRoleMember",
      "outputs": [
        {
          "internalType": "address",
          "name": "member",
          "type": "address"
        }
      ],
      "stateMutability": "view",
      "type": "function"
    },
    {
      "inputs": [
        {
          "internalType": "bytes32",
          "name": "role",
          "type": "bytes32"
        }
      ],
      "name": "getRoleMemberCount",
      "outputs": [
        {
          "internalType": "uint256",
          "name": "count",
          "type": "uint256"
        }
      ],
      "stateMutability": "view",
      "type": "function"
    },
    {
      "inputs": [
        {
          "internalType": "bytes32",
          "name": "role",
          "type": "bytes32"
        },
        {
          "internalType": "address",
          "name": "account",
          "type": "address"
        }
      ],
      "name": "grantRole",
      "outputs": [],
      "stateMutability": "nonpayable",
      "type": "function"
    },
    {
      "inputs": [
        {
          "internalType": "bytes32",
          "name": "role",
          "type": "bytes32"
        },
        {
          "internalType": "address",
          "name": "account",
          "type": "address"
        }
      ],
      "name": "hasRole",
      "outputs": [
        {
          "internalType": "bool",
          "name": "",
          "type": "bool"
        }
      ],
      "stateMutability": "view",
      "type": "function"
    },
    {
      "inputs": [
        {
          "internalType": "bytes32",
          "name": "role",
          "type": "bytes32"
        },
        {
          "internalType": "address",
          "name": "account",
          "type": "address"
        }
      ],
      "name": "hasRoleWithSwitch",
      "outputs": [
        {
          "internalType": "bool",
          "name": "",
          "type": "bool"
        }
      ],
      "stateMutability": "view",
      "type": "function"
    },
    {
      "inputs": [
        {
          "internalType": "bytes32",
          "name": "role",
          "type": "bytes32"
        },
        {
          "internalType": "address",
          "name": "account",
          "type": "address"
        }
      ],
      "name": "renounceRole",
      "outputs": [],
      "stateMutability": "nonpayable",
      "type": "function"
    },
    {
      "inputs": [
        {
          "internalType": "bytes32",
          "name": "role",
          "type": "bytes32"
        },
        {
          "internalType": "address",
          "name": "account",
          "type": "address"
        }
      ],
      "name": "revokeRole",
      "outputs": [],
      "stateMutability": "nonpayable",
      "type": "function"
    }
  ],
  "bytecode": {
    "object": "0x608060405234801561001057600080fd5b50610c3c806100206000396000f3fe608060405234801561001057600080fd5b50600436106100935760003560e01c806391d148541161006657806391d148541461013d578063a217fddf14610160578063a32fa5b314610168578063ca15c8731461017b578063d547741f1461018e57600080fd5b8063248a9ca3146100985780632f2ff15d146100ea57806336568abe146100ff5780639010d07c14610112575b600080fd5b6100d76100a6366004610a15565b60009081527f0a7b0f5c59907924802379ebe98cdc23e2ee7820f63d30126e10b3752010e501602052604090205490565b6040519081526020015b60405180910390f35b6100fd6100f8366004610a2e565b6101b3565b005b6100fd61010d366004610a2e565b610271565b610125610120366004610a6a565b6102d3565b6040516001600160a01b0390911681526020016100e1565b61015061014b366004610a2e565b6103e2565b60405190151581526020016100e1565b6100d7600081565b610150610176366004610a2e565b61041a565b6100d7610189366004610a15565b61048b565b6100fd61019c366004610a2e565b6102c9600080516020610be78339815191526101c6565b6101df600080516020610be78339815191525b600084815260019190910160205260409020543361052d565b600080516020610be78339815191526000838152602091825260408082206001600160a01b0385168352909252205460ff16156102635760405162461bcd60e51b815260206004820152601d60248201527f43616e206f6e6c79206772616e7420746f206e6f6e20686f6c6465727300000060448201526064015b60405180910390fd5b61026d82826105b9565b5050565b336001600160a01b038216146102c95760405162461bcd60e51b815260206004820152601a60248201527f43616e206f6e6c792072656e6f756e636520666f722073656c66000000000000604482015260640161025a565b61026d82826105cd565b6000806102de6105e1565b600085815260209190915260408120549150805b828110156103d85760006103046105e1565b60008881526020918252604080822085835260010190925220546001600160a01b03161461037c5784820361036a5761033b6105e1565b600087815260209182526040808220938252600190930190915220546001600160a01b031692506103dc915050565b610375600183610aa2565b91506103c6565b6103878660006103e2565b80156103b357506103966105e1565b600087815260209182526040808220828052600201909252205481145b156103c6576103c3600183610aa2565b91505b6103d1600182610aa2565b90506102f2565b5050505b92915050565b6000918252600080516020610be7833981519152602090815260408084206001600160a01b0393909316845291905290205460ff1690565b6000600080516020610be7833981519152600084815260209182526040808220828052909252205460ff1661048257600080516020610be78339815191526000848152602091825260408082206001600160a01b0386168352909252205460ff1690506103dc565b50600192915050565b6000806104966105e1565b6000848152602091909152604081205491505b818110156105035760006104bb6105e1565b60008681526020918252604080822085835260010190925220546001600160a01b0316146104f1576104ee600184610aa2565b92505b6104fc600182610aa2565b90506104a9565b5061050f8360006103e2565b156105225761051f600183610aa2565b91505b50919050565b905090565b600080516020610be78339815191526000838152602091825260408082206001600160a01b0385168352909252205460ff1661026d57610577816001600160a01b031660146105eb565b6105828360206105eb565b604051602001610593929190610ad9565b60408051601f198184030181529082905262461bcd60e51b825261025a91600401610b46565b6105c3828261078e565b61026d82826107f6565b6105d782826108b5565b61026d8282610924565b60006105286109b3565b606060006105fa836002610b79565b610605906002610aa2565b67ffffffffffffffff81111561061d5761061d610b90565b6040519080825280601f01601f191660200182016040528015610647576020820181803683370190505b509050600360fc1b8160008151811061066257610662610ba6565b60200101906001600160f81b031916908160001a905350600f60fb1b8160018151811061069157610691610ba6565b60200101906001600160f81b031916908160001a90535060006106b5846002610b79565b6106c0906001610aa2565b90505b6001811115610738576f181899199a1a9b1b9c1cb0b131b232b360811b85600f16601081106106f4576106f4610ba6565b1a60f81b82828151811061070a5761070a610ba6565b60200101906001600160f81b031916908160001a90535060049490941c9361073181610bbc565b90506106c3565b5083156107875760405162461bcd60e51b815260206004820181905260248201527f537472696e67733a20686578206c656e67746820696e73756666696369656e74604482015260640161025a565b9392505050565b6000828152600080516020610be7833981519152602090815260408083206001600160a01b0385168085529252808320805460ff1916600117905551339285917f2f8788117e7eff1d82e926ec794901d17c78024a50270940304540a733656f0d9190a45050565b60006108006105e1565b600084815260209190915260409020549050600161081c6105e1565b600085815260209190915260408120805490919061083b908490610aa2565b9091555082905061084a6105e1565b6000858152602091825260408082208583526001019092522080546001600160a01b0319166001600160a01b03929092169190911790558061088a6105e1565b6000948552602090815260408086206001600160a01b03909516865260029094019052919092205550565b6108bf828261052d565b6000828152600080516020610be7833981519152602090815260408083206001600160a01b0385168085529252808320805460ff1916905551339285917ff6391f5c32d9c69d2a47ea670b442974b53935d1edc7fd64eb21e047a839171b9190a45050565b600061092e6105e1565b6000848152602091825260408082206001600160a01b03861683526002019092522054905061095b6105e1565b6000848152602091825260408082208483526001019092522080546001600160a01b031916905561098a6105e1565b6000938452602090815260408085206001600160a01b0390941685526002909301905250812055565b60008060ff196109e460017f0c4ba382c0009cf238e4c1ca1a52f51c61e6248a70bdfb34e5ed49d5578a5c0c610bd3565b6040516020016109f691815260200190565b60408051601f1981840301815291905280516020909101201692915050565b600060208284031215610a2757600080fd5b5035919050565b60008060408385031215610a4157600080fd5b8235915060208301356001600160a01b0381168114610a5f57600080fd5b809150509250929050565b60008060408385031215610a7d57600080fd5b50508035926020909101359150565b634e487b7160e01b600052601160045260246000fd5b808201808211156103dc576103dc610a8c565b60005b83811015610ad0578181015183820152602001610ab8565b50506000910152565b7402832b936b4b9b9b4b7b7399d1030b1b1b7bab73a1605d1b815260008351610b09816015850160208801610ab5565b7001034b99036b4b9b9b4b733903937b6329607d1b6015918401918201528351610b3a816026840160208801610ab5565b01602601949350505050565b6020815260008251806020840152610b65816040850160208701610ab5565b601f01601f19169190910160400192915050565b80820281158282048414176103dc576103dc610a8c565b634e487b7160e01b600052604160045260246000fd5b634e487b7160e01b600052603260045260246000fd5b600081610bcb57610bcb610a8c565b506000190190565b818103818111156103dc576103dc610a8c56fe0a7b0f5c59907924802379ebe98cdc23e2ee7820f63d30126e10b3752010e500a26469706673582212201b37d51c26ca1feed3ef3b176a80a5d49a42e863767ed2518cc7bc9f664f3eae64736f6c63430008140033",
    "linkReferences": {}
  },
  "methodIdentifiers": {
    "DEFAULT_ADMIN_ROLE()": "a217fddf",
    "getRoleAdmin(bytes32)": "248a9ca3",
    "getRoleMember(bytes32,uint256)": "9010d07c",
    "getRoleMemberCount(bytes32)": "ca15c873",
    "grantRole(bytes32,address)": "2f2ff15d",
    "hasRole(bytes32,address)": "91d14854",
    "hasRoleWithSwitch(bytes32,address)": "a32fa5b3",
    "renounceRole(bytes32,address)": "36568abe",
    "revokeRole(bytes32,address)": "d547741f"
  },
  "id": 47
}