{
  "abi": [
    {
      "inputs": [
        {
          "internalType": "address",
          "name": "router",
          "type": "address"
        },
        {
          "internalType": "address",
          "name": "link",
          "type": "address"
        }
      ],
      "stateMutability": "nonpayable",
      "type": "constructor"
    },
    {
      "inputs": [
        {
          "internalType": "address",
          "name": "router",
          "type": "address"
        }
      ],
      "name": "InvalidRouter",
      "type": "error"
    },
    {
      "anonymous": false,
      "inputs": [
        {
          "indexed": true,
          "internalType": "address",
          "name": "owner",
          "type": "address"
        },
        {
          "indexed": true,
          "internalType": "address",
          "name": "spender",
          "type": "address"
        },
        {
          "indexed": false,
          "internalType": "uint256",
          "name": "value",
          "type": "uint256"
        }
      ],
      "name": "Approval",
      "type": "event"
    },
    {
      "anonymous": false,
      "inputs": [
        {
          "indexed": false,
          "internalType": "bytes32",
          "name": "latestMessageId",
          "type": "bytes32"
        },
        {
          "indexed": false,
          "internalType": "uint64",
          "name": "latestSourceChainSelector",
          "type": "uint64"
        },
        {
          "indexed": false,
          "internalType": "address",
          "name": "latestSender",
          "type": "address"
        },
        {
          "indexed": false,
          "internalType": "string",
          "name": "latestMessage",
          "type": "string"
        }
      ],
      "name": "MessageReceived",
      "type": "event"
    },
    {
      "anonymous": false,
      "inputs": [
        {
          "indexed": false,
          "internalType": "bytes32",
          "name": "messageId",
          "type": "bytes32"
        }
      ],
      "name": "MessageSent",
      "type": "event"
    },
    {
      "anonymous": false,
      "inputs": [
        {
          "indexed": true,
          "internalType": "address",
          "name": "from",
          "type": "address"
        },
        {
          "indexed": true,
          "internalType": "address",
          "name": "to",
          "type": "address"
        },
        {
          "indexed": false,
          "internalType": "uint256",
          "name": "value",
          "type": "uint256"
        }
      ],
      "name": "Transfer",
      "type": "event"
    },
    {
      "inputs": [
        {
          "internalType": "address",
          "name": "",
          "type": "address"
        },
        {
          "internalType": "address",
          "name": "",
          "type": "address"
        }
      ],
      "name": "_allowances",
      "outputs": [
        {
          "internalType": "uint256",
          "name": "",
          "type": "uint256"
        }
      ],
      "stateMutability": "view",
      "type": "function"
    },
    {
      "inputs": [
        {
          "internalType": "address",
          "name": "owner",
          "type": "address"
        },
        {
          "internalType": "address",
          "name": "spender",
          "type": "address"
        }
      ],
      "name": "allowance",
      "outputs": [
        {
          "internalType": "uint256",
          "name": "",
          "type": "uint256"
        }
      ],
      "stateMutability": "view",
      "type": "function"
    },
    {
      "inputs": [
        {
          "internalType": "address",
          "name": "spender",
          "type": "address"
        },
        {
          "internalType": "uint256",
          "name": "amount",
          "type": "uint256"
        }
      ],
      "name": "approve",
      "outputs": [
        {
          "internalType": "bool",
          "name": "",
          "type": "bool"
        }
      ],
      "stateMutability": "nonpayable",
      "type": "function"
    },
    {
      "inputs": [
        {
          "internalType": "address",
          "name": "account",
          "type": "address"
        }
      ],
      "name": "balanceOf",
      "outputs": [
        {
          "internalType": "uint256",
          "name": "",
          "type": "uint256"
        }
      ],
      "stateMutability": "view",
      "type": "function"
    },
    {
      "inputs": [
        {
          "components": [
            {
              "internalType": "bytes32",
              "name": "messageId",
              "type": "bytes32"
            },
            {
              "internalType": "uint64",
              "name": "sourceChainSelector",
              "type": "uint64"
            },
            {
              "internalType": "bytes",
              "name": "sender",
              "type": "bytes"
            },
            {
              "internalType": "bytes",
              "name": "data",
              "type": "bytes"
            },
            {
              "components": [
                {
                  "internalType": "address",
                  "name": "token",
                  "type": "address"
                },
                {
                  "internalType": "uint256",
                  "name": "amount",
                  "type": "uint256"
                }
              ],
              "internalType": "struct Client.EVMTokenAmount[]",
              "name": "destTokenAmounts",
              "type": "tuple[]"
            }
          ],
          "internalType": "struct Client.Any2EVMMessage",
          "name": "message",
          "type": "tuple"
        }
      ],
      "name": "ccipReceive",
      "outputs": [],
      "stateMutability": "nonpayable",
      "type": "function"
    },
    {
      "inputs": [],
      "name": "decimals",
      "outputs": [
        {
          "internalType": "uint8",
          "name": "",
          "type": "uint8"
        }
      ],
      "stateMutability": "view",
      "type": "function"
    },
    {
      "inputs": [
        {
          "internalType": "address",
          "name": "spender",
          "type": "address"
        },
        {
          "internalType": "uint256",
          "name": "subtractedValue",
          "type": "uint256"
        }
      ],
      "name": "decreaseAllowance",
      "outputs": [
        {
          "internalType": "bool",
          "name": "",
          "type": "bool"
        }
      ],
      "stateMutability": "nonpayable",
      "type": "function"
    },
    {
      "inputs": [],
      "name": "getLatestMessageDetails",
      "outputs": [
        {
          "internalType": "bytes32",
          "name": "",
          "type": "bytes32"
        },
        {
          "internalType": "uint64",
          "name": "",
          "type": "uint64"
        },
        {
          "internalType": "address",
          "name": "",
          "type": "address"
        },
        {
          "internalType": "string",
          "name": "",
          "type": "string"
        }
      ],
      "stateMutability": "view",
      "type": "function"
    },
    {
      "inputs": [],
      "name": "getRouter",
      "outputs": [
        {
          "internalType": "address",
          "name": "",
          "type": "address"
        }
      ],
      "stateMutability": "view",
      "type": "function"
    },
    {
      "inputs": [
        {
          "internalType": "address",
          "name": "spender",
          "type": "address"
        },
        {
          "internalType": "uint256",
          "name": "addedValue",
          "type": "uint256"
        }
      ],
      "name": "increaseAllowance",
      "outputs": [
        {
          "internalType": "bool",
          "name": "",
          "type": "bool"
        }
      ],
      "stateMutability": "nonpayable",
      "type": "function"
    },
    {
      "inputs": [],
      "name": "name",
      "outputs": [
        {
          "internalType": "string",
          "name": "",
          "type": "string"
        }
      ],
      "stateMutability": "view",
      "type": "function"
    },
    {
      "inputs": [
        {
          "internalType": "address",
          "name": "to",
          "type": "address"
        },
        {
          "internalType": "uint256",
          "name": "amount",
          "type": "uint256"
        }
      ],
      "name": "send",
      "outputs": [
        {
          "internalType": "bytes32",
          "name": "messageId",
          "type": "bytes32"
        }
      ],
      "stateMutability": "nonpayable",
      "type": "function"
    },
    {
      "inputs": [
        {
          "internalType": "address",
          "name": "portal",
          "type": "address"
        }
      ],
      "name": "setPortal",
      "outputs": [],
      "stateMutability": "nonpayable",
      "type": "function"
    },
    {
      "inputs": [
        {
          "internalType": "bytes4",
          "name": "interfaceId",
          "type": "bytes4"
        }
      ],
      "name": "supportsInterface",
      "outputs": [
        {
          "internalType": "bool",
          "name": "",
          "type": "bool"
        }
      ],
      "stateMutability": "pure",
      "type": "function"
    },
    {
      "inputs": [],
      "name": "symbol",
      "outputs": [
        {
          "internalType": "string",
          "name": "",
          "type": "string"
        }
      ],
      "stateMutability": "view",
      "type": "function"
    },
    {
      "inputs": [],
      "name": "totalSupply",
      "outputs": [
        {
          "internalType": "uint256",
          "name": "",
          "type": "uint256"
        }
      ],
      "stateMutability": "view",
      "type": "function"
    },
    {
      "inputs": [
        {
          "internalType": "address",
          "name": "to",
          "type": "address"
        },
        {
          "internalType": "uint256",
          "name": "amount",
          "type": "uint256"
        }
      ],
      "name": "transfer",
      "outputs": [
        {
          "internalType": "bool",
          "name": "",
          "type": "bool"
        }
      ],
      "stateMutability": "nonpayable",
      "type": "function"
    },
    {
      "inputs": [
        {
          "internalType": "address",
          "name": "from",
          "type": "address"
        },
        {
          "internalType": "address",
          "name": "to",
          "type": "address"
        },
        {
          "internalType": "uint256",
          "name": "amount",
          "type": "uint256"
        }
      ],
      "name": "transferFrom",
      "outputs": [
        {
          "internalType": "bool",
          "name": "",
          "type": "bool"
        }
      ],
      "stateMutability": "nonpayable",
      "type": "function"
    },
    {
      "stateMutability": "payable",
      "type": "receive"
    }
  ],
  "bytecode": {
    "object": "0x60e060405260088054600160a01b600160e01b03191667de41ba4fc9d91ad960a01b1790553480156200003157600080fd5b5060405162001e5f38038062001e5f833981016040819052620000549162000113565b6040805180820182526004808252636247686f60e01b602080840182905284518086019095529184529083015290838381806001600160a01b038116620000b5576040516335fdcccd60e21b81526000600482015260240160405180910390fd5b6001600160a01b0390811660805292831660a052501660c0526006620000dc8382620001f0565b506007620000eb8282620001f0565b5050505050620002bc565b80516001600160a01b03811681146200010e57600080fd5b919050565b600080604083850312156200012757600080fd5b6200013283620000f6565b91506200014260208401620000f6565b90509250929050565b634e487b7160e01b600052604160045260246000fd5b600181811c908216806200017657607f821691505b6020821081036200019757634e487b7160e01b600052602260045260246000fd5b50919050565b601f821115620001eb57600081815260208120601f850160051c81016020861015620001c65750805b601f850160051c820191505b81811015620001e757828155600101620001d2565b5050505b505050565b81516001600160401b038111156200020c576200020c6200014b565b62000224816200021d845462000161565b846200019d565b602080601f8311600181146200025c5760008415620002435750858301515b600019600386901b1c1916600185901b178555620001e7565b600085815260208120601f198616915b828110156200028d578886015182559484019460019091019084016200026c565b5085821015620002ac5787850151600019600388901b60f8161c191681555b5050505050600190811b01905550565b60805160a05160c051611b506200030f60003960008181610dab0152610ee0015260008181610df201528181610eb101528181610f650152610ffd01526000818161035301526105f90152611b506000f3fe60806040526004361061010d5760003560e01c80634ff5619211610095578063a457c2d711610064578063a457c2d7146102f9578063a9059cbb14610319578063b0f479a114610339578063d0679d341461037d578063dd62ed3e1461039d57600080fd5b80634ff561921461026c57806370a082311461028e57806385572ffb146102c457806395d89b41146102e457600080fd5b806318160ddd116100dc57806318160ddd146101d657806323b872dd146101eb578063313ce5671461020b5780633394e6f414610227578063395093511461024c57600080fd5b806301ffc9a714610119578063024c2ddd1461014e57806306fdde0314610194578063095ea7b3146101b657600080fd5b3661011457005b600080fd5b34801561012557600080fd5b506101396101343660046112ab565b6103bd565b60405190151581526020015b60405180910390f35b34801561015a57600080fd5b506101866101693660046112f1565b600460209081526000928352604080842090915290825290205481565b604051908152602001610145565b3480156101a057600080fd5b506101a96103f4565b604051610145919061137a565b3480156101c257600080fd5b506101396101d136600461138d565b610486565b3480156101e257600080fd5b50600554610186565b3480156101f757600080fd5b506101396102063660046113b9565b61049e565b34801561021757600080fd5b5060405160128152602001610145565b34801561023357600080fd5b5061023c6104c2565b60405161014594939291906113fa565b34801561025857600080fd5b5061013961026736600461138d565b610594565b34801561027857600080fd5b5061028c61028736600461143d565b6105b6565b005b34801561029a57600080fd5b506101866102a936600461143d565b6001600160a01b031660009081526003602052604090205490565b3480156102d057600080fd5b5061028c6102df36600461145a565b6105ee565b3480156102f057600080fd5b506101a9610652565b34801561030557600080fd5b5061013961031436600461138d565b610661565b34801561032557600080fd5b5061013961033436600461138d565b6106dc565b34801561034557600080fd5b506040516001600160a01b037f0000000000000000000000000000000000000000000000000000000000000000168152602001610145565b34801561038957600080fd5b5061018661039836600461138d565b6106ea565b3480156103a957600080fd5b506101866103b83660046112f1565b61074c565b60006001600160e01b031982166385572ffb60e01b14806103ee57506001600160e01b031982166301ffc9a760e01b145b92915050565b60606006805461040390611494565b80601f016020809104026020016040519081016040528092919081815260200182805461042f90611494565b801561047c5780601f106104515761010080835404028352916020019161047c565b820191906000526020600020905b81548152906001019060200180831161045f57829003601f168201915b5050505050905090565b600033610494818585610777565b5060019392505050565b6000336104ac85828561089c565b6104b7858585610916565b506001949350505050565b60008060006060600054600160009054906101000a90046001600160401b0316600160089054906101000a90046001600160a01b0316600280805461050690611494565b80601f016020809104026020016040519081016040528092919081815260200182805461053290611494565b801561057f5780601f106105545761010080835404028352916020019161057f565b820191906000526020600020905b81548152906001019060200180831161056257829003601f168201915b50505050509050935093509350935090919293565b6000336104948185856105a7838361074c565b6105b191906114ce565b610777565b6008546001600160a01b0316156105cc57600080fd5b600880546001600160a01b0319166001600160a01b0392909216919091179055565b336001600160a01b037f0000000000000000000000000000000000000000000000000000000000000000161461063e576040516335fdcccd60e21b81523360048201526024015b60405180910390fd5b61064f61064a826116c4565b610ac1565b50565b60606007805461040390611494565b6000338161066f828661074c565b9050838110156106cf5760405162461bcd60e51b815260206004820152602560248201527f45524332303a2064656372656173656420616c6c6f77616e63652062656c6f77604482015264207a65726f60d81b6064820152608401610635565b6104b78286868403610777565b600033610494818585610916565b604080516001600160a01b038481166020830152818301849052825180830384018152606090920190925260085460009261073991600160a01b81046001600160401b03169116836001610cde565b915061074584846110b9565b5092915050565b6001600160a01b03918216600090815260046020908152604080832093909416825291909152205490565b6001600160a01b0383166107d95760405162461bcd60e51b8152602060048201526024808201527f45524332303a20617070726f76652066726f6d20746865207a65726f206164646044820152637265737360e01b6064820152608401610635565b6001600160a01b03821661083a5760405162461bcd60e51b815260206004820152602260248201527f45524332303a20617070726f766520746f20746865207a65726f206164647265604482015261737360f01b6064820152608401610635565b6001600160a01b0383811660008181526004602090815260408083209487168084529482529182902085905590518481527f8c5be1e5ebec7d5bd14f71427d1e84f3dd0314c0f7b2291e5b200ac8c7c3b92591015b60405180910390a3505050565b60006108a8848461074c565b9050600019811461091057818110156109035760405162461bcd60e51b815260206004820152601d60248201527f45524332303a20696e73756666696369656e7420616c6c6f77616e63650000006044820152606401610635565b6109108484848403610777565b50505050565b6001600160a01b03831661097a5760405162461bcd60e51b815260206004820152602560248201527f45524332303a207472616e736665722066726f6d20746865207a65726f206164604482015264647265737360d81b6064820152608401610635565b6001600160a01b0382166109dc5760405162461bcd60e51b815260206004820152602360248201527f45524332303a207472616e7366657220746f20746865207a65726f206164647260448201526265737360e81b6064820152608401610635565b6001600160a01b03831660009081526003602052604090205481811015610a545760405162461bcd60e51b815260206004820152602660248201527f45524332303a207472616e7366657220616d6f756e7420657863656564732062604482015265616c616e636560d01b6064820152608401610635565b6001600160a01b0380851660008181526003602052604080822086860390559286168082529083902080548601905591517fddf252ad1be2c89b69c2b068fc378daa952ba7f163c4a11628f55a4df523b3ef90610ab49086815260200190565b60405180910390a3610910565b80516000556020808201516001805467ffffffffffffffff19166001600160401b0390921691909117905560408201518051610b039290820181019101611770565b600160086101000a8154816001600160a01b0302191690836001600160a01b031602179055508060600151806020019051810190610b41919061178d565b600290610b4e9082611851565b50600854600154600160401b90046001600160a01b03908116911614610bc75760405162461bcd60e51b815260206004820152602860248201527f496e76616c6964206d6573736167652073656e6465722066726f6d206f72696760448201526734b71031b430b4b760c11b6064820152608401610635565b600060028054610bd690611494565b80601f0160208091040260200160405190810160405280929190818152602001828054610c0290611494565b8015610c4f5780601f10610c2457610100808354040283529160200191610c4f565b820191906000526020600020905b815481529060010190602001808311610c3257829003601f168201915b5050505050905060008082806020019051810190610c6d9190611910565b91509150610c7b82826111ea565b6000546001546040517fb1e312a29937cc11967b0e4a346fef1ae132424ebaba9dc6d90249dba053e87c92610cd09290916001600160401b03821691600160401b90046001600160a01b03169060029061193e565b60405180910390a150505050565b6040805160a081019091526001600160a01b03841660c082015260009081908060e08101604051602081830303815290604052815260200185604051602001610d27919061137a565b60408051601f1981840301815291905281526020016000604051908082528060200260200182016040528015610d8357816020015b6040805180820190915260008082526020820152815260200190600190039081610d5c5790505b5081526020016001856001811115610d9d57610d9d6119f0565b14610da9576000610dcb565b7f00000000000000000000000000000000000000000000000000000000000000005b6001600160a01b0316815260200160405180602001604052806000815250815250905060007f00000000000000000000000000000000000000000000000000000000000000006001600160a01b03166320487ded88846040518363ffffffff1660e01b8152600401610e3e929190611a06565b602060405180830381865afa158015610e5b573d6000803e3d6000fd5b505050506040513d601f19601f82011682018060405250810190610e7f9190611adf565b90506001846001811115610e9557610e956119f0565b03610fe65760405163095ea7b360e01b81526001600160a01b037f000000000000000000000000000000000000000000000000000000000000000081166004830152602482018390527f0000000000000000000000000000000000000000000000000000000000000000169063095ea7b3906044016020604051808303816000875af1158015610f29573d6000803e3d6000fd5b505050506040513d601f19601f82011682018060405250810190610f4d9190611af8565b506040516396f4e9f960e01b81526001600160a01b037f000000000000000000000000000000000000000000000000000000000000000016906396f4e9f990610f9c908a908690600401611a06565b6020604051808303816000875af1158015610fbb573d6000803e3d6000fd5b505050506040513d601f19601f82011682018060405250810190610fdf9190611adf565b925061107c565b6040516396f4e9f960e01b81526001600160a01b037f000000000000000000000000000000000000000000000000000000000000000016906396f4e9f9908390611036908b908790600401611a06565b60206040518083038185885af1158015611054573d6000803e3d6000fd5b50505050506040513d601f19601f820116820180604052508101906110799190611adf565b92505b6040518381527f54791b38f3859327992a1ca0590ad3c0f08feba98d1a4f56ab0dca74d203392a9060200160405180910390a15050949350505050565b6001600160a01b0382166111195760405162461bcd60e51b815260206004820152602160248201527f45524332303a206275726e2066726f6d20746865207a65726f206164647265736044820152607360f81b6064820152608401610635565b6001600160a01b0382166000908152600360205260409020548181101561118d5760405162461bcd60e51b815260206004820152602260248201527f45524332303a206275726e20616d6f756e7420657863656564732062616c616e604482015261636560f01b6064820152608401610635565b6001600160a01b03831660008181526003602090815260408083208686039055600580548790039055518581529192917fddf252ad1be2c89b69c2b068fc378daa952ba7f163c4a11628f55a4df523b3ef910161088f565b505050565b6001600160a01b0382166112405760405162461bcd60e51b815260206004820152601f60248201527f45524332303a206d696e7420746f20746865207a65726f2061646472657373006044820152606401610635565b806005600082825461125291906114ce565b90915550506001600160a01b0382166000818152600360209081526040808320805486019055518481527fddf252ad1be2c89b69c2b068fc378daa952ba7f163c4a11628f55a4df523b3ef910160405180910390a35050565b6000602082840312156112bd57600080fd5b81356001600160e01b0319811681146112d557600080fd5b9392505050565b6001600160a01b038116811461064f57600080fd5b6000806040838503121561130457600080fd5b823561130f816112dc565b9150602083013561131f816112dc565b809150509250929050565b60005b8381101561134557818101518382015260200161132d565b50506000910152565b6000815180845261136681602086016020860161132a565b601f01601f19169290920160200192915050565b6020815260006112d5602083018461134e565b600080604083850312156113a057600080fd5b82356113ab816112dc565b946020939093013593505050565b6000806000606084860312156113ce57600080fd5b83356113d9816112dc565b925060208401356113e9816112dc565b929592945050506040919091013590565b8481526001600160401b03841660208201526001600160a01b03831660408201526080606082018190526000906114339083018461134e565b9695505050505050565b60006020828403121561144f57600080fd5b81356112d5816112dc565b60006020828403121561146c57600080fd5b81356001600160401b0381111561148257600080fd5b820160a081850312156112d557600080fd5b600181811c908216806114a857607f821691505b6020821081036114c857634e487b7160e01b600052602260045260246000fd5b50919050565b808201808211156103ee57634e487b7160e01b600052601160045260246000fd5b634e487b7160e01b600052604160045260246000fd5b604080519081016001600160401b0381118282101715611527576115276114ef565b60405290565b60405160a081016001600160401b0381118282101715611527576115276114ef565b604051601f8201601f191681016001600160401b0381118282101715611577576115776114ef565b604052919050565b80356001600160401b038116811461159657600080fd5b919050565b60006001600160401b038211156115b4576115b46114ef565b50601f01601f191660200190565b600082601f8301126115d357600080fd5b81356115e66115e18261159b565b61154f565b8181528460208386010111156115fb57600080fd5b816020850160208301376000918101602001919091529392505050565b600082601f83011261162957600080fd5b813560206001600160401b03821115611644576116446114ef565b611652818360051b0161154f565b82815260069290921b8401810191818101908684111561167157600080fd5b8286015b848110156116b9576040818903121561168e5760008081fd5b611696611505565b81356116a1816112dc565b81528185013585820152835291830191604001611675565b509695505050505050565b600060a082360312156116d657600080fd5b6116de61152d565b823581526116ee6020840161157f565b602082015260408301356001600160401b038082111561170d57600080fd5b611719368387016115c2565b6040840152606085013591508082111561173257600080fd5b61173e368387016115c2565b6060840152608085013591508082111561175757600080fd5b5061176436828601611618565b60808301525092915050565b60006020828403121561178257600080fd5b81516112d5816112dc565b60006020828403121561179f57600080fd5b81516001600160401b038111156117b557600080fd5b8201601f810184136117c657600080fd5b80516117d46115e18261159b565b8181528560208385010111156117e957600080fd5b6117fa82602083016020860161132a565b95945050505050565b601f8211156111e557600081815260208120601f850160051c8101602086101561182a5750805b601f850160051c820191505b8181101561184957828155600101611836565b505050505050565b81516001600160401b0381111561186a5761186a6114ef565b61187e816118788454611494565b84611803565b602080601f8311600181146118b3576000841561189b5750858301515b600019600386901b1c1916600185901b178555611849565b600085815260208120601f198616915b828110156118e2578886015182559484019460019091019084016118c3565b50858210156119005787850151600019600388901b60f8161c191681555b5050505050600190811b01905550565b6000806040838503121561192357600080fd5b825161192e816112dc565b6020939093015192949293505050565b848152600060206001600160401b0386168184015260018060a01b0385166040840152608060608401526000845461197581611494565b80608087015260a060018084166000811461199757600181146119b1576119df565b60ff1985168984015283151560051b8901830195506119df565b896000528660002060005b858110156119d75781548b82018601529083019088016119bc565b8a0184019650505b50939b9a5050505050505050505050565b634e487b7160e01b600052602160045260246000fd5b600060406001600160401b038516835260208181850152845160a083860152611a3260e086018261134e565b905081860151603f1980878403016060880152611a4f838361134e565b88860151888203830160808a01528051808352908601945060009350908501905b80841015611aa257845180516001600160a01b0316835286015186830152938501936001939093019290860190611a70565b5060608901516001600160a01b031660a08901526080890151888203830160c08a01529550611ad1818761134e565b9a9950505050505050505050565b600060208284031215611af157600080fd5b5051919050565b600060208284031215611b0a57600080fd5b815180151581146112d557600080fdfea26469706673582212202ee6bc8065de138a8c8b238722e26cd426369602a807638665c1d3d73d1d81f964736f6c63430008140033",
    "linkReferences": {}
  },
  "methodIdentifiers": {
    "_allowances(address,address)": "024c2ddd",
    "allowance(address,address)": "dd62ed3e",
    "approve(address,uint256)": "095ea7b3",
    "balanceOf(address)": "70a08231",
    "ccipReceive((bytes32,uint64,bytes,bytes,(address,uint256)[]))": "85572ffb",
    "decimals()": "313ce567",
    "decreaseAllowance(address,uint256)": "a457c2d7",
    "getLatestMessageDetails()": "3394e6f4",
    "getRouter()": "b0f479a1",
    "increaseAllowance(address,uint256)": "39509351",
    "name()": "06fdde03",
    "send(address,uint256)": "d0679d34",
    "setPortal(address)": "4ff56192",
    "supportsInterface(bytes4)": "01ffc9a7",
    "symbol()": "95d89b41",
    "totalSupply()": "18160ddd",
    "transfer(address,uint256)": "a9059cbb",
    "transferFrom(address,address,uint256)": "23b872dd"
  },
  "id": 12
}